:1000000000800020BD010000F9DF0000B5DF000026
:10001000B5DF0000B5DF0000B5DF0000B5DF000090
:10002000B5DF0000B5DF0000B5DF0000F9DF00003C
:10003000F9DF0000B5DF00006D0901007109010062
:10004000F9DF0000F9DF0000F9DF0000F9DF000050
:10005000F9DF0000F9DF0000F9DF0000F9DF000040
:10006000F9DF0000F9DF0000F9DF0000F9DF000030
:10007000F9DF0000F9DF0000F9DF0000F9DF000020
:10008000F9DF0000F9DF0000F9DF0000F9DF000010
:10009000F9DF0000F9DF0000F9DF0000F9DF000000
:1000A00035B5000041B50000F9DF0000F9DF0000C0
:1000B000F9DF0000F9DF0000F9DF0000F9DF0000E0
:1000C000F9DF0000F9DF0000F9DF0000F9DF0000D0
:1000D000F9DF0000F9DF0000F9DF0000F9DF0000C0
:1000E000F9DF0000F9DF0000F9DF0000F9DF0000B0
:1000F000F9DF0000F9DF0000F9DF000059EF000030
:10010000F9DF0000A1F60000F9DF0000F9DF0000D0
:10011000F9DF0000F9DF0000F9DF0000F9DF00007F
:10012000F9DF0000F9DF0000F9DF0000F9DF00006F
:10013000F9DF0000F9DF0000F9DF0000F9DF00005F
:10014000F9DF0000F9DF0000F9DF0000F9DF00004F
:10015000090E0100250E0100410E01005D0E010097
:10016000F9DF000015FA0000F9DF0000F9DF0000F8
:10017000F9DF0000F9DF0000F9DF0000F9DF00001F
:10018000F9DF0000F9DF0000F9DF0000F9DF00000F
:10019000F9DF0000F9DF0000F9DF0000F9DF0000FF
:1001A000F9DF0000F9DF0000F9DF0000F9DF0000EF
:1001B000F9DF0000F9DF0000F9DF0000574B4CF2D7
:1001C000205210B5DA814DF62812DA8100BF00BF47
:1001D0000DF016FF524B4FF010621A63514A9A63AA
:1001E000514ADA63514A136913F4807303D153619E
:1001F0004FF4A85313614E4B9A78110703D59A78A0
:1002000042F008029A704B4B4B482A221A704B4B13
:10021000DA1C121AC11E22F00302994288BF002282
:1002200047490DF0F9FB474B4748DA1C121AC11E2B
:1002300022F00302994288BF0022002112F09EF9A9
:10024000424943484FF4DE720DF0E6FB414B424A0F
:10025000802103F8011B9342FBD14FF0E0233C4A7D
:10026000C3F8082D3D4B8A221A70A3F5805324222F
:100270005A70A0221A709A799207FCD59A79D406FE
:10028000FCD4374B9A7902F00C02082AFAD10322E7
:100290001A7140225A719A799006FCD5304A9379A6
:1002A0005906FCD51E4B2F4959640221996420211F
:1002B0001170917901F00C010C29FAD12A4A5A6087
:1002C0004FF0E023294A5A6100229A6107221A61FD
:1002D000274AC3F8202D62B60DF0BCFF134B5B69B3
:1002E000DA0705D523480DF0A9FF234B234ADA612D
:1002F000234B1B785B0609D51F4C204BE2699A42C1
:1003000004D11C480DF09AFF0023E3610DF07EFE3E
:1003100012F016FA10F03CFEFEE700BF0020054088
:1003200000800440823F04000100002B00D0034005
:1003300000D0074000E00740308CFF1FF098FF1FFF
:100340003060010048A4FF1FF098FF1F000000006C
:100350000082FF1F00E400E05FE400E00050064080
:100360000040064000000301C0100500FF760100B8
:10037000000020205280F06600E00340A5C3945A9C
:1003800000F00740FFFFFFFFFFFFFFFFFFFFFFFF42
:10039000FFFFFFFFFFFFFFFFFFFFFFFFFFFFFFFF6D
:1003A000FFFFFFFFFFFFFFFFFFFFFFFFFFFFFFFF5D
:1003B000FFFFFFFFFFFFFFFFFFFFFFFFFFFFFFFF4D
:1003C000FFFFFFFFFFFFFFFFFFFFFFFFFFFFFFFF3D
:1003D000FFFFFFFFFFFFFFFFFFFFFFFFFFFFFFFF2D
:1003E000FFFFFFFFFFFFFFFFFFFFFFFFFFFFFFFF1D
:1003F000FFFFFFFFFFFFFFFFFFFFFFFFFFFFFFFF0D
:10040000FFFFFFFFFFFFFFFFFFFFFFFFDEF9FFFF23
:100410000548064B1B1AD90F01EBA301491002D066
:10042000034B03B118477047F098FF1FF098FF1F68
:100430000000000008B5054B1BB105490548AFF3A6
:100440000080BDE80840FFF7E3BF00BF00000000E8
:10045000F098FF1F2860010038B504460846207058
:100460000A4910461D4611F037F901464FF07E50FB
:1004700011F0E6F9064911F02FF9E5606060256199
:1004800065610EF033F9E061204638BDDB0FC940ED
:100490000024744938B50446084620700A491046BD
:1004A0001D4611F019F901464FF07E5011F0C8F9C0
:1004B000064911F011F9E5606060256165610EF093
:1004C00015F9E06138BD00BFDB0FC9400024744955
:1004D000037810B50446032B21D8DFE803F0191E7A
:1004E0001102C168406910F0EDFF0E4903466068D3
:1004F0001C4611F0A5F90146204611F0A1F910BDE6
:100500000849406811F09CF9E16811F0E5F810BD68
:10051000C168406910F0D6FF10BDC06810BD002052
:1005200010BD00BF00247449F8B504460E460EF015
:10053000DDF8E3690546C01A11F07AF8E768A061B2
:100540000146E56160686661276111F079F901464D
:10055000A0600E4811F074F910F032FE0546014615
:100560004FF07E5010F0AEFF314611F0B5F829463D
:100570000646384611F0B0F80146304610F0A4FFA8
:10058000E0602046BDE8F840FFF7A2BF000080BF52
:10059000036818470B680360704700BF0B6803606F
:1005A000704700BF704700BF10B5044610F0E0FB75
:1005B000204610BDF8B5044606981D460F46561A4B
:1005C00011F050FA401BF6B1A4EB070C002800FB19
:1005D0000CFC06EBD6730ADB0CEB630C0CFB06F38E
:1005E000002B9CFBF6FC0CEB050011DBF8BDACEB23
:1005F000630C0CFB06F3002B9CFBF6FC0CEB0500DC
:10060000F4DB0130F8BD00EBD07005EB6000F8BD05
:100610000138F8BDBDF800C0521AACEB030C1CD079
:10062000401ABCF1000F0CFB00F002EBD27109DBA9
:1006300000EB610000FB02F1002990FBF2F018448E
:1006400010DB7047A0EB610000FB02F1002990FB7A
:10065000F2F01844F5DB013070470CEBDC7C03EB67
:100660006C00704701387047DDF800C0521AACEBDF
:10067000030C1CD0401ABCF1000F0CFB00F002EB85
:10068000D27109DB00EB610000FB02F1002990FB55
:10069000F2F0184410DB7047A0EB610000FB02F1A0
:1006A000002990FBF2F01844F5DB013070470CEBA9
:1006B000DC7C03EB6C0070470138704738B50B8861
:1006C000182B0D46044607D1294B1B7805EB430533
:1006D0006B88182B14D138BD0344A3F118007F2870
:1006E00023DD244A973BA2FB0312D20802EB42020D
:1006F000A3EB820303F17300C0B208F0F3FBE3E75E
:100700001C44A4F118007F281EDD1A4B973CA3FB64
:100710000423DB0803EB4303A4EB830404F173001D
:10072000BDE83840C0B208F0DDBB0028E4DA114A69
:10073000C3F11803A2FB0312D20802EB4202A3EB9F
:100740008203C3F10C00D7E70028E9DA094BC4F1B2
:100750001804A3FB0423DB0803EB4303A4EB83048B
:10076000C4F10C00C0B2BDE8384008F0BBBB00BF0C
:10077000D78DFF1FABAAAAAA38B50C46054634F898
:10078000023B182B1DD134480378013303F00302D8
:100790000270134634F81220182A28D14FF0040CA6
:1007A000591C032BCAB215BF1346224604EB420262
:1007B000002303701288182A19D1BCF1010CEFD163
:1007C00038BD0344A3F118007F2827DD234A973B57
:1007D000A2FB0312D20802EB4202A3EB820303F155
:1007E00073001F4BC0B2197808F03EFBCBE71544ED
:1007F000A5F118007F2820DD184B973DA3FB0523AA
:10080000DB0803EB4303A5EB830505F17300144BF1
:10081000C0B21978BDE8384008F026BB0028E0DAFD
:100820000E4AC3F11803A2FB0312D20802EB4202E4
:10083000A3EB8203C3F10C00D3E70028E7DA074BF0
:10084000C5F11805A3FB0523DB0803EB4303A5EB68
:100850008305C5F10C00DAE7D78DFF1FABAAAAAA62
:10086000F69BFF1F38B50E202B4D0DF09DFA298801
:100870002A4B81421B88044633DD5B1A0A4636D078
:10088000521AC2EB023203EBD37102EB610292FB0C
:10089000F3F102FB03F3002B3ADB14200DF02CFDE7
:1008A0001F4B1B889BBB2A88A24223DC40F6FF73A8
:1008B0009C42A8BF1C46C2F57F630F3303B3A11A45
:1008C000C1EB013103EBD37201EB620101FB03F2D7
:1008D000002A91FBF3F11DDBBDE8384028200DF024
:1008E0000BBD83421A46A8BF02465B1AC8D140F22C
:1008F000FF71D2E7C2F57F630F331446002BDED1C0
:10090000BDE8384040F2FF7128200DF0F5BC38BD3D
:100910000139C2E70139DFE74E9AFF1F4C9AFF1FEA
:10092000849AFF1F38B50F200EF07AFF214B224921
:100930001B880860C0F53B6208329A4218DB1F49E9
:100940000988C81A22D08A42D4BFC3EB0203C3EB82
:100950000103C3EBC31300EBD07203EB620404FB8F
:1009600000F3002B94FBF0F4B8BF04F1FF3474B92A
:10097000134C237803B938BD124B0021187808F0C6
:1009800035FA0023104A2370136038BD3F240C4B06
:100990001A780AB901221A700B4D2B68A34201D1B3
:1009A0002C6038BD074BE1B2187808F01FFA2C60B4
:1009B000F7E700BF289BFF1F209BFF1F1C9BFF1F0B
:1009C0001A9BFF1F169BFF1F549BFF1F38B5254B1B
:1009D0001B782BB315200DF0E7F9234B234A1B8816
:1009E0001060834218DC224A1288D11A26D0824233
:1009F000D4BFC3EB0203C3EB0003C3EBC31301EB90
:100A0000D17203EB620404FB01F3002B94FBF1F4BD
:100A1000B8BF04F1FF3494B9164C237823B938BD1C
:100A200011200EF0FDFED8E7134B0021187808F0D6
:100A3000DDF90023114A2370136038BD3F240D4BAC
:100A40001A780AB901221A700C4D2B68A34201D101
:100A50002C6038BD084BE1B2187808F0C7F92C605B
:100A6000F7E700BF0D9AFF1F889BFF1F109AFF1F1B
:100A7000869BFF1F0C9AFF1F089AFF1F3C9BFF1FBE
:100A8000F8B5724B724C1B88C31A054684FB0304ED
:100A9000D817C0EB640000EB4000A3EB800303EB2E
:100AA0004303980001EB830408582844AAB17F2827
:100AB0005CDD684B7F38A3FB0023DB0803EB4303BB
:100AC000A0EB83007330644F644E3978C0B208F0F5
:100AD000CBF93388022B57D8F8BD7F2838DD5D4B22
:100AE0007F38A3FB0023DB0803EB4303A0EB830069
:100AF00073305A4EC0B208F0F5F93388022BEBD9A7
:100B0000606828447F2840F39280524B7F38A3FBD3
:100B10000023DB0803EB4303A0EB83007330C0B278
:100B200008F0E0F93388032BD6D9A06828447F2841
:100B30006FDD484B7F38A3FB0023DB0803EB430347
:100B4000A0EB83007330BDE8F840C0B208F0CAB92A
:100B50000028CEDA3F4B4042A3FB0023DB0803EB27
:100B60004303A0EB8300C0F10C00C2E70028AADA1F
:100B7000384B4042A3FB0023DB0803EB4303A0EB0D
:100B80008300C0F10C009EE7606828447F2832DDB6
:100B9000304B7F38A3FB0023DB0803EB4303A0EBC0
:100BA000830073303978C0B208F05EF93388032BC4
:100BB00092D9A06828447F280FDD264B7F38A3FBFD
:100BC0000023DB0803EB4303A0EB83007330397889
:100BD000C0B2BDE8F84008F047B90028F7DA1D4B6D
:100BE0004042A3FB0023DB0803EB4303A0EB83009D
:100BF000C0F10C00EBE70028D4DA164B4042A3FB0F
:100C00000023DB0803EB4303A0EB8300C0F10C00DF
:100C1000C8E7002897DA0F4B4042A3FB0023DB080C
:100C200003EB4303A0EB8300C0F10C008BE700282B
:100C3000BFF675AF074B4042A3FB0023DB0803EB75
:100C40004303A0EB8300C0F10C0068E7EC9AFF1FA0
:100C5000ABAAAA2AABAAAAAAF69BFF1FEE9AFF1F6D
:100C600008B51A4B1B7833B315200DF09DF8184BBF
:100C7000184A1B781060DBB1174B1B8883421EDCBF
:100C8000164A1288D11A1ED08242D4BFC3EB020387
:100C9000C3EB0003A3EB830301EBD172A3EB62036D
:100CA00003FB01F2002A93FBF1F3B4BF04330533D5
:100CB0000B4A136008BD11200EF0B2FDD7E7084AB9
:100CC0000023136008BD0323F2E700BF0D9AFF1F46
:100CD000CC9AFF1F109AFF1F889BFF1F869BFF1F48
:100CE000D09AFF1F2DE9F843974B1B88013B044620
:100CF000092B3CD8DFE803F00A10161C22282E3DF1
:100D00004205BDE8F8439149FFF7D8BCBDE8F84378
:100D10008F490022FFF7B4BEBDE8F8438D49002299
:100D2000FFF7AEBEBDE8F8438B490022FFF7A8BE2F
:100D3000BDE8F84389490022FFF7A2BEBDE8F843A9
:100D400087490022FFF79CBEBDE8F8438549002291
:100D5000FFF796BE844D854E2B88A3B18449328817
:100D6000098803318A420EDC1344022B48DCBDE8BB
:100D7000F883BDE8F8437F49FFF7A0BCBDE8F8431E
:100D80007D49FFF79BBC7D4A7D4912887D4FA21AA1
:100D900081FB021C7C49D0170988C0EB6C0000EB7A
:100DA0004000A2EB800201EBC101090102EB42020B
:100DB00001EB8202A3EB8303B858204400EB8300CD
:100DC0007F2812DC00280ADA704B4042A3FB002384
:100DD000DB0803EB4303A0EB8300C0F10C00C0B2BF
:100DE00008F080F832882B88BEE7684B7F38A3FB79
:100DF0000023DB0803EB4303A0EB83007330EEE733
:100E0000DFF878915E49B9F80030DFF87C815D4FFA
:100E1000E31A81FB0321DA17C2EB610202EB420203
:100E2000A3EB820303EB4302B8F8003003EBC303E8
:100E30001B0103EB82033B44586820447F2858DDA4
:100E4000524B7F38A3FB0023DB0803EB4303A0EBEB
:100E500083007330C0B208F045F833882A88134401
:100E6000032B84DDB9F800304548B8F80020E31AB8
:100E700080FB0310D917C1EB600101EB410102EBCC
:100E8000C202A3EB8103120103EB430302EB8303D2
:100E90001F44B86820447F2839DD3C4B7F38A3FBD2
:100EA0000023DB0803EB4303A0EB83007330C0B2E5
:100EB00008F018F833882A881344042B7FF757AFBB
:100EC0002B4B1B88012B7FF452AFA4F10C037F2B1B
:100ED0002BDD2E4AA4F18B03A2FB0312D20802EBF6
:100EE0004202A3EB82037333D8B2BDE8F84307F0A4
:100EF000F9BF0028AEDA254B4042A3FB0023DB08F4
:100F000003EB4303A0EB8300C0F10C00A2E7002831
:100F1000CDDA1E4B4042A3FB0023DB0803EB430367
:100F2000A0EB8300C0F10C00C1E7002BDCDA174A0C
:100F3000C4F10C03A2FB0312D20802EB4202A3EBA2
:100F40008203C3F10C03CFE7809BFF1FB89BFF1FF9
:100F5000602D0100D02C0100282C0100B0360100CA
:100F60002036010040370100BA9AFF1FEE9AFF1F9A
:100F7000BC9AFF1FA09BFF1FAC9BFF1FEC9AFF1F9B
:100F8000ABAAAA2AB8330100BE9AFF1FABAAAAAA2D
:100F90002DE9F843964B1B88013B0446092B3CD8AE
:100FA000DFE803F00A10161C22282E3D4205BDE89A
:100FB000F8439049FFF7E0BBBDE8F8438E490122B2
:100FC000FFF75EBDBDE8F8438C490122FFF758BD2D
:100FD000BDE8F8438A490122FFF752BDBDE8F84356
:100FE00088490122FFF74CBDBDE8F843864901223C
:100FF000FFF746BDBDE8F84384490122FFF740BD35
:10100000834A844B12881988551891B1824B1B88EA
:1010100003339A420DDC022D48DCBDE8F883BDE8BD
:10102000F8437E49FFF7A8BBBDE8F8437C49FFF7CA
:10103000A3BB7C4B7C4F1B887C4EE31A87FB0327AA
:101040007B4AD8171288C0EB670000EB4000A3EB87
:10105000800302EBC202120103EB430302EB8303A2
:10106000A1EB8101F058204400EB81007F2812DCC5
:1010700000280ADA6F4B4042A3FB0023DB0803EB96
:101080004303A0EB8300C0F10C006B4BC0B2197896
:1010900007F0EAFEBFE7674B7F38A3FB0023DB08BE
:1010A00003EB4303A0EB83007330EEE7DFF87491AA
:1010B0005D49B9F80030DFF878815C4EE31A81FBB6
:1010C0000321DA17C2EB610202EB4202A3EB8203B7
:1010D00003EB4302B8F8003003EBC3031B0103EB3F
:1010E00082033344586820447F2856DD514B7F38B3
:1010F000A3FB0023DB0803EB4303A0EB8300733067
:101100004D4FC0B2397807F0AFFE032D85D0B9F846
:1011100000304548B8F80020E31A80FB0310D917C7
:10112000C1EB600101EB410102EBC202A3EB8103C1
:10113000120103EB430302EB83031E44B068204417
:101140007F2838DD3B4B7F38A3FB0023DB0803EB14
:101150004303A0EB830073303978C0B207F084FEFC
:10116000042D3FF45AAF2C4B1B88012B7FF455AF55
:10117000A4F10C037F2B2CDD2E4AA4F18B03A2FBE0
:101180000312D20802EB4202A3EB820373333978D5
:10119000D8B2BDE8F84307F067BE0028B0DA254BA7
:1011A0004042A3FB0023DB0803EB4303A0EB8300D7
:1011B000C0F10C00A4E70028CEDA1E4B4042A3FB8E
:1011C0000023DB0803EB4303A0EB8300C0F10C001A
:1011D000C2E7002BDBDA174AC4F10C03A2FB0312AF
:1011E000D20802EB4202A3EB8203C3F10C03CEE769
:1011F000809BFF1FB89BFF1F602D0100D02C0100BA
:10120000282C0100B03601002036010040370100D3
:10121000EE9AFF1FBA9AFF1FBC9AFF1FA09BFF1FE9
:10122000AC9BFF1FEC9AFF1FABAAAA2AB8330100A0
:10123000BE9AFF1FABAAAAAAF69BFF1F10B50C8887
:1012400084422DD203F10043013B31F81340844224
:1012500023D9B1F802C0844538BF012324D2013319
:10126000DBB29E4631F813C060454FEA4304F6D81E
:10127000604517D00EF1004E0EF1FF3E135B31F8C2
:101280001E1032F81E20401A9B1A03FB00F0ACEB34
:10129000010C90FBFCF0104410BD32F8130010BD9F
:1012A000108810BD105B10BD02244FF0010EDFE767
:1012B000204B1B880C2B30D81F4982B230B551F817
:1012C000235042B343F6FE739A4227D8B2F5806F9B
:1012D00029D31A4C01230133DBB2194634F813E049
:1012E00072454FEA430CF6D8724519D001F100411E
:1012F0000139124B35F8114033F8113035F80C2014
:1013000080B2C01A121B00FB02F2AEEB030392FB89
:10131000F3F3181930BD288830BD7047288C30BDD4
:1013200035F80C0030BD40F2FF3E4FF0020C0121B9
:10133000DAE700BF6C9AFF1FF4370100D0370100D5
:101340002DE9F043554B83B0186810F071F9544BF8
:101350000446188810F068F90146204610F0BCF9E0
:10136000504910F06DFA10F07DFB4F4B1B8803B114
:1013700040424E4B4E491B680D884E4A9D4216888E
:1013800040F386802B46184485424B4B53DCB042D9
:10139000A8BF304685421860C8BF2C464DDD731B80
:1013A00051D0601B03EBD372C0EB803000EB6200C6
:1013B00000FB03F2002A90FBF3F06DDBFFF778FFF0
:1013C0003E4B1F883E4BC0F3C61909FB07F71B882D
:1013D0007F2F8046A8BF7F273BB100933246002372
:1013E00029462046FFF716F90346364A364C136065
:1013F00023684B4509D0354B1B88002B3ED1344B1D
:101400001B88002B36D1C4F80090324C236843452A
:1014100006D02E4B1B885A1F032A22D9C4F80080FD
:101420002D4C23689F4203D02C4B188870B927603D
:1014300003B0BDE8F08328461D60B042A8BF304627
:10144000731B0446ADD141F6FF70B7E71F4B244A2A
:101450001B88D35C8342EAD0F9B2C0B207F0C6FC65
:10146000E5E71F4AD05C203008F07F01C0B207F0EA
:10147000BDFCD3E7484607F06DFDC4E7184A49466E
:10148000D05C07F0B3FC124B1B88002BBBD0F1E7FC
:10149000B342A8BF334676E701388FE7009CFF1FB1
:1014A0008C8EFF1F0000F041F89BFF1F8C9BFF1FDD
:1014B0004E9AFF1F4C9AFF1F489AFF1F229AFF1F48
:1014C000169AFF1F189AFF1F409BFF1F1E9AFF1FAF
:1014D0001C9AFF1F489BFF1F449BFF1F209AFF1F62
:1014E000CC8DFF1F2DE9F04F01208BB00EF098F945
:1014F000AD4A0346002013600EF092F9AB4BAC4AA4
:101500001B8810600C2B43D0AA4A00211F2B11709E
:1015100045D1A94BDFF8A4B21B78DFF8A482A94A11
:10152000003B18BF012388F80030BBF8003052F8A8
:101530002350A54BA54A1B881288A549013B012AC7
:1015400031F913A000F0E081A24B0293A24B069365
:10155000A24FA34B03930026A24B1B88012B00F044
:101560001982A14BA14A1C680793D7F800A0A04B91
:10157000049205934FF000099E4B1B88013B032BFF
:1015800000F23E83DFE813F05801EB00C7001800BB
:10159000894B1B78002B40F09E81864A1370DFF840
:1015A0001CB2DFF81C82BBF80020002388F8003052
:1015B000844B53F82250BCE7204610F039F88E498E
:1015C00010F08AF80446484610F032F88B4910F0C3
:1015D00083F8014620460FF077FF10F043FA079B8F
:1015E000069F18600446386810F022F8824910F00F
:1015F00073F8034630461E4610F01AF87F4910F083
:101600006BF8014630460FF05FFF10F02BFA3860A0
:10161000654B7B4E19687B4B36881A887A4B7B4F1B
:101620001B88DDF810E03F88A4EB020C2244059CE7
:10163000CEF800C02260029CC21A2260039A0344C2
:101640008E42136000F345818F423846A8BF08469A
:10165000574B1B689E4200F33A819F423C46A8BF0D
:101660001C468E42C0F217819E42C0F21481684E21
:1016700030680FF0DDFF604910F02EF865490FF07B
:1016800023FF10F0EFF9A0F5FF531C3B082B30604F
:1016900001D84FF4005043F6FF778244BA455046D4
:1016A000A8BF384620EAE07030600FF0C1FF034663
:1016B00098F8000005FB00F01D460FF0B9FF4FF051
:1016C0007A5110F009F8014628460FF0FBFE10F0A1
:1016D000C9F9514B514D1B78B842A8BF384620EA92
:1016E000E0702860002B00F0CB80BAF5005F00F0BE
:1016F000C78004F069FC4A4B286801221A70494CE3
:101700002368834204D080B207F056FC2B68236024
:101710000BB0BDE8F08F20460FF08AFF42490FF072
:10172000DBFF044648460FF083FF40490FF0D4FF2B
:10173000014620460FF0C8FE10F094F9079B069F63
:101740001860044638680FF073FF37490FF0C4FF84
:10175000034630461E460FF06BFF34494FE72046E4
:101760000FF066FF32490FF0B7FF044648460FF00E
:101770005FFF30490FF0B0FF014620460FF0A4FE96
:1017800010F070F9079B069F1860044638680FF048
:101790004FFF27490FF0A0FF034630461E460FF0CB
:1017A00047FF24492BE700BF6C9BFF1F749BFF1F63
:1017B000689BFF1FE19AFF1F729BFF1F1A99FF1F73
:1017C000939BFF1FE48DFF1F908EFF1F0A9AFF1F40
:1017D000B82C0100089CFF1F189CFF1F009CFF1FD6
:1017E0000C9CFF1F189BFF1F149CFF1F049CFF1FD6
:1017F000109CFF1F8E8EFF1F9A99193FCDCCCC3EB7
:10180000789BFF1F948EFF1F968EFF1F769BFF1FF6
:101810001C8EFF1FCDCC4C45DC9CFF1F188EFF1F7C
:10182000FE9BFF1FE08DFF1FCDCC4C3FCDCC4C3E2F
:101830006666663FCDCCCC3D20460FF0F9FEB5493B
:101840000FF04AFF044648460FF0F2FEB2490FF08F
:1018500043FF014620460FF037FE10F003F9079BC7
:10186000069F1860044638680FF0E2FEA9490FF0A1
:1018700033FF034630461E460FF0DAFEA649BEE6A9
:10188000A64C2378002B3FF43AAF04F099FB0023D9
:101890002868237033E7BBF80030002B3FF4E7AE35
:1018A00000233A4631460095FEF7DEFE0095844659
:1018B0003A46204631466446FEF7D6FE231A002BF0
:1018C000B8BF5B42092B00F39F80954EE1E634469A
:1018D000C7E63046BCE6DFF84CB2934ABBF80010CE
:1018E000924B52F82100DFF8488201221A7000233F
:1018F00088F800300FF09CFE4FF07C510FF0ECFEAA
:1019000010F0B0F8054614E68A4B8B4A1B888B49C9
:101910001278013B31F91340002A40F08D801120EC
:101920000DF07EFF864B02931F680646B74240F3D8
:101930008D80844B844A1B880692012B834BB3F81D
:10194000009013682846A3EB040400F013810FF005
:101950006FFE7F4B53F829100FF0BEFE01460020AA
:101960000FF0B0FDA642009039463046794FB8BF1F
:10197000204600232246FEF71DFE3B681844764BA6
:101980000393764B1B8800EBD0704010012B38601E
:101990007FF4E7AD724C04940F200DF041FF2268F4
:1019A000824281467EDD674B08921B88012B00F046
:1019B0000981664B6B4A198814680591284607927D
:1019C0000FF036FE624B059953F821100FF084FE9C
:1019D00001460020A4EB0A0A0FF074FD089A00905B
:1019E000D145114648465246B8BF50460023FEF73F
:1019F000E1FD3B68184400EBD0705B4B05934FEA68
:101A0000600AC7F800A0B7E504F500540134201AB5
:101A10000FF00EFE5549424E0FF05EFE0446306850
:101A20000FF006FE52490FF057FE014620460FF018
:101A30004BFD10F017F82EE615200CF0B5F9404BD1
:101A400002931F680646B7423FF773AF424B0393BA
:101A50001F68B74254DA3B4B3B4A1B880692012B66
:101A60003A4BB3F80090136828461C4400F0BC8041
:101A70000FF0DEFD364B53F829100FF02DFEA64275
:101A8000009039463046334F4FF00003A8BF204640
:101A90002246FEF78FFD3B68184400EBD0704010E3
:101AA000386059E5304B05931A6882426ADA254B53
:101AB00009921B88012B70D0244B2A4A198814687C
:101AC0000891284607920FF0B3FD214B089953F86F
:101AD0002110A2440FF000FE099A0090D145114652
:101AE00048465246A8BF50460023FEF763FD3B68B8
:101AF000184400EBD0704FEA600AC7F800A03BE53D
:101B0000144F114B06933B6803EBD3735B103B60A0
:101B100022E500BF3333733FCDCC4C3DFE9BFF1F0E
:101B20001C8EFF1F1A99FF1FE48DFF1FE19AFF1FF4
:101B3000939BFF1F928EFF1F0D9AFF1F702F0100B6
:101B4000089CFF1FFC9BFF1F189CFF1F1C9CFF1F76
:101B5000F8350100009CFF1F0C9CFF1F189BFF1F06
:101B6000049CFF1F149CFF1F109CFF1FCDCCCC3E7C
:101B70009A99193F0FF05CFD234B53F829100FF091
:101B8000ABFDEFE63B6803EBD3734FEA630A1F4BF1
:101B9000C7F800A01C680793EEE41D4B1B4A198888
:101BA00014680891284607920FF042FD164B0899D9
:101BB00053F821100FF090FD01460020A2440FF0D1
:101BC00081FC89E7124B114A19881468059128464F
:101BD00007920FF02DFD0C4B059953F82110A4EB43
:101BE0000A0A0FF079FDF9E60FF022FD064B53F8D3
:101BF00029100FF071FD014600200FF063FC3EE755
:101C0000069B186804E500BFF8350100149CFF1F0F
:101C10001C9CFF1F08B5244B1B885BB3234B1B7810
:101C20005BB3234B1B7843B3224B1B782BB3224B64
:101C30001B7813B3214B1A782AB3214A2148224931
:101C40001288008809680244B1EB520F15DD0022AA
:101C50001A7007F05DFA642004F0CAF9642004F0F9
:101C6000C7F9642004F0C4F9BDE808404FF41670C9
:101C70000CF05CBD114A117801B908BD1370BDE8C4
:101C8000084007F045BA0E4A0E48104912880088ED
:101C900009680244B1EB520FEFDD01221A70BDE872
:101CA0000840642004F0A4B9C29AFF1F1D99FF1FC9
:101CB0001E99FF1F1F99FF1F2099FF1FC09AFF1F2A
:101CC000769BFF1F789BFF1F689BFF1F6C9BFF1F6E
:101CD00038B5114C232025780CF066F80F49002206
:101CE00041F825000B1F01F1C40053F8041F834283
:101CF0000A44FAD123780A490A480133DBB281FB4E
:101D00000251322B4FEAE272C2EB211208BF0023CC
:101D10000260237038BD00BF3899FF1F3C99FF1F38
:101D20001F85EB513499FF1F2DE9F04F9F4CA04DBB
:101D30002068DFF8808285B00FF07AFC9E490FF0B2
:101D4000CBFC064610200DF06BFD0FF071FC9B499B
:101D50000FF0C2FC31460FF0B7FB0FF083FE2B886B
:101D6000206002469A42B8F80010184680F2D080EF
:101D7000CF1A1E4600F0D380F61A07EBD77CC6EBCD
:101D8000C61606EB6C0606FB07FCBCF1000F96FBC3
:101D9000F7F6C0F267818A4FDFF828C2CCF80060FE
:101DA0003E88192E00F0EA801A2E2ED01E2E00F04A
:101DB000A4810127844EB946DFF810C2BCF800C0E8
:101DC000BCF1000F13D0DFF808E2BEF800E0BEF16E
:101DD000030F00F23C819A4280F246810A46CDF818
:101DE00000C019460023FEF715FC7A4B18607A4AAA
:101DF0003388108850EA030114D1784B1A78002AEE
:101E000040F01D8205B0BDE8F08F754E3678002E8B
:101E100008BF01276C4E16BF00274FF000094FF096
:101E20000109C9E72988D4F800C0614579DCDFF8E9
:101E3000ACE19EF800A0BAF1000F34D14FF0010AD6
:101E400004288EF800A02ED1002F40F0C6813388E0
:101E5000002BD7D0B9F1000FD4D022682888B8F869
:101E60000010904200F3AC818A42A8BF0A46091ACA
:101E700000F0C681121A01EBD174C2EB8212641019
:101E800004EB420404FB01F2002A94FBF1F400DBB2
:101E90000134544D2A68A24203D0E1B2D8B206F010
:101EA000A5FF2C60AEE7012800F04181022800F078
:101EB000F4800328CBD14C4B1B88092BC7D0002FB3
:101EC000C5D023682988B8F80020994240F3A8813A
:101ED0000B46521A00F0A8815B1A02EBD277C3EBD3
:101EE00083137F1007EB430707FB02F3002B97FBDD
:101EF000F2F700DB0137DFF8F4B0DBF80030BB426B
:101F000003D0F9B24A2006F071FFCBF800709EE7CB
:101F10008A421646A8BF0E46CF1A7FF42DAF3F2641
:101F200039E72E4A117800293FF46CAF00240128CC
:101F3000147000F0EE80022800F0A080032840F02A
:101F40003381294A1288092A09D047B1274D2A68C6
:101F50002AB121464A2006F049FF33882C60002B25
:101F60003FF450AFB9F1000F3FF44CAFD8B20021AD
:101F700006F03CFF1B4B00221A6043E7DFF860903D
:101F8000114E99F800C0BCF1000F33D0B6F800E054
:101F9000BEF1000F2ED0DFF858A09AF800B0E3454C
:101FA00040F0108101274FF0000905E78C9AFF1FD0
:101FB0009C9AFF1F9A9AFF1F9A99193FCDCCCC3E4D
:101FC000749BFF1F909AFF1F969AFF1FE49AFF1FB2
:101FD000E29AFF1FE89AFF1F949AFF1F989AFF1F2B
:101FE000729BFF1F509BFF1F1E9AFF1F4C9BFF1FE2
:101FF000099BFF1FDFF84CA29AF800E0E645D1D01C
:102000003078002106F0F2FE99F800303A888AF81C
:1020100000308D4BB3F800C0BCF1000F00F0BE8063
:102020001E2A40F00381012799F80030002B60D070
:10203000DFF818E22B88BEF800E02268B8F800103C
:10204000BEF1030F18464FF000097FF6C4AE9A4266
:102050000FDA1A46CDF800C00023FEF7DBFA7C4BFE
:102060001860C4E6013E96E68A42A8BF0A461046BA
:10207000B4E68A42A8BF0A461046EAE7002F3FF4BA
:102080006EAF744D2A68002A3FF469AF21460420E0
:1020900006F0ACFE33882C6061E7002F3FF4D8AE29
:1020A000DFF8B0B1B8F80000DBF800A08445634663
:1020B000A8BF0346401A00F0AE805B1A00EBD07157
:1020C0004910C3EB831301EB430303FB00F1002929
:1020D00093FBF0F300DB0133534506D0D9B2042063
:1020E000039306F083FE5C4A039B1088CBF8003014
:1020F000DFE6574A9946136079E6DFF86091524B64
:1021000099F80070B3F800C0554EB7FA87F77F0909
:102110008AE7002F3FF423AF4E4D2A68002A3FF490
:102120001EAF214606F062FE33882C6017E7002FB1
:102130003FF48DAEB8F800309C456046A8BF184605
:102140005B1A6AD0401A03EBD37AC0EB80104FEAD7
:102150006A0A0AEB400A0AFB03F100299AFBF3FA28
:1021600001DB0AF1010ADFF8ECB0DBF8003053457F
:1021700005D05FFA8AF1012006F038FE364A108851
:10218000CBF800A002287FF494AE2B88D4F800C0CE
:10219000B8F80000634519468CDC87E71E2A3FF437
:1021A00042AFE146012722E604287FF4D8AE002F93
:1021B0003FF4D5AE2146402006F018FE3388CEE627
:1021C000024654E65FFA8EF07F2106F00FFE99F882
:1021D00000303A888AF800301BE740207F2106F063
:1021E00005FE1D4A108850450CD002287FF461AED0
:1021F000DFF860B02B88DBF800A0D4F800C0C7E798
:10220000402446E62888D4F800C0B8F8003060457D
:10221000014695DC90E740235EE74FF0400AA2E7D5
:102220009342A8BF134654E6402764E62B882268F1
:10223000B8F80010184601274FF00009C3E51970DF
:10224000E0E500BF099BFF1FE49AFF1FE29AFF1F12
:10225000E89AFF1F4C9BFF1F949AFF1F729BFF1F62
:10226000969AFF1F08B5114B1B88022B09D0052B2E
:1022700007D0032B0DD0042B13D00D4B01221A7065
:1022800008BD7F21412006F0B1FD094B01221A70E3
:1022900008BD4021092006F0A9FD054B01221A7056
:1022A00008BD7F21092006F0A1FDE6E78A9BFF1FFC
:1022B000829BFF1F38B5134D134C2B88052B18D06C
:1022C00022686AB9022B14D0033B012B15D80021D8
:1022D000092006F08BFD0D4A00231370236038BDE2
:1022E0000021052006F082FD2B88022B01D0052B52
:1022F000EAD10021412006F079FD044A0023137041
:10230000236038BD8A9BFF1F589BFF1F829BFF1FC6
:10231000F0B55A4B1B881D2B83B048D0584B1B88F7
:10232000022B09D0574B1B88022B73D0564B1B78BE
:10233000002B48D103B0F0BD544D554E0024554BF1
:102340001B78002B4AD111200DF06AFA524B18600D
:102350002B88002B4AD0514B1988814246DC504BC8
:1023600037881A8800979042A8BF10460023FEF7CE
:1023700051F9444B1B88022B044473D0002CD5DB4D
:10238000BC42A8BF3C46002CD0D03F4B1B78002B52
:102390005FD02B88434D052B06D02B689C4203D081
:1023A000E1B2052006F022FD2C6003B0F0BD374DF0
:1023B0002C886CB13C4B1C78314B002C4CD11B88C9
:1023C000022BAFD108E003B0BDE8F040FFF772BFC9
:1023D0002B4B1B88022BA5D12D4EB0E715200BF0FF
:1023E000E3FC2D4B18602B88002BB4D1254B1B88A8
:1023F000022B41D10F200DF013FA2C4B18602B88C3
:10240000002B39D02A4BC0F53B6019880830884230
:1024100013DA2FE01D4D0F200DF002FA234A2B880E
:102420001060002B82D0224BC0F53B601988083029
:1024300081423FF77BAF164E00241E4B3788009732
:102440001A889042A8BF10460023FEF7E3F8044420
:1024500094E7FFF707FF9CE71B880D4E022B34889B
:10246000C4D16CE70F200DF0DBF9104B18602B88FE
:10247000002BC7D1378881E7378881E7749BFF1F1E
:102480000A9AFF1F189BFF1F829BFF1F8A9BFF1F3B
:10249000849BFF1F0D9AFF1F109AFF1F889BFF1F31
:1024A000869BFF1F589BFF1F729BFF1F209BFF1FD8
:1024B000289BFF1F1C9BFF1F2DE9F04110200DF0F2
:1024C000AFF9C830B0F57A6FA8BF4FF47A60B0F5B5
:1024D000FA7FB8BF4FF4FA7000F51673B3F57A6F50
:1024E000844A854CDFF81482854E864DA8BF4FF490
:1024F0007A6381B222201180238006F0EBFE2188CE
:10250000814C242006F0E6FE0E200BF04DFC40F638
:10251000FF72C8309042A8BF104620EAE07000F277
:10252000DC5381B279489342A8BF13460180022050
:10253000238006F0CFFE2188042006F0CBFE012088
:102540000DF06EF9044600200DF06AF98442B8BF20
:10255000044604F1C800B0F57A6FA8BF4FF47A6062
:10256000B0F5FA7FB8BF4FF4FA7000F54873B3F5D1
:102570007A6F674A674CA8BF4FF47A6381B20A202A
:102580001180238006F0A6FE2188634C0C2006F003
:10259000A1FE0F200DF044F9C0F53F610431B1F503
:1025A000FA6FA8BF4FF4FA61C0F54363B1F5AF6F9E
:1025B000B8BF4FF4AF61B3F5FA6FA8BF4FF4FA6339
:1025C000B3F5AF6F554AB8BF4FF4AF6389B2A420DB
:1025D0001180238006F07EFE2188514CA62006F053
:1025E00079FE15200BF0E0FB41F25C2200F59670BD
:1025F0009042A8BF1046B0F52F7FB8BF4FF42F70A0
:1026000000F5167381B247489342A8BF1346018074
:102610000620238006F05EFE2188082006F05AFE80
:1026200000274FF4AF74F9B2304608F093FF58F822
:10263000043BC3F5967303FB00F085FB0023C01732
:10264000C0EB6310844207F10107A8BF0446062FC0
:10265000E9D1DFF8D480354E2A4D0027F9B2304653
:1026600008F078FF58F8043BC3F5967303FB00F0BD
:1026700085FB0023C017C0EB6310844207F10107FC
:10268000A8BF04460C2FE9D1DFF8A480294E1D4DC8
:102690000027F9B2304608F05DFF58F8043BC3F557
:1026A000967303FB00F085FB0023C017C0EB63109B
:1026B000844207F10107A8BF04460C2FE9D1143C5E
:1026C000322CB8BF322440F23A72A4F5AF7302FB49
:1026D00003F3963B85FB03251748184ADB17A1B285
:1026E000A3EB651332330180BDE8F0412A2013606B
:1026F00006F0F0BD9C9AFF1F9A9AFF1FB48DFF1F32
:10270000E89BFF1FB5814E1B4C9AFF1F4E9AFF1F7F
:10271000789BFF1F769BFF1F1C9BFF1F289BFF1FA3
:10272000869BFF1F889BFF1F848DFF1FE49BFF1F5D
:10273000548DFF1FE09BFF1F669AFF1F888EFF1FAF
:102740002DE9F04F0C2095B00BF0FAFA0C200BF0AD
:10275000E5FECA49DFF828A314200BF0EDFEC949B5
:10276000C94808F053FC022103200BF083FF02212B
:1027700004200BF07FFF022105200BF07BFF0221DC
:1027800006200BF077FF01210A200BF073FF0121D7
:1027900009200BF06FFF01210D200BF06BFF0121D1
:1027A00028200BF067FF012114200BF063FF0121AB
:1027B00016200BF05FFF012117200BF05BFF0121BA
:1027C00021200BF057FF02211C200BF053FF0121A9
:1027D0001B200BF04FFF00211B200BF017FF1C20CC
:1027E0000BF03AFFB0FA80F35B091A208AF8003048
:1027F0000CF076F91F2000210CF034F904200BF0C6
:102800002BFF30B906200BF027FF0346002800F00D
:10281000D48105200BF020FF002800F0FF81002369
:102820009A4C062023700BF017FF994AB0FA80F3F8
:102830005B09137005F0D8F923784FF0000B002BDB
:1028400040F0C781584606F05FFD924B92491B88C5
:1028500040F23A72A3F5AF7302FB03F3963B81FBA0
:102860000321DA17002BA2EB61128C49D4BF02F1CD
:10287000320302F131038A4A0B608A4B12881A70C4
:1028800001210D200BF0C2FE64200BF04FFF062447
:102890004FF416710A200BF02FFD7B4A82480094FA
:1028A0000C235D2108F0BAFE002800F05581642059
:1028B0000BF03CFF00210A200BF01EFD4FF4967137
:1028C00009200BF019FD704A784800940C235C2114
:1028D00008F0A4FE002800F05F8164200BF026FFC2
:1028E000002109200BF008FD4FF4967116200BF023
:1028F00003FD654A6E4800940C235B2108F08EFEB0
:10290000002800F0398164200BF010FF0021162010
:102910000BF0F2FC4FF4967117200BF0EDFC6420E5
:102920000BF004FF002117200BF0E6FC64200BF0F5
:10293000FDFE00210D200BF069FE5E4A5E48126824
:10294000DFF878915E4E5F4D5F4FDFF880810023A6
:102950000121FDF79FFD0124002333602B603B60C4
:1029600089F800400F200CF05BFF3B6803440E2009
:102970003B600BF019FA33680344336099F8003078
:10298000002B00F0148115200BF00EFA2B68184470
:10299000286004F0010003F01BFBB8F80030002BA6
:1029A00014BF4B20DC2001340BF0C0FE052CD9D124
:1029B0003B6832684649474C08884749002BB8BFF6
:1029C0000333002AB8BF0332921032602A680988A4
:1029D000424E002AB8BF03329B1092103B602A601F
:1029E0002360A3EB000C3E4F3E4D3F4CC7F800C0A8
:1029F00003443360531A0A442B602260BBF1000F7A
:102A000040F00481B8F80030002B00F0F280374B22
:102A1000012404201C600BF01FFE18B9344B214A1E
:102A20001C701070334B1B881C2B00F0D780324C6D
:102A300004F1C80523200BF0B7F944F8040F012076
:102A40000BF074FEA542F5D19AF8003023B12B4B60
:102A50001B78002B40F0EA80002121200BF0D6FDEE
:102A6000274A284B1078284C187006F0FBFB03F01F
:102A7000A7FA264B049304A90AA849E0001B37468D
:102A80001E9CFF1F40420F000490FF1F649AFF1F0F
:102A9000F09AFF1F669AFF1FB5814E1B888EFF1F9D
:102AA000629BFF1F3299FF1FE89BFF1FE09BFF1FE8
:102AB000E49BFF1FD88DFF1F289AFF1F0D9AFF1F51
:102AC000249AFF1F189CFF1F149CFF1F9E9AFF1F34
:102AD000948EFF1F249BFF1F968EFF1F109CFF1FCD
:102AE000049CFF1F089CFF1F0C9CFF1F309BFF1FB7
:102AF0008A9AFF1F749BFF1F3899FF1F1F9CFF1F9F
:102B00001899FF1F3099FF1F182C0100650800005D
:102B100002940894FDF73EFD0AA910A80E94FDF753
:102B200039FD45F6BF520EA955480EF0B3F80E9B7D
:102B300010A8DB689847089B0AA8DB689847029BA7
:102B400004A8DB68984715B0BDE8F08F04200BF0AF
:102B500083FD002800F0868003200BF07DFD002817
:102B6000F4D003200BF078FD0028F5D1EEE7042027
:102B70000BF072FD00286AD003200BF06DFD0028D9
:102B8000F5D003200BF068FD0028F5D1EFE7042015
:102B90000BF062FD00284ED003200BF05DFD0028F5
:102BA000F5D003200BF058FD0028F5D1EFE71120F8
:102BB0000CF036FE2B681844EAE6324C324A20709C
:102BC000137005F011F823784FF0010B002B3FF440
:102BD00039AE15B0BDE8F04F08F0D2B82B4B1888CD
:102BE00000283FF424AF2A4BC0B2197806F0FEF853
:102BF0001DE74FF4FA7003F0FBF903F0E5F905F077
:102C000069F94FF4AF600BF091FD00E7FFF754FC5A
:102C1000B8F80030002B7FF4FAAEEAE703200BF09F
:102C20001BFD00287FF4FBAD0123F9E501212120E4
:102C30000BF0ECFC14E705200BF00EFD0028ABD1E7
:102C400006200BF009FD0028A6D10CF0E1FE0520BE
:102C50000BF002FD00288FD106200BF0FDFC0028B0
:102C60008AD1F2E705200BF0F7FC00287FF474AF5F
:102C700006200BF0F1FC00287FF46EAFE5E700BF03
:102C8000789AFF1F649AFF1FF09AFF1F129BFF1F85
:102C9000149BFF1F2DE9F04FA04D2C78012C97B00D
:102CA00000F04282022C00F0C281002C00F0FA8277
:102CB0009B4C9C4926789C4C9C4F94F800809C4CE3
:102CC0009C48247801949C4C3F7891F800A094F89B
:102CD00000B09A499A4C04979A4F9B4B9B4A90F8A4
:102CE00000C094F800E00878994C9A493F7803971F
:102CF0001B78994F127809782478029700272F7053
:102D0000964D85F800C0964D85F800A0954D2B7026
:102D1000954D2A70954D2870954D85F800C0954DBC
:102D20002970002E00F0DA80934D2D8805952E46EF
:102D3000924D0127182E2F7000F2DA80059D012791
:102D4000A5F10C0623B18E4B1D88002D40F0418368
:102D50008C4B1B88002B40F0CD808B4B8B4D1B7810
:102D60002D780133A3EB4E03002D00F0CE80BEF191
:102D7000000F00F03F83002C40F0FF84013B844CA7
:102D8000049D2478A3EB44031344A3EB0A0315B179
:102D9000002A00F05483A3EB0803B8F1000F02D01F
:102DA000002C40F04883019A9B1AA3EB4B03039A33
:102DB0000344A3EB0C03A3EB410302EB420203EB3E
:102DC0008201744B74481960744B754C1A88006802
:102DD0002488033A02EB4203724A1288C2EBC20211
:102DE000104401EB8303704A2344704C128824681A
:102DF000C2EBC20222446E4C0C3B54F82000334418
:102E000003446C4850F8222013440FB16A4A116001
:102E10006A496B4A098807298CBF0120002010707D
:102E200040F2F980674A684812680180032A00F07E
:102E30007A840025654A664C157022689A4200F033
:102E4000F0806448644A06680696644E644F92F8BF
:102E500000C086F800C0069E3E6001271770026819
:102E60000792604A1788079A921BBA4240F2C680BE
:102E70005D4E5A4F326833605C4E9A1A32600022BF
:102E80003A70002D00F0D180534D2E78002E40F086
:102E9000A9822360564D2A689A4200F0B7800468E0
:102EA000544F0994099C3E68A41B8C42C0F0948244
:102EB000991A00F14784504C266886EAE674A4EB20
:102EC000E6748C4240F38484484909680029B8BFFD
:102ED00049428C42B8BF531C00F045BC284D2D8898
:102EE0000D2D00F06682254D00272F703E4629E704
:102EF000002627E7013B042B00F2FC84DFE813F0F7
:102F00000A036E03EC02CC02A1021B1B002C3FF44F
:102F100036AFBEF1000F18BF013B30E7F89AFF1F34
:102F20001699FF1F1499FF1F2299FF1F2899FF1F51
:102F30002399FF1F2699FF1F2499FF1F2599FF1F23
:102F40000F99FF1F389BFF1F1599FF1F1399FF1F34
:102F50001099FF1F2799FF1FB09AFF1F0899FF1FA5
:102F60000999FF1F0A99FF1F0B99FF1F0C99FF1F5B
:102F70000D99FF1F0E99FF1F749BFF1F729BFF1F70
:102F80002A9BFF1FB89AFF1F848EFF1F1299FF1FF5
:102F90001199FF1FB49AFF1FE89AFF1F369BFF1F6E
:102FA000EC9BFF1FE29AFF1F149AFF1F189AFF1F46
:102FB000F02D0100983101007C9BFF1FD49AFF1F68
:102FC000CC9AFF1F309BFF1FDC8DFF1FC49AFF1F91
:102FD000009BFF1FF49CFF1F349BFF1FE09AFF1F05
:102FE000FC9AFF1F869AFF1FDC9AFF1FD89AFF1FCB
:102FF000C89AFF1F049BFF1FD09AFF1F23608B4BB3
:103000001B68002D7FF446AF894A1360029A136053
:1030100017B0BDE8F08F87480022114602801546A0
:1030200008E7854A8548166819E72360ECE7DFF86A
:103030001092844F844E0DF128080024E1B23846E6
:1030400008F088FA59F8043BC3F5967303FB00F0C7
:1030500086FB00230134C017C0EB63100C2C48F82A
:10306000040BEBD1794B129E1B880B9F119A139C7A
:10307000149877499E42ACBF00260126BB42D4BFBC
:10308000002701279342D8BF4FF0000E159A0E700B
:10309000C8BF4FF0010EA3420D99D4BF00240124F4
:1030A0008342D4BF002001209342D4BF00220122DA
:1030B0008B420E99D4BF4FF0000A4FF0010A8B42A9
:1030C00064490F706449654F81F800E0644997F8DE
:1030D00000800C706349644F087064493F780A703F
:1030E00001976349634F81F800A097F800B06249E7
:1030F000624FD4BF002301230B703F7860490497CF
:10310000604F91F800C060493F78087803975F49A5
:103110002F780978B9465E4F02974F46012F9ABF24
:103120000137FFB20027EAE5DFF868915A4F464EB3
:103130000DF128080024E1B2384608F00BFA59F8DE
:10314000043BC3F5967303FB00F086FB00230134B8
:10315000C017C0EB63100C2C48F8040BEBD13B4BB1
:103160000D991C88454B0E9A0A98A142ACBF0021CC
:10317000012119700C9B04919442D4BF4FF00008B8
:103180004FF001089C42D4BF0023012301930B9B05
:10319000019A11999C42129BD4BF4FF0000B4FF043
:1031A000010B8442D4BF002001209C422B4B83F8AA
:1031B00000802D4B1A702F4B83F800B0324B1870E3
:1031C0002F4BD4BF4FF0000C4FF0010C83F800C020
:1031D0008C422E4BD4BF002101211970149B9C42BC
:1031E00040F32B81139B9C42D4BF002301230F9AF1
:1031F00094422A4A13702A4BD4BF002401241C7025
:10320000204B1B780393224B0293114C184B2678CA
:10321000114C93F800A0154A174B94F800E02F7852
:103220000F4C1B7812782478B94676E7DC9AFF1F9A
:10323000C89AFF1FDC8DFF1FFC9AFF1FF49CFF1F25
:10324000548DFF1FE09BFF1FB5814E1B669AFF1F29
:103250001699FF1F1299FF1F0F99FF1F2299FF1F39
:103260001099FF1F1199FF1F2399FF1F1399FF1F2B
:103270001499FF1F2499FF1F1599FF1F2899FF1FFD
:103280002699FF1F389BFF1F2599FF1F2799FF1FB6
:10329000B09AFF1F848DFF1FE49BFF1FD69BFF1F6B
:1032A000649BFF1FDFF8DC92B74FB84E0DF1280882
:1032B000E1B2384608F04EF959F8043BC3F596736D
:1032C00003FB00F086FB00230134C017C0EB631042
:1032D000062C48F8040BEBD1AD4B0A9A1B880492DC
:1032E0009A420B9A0C99DDF834B00392ACBF4FF0C0
:1032F000000A4FF0010A9342A64A0E9E0F980291CF
:10330000D4BF4FF000094FF001098B42D4BF4FF0FA
:1033100000084FF0010811885B450AEB0902D4BF91
:10332000002701274244B342D4BF4FF0000E4FF0B4
:10333000010E3A448342D4BF4FF0000C4FF0010C11
:10334000724462440192944A82F800A0DFF84CA2D1
:10335000019A8AF80090DFF8489289F80080DFF837
:10336000448288F80070904F87F800E08F4F87F80C
:1033700000C08F4FDFF83CC23A708F4F4FF0000E05
:10338000012987F800E08CBF4FF0000E4FF0010ECE
:1033900083428CF800E030DDB34200F3F181012973
:1033A00000F27681854A039423463C700292844C55
:1033B00059E1002B3FF497AD824F3F880597824F2C
:1033C0004FF0010987F80090059F182F7FF6B6ACE3
:1033D00001270D3D2E44BBE41346029A136017B03B
:1033E000BDE8F08F2A7002680892089A774D0A4467
:1033F0002A604EE5013B1B1BC1E4B34240F3488108
:103400005B4500F32981012940F22681029A93420B
:1034100040F34881039A934200F31182012940F25C
:103420000E82049A9A4280F2488101223A70634ADD
:10343000634C02926AE1013BB5E40023D7E6013315
:10344000A9E4634B019D1B78A3EB48035B1B614D13
:10345000ABEB8B0995F80080CEEB8E75B4FA84F453
:103460004B44CEEB850564092B4403EB8403B8F190
:10347000000F00F0A981049C03EB440303EB8103DC
:1034800013440344A3EB0A03A3EB4C03039A02EB9C
:10349000420203EB820194E44D4B01981B78A3EBAD
:1034A0004803ABEB8B021B1A1344CEEB8E72CEEBB0
:1034B00082021344049A03EB420303EB8103002CC2
:1034C00040F0788101221344039AC2F1060202EB14
:1034D000420203EB820174E43D4B01981B78A3EB9D
:1034E0004803ABEB8B021B1A1344CEEB8E72CEEB70
:1034F00082021344049A03EB420303EB8103002C82
:1035000040F04E8101221344039A02EB420203EB86
:10351000820156E42E4B1B780133A3EB4E052E4B54
:103520001B78002B40F035812B1B002C40F0828152
:10353000284D2D78A3EB45031344A3EB0A0A049B03
:1035400013B10AB90AF1010AAAEB0803B8F1000F96
:1035500002D0002D18BF013B019A9B1AA3EB4B032D
:103560000344A3EB0C03A3EB4103BEF1000F02D114
:103570000CB105B10933BBF1000F87D1002985D00B
:103580000A3B83E7B48DFF1FE89BFF1FB5814E1BED
:10359000669AFF1F9C9BFF1F1C99FF1F1D99FF1F11
:1035A0001E99FF1F1F99FF1F2099FF1F2199FF1FC1
:1035B000949BFF1F5C9BFF1F389BFF1FB09AFF1F50
:1035C000089BFF1F749BFF1F729BFF1F049BFF1F25
:1035D000848EFF1F1199FF1F1299FF1FA74D019B9A
:1035E000AB71A74B2A711B786B70A64B85F80580D1
:1035F0001B78AC7085F807B0287285F800E0EB7096
:103600004FF0010805F8091FDFF87C92CDF804C0DF
:1036100042469A4B5FFA88FC08F1FF3B4C467046E5
:10362000002107E0022A07D0AB4209D013F8010FAE
:1036300014F8012F9042F5D10131AB42C9B2F5D156
:10364000092900F2D68008F10108B8F1110F00F045
:10365000C58019F80A2FDCE78C4A8D4C02920523AD
:103660003B703B78039323708A4B8B4A18788B4BC3
:1036700092F800C019788A4B1B780493894B93F811
:103680000080894B1B780193884B93F800B0BCE510
:103690005B457FF7BBAE029A934200F3C4800129D9
:1036A00040F2C180039A93427FF7BBAE049A9A42DC
:1036B000C0F2CE80012940F2CB80754C94F800C056
:1036C000BCF1010F40F2D78009B187F800C0DFF8E4
:1036D000E0C1BCF800C0BCF1000F00F0BF80019A4F
:1036E000002A40F0BB80734A1288013A92B2062A3F
:1036F00000F2B480704A1278002A00F0AF806F4A5E
:103700001268012A614A029200F0E8800329A8D1D8
:103710008342A6DDB342A4DC2378062BA1D1072384
:103720003B7003939FE7664A1268002A7FF781ABDC
:10373000644A65481278007802430CBF01250025D1
:10374000FFF778BB5E490E6886EAE674D11AA4EBEF
:10375000E674A1423ADA5D4909680029B8BF4942D6
:103760008C4200DA531E02680A920A9A3A60029A60
:103770002B60136017B0BDE8F08F1B1BFFF7C9BBB0
:1037800003293C7026D0414A039423460292404CC0
:1037900069E7BEF1000F58D0002C4AD16B1EC7E676
:1037A000384A1278002A3FF4ADAEBAF1000218BFD1
:1037B0000122A8E6334A1278002A3FF483AEBAF118
:1037C000000218BF01227EE6033354E6931BCAE7CA
:1037D0009319C8E72D4B2E4C029342E73C4B3D4AD0
:1037E0001B78D26B01331344049AA3EB0A031344EE
:1037F0004CE6374B374A1B7852F82B20049901339B
:1038000060461344DDF804C0A3EB0A030B44BCF18B
:10381000000F3FF43BAE01287FF438AEBAF1000F41
:1038200018BF013B32E604223A70184A184C029243
:103830006CE72B1BBEF1000F18BF013B78E603229B
:103840003A70124A124C029260E76B1E1B1B6FE625
:1038500002223A700D4A0E4C029257E7174A12683C
:10386000012A0A4A02927FF451AF1B4A4FF0030C1F
:1038700082F800C04AE7054A029247E7C49BFF1F4F
:103880001299FF1F1199FF1FD02E0100B09AFF1F40
:10389000089BFF1F2599FF1F2699FF1F2799FF1FD0
:1038A0002899FF1F2299FF1F2399FF1F2499FF1FAB
:1038B0005E9BFF1F809BFF1FC29BFF1F309BFF1F54
:1038C000D09AFF1FD59BFF1FD49BFF1FD89AFF1FC5
:1038D000848EFF1F208EFF1FD78DFF1F1268DFF819
:1038E0006CE04FF00C0C92FBFCF80CFB1822AEF8CD
:1038F0000020BAE7164B1B78ABEB8B05B4FA84FBC0
:10390000019CA3EB48031B1B124C2B442578CEEBE8
:103910008E74CEEB84044FEA5B1B234403EB8B03D2
:1039200005B90333049C03EB440303EB8103134405
:10393000039A0344A3EB0A03C2F10602A3EB4C0370
:1039400002EB420203EB8201FFF73BBAEC9AFF1F46
:10395000848EFF1F1199FF1F9F4B1B78002B40F097
:103960002D812DE9F04F0E208BB00AF01DFA0DF0DD
:103970005FFE014699489A4C9A4DFCF7D5FD974851
:10398000FCF7A6FD0EF06EF880F30C002060FFF748
:1039900081F92B68012B54D0022B00F07784032B84
:1039A00000F07081904C914E2368914C0993099BD3
:1039B00022683360991A8F4A1288013A914200F2C4
:1039C00039838D4C22689A1A092A00F202838B4CA3
:1039D00022689A1A0D2A00F2F782894C22689A1AF4
:1039E000252A1CD9874B1B8813B9874B1B780BB131
:1039F000FEF710F9FEF76CF9844B1B881B3B9BB25A
:103A0000022B08D8824B1B782BB1824B1B7813B149
:103A10002B68012B01D002F0FFFA336823607E4C43
:103A200022689B1A502B00F2EB827C4B1B88012BE7
:103A300000F0928205F008FB0BB0BDE8F04F04F0F7
:103A4000B7BFDFF8DC81774BB8F800001A78824204
:103A500040F0BC80744F754B38881A78824204D08D
:103A6000734E3278002A40F0CB85724A2368128860
:103A70005D4C9A4280F2A480216806916E496F4A9B
:103A80000B60069B136002232B60DFF8B491DFF814
:103A9000B4A1B9F80030BAF8002013439BB2002B50
:103AA00040F03483684B1E680E200AF07DF96FF4F5
:103AB00054731E44864202DC644B00221A70644B2D
:103AC0001B88002B00F01A85624B63491A780B782B
:103AD000934262D0002A60D0604B1E78002E00F026
:103AE00026875F480778002F40F01F87DFF874C1F2
:103AF0005D4B8CF80070DFF874A1DFF874C11B789F
:103B00008AF800708CF800700127CDF808C00770A3
:103B100033B1002707700298077001208AF800006F
:103B2000544890F800E0BEF1000F00F0F8875248CA
:103B30000778002F41F02881DFF834C18CF800703D
:103B4000012707704D480078002800F03386454F64
:103B500097F800C0BCF1000F41F01A81DFF8008136
:103B600088F800C04FF0010C87F800C0BEF1000FCC
:103B700040F020863343184340F01C86244B1B78CA
:103B8000002B40F01C8636480370384803703A48D2
:103B9000037037480370334803700A701B4B1B884F
:103BA000A3F11B02012A40F2B5841D2B7FF4FBAE6A
:103BB000174A334B12780D4E1A70F5E606F05ABFCD
:103BC000114A1278002A7FF457AF5EE7C0B218702E
:103BD00005F0CAF83EE700BF649AFF1F289AFF1F4E
:103BE0008C9BFF1F309BFF1FF49CFF1F689AFF1FD9
:103BF000549AFF1F508DFF1F589AFF1F5C9AFF1F9A
:103C0000609AFF1FC29AFF1FC09AFF1F749BFF1F7D
:103C1000729BFF1F0E99FF1F2C99FF1F849AFF1F95
:103C20001899FF1F3099FF1F629BFF1F3299FF1FDA
:103C30008A9AFF1F4E9AFF1FF49AFF1F509AFF1F88
:103C40000E9BFF1F109BFF1F249AFF1F929BFF1FBD
:103C5000809BFF1FD69BFF1F0A9BFF1F0B99FF1F17
:103C6000D59BFF1FD49BFF1F0C99FF1F609BFF1F5D
:103C7000C29BFF1F0899FF1FDA9BFF1F0999FF1FB7
:103C8000099BFF1FA24B21681A888A4258DDA14B6D
:103C90001B78002B54D1DFF8809299F800007F2820
:103CA0000BDD7F38A3F15533A3FB0023DB0803EBC7
:103CB0004303A0EB83007330C0B2984B01931B8881
:103CC00089F80000002B41F0CC80DFF854A29AF86C
:103CD0000030002B00F03C86924F3B78002B00F028
:103CE0003786914EDFF844B24FF0000811E0ABFB8D
:103CF0000213DB0803EB4303A2EB830202F1730020
:103D0000C0B205F0EFF83B7808F10108434540F3F5
:103D10001F8699F8000056F8043F18447F28A0F148
:103D20007F02E4DC0028C0F10002E9DAABFB0213F9
:103D3000DB0803EB4303A2EB8302C2F10C00DFE7D5
:103D40007B4E33687F2B00F38484002B0ADA77489C
:103D50005B42A0FB0370C00800EB4000A3EB8003B4
:103D6000C3F10C03DFF8B09199F800709F4200F0A6
:103D7000E284704B1B88002B46D16F4B6F491B6848
:103D800009889A4240F3D2871346891A01F00680C7
:103D90009B1AC3EB833301EBD17203EB620303FB8A
:103DA00001F2002A93FBF1F0C1F2C080FDF780FA26
:103DB000C0F3C6100DF03CFC614B804618880DF036
:103DC00037FC6049824640460DF086FC014650466D
:103DD0000DF082FC41460DF077FB4FF07E5180469E
:103DE0000DF018FE002840F0C887574940460DF0F6
:103DF0002FFE002841F0668040460DF059FEC3B208
:103E0000DFF8488188F800307F2F0ADD474B7F3F7D
:103E1000A3FB0723DB0803EB4303A7EB83077337FD
:103E2000FFB2DFF8FCA089F800709AF80030002B90
:103E300040F0C085464B474A039302921B781278A4
:103E40001A4340F07386354B0193029B1B78002B7D
:103E500040F093869AF80030002B00F04A86019BD0
:103E60001B88002B00F0528730687F2840F3928532
:103E70002E4A7F38A2FB0012D20802EB4202A0EBCE
:103E8000820073303060002B40F07D869AF800305D
:103E9000002B00F01F84234F3B78002B00F01A8486
:103EA000214ACDF810900023B146DFF8A0809B4650
:103EB000164614E01D4BA3FB0102D20802EB42029E
:103EC000A1EB820101F1730098F80010C0B204F078
:103ED000CBFF3A780BF1010B5A4540F3F88356F8C3
:103EE000040FD9F8002010447F28A0F17F01E1DC05
:103EF0000028C0F10001E7DA0C4BA3FB0102D20855
:103F000002EB4202A1EB8201C1F10C00DCE700BF31
:103F10004E9AFF1FC09AFF1F3199FF1F909BFF1FF2
:103F2000609BFF1F4E8DFF1F5C8EFF1FABAAAAAACE
:103F3000B09AFF1FF49BFF1F489AFF1F4C9AFF1F68
:103F4000F09BFF1FCDCCCC3D0000FE42F69BFF1F37
:103F5000DA9BFF1FC29BFF1FA44AA54B11681B6879
:103F6000A82041F6FF7200FB0122A248183B80FB0B
:103F700002102A21104401FB03F3D117C1EB603179
:103F8000002AACBFA1F15402A1F155029A49134491
:103F90009A4A087812789A496FF0140404FB0033A7
:103FA0000B609849002A4CD00868834247DD964C44
:103FB0002278002A00F079830132D2B2022A00F27C
:103FC0009185227003463DE0FEF7A2F93368236035
:103FD00003E58E4FFDF786FAFDF7A6FE3B88032B1F
:103FE00002D1FCF7F3FC3B88042B01D1FCF738FE2F
:103FF000874B1B88032B00F0D68333682360E6E4ED
:1040000003F028FE834B8449844A09781B78127890
:104010000B4383491343834A097812780B431343B4
:10402000814A1278134300F07D8701F0D5FF336891
:104030002360FAE4FDF784F933682360C1E4C0F239
:1040400020830B60794A108800283AD0784C326877
:1040500054F82000002800F0A983B2FBF0F400FB24
:104060001422C2EBC20200EBD07402EB021202EB8C
:10407000640292FBF0F402FB00F000286D4AB8BF26
:1040800004F1FF3452F82420A2F2FF726A4C246833
:1040900004FB02F202F57D32162002F5607200FB8D
:1040A00002F2664C02F57D3202F5607284FB020476
:1040B000D017C0EB6440002AACBF0B380C38034467
:1040C0000B605F4A5F4912885F4802F27C7202FB14
:1040D00003F35B0003F5FC630A8880FB0310643A7A
:1040E0001844D917002B4FEA4202C1EBE021C0F27D
:1040F000F684114481F30C0128200AF0FDF804F045
:10410000A3FF0BB0BDE8F04F04F052BC4F4B504A38
:104110001B88128813444F4A11685A10B1EB530F91
:104120004D4B1B6840F306829A424FF00003B4BF28
:1041300001221A460192ACBF01221A46049303924F
:1041400005930E2009F030FE444B4549D3F800E0BA
:10415000444B02901A780E6843480EF10103802BFD
:10416000A8BF8023012BB8BF0123002A00F0638180
:104170000178914200F05F813988994200F0A28273
:104180003A493B803A4B09784FF0010C83F800C064
:10419000DFF8E0C0384B02701B788CF8001043B990
:1041A000019B002B00F06781B9F80030002B00F074
:1041B0006281324B1868324B1A88324B1B881A4482
:1041C000314B1968431C802BA8BF8023012BB8BF3B
:1041D0000123B1EB520FC0F20582A3F149020F2A6D
:1041E0003FF662AC483BA8F800305DE41C8EFF1F30
:1041F000B09AFF1F09000280939BFF1F829BFF1F45
:10420000DC9BFF1F709AFF1F749AFF1F0A9AFF1F03
:10421000189BFF1FC29BFF1FD59BFF1F609BFF1FAB
:10422000DA9BFF1FD49BFF1FC09AFF1F829AFF1FBC
:1042300074310100942F0100909AFF1F491B89409F
:10424000769AFF1F809AFF1F83200882769BFF1FAC
:10425000789BFF1F6C9BFF1F689BFF1F7C9BFF1FB2
:10426000249AFF1F709BFF1F0B9BFF1F719BFF1F5B
:104270008A9AFF1F0C9BFF1F649BFF1FB49AFF1FAE
:104280009C9AFF1F9A9AFF1F8C9AFF1FB04A2068C2
:104290001288824204DBAF4B1B78002B00F0D381E5
:1042A000AD4C21680791AD49079B09685B1AAC4981
:1042B00009888B4213D891B1AA4B198800293FF481
:1042C00072ABA94B1B688342B8BF0346A7489A420A
:1042D000008840F3FE85A64B1A60C9B252E0A24B9B
:1042E000A2491B688342B8BF03469A42088800F37C
:1042F0009E819C499E4E09888342A8BF0346336035
:104300000029EAD19A42C8BF134640F39881811A26
:1043100000F01B849B1AC3EB833301EBD17203EBD8
:10432000620393FBF1F003FB01F10029C0F2D88591
:10433000FCF7BEFFC0F3C6100DF07AF98D4B0646B0
:1043400018880DF075F98C49074630460DF0C4F910
:10435000014638460DF0C0F931460DF0B5F84FF082
:104360007E5106460DF056FB002840F0C08383497D
:1043700030460DF06DFB002840F0BC8430460DF057
:1043800097FBC1B2DFF8F8817E4E88F80010FCF789
:10439000D7FF30687F2840F3F7817B4B7F38A3FB42
:1043A0000023DB0803EB4303A0EB83007330774B60
:1043B00001931B883060002B40F01382DFF8D0A1FE
:1043C0009AF80030002B00F0C281724F3B78002B2E
:1043D00000F0BD81DFF8C0B14FF0000914E06A4B76
:1043E000A3FB0213DB0803EB4303A2EB830202F1FE
:1043F000730098F80010C0B204F036FD3B7809F164
:1044000001094B4540F3A3815BF8040F336818445E
:104410007F28A0F17F02E2DC0028C0F10002E8DA88
:10442000594BA3FB0213DB0803EB4303A2EB83020C
:10443000C2F10C00DDE75949DFF864C109780029B1
:104440003FF4A8AE9CF800B059453FF4A3AEBEF1CE
:104450004B0F40F359831833802BB7F800B0A8BF37
:1044600080239B453FF496AE3B804E4B4FF0010BB3
:1044700083F800B08EE6029AA6F252339A42BFF653
:1044800013ABBAF80030002B3FF40EAB039B002BAC
:104490007FF48FAE444B1B881BB1059B002B7FF430
:1044A00088AE049B002B3FF4FFAA404B1A78002AE9
:1044B0007FF4FAAADFF8F88001221A7098F8003029
:1044C000002B40F064853B4B1B78002B40F0988517
:1044D000394B1B78002B00F0F385384B1B78002BF1
:1044E0007FF4E2AA364B1B78002B3FF4DDAA3B8811
:1044F0000A333B802B4B1A70FFF7D6BA314A324948
:104500001370324A0B7013702149314A0B701370CB
:10451000FFF744BBDFF8BC8098F80030002B7DD05B
:104520002D4A1278002A40F0B8832C4F2C4E3B7055
:10453000FFF73ABA9A424FF00003B4BF01221A467D
:104540000492ACBF01221A46039305920193F8E549
:104550004E9AFF1FC09AFF1FF49CFF1F509AFF1F27
:10456000F29BFF1FF49BFF1FF49AFF1F4C9AFF1F43
:10457000489AFF1FF09BFF1FCDCCCC3D0000FE42B0
:10458000F69BFF1FB09AFF1FABAAAAAA909BFF1F22
:10459000609BFF1F4E8DFF1F5C8EFF1F719BFF1FD7
:1045A0000C9BFF1F8A9AFF1F069AFF1F929BFF1FFB
:1045B000389BFF1F0899FF1F0999FF1F0A99FF1FCA
:1045C0000B99FF1FD59BFF1FC29BFF1FDA9BFF1F8D
:1045D000D49BFF1F729BFF1F0E99FF1F099BFF1F9C
:1045E000689AFF1F9C4A1278002A3ED13A889A4264
:1045F0003FF45AAA3B80994B01221A70FFF754BA34
:10460000C0B2187004F0BEFB95489649964A002344
:1046100003700B7013703370FFF727BA934F3B781A
:10462000002B40F07883924E3B70FFF7BDB9914B61
:104630001A60914B198800297FF44FAE13468342CC
:10464000A8BF034663E601238C4C894E2B60FFF71D
:10465000ABB98B487F3BA0FB0370C00800EB400068
:10466000A3EB80037333FFF77DBB4A2840F33D8300
:104670001833802B3A88A8BF80239A42BAD1FFF71B
:1046800013BA804C2278002A40F037837E4A1268A1
:10469000D2F17F0248BF033292100132821A934254
:1046A0003FF7CFAC0A601346CCE4774A1268D2F1E8
:1046B0007F0248BF033200EBA20201329342FFF6B1
:1046C000C0ACEFE7714BDFF8C8C1197862E54E4620
:1046D000DDF81090039B1B78002B40F06782029B53
:1046E0001B78002B40F05E82019B1B88002B00F0A2
:1046F0005382039A9AF8003012781343029A127880
:10470000134300F00584564B1B78002B50D0614AB0
:104710001378082B4CD80133DBB213705E4A306833
:1047200012685E49013B821A41F823205C4B2168E4
:104730001A8889F800008A42504CBFF634A92268D2
:10474000584B0892089A4A4E1A60FFF72DB9444B0D
:104750001B78002B40F0DE80434B1B78002B55D19B
:10476000514B1B78002B4DD1019B1B88002B43D054
:104770004E4B1B78002B3AD14D4A31681170032300
:104780003B4E2B60FFF710B90028BFF610AE3C4B34
:104790004042A3FB0023DB0803EB4303A0EB8300B1
:1047A000C0F10C0003E6FCF7BDF826E46B226DE4D3
:1047B0003068BBE7284B1B78002B3FF4EEA93A4842
:1047C0000378002B40F0DC82254F3A4E3B70254F9A
:1047D0003B70254F3B700123037003233370FFF7B9
:1047E000DCB998F80010C0B204F03EFBE6E57F218A
:1047F000422004F0FBFABFE798F80010307804F08C
:1048000033FBB5E73078FCF7C3FBADE73368A3F1C2
:104810000C007F2840F39D81194A8B3BA2FB0312B9
:10482000D20802EB4202A3EB820303F1730098F873
:104830000010C0B204F018FB9AF80030002B8FD0A3
:10484000144F3B78002B8BD0DFF86C90DFF830B042
:104850004FF0000A46E000BF729BFF1F8A9AFF1FBD
:10486000D59BFF1F609BFF1FDA9BFF1F099BFF1F4C
:10487000689AFF1F489AFF1FF49BFF1FF49CFF1FBD
:10488000ABAAAAAA749AFF1F589BFF1F719BFF1F18
:104890000C9BFF1F4E8DFF1FD09BFF1F608EFF1FC5
:1048A0004E9AFF1F6C9CFF1FC29BFF1FD49BFF1FD4
:1048B0003199FF1FD78DFF1F5C8EFF1FABFB0213CB
:1048C000DB0803EB4303A2EB830202F1730098F8C9
:1048D0000010C0B204F0C8FA3B780AF1010A53454F
:1048E0007FF73EAF326859F8043F1344A3F10C0040
:1048F0007F28A3F18B02E1DC0028C3F10C03E6DA88
:10490000ABFB0312D20802EB4202A3EB8203C3F11A
:104910000C00DCE77F21402004F068FAB84AB94B6C
:104920003168116000221A7016E700230370B64B3D
:104930001B78002B3FF4F4A8DFF8D0A29AF800000F
:10494000002800F0D08200208AF80000FFF7E8B8C5
:10495000AF4B1B78002B40F03482AE4B1B78002B02
:1049600040F02A82019B1B88002B00F02082AA4B7A
:104970001B78002B40F01682A84B1B78002B40F0D0
:104980007482A74BA74A216812880020186001236F
:104990002B60D0E60028BFF675AAA34A4042A2FBCE
:1049A0000012D20802EB4202A0EB8200C0F10C0020
:1049B000FFF768BA9D4B01931B88002B40F06A8279
:1049C000934B0393934B02938E4F3B7883B3984A58
:1049D0000496DFF854B24FF00008164610E0ABFB27
:1049E0000103DB0803EB4303A1EB830101F1730037
:1049F000C0B204F077FA3B7808F10108434516DDB0
:104A000099F8000056F8043F18447F28A0F17F0170
:104A1000E5DC0028C0F10001EADAABFB0103DB08AA
:104A200003EB4303A1EB8301C1F10C00E0E7049E1B
:104A3000039B1B78002B3FF408AA99F80030A3F1E0
:104A40000C007F2840F32B82774A8B3BA2FB03129A
:104A5000D20802EB4202A3EB820303F17300C0B25F
:104A600004F040FA9AF80030002B00F08280654F85
:104A70003B78002B00F0BE826D490496DFF8A8B1A8
:104A80004FF000080E4611E0ABFB0203DB0803EB1E
:104A90004303A2EB830202F17300C0B204F022FAD6
:104AA0003B7808F10108434540F3098256F8042F8A
:104AB00099F800301344A3F10C007F28A3F18B0276
:104AC000E2DC0028C3F10C03E7DAABFB0302D208F7
:104AD00002EB4202A3EB8203C3F10C00DDE70139D4
:104AE000FFF707BB002323700346FFF7ABBA012192
:104AF00048E4029B1B78039A127813437FF4AFA912
:104B0000019B1B88FFF7B0B9243B012BB7F800B01D
:104B1000B8BF01239B457FF4A7ACFFF73BBB4548DB
:104B2000007800283FF426A8FFF711B83F4A019209
:104B30001288002A3FF47EAF384604F0D3F99AF881
:104B40000030002B7FF440AF72E741F6FF70FFF7B3
:104B5000EFBB0028BFF66BAE334AC3F10C03A2FBD8
:104B60000312D20802EB4202A3EB8203C3F10C0052
:104B70005DE6029B1B78002BBDD099F80000FCF786
:104B8000B1F8FFF767B9DFF8B080C0B298F800104D
:104B900004F06AF9FFF77AB9274B3078197804F0F6
:104BA00063F9A6E53078FCF7F3F99DE53368A3F1E6
:104BB0000C007F2840F35E811B4A8B3BA2FB031253
:104BC000D20802EB4202A3EB820303F17300DFF889
:104BD0006880C0B298F8001004F046F99AF80030E6
:104BE000002B3FF47CAD074F3B78002B3FF477ADB3
:104BF0000F4ACDF810900023B1469B46164632E08E
:104C0000D09BFF1F4E8DFF1F0C99FF1F609BFF1F46
:104C1000DA9BFF1FC29BFF1FD59BFF1FD49BFF1F6B
:104C2000489AFF1F4E9AFF1FABAAAAAA909BFF1F8C
:104C30005C8EFF1F0999FF1FF69BFF1FBD4BA3FB57
:104C40000C12D20802EB4202ACEB820C0CF17300A6
:104C500098F80010C0B204F007F93A780BF1010B94
:104C60005A4540F3328156F8041FD9F80020114408
:104C7000A1F10C007F28A1F18B0CDFDC0028C1F131
:104C80000C01E5DAAB4BA3FB0102D20802EB4202B6
:104C9000A1EB8201C1F10C00DAE7A74F387801F0EF
:104CA0002DFAA64B1B78002B4CD03B887E2B49D885
:104CB000A34EDFF890923268D9F80010521A0F2AEA
:104CC0003AD9013399B2A04B39801888002850D0C6
:104CD000C9B2C0B204F08AF89C4F98F8003032682C
:104CE000C9F800203B70FEF75FBE243B012BB8BF24
:104CF00001237BE47F21FFF745BB531CDBB2022B72
:104D00003FF6F0AE23700346FFF79CB999F8000018
:104D100004F0E8F8F4E6884B894E19886A2004F01C
:104D2000D9FA98F800303B70FEF73EBE8B42A8BF20
:104D30000B46FFF72AB8824E844F98F800303B703C
:104D4000FEF732BE824B1B78002BF4D03988002945
:104D5000F1D07B4EDFF8EC913368D9F800209B1A34
:104D60000F2BE9D9784B0139188889B2398000288E
:104D7000AED1C8B204F0EEF8AEE70123FFF740B8B9
:104D800000230370FEF709BF00270770FEF7DABEA5
:104D90004FF0000C87F800C0FEF7E8BE41F6FF7048
:104DA000FFF704B80021402004F020F8E4E599F86A
:104DB000000004F097F8DAE599F80000FBF792FF9D
:104DC000D0E599F80030A3F10C007F2840F39080E3
:104DD000584A8B3BA2FB0312D20802EB4202A3EB20
:104DE000820303F17300C0B204F07CF89AF800303B
:104DF000002B3FF4B2AD574F3B78002B3FF4ADADE5
:104E0000DFF854A14B4E4FF0000811E0A6FB02134F
:104E1000DB0803EB4303A2EB830202F17300C0B291
:104E200004F060F83B7808F1010843457FF795AD41
:104E30005AF8042F99F800301344A3F10C007F288E
:104E4000A3F18B02E2DC0028C3F10C03E7DAA6FB36
:104E50000312D20802EB4202A3EB8203C3F10C005F
:104E6000DDE704F03FF8FEF730BF0021422003F0F9
:104E7000BDFF86E50028BFF6AAAE2E4AC3F10C039B
:104E8000A2FB0312D20802EB4202A3EB8203C3F19E
:104E90000C009CE6314B0393314B02934CE6002807
:104EA000BFF6DDAD234AC3F10C03A2FB0312D20807
:104EB00002EB4202A3EB8203C3F10C00CFE5049E98
:104EC000FEF7C3BF7F23FEF79BBF4E46DDF8109071
:104ED00005E49842A8BF1846224B1860FFF7FDB9B9
:104EE0000138FFF725BA1E4F1F480297FEF711BE83
:104EF0000028BFF678AF0F4AC3F10C03A2FB0312E0
:104F0000D20802EB4202A3EB8203C3F10C006AE772
:104F10004FF47A43013BFDD199F8000003F0E2FF22
:104F2000FFF7F1BB01F04CF8FFF781B80138FEF74D
:104F30003DBF00BFABAAAAAA149BFF1F0D99FF1F7C
:104F4000689AFF1F2C9BFF1F129BFF1F099BFF1FCF
:104F50000C99FF1F4E8DFF1F5C8EFF1FDA9BFF1FFA
:104F6000C29BFF1F489AFF1FD59BFF1F5D4B1B78FD
:104F7000002B7EF499AD5C4BAEF1240181F3470127
:104F800019605B20C9B203F031FF98F80030032BA1
:104F90007EF488ADDFF8548198F80020002A40F0B4
:104FA0008480534F3B78002B73D14E4E3378002BC7
:104FB00063D1504B1B78002B53D14F4A13804F4B7A
:104FC0001B78002B30D14E4B7F221A803A7898F80C
:104FD00000301343327813437EF464AD494A7F2195
:104FE0000720138003F002FF7F210B2003F0FEFE59
:104FF000FEF758BD029B1B78002B3EF430AFBCE59A
:105000003C4B1B78E3B13A4B1B78002B7EF44CAD44
:10501000344B1B78002B3EF447AD3B880A3B3B806A
:10502000394B1A70FEF740BD354B00227F21072017
:105030001A8003F0DBFE7F210B2003F0D7FEC5E7CB
:105040002B4B1B78002B7EF42FAD264B1B78002BAF
:105050003EF42AAD3B88013B3B802B4B1A70FEF798
:1050600023BD254B01227F2107201A8003F0BEFEBD
:105070007F210B2003F0BAFEA1E7224B04227F21FF
:1050800007201A8003F0B2FE00210B2003F0AEFED1
:105090008FE71C4B02227F2107201A8003F0A6FE17
:1050A0007F210B2003F0A2FE7FE7164A0021072094
:1050B000138003F09BFE7F210B2003F097FE70E727
:1050C0000B4B1B78002B7FF451AF064B1B78002B4A
:1050D0003EF4EAAC3B8801333B800B4B1A70FEF781
:1050E000E3BC00BF0B99FF1F989BFF1F0899FF1F90
:1050F0000A99FF1F0999FF1F1C9AFF1F0C99FF1F98
:10510000F49BFF1F1E9AFF1F8A9AFF1F10B508F01D
:10511000DBFE0D4806F01AFA0C4806F017FA0C48A8
:1051200006F014FA4FF07E52012100230948FBF7E4
:1051300093F90948094A0A4980230024037104604D
:10514000BDE810400CF0B4B9E89BFF1FE49BFF1FC3
:10515000E09BFF1F289AFF1F789AFF1F348DFF1FC7
:10516000A905000010B50446A4206368198804F05E
:10517000B1F8E368A620BDE81040198804F0AAB889
:1051800003462A205B68198804F0A4B810B50446C9
:1051900022206368198804F09DF8E3682420BDE8A4
:1051A0001040198804F096B810B504460A206368C8
:1051B000198804F08FF8E3680C20BDE810401988C6
:1051C00004F088B810B5044606206368198804F016
:1051D00081F8E3680820BDE81040198804F07AB827
:1051E00010B5044602206368198804F073F8E36878
:1051F0000420BDE81040198804F06CB870B50E4D5D
:1052000084B0122604220123CDE90026044603902F
:10521000029328461423102108F0DAF80622092305
:105220000293CDE90026039414231021284608F0A8
:10523000CFF804B070BD00BF749CFF1F2DE9F04192
:10524000A14DB5F90030032B0CD083B3022B4ED007
:10525000052B79D0012B00F0A480042B00F0C68030
:10526000BDE8F08110200AF0DBFAC830B0F57A6FA3
:10527000A8BF4FF47A60B0F5FA7FB8BF4FF4FA7068
:1052800000F51673B3F57A6F904A914C81B2A8BFBE
:105290004FF47A6322201180238004F01BF82188C8
:1052A000242004F017F8B5F90030002BCED10E20E1
:1052B00008F07AFD40F6FF73C8309842A8BF184640
:1052C00020EAE07081B200F2DC509842814CA8BF25
:1052D0001846814B20800220198003F0FBFF2188B3
:1052E000042003F0F7FFB5F90030022BB0D1012004
:1052F0000AF096FA044600200AF092FA8442B8BFF7
:10530000044604F1C800B0F57A6FA8BF4FF47A6084
:10531000B0F5FA7FB8BF4FF4FA7000F54873B3F5F3
:105320007A6F6E4A6E4CA8BF4FF47A6381B20A203E
:105330001180238003F0CEFF21880C2003F0CAFFE8
:10534000B5F90030052B85D10F200AF069FAC0F5B8
:105350003F610431B1F5FA6FA8BF4FF4FA61C0F5AF
:105360004363B1F5AF6FB8BF4FF4AF61B3F5FA6FF8
:10537000A8BF4FF4FA63B3F5AF6F5A4A5A4CB8BF9F
:105380004FF4AF6389B2A4201180238003F0A2FF01
:105390002188A62003F09EFFB5F90030012B7FF491
:1053A0005CAF152008F000FD41F25C2300F596701B
:1053B0009842A8BF1846B0F52F7FB8BF4FF42F70A2
:1053C00081B200F516709842484CA8BF1846484B69
:1053D00020800620198003F07DFF2188082003F03B
:1053E00079FFB5F90030042B7FF43AAFDFF8048180
:1053F000414E424D00274FF4AF74F9B2304606F0EB
:10540000A9F858F8043BC3F5967303FB00F085FB3D
:105410000023C017C0EB6310844207F10107A8BF47
:105420000446062FE9D1DFF8D880364E334D0027E9
:10543000F9B2304606F08EF858F8043BC3F596737F
:1054400003FB00F085FB0023C017C0EB6310844210
:1054500007F10107A8BF04460C2FE9D1DFF8A880A7
:105460002A4E264D0027F9B2304606F073F858F858
:10547000043BC3F5967303FB00F085FB0023C017C4
:10548000C0EB6310844207F10107A8BF04460C2F4C
:10549000E9D1143C322CB8BF322440F23A72A4F560
:1054A000AF7302FB03F3963B85FB03251848194AAB
:1054B000DB17A1B2A3EB651332330180BDE8F041E5
:1054C0002A20136003F006BF209CFF1F9C9AFF1F39
:1054D0009A9AFF1F4C9AFF1F4E9AFF1F789BFF1F3F
:1054E000769BFF1F289BFF1F1C9BFF1F869BFF1F98
:1054F000889BFF1FB48DFF1FE89BFF1FB5814E1BCC
:10550000848DFF1FE49BFF1F548DFF1FE09BFF1F37
:10551000669AFF1F888EFF1F2DE9F041214D82B052
:10552000012602B284B2CDE900262846782319214B
:1055300007F0B6FD04F10C0212B2CDE900262846B0
:1055400004EB060878231921A71C07F0A9FD0FFA20
:1055500088F83FB21923009719464246284601961B
:1055600007F09EFD7823424600971946284601968B
:1055700004F10A070B3407F093FD3FB224B27823FD
:1055800019463A462846CDE9004607F089FD192319
:10559000CDE900463A461946284607F081FD02B09B
:1055A000BDE8F081749CFF1FF0B5164E164FB6F99A
:1055B0000030834283B00D4603D1B7F900308B42EF
:1055C0001DD00023009304B25B23104826221C2127
:1055D00006F064FF01230D482622214606F0F8FD5F
:1055E0006B1C04D1012034803D8003B0F0BD2DB28E
:1055F000064801232622294606F0EAFDF2E70020AC
:1056000003B0F0BD988EFF1F9A8EFF1F749CFF1F82
:105610002DE9F043C64D2B7883B01BB1C54B4FF637
:10562000FF721A80C44BB3F900303BB1013B042B2D
:105630001AD8DFE803F04972A6C62600BF4BC0485F
:105640001B685A2283F30C0302FB03F303F2FF737C
:10565000A0FB03201B1A00EB5300C00A4FF0FF31E0
:105660001C30FFF7A1FF20B900232B7003B0BDE869
:10567000F083B44807F06AFB00232B7003B0BDE849
:10568000F0830F200AF0CCF8C0F53B600830B0F58D
:10569000FA6FA8BF4FF4FA60B0F5AF6FB8BF4FF420
:1056A000AF605A23A0F5AF6003FB00F0A64B00F5F6
:1056B0009670A3FB003080094FF0FF311C30FFF7DC
:1056C00073FF0028D0D0D4E7A04B1B78002B00F04C
:1056D0002A81152008F068FB024641F25C239342C0
:1056E000A8BF1346B3F52F7FB8BF4FF42F735A21CD
:1056F000A3F52F7301FB03F39549964C03F5FA6369
:10570000A1FB03131B0A4FF0FF3103F11C002260C1
:10571000FFF74AFF0028A7D0ABE78F4B8F4A1B68E3
:105720001268B3F57A6FA8BF4FF47A63B2F57A6F57
:10573000A8BF4FF47A62B3F5FA7FB8BF4FF4FA739B
:10574000B2F5FA7FB8BF4FF4FA72A3F5FA70A2F57A
:10575000FA715A2303FB00F003FB01F1804B01F2C5
:10576000D66100F2D660A3FB0121A3FB0030C90A79
:10577000C00A1C311C30FFF717FF00283FF474AF3C
:1057800077E7784B764A1B68B3F57A6FA8BF4FF47A
:105790007A63B3F5FA7FB8BF4FF4FA735A21A3F5D1
:1057A000FA7001FB00F000F2D660A2FB0020C00AF4
:1057B0004FF0FF311C30FFF7F7FE00283FF454AFE5
:1057C00057E725220024CDE900245E48664E674F46
:1057D000DFF89C91DFF8708176231C2107F060FCD4
:1057E00018E0484526DC88FB0023C117C1EB631194
:1057F00032395A2303FB01F19631A8FB01314909E3
:105800001C3109B201231C444E48252206F0E0FC5D
:105810000C2C11D0E1B2384605F09CFE56F8043B42
:10582000C3F5967343F6972203FB00F09042D8DC51
:105830001C21E7E77621E5E726220024CDE90024B4
:1058400040484C4E4C4FDFF82891DFF8FC8076231F
:105850001C2107F025FC18E0484526DC88FB0023C6
:10586000C117C1EB631132395A2303FB01F19631A1
:10587000A8FB013149091C3109B201231C443148FC
:10588000262206F0A5FC0C2C11D0E1B2384605F01A
:1058900061FE56F8043BC3F5967343F6972203FB6B
:1058A00000F09042D8DC1C21E7E77621E5E72722CB
:1058B0000024CDE900242348304E314FDFF8B0906A
:1058C000DFF8848076231C2107F0EAFB17E088FBD1
:1058D0000023C117C1EB631132395A2303FB01F1D5
:1058E0009631A8FB013149091C3109B21548013430
:1058F0000123272206F06CFC062C3FF4BAAEE1B27D
:10590000384605F027FE56F8043BC3F5967303FBB3
:1059100000F043F6972398424FF01C01E6DD48451E
:10592000D5DD7621E2E7112009F07AFF0246D4E6C0
:105930002A9CFF1F988EFF1F209CFF1F8C9BFF1F20
:1059400001011000749CFF1FB5814E1B0D9AFF1FB3
:10595000D34D6210109AFF1F6C9BFF1F689BFF1FA7
:105960001BECCB958C9AFF1F848DFF1FE49BFF1FC0
:10597000539B0100548DFF1FE09BFF1FB48DFF1F41
:10598000E89BFF1F2DE9F043834D044683B0284672
:10599000E668D4F8008007F0C9F91120FFF7BCFDD4
:1059A000012719234FF02809194624222846019778
:1059B000CDF8009007F074FB78231946242228467E
:1059C000CDF80090019707F06BFB3946284608F0A8
:1059D0001DF8724B2B61B8F1000F07D040460CF058
:1059E000EFFE4146024628460BF062FA6A480BF089
:1059F000C1FA4FF4A0136A4967482B6103220BF0E8
:105A000057FA65480BF0B6FA4FF40C136549624833
:105A10002B6103220BF04CFA5F480BF0ABFA002E1F
:105A200040F09080604B012738461F70FFF7E6FB7F
:105A30006368628919882389D21A61D0C91A02EB76
:105A4000D2735C205B1000FB013303FB02F10029E1
:105A500093FBF2F3554AACBF1B331A3399B2118052
:105A60001A2001221BB2CDE9000219464A4814222D
:105A700007F016FB002E4ED0238A628AE168D21A04
:105A8000098800F08680CB1A02EBD2715C204910A5
:105A900000FB031191FBF2F301FB02F2002AACBF01
:105AA0001B331A3399B21BB2414A3B48118001267D
:105AB0003822CDE900261946322207F0F1FA0923EF
:105AC00000220093402301921946334807F03AFB25
:105AD0003146314807F09AFF6368364A2A611988CF
