:1000000000800020BD010000D1E300008DE300006E
:100010008DE300008DE300008DE300008DE3000020
:100020008DE300008DE300008DE30000D1E30000CC
:10003000D1E300008DE30000BDD70000C1D7000070
:10004000D1E30000D1E30000D1E30000D1E30000E0
:10005000D1E30000D1E30000D1E30000D1E30000D0
:10006000D1E30000D1E30000D1E30000D1E30000C0
:10007000D1E30000D1E30000D1E30000D1E30000B0
:10008000D1E30000D1E30000D1E30000D1E30000A0
:10009000D1E30000D1E30000D1E30000D1E3000090
:1000A00095B20000A1B20000D1E30000D1E300004E
:1000B000D1E30000D1E30000D1E30000D1E3000070
:1000C000D1E30000D1E30000D1E30000D1E3000060
:1000D000D1E30000D1E30000D1E30000D1E3000050
:1000E000D1E30000D1E30000D1E30000D1E3000040
:1000F000D1E30000D1E30000D1E3000095F300005C
:10010000D1E30000DDFA0000D1E30000D1E30000FC
:10011000D1E30000D1E30000D1E30000D1E300000F
:10012000D1E30000D1E30000D1E30000D1E30000FF
:10013000D1E30000D1E30000D1E30000D1E30000EF
:10014000D1E30000D1E30000D1E30000D1E30000DF
:1001500059DC000075DC000091DC0000ADDC000023
:10016000D1E3000059FE0000D1E30000D1E300001C
:10017000D1E30000D1E30000D1E30000D1E30000AF
:10018000D1E30000D1E30000D1E30000D1E300009F
:10019000D1E30000D1E30000D1E30000D1E300008F
:1001A000D1E30000D1E30000D1E30000D1E300007F
:1001B000D1E30000D1E30000D1E30000574B4CF243
:1001C000205210B5DA814DF62812DA8100BF00BF47
:1001D0000EF002F9524B4FF010621A63514A9A63C3
:1001E000514ADA63514A136913F4807303D153619E
:1001F0004FF4A85313614E4B9A78110703D59A78A0
:1002000042F008029A704B4B4B482A221A704B4B13
:10021000DA1C121AC11E22F00302994288BF002282
:1002200047490DF0DFFF474B4748DA1C121AC11E41
:1002300022F00302994288BF0022002112F04EF8FA
:10024000424943484FF4DE720DF0CCFF414B424A25
:10025000802103F8011B9342FBD14FF0E0233C4A7D
:10026000C3F8082D3D4B8A221A70A3F5805324222F
:100270005A70A0221A709A799207FCD59A79D406FE
:10028000FCD4374B9A7902F00C02082AFAD10322E7
:100290001A7140225A719A799006FCD5304A9379A6
:1002A0005906FCD51E4B2F4959640221996420211F
:1002B0001170917901F00C010C29FAD12A4A5A6087
:1002C0004FF0E023294A5A6100229A6107221A61FD
:1002D000274AC3F8202D62B60EF0DAF9134B5B699A
:1002E000DA0705D523480EF0C7F9234B234ADA6114
:1002F000234B1B785B0609D51F4C204BE2699A42C1
:1003000004D11C480EF0B8F90023E3610EF06AF83E
:1003100012F0C6F80DF05EFFFEE700BF00200540BA
:1003200000800440823F04000100002B00D0034005
:1003300000D0074000E00740308CFF1F4098FF1FAF
:10034000605E01008CA3FF1F4098FF1F00000000AB
:100350000082FF1F00E400E05FE400E00050064080
:100360000040064000000301C0100500FF760100B8
:10037000000020201914CE6700E00340A5C3945A62
:1003800000F00740FFFFFFFFFFFFFFFFFFFFFFFF42
:10039000FFFFFFFFFFFFFFFFFFFFFFFFFFFFFFFF6D
:1003A000FFFFFFFFFFFFFFFFFFFFFFFFFFFFFFFF5D
:1003B000FFFFFFFFFFFFFFFFFFFFFFFFFFFFFFFF4D
:1003C000FFFFFFFFFFFFFFFFFFFFFFFFFFFFFFFF3D
:1003D000FFFFFFFFFFFFFFFFFFFFFFFFFFFFFFFF2D
:1003E000FFFFFFFFFFFFFFFFFFFFFFFFFFFFFFFF1D
:1003F000FFFFFFFFFFFFFFFFFFFFFFFFFFFFFFFF0D
:10040000FFFFFFFFFFFFFFFFFFFFFFFFDEF9FFFF23
:100410000548064B1B1AD90F01EBA301491002D066
:10042000034B03B1184770474098FF1F4098FF1FC8
:100430000000000008B5054B1BB105490548AFF3A6
:100440000080BDE80840FFF7E3BF00BF00000000E8
:100450004098FF1F585E010038B5044608462070DA
:100460000A4910461D4610F0E7FF01464FF07E5046
:1004700011F096F8064910F0DFFFE5606060256135
:1004800065610EF051FBE061204638BDDB0FC940CD
:100490000024744938B50446084620700A491046BD
:1004A0001D4610F0C9FF01464FF07E5011F078F85C
:1004B000064910F0C1FFE5606060256165610EF0DE
:1004C00033FBE06138BD00BFDB0FC9400024744935
:1004D000037810B50446032B21D8DFE803F0191E7A
:1004E0001102C168406910F09DFE0E490346606824
:1004F0001C4611F055F80146204611F051F810BD88
:100500000849406811F04CF8E16810F095FF10BD03
:10051000C168406910F086FE10BDC06810BD0020A3
:1005200010BD00BF00247449F8B504460E460EF015
:10053000FBFAE3690546C01A10F02AFFE768A061DC
:100540000146E56160686661276111F029F801469E
:10055000A0600E4811F024F810F0E2FC05460146B8
:100560004FF07E5010F05EFE314610F065FF2946D8
:100570000646384610F060FF0146304610F054FE43
:10058000E0602046BDE8F840FFF7A2BF000080BF52
:10059000036818470B680360704700BF0B6803606F
:1005A000704700BF704700BF10B504460DF008FB50
:1005B000204610BDF8B5044606981D460F46561A4B
:1005C00011F000F9401BF6B1A4EB070C002800FB6A
:1005D0000CFC06EBD6730ADB0CEB630C0CFB06F38E
:1005E000002B9CFBF6FC0CEB050011DBF8BDACEB23
:1005F000630C0CFB06F3002B9CFBF6FC0CEB0500DC
:10060000F4DB0130F8BD00EBD07005EB6000F8BD05
:100610000138F8BDBDF800C0521AACEB030C1CD079
:10062000401ABCF1000F0CFB00F002EBD27109DBA9
:1006300000EB610000FB02F1002990FBF2F018448E
:1006400010DB7047A0EB610000FB02F1002990FB7A
:10065000F2F01844F5DB013070470CEBDC7C03EB67
:100660006C00704701387047DDF800C0521AACEBDF
:10067000030C1CD0401ABCF1000F0CFB00F002EB85
:10068000D27109DB00EB610000FB02F1002990FB55
:10069000F2F0184410DB7047A0EB610000FB02F1A0
:1006A000002990FBF2F01844F5DB013070470CEBA9
:1006B000DC7C03EB6C0070470138704708B50E20F6
:1006C0000DF082FC1B4B1B88012B2BD01A4B1A8878
:1006D00082421ADC40F6FF739842A8BF1846C2F562
:1006E0007F630F33BBB1811AC1EB013103EBD372CE
:1006F00001EB620101FB03F2002A91FBF3F117DB2E
:10070000BDE8084028200EF015B8C2F57F630F330E
:100710001046002BE7D1BDE8084040F2FF712820C9
:100720000EF008B80146BDE8084014200EF002B8EB
:100730000139E5E7CC99FF1F8E99FF1F38B50B886B
:10074000182B0D46044607D1294B1B7805EB4305B2
:100750006B88182B14D138BD0344A3F118007F28EF
:1007600023DD244A973BA2FB0312D20802EB42028C
:10077000A3EB820303F17300C0B208F03DFAE3E794
:100780001C44A4F118007F281EDD1A4B973CA3FBE4
:100790000423DB0803EB4303A4EB830404F173009D
:1007A000BDE83840C0B208F027BA0028E4DA114AA0
:1007B000C3F11803A2FB0312D20802EB4202A3EB1F
:1007C0008203C3F10C00D7E70028E9DA094BC4F132
:1007D0001804A3FB0423DB0803EB4303A4EB83040B
:1007E000C4F10C00C0B2BDE8384008F005BA00BF43
:1007F000478DFF1FABAAAAAA38B50C46054634F8A8
:10080000023B182B1DD134480378013303F0030257
:100810000270134634F81220182A28D14FF0040C25
:10082000591C032BCAB215BF1346224604EB4202E1
:10083000002303701288182A19D1BCF1010CEFD1E2
:1008400038BD0344A3F118007F2827DD234A973BD6
:10085000A2FB0312D20802EB4202A3EB820303F1D4
:1008600073001F4BC0B2197808F088F9CBE7154424
:10087000A5F118007F2820DD184B973DA3FB052329
:10088000DB0803EB4303A5EB830505F17300144B71
:10089000C0B21978BDE8384008F070B90028E0DA35
:1008A0000E4AC3F11803A2FB0312D20802EB420264
:1008B000A3EB8203C3F10C00D3E70028E7DA074B70
:1008C000C5F11805A3FB0523DB0803EB4303A5EBE8
:1008D0008305C5F10C00DAE7478DFF1FABAAAAAA72
:1008E0003A9BFF1FF8B5724B724C1B88C31A054622
:1008F00084FB0304D817C0EB640000EB4000A3EBBB
:10090000800303EB4303980001EB83040858284459
:10091000AAB17F285CDD684B7F38A3FB0023DB088E
:1009200003EB4303A0EB83007330644F644E3978CC
:10093000C0B208F023F93388022B57D8F8BD7F28BE
:1009400038DD5D4B7F38A3FB0023DB0803EB43035B
:10095000A0EB830073305A4EC0B208F04DF93388D3
:10096000022BEBD9606828447F2840F39280524BD9
:100970007F38A3FB0023DB0803EB4303A0EB8300DA
:100980007330C0B208F038F93388032BD6D9A06889
:1009900028447F286FDD484B7F38A3FB0023DB080A
:1009A00003EB4303A0EB83007330BDE8F840C0B213
:1009B00008F022B90028CEDA3F4B4042A3FB0023C7
:1009C000DB0803EB4303A0EB8300C0F10C00C2E79C
:1009D0000028AADA384B4042A3FB0023DB0803EBD4
:1009E0004303A0EB8300C0F10C009EE7606828443D
:1009F0007F2832DD304B7F38A3FB0023DB0803EB7D
:100A00004303A0EB830073303978C0B208F0B6F826
:100A10003388032B92D9A06828447F280FDD264B0A
:100A20007F38A3FB0023DB0803EB4303A0EB830029
:100A300073303978C0B2BDE8F84008F09FB800289C
:100A4000F7DA1D4B4042A3FB0023DB0803EB430313
:100A5000A0EB8300C0F10C00EBE70028D4DA164BC2
:100A60004042A3FB0023DB0803EB4303A0EB83001E
:100A7000C0F10C00C8E7002897DA0F4B4042A3FBF7
:100A80000023DB0803EB4303A0EB8300C0F10C0061
:100A90008BE70028BFF675AF074B4042A3FB00234E
:100AA000DB0803EB4303A0EB8300C0F10C0068E715
:100AB0003C9AFF1FABAAAA2AABAAAAAA3A9BFF1F7D
:100AC0003E9AFF1F08B51A4B1B7833B315200DF063
:100AD0007BFA184B184A1B781060DBB1174B1B8848
:100AE00083421EDC164A1288D11A1ED08242D4BF1D
:100AF000C3EB0203C3EB0003A3EB830301EBD1724F
:100B0000A3EB620303FB01F2002A93FBF1F3B4BFF2
:100B1000043305330B4A136008BD11200FF0A2F80F
:100B2000D7E7084A0023136008BD0323F2E700BF9C
:100B30004C99FF1F1C9AFF1F5099FF1FDE9AFF1F41
:100B4000DC9AFF1F209AFF1F2DE9F843964B1B8864
:100B5000013B0446092B3CD8DFE803F00A10161CC1
:100B600022282E3D4205BDE8F8439049FFF744BED8
:100B7000BDE8F8438E490122FFF7B4BEBDE8F84353
:100B80008C490122FFF7AEBEBDE8F8438A49012235
:100B9000FFF7A8BEBDE8F84388490122FFF7A2BECF
:100BA000BDE8F84386490122FFF79CBEBDE8F84343
:100BB00084490122FFF796BE834A844B1288198824
:100BC000551891B1824B1B8803339A420DDC022DDC
:100BD00048DCBDE8F883BDE8F8437E49FFF70CBE6A
:100BE000BDE8F8437C49FFF707BE7C4B7C4F1B8870
:100BF0007C4EE31A87FB03277B4AD8171288C0EB89
:100C0000670000EB4000A3EB800302EBC20212017D
:100C100003EB430302EB8303A1EB8101F058204473
:100C200000EB81007F2812DC00280ADA6F4B40427B
:100C3000A3FB0023DB0803EB4303A0EB8300C0F11D
:100C40000C006B4BC0B2197807F098FFBFE7674BF9
:100C50007F38A3FB0023DB0803EB4303A0EB8300F7
:100C60007330EEE7DFF874915D49B9F80030DFF8D2
:100C700078815C4EE31A81FB0321DA17C2EB610233
:100C800002EB4202A3EB820303EB4302B8F800300D
:100C900003EBC3031B0103EB820333445868204476
:100CA0007F2856DD514B7F38A3FB0023DB0803EB85
:100CB0004303A0EB830073304D4FC0B2397807F087
:100CC0005DFF032D85D0B9F800304548B8F8002005
:100CD000E31A80FB0310D917C1EB600101EB41015E
:100CE00002EBC202A3EB8103120103EB430302EB0D
:100CF00083031E44B06820447F2838DD3B4B7F3897
:100D0000A3FB0023DB0803EB4303A0EB830073305A
:100D10003978C0B207F032FF042D3FF45AAF2C4BA4
:100D20001B88012B7FF455AFA4F10C037F2B2CDD26
:100D30002E4AA4F18B03A2FB0312D20802EB42025B
:100D4000A3EB820373333978D8B2BDE8F84307F0D8
:100D500015BF0028B0DA254B4042A3FB0023DB0877
:100D600003EB4303A0EB8300C0F10C00A4E70028D1
:100D7000CEDA1E4B4042A3FB0023DB0803EB430308
:100D8000A0EB8300C0F10C00C2E7002BDBDA174AAE
:100D9000C4F10C03A2FB0312D20802EB4202A3EB44
:100DA0008203C3F10C03CEE7D49AFF1F109BFF1FF1
:100DB000A02A0100102A010068290100C0330100A7
:100DC00030330100503401003E9AFF1F069AFF1F86
:100DD000089AFF1FF89AFF1F049BFF1F3C9AFF1FF2
:100DE000ABAAAA2AC83001000A9AFF1FABAAAAAA76
:100DF0003A9BFF1F2DE9F843974B1B88013B0446A4
:100E0000092B3CD8DFE803F00A10161C22282E3DDF
:100E10004205BDE8F8439149FFF790BCBDE8F843AF
:100E20008F490022FFF75EBDBDE8F8438D490022DF
:100E3000FFF758BDBDE8F8438B490022FFF752BDCC
:100E4000BDE8F84389490022FFF74CBDBDE8F843EF
:100E500087490022FFF746BDBDE8F84385490022D7
:100E6000FFF740BD844D854E2B88A3B1844932885D
:100E7000098803318A420EDC1344022B48DCBDE8AA
:100E8000F883BDE8F8437F49FFF758BCBDE8F84355
:100E90007D49FFF753BC7D4A7D4912887D4FA21AD8
:100EA00081FB021C7C49D0170988C0EB6C0000EB69
:100EB0004000A2EB800201EBC101090102EB4202FA
:100EC00001EB8202A3EB8303B858204400EB8300BC
:100ED0007F2812DC00280ADA704B4042A3FB002373
:100EE000DB0803EB4303A0EB8300C0F10C00C0B2AE
:100EF00007F082FE32882B88BEE7684B7F38A3FB61
:100F00000023DB0803EB4303A0EB83007330EEE721
:100F1000DFF878915E49B9F80030DFF87C815D4FE9
:100F2000E31A81FB0321DA17C2EB610202EB4202F2
:100F3000A3EB820303EB4302B8F8003003EBC303D7
:100F40001B0103EB82033B44586820447F2858DD93
:100F5000524B7F38A3FB0023DB0803EB4303A0EBDA
:100F600083007330C0B207F047FE33882A881344E9
:100F7000032B84DDB9F800304548B8F80020E31AA7
:100F800080FB0310D917C1EB600101EB410102EBBB
:100F9000C202A3EB8103120103EB430302EB8303C1
:100FA0001F44B86820447F2839DD3C4B7F38A3FBC1
:100FB0000023DB0803EB4303A0EB83007330C0B2D4
:100FC00007F01AFE33882A881344042B7FF757AFA3
:100FD0002B4B1B88012B7FF452AFA4F10C037F2B0A
:100FE0002BDD2E4AA4F18B03A2FB0312D20802EBE5
:100FF0004202A3EB82037333D8B2BDE8F84307F093
:10100000FBBD0028AEDA254B4042A3FB0023DB08E2
:1010100003EB4303A0EB8300C0F10C00A2E7002820
:10102000CDDA1E4B4042A3FB0023DB0803EB430356
:10103000A0EB8300C0F10C00C1E7002BDCDA174AFB
:10104000C4F10C03A2FB0312D20802EB4202A3EB91
:101050008203C3F10C03CFE7D49AFF1F109BFF1F3D
:10106000A02A0100102A010068290100C0330100F4
:101070003033010050340100069AFF1F3E9AFF1FD3
:10108000089AFF1FF89AFF1F049BFF1F3C9AFF1F3F
:10109000ABAAAA2AC83001000A9AFF1FABAAAAAAC3
:1010A00010B50C8884422DD203F10043013B31F886
:1010B0001340844223D9B1F802C0844538BF0123CC
:1010C00024D20133DBB29E4631F813C060454FEAAB
:1010D0004304F6D8604517D00EF1004E0EF1FF3EE6
:1010E000135B31F81E1032F81E20401A9B1A03FBC6
:1010F00000F0ACEB010C90FBFCF0104410BD32F89A
:10110000130010BD108810BD105B10BD02244FF0FD
:10111000010EDFE7204B1B880C2B30D81F4982B211
:1011200030B551F8235042B343F6FE739A4227D8A4
:10113000B2F5806F29D31A4C01230133DBB2194673
:1011400034F813E072454FEA430CF6D8724519D0D3
:1011500001F100410139124B35F8114033F81130DB
:1011600035F80C2080B2C01A121B00FB02F2AEEB65
:10117000030392FBF3F3181930BD288830BD704784
:10118000288C30BD35F80C0030BD40F2FF3E4FF0EA
:10119000020C0121DAE700BFAC99FF1F0435010002
:1011A000E03401002DE9F0435C4B83B0186810F087
:1011B000EFF85B4B0446188810F0E6F8014620462D
:1011C00010F03AF9574910F0EBF910F0FBFA564BD2
:1011D0001A88002A73D04042544B55491B680C882A
:1011E000544A9C42168825465CDCB342A8BF33466D
:1011F0001844A0425ADA504B1C60B542A8BF35468D
:10120000331B6BD0281B03EBD372C0EB803000EB99
:10121000620000FB03F2002A90FBF3F07BDBFFF798
:1012200079FF464B1F88464BC0F3C61909FB07F7E9
:101230001B887F2F8046A8BF7F273BB10093324693
:10124000002321462846FFF7E5F903463D4A3E4C78
:10125000136023684B4509D03C4B1B88002B4DD1B4
:101260003B4B1B88002B45D1C4F80090394C2368B8
:10127000434506D0354B1B885A1F032A31D9C4F881
:101280000080354C23689F4209D0344B188828B120
:101290002E4B334A1B88D35C834237D1276003B07F
:1012A000BDE8F08323461844A042A4DBB042A8BFA7
:1012B0003046214BA0421860A2DB05469DE7294B32
:1012C0001B68032B88D0194B19481B6804881949DF
:1012D000A3420E88254617DA2046E7E741F6FF705D
:1012E0009DE71F4AD05C203008F07F01C0B207F0B4
:1012F00007FCC4E7484607F0B7FCB5E7184A49467B
:10130000D05C07F0FDFBABE710466EE7F9B2C0B268
:1013100007F0F6FBC2E7013881E700BF449BFF1FDF
:10132000BC8DFF1F000020423C9BFF1FE49AFF1F63
:101330008E99FF1F8C99FF1F8899FF1F6299FF1FCD
:101340005699FF1F5899FF1F909AFF1F5E99FF1F24
:101350005C99FF1F989AFF1F949AFF1F6099FF1FC7
:101360003C8DFF1F809AFF1F2DE9F04F17208DB095
:101370000EF078FCAB4A0346162013600EF072FCA8
:10138000A94BAA4A1B8810600C2B00F08B80A84A3E
:1013900000211F2B117040F08C80A64BA6491B78B2
:1013A000A648A74A0891003B18BF012303700B8889
:1013B000069052F82380A34BA3491A88A34BA44854
:1013C0001B880988013A013B30F912200992A14A91
:1013D000072932F9134000F243826FF0D2030B4128
:1013E000DB0700F13D829C4B1B78002B00F07182E3
:1013F00015200CF0E9FD0546984B04931E68AE429B
:1014000040F33B82964B974A1B88DFF85C92079229
:10141000012B964B1F8813684046A3EB040400F091
:101420000C830FF0B5FF59F8271010F005F80146AE
:1014300000200FF0F7FEA5428D4F00904FF0000303
:1014400028463146B8BF20462246FFF7B3F83B682E
:10145000184400EBD070874B059340103860864BE2
:101460001B88072B07D86FF0D20A4AFA03FA1AF042
:10147000010A00F08F81DFF80492814BD7F800A0B9
:10148000D9F80040DFF8FCB1039300267E4B1B889F
:10149000013B032B00F22C83DFE813F058013401E9
:1014A00010011700634B1B78002B40F04B82604A01
:1014B0001370624B604A06931946002308920B7022
:1014C00012885F4B53F8228075E720460FF060FFCB
:1014D0006E490FF0B1FF044630460FF059FF6C49DA
:1014E0000FF0AAFF014620460FF09EFE10F06AF9A9
:1014F000079EC9F80000044630680FF049FF6349B1
:101500000FF09AFF034628461D460FF041FF604941
:101510000FF092FF014628460FF086FE10F052F9B8
:101520003060404B5B4D19685B4B2D881A885B4BD4
:101530005B4E1B88DDF80CC03688A71A2244049C39
:10154000CBF80020C21A2260059ACCF80070034440
:101550008D42136000F38F818E423046A8BF08464B
:10156000324B1B689D4200F384819E423446A8BFE3
:101570001C468D42C0F257819D42C0F25481494DB4
:1015800028680FF005FF41490FF056FF46490FF05C
:101590004BFE10F017F9A0F5FF531C3B082B2860F9
:1015A00001D84FF4005043F6FF768244B2455046CE
:1015B000A8BF304620EAE07028600FF0E9FE069BE5
:1015C0000546187808FB00F00FF0E2FE4FF07A5164
:1015D0000FF032FF014628460FF024FE10F0F2F81B
:1015E000324B334D1B78B042A8BF304620EAE07042
:1015F0002860002B00F00C81BAF5005F00F0088134
:1016000004F0B6FA2B4B286801221A702A4C236882
:10161000834204D080B207F059FB2B6823600DB0E1
:10162000BDE8F08FC09AFF1FC89AFF1FBC9AFF1F2A
:10163000309AFF1FC69AFF1F6298FF1FEB9AFF1F89
:10164000548DFF1FC08DFF1F4A99FF1FC28DFF1FC2
:10165000F8290100482C01004C99FF1F4C9BFF1FEB
:10166000409BFF1F5C9BFF1F08330100609BFF1F17
:10167000449BFF1F509BFF1F649AFF1F589BFF1F37
:10168000489BFF1F549BFF1FBE8DFF1F9A99193F58
:10169000CDCCCC3ECC9AFF1FC48DFF1FC68DFF1F43
:1016A000CA9AFF1F8C8DFF1FCDCC4C45209CFF1F7D
:1016B000888DFF1F429BFF1F508DFF1F20460FF09C
:1016C00067FEB6490FF0B8FE044630460FF060FEE4
:1016D000B3490FF0B1FE014620460FF0A5FD10F012
:1016E00071F8079EC9F80000044630680FF050FEFC
:1016F000AA490FF0A1FE034628461D460FF048FEFA
:10170000A74905E720460FF043FEA6490FF094FED7
:10171000044630460FF03CFEA3490FF08DFE014613
:1017200020460FF081FD10F04DF8079EC9F800002B
:10173000044630680FF02CFE9A490FF07DFE0346F8
:1017400028461D460FF024FE9749E1E620460FF09B
:101750001FFE96490FF070FE044630460FF018FE4B
:1017600093490FF069FE014620460FF05DFD10F031
:1017700029F8079EC9F80000044630680FF008FEFB
:101780008A490FF059FE034628461D460FF000FE19
:101790008749BDE6874C03940F200EF063FA226858
:1017A0008242064640F39A80834B0B921B88012BA2
:1017B00000F04A81814BDFF808921988D9F800407F
:1017C000099B0A914046A4EB030B0FF0E1FD7D4B12
:1017D0000A9953F821100FF02FFE014600200FF058
:1017E00021FD0B9A00905E455346114630465A46FD
:1017F000B8BF5846FEF7DEFE3B68DFF8CCB100EB21
:10180000030A0AEBDA7A4FEA6A0AC7F800A03DE653
:101810006E4C2378002B3FF4F9AE04F0A5F90023B9
:1018200028682370F2E6089B1B88002B3FF4A7AEC4
:10183000002332462946CDF80080FEF715FFCDF88B
:1018400000800746324629462046FEF70DFF3B1A28
:10185000002BB8BF5B42092B00F3CC805C4DA0E6A7
:101860005C4B04935C4B07935C4B5D4F05930025E9
:10187000F5E52C467DE6284672E6584B05931E6832
:10188000AE4276DA4C4B544A1B88DFF83891079207
:10189000012B4A4B1F88136840461C4400F0C2804D
:1018A0000FF076FD59F827100FF0C6FDA5424C4FFA
:1018B00000904FF0000328463146A8BF204622463C
:1018C000FEF778FE3B68184400EBD070401038609B
:1018D000C5E511200EF0C6F905468DE5DFF8E8B044
:1018E000DBF8002082424DDA334B0B921B88012B30
:1018F00000F0D380DFF8C890304BD9F80040099A47
:1019000019880A912244404609920FF041FD2D4B5F
:101910000A9953F821100FF08FFD0B9A0090114691
:10192000099AB24253461046A8BF3046FEF742FE1F
:101930003B6800EB030A0AEBDA7A4FEA6A0AC7F857
:1019400000A0A3E5274B284A19880893274B52F893
:1019500021002749069101221A7000230B700FF015
:1019600017FD4FF07C510FF067FD0FF02BFF804605
:1019700021E51B4F184B07933B6803EBD3735B10B8
:101980003B606CE53B68DFF8389003EBD3734FEABC
:10199000630AD9F80040C7F800A077E5CDCC4C3FEA
:1019A000CDCC4C3E6666663FCDCCCC3D3333733FE9
:1019B000CDCC4C3D489BFF1F409BFF1F609BFF1FF2
:1019C000589BFF1F08330100549BFF1F429BFF1FC2
:1019D0008C8DFF1F4C9BFF1F5C9BFF1F509BFF1FAD
:1019E000449BFF1F6298FF1F548DFF1F309AFF1FFB
:1019F000EB9AFF1F07F500540134201A0FF0C8FCC2
:101A00003D493E4D0FF018FD044628680FF0C0FC1C
:101A10003B490FF011FD014620460FF005FC0FF089
:101A2000D1FEC0E50FF0B4FC59F827100FF004FD0B
:101A3000014600200FF0F6FB38E70FF0A9FC59F83B
:101A400027100FF0F9FCF6E42E4BDFF8BC90198854
:101A5000D9F80040099B0A914046A4EB030B0FF014
:101A600097FC2A4B0A9953F821100FF0E5FC0B9ACA
:101A700000905E455346114630465A46B8BF584618
:101A8000FEF798FD3B68DFF888B0184400EBD07093
:101A90004FEA600AC7F800A0F8E4DFF86C90194B31
:101AA000D9F80040099A19880A91224440460992BF
:101AB0000FF06EFC154B0A9953F821100FF0BCFC87
:101AC000014600200FF0AEFB0B9A00901146099AD8
:101AD000B24253461046A8BF3046FEF76BFD3B6846
:101AE000184400EBD0704FEA600AC7F800A0CDE4BC
:101AF000079B186815E500BFCDCCCC3E8C8DFF1F31
:101B00009A99193F609BFF1F589BFF1F08330100E4
:101B1000549BFF1F08B5244B1B885BB3234B1B78DA
:101B20005BB3234B1B7843B3224B1B782BB3224B65
:101B30001B7813B3214B1A782AB3214A2148224932
:101B40001288008809680244B1EB520F15DD0022AB
:101B50001A7007F067F9642004F01EF8642004F09E
:101B60001BF8642004F018F8BDE808404FF4167024
:101B70000CF0FABF114A117801B908BD1370BDE825
:101B8000084007F04FB90E4A0E48104912880088E5
:101B900009680244B1EB520FEFDD01221A70BDE873
:101BA0000840642003F0F8BF0E9AFF1F5B98FF1FE8
:101BB0006498FF1F6598FF1F6698FF1F0C9AFF1F10
:101BC000CA9AFF1FCC9AFF1FBC9AFF1FC09AFF1F23
:101BD00038B5114C232025780CF0F6F90F49002276
:101BE00041F825000B1F01F1C40053F8041F834284
:101BF0000A44FAD123780A490A480133DBB281FB4F
:101C00000251322B4FEAE272C2EB211208BF0023CD
:101C10000260237038BD00BF7898FF1F7C98FF1FBB
:101C20001F85EB517498FF1F2DE9F04F9F4CA04D7D
:101C30002068DFF8808285B00FF0AAFB9E490FF084
:101C4000FBFB064610200EF00DF80FF0A1FB9B49A0
:101C50000FF0F2FB31460FF0E7FA0FF0B3FD2B88DF
:101C6000206002469A42B8F80010184680F2D080F0
:101C7000CF1A1E4600F0D380F61A07EBD77CC6EBCE
:101C8000C61606EB6C0606FB07FCBCF1000F96FBC4
:101C9000F7F6C0F267818A4FDFF828C2CCF80060FF
:101CA0003E88192E00F0EA801A2E2ED01E2E00F04B
:101CB000A4810127844EB946DFF810C2BCF800C0E9
:101CC000BCF1000F13D0DFF808E2BEF800E0BEF16F
:101CD000030F00F23C819A4280F246810A46CDF819
:101CE00000C019460023FEF795FC7A4B18607A4A2B
:101CF0003388108850EA030114D1784B1A78002AEF
:101D000040F01D8205B0BDE8F08F754E3678002E8C
:101D100008BF01276C4E16BF00274FF000094FF097
:101D20000109C9E72988D4F800C0614579DCDFF8EA
:101D3000ACE19EF800A0BAF1000F34D14FF0010AD7
:101D400004288EF800A02ED1002F40F0C6813388E1
:101D5000002BD7D0B9F1000FD4D022682888B8F86A
:101D60000010904200F3AC818A42A8BF0A46091ACB
:101D700000F0C681121A01EBD174C2EB821264101A
:101D800004EB420404FB01F2002A94FBF1F400DBB3
:101D90000134544D2A68A24203D0E1B2D8B206F011
:101DA000AFFE2C60AEE7012800F04181022800F070
:101DB000F4800328CBD14C4B1B88092BC7D0002FB4
:101DC000C5D023682988B8F80020994240F3A8813B
:101DD0000B46521A00F0A8815B1A02EBD277C3EBD4
:101DE00083137F1007EB430707FB02F3002B97FBDE
:101DF000F2F700DB0137DFF8F4B0DBF80030BB426C
:101E000003D0F9B24A2006F07BFECBF800709EE7C3
:101E10008A421646A8BF0E46CF1A7FF42DAF3F2642
:101E200039E72E4A117800293FF46CAF00240128CD
:101E3000147000F0EE80022800F0A080032840F02B
:101E40003381294A1288092A09D047B1274D2A68C7
:101E50002AB121464A2006F053FE33882C60002B1D
:101E60003FF450AFB9F1000F3FF44CAFD8B20021AE
:101E700006F046FE1B4B00221A6043E7DFF8609035
:101E8000114E99F800C0BCF1000F33D0B6F800E055
:101E9000BEF1000F2ED0DFF858A09AF800B0E3454D
:101EA00040F0108101274FF0000905E7D499FF1F8A
:101EB000E499FF1FE299FF1F9A99193FCDCCCC3EC0
:101EC000C89AFF1FD899FF1FDE99FF1F349AFF1F82
:101ED000329AFF1F389AFF1FDC99FF1FE099FF1FFE
:101EE000C69AFF1FA09AFF1F5E99FF1F9C9AFF1FB3
:101EF000559AFF1FDFF84CA29AF800E0E645D1D0D2
:101F00003078002106F0FCFD99F800303A888AF814
:101F100000308D4BB3F800C0BCF1000F00F0BE8064
:101F20001E2A40F00381012799F80030002B60D071
:101F3000DFF818E22B88BEF800E02268B8F800103D
:101F4000BEF1030F18464FF000097FF6C4AE9A4267
:101F50000FDA1A46CDF800C00023FEF75BFB7C4B7E
:101F60001860C4E6013E96E68A42A8BF0A461046BB
:101F7000B4E68A42A8BF0A461046EAE7002F3FF4BB
:101F80006EAF744D2A68002A3FF469AF21460420E1
:101F900006F0B6FD33882C6061E7002F3FF4D8AE21
:101FA000DFF8B0B1B8F80000DBF800A08445634664
:101FB000A8BF0346401A00F0AE805B1A00EBD07158
:101FC0004910C3EB831301EB430303FB00F100292A
:101FD00093FBF0F300DB0133534506D0D9B2042064
:101FE000039306F08DFD5C4A039B1088CBF800300C
:101FF000DFE6574A9946136079E6DFF86091524B65
:1020000099F80070B3F800C0554EB7FA87F77F090A
:102010008AE7002F3FF423AF4E4D2A68002A3FF491
:102020001EAF214606F06CFD33882C6017E7002FA9
:102030003FF48DAEB8F800309C456046A8BF184606
:102040005B1A6AD0401A03EBD37AC0EB80104FEAD8
:102050006A0A0AEB400A0AFB03F100299AFBF3FA29
:1020600001DB0AF1010ADFF8ECB0DBF80030534580
:1020700005D05FFA8AF1012006F042FD364A108849
:10208000CBF800A002287FF494AE2B88D4F800C0CF
:10209000B8F80000634519468CDC87E71E2A3FF438
:1020A00042AFE146012722E604287FF4D8AE002F94
:1020B0003FF4D5AE2146402006F022FD3388CEE61F
:1020C000024654E65FFA8EF07F2106F019FD99F87A
:1020D00000303A888AF800301BE740207F2106F064
:1020E0000FFD1D4A108850450CD002287FF461AEC8
:1020F000DFF860B02B88DBF800A0D4F800C0C7E799
:10210000402446E62888D4F800C0B8F8003060457E
:10211000014695DC90E740235EE74FF0400AA2E7D6
:102120009342A8BF134654E6402764E62B882268F2
:10213000B8F80010184601274FF00009C3E51970E0
:10214000E0E500BF559AFF1F349AFF1F329AFF1F28
:10215000389AFF1F9C9AFF1FDC99FF1FC69AFF1F2A
:10216000DE99FF1F08B5114B1B88022B09D0052BE8
:1021700007D0032B0DD0042B13D00D4B01221A7066
:1021800008BD7F21412006F0BBFC094B01221A70DB
:1021900008BD4021092006F0B3FC054B01221A704E
:1021A00008BD7F21092006F0ABFCE6E7E09AFF1F9F
:1021B000D69AFF1F70B5134E134D3388134C052B61
:1021C00016D029882268914209D1022B10D0033BF6
:1021D000012B11D80021092006F092FC0CE0C9B2B5
:1021E000052006F08DFC3388022B01D0052BEED1A3
:1021F0000021412006F084FC054A2B882360002141
:10220000117070BDE09AFF1FDA9AFF1FA89AFF1F96
:10221000D69AFF1F714B1B881D2B70B500F0A7804D
:102220006F4B1C78002C40F09B806E4B1B88022B60
:1022300038D0053B032B35D96B4B1B88022B5DD067
:10224000053B022B5AD9694A694B11881A88521AE0
:1022500084F30703002A02FB03F3664AC0F2998065
:102260003F3382FB03021A44DD17C5EBA215002B96
:102270000D44C0F2A580604E604B3560002C1B7889
:1022800064DD002B00F092805D4B5E4C1B88052BBB
:1022900006D023689D4203D0E9B2052006F030FC49
:1022A000256070BD584B1B78002B55D111200DF0C7
:1022B000D9FC534B554A1B881060002BBCD0544BA3
:1022C0001B888342B8DC534A1288D11A7AD08242E2
:1022D000D4BFC3EB0203C3EB0003C3EBC31301EB97
:1022E000D17203EB620303FB01F2002A93FBF1F3CB
:1022F0006EDB1C443C4B1B88022BA1D10F200DF040
:10230000B1FC3F4B444A1B881060002B9BD0434BD1
:10231000C0F53B601B880830984294DB404A128825
:10232000D11A52D09042D4BFC3EB0003C3EB0203D7
:10233000C3EBC31301EBD17203EB620303FB01F2A6
:10234000002A93FBF1F346DB1C447CE7002B9BD077
:10235000BDE87040FFF72EBF15200BF035FEA8E753
:10236000274B1B88002B0CBF00247F245DE7244BE8
:102370001C88002C3FF459AF2A4A194B12781B785D
:10238000002A0CBF00247F24002B3FF44EAF7F3483
:102390004BE73F3B82FB03021A44DD17C5EBA21556
:1023A000002B0D44FFF667AF013564E7FFF7DAFE57
:1023B000134B35681B88134C052B7FF46AAF6FE70E
:1023C000013D58E73F231C4494E73F231C443AE770
:1023D000013B1C448EE7013B1C4434E7C89AFF1FB5
:1023E000149AFF1F4A99FF1F649AFF1FDA9AFF1F72
:1023F000D89AFF1F09040281F899FF1FD69AFF1F80
:10240000E09AFF1FA89AFF1F4C99FF1F5099FF1FCA
:10241000DE9AFF1FDC9AFF1F689AFF1F709AFF1F4A
:10242000669AFF1FC69AFF1F38B51F4B1B88DA1E1E
:10243000022A02D9072B00D038BD1C4B1B784BBB9E
:1024400011200DF00FFC1A4B1A4A1B8810608342B2
:1024500024DC194A1288D11A22D08242D4BFC3EB9D
:102460000203C3EB0003C3EBC31301EBD17203EB15
:10247000620404FB01F3002B94FBF1F412DB0F4D1B
:102480002B68A342D8D00E4BE1B2187806F038FB87
:102490002C6038BD15200BF097FDD4E70024EEE743
:1024A0003F24ECE7013CEAE74A99FF1F4C99FF1FE4
:1024B000DE9AFF1F5099FF1FDC9AFF1F8C9AFF1FA7
:1024C0004899FF1F38B51D4B1B88DA1E022A02D916
:1024D000072B00D038BD0F200DF0C4FB184B194955
:1024E0001B880860C0F53B6208329A420BDA002470
:1024F000154D2B68A342EDD0144BE1B2187806F0CD
:10250000FFFA2C6038BD12490988C81A13D08A42D4
:10251000D4BFC3EB0203C3EB0103C3EBC31300EB54
:10252000D07203EB620404FB00F3002B94FBF0F485
:10253000DEDA013CDCE73F24DAE700BF649AFF1FE4
:10254000709AFF1F689AFF1FA49AFF1F629AFF1FCD
:10255000669AFF1F70B510200DF084FBC830B0F5EF
:102560007A6FA8BF4FF47A60B0F5FA7FB8BF4FF426
:10257000FA7000F51673B3F57A6F8A4A8A4CA8BFD1
:102580004FF47A6381B222201180238006F02CFD63
:102590002188864C242006F027FD0E200BF014FD28
:1025A00040F6FF72C8309042A8BF104620EAE070A3
:1025B00000F2DC5381B27E489342A8BF13460180EB
:1025C0000220238006F010FD2188042006F00CFD77
:1025D00017200DF047FB044616200DF043FB844204
:1025E000B8BF044604F1C800B0F57A6FA8BF4FF435
:1025F0007A60B0F5FA7FB8BF4FF4FA7000F548730F
:10260000B3F57A6F6B4A6C4CA8BF4FF47A6381B212
:102610000A201180238006F0E7FC2188674C0C20FB
:1026200006F0E2FC0F200DF01DFBC0F53F61043108
:10263000B1F5FA6FA8BF4FF4FA61C0F54363B1F585
:10264000AF6FB8BF4FF4AF61B3F5FA6FA8BF4FF4E7
:10265000FA63B3F5AF6F5A4AB8BF4FF4AF6389B2AC
:10266000A4201180238006F0BFFCA620218806F05C
:10267000BBFC0B200CF00EFA00287FD011200DF0CF
:10268000F1FA41F25C22C8309042A8BF1046B0F582
:102690002F7FB8BF4FF42F704A4C81B200F51673EC
:1026A00049484A4E01809342A8BF13460620238022
:1026B00006F09AFC2188082006F096FC00244FF4CE
:1026C000AF75E1B2304608F0F5FD01348542A8BF90
:1026D00005460C2CF5D101200DF0C4FA3C493D4AC9
:1026E000A0F1320301FB03F36FF46770034482FB34
:1026F00003121A44DC17C4EBA224002BACBF04F273
:102700005F1404F5AF74AC424FF00000A8BF2C4634
:102710000DF0A8FA2E492F4AA0F1320301FB03F372
:102720006FF467710B4482FB03121A44D917C1EB93
:10273000A221002BACBF01F25F1101F5AF71A142E4
:10274000A8BF214614393229B8BF322140F23A706D
:10275000A1F5AF7300FB03F31F4A204C963B82FBAD
:102760000302DB17A3EB621389B21D4A21803233C7
:10277000BDE870402A20136006F036BC15200BF02F
:1027800023FC41F25C2200F548709042A8BF10463D
:10279000B0F52F7FB8BF4FF42F700A4C81B200F50F
:1027A00096637DE7E499FF1FE299FF1F8C99FF1F55
:1027B0008E99FF1FCC9AFF1FCA9AFF1F669AFF1FB0
:1027C000709AFF1FDC9AFF1FDE9AFF1F2C9BFF1FD2
:1027D000D4FEFFFFC70FB38DB5814E1BA699FF1F17
:1027E000B88DFF1F2DE9F04F0C2095B00BF0B8FB12
:1027F0000C200CF0B1F83B49DFF8ECA014200CF0F1
:10280000B9F83A493A4808F0B1FA022103200CF02D
:102810004FF9022104200CF04BF9022105200CF0A5
:1028200047F9022106200CF043F901210A200CF09F
:102830003FF9012109200CF03BF901210D200CF09A
:1028400037F9012128200CF033F9012114200CF074
:102850002FF902210B200CF02BF901210C200CF098
:1028600027F900210C200CF0EFF8012121200CF0B9
:102870001FF902211C200CF01BF901211B200CF078
:1028800017F900211B200CF0DFF81C200CF002F9D6
:10289000B0FA80F35B091A208AF800300CF03EFB96
:1028A0001F2000210CF0FCFA04200CF0F3F80028A3
:1028B00000F04E8105200CF0EDF8E8B903200CF093
:1028C000E9F8C8B904200CF0E5F8002800F0DB8135
:1028D00006200CF0DFF8074D031E18BF01232B70F4
:1028E0000DE000BF001B3746629BFF1F40420F00F8
:1028F000588FFF1FA499FF1FB44D00232B70062093
:102900000CF0C8F8B0FA80F35B094FF0000BB04A46
:10291000137004F0BFFF2B78002B40F01481584651
:1029200006F07CFBAB4BAC491B88AC4840F23A72DA
:10293000A3F5AF7302FB03F3963B81FB0321DA1788
:10294000A2EB6112002BA649D4BF02F1320302F1BF
:102950003103A44A0B60A44B12881A70062300931B
:10296000A24A0C235A2108F009FD002800F0DA8061
:102970009F4AA0481268DFF8809200230121FDF7EA
:1029800089FD0B200CF086F8011E0CBF01230023EB
:1029900089F8003000F00581984E994D994FDFF885
:1029A0006882002333602B603B6001240F200DF010
:1029B00059F93B6803440E203B600BF005FB33687C
:1029C0000344336099F80030002B00F0B6801520E6
:1029D0000BF0FAFA2B681844286004F0010003F0A9
:1029E000CBF8B8F80030002B14BF4B20DC200134AA
:1029F0000CF0BAF8052CD9D13B6832688349844C75
:102A000008888449002BB8BF0333002AB8BF0332BB
:102A1000921032602A6809887F4E002AB8BF0332BC
:102A20009B109210A3EB000C3B602A6023607B4F4D
:102A30007B4D7C4CC7F800C0034433602020531A00
:102A40000A442B6022600DF00DF9774B00F5FA7007
:102A5000186019200DF006F9744B00F5FA70186033
:102A6000BBF1000F40F0AE80B8F80030002B00F052
:102A70009C806F4B012404201C600CF00BF818B9EB
:102A80006C4B594A1C7010706B4B1B881C2B7DD0F3
:102A90006A4C04F1C80523200BF096FA44F8040FA1
:102AA00001200CF061F8AC42F5D19AF8003023B166
:102AB000634B1B78002B40F0D380002121200BF0CA
:102AC000C3FF604A604B1078604C187006F054FAEF
:102AD00003F04AF85E4B049304A90AA802940894F0
:102AE000FDF758FD0AA910A80E94FDF753FD45F611
:102AF000BF520EA957480AF0F5FF0E9B10A8DB68DD
:102B00009847089B0AA8DB689847029B04A8DB68E3
:102B1000984715B0BDE8F08F04200BF0BBFF0028EC
:102B200000F0A38003200BF0B5FF0028F4D00320B1
:102B30000BF0B0FF0028F5D1EEE711200DF092F870
:102B40002B68184448E715B0BDE8F04F07F0C8BF40
:102B500006200BF09FFF00287FF4ACAE03200BF0A3
:102B600099FF00283FF4A6AE05200BF093FF002844
:102B70003FF4A0AE05200BF08DFF002800F086800A
:102B8000124D00232B704FF0010BC0E6324B18881A
:102B900000283FF47DAF314BC0B2197805F0B0FF8B
:102BA00076E711200BF084FFF6E64FF4FA7002F09E
:102BB000F3FF02F0DDFF04F0E7FF4FF4AF600BF02E
:102BC000D3FF56E7FFF7C6FC4EE700BFA499FF1FEF
:102BD000409AFF1FA699FF1FB5814E1B2C9BFF1F1C
:102BE000B88DFF1FB29AFF1F7298FF1F588FFF1FEB
:102BF000488DFF1F6899FF1F4C99FF1F6499FF1FA5
:102C00005C9BFF1F589BFF1FE699FF1FC48DFF1F92
:102C10006C9AFF1FC68DFF1F549BFF1F489BFF1F11
:102C20004C9BFF1F509BFF1FB89AFF1F749AFF1FFA
:102C3000809AFF1FD299FF1FC89AFF1F7898FF1F25
:102C4000639BFF1F6098FF1F7098FF1F58290100AA
:102C5000BD060000B899FF1F5E9AFF1F609AFF1F14
:102C6000012121200BF0F0FE2BE705200BF012FFD5
:102C700000287FF457AF06200BF00CFF00287FF4EC
:102C800051AF0DF0E7F8104D287038E603200BF037
:102C900001FF044600287FF473AF04200BF0FAFE16
:102CA000034620B9084D4FF0010B2B702FE606208C
:102CB0000BF0F0FE044D031E18BF01232B704FF0E4
:102CC000010B234623E600BFA499FF1F2DE9F04F17
:102CD000924F934E8DB009AD0024E1B2304608F01A
:102CE000E9FA3B880134834294BF002301230C2C72
:102CF00005F8013BF1D18B4B9DF824701F708A4B76
:102D00009DF826501D70894B9DF828101970884B2E
:102D10009DF82A001870874B9DF82C201E88864C41
:102D2000DFF818C222707B190B440344844C13440F
:102D3000DBB22370834C4FF0000E012E84F800E0CC
:102D40008CBF4FF0000E4FF0010E8CF800E07AB906
:102D5000002800F0C681002900F0EA8104232370D6
:102D600079487A4B0093032E00F03D83237807E0E7
:102D7000002900F0B580754A73480092062323703D
:102D8000DFF8CCA10370DFF8CC919DF825308AF8EC
:102D90000030DFF8C4819DF8273089F80030DFF873
:102DA000BCB19DF8293088F800306D4D9DF82E306B
:102DB0008BF800306B4F9DF82B302B706A4E9DF8CE
:102DC0002D303B7001209DF82F3033700CF04AFFFE
:102DD000664B1968664B8842CCBF012200221A70EC
:102DE00040F38780634B1A88182A00F28280624B76
:102DF000B3F800C00C3ABCF1000F40F082809AF8A2
:102E000000E0DFF878A199F800909AF800A098F80F
:102E100000809BF800302478AAEB4E0AAAEB090A3E
:102E2000A8EB880BD344C3EB837AC3EB8A039B44A0
:102E30002B780BEB430B524BB3F800A03B785B4471
:102E400096F800B00BFB0A33DFF838A14FF00C0BFB
:102E50001BFB0433CAF80030B8F1000F05D03478FA
:102E60001CB1BCF1030F40F25A81474C474E2488F5
:102E7000DFF81CA1DFF81CC13688BAF800A0DCF826
:102E800000C0033C04EB440403EB8404C6EBC60619
:102E9000544466440C3CDFF800C122443F4CBCF86B
:102EA00000C02468CCEBCC0C6444DFF8F4C05CF8C0
:102EB000266032443B4E56F824402244BEF1000FB7
:102EC00074D02C78002C71D0B9F1000F40F0238120
:102ED000354CB8FA88F84FEA581884F8008070E04A
:102EE000002800F0EA80194A174800920523237051
:102EF00046E7214BB3F800C00022BCF1000F3FF4BD
:102F00007EAF0CF1FF33042B00F2BD82DFE813F03B
:102F10000502D60172016801130100BFA699FF1FC7
:102F20002C9BFF1F6498FF1F6598FF1F6698FF1F6B
:102F30006798FF1FF49AFF1F6898FF1FAC9AFF1F46
:102F4000EC9AFF1F889AFF1F549AFF1FFC99FF1FDE
:102F50005898FF1F5998FF1F5A98FF1F5B98FF1F33
:102F60005C98FF1F5D98FF1F5E98FF1FB88DFF1FC5
:102F7000C69AFF1FC89AFF1F049AFF1FB48DFF1F38
:102F8000329BFF1F009AFF1F869AFF1F329AFF1F76
:102F9000309BFF1F389AFF1F5499FF1F5899FF1F3E
:102FA000302B0100A82E0100C49AFF1FAB4C002556
:102FB0002570B9F1000F02D03C78002C77D14FF08A
:102FC00000098842C8BFA649A64CC8BF0B60A649E5
:102FD000A64B098884F8009007298CBF01200020A7
:102FE000187058D9A24BA3481B680180032B00F02E
:102FF000EC810025A04BA14C1D702368934250D05A
:103000009F48A04F03680493049E9F4B3E60012796
:103010001F70036805939D4B1F88059B9B1BBB423C
:103020002DD99B4E9B4F33683260D31A3B60002DE5
:103030003BD0954B1D78002D64D12260964D2B68B6
:10304000934223D00468954F0794079C3E68A41BC5
:103050008C4240D3D11A00F1DB81914C266886EA7C
:10306000E674A4EBE6748C4240F3FA81894909685E
:103070000029B8BF49428C42B8BF5A1CE3E1844BD7
:1030800022601A68002DD9D1834B1A60009B1A6008
:103090000DB0BDE8F08F77480023194603801D4628
:1030A000A8E7784B76481E68B3E72260ECE758EA59
:1030B0000E0884D14FF0010983E7012E7FF613AF8C
:1030C000BDB117B9012E00F2578102232370754B51
:1030D0007548009347E61A46009B1A600DB0BDE89C
:1030E000F08F0029ECD0002D40F08A81012E40F2B3
:1030F000A181002F00F040816B4801232370694BB0
:10310000009330E605680695069D644E0D443560D3
:1031100000251D7091E7514C002525704FE7634C49
:103120002488042C0CBF02330433CAF800309CE618
:10313000012EC5D812E624789AF800E099F800909C
:1031400098F800809BF80030C4F10604E4B20194C2
:10315000574CDFF858A12478BAF800A0CDF808A0A1
:10316000A4EB4E04A8EB880AA4EB09045444C3EB77
:10317000837AC3EB8A0395F800B0DDF808A02344F6
:10318000BEFA8EF464090BFB04F403EB44041EFB4B
:103190000BF30393337897F800B003FB0AFA18FB9C
:1031A00003F3A3EB83030293B9FA89F35B090BFBE7
:1031B0000343B8FA88F4640904FB0A33039CDDF87E
:1031C00008A0A3EB440309FB1B33DDF804B0534410
:1031D0000C24DFF8E0A014FB0B33CAF800303BE608
:1031E0009AF800E099F8009098F800809BF8003079
:1031F0002478ACE79BF8003094F800B02C4C9AF897
:1032000000E0247899F8009098F80080A4EB4E0430
:10321000A4EB0904A8EB880AA244052414FB03A428
:10322000C3EBC30304F1050A03EB0B041F4B95F832
:1032300000B00AEB4B0BB3F800A03B785B4496F868
:1032400000B00BFB0A33DFF870A05AF82440DFF817
:1032500064A00C332344CAF80030FDE5C49AFF1F74
:10326000D09AFF1FC59AFF1F249AFF1F1C9AFF1FA9
:10327000809AFF1F4C8DFF1F169AFF1F4C9AFF1F4D
:10328000B09CFF1F489AFF1F849AFF1FCE99FF1F13
:103290002C9AFF1F289AFF1F189AFF1F509AFF1F92
:1032A000209AFF1FFC99FF1F549AFF1F329BFF1F9C
:1032B000B48DFF1F009AFF1F102C01009BF80030F7
:1032C00024789AF800E099F8009098F80080C3EB11
:1032D000C3031C44714B93F800B0ABEB4E0BA8EB4F
:1032E0008803ABEB090B9B442B78ABF1020B0BEB88
:1032F000430B6B4BB3F800A03B785B4496F800B0EF
:103300000BFB0A33DFF89CA15AF82440DFF898A1A0
:1033100018332344CAF800309EE524789BF8003027
:103320009AF800E099F8009098F80080C4F106043B
:103330005FFA84FB594C94F800A0AAEB4E0AAAEB62
:10334000090AA8EB88045444C3EB837AC3EB8A03CD
:103350001C442B7804EB430A514B1C883B785344A4
:1033600096F800A00AFB0433DFF83CA10C2414FB00
:103370000B33CAF800306FE54C480578012D71D940
:1033800006B125704A4D2D88002D6ED0002B6CD1D2
:10339000484B1B88013B9BB2062B66D8464B1B78DB
:1033A000002B62D0454B1B68012B454B00937FF4EB
:1033B000DAAC1B68434F0C2593FBF5FC05FB1C3373
:1033C0003B80414B03251D70CDE4404B1B68002B17
:1033D0007FF70FAE3E4B3F481B78007803430CBF8E
:1033E0000125002506E600293FF4C0AC002A7FF441
:1033F000BDAC0378062B7FF4B9AC07232370BFE480
:1034000003239E422948237027D02D4A0092B7E417
:103410002E490E6886EAE674991AA4EBE674A14276
:1034200010DA2D4909680029B8BF49428C420ADAEE
:103430005A1E08E01D480378FBB1214A009203237D
:1034400023709DE49A1B03680893089B3B60009BD4
:103450002A601A600DB0BDE8F08F194B0093C8E7E1
:103460009A19F0E7164B00937DE4144B1B68012B6F
:10347000134B00937FF477ACA3E7002F7FF43DAEAE
:103480000F4B009372E49AF800E0DFF81CA099F863
:10349000009098F80080DAF80030DDE4B48DFF1F6A
:1034A000329BFF1F702E0100009AFF1F549AFF1FCE
:1034B000AE9AFF1FD49AFF1F1A9BFF1F809AFF1F0F
:1034C000FC99FF1F3C9AFF1F478DFF1F209AFF1F8B
:1034D000219BFF1F209BFF1F289AFF1FA84B1B78D3
:1034E000002B40F03F812DE9F04F0E2091B00AF003
:1034F0006BFD0DF04DFF0146A248A34CA34DFDF717
:1035000013F8A048FCF7E4FF0EF05CF980F30C0020
:103510002060FFF7DBFB2B68012B5DD0022B00F056
:103520000985032B00F08881994C9A4E23689A4CA8
:103530000F930F9B22683360991A984A1288013AB8
:10354000914200F28F83964C22689A1A092A00F25F
:103550009383944C22689A1A0D2A00F2A383924C0A
:1035600022689A1A252A1CD9904B1B8813B9904BB4
:103570001B780BB1FEF7CEFAFEF72AFB8D4B1B88AA
:103580001B3B9BB2022B08D88B4B1B782BB18B4B70
:103590001B7813B12B68012B01D002F011FB3368AB
:1035A0002360874C22689A1A502A00F24183854989
:1035B0000A689A1A052A03D9834A0B600120107001
:1035C000824A1288012A00F0A18205F0C7FB11B0DF
:1035D000BDE8F04F05F05EB8DFF8F4817D4BB8F838
:1035E00000001A78824240F0C5807B4F7B4B3888C0
:1035F0001A78824204D07A4E3278002A40F00E8641
:10360000784A23681288624C9A4280F2AD80216821
:103610000A917549754A0B600A9B136002232B605F
:10362000DFF8CC91DFF8CCA1B9F80030BAF800206F
:1036300013439BB2002B40F06D836F4B1E680E202E
:103640000AF0C2FC6FF454731E44864202DC6B4BDA
:1036500000221A7000200CF005FB694B69491A68BA
:10366000694B90421B88D4BF002601260E70002BA8
:1036700000F0858565490B78B34262D0904260DDE9
:10368000634B1878002800F04B87624A1778002FA8
:1036900040F04487DFF880C1604B8CF80070DFF8A1
:1036A00080A1DFF880C11B788AF800708CF8007068
:1036B0000127CDF804C0177033B100271770019AA5
:1036C000177001228AF80020574A92F800E0BEF1F4
:1036D000000F01F03780554A1778002F41F06E81B6
:1036E000DFF840C18CF8007001271770504A12783B
:1036F000002A00F08B86484F97F800C0BCF1000FFD
:1037000041F05681DFF80C8188F800C04FF0010CC1
:1037100087F800C0BEF1000F40F0788603431A43DB
:1037200040F07486244B1B78002B40F07486394A95
:1037300013703B4A13703D4A13703A4A1370364A6D
:1037400013700E701B4B1B88A3F11B02012A40F261
:1037500022851D2B7FF4E9AE174A364B12780D4EA9
:103760001A70E3E607F036B8114A1278002A7FF49F
:103770004EAF55E7C0B2187005F080F935E700BFCD
:10378000A499FF1F6899FF1FE49AFF1F809AFF1FEB
:10379000B09CFF1FA899FF1F9499FF1F3A8DFF1F30
:1037A0009899FF1F9C99FF1FA099FF1F0E9AFF1F5A
:1037B0000C9AFF1FC89AFF1FC69AFF1F5E98FF1F33
:1037C0006C98FF1FC899FF1FC499FF1FCC99FF1F5A
:1037D0006098FF1F7098FF1FB29AFF1F7298FF1F1B
:1037E000D299FF1F8E99FF1F449AFF1F9099FF1FC8
:1037F0005A9AFF1F5C9AFF1F6499FF1FEA9AFF1FE6
:10380000B88DFF1F229BFF1FD49AFF1F569AFF1FE0
:103810005B98FF1F219BFF1F209BFF1F5C98FF1FD2
:10382000B09AFF1F1A9BFF1F5898FF1F269BFF1F70
:103830005998FF1F559AFF1FA24B21681A888A4288
:1038400058DDA14B1B78002B54D1DFF8809299F8FA
:1038500000007F280BDD7F38A3F15533A3FB002345
:10386000DB0803EB4303A0EB83007330C0B2984B3B
:1038700000931B8889F80000002B41F00F81DFF8CE
:1038800054A29AF80030002B00F05B86924F3B78F0
:10389000002B00F05686914EDFF844B24FF000083E
:1038A00011E0ABFB0213DB0803EB4303A2EB830243
:1038B00002F17300C0B205F09FF93B7808F10108EE
:1038C000434540F33E8699F8000056F8043F1844FB
:1038D0007F28A0F17F02E4DC0028C0F10002E9DAD1
:1038E000ABFB0213DB0803EB4303A2EB8302C2F141
:1038F0000C00DFE77B4E33687F2B00F3BE84002B88
:103900000ADA77485B42A0FB0370C00800EB400076
:10391000A3EB8003C3F10C03DFF8B09199F80070BA
:103920009F4200F03585704B1B88002B46D16F4BB2
:103930006F491B6809889A4240F3F4871346891A35
:1039400001F044809B1AC3EB833301EBD17203EB8C
:10395000620303FB01F2002A93FBF1F0C1F2FD8048
:10396000FDF7D8FBC0F3C6100DF012FD614B804689
:1039700018880DF00DFD6049824640460DF05CFD53
:10398000014650460DF058FD41460DF04DFC4FF0FC
:103990007E5180460DF0EEFE002841F0068057492A
:1039A00040460DF005FF002841F0A18040460DF093
:1039B0002FFFC3B2DFF8488188F800307F2F0ADD7F
:1039C000474B7F3FA3FB0723DB0803EB4303A7EB36
:1039D00083077337FFB2DFF8FCA089F800709AF80C
:1039E0000030002B40F0CF85464B474A02930192AE
:1039F0001B7812781A4340F0AC86354B0093019B3C
:103A00001B78002B40F0CC869AF80030002B00F099
:103A10008E86009B1B88002B00F0748730687F28FF
:103A200040F370862E4A7F38A2FB0012D20802EBC8
:103A30004202A0EB820073303060002B40F02987F7
:103A40009AF80030002B00F07284234F3B78002B53
:103A500000F06D84214ACDF80C900023B146DFF8C8
:103A6000A0809B46164614E01D4BA3FB0102D20822
:103A700002EB4202A1EB820101F1730098F8001001
:103A8000C0B205F07BF83A780BF1010B5A4540F3D0
:103A90004B8456F8040FD9F8002010447F28A0F179
:103AA0007F01E1DC0028C0F10001E7DA0C4BA3FB49
:103AB0000102D20802EB4202A1EB8201C1F10C002B
:103AC000DCE700BF8E99FF1F0C9AFF1F7198FF1F44
:103AD000E89AFF1FB09AFF1F388DFF1F8C8DFF1FC4
:103AE000ABAAAAAAFC99FF1F389BFF1F8899FF1F4A
:103AF0008C99FF1F349BFF1FCDCCCC3D0000FE42B4
:103B00003A9BFF1F269BFF1F1A9BFF1F6849694AAC
:103B100008681268A82441F6FF7104FB0011664C86
:103B2000183A84FB01042A200C4400FB02F2C81757
:103B3000C0EB64300029ACBFA0F15401A0F15501E5
:103B40005E4804785E480A446FF014055D490068D9
:103B500005FB04220A60002800F00E835A4D2978E4
:103B6000002940F0448359490A68594800880028D0
:103B700039D0584C54F82000002800F04284B3FBA0
:103B8000F0F400FB1433C3EBC30300EBD07403EB7E
:103B9000031303EB640393FBF0F403FB00F0002832
:103BA0004D4BB8BF04F1FF3453F82430A3F2FF7338
:103BB0004A4C246804FB03F303F57D33162003F518
:103BC000607300FB03F3464C03F57D3303F560732C
:103BD00084FB0304D817C0EB6440002BACBF0B3848
:103BE0000C3802440A603F4B3F491B883F4803F2B0
:103BF0007C7302FB03F35B0003F5FC630A8880FB24
:103C00000310643A1844D917002B4FEA4202C1EB63
:103C1000E021C0F28785114481F30C0128200AF0CD
:103C200089FD05F09BF811B0BDE8F04F04F032BDFE
:103C300003F066FE2E4B2F492F4A09781B78127825
:103C40000B432E4913432E4A097812780B43134332
:103C50002C4A1278134300F07C8701F091FF3368FF
:103C60002360A4E4FDF79EFA33682360264C2268A3
:103C70009A1A092A7FF66DACFDF776FBFDF7D4FFA3
:103C8000FEF7D2FB214B1B88082B01D1FCF71AFF52
:103C9000FEF718FC336823601D4C22689A1A0D2A1F
:103CA0007FF65DACFEF7B6FA3368236057E400BFD9
:103CB0008C8DFF1FFC99FF1F09000280EB9AFF1FEC
:103CC000F899FF1F289BFF1FC499FF1FB099FF1F82
:103CD000C299FF1F4C2E01006C2C0100D899FF1FC8
:103CE000491B8940B499FF1FC099FF1F8320088298
:103CF0001A9BFF1F219BFF1FB09AFF1F269BFF1FD0
:103D0000209BFF1F0C9AFF1F9899FF1F4A99FF1FC6
:103D10009C99FF1F20200BF0A5FF9B4B02901B6876
:103D2000039319200BF09EFF984B994A1B88128829
:103D30001344984A1168984A834610688B45D4BF4B
:103D4000002201225E10B0EB530F944B1B6840F32E
:103D500032829E424FF00003B4BF01201846049007
:103D6000ACBF012018460893079009930E20CDE9B7
:103D700000120AF029F98A4B8A4A1B68DFF828C228
:103D800005930133802B16680690019A9CF8000079
:103D90000099A8BF8023012BB8BF0123904200F0F7
:103DA000398220680B908148DDF82CE0C0F800E0F3
:103DB00020680C900C98A0EB0E00282812D97C48A3
:103DC00090F800E0BEF1000F40F04B828B4540F3CD
:103DD0004B8278494FF0010E80F800E0087880EAC5
:103DE0000E0008708CF80020734ADFF8D0B112780A
:103DF000002A64D09BF80010914260D03988994223
:103E000000F0B6846E493B806E4B09784FF0010C90
:103E100083F800C0DFF8B0C16C4B8BF800201B7832
:103E20008CF80010002B67D1029B039A934263DC4D
:103E3000049B1BB1B9F80030002B5DD1069AA6F2A5
:103E400052339A42BFF6FBABBAF80030002B3FF476
:103E5000F6AB079B002B4FD15D4B1B8813B1099B21
:103E6000002B49D1089B002B3FF4E9AB594A13784A
:103E7000002B7FF4E4ABDFF860810123137098F826
:103E80000020002A40F08286544A1278002A40F02E
:103E9000B386534A1278002A00F03787514A1278C5
:103EA000002A7FF4CCAB504A1278002A3FF4C7AB0B
:103EB0003A880A323A80434A1370FFF7C0BB404940
:103EC000DFF804C109780029A6D09CF800E071450C
:103ED000A2D005984B2840F354841833802BB7F8B0
:103EE00000E0A8BF80239E4596D03B80354B4FF025
:103EF000010E83F800E08FE73C4B18683C4B1A88B2
:103F00003C4B1B881A443C4B1968431C802BA8BFB0
:103F10008023012BB8BF0123B1EB520FC0F25981AE
:103F2000A3F149020F2A3FF68AAB483BA8F80030BC
:103F3000FFF785BB314A20681288824204DB304B90
:103F40001B78002B00F093812E4C21680D912E4997
:103F50000D9B09685B1A2D4909888B4260D800299E
:103F60005ED02B4B198800293FF4DFAA294B1B6830
:103F70008342B8BF034628489A42008840F3C1856F
:103F8000264B1A60C9B29EE0B89AFF1FCA9AFF1F5B
:103F9000CC9AFF1F749AFF1FC09AFF1FBC9AFF1F85
:103FA000D09AFF1F6499FF1F579AFF1F109AFF1F97
:103FB000159AFF1F149AFF1FC49AFF1F589AFF1FDC
:103FC000C59AFF1FD299FF1F599AFF1FB49AFF1F6E
:103FD0004699FF1FEA9AFF1F889AFF1F5898FF1FF4
:103FE0005998FF1F5A98FF1F5B98FF1F009AFF1FE9
:103FF000E499FF1FE299FF1FD499FF1F8E99FF1FBD
:104000000C9AFF1FB09CFF1F9099FF1F369BFF1F4C
:10401000389BFF1F449AFF1F8C99FF1F8899FF1F31
:10402000A74BA8491B688342B8BF03469A42088839
:1040300000F30B81A449A54E09888342A8BF03461B
:10404000336000299ED19A42C8BF134640F30581D0
:10405000811A00F093839B1AC3EB833301EBD17277
:1040600003EB620393FBF1F003FB01F10029C0F2C3
:104070004F85FDF74FF8C0F3C6100DF089F9944B4A
:10408000064618880DF084F99249074630460DF02F
:10409000D3F9014638460DF0CFF931460DF0C4F89A
:1040A0004FF07E5106460DF065FB002840F03D8341
:1040B000894930460DF07CFB002840F020843046D2
:1040C0000DF0A6FBC1B2DFF81482854E88F800100F
:1040D000FDF768F830687F2840F38481814B7F3892
:1040E000A3FB0023DB0803EB4303A0EB8300733047
:1040F0007D4B00931B883060002B40F09E81DFF8E1
:10410000ECA19AF80030002B00F04E81784F3B78FC
:10411000002B00F04981DFF8DCB14FF0000914E01A
:10412000704BA3FB0213DB0803EB4303A2EB8302F8
:1041300002F1730098F80010C0B204F01FFD3B7844
:1041400009F101094B4540F32F815BF8040F3368F7
:1041500018447F28A0F17F02E2DC0028C0F10002B1
:10416000E8DA604BA3FB0213DB0803EB4303A2EB8B
:104170008302C2F10C00DDE75F490A60F5E45F4AA3
:104180005F4913705F4A0B70137058495E4A0B7099
:104190001370FFF7D7BADFF8748198F80030002B5E
:1041A0004AD05B4A1278002A40F08183594F5A4E18
:1041B0003B70FFF7BBB99E424FF00003B4BF012034
:1041C00018460890ACBF0120184607930990049345
:1041D000CCE54E4A1278002A5BD13A889A423FF4E5
:1041E0002EAA3B804D4B01221A70FFF728BA424994
:1041F0000C68A24259DC61DAD0F17F0048BF03307D
:1042000080100130241AA24258DC0C6022460020A3
:104210002870AAE44248D0F800E0C9E5C0B218709E
:1042200004F03AFC354A31483649002313700370D4
:104230000B703370FFF7E4B9364F3B78002B40F03A
:104240006683354E3B70FFF771B9204B1A601E4BE9
:10425000198800297FF496AE13468342A8BF03460F
:10426000F6E68B453FF7BEAD00210170BAE50123AC
:104270002C4C294E2B60FFF759B91A487F3BA0FB05
:104280000370C00800EB4000A3EB80037333FFF71B
:1042900043BB4A2840F306831833802B3A88A8BFD3
:1042A00080239A429DD1FFF7CAB9D0F17F0048BF61
:1042B000033004EBA0040134A242A6DA0A60A6E7A8
:1042C000449AFF1F8C99FF1F389BFF1F8899FF1F7F
:1042D000349BFF1FCDCCCC3D0000FE423A9BFF1F1C
:1042E000FC99FF1FABAAAAAAE89AFF1FB09AFF1F6A
:1042F000388DFF1F8C8DFF1FB099FF1F219BFF1F63
:104300001A9BFF1F269BFF1F209BFF1FC69AFF1FA4
:104310005E98FF1F559AFF1FA899FF1FD299FF1F94
:10432000109AFF1FB09CFF1F4E46DDF80C90029BB9
:104330001B78002B40F04482019B1B78002B40F03F
:104340003B82009B1B88002B00F03082029A9AF877
:10435000003012781343019A1278134300F0E0837F
:10436000A84B1B78002B4FD0A74A1378082B4BD8AB
:104370000133DBB21370A54A30681268A449013BCF
:10438000821A41F82320A34B21681A8889F800007B
:104390008A42A14CBFF6C9A82268A04B0E920E9A81
:1043A0009F4E1A60FFF7C2B8964B1B78002B40F067
:1043B000A5809C4B1B78002B4FD19B4B1B78002B6F
:1043C00047D1009B1B88002B3DD0984B1B78002BBE
:1043D00040F09F80964A316811700323904E2B6005
:1043E000FFF7A4B80028BFF683AE924B4042A3FB70
:1043F0000023DB0803EB4303A0EB8300C0F10C00B8
:1044000076E66B23FFF7D4BB3068BCE78A4B1B789A
:10441000002B3FF496A9844A1378002B40F0D282F7
:10442000784F86483B70864F3B707E4F3B70012330
:10443000137003230370FFF784B998F80010C0B21B
:1044400004F09CFB5BE698F80010307804F096FBD3
:10445000BBE73078FCF778FBB3E73368A3F10C00D7
:104460007F2840F30682734A8B3BA2FB0312D208DB
:1044700002EB4202A3EB820303F1730098F80010F1
:10448000C0B204F07BFB9AF80030002B95D05E4F51
:104490003B78002B91D0DFF8AC91DFF898B14FF06A
:1044A000000A13E0ABFB0213DB0803EB4303A2EBB0
:1044B000830202F1730098F80010C0B204F05EFBB2
:1044C0003B780AF1010A53457FF777AF326859F814
:1044D000043F1344A3F10C007F28A3F18B02E1DC1D
:1044E0000028C3F10C03E6DAABFB0312D20802EB9F
:1044F0004202A3EB8203C3F10C00DCE77F214020E2
:1045000004F0FEFA414A404B3168116000221A70F3
:104510004FE77F21422004F0F3FA5BE7002313709A
:10452000494B1B78002B3FF4CFA8DFF814A19AF871
:104530000020002A00F0EF8200228AF80020FFF716
:10454000C3B8384B1B78002B40F05382364B1B7896
:10455000002B40F04982009B1B88002B00F03F821B
:10456000284B1B78002B40F03582304B1B78002BFA
:1045700040F08F82354B274A21681288002018604E
:1045800001232B6004E7324B00931B88002B40F083
:104590009982244B0293244B01931B4F3B78002BB1
:1045A00059D0284A0396DFF88CB04FF00008164621
:1045B00010E0ABFB0103DB0803EB4303A1EB83013A
:1045C00001F17300C0B204F017FB3B7808F1010859
:1045D00043453FDD99F8000056F8043F18447F2812
:1045E000A0F17F01E5DC0028C0F10001EADAABFBB5
:1045F0000103DB0803EB4303A1EB8301C1F10C00D2
:10460000E0E700BF219BFF1F388DFF1F1C9BFF1F92
:10461000908DFF1F8E99FF1FB09CFF1FB09BFF1F47
:10462000A899FF1F269BFF1F1A9BFF1F209BFF1FA0
:104630007198FF1FABAAAAAAC69AFF1F478DFF1F3A
:10464000B09AFF1F8C8DFF1F5C98FF1F8899FF1F7A
:10465000E89AFF1F039E029B1B78002B3FF4CFA913
:1046600099F80030A3F10C007F2840F31B82B34A75
:104670008B3BA2FB0312D20802EB4202A3EB8203A4
:1046800003F17300C0B204F0B7FA9AF80030002BBF
:1046900000F08280AA4F3B78002B00F06182A9498C
:1046A0000396DFF898B24FF000080E4611E0ABFB1E
:1046B0000203DB0803EB4303A2EB830202F1730066
:1046C000C0B204F099FA3B7808F10108434540F381
:1046D000118256F8042F99F800301344A3F10C000E
:1046E0007F28A3F18B02E2DC0028C3F10C03E7DA98
:1046F000ABFB0302D20802EB4202A3EB8203C3F13D
:104700000C00DDE70028BFF697A98C4A4042A2FBC7
:104710000012D20802EB4202A0EB8200C0F10C00B2
:10472000FFF78AB90139FFF776BA0121CBE4019B83
:104730001B78029A127813437FF46BA9009B1B88A5
:10474000FFF76CB9804A1278002A3EF4E7AFFEF713
:10475000D2BF7E4A00921288002A3FF47EAF3846CC
:1047600004F04AFA9AF80030002B7FF416AF72E793
:10477000774BDFF8E0C11978FFF74EBB41F6FF70C9
:1047800077E4243B012BB7F800E0B8BF01239E4536
:104790007FF4ABABFFF740BB019B1B78002BC8D06D
:1047A00099F80000FCF726FBFFF72EB96A4B30782A
:1047B000197804F0E3F9C9E53078FCF7C5F9C0E5EC
:1047C0003368A3F10C007F2840F381815B4A8B3B67
:1047D000A2FB0312D20802EB4202A3EB820303F115
:1047E0007300DFF87481C0B298F8001004F0C6F9C5
:1047F0009AF80030002B3FF49FAD514F3B78002BCF
:104800003FF49AAD4F4ACDF80C900023B1469B4639
:10481000164614E0494BA3FB0C12D20802EB4202ED
:10482000ACEB820C0CF1730098F80010C0B204F0ED
:10483000A5F93A780BF1010B5A4540F35E8156F821
:10484000041FD9F800201144A1F10C007F28A1F128
:104850008B0CDFDC0028C1F10C01E5DA374BA3FB40
:104860000102D20802EB4202A1EB8201C1F10C006D
:10487000DAE70028BFF602AE304AC3F10C03A2FB10
:104880000312D20802EB4202A3EB8203C3F10C0035
:10489000F4E5DFF8C480C0B298F8001004F06EF9B7
:1048A000FFF7CEB8243B012BB8BF012395E42B4F73
:1048B000387801F0D9F92A4B1B78002B5AD03B8865
:1048C0007E2B57D8274EDFF8A0903268D9F8001019
:1048D000521A0F2A2CD9013399B2244B39801888E7
:1048E00000285ED0C9B2C0B204F00AF9204F98F88F
:1048F00000303268C9F800203B70FEF717BE7F21F8
:10490000FFF7E1BB99F8000004F076F916E7134BC6
:10491000144E19886A2004F067FB98F800303B7049
:10492000FEF704BE8B42A8BF0B46FFF708B80D4E3A
:104930000F4F98F800303B70FEF7F8BDABAAAAAA5B
:10494000388DFF1F8C8DFF1F5998FF1FE89AFF1F9E
:10495000C59AFF1F599AFF1F3A9BFF1F609AFF1FBE
:104960005D98FF1FA899FF1F7C9AFF1F5E9AFF1F8B
:10497000559AFF1FB94B1B78002BD8D039880029D6
:10498000D5D0B74EDFF8DC923368D9F800209B1AF7
:104990000F2BCDD9B44B0139188889B23980002842
:1049A000A0D1C8B204F060F9A0E70123FFF702B874
:1049B0004FF0000C87F800C0FEF7ACBE0027177060
:1049C000FEF794BE00231370FEF7BBBE41F6FF70E6
:1049D000FEF7C6BF0021402004F092F8C5E599F823
:1049E000000004F009F9BBE599F80000FCF702FAB1
:1049F000B1E599F80030A3F10C007F2840F39980CD
:104A00009A4A8B3BA2FB0312D20802EB4202A3EBB1
:104A1000820303F17300C0B204F0EEF89AF800309C
:104A2000002B3FF493AD924F3B78002B3FF48EADBB
:104A3000DFF840A28D4E4FF0000811E0A6FB0213F4
:104A4000DB0803EB4303A2EB830202F17300C0B265
:104A500004F0D2F83B7808F1010843457FF776ADC2
:104A60005AF8042F99F800301344A3F10C007F2862
:104A7000A3F18B02E2DC0028C3F10C03E7DAA6FB0A
:104A80000312D20802EB4202A3EB8203C3F10C0033
:104A9000DDE70021422004F033F86BE504F0ACF8C8
:104AA000FEF7EDBE0028BFF6EDAD704AC3F10C0372
:104AB000A2FB0312D20802EB4202A3EB8203C3F172
:104AC0000C00DFE56C4B02936C4B019347E600282A
:104AD000BFF687AE654AC3F10C03A2FB0312D208EE
:104AE00002EB4202A3EB8203C3F10C0079E67F23C1
:104AF000FEF760BF039EFEF782BF4E46DDF80C90C6
:104B00001AE49842A8BF18465D4B1860FFF73ABAFE
:104B10000138FFF7AEBA594F5A4A0197FEF7CDBD9B
:104B20004FF47A43013BFDD199F8000004F064F89A
:104B300016E40028BFF66FAF4C4AC3F10C03A2FB8A
:104B40000312D20802EB4202A3EB8203C3F10C0072
:104B500061E701F009F8FFF782B80138FEF700BFFE
:104B6000019B1B78002B3EF454AF19E6464B1B7893
:104B7000002B7EF464AD059BA3F12401434B81F32C
:104B8000470119605B20C9B203F0BAFF98F8003002
:104B9000032B7EF452ADDFF8F88098F80020002A4D
:104BA00040F0A8803B4F3B78002B40F09780364E7A
:104BB0003378002B40F08680374B1B78002B75D163
:104BC000364A1380254B1B7853BB354B7F221A8006
:104BD0003A7898F800301343327813437EF42DADC1
:104BE000304A7F210720138003F08AFF7F210B20AA
:104BF00003F086FFFEF721BD274A1278E2B1254A6D
:104C00001278002A7EF41BAD1F4A1278002A3EF467
:104C100016AD3A880A3A3A80234A1370FEF70FBD60
:104C20001F4B00227F2107201A8003F069FF7F219C
:104C30000B2003F065FFCBE7164A1278002A7EF4BA
:104C4000FEAC114A1278002A3EF4F9AC3A88013AD7
:104C50003A80154A1370FEF7F2BC00BF5C98FF1F44
:104C6000A899FF1F7C9AFF1F5E9AFF1FABAAAAAAF2
:104C7000388DFF1F8C8DFF1F269BFF1F1A9BFF1F68
:104C80008899FF1F219BFF1F5B98FF1FF09AFF1F52
:104C90005898FF1F5A98FF1F5998FF1F5C99FF1FD4
:104CA000389BFF1F5E99FF1FD299FF1F1F4B0122E8
:104CB0007F2107201A8003F023FF7F210B2003F0C0
:104CC0001FFF7FE71A4B04227F2107201A8003F081
:104CD00017FF00210B2003F013FF6DE7144B022296
:104CE0007F2107201A8003F00BFF7F210B2003F0A8
:104CF00007FF5CE70E4A00210720138003F000FF46
:104D00007F210B2003F0FCFE4CE70A4A1278002AB0
:104D10007FF42CAF084A1278002A3EF490AC3A880F
:104D200001323A80054A1370FEF789BC5C99FF1F77
:104D30005E99FF1F5A98FF1F5B98FF1FD299FF1FB4
:104D400010B509F0D1F90A4806F0B0FA4FF07E52DA
:104D5000012100230748FBF77FFB0748074A084962
:104D60008023002403710460BDE810400CF050BAA9
:104D70002C9BFF1F6899FF1FB899FF1F348DFF1FE1
:104D8000A905000010B50446A4206368198804F042
:104D90002BF9E368A620BDE81040198804F024B977
:104DA00003462A205B68198804F01EB910B5044632
:104DB00022206368198804F017F9E3682420BDE80D
:104DC0001040198804F010B910B504460A20636831
:104DD000198804F009F9E3680C20BDE8104019882F
:104DE00004F002B910B5044606206368198804F07F
:104DF000FBF8E3680820BDE81040198804F0F4B817
:104E000010B5044602206368198804F0EDF8E368E1
:104E10000420BDE81040198804F0E6B870B50E4DC6
:104E200084B0122604220123CDE900260446039013
:104E3000029328461423102108F07AF90622092348
:104E40000293CDE90026039414231021284608F08C
:104E50006FF904B070BD00BFB89BFF1F70B5A74DC0
:104E6000B5F90030032B0BD07BB3022B4DD0052BB3
:104E700078D0012B00F0A380042B00F0CB8070BD14
:104E800010200AF0EFFEC830B0F57A6FA8BF4FF4DB
:104E90007A60B0F5FA7FB8BF4FF4FA7000F5167378
:104EA000B3F57A6F964A974C81B2A8BF4FF47A63F4
:104EB00022201180238004F097F82188242004F018
:104EC00093F8B5F90030002BCFD10E2009F07CF813
:104ED00040F6FF73C8309842A8BF184620EAE07039
:104EE00081B200F2DC509842874CA8BF1846874B2D
:104EF00020800220198004F077F82188042004F033
:104F000073F8B5F90030022BB1D117200AF0AAFED0
:104F1000044616200AF0A6FE8442B8BF044604F1F7
:104F2000C800B0F57A6FA8BF4FF47A60B0F5FA7F89
:104F3000B8BF4FF4FA7000F54873B3F57A6F744A4E
:104F4000744CA8BF4FF47A6381B20A201180238089
:104F500004F04AF821880C2004F046F8B5F9003036
:104F6000052B86D10F200AF07DFEC0F53F6104318C
:104F7000B1F5FA6FA8BF4FF4FA61C0F54363B1F51C
:104F8000AF6FB8BF4FF4AF61B3F5FA6FA8BF4FF47E
:104F9000FA63B3F5AF6F604A604CB8BF4FF4AF63CC
:104FA00089B2A4201180238004F01EF82188A62055
:104FB00004F01AF8B5F90030012B7FF45DAF0B2037
:104FC00009F068FD002840F08680152008F0FCFFFD
:104FD00041F25C2300F548709842A8BF1846B0F52E
:104FE0002F7FB8BF4FF42F7081B200F596609842C2
:104FF0004B4CA8BF18464B4B20800620198003F06D
:10500000F3FF2188082003F0EFFFB5F90030042BEF
:105010007FF435AF444E00244FF4AF75E1B2304613
:1050200006F048F901348542A8BF05460C2CF5D19D
:1050300001200AF017FE3D493D4AA0F1320301FB71
:1050400003F36FF46770034482FB03121A44DC1706
:10505000C4EBA224002BACBF04F25F1404F5AF74C0
:10506000AC424FF00000A8BF2C460AF0FBFD2F49D0
:105070002F4AA0F1320301FB03F36FF467710B4475
:1050800082FB03121A44D917C1EBA221002BACBF3B
:1050900001F25F1101F5AF71A142A8BF2146143999
:1050A0003229B8BF322140F23A70A1F5AF7300FB4C
:1050B00003F3204A204C963B82FB0302DB17A3EB51
:1050C000621389B21D4A21803233BDE870402A2024
:1050D000136003F089BF11200AF0C4FD41F25C2384
:1050E000C8309842A8BF1846B0F52F7FB8BF4FF41C
:1050F0002F7081B200F5167079E700BF649BFF1F27
:10510000E499FF1FE299FF1F8C99FF1F8E99FF1FE3
:10511000CC9AFF1FCA9AFF1F709AFF1F669AFF1F43
:10512000DC9AFF1FDE9AFF1F2C9BFF1FD4FEFFFFA0
:10513000C70FB38DB5814E1BA699FF1FB88DFF1FFA
:105140002DE9F041214D82B0012602B284B2CDE9B1
:10515000002628467823192107F052FE04F10C029C
:1051600012B2CDE90026284604EB0608782319215F
:10517000A71C07F045FE0FFA88F83FB219230097E5
:10518000194642462846019607F03AFE78234246E1
:10519000009719462846019604F10A070B3407F0D8
:1051A0002FFE3FB224B2782319463A462846CDE96D
:1051B000004607F025FE1923CDE900463A46194678
:1051C000284607F01DFE02B0BDE8F081B89BFF1F26
:1051D000F0B5164E164FB6F90030834283B00D4637
:1051E00003D1B7F900308B421DD00023009304B2E5
:1051F0005B23104826221C2107F000F801230D48EC
:105200002622214606F094FE6B1C04D10120348036
:105210003D8003B0F0BD2DB2064801232622294669
:1052200006F086FEF2E7002003B0F0BDC88DFF1F38
:10523000CA8DFF1FB89BFF1F2DE9F041AA4D2B78A7
:1052400082B01BB1A94B4FF6FF721A80A84BB3F97D
:1052500000303BB1013B042B1DD8DFE803F042696D
:105260009AB72100A34BA4481B685A2283F30C036E
:1052700002FB03F303F2FF73A0FB03201B1A00EBF6
:105280005300C00A4FF0FF311C30FFF7A1FF10B1EF
:105290009A4807F00BFC00232B7002B0BDE8F081A8
:1052A0000F200AF0DFFCC0F53B600830B0F5FA6F64
:1052B000A8BF4FF4FA60B0F5AF6FB8BF4FF4AF605E
:1052C0005A23A0F5AF6003FB00F08D4B00F59670FC
:1052D000A3FB003080094FF0FF311C30FFF778FF4F
:1052E000D5E7884B1B78002B00F0F980152008F0DB
:1052F0006BFE024641F25C239342A8BF1346B3F50E
:105300002F7FB8BF4FF42F735A21A3F52F7301FBE2
:1053100003F37D497D4C03F5FA63A1FB03131B0ADC
:105320004FF0FF3103F11C002260FFF751FFAEE7A1
:10533000774B784A1B681268B3F57A6FA8BF4FF4B1
:105340007A63B2F57A6FA8BF4FF47A62B3F5FA7F49
:10535000B8BF4FF4FA73B2F5FA7FB8BF4FF4FA72E0
:10536000A2F5FA71A3F5FA705A2303FB00F003FBD0
:1053700001F1694B01F2D66100F2D660A3FB012175
:10538000A3FB0030C90AC00A1C311C30FFF720FF04
:105390007DE7624B604A1B68B3F57A6FA8BF4FF494
:1053A0007A63B3F5FA7FB8BF4FF4FA735A21A3F5C5
:1053B000FA7001FB00F000F2D660A2FB0020C00AE8
:1053C0004FF0FF311C30FFF703FF60E72722002476
:1053D000CDE900244948524FDFF82481474E762317
:1053E0001C2107F00DFD16E0B0F5AF7FA8BF4FF40C
:1053F000AF70A0F1320103FB01F19631A8FB01313E
:1054000049091C3109B201231C442722304606F009
:105410008FFD0C2C09D0E1B2384605F04BFF312846
:105420004FF05A03E0D81C21EDE701200AF01AFCE6
:105430003C4B3D49A0F1320203FB02F26FF467706E
:10544000024481FB02311144D317C3EBA123002A8C
:10545000B4BF03F5AF7303F25F13B3F5AF7FA8BF1B
:105460004FF4AF73322BB8BF3223A3F132045A2367
:1054700003FB04F4224B96340020A3FB04340AF00F
:10548000F1FB284B2849A0F1320203FB02F26FF432
:1054900067731A4481FB02311144D317C3EBA12374
:1054A000002AB4BF03F5AF7303F25F13B3F5AF7F08
:1054B000A8BF4FF4AF73322BB8BF3223A3F1320130
:1054C0005A220F4B02FB01F19631A3FB0131640913
:1054D0001C3449091C312046FFF77AFED8E611201A
:1054E0000AF0C0FB024605E76E9BFF1FC88DFF1F39
:1054F000649BFF1FE49AFF1F01011000B89BFF1F70
:10550000B5814E1B4C99FF1FD34D62105099FF1F60
:10551000C09AFF1FBC9AFF1F1BECCB95D499FF1FAD
:105520002C9BFF1FD4FEFFFFC70FB38D2DE9F04367
:10553000834D044683B02846E668D4F8008007F01F
:10554000A5FA1120FFF7FCFD012719234FF02809C8
:105550001946242228460197CDF8009007F050FC08
:105560007823194624222846CDF80090019707F0A9
:1055700047FC3946284608F0F9F8724B2B61B8F120
:10558000000F07D040460CF0BBFF414602462846BC
:1055900008F0B6FB6A4808F015FC4FF4A0136A49FE
:1055A00067482B61032208F0ABFB654808F00AFC52
:1055B0004FF40C13654962482B61032208F0A0FBED
:1055C0005F4808F0FFFB002E40F09080604B012701
:1055D00038461F70FFF722FC6368628919882389A7
:1055E000D21A61D0C91A02EBD2735C205B1000FBA7
:1055F000013303FB02F1002993FBF2F3554AACBFE0
:105600001B331A3399B211801A2001221BB2CDE943
:10561000000219464A48142207F0F2FB002E4ED031
:10562000238A628AE168D21A098800F08680CB1A40
:1056300002EBD2715C20491000FB031191FBF2F3E5
:1056400001FB02F2002AACBF1B331A3399B21BB222
:10565000414A3B48118001263822CDE900261946EF
:10566000322207F0CDFB0923002200934023019250
:105670001946334807F016FC3146314808F076F8F1
:105680006368364A2A6119882D4808F093FB34492B
:105690002B48324608F034FBE3682948198803B0E8
:1056A000BDE8F04308F086BB2A4A019749231A2136
:1056B0000091234813801946142207F0A1FB4023D0
:1056C00000220921CDE900121D48194607F0EAFB26
:1056D0001B48012108F04AF86368224A2A611988A8
:1056E000174803B0BDE8F04308F064BB2F20FFF774
:1056F00027FD1D49124803224FF448132B6108F07F
:10570000FFFA0F4808F05EFB0127114B38461F7067
:10571000FFF784FB6368628919882389D21A7FF4B2
:1057200061AF0C4A019749231A2100910448138064
:105730001946142207F064FB72E74923194687E7EC
:10574000B89BFF1F19000200383501003C350100ED
:10575000B49BFF1F6A9BFF1F6C9BFF1F440002004E
:105760004435010068000200403501002DE9F04792
:10577000D0F80C8082B01E461446002A4AD0052A72
:10578000054654D00B9B864A00EBC307012C788951
:105790003989D7F804C0A0EB010382FB03E21A4465
:1057A0004FEAE373C3EBA213BCF8002000F0F280D1
:1057B000042C77D07B4F7B480022402309210091A5
:1057C0000192194607F06EFB7648012107F0CEFFE3
:1057D000B8F1000F00F0D480734B3B616B687148E7
:1057E000198808F0E7FA71496E48012208F088FA32
:1057F000EB686C48198808F0DDFA6D4B022CB3F9A0
:10580000001000F09080082C00F0C280012002B04F
:10581000BDE8F087674D684A2B681268CB1A93423F
:105820000F4600F29880204602B0BDE8F0875D4F39
:105830004FF007094FF0000A5A2323223846CDE9DA
:10584000009A1A2107F02EFB3846012107F08EFF3F
:105850005A4B3B614FF001134A467B615849384629
:1058600008F04EFA384608F0ADFA384607F01EF94F
:105870004FF4FA6009F078F9FFF7F0FA5A2323227F
:105880001A213846CDE9009A07F00CFB384607F09C
:105890000DF92846FFF74AFE4A4B01221A70FFF71E
:1058A000CBFC88E712FA83F2914203DC9042A8BF56
:1058B000104681B20A9AACF80010B6F900303948A7
:1058C00002F106090FFA82FA0FFA89F90022194645
:1058D0000192CDF80090524607F092FA7B687A89DF
:1058E00019883B89D21A58D0C91A02EBD2735B10BF
:1058F0005C2000FB013303FB02F1002993FBF2F370
:10590000ACBF1B331A339AB21BB201213280254837
:10591000019152461946CDF8009007F071FA2A4BD2
:1059200000221A7046E74A1C12B291421A803FF4D4
:105930006DAF0A9AB6F900301A480632012412B245
:10594000CDE900240A9A194612B207F059FA204606
:1059500002B0BDE8F0871C4933880A781148013A43
:1059600018BF012201920A700A9A063212B20092FE
:105970000A9A1BB212B2194607F042FA2F6045E7A5
:105980006B68124A3A611988064808F013FA34E73E
:105990000022CAE79BB2D21A86E749231A46B4E727
:1059A000C94216B2B89BFF1F4400020044350100F3
:1059B000669BFF1FB09BFF1FF04E010035002300C8
:1059C000483501006E9BFF1FB49BFF1F680002005B
:1059D0002DE9F04F594F5A4D91F801A09846B7F96B
:1059E000003083B055F823900646BAF1000F01D07D
:1059F00091F800A0DFF84CB11AB99BF80030002BE9
:105A000038D0514D002348462B808BF80030FFF7EB
:105A10008DFD4E4A4E4BB5F90040012111704FF6F5
:105A2000FF721A805CB3012C5246314647D03223B4
:105A30000124CDE900344846464BFFF797FE002687
:105A40000446B5F90030022B46DD00232B80B7F960
:105A50000030002B49DB052BC4BF00233B80B8F18D
:105A6000000F47D1002E0CBF20464FF0FF3003B08F
:105A7000BDE8F08F344DB5F90040002CD3D1364B42
:105A8000364A19681368F31A8B420AD9344B1878CE
:105A90000124001B18BF01201870FFF7BFF92F4A1F
:105AA0001660BAF1010F36D0BAF1040F25D0BAF161
:105AB000020F36D0BAF1080F37D00026C1E7142301
:105AC000002600930196274B4846FFF74FFEB5F995
:105AD0000030022B0446B8DCB9D1D9F80C30002BC9
