:1000000000800020BD01000045D70000FDD60000A3
:10001000FDD60000FDD60000FDD60000FDD6000094
:10002000FDD60000FDD60000FDD6000045D700003B
:1000300045D70000FDD60000B5010100B90101005F
:1000400045D7000045D7000045D7000045D7000040
:1000500045D7000045D7000045D7000045D7000030
:1000600045D7000045D7000045D7000045D7000020
:1000700045D7000045D7000045D7000045D7000010
:1000800045D7000045D7000045D7000045D7000000
:1000900045D7000045D7000045D7000045D70000F0
:1000A00011AD00001DAD000045D7000045D7000090
:1000B00045D7000045D7000045D7000045D70000D0
:1000C00045D7000045D7000045D7000045D70000C0
:1000D00045D7000045D7000045D7000045D70000B0
:1000E00045D7000045D7000045D7000045D70000A0
:1000F00045D7000045D7000045D70000ADE6000019
:1001000045D70000C1ED000045D7000045D70000ED
:1001100045D7000045D7000045D7000045D700006F
:1001200045D7000045D7000045D7000045D700005F
:1001300045D7000045D7000045D7000045D700004F
:1001400045D7000045D7000045D7000045D700003F
:100150008505010099050100AD050100C1050100FB
:1001600045D7000041F1000045D7000045D7000009
:1001700045D7000045D7000045D7000045D700000F
:1001800045D7000045D7000045D7000045D70000FF
:1001900045D7000045D7000045D7000045D70000EF
:1001A00045D7000045D7000045D7000045D70000DF
:1001B00045D7000045D7000045D70000564B4CF20C
:1001C000205210B51A804DF628121A8000BF00BFC9
:1001D0000DF0BCFA514B4FF010621A60504A9A6011
:1001E000504ADA60504A136813F4807304D14F49BF
:1001F0000B604FF4A85313604D4B1A78110703D5C9
:100200001A7842F008021A704A4B4B492A221A7097
:100210004A4A4B4B8B4204D252F8040F43F8040B6A
:10022000F8E7484B484900228B4202D243F8042B9E
:10023000FAE74649464A002352F8230041F82300D2
:1002400001336F2BF8D1434B434A802103F8011B44
:100250009342FBD1414B3D4A1A60414B8A221A70AE
:10026000A3F5805324225A70A0221A709A7992071B
:10027000FCD59A79D406FCD43A4A937903F00C035E
:10028000082B384BF9D103221A7140225A719A79FE
:100290009006FCD5334A9179324B4906FBD5324A58
:1002A000324911600221516020221A709A7902F0BD
:1002B0000C020C2AFAD12E4B2E4A1A602E4B2F4AD2
:1002C0001A6000225A60072243F8042C2C4AC3F813
:1002D0000C2D62B60DF0C4FD144B1B68DA0705D572
:1002E00028480DF091FB284B284A1A60284B1B78B0
:1002F0005B0609D5244C254B22689A4204D121483B
:100300000DF082FB0023236011F0DEFC0DF024FAD7
:1003100010F0D2F9FEE700BF0E2005403080044007
:10032000823F04000100002B10D0034014D0034092
:1003300002D0074000E00740E4A0FF1F005B01007F
:10034000308CFF1FE4A0FF1FF4A8FF1F0082FF1FD7
:100350000000000000E400E05FE400E008ED00E0E1
:100360000050064000400640448004400000030165
:1003700004800440C010050014E000E0FF76010096
:100380000000202020B7E7641CE00340A5C3945A76
:1003900000F00740FFFFFFFFFFFFFFFFFFFFFFFF32
:1003A000FFFFFFFFFFFFFFFFFFFFFFFFFFFFFFFF5D
:1003B000FFFFFFFFFFFFFFFFFFFFFFFFFFFFFFFF4D
:1003C000FFFFFFFFFFFFFFFFFFFFFFFFFFFFFFFF3D
:1003D000FFFFFFFFFFFFFFFFFFFFFFFFFFFFFFFF2D
:1003E000FFFFFFFFFFFFFFFFFFFFFFFFFFFFFFFF1D
:1003F000FFFFFFFFFFFFFFFFFFFFFFFFFFFFFFFF0D
:10040000FFFFFFFFFFFFFFFFFFFFFFFFDEF9FFFF23
:1004100010B5054C237833B9044B13B10448AFF33E
:1004200000800123237010BDE4A0FF1F0000000026
:10043000FC5A0100084B10B51BB108490848AFF33E
:1004400000800848036803B910BD074B002BFBD0A0
:10045000BDE81040184700BF00000000E8A0FF1FE3
:10046000FC5A0100E4A0FF1F0000000038B504465C
:10047000104621700A491D4611F00EFA01464FF050
:100480007E5011F0BDFA074911F006FAE560606090
:10049000256165610DF074FCE061204638BD00BF48
:1004A000DB0FC9400024744938B50446104621705A
:1004B00009491D4611F0F0F901464FF07E5011F048
:1004C0009FFA064911F0E8F9E56060602561656111
:1004D0000DF056FCE06138BDDB0FC94000247449C3
:1004E00038B503780446032B20D8DFE803F01A1848
:1004F0001002C168406911F0C5F80D4905466068F1
:1005000011F07EFA0146284611F07AFA38BD084902
:10051000406811F075FAE16811F0BEF938BDC068A5
:1005200038BDC168406911F0ADF838BD002038BD54
:100530000024744970B504460E460DF021FC0546B2
:10054000E069281A11F054F9E3682361E5616661F6
:10055000A0610146606811F053FA0146A06010489E
:1005600011F04EFA10F024FD10F0BEF911F036F83B
:10057000054601464FF07E5011F084F8616911F094
:100580008BF921690646284611F086F90146304666
:1005900011F07AF8E0602046BDE87040FFF7A0BF98
:1005A000000080BF10B50E200CF084FF1E4B1B888E
:1005B000012B32D01D4B1C88A0421BDB40F6FF7282
:1005C000C4F57F61904201F10F01A8BF1046B9B197
:1005D000001B01EBD173C0EB003000EB630303FBA6
:1005E00001F2002A93FBF1F111DB2820BDE8104055
:1005F0000DF01CBAC4F57F610F3120460029E7D108
:1006000040F2FF712820BDE810400DF00FBA01390B
:100610002820BDE810400DF009BA0146BDE81040A1
:1006200014200DF003BA00BF74A3FF1F3CA2FF1FEC
:1006300070B50C46054634F8023B182B0BD003442A
:10064000A3F118007F283EDC002858DB334BC0B2F2
:10065000197808F0E3FB324E3278013202F00302DF
:10066000D3B2337034F81200182810D10422032BAF
:1006700003F10101CBB20ABF002359001946605AA9
:10068000182803D1013AF2D1337070BD3370284479
:10069000A0F118037F2B08DC002B22DB1F4AD8B205
:1006A0001178BDE8704008F0B9BB1E4B973883FB4A
:1006B0000032C317C3EB620303EB4303A0EB8300D9
:1006C00000F17303EAE7174A973B82FB0321DA172D
:1006D000C2EB610202EB4202A3EB820303F173005F
:1006E000B4E710485A4280FB0230D317C3EB6000D6
:1006F00000EB4000A2EB8000C0F10C03CEE7094BF9
:10070000424283FB0230D317C3EB600303EB430386
:10071000A2EB8303C3F10C0098E700BF08A2FF1F00
:10072000988DFF1FABAAAA2AF8B5814B814D1B8873
:10073000C31A044685FB0306D817C0EB660000EB1E
:100740004000A3EB800303EB43039B00CE18C85883
:100750002044002A3DD07F2840F38180A0F17F0310
:1007600085FB0320DA17C2EB600000EB4000A3EB2F
:1007700080007330704F714D3978C0B208F04EFB75
:100780002B88022B7AD9706820447F2877DC0028D8
:10079000C0F2BF80C0B2397808F040FB2B88032B31
:1007A0006CD9B06820447F2840F38580614CA0F16B
:1007B0007F0384FB0320DA17C2EB600000EB4000EC
:1007C000A3EB800073303978C0B2BDE8F84008F080
:1007D00025BB7F2834DDA0F17F0385FB0320DA17DA
:1007E000C2EB600000EB4000A3EB80007330534D80
:1007F000C0B208F037FB2B88022B3FD97068204429
:100800007F284ADC002876DBC0B208F02BFB2B885F
:10081000032B33D9B06820447F285CDD454CA0F120
:100820007F0384FB0320DA17C2EB600000EB40007B
:10083000A3EB80007330C0B2BDE8F84008F012BBF3
:100840000028D4DA4342D81785FB0325C0EB6505A1
:1008500005EB4505A3EB8505C5F10C00C7E70028AE
:1008600088DA434285FB0320DA17C2EB600000EB15
:100870004000A3EB8000C0F10C007BE7F8BD2D4ADF
:10088000A0F17F0382FB0320DA17C2EB600000EBCC
:100890004000A3EB800073307CE7264AA0F17F0381
:1008A00082FB0320DA17C2EB600000EB4000A3EBF1
:1008B00080007330A8E7002885DA1E4A434282FB95
:1008C0000320DA17C2EB600000EB4000A3EB8000CE
:1008D000C0F10C0077E70028ADDA164A434282FBEC
:1008E0000320DA17C2EB600000EB4000A3EB8000AE
:1008F000C0F10C009FE70F4A434282FB0320DA1746
:10090000C2EB600000EB4000A3EB8000C0F10C00E4
:100910007AE7084A434282FB0320DA17C2EB600001
:1009200000EB4000A3EB8000C0F10C0032E700BFF9
:1009300060A3FF1FABAAAA2A08A2FF1F6AA1FF1F7C
:100940002DE9F8439F4B1B88013B092B00F2EF80F8
:10095000DFE803F00A10161C22282EBCC1059A49B4
:10096000BDE8F843FFF764BE01229849BDE8F843AB
:10097000FFF7DABE01229649BDE8F843FFF7D4BE7F
:1009800001229449BDE8F843FFF7CEBE0122924907
:10099000BDE8F843FFF7C8BE01229049BDE8F8431F
:1009A000FFF7C2BE01228E49BDE8F843FFF7BCBE87
:1009B0008C4B8D4A1B88044610881D18002800F0B7
:1009C0008F808A4A12880332934200F38980022D75
:1009D00040F3AD80DFF82C928549B9F80020DFF8AC
:1009E0002882844FA21A81FB0230D317C3EB600028
:1009F000B8F8003000EB4000A2EB800203EBC30329
:100A000002EB42021B0103EB82033B445868204483
:100A10007F2840F3AA80A0F17F0381FB0320DA172F
:100A2000C2EB600000EB4000A3EB80007330724E1D
:100A3000C0B2317808F0F2F9032D78D0B9F800206F
:100A40006B48B8F80030A21A80FB021ED117C1EB28
:100A50006E0101EB410103EBC303A2EB81011A011B
:100A600001EB410302EB83033B449B6823447F2B50
:100A70006CDDA3F17F0280FB0230D317C3EB600370
:100A800003EB4303A2EB83037333D8B2317808F04E
:100A9000C5F9042D4BD0554B1B88012B47D1A4F130
:100AA0000C007F2871DD524BA4F18B0083FB0032D8
:100AB000C317C3EB620303EB4303A0EB8300733064
:100AC0003178C0B2BDE8F84308F0A8B94B49BDE899
:100AD000F843FFF7ADBD4A49BDE8F843FFF7A8BDAD
:100AE000484B43491B88484FE31A81FB0326DA171A
:100AF000C2EB66063A883F4F06EB4606A3EB860339
:100B000002EBC20203EB4303120102EB8303A0EBEF
:100B10008000FB58234403EB80007F2809DC002879
:100B200043DB354BC0B2197808F078F94FE7BDE8E0
:100B3000F883A0F17F0381FB0320DA17C2EB60008A
:100B400000EB4000A3EB80007330EAE7002B9CDA57
:100B50005A4280FB0230D317C3EB600000EB400029
:100B6000A2EB8000C0F10C038FE70028BFF65FAF57
:100B70004342D81781FB0321C0EB610101EB410126
:100B8000A3EB8101C1F10C0051E7002898DA184A63
:100B9000434282FB0320DA17C2EB600000EB400007
:100BA000A3EB8000C0F10C008AE74342D81781FB19
:100BB0000321C0EB610101EB4101A3EB8101C1F114
:100BC0000C00AEE73EA3FF1F4CA1FF1F84320100C3
:100BD000A83501003836010018350100BC38010085
:100BE000643701006AA1FF1F10A2FF1F92A1FF1F1F
:100BF000ABAAAA2A802F010008A2FF1F34A1FF1F61
:100C000040A1FF1F60A3FF1F2AA3FF1F0A88182A05
:100C100038B50C46054609D00244A2F118007F28D9
:100C200029DC002848DBC0B208F01CF9294B1978F0
:100C300004EB41046388182B2BD02B44A3F118003C
:100C40007F2806DC002825DBC0B2BDE8384008F06C
:100C500009B92148973B80FB0320DA17C2EB6000FB
:100C600000EB4000A3EB800303F17300C0B2BDE8CA
:100C7000384008F0F7B81848973A80FB0230D3178D
:100C8000C3EB600000EB4000A2EB800202F17300B6
:100C9000C9E738BD104B424283FB0230D317C3EB88
:100CA000600303EB4303A2EB8303C3F10C00C0B268
:100CB000BDE8384008F0D6B8074A414282FB01320D
:100CC000CB17C3EB620202EB4202A1EB8202C2F13C
:100CD0000C00A8E7988DFF1FABAAAA2A2DE9F843BC
:100CE000A54B1B88013B092B00F20381DFE813F0C1
:100CF0000F0015001B00210027002D003300F70016
:100D0000FC000A009D49BDE8F843FFF77FBF0022C1
:100D10009B49BDE8F843FFF707BD00229949BDE8AC
:100D2000F843FFF701BD00229749BDE8F843FFF7FC
:100D3000FBBC00229549BDE8F843FFF7F5BC002253
:100D40009349BDE8F843FFF7EFBC00229149BDE8A5
:100D5000F843FFF7E9BC904E04463088002800F0C5
:100D6000CA808E4B8E4D1A882B880332934234DD15
:100D70008C4B8D491B88DFF840E2E31A81FB032787
:100D8000DA17C2EB6707BEF80020DFF820E207EBB6
:100D90004707A3EB870302EBC20203EB43031201F5
:100DA00002EB8303A0EB80005EF80330234403EBE7
:100DB00080007F2840F3A180A0F17F0381FB032006
:100DC000DA17C2EB600000EB4000A3EB8000733049
:100DD000C0B208F047F82B8830881844022840F346
:100DE0008880DFF8C0917049B9F80020DFF8C88129
:100DF0006E4FA21A81FB0230D317C3EB6000B8F824
:100E0000003000EB4000A2EB800203EBC30302EBD7
:100E100042021B0103EB82033B44586820447F28B5
:100E200040F38A80A0F17F0381FB0320DA17C2EB35
:100E3000600000EB4000A3EB80007330C0B208F00C
:100E400011F82A8833881344032B52DDB9F80020A7
:100E50005548B8F80030A21A80FB021ED117C1EB2A
:100E60006E0101EB410103EBC303A2EB810101EB36
:100E700041011A0102EB81033B449B6823447F2B11
:100E80004BDDA3F17F0280FB0230D317C3EB60037D
:100E900003EB4303A2EB83037333D8B207F0E2FF03
:100EA0002A8833881344042B23DD3C4B1B88012BF9
:100EB0001FD1A4F10C007F284EDD3B4BA4F18B0029
:100EC00083FB0032C317C3EB620303EB4303A0EBC6
:100ED00083007330C0B2BDE8F84307F0C3BF3449A4
:100EE000BDE8F843FFF792BE3249BDE8F843FFF78B
:100EF0008DBEBDE8F8832A4D3AE70028BFF668AFFB
:100F00004342D81781FB0321C0EB610101EB410192
:100F1000A3EB8101C1F10C005AE7002BBDDA5A4264
:100F200080FB0230D317C3EB600000EB4000A2EB64
:100F30008000C0F10C03B0E70028BFF67FAF43424A
:100F4000D81781FB0321C0EB610101EB4101A3EB49
:100F50008101C1F10C0071E70028BBDA124A43425B
:100F600082FB0320DA17C2EB600000EB4000A3EB2A
:100F70008000C0F10C00ADE73EA3FF1F4CA1FF1F96
:100F800084320100A835010038360100183501000F
:100F9000BC3801006437010010A2FF1F92A1FF1F9F
:100FA0006AA1FF1F60A3FF1FABAAAA2A802F01001E
:100FB00034A1FF1F40A1FF1F2AA3FF1F10B5044645
:100FC0000FF0BEFA204610BD70B44C88A04220D964
:100FD00001230133DBB21CB2660031F814408442B5
:100FE0001D46F6D3A04211D005F10045013D965BA8
:100FF00031F8151032F81530401AF21A00FB02F0E1
:10100000641A90FBF4F4E01870BC7047905B70BCFD
:10101000704702260125E5E738B5274B1B78002BE2
:1010200037D015200CF046FA244B1860244B1B884F
:10103000984204DA234C2378002B32D138BD224A5F
:101040001288D11A2BD08242D4BFC3EB0203C3EB68
:10105000000301EBD174C3EBC31303EB640303FB85
:1010600001F2002A93FBF1F4B8BF04F1FF34002C25
:10107000E0D0144B1A780AB901221A70134D2B686C
:101080009C4204D0124BE1B2187807F097FE2C6016
:1010900038BD11200DF054FF084B1860C6E73F24FF
:1010A000E7E70B4B0021187807F088FE0023074A7A
:1010B0002370136038BD00BF40A3FF1F14A1FF1FA2
:1010C000E4A1FF1F00A4FF1F9CA3FF1FF8A3FF1FA5
:1010D0009CA1FF1F08B51B4B1B785BB315200CF0C0
:1010E000E9F9194B1860194A1278FAB118491A68C7
:1010F0000B8893421ADC17490988C81A20D08A4203
:10110000D4BFC3EB0203C3EB0103A3EB830300EBE8
:10111000D072A3EB620303FB00F2002A93FBF0F30F
:10112000B4BF043305330C4A136008BD0A4B0022D8
:101130001A6008BD11200DF003FF034B1860D2E7C1
:101140000323F0E740A3FF1F14A1FF1F68A1FF1FA7
:10115000E4A1FF1F9CA3FF1F1CA2FF1F38B50F2097
:101160000DF0EEFE204B214A1B881060C0F53B605D
:101170000830984228DB1E4A1288D11A28D09042A3
:10118000D4BFC3EB0003C3EB020301EBD174C3EB89
:10119000C31303EB640303FB01F2002A93FBF1F496
:1011A000B8BF04F1FF347CB1124B1A780AB901229E
:1011B0001A70114D2B68A34204D0104BE1B218787D
:1011C00007F0FCFD2C6038BD0A4C237813B938BDFC
:1011D0003F24E9E7094B0021187807F0EFFD0023D1
:1011E000054A2370136038BD40A2FF1F2CA1FF1FCA
:1011F00088A3FF1FACA3FF1FF0A1FF1FDAA1FF1FF1
:10120000521A0FD0411A002B03FB01F102EBD270EE
:101210000CDB01EB600101FB02F3002B91FBF2F010
:101220000EDB704703EBD37358107047A1EB6001DE
:1012300001FB02F3002B91FBF2F003DB013070475E
:1012400001387047704700BF521A10D010B402EB3B
:10125000D274411A641003FB014303FB02F100291D
:1012600093FBF2F010BCB8BF00F1FF30704758108C
:10127000704700BF70B50E4615460446184610F07C
:10128000D1FCAA1B0FD0A41B002800FB04F402EB26
:10129000D2700CDB04EB600404FB02F3002B94FB24
:1012A000F2F00EDB70BD00EBD070401070BDA4EB0F
:1012B000600404FB02F3002B94FBF2F003DB01302B
:1012C00070BD013870BD70BDF0B40E8886420DD27D
:1012D00003F10043013B31F81350854202D9F0BCC1
:1012E000FFF772BE32F81300F0BC70471088F0BCF4
:1012F000704700BF094B1B880C2B09D8084A80B2E5
:1013000052F8232028B143F6FE73984203D9108C7B
:101310007047108870470349FFF756BE66A1FF1F4C
:10132000C0310100CC330100494A4A4B2DE9F04756
:101330001B681488484AA3422546178866DBBB42CF
:10134000A8BF3B46454A9C4298461360C8BF234607
:101350005FDD381B57D01B1B00EBD072C3EB833310
:1013600003EB620303FB00F2002A93FBF0F06DDB5A
:10137000FFF7C0FF3A4A3B4B16881B88C0F3C619DB
:1013800009FB06F67F2E8246A8BF7F26002B37D0AA
:10139000444543DD3A4621462846FFF755FF324B88
:1013A0001860324C2368994509D0314B1B88002BBB
:1013B00046D1304B1B88002B3ED1C4F800902E4CF8
:1013C00023689A4506D02A4B1B885A1F032A2AD91C
:1013D000C4F800A0294C23689E420FD0284B1888DF
:1013E00048B1234B274A1B88D35C834203D0C0B249
:1013F000F1B207F0E3FC2660BDE8F087BDE8F087B6
:10140000194A1360CDE741F6FF70B1E7134BA046D0
:101410001C6047453B46A8BF43469AE7B84545464A
:10142000A8BF3D46B6E7174AD05C2030C0B20AF0EC
:101430007F0107F0C3FCCBE7484607F05FFDBCE740
:10144000104A4946D05C07F0B9FCB2E701388FE793
:101450003CA2FF1F70A3FF1F1CA1FF1F08A1FF1FBD
:101460001EA1FF1F20A1FF1FD8A3FF1FD4A1FF1F94
:1014700056A3FF1F32A2FF1F60A1FF1F34A2FF1F50
:1014800066A3FF1FA88DFF1F2DE9F04F17208DB019
:101490000DF056FDDFF880B3DFF880A3CBF8000035
:1014A00016200DF04DFDBC4BCAF800001B880C2B1C
:1014B00000F0E081B94A00211F2B117039D0DFF80C
:1014C0006093B74BB9F80020B64F53F82260002361
:1014D0003B70B54BB54A1B88B5491288013B012AC0
:1014E00031F91330089300F0E181B24B0393B24B12
:1014F0000293B24B0593B24C00230193B14B1B886E
:10150000012B00F01D82B04BDFF818830493AF4B22
:101510000693D8F8005000230793AD4B1B88013B7E
:10152000032B00F24A82DFE813F0F200D000130030
:101530001401A84BDFF8E8921B78B9F80010984A1C
:10154000984F52F82160003318BF01233B70C0E769
:10155000284610F04DF9A04910F09EF9054607986D
:1015600010F046F99D4910F097F90146284610F011
:101570008BF810F057FB0546C8F80050206810F0B3
:1015800037F9954910F088F98046019810F030F944
:10159000924910F081F90146404610F075F810F0BC
:1015A00041FB20608E4B8F4A1B8812888E49DBF8E6
:1015B00000800C888D49C3EB050E1D44049BC3F8C5
:1015C00000E0831A1044069A1560039A0D88136090
:1015D000059BA0451860C0F2498145452846A8BF33
:1015E000404633462A462146FFF70AFEDAF800A0B5
:1015F0005445834600F33C8155452846A8BF5046D4
:101600002A4633462146FFF7FBFDA04500F3108133
:101610005445C0F20D81DFF81092D9F8000010F0A7
:10162000E7F8734910F038F9724910F02DF810F00E
:10163000F9FAA0F5FF531C3B082B98BF4FF400505C
:10164000029BDFF8E8811C6843F6FF750444AC4256
:10165000A8BF2C4624EAE474C9F80040204610F0E4
:10166000C7F88146387806FB00F010F0C1F84FF05B
:101670007A5110F011F90146484610F003F810F0C5
:10168000D1FA5D4BA842A8BF28461B7820EAE0703B
:10169000C8F80000002B00F0DD80B4F5005F00F01A
:1016A000D98004F0BBFA554BD8F8000001221A701B
:1016B000534C2368834205D080B207F04FFBD8F823
:1016C000003023600DB0BDE8F08F284610F090F890
:1016D0004C4910F0E1F80546079810F089F84A499E
:1016E00010F0DAF8014628460FF0CEFF10F09AFA13
:1016F0000546C8F80050206810F07AF8414910F00B
:10170000CBF88046019810F073F83F4941E728462E
:1017100010F06EF83D4910F0BFF80546079810F03C
:1017200067F83B4910F0B8F8014628460FF0ACFFC7
:1017300010F078FA0546C8F80050206810F058F804
:10174000324910F0A9F88046019810F051F830495C
:101750001FE7284610F04CF8254910F09DF8054683
:10176000079810F045F82B4910F096F801462846E6
:101770000FF08AFF10F056FA0546C8F800502068AE
:1017800010F036F81A4910F087F88046019810F0EA
:101790002FF82049FDE600BF9EA3FF1F0EA1FF1FEB
:1017A000648DFF1F82A3FF1F268DFF1F76A3FF1FDF
:1017B00024370100FCA3FF1FA8A3FF1F00A2FF1FE7
:1017C00000A1FF1F1AA3FF1F90A3FF1F20A3FF1F4D
:1017D000388DFF1F54A3FF1FCDCC4C3FCDCC4C3ECA
:1017E000B48DFF1F308DFF1F6CA3FF1F8CA1FF1F47
:1017F0009A99193FCDCC4C45BEA4FF1F30A2FF1FC4
:10180000288DFF1F6666663FCDCCCC3D3333733FDA
:10181000CDCC4C3DCDCCCC3EC4A1FF1F5CA1FF1F65
:10182000C8A1FF1F8CA3FF1F9C8DFF1F348DFF1FBE
:10183000B9F80030002B3FF4EEAEC0EB0B03002BE9
:10184000B8BF5B42092B00F3BA804FF40050DFF8B9
:10185000F892F5E6A84C2378002B3FF429AF04F06A
:10186000D9F90023D8F80000237021E72046B8E614
:101870002046C5E6A14B1B78002B00F0C180DFF8A5
:10188000CC929F4BB9F800109E4A9F4F53F821000D
:101890000023012111703B700FF0AAFF4FF07C5123
:1018A0000FF0FAFF10F0BEF9064612E6974B984A81
:1018B0001B8898491278013B31F91380002A40F0C7
:1018C0009A8011200DF03CFB0190934B03931D680F
:1018D000019B9D4240F39780904B914C1B8822685E
:1018E00090490491012B904B1B8805938F4B0293D9
:1018F000C8EB0208304600F02D810FF079FF059B00
:10190000049951F823108A4B05930FF0C5FF014647
:1019100000200FF0B7FE0346019840454246294695
:10192000B8BF4046FFF7A6FC02990B681844814BEC
:101930001B8800EBD0704010012B08607FF4E3ADF2
:101940007D4B04931D460F200DF0FAFA2B6807908B
:101950009842099380F28780704BDFF8F4811B88EE
:10196000012B714B00F0B3801A886E4B0A923046FF
:1019700006930FF03DFF069B0A9AD8F8005053F8E3
:1019800022106E4B06930FF087FF089B0146EA1A60
:10199000002008920FF076FE089A099903460798EE
:1019A0009042B8BF1046FFF765FC029A13681844CE
:1019B00000EBD07040101060AFE52068F2E50BF549
:1019C000005B0BF1010BC0EB0B000FF011FF5C494A
:1019D000DFF874910FF060FF0446D9F800000FF0B3
:1019E00007FF58490FF058FF014620460FF04CFE04
:1019F00010F018F924E615200BF05CFD019064E767
:101A0000404A13705BE54A4B05931D68019B9D425C
:101A10001FDA424B424C1B88226842490491012B39
:101A2000414B1B880693414B02939044304600F093
:101A3000A6800FF0DDFE0499069B51F823100FF0ED
:101A40002BFF03460198404542462946A8BF404621
:101A500068E7364B029319461B68314C03EBD3738E
:101A60005B100B604AE5354B0693079A1B68099398
:101A70009A4221DD294BDFF8D8801B88012B2A4BA5
:101A800000F08A801988274B0B9130460A93D8F8CA
:101A900000500FF0ADFE089B0B992B4408930A9B56
:101AA00053F821100FF0F8FE089A09990346079899
:101AB0009042A8BF104676E7029ADFF89480136838
:101AC000D8F8005003EBD3735B10136025E5198839
:101AD000144B0A9130460693D8F800500FF088FE58
:101AE000089B0A99EA1A069B089253F82110134B97
:101AF00006930FF0D1FE4FE730A2FF1F54A3FF1F44
:101B0000648DFF1F0EA1FF1F82A3FF1FB88DFF1F53
:101B100040A3FF1F14330100FCA3FF1F06A2FF1FF9
:101B200000A1FF1F3C37010090A1FF1FA8A3FF1FCA
:101B300000A2FF1F1AA3FF1F90A3FF1F20A3FF1FD8
:101B4000CDCCCC3E9A99193F9C8DFF1FC8A1FF1F99
:101B50008CA3FF1F0FF04CFE059B0499224A51F8FD
:101B6000231005920FF098FE034601984045294640
:101B70004246B8BF4046FFF77DFB1C49D5E60FF053
:101B800037FE069B049951F823100FF085FE01469D
:101B900000200FF077FD54E71A88154B0B92304662
:101BA0000A930FF025FE0B9A0A9BD8F8005053F8C1
:101BB00022100FF071FE089B01462B440020089371
:101BC0000FF060FD089A0999034607989042A8BF54
:101BD0001046FFF74FFB029A1368184400EBD070D1
:101BE0004310136099E400BF00A2FF1FA8A3FF1FCA
:101BF0003C37010008B5244B1B88FBB1234B1B78F5
:101C0000FBB1234B1B78E3B1224B1B78CBB1224BAA
:101C10001B78B3B1214B22481A78C2B9214A224914
:101C20000088128809680244B1EB620F09DD0122C5
:101C30001A706420BDE8084004F004B8174A11780F
:101C400001B908BD1370BDE8084007F02BB9154A6B
:101C500016490088128809680244B1EB620FF0DD72
:101C600000221A7007F01EF9642003F0EBFF6420D5
:101C700003F0E8FF642003F0E5FF4FF41670BDE8C1
:101C800008400CF09FB800BF32A3FF1F04A4FF1F41
:101C9000CAA3FF1FCBA3FF1FCCA3FF1F64A1FF1F7D
:101CA0008CA1FF1F6CA3FF1FC4A1FF1F5CA1FF1F1E
:101CB00038B5114C232025780BF0FCFB0F4A42F875
:101CC0002500131F02F1C400002253F8041F8342B1
:101CD0000A44FAD123780A4907480A4C0133DBB297
:101CE000322B81FB025108BF0023D217C2EB211215
:101CF0000370226038BD00BF22A1FF1F4CA2FF1F4E
:101D00001F85EB5168A3FF1F2DE9F04FB64CB74D6F
:101D10002068B74F83B00FF06BFDB6490FF0BCFDE4
:101D2000064610200DF00CF90FF062FDB2490FF0DD
:101D3000B3FD31460FF0A8FC0FF074FF2A88206035
:101D40009042964639884ADA1346B1EB020C44D0E9
:101D50009B1AC3EBC3160CEBDC7306EB630303FBAC
:101D60000CF6002E93FBFCF3C0F27681A34EDFF855
:101D7000B482B6F800C0C8F80030BCF1190F00F00A
:101D8000E080BCF11A0F00F02281BCF11E0F00F0C0
:101D90004F810126B0469A4B1B88002B00F09E8095
:101DA0009446984A1288032A00F20881704580F20E
:101DB00055810A4670466146FFF746FA924B186015
:101DC000924B188880B9924A12886AB9914B197857
:101DD00001B11A7003B0BDE8F08F3F23C6E7884217
:101DE0000346A8BF0B46B0E72A882168DFF8FC91BC
:101DF000DFF8F4A18A4279DCDFF818E29EF800C02F
:101E0000BCF1000F34D14FF0010C04288EF800C053
:101E10002ED1002E40F0C3817D4B18880028D9D0E8
:101E2000B8F1000FD6D023682A883C88934280F20C
:101E300097811346A41A00F091819A1A04EBD47387
:101E4000C2EB82125B1003EB420303FB04F2002A95
:101E500093FBF4F400DB01346F4D2B68A34203D0F5
:101E6000C0B2E1B206F0AAFF2C6003B0BDE8F08F6B
:101E7000012800F01B81022800F00D810328CBD13E
:101E8000664B1B88092BC7D0002EC5D023682A8833
:101E90003E88934280F2A7811346B61A00F0A181D2
:101EA0009A1A06EBD673C2EB82125B1003EB420365
:101EB00003FB06F2002A93FBF6F600DB0136DFF89F
:101EC00060A1DAF80030B34203D0F1B24A2006F044
:101ED00075FFCAF800609FE798460126BCF11E0F07
:101EE0007FF46EAF0023DFF84091ACE0494B1A78E5
:101EF000002A3FF46FAF002401281C7000F0BE8060
:101F0000022840F03181002E00F0BE80444D2B6845
:101F1000002B00F0B9800420214606F04FFF3C4B17
:101F20002C60188800283FF455AFB8F1000F3FF43B
:101F300051AFC0B2002106F041FF374B00221A60BA
:101F400048E7DFF8E49099F80030CBB1DFF8C080C3
:101F5000B8F800A0BAF1000F12D0DFF8D08098F8DE
:101F600000B09B4500F093805FFA8AF07F2106F075
:101F700025FF99F80030B6F800C088F8003011E06D
:101F8000DFF8A88098F800A09A4500F08080204BE8
:101F90000021187806F012FF99F80030B6F800C05A
:101FA00088F80030164B1B88002B95D0BCF11E0F13
:101FB00040F0288101264FF0000844E0704552DAD5
:101FC00062467046FFF740F90F4B1860F8E6DFF8FD
:101FD000589099F80030002B0BBF012600264FF0D7
:101FE00000084FF00108D6E698A1FF1F38A3FF1F95
:101FF00034A3FF1F9A99193FCDCCCC3E9EA3FF1F5F
:10200000DCA3FF1F94A3FF1F44A2FF1FC2A1FF1F59
:10201000B0A3FF1FA7A3FF1F80A1FF1F56A3FF1F91
:1020200048A2FF1F84A3FF1F54A3FF1F26A1FF1F69
:10203000DFF8F891784B99F800601B88B6FA86F6BD
:1020400076094FF0000899F8002062B3B5F800C097
:1020500020683988E646A4E6013B87E68842A8BFA7
:1020600008468646A5E68842A8BF084686466246D8
:102070007046FFF7E9F8694B1860A1E626B1684D94
:102080002B68002B40F08480664B18884AE70126B5
:102090004FF000087FE6002E3FF4BEAEDFF880A1CF
:1020A000DAF8002033E05D4B1A6089E6002E3FF439
:1020B000B3AEB7F800904945A8BF49460846B9EB0A
:1020C000020900F0848009EBD971821A4910C2EB31
:1020D000821201EB420202FB09F1002992FBF9F99D
:1020E00001DB09F10109DFF838A1DAF800204A45DF
:1020F00006D05FFA89F10120019306F05FFE019B93
:102100001888CAF8009002287FF4B8AE4A462168C1
:102110002888B7F800E081425FDA0146BEEB000E86
:1021200058D0091A0EEBDE704010C1EB811100EBA4
:10213000410101FB0EF0002891FBFEF901DB09F1E2
:102140000109914506D05FFA89F10420019306F058
:1021500035FE019B1888CAF800908FE640247BE684
:10216000A342A8BF234665E6032825D12E4B1B8832
:10217000092B89D0002E87D0294D2B68002B83D0C6
:102180004A20214606F01AFE264B2C601888C9E624
:10219000214606F013FE234B2C601888C2E640202F
:1021A0007F21019306F00AFE019B188801281ED0AA
:1021B00002287FF463AE71E704287FF465AF002E38
:1021C0003FF462AF2146402006F0F8FD5CE74FF097
:1021D000400988E74FF04009B3E77145A8BF714651
:1021E0009CE740266BE6B342A8BF334655E6B9F8F4
:1021F0000000DAF80010B7F8009081420246FFF6BE
:102200005EAF58E7B5F800C020683988E646012679
:102210004FF00008C5E500BFDCA3FF1F44A2FF1F6D
:1022200048A2FF1FB0A3FF1F56A3FF1F54A3FF1F09
:1022300008B5114B1B88022B09D0052B07D0032BA7
:1022400015D0042B0BD00D4B01221A7008BD7F2135
:10225000412006F0B3FD094B01221A7008BD7F2111
:10226000092006F0ABFD054B01221A7008BD402184
:10227000092006F0A3FDE6E742A2FF1FE6A1FF1F2B
:1022800038B5074B074D1B88052B044606D02B6835
:10229000834203D0C1B2052006F090FD2C6038BD0A
:1022A00042A2FF1FB4A3FF1F38B5124D124C2B885A
:1022B000052B12D022684AB9022B0ED0033B012B0A
:1022C00013D90E4A00231370236038BD0021052066
:1022D00006F074FD2B88022B04D10021412006F06A
:1022E0006DFDEEE7052BE9D1F7E70021092006F0A7
:1022F00065FDE6E742A2FF1FB4A3FF1FE6A1FF1F93
:1023000038B53A4B1B881D2B37D0394D0024394B3B
:102310001B88022B15D0384B1B88022B4AD02D88E6
:10232000364B002C1B780ADBAC42A8BF2C4634B1DC
:10233000002B30D02046BDE83840FFF7A1BF33BBAB
:1023400038BD2F4B1B78002B2ED015200BF0B2F888
:102350002C4B18602C4A1288002ADCD02B4A1868B3
:1023600011888142D7DC2A4A2B8812889042A8BF64
:102370001046FEF769FF0444CDE7234B1C888CB15F
:10238000244B1B4D1C78002CC1D02C88BFE7BDE826
:102390003840FFF789BFFFF74BFF2046BDE83840C4
:1023A000FFF76EBF124DB2E711200CF0C9FD154BBF
:1023B0001860CFE70F200CF0C3FD134B164A1B88A3
:1023C0001060002BABD0154BC0F53B60198808306E
:1023D0008842A4DB124B2D881A889042A8BF104671
:1023E0002B46FEF731FF04449AE700BF9EA3FF1F70
:1023F000A4A3FF1F76A3FF1F1AA3FF1FE6A1FF1FC1
:1024000040A3FF1F14A1FF1F42A2FF1FE4A1FF1F53
:102410009CA3FF1F54A3FF1F2CA1FF1F40A2FF1F5F
:1024200088A3FF1F38B510200CF08AFDC830B0F526
:10243000FA7FC0F21081B0F57A6F0146A8BF4FF461
:102440007A6101F51673B3F57A6FA8BF4FF47A631A
:102450009BB289B29B4A9C4C11802220238006F0BB
:1024600029FE2188994D9A4C242006F023FE0E2047
:102470000BF020F840F6FF71C8308842A8BF08462C
:1024800020EAE07000F2DC5283B28A42A8BF0A461A
:102490000220194622802B8006F00CFE21880420A1
:1024A00006F008FE17200CF04BFD044616200CF039
:1024B00047FDA042B8BF204600F1C801B1F5FA7F40
:1024C000C0F2C480B1F57A6FA8BF4FF47A6101F50C
:1024D0004873B3F57A6FA8BF4FF47A639BB289B2A1
:1024E0007C4A7D4C11800A20238006F0E3FD218880
:1024F0000C2006F0DFFD0F200CF022FDC0F53F613F
:102500000431B1F5AF6FC0F2AB80B1F5FA6FA8BF7F
:102510004FF4FA6189B2714BC0F54360B0F5AF6F0B
:102520001980C0F29080B0F5FA6FA8BF4FF4FA603E
:1025300083B26B4CA420238006F0BCFDA62021882A
:1025400006F0B8FD0B200BF007FC002800F08F8090
:1025500011200CF0F5FC00F1C801B1F52F7F80F2DD
:10256000958040F214534FF42F715E4A11805E4CF7
:102570000620238006F09EFD2188082006F09AFDA3
:1025800000244FF4AF75E1B2584808F0F7FB01346E
:102590008542A8BF05460C2CF5D101200CF0D0FCDB
:1025A000534B5449323803FB00F06FF46772104408
:1025B00081FB00310144C317C3EBA1210028ACBF4C
:1025C00001F25F1101F5AF718D424FF00000A8BF1D
:1025D0000D460CF0B5FC464B4649323803FB00F083
:1025E0006FF46773184481FB00310144C317C3EBD8
:1025F000A1210028ACBF01F25F1101F5AF718D423E
:10260000A8BF0D46A5F1140131292CDDB1F5AF7F2E
:10261000A8BF4FF4AF71A1F5AF7240F23A7303FB5C
:1026200002F2354B963A83FB0203D217A2EB6313F7
:1026300089B232333148324A018013602A20BDE822
:10264000384006F037BD4FF4AF6372E740F21453E1
:102650004FF4FA7144E740F24C434FF4FA71F9E653
:102660004FF4AF6157E740F26C733221E2E7152077
:102670000AF020FF00F59671B1F52F7FFFF671AFDC
:1026800041F25C23994210DD19466EE741F25C236A
:102690009942F9DC134A00F5487089B2B0F52F7FF2
:1026A00011800ADA4FF42F7361E70E4A00F561706A
:1026B00089B2B0F52F7F1180F4DB8342A8BF0346B7
:1026C0009BB254E738A3FF1F34A3FF1F3CA2FF1F98
:1026D0001CA1FF1F6CA3FF1F8CA1FF1F40A2FF1FA7
:1026E00088A3FF1FE4A1FF1F9CA3FF1F2CA2FF1FB5
:1026F000D4FEFFFFC70FB38DB5814E1BC8A3FF1FCC
:10270000A48DFF1F2DE9F04F0C2083B00AF09EFE30
:102710000C200BF089FAC149DFF888A314200BF0D4
:1027200093FABF49BF4807F0F9FF022103200BF0DD
:1027300021FB022104200BF01DFB022105200BF0E0
:1027400019FB022106200BF015FB01210A200BF0DA
:1027500011FB012109200BF00DFB01210D200BF0D5
:1027600009FB012128200BF005FB012114200BF0AF
:1027700001FB02210B200BF0FDFA01210C200BF0D4
:10278000F9FA00210C200BF0E1FA012121200BF0D5
:10279000F1FA02211C200BF0EDFA01211B200BF0B5
:1027A000E9FA00211B200BF0D1FA1C200BF0D4FA1F
:1027B000B0FA80F35B091A208AF800300BF040FD74
:1027C0001F2000210BF002FD04200BF0C5FA0028A9
:1027D00000F0F68005200BF0BFFA002800F06D81B4
:1027E0000023914C062023700BF0B6FAB0FA80F368
:1027F0005B094FF0000B8D4A137004F08FFF2378B4
:10280000002B40F0D880584606F07EFC884B894962
:102810001B88894D894C8A4840F23A72A3F5AF7300
:1028200002FB03F3963B002B81FB03214FEAE3728B
:10283000844BA2EB61111B882B70D4BF3231313134
:1028400006230093774A21600C235A2108F0FEFAF0
:10285000002800F039817C4A7C481268DFF84892F1
:1028600000230121FDF720FE0B200BF075FA011E5D
:102870000CBF0123002389F8003000F0BA80744FA8
:10288000744D754EDFF8248200233B602B6033606B
:1028900004240F200CF054FB336803440E203360F3
:1028A0000AF008FE3B6899F8002018443860002AB6
:1028B0007AD015200AF0FEFD2B681844286004F039
:1028C000010080F0010003F0ADF9B8F80030002BF2
:1028D00014BF4B20DC200BF075FA013CD9D13368D2
:1028E00039685B4A28685D4F002BB8BF0333002965
:1028F000B8BF03318910116059495A4A09881488B0
:102900009B1000283360B8BF0330574E8210581A0E
:1029100019442A6031603860544D55485549161B9A
:1029200022442E6002600B60BBF1000F65D1B8F845
:102930000030002B50D0504B012404201C600BF0C1
:102940000BFA18B94D4B3C4A1C7010704C4B1B884D
:102950001C2B59D04B4C04F1C80523200AF0AAFDCA
:1029600044F8040F01200BF02DFAAC42F5D19AF88F
:10297000003023B1444B1B78002B40F0998000219C
:1029800021200BF0E3F9414A414B1078187006F012
:1029900057FB03F03FF93F493F4845F6BF5203B0AC
:1029A000BDE8F04F0DF082BD11200CF0C9FA2B6884
:1029B0001844286083E703B0BDE8F04F07F0C2BDBC
:1029C00006200BF0C9F900287FF404AF164C03462B
:1029D00020704FF0010B0EE74FF4FA7003F032F95C
:1029E00003F01CF905F000FA4FF4AF600BF0EAF9C0
:1029F000A1E711200BF0BEF941E7FFF713FDB8F88E
:102A00000030002B97D1E7E7244B18880028A1D08D
:102A1000234BC0B2197806F0D1F99BE7001B37466B
:102A200040420F008895FF1F6CA1FF1F02A4FF1FEB
:102A3000C8A3FF1FB5814E1BFCA1FF1FA48DFF1F64
:102A40002CA2FF1FE0A3FF1F2C8DFF1FA0A1FF1FC3
:102A500018A1FF1F00A1FF1F8CA3FF1F90A3FF1F42
:102A6000B48DFF1F308DFF1F20A3FF1FFCA3FF1F8E
:102A700000A2FF1FE4A3FF1F98A3FF1F31A1FF1FA8
:102A80009EA3FF1F48A2FF1F3AA3FF1F3CA3FF1FE7
:102A900018A3FF1FA5050000BCA3FF1F04A2FF1F72
:102AA00094A1FF1F1CA3FF1F40A3FF1F62A3FF1FD2
:102AB000012121200BF04AF965E703200BF04CF9C6
:102AC000B0FA80F35B098CE603200BF045F900288F
:102AD000FAD104200BF040F90028F5D105200BF0C5
:102AE0003BF90028F0D106200BF036F90028EBD195
:102AF0000CF024FB2DE9F04F8FB00BAD994F2C4615
:102B00000EAE611BC9B2984808F038F93B88834281
:102B100094BF0020012004F8010BA642F1D1934B91
:102B20009DF82C701E889DF82E50914B9DF830100A
:102B30009DF832001F707B199DF834208D4CDFF812
:102B40007CC2DFF87CE225700B4403448A4C8CF88D
:102B500000101344DFF86CC28EF80000012EDFF87D
:102B600068E28CF80020DBB2237088BF4FF0000CC5
:102B7000824C98BF4FF0010C8EF800C04FF0000E51
:102B800084F800E082B9002800F0E781002900F015
:102B90001282042323707A4D7A4B0193032E00F0A6
:102BA000F28394F800E009E0002900F0B1804FF0D2
:102BB000060E744B724D84F800E00193724B9DF841
:102BC0002D10DFF808B2DFF808A219709DF82F2049
:102BD0009DF831000093DFF8FC916C4BDFF8F88131
:102BE0006B4F85F800E09DF835109DF836E09DF8B4
:102BF00033508BF800208AF800009DF837201D70B4
:102C0000012088F800103A7089F800E00CF098F97B
:102C10006049614AD1F800C0009B6045CCBF0121EA
:102C2000002111707FDD5D4A1288182A7BD80C3A8A
:102C300000925B4A1588002D7BD15A4A93F800E038
:102C400013789AF800109BF8002099F800A094F8E7
:102C500000904E4CA3EB4E03A1EB810B9B1A5B44FF
:102C6000CAEB8A7B2478CAEB8B0BDFF870A15B443C
:102C700098F800B0BAF800A003EB44033C785B443A
:102C800004FB0A3A0C23484C13FB09A3236021B12F
:102C90003F7817B1032D40F27C81444CDFF840911E
:102CA0002488D9F80090424D424F2D883F88DFF8A4
:102CB00034A1009EBAF800A0C4EBC4044C44DFF871
:102CC0002891D9F80090033DC7EBC7074F4405EBA7
:102CD0004505DFF8189103EB850559F82440DFF826
:102CE000109155440C3D354459F827702C443C4410
:102CF000BEF1000F7ED0254D2D78002D7AD0002A10
:102D000040F04381B1FA81F12B4D490929707BE0F4
:102D1000002800F013814FF0050E1A4B84F800E0F4
:102D2000174D01934AE7002200921D4A1588002D95
:102D300083D0012D00F0F081022D00F01D82032DC3
:102D400000F03C81042D00F04F82052D00F0B88288
:102D5000154C93F800E09BF800209AF800102368C7
:102D600095E700BFC8A3FF1F2CA2FF1F14A3FF1FDE
:102D7000CAA3FF1FCBA3FF1F84A1FF1F28A3FF1F10
:102D800036A3FF1FF0A3FF1F01A4FF1F05A4FF1F11
:102D9000A6A3FF1FA48DFF1F54A3FF1F9EA3FF1F09
:102DA0000CA1FF1FB68DFF1F5CA3FF1F94A3FF1F85
:102DB0007AA3FF1FE8A1FF1FDEA3FF1FCCA3FF1F05
:102DC000CDA3FF1FCEA3FF1F78A3FF1F37A3FF1FB5
:102DD00003A4FF1F04A4FF1F06A4FF1FD0A1FF1F11
:102DE00044A2FF1F24A1FF1FD8A3FF1F38340100F6
:102DF0005C330100A44D00262E7022B198F800200B
:102E0000002A40F092800022A04960450A70C4BFA9
:102E10009F4A13609F4BA04A1B88042B8CBF012143
:102E2000002111706CD99D4A9D48116803EB830302
:102E30009AB20329028000F05F810020994D9A49DF
:102E40002B6808709C4261D09849994F0B68069393
:102E5000069E984B3E6001271F700B680793964FA4
:102E6000079B3F88DFF844E29B1BBB423AD9934E55
:102E7000934F33683460E31A3B60002852D08D4B87
:102E80001878002840F08D802C608E4D2B68A3426E
:102E900030D008688C4F099009983E68801B90429A
:102EA0001BD3E41A002CC0F2BD8012D0874A1268EE
:102EB00082EAE270A0EBE270844208DA804A12688B
:102EC000002AB8BF52429042ACBF224601221344AE
:102ED0002B600A680A920A9A3A60019A13600FB04E
:102EE000BDE8F08F2C60754BA0B1764D1C682B6847
:102EF000A342CED1019A234613600FB0BDE8F08FF4
:102F0000674900231A460B80184697E7684B6749C4
:102F10001E68A2E71B686B4A1360019A13600FB02A
:102F2000BDE8F08F2C602346F5E7BEF1000F7FF47B
:102F30006AAF00297FF467AF012265E7012E7FF6B3
:102F4000EAAE002D00F047810FB9012E78D8022398
:102F500023705F4B5F4D019320E60029F1D0002DD7
:102F600000F037815B4D5A4B01934FF0030E7645CD
:102F700084F800E07FF422AE2B78062B7FF411AEAC
:102F80004FF0070E84F800E018E63F4A0021117068
:102F900039E7514D2D88042D0CBF023304332360D3
:102FA0007BE6DEF8000008900898474F10440026A2
:102FB00038601E7068E7012EC3D8EAE5474A9AF8E0
:102FC000001094F800A0464C93F800E013782478A1
:102FD0009BF8002099F8009098F800B0A3EB4E03FE
:102FE00026469B1AA1EB81042344052414FB0933D4
:102FF000394C24880294C9EBC909053309EB0A044A
:1030000003EB4603DFF8EC9097F800A0029E5B44C8
:103010000AFB063A59F82430324C0AF10C094B44A9
:10302000236034E6294A126882EAE2706442A0EB27
:10303000E2708442C0F2308114461B1B2B6048E7CB
:10304000244D2878012840F2258106B120702648B9
:103050000088002800F02981002B40F02681234BB6
:103060001B88013B9BB2062B00F21F81204B1B7873
:10307000002B00F01A81094B1B68012B144B00F048
:10308000708101938AE500BFDEA3FF1FDFA3FF1F4E
:10309000E8A3FF1F80A3FF1F68A1FF1F98A3FF1FC6
:1030A000A08DFF1FDCA1FF1FC6A3FF1FDCA4FF1F15
:1030B000CCA1FF1F18A2FF1FAEA3FF1FA0A3FF1FDD
:1030C000D0A3FF1F24A3FF1F44A3FF1F1CA2FF1FA9
:1030D000F0A3FF1F36A3FF1FD0A1FF1FB68DFF1F58
:1030E00005A4FF1F5CA3FF1F7EA3FF1F3EA3FF1FBE
:1030F0003EA2FF1F84380100A64B1B68002B7FF700
:103100009CAEA54B1B78002B7FF497AEA34B187891
:10311000B0FA80F0400991E6A14A93F800E01378F4
:103120009AF800109BF8002099F800909D4E2478A2
:1031300096F800B0A3EB4E03A1EB810A9B1A53440F
:10314000C9EB897AC9EB8A0ADFF86092534498F890
:1031500000A0B9F8009003EB4B0397F800B0C4F15E
:1031600006049A440BFB09AAE3B24FF00C098E4CFB
:1031700019FB03A323608AE5894A93F800E01378DA
:103180009AF800109BF8002099F800902478854E5A
:10319000A3EB4E03A1EB810AC9EBC9099B1A4C446E
:1031A0005344DFF8249296F800B059F8249098F828
:1031B0000040A3F1020A7D4B15FB0BAA1B8897F870
:1031C00000B0A2440BFB03A31833774C4B4423609D
:1031D0005DE5012E57D9002F3FF432AF744D754B8A
:1031E000019301232370D9E46D4A93F800E013782A
:1031F00005933B789AF8001002934FEA4E0A237821
:10320000059C9BF800200493664E99F80090367850
:10321000CDF80CA05346E31A9B1AA1EB810A9A44FD
:10322000C9EB8973DFF884B1C9EB83097400D14419
:10323000BEF1000F18BF002404EB090ABBF80030F0
:10324000029C98F800B004FB03F3002A0CBFD94697
:103250004FF000090AEB0904002918BF0023B1460A
:10326000039E234406FB1933029CBDF8106002FB49
:103270001B3B01EB410304FB13BB0C234A4C13FB28
:1032800006B3236003E54A4D2B78002B7FF46BAE29
:10329000002FA4D1474BF4E6474A1268002AB8BF72
:1032A00052429042B8BF0124C7E6444B1B68012B31
:1032B000404B01937FF472AC414B032018706DE4D6
:1032C000374A93F800E0137805933B789BF8002089
:1032D00002932478059B9AF8001004944FEA4E0B51
:1032E0005C46304E99F800903678DFF8C0A0CDF8F3
:1032F0000CB01B1B9B1AA1EB81041C44C9EB897306
:10330000C9EB83097300A144BEF1000F18BF00236D
:10331000994498F800B0029BBAF800A0002A0CBFAC
:103320005C46002403FB0AFA002918BF4FF0000A8C
:1033300009EB0403039C534404FB1633049C029ED4
:10334000C4F1060A02FB1B3401EB410306FB1343E5
:103350005FFA8AFA4FF00C09134C19FB0A33236009
:1033600095E4184601930068164BDFF860E083FB94
:103370000037C317C3EB670303EB4303A0EB8303DF
:10338000AEF8003098E700293FF40BAC002A7FF438
:1033900008ACF1E51CA2FF1F64A3FF1F30A1FF1FB3
:1033A000B68DFF1F05A4FF1F5CA3FF1FD0A1FF1F49
:1033B00036A3FF1FF0A3FF1FD0A3FF1F98A3FF1F7B
:1033C000988DFF1FABAAAA2AEC36010060A3FF1F4D
:1033D0002DE9F04F3A4B1B788BB0002B6BD10E20B0
:1033E0000AF068F80EF004FA01463648364C374DBC
:1033F000FDF7A0F83348FDF773F80EF013FC80F3E7
:103400000C002060FFF776FB2E68012E7AD0022E8A
:1034100000F0D582032E00F082842D4C2D4E2368BF
:103420002D4A2E4C0993099B216812883360591A42
:10343000013A9142274F00F2BD82294C22689A1A24
:10344000092A00F2A382274C22689A1A0D2A00F258
:103450009882254C22689A1A252A1AD9234B1B8850
:10346000002B40F0A081224B1B78002B40F09B8169
:10347000FEF71EFC1F4B1B881B3B9BB2022B04D884
:103480001D4B1B78002B40F0918102F0EDFB33685F
:1034900023601A4C22689B1A502B00F21082184BA2
:1034A0001B88012B00F02B8205F02EFC05F0E8FABA
:1034B0000BB0BDE8F08F06F0CDFE0BB0BDE8F08F8D
:1034C0006CA1FF1FA0A1FF1F70A3FF1F98A3FF1FE8
:1034D000DCA4FF1F50A3FF1FA28DFF1F38A2FF1FF8
:1034E00014A2FF1FF4A1FF1FF8A1FF1F32A3FF1FAB
:1034F00064A1FF1F9EA3FF1F54A3FF1F2CA3FF1F48
:1035000074A3FF1FDFF84C93AD4AB9F8000013789D
:10351000834204D0C3B21846137005F0E7FBDFF80E
:103520003883A84AB8F800301178994204D0A64FE1
:103530003978002940F09E87A44A23681288A44C59
:103540009A42C0F29381A34A1278002A40F08E81F9
:10355000DFF808A3BAF8003023B99F4B1B88002B73
:1035600000F0DF859D4A9E4B11881B889D4A0B44C5
:1035700012685B1093429C4A126880F258850021C1
:103580009342B4BF01230B4604910293ACBF4FF0AA
:10359000010B8B4605910E2009F08CFF934B944A4A
:1035A0001B6803930133002B8446176840F3A587FB
:1035B000802BA8BF80238F4A8F4912780191002A5F
:1035C00000F05E810978914200F05A81B8F800104D
:1035D000DFF884E2994201F0AE817B49AEF8003019
:1035E000864B4FF0010E81F800E01978DFF870E2A9
:1035F000834B01981B7802708EF80010002B40F06E
:103600007183029B002B40F06883A7F252339C45E4
:1036100033DA714B1B88002B2FD0BBF1000F40F029
:103620006183784B1B881BB1059B002B40F05A83AC
:10363000049B13B3744B1A78FAB9DFF8289299F8FF
:10364000006001221A70002E40F038856F4B1B7805
:10365000002B41F0FD826E4B1B78002B01F00E8396
:103660006C4B1B784BB96C4B1B7833B1B8F80030FE
:1036700055490A33A8F800300A700E2009F01AFFE5
:103680006FF454731F44874202DC5F4B00221A70B0
:1036900000200BF055FC614A614B1168614E1B889C
:1036A0008842D4BF002201223270002B00F0E9844E
:1036B0005D4B1E78964269D0884267DD564908788E
:1036C000002800F0FB87594991F800C0BCF1000FB9
:1036D00040F0F287564FDFF890E1564EDFF864A1D4
:1036E0003F788EF800C04FF0010E02968AF800C0B5
:1036F00086F800C081F800E03FB100260E70029904
:103700004FF0010E8AF800E00E7040490978002958
:1037100001F09480484E96F800E0BEF1000F41F0B1
:10372000A481DFF810814FF0010C88F800E086F8E2
:1037300000C0374E367896B1DFF82CE19EF800C015
:10374000BCF1000F41F09781DFF8E0904FF00108E5
:1037500089F800C08EF80080002901F07480374994
:10376000097899B133480178002941F08A81DFF85E
:10377000BCE0334F334E8EF800104FF0030E87F845
:1037800000E02D4F31700126397006701A702E4BF3
:103790001B88A3F11B02012A40F25A861D2B00F060
:1037A000A5862A4E3BE6FEF725FA61E6284B1B78F4
:1037B000002B3FF46AAE2B68012B7FF466AE66E601
:1037C00018A3FF1FFCA1FF1F31A1FF1F3CA2FF1F79
:1037D000DCA4FF1F64A1FF1F24A2FF1F8CA1FF1FF9
:1037E0006CA3FF1FC4A1FF1F5CA1FF1FE8A3FF1F65
:1037F00018A1FF1FDEA3FF1FD8A1FF1FDFA3FF1F1C
:1038000022A2FF1F48A3FF1F85A1FF1F01A4FF1FC6
:1038100037A3FF1F03A4FF1F04A4FF1FA48DFF1FD6
:103820003EA3FF1F8EA1FF1F04A1FF1F64A3FF1F64
:1038300005A4FF1F3EA2FF1F05A1FF1F54A3FF1FEA
:10384000988DFF1FB2A3FF1F9EA3FF1F50A3FF1F52
:10385000A6A3FF1F3CA3FF1FE0A3FF1FE0A1FF1FC4
:10386000D9A1FF1F28A3FF1F30A1FF1F21689A4A7B
:10387000069106989949106002220B602A6067E65B
:103880009749DFF8D4E2097800293FF4B1AE9EF8F9
:10389000000081423FF4ACAE03984B2840F3FB8715
:1038A0001833802BB8F80000A8BF802398423FF45B
:1038B0009FAE8C4803808C480123037098E603F088
:1038C00079FF8A4B1B788BB9894B1B7873B9894B6D
:1038D0001B785BB9884B1B7843B9884B1B782BB995
:1038E000874B1B7813B902F095F901E002F09EF9BD
:1038F00033682360834B1B88012B7FF4D5AD824A4C
:10390000824B12681C688249824DA82303FB02F295
:1039100002F5FF521F3281FB0231D0171144183CCF
:103920002A23C0EB613103FB04F07B4B002A7B4A66
:103930001B781478ACBF5439553901446FF0140228
:1039400002FB03122A607648002C00F064810368B1
:103950009A4200F32D8480F25E81724C2178002916
:1039600041F0628070490968D1F17F0148BF03319D
:10397000891001315B1A9A4200F34D8103601A46A7
:103980004AE1FEF7BDFC3368236062E5674FFDF74F
:103990007BFDFEF7B9F93B88032B00F0B985042BBA
:1039A00000F0B285624B1B88032B00F0A9853368B9
:1039B000236048E5FDF7B8FC3B6823603DE55D4BBF
:1039C00026681A88B24204DB4D4B1B78002B00F0AE
:1039D0002984594C404823680793584B079900683D
:1039E0001B88091A994200F2BD80002B00F0BA80B2
:1039F000534B198800293FF4D4AE384B51481B680B
:103A00000088B342B8BF33469A4201F390804E4AD1
:103A10008342A8BF03461360DFF8408188F8001096
:103A20003A4FFDF781FC38687F2840F32986474AE2
:103A3000A0F17F0382FB0320DA17C2EB600000EBEA
:103A40004000A3EB80007330414B01931B8838602A
:103A5000002B40F05A87DFF89CA09AF80030002B2A
:103A600000F085843B4E3378002B00F08084DFF833
:103A7000F0904FF0000B0CE003F17300C0B298F827
:103A8000001005F0CBF933780BF1010B5B4540F3E7
:103A90006E843B6859F8040F18442C4BA0F17F0248
:103AA00083FB0231D317C3EB610303EB43037F288E
:103AB000A2EB8303E0DC0028E0DA244A434282FBE5
:103AC0000320DA17C2EB600000EB4000A3EB80009C
:103AD000C0F10C00D2E700BFECA1FF1F4CA3FF1FF9
:103AE000DFA3FF1FE0A3FF1F31A1FF1F3EA2FF1FA7
:103AF00064A3FF1FB2A3FF1F05A1FF1F30A1FF1F7B
:103B000064A1FF1F74A3FF1F9C8DFF1FF0A3FF1F65
:103B1000090002800CA2FF1F82A3FF1FE6A1FF1F66
:103B200028A2FF1FB8A3FF1FB4A3FF1F76A3FF1F88
:103B30001AA3FF1F3CA2FF1FDCA4FF1F20A2FF1F30
:103B400028A1FF1F1CA1FF1F08A1FF1FABAAAA2AC3
:103B5000C0A1FF1F608DFF1FD9A1FF1F08A2FF1F7B
:103B6000388DFF1FA04BA1491B680888A049B342AC
:103B7000B8BF33469A4200F334839E4E098883428D
:103B8000A8BF0346336000297FF446AF9A42C8BFFE
:103B9000134640F32D83801A00F018879B1AC3EB5D
:103BA000833300EBD07203EB620300FB03F2002AC5
:103BB00093FBF0F0C1F24480FDF79CFBC0F3C6100C
:103BC0000DF016FE8C4B064618880DF011FE8B4941
:103BD000074630460DF060FE014638460DF05CFEAB
:103BE00031460DF051FD4FF07E5106460DF0F2FFCB
:103BF000002840F09187824930460EF009F80028ED
:103C000040F0308730460EF033F8C0B2DFF838822B
:103C100088F8000004E702607A4B1B88002B3BD039
:103C2000794951F82340002C00F0D9823368B3FB66
:103C3000F4F104FB1133C3EBC30304EBD47103EBC6
:103C4000031303EB610303FB04F1002993FBF4F37B
:103C5000C0F2C0866D4951F82310A1F2FF716C4B80
:103C60006C4C1B6803FB01F303F57D3101F56071BA
:103C7000162303FB01F303F57D3303F5607384FB27
:103C80000314D917C1EB6441002BACBFA1F10B03A6
:103C9000A1F10C031A4402605F4B60481B88604925
:103CA00003F27C735B0002FB03F303F5FC6380FB10
:103CB00003020988D018DA17C2EBE022002BA1F129
:103CC0006401B8BF02F1FF324900114481F30C01D5
:103CD000282009F0ABFEFFF7E7BBBAF80030002B55
:103CE0003FF493AC4F4B1B685A1C002A40F3AD8144
:103CF000802A00F3A9814C4E4C494D4836880988EA
:103D000000683144B0EB610FC0F29786A3F148021E
:103D10000F2A3FF6B2AC473BA9F80030ADE4454B63
:103D200020681988814240F39780434B1B78002B11
:103D300040F09280DFF8149199F800007F280CDDA4
:103D40003E4AA0F17F0382FB0320DA17C2EB60003A
:103D500000EB4000A3EB80007330394B01931B88CC
:103D6000C0B289F80000002B40F0BE86DFF8E0A06A
:103D70009AF80030002B00F0B284324E3378002BDA
:103D800000F0AD84DFF8CCB02C4F4FF000080AE013
:103D900003F17300C0B205F065F8337808F101084B
:103DA000434540F39C845BF8043F99F800001844B5
:103DB000A0F17F0287FB0231D317C3EB610303EB52
:103DC00043037F28A2EB8303E2DC0028E2DA4342CC
:103DD00087FB0320DA17C2EB600000EB4000A3EB87
:103DE0008000C0F10C00D5E74CA3FF1F1CA1FF1FF2
:103DF00028A1FF1F08A1FF1F10A1FF1FCDCCCC3DA4
:103E00000000FE427CA3FF1FF03301007C2D010067
:103E100084A3FF1F491B8940F4A3FF1F832008824E
:103E2000C4A3FF1F5CA3FF1F38A3FF1F34A3FF1F02
:103E300098A1FF1F3CA2FF1F64A1FF1FABAAAA2AE3
:103E4000C0A1FF1F608DFF1F08A2FF1F58A3FF1F07
:103E5000B2A3FF1F388DFF1FB44F3B687F2B00F3C9
:103E6000CB81002BC0F2EC85DFF8389399F8006025
:103E70009E4200F00F82AE4B1B88002B46D1AD4B0B
:103E8000AD4A1B681088994240F39B850B46401A47
:103E900000F06785591AC1EB813100EBD07301EB5B
:103EA000630303FB00F2002A93FBF0F0C0F2C58627
:103EB000FDF720FAC0F3C6100DF09AFC9F4B804628
:103EC00018880DF095FC9E49824640460DF0E4FCB2
:103ED000014650460DF0E0FC41460DF0D5FB4FF099
:103EE0007E5180460DF076FE002840F0FA85954917
:103EF00040460DF08DFE002840F0B18540460DF0A3
:103F0000B7FEC0B2DFF8A08288F800007F2E0DDD7A
:103F10008D4BA6F17F0083FB0036C317C3EB66030E
:103F200003EB4303A0EB830303F17306DFF84CA21A
:103F30009AF80030F0B289F80000002B40F0FE82C1
:103F4000824B03931B78002B40F00285804B029339
:103F50001B78002B40F0E3857E4B0193029B1B787E
:103F6000002B40F0C1849AF80030002B00F08584CB
:103F7000019B784E1A88002A00F0E38438687F2875
:103F800040F3CB827049A0F17F0381FB0310D91766
:103F9000C1EB600000EB4000A3EB800073303860A1
:103FA000002A40F089849AF80030002B00F08181CB
:103FB000694E3378002B00F07C81684ACDF8109070
:103FC000DFF8E481B9464FF0000B17460CE003F12F
:103FD0007300C0B298F8001004F020FF33780BF1A2
:103FE000010B5B4540F36281D9F8003057F8040FAC
:103FF0001844554BA0F17F0183FB013ECB17C3EB67
:104000006E0303EB43037F28A1EB8303DFDC00286F
:10401000DFDA4D4B414283FB0130CB17C3EB60032A
:1040200003EB4300A1EB8003C3F10C00D1E7934203
:104030004FF0000B80F2EE800123CDF808B0CDF8F0
:1040400014B00493FFF7A7BA80264549454B464A6A
:1040500009881B8812680B44B2EB630FBFF60DABE7
:10406000424B1B78002B40F0AA83B8F80030404A3E
:10407000B3423FF402AB3F4B168001221A70FFF7A8
:10408000FCBA334F3C4E3D4830493D4A3B7033709B
:1040900003700B701370FFF77ABB3A4B1B78002B41
:1040A0007FF4EBAA039B384A243B83F34703D9B23E
:1040B0005B20136004F082FE99F80060032E30D17B
:1040C000DFF8E88098F80030002B40F031862F4F61
:1040D0003B78002B40F01F862A4E3378002B40F0AF
:1040E0000D862B4B1B78002B40F0FB85294A138053
:1040F000294B1B78002B40F0E7850D4B7F221A805F
:1041000098F800306BB93B785BB933784BB9234AE8
:104110007F210720138004F051FE7F210B2004F043
:104120004DFE1F4B1F68FFF7A8BA00BFF0A3FF1F8B
:1041300028A1FF1F08A1FF1F1CA1FF1F10A1FF1F27
:10414000CDCCCC3D0000FE42ABAAAA2A05A1FF1FA0
:104150003EA2FF1FC0A1FF1F608DFF1F388DFF1FF4
:1041600038A3FF1F34A3FF1F98A1FF1F54A3FF1FF5
:10417000E0A3FF1F31A1FF1F64A3FF1FB2A3FF1F16
:1041800030A1FF1F04A4FF1F88A1FF1F03A4FF1F6E
:1041900037A3FF1F32A2FF1F05A4FF1F56A3FF1F57
:1041A00018A1FF1F58A3FF1F08A2FF1F01A4FF1F94
:1041B000B84C2178002940F01183B7490968D1F142
:1041C0007F0148BF033103EBA1030133B34903600F
:1041D0009A42B8BF0A60FFF61FAD1A461CE56B2174
:1041E0003DE5AF4B09881A6000297FF415AC1346F2
:1041F0008342A8BF0346CEE4AA4EA3F17F0286FB0A
:104200000236D317C3EB660303EB4303A2EB83032E
:10421000733329E60123CDF810B0CDF808B005932B
:10422000FFF7B9B901232B609F4CA04EFFF7F7B8F9
:104230004F46DDF81090029B1B78002B40F04B831B
:10424000019B1B88002B00F040839AF800303BB99B
:10425000039B1B7823B9029B1B78002B00F0E3849F
:10426000934B1B78002B00F0038192490B78082BAD
:1042700000F2FE8090483A680068904E0133DBB24D
:104280005F1E101A46F827000B708D4B20681988A6
:1042900089F800208842844C7FF783AA2268894BE2
:1042A0000892089A814E1A60FFF7B9B84F46DDF8B8
:1042B0001090039B1B78002BBDD03B68A3F10C0032
:1042C0007F2840F35283774A8B3B82FB0321DA1726
:1042D000C2EB610202EB4202A3EB820303F1730023
:1042E000DFF80482C0B298F8001004F097FD9AF845
:1042F0000030002B9FD06F4E3378002B9BD0724A3A
:10430000CDF810904FF0000BB94617460BE002F1C4
:104310007300C0B298F8001004F080FD32780BF101
:10432000010B5A4584DDD9F8002057F8040F5D4B86
:104330001044A0F18B0183FB013ECA17C2EB6E0251
:104340000C3802EB42027F28A1EB8202DFDC00285E
:10435000DFDA544B424283FB0230D117C1EB6000DD
:1043600000EB4000A2EB8000C0F10C00D1E7504B05
:104370001B78002B40F0BE82544B1B78002B51D091
:104380003B68A3F10C007F2840F32C83454A8B3B0C
:1043900082FB0321DA17C2EB610202EB4202A3EBBC
:1043A000820303F17300C0B298F8001004F036FDE8
:1043B0009AF80030B3B33F4E33789BB3DFF808B1BF
:1043C000DFF8E0904FF0000A0BE003F17300C0B299
:1043D00098F8001004F022FD33780AF1010A5345E1
:1043E00020DD3B685BF8040F1844A0F18B0189FBCA
:1043F0000123CA17C2EB63030C3803EB43037F2886
:10440000A1EB8303E1DC0028E1DA434289FB0320CE
:10441000DA17C2EB600000EB4000A3EB8000C0F1B4
:104420000C00D4E72A4B1B78002B40F08082019BC4
:104430001B88002B00F07582264B1B78002B40F068
:104440006B82254B3A681A7003232B60FFF7A9B9DA
:10445000DFF8908098F80030002B40F023811F4F48
:104460003B78002B40F06783104E3B70FEF7D7BFC0
:104470003A680AE7DBB21846137004F05DFD0C4998
:104480001748124A00230B703B7003701370FFF73C
:1044900053B800BFB8A3FF1FB4A3FF1F28A2FF1F7C
:1044A00008A1FF1FABAAAA2ADCA4FF1F50A3FF1F6D
:1044B00064A3FF1F608DFF1F58A1FF1F3C8DFF1FCE
:1044C0003CA2FF1F9CA4FF1F388DFF1F05A1FF1FEB
:1044D0003EA2FF1F30A1FF1F58A3FF1F26A1FF1FF1
:1044E000B2A3FF1F54A3FF1F08A2FF1FC24AC34B62
:1044F00012781A70C24EFEF792BF0123FFF75BB825
:10450000FCF72CFEFFF753BAFCF7E4FDFFF74ABABD
:10451000FCF782FD3B88FFF742BA0028BFF63FADAB
:10452000B849434281FB0310D917C1EB600000EB8F
:104530004000A3EB8000C0F10C0030E5B24B0193CA
:104540001B88002B40F00084B04B0393B04B0293C8
:10455000B04E3378002B39D0DFF8D8824FF0000B03
:1045600009E003F17300C0B204F07CFC33780BF176
:10457000010B5B452ADD58F8043F99F80000184408
:10458000A04BA0F17F0283FB0231D317C3EB610381
:1045900003EB43037F28A2EB8303E2DC0028E2DA8B
:1045A000984A434282FB0320DA17C2EB600000EB1B
:1045B0004000A3EB8000C0F10C00D4E7944B0293C1
:1045C00004F050FC9AF80030002BC1D1039B1B78FB
:1045D000002B3FF4C3AC99F80030A3F10C007F2806
:1045E00040F3DE81874A8B3B82FB0321DA17C2EB63
:1045F000610202EB4202A3EB820303F17300C0B23B
:1046000004F030FC9AF80030002B00F0BF81814E9E
:104610003378002B00F06381DFF818824FF0000B35
:104620000AE003F17300C0B204F01CFC33780BF114
:10463000010B5B457FF792AC58F8043F99F80000F6
:104640001844704BA0F18B0183FB0123CA17C2EB06
:1046500063030C3803EB43037F28A1EB8303E0DC07
:104660000028E0DA674A434282FB0320DA17C2EBF4
:10467000600000EB4000A3EB8000C0F10C00D2E72B
:104680000028BFF6E1A95F4A434282FB0320DA1704
:10469000C2EB600000EB4000A3EB8000C0F10C0017
:1046A000FFF7D2B95C4A1278002A40F0EE81534FEE
:1046B000534E3B70FEF7B3BE00260E7057490F787D
:1046C000002F3FF422A8DFF870A19AF8001000290B
:1046D00000F0A48200218AF80010FFF716B84B4BB7
:1046E0001B78002B4ED099F80030A3F10C007F28E6
:1046F00040F35A82434A8B3B82FB0321DA17C2EB19
:10470000610202EB4202A3EB820303F17300C0B229
:1047100004F0A8FB9AF80030A3B33E4E33788BB375
:10472000DFF810A1374F4FF0000809E003F17300E4
:10473000C0B204F097FB337808F10108434521DD4E
:104740005AF8043F99F800001844A0F18B0187FB48
:104750000123CA17C2EB63030C3803EB43037F2822
:10476000A1EB8303E2DC0028E2DA434287FB03206B
:10477000DA17C2EB600000EB4000A3EB8000C0F151
:104780000C00D5E7224B1B78002B40F0C081019B29
:104790001B88002B00F0B681214B1B78002B40F0CA
:1047A000AC81204B1B78002B40F0A2811E4B1F4A8E
:1047B000198820680123002414602B606AE54B2EC1
:1047C00040F321811836802EB8F80030184AA8BF6F
:1047D0008026B3427FF44FACFEF74FBF0131C9B220
:1047E000022903D821701A46FFF716BA0022227058
:1047F0001A46FFF711BA00BF54A3FF1F26A1FF1FDF
:1048000050A3FF1FABAAAA2AC0A1FF1F05A1FF1F2B
:104810003EA2FF1F608DFF1FA6A3FF1F05A4FF1F61
:1048200064A3FF1F30A1FF1F3CA2FF1F08A1FF1FB1
:10483000E0A3FF1F388DFF1FB2A3FF1FC34E3678C2
:10484000002E7EF479AF00287EF489AF002F7EF42D
:1048500086AF002E7EF483AFBD49097800297EF42F
:1048600081AFBC48BC4906700E70BC4FBC48BD4906
:104870003E7006700E70FEF789BF039B1B78002BFD
:104880007FF476AB029B1B78002B7FF471AB019B0E
:104890001A88FFF773BB243B002BB8F8000040F3E5
:1048A000B88198423EF4A4AE9BB2AF48A8F800305D
:1048B00001230370FEF79CBEDFF8B082C0B298F807
:1048C000001004F0ABFAFFF76EBBA84B38781978EC
:1048D00004F0A4FAB9E43878FCF732F8B0E4029BAB
:1048E0001B78002B3FF444AB99F80000FCF7F6F975
:1048F000FFF739BB7F21402004F060FA9C4A9D4BB2
:104900003968116000221A7036E5C0B298F80010BC
:1049100004F084FAFFF79FB87F21422004F04EFA9A
:104920008FE598F80010387804F078FA84E5387844
:10493000FCF706F87BE5904BDFF864E21978FEF7A8
:1049400057BE99F8000004F08DFA3288FFF716BBC5
:104950008A4B01931B88002B7FF430AE804B02936F
:1049600039E641F6FF70FFF7A3BA0028BFF6B8ACEE
:10497000834B424283FB0230D317C3EB600303EB4C
:104980004303A2EB8303C3F10C00A9E4029B1B7851
:10499000002BA9D1039B1B78002B7FF4E9AA76E7B3
:1049A0000028BFF62CAE764B424283FB0230D31771
:1049B000C3EB600303EB4303A2EB8303C3F10C00DF
:1049C0001DE68342A8BF0346FFF761BA41F6FF70B8
:1049D000FFF7F2B86B49013B51F82330A3F2FF71A6
:1049E000FFF73DB90028BFF6DEAC654B424283FBC2
:1049F0000230D317C3EB600303EB4303A2EB830343
:104A0000C3F10C00CFE4243E002EB8F8003040F390
:104A10001A81B3423EF431AEB6B2534BA8F80060EF
:104A200001221A70FEF729BE4A1CD2B2022A3FF6B2
:104A3000DDAE22701A46FFF7EFB81646FFF710BB3F
:104A40004F4E5A4286FB0236D317C3EB660303EB85
:104A50004303A2EB8303C3F10C03FFF705BA7F20E6
:104A6000FFF750BA7F20FFF7D1B84FF0000E86F85D
:104A700000E0FEF75EBE4FF0000C8EF800C0FEF7BF
:104A80006BBE00210170FEF781BE3F4F387801F008
:104A90003DF93E4B1B78002B00F09E803B887E2B1F
:104AA00000F29A803A4EDFF8FC903268D9F8001094
:104AB000521A0F2A40F28A80364A0133108899B27E
:104AC0003980002800F0A180C9B2C0B204F076F9A4
:104AD000314F326898F80030C9F800203B70FEF77B
:104AE0009EBC0120FFF70EBA04F0BCF9FFF73EB9F7
:104AF0000021422004F062F958E60021402004F031
:104B00005DF94EE699F8000004F0ACF944E699F836
:104B10000000FCF7E3F83AE60120FFF777B8174BFF
:104B200001931B88002B7FF44BADFFF717BA1B4B8B
:104B30001A60FEF771BF144B154E19886A2004F0F5
:104B4000B9FA98F800303B70FEF769BC37A3FF1F35
:104B500054A3FF1F64A3FF1FB2A3FF1F05A1FF1FE4
:104B60003EA2FF1F30A1FF1F31A1FF1F08A2FF1FA0
:104B700058A1FF1F608DFF1FDFA3FF1FC0A1FF1FF4
:104B8000ABAAAA2A7C2D010094A1FF1F06A4FF1F37
:104B900050A3FF1F04A2FF1F26A1FF1F08A1FF1F94
:104BA000D9A1FF1FECA3FF1F0028BFF6B0AD694BD2
:104BB000424283FB0230D317C3EB600303EB430392
:104BC000A2EB8303C3F10C00A1E5634E634F98F899
:104BD00000303B70FEF723BC614B1B78002BF4D0F8
:104BE0003B88604F002BF0D05B4EDFF8A891326815
:104BF000D9F80010521A0F2AE8D95B4A013B1088F5
:104C000099B2398000287FF45FAFC8B204F076F91A
:104C10005EE701283EF4ECAC012346E6534E5449CE
:104C20000296FEF76ABD4FF47A43013BFDD199F835
:104C3000000004F017F9FFF713BB0138FFF738B98C
:104C40000138FEF7B9BF012B3EF417AD0126E4E6AB
:104C5000484B1B782BB3484B1B78002B7EF40DADD3
:104C6000464B1B78002B3EF408ADB8F800304449A1
:104C70000A3BA8F800300A70FEF7FFBC3E4B1B78D9
:104C8000002B7FF40AAA3D4B1B78002B3EF4F5ACB9
:104C9000B8F800303A490133A8F800300A70FEF73E
:104CA000ECBC354B1B78002B7EF4E7AC334B1B7808
:104CB000002B3EF4E2ACB8F800303149013BA8F8D3
:104CC00000300A70FEF7D9BC2E4B00227F2107204E
:104CD0001A8004F073F87F210B2004F06FF8FFF7BF
:104CE0000FBA294B01227F2107201A8004F066F8B1
:104CF0007F210B2004F062F8FFF7FAB9234B04225E
:104D00007F2107201A8004F059F800210B2004F0BD
:104D100055F8FFF7E6B91D4B02227F2107201A80C4
:104D200004F04CF87F210B2004F048F8FFF7D4B9C9
:104D3000164B002107201E8004F040F87F210B2035
:104D400004F03CF8FFF7C3B9114B0393074B0293F0
:104D500036E400BFABAAAA2A50A3FF1F26A1FF1F5B
:104D600005A4FF1F94A1FF1F04A2FF1F3EA2FF1F67
:104D700064A3FF1F37A3FF1F03A4FF1F04A4FF1F8B
:104D800031A1FF1F28A1FF1F32A2FF1F56A3FF1F43
:104D900005A1FF1FECA3FF1F38B508F027FC0B4847
:104DA00005F0C2FF00234FF07E5201210848FBF7B7
:104DB0005DFB084B084A0949802400251C711846F0
:104DC0001D60BDE838400BF089BF00BF2CA2FF1F5B
:104DD000A0A1FF1FBCA3FF1F0C8DFF1FBD0F000074
:104DE00010B50446A4206368198804F063F9E368E9
:104DF000A6201988BDE8104004F05CB943682A2059
:104E0000198804F057B900BF10B504462220636822
:104E1000198804F04FF9E36824201988BDE8104090
:104E200004F048B910B504460A206368198804F0F4
:104E300041F9E3680C201988BDE8104004F03AB944
:104E400010B5044606206368198804F033F9E36856
:104E500008201988BDE8104004F02CB910B50446AC
:104E600002206368198804F025F9E3680420198892
:104E7000BDE8104004F01EB970B50E4C84B0122588
:104E80000422012306460390029320468DE8240065
:104E90001423102107F01CFE062209230293039617
:104EA0000195204600921423102107F011FE04B052
:104EB00070BD00BF34A4FF1F70B5B94CB4F9003009
:104EC000032B00F00E81002B5DD0022B7CD0052B34
:104ED00000F0A880012B00F0D180042B00D070BD21
:104EE00000244FF4AF75E1B2AE4805F047FF01343E
:104EF0008542A8BF05460C2CF5D101200AF020F808
:104F0000A94BAA49323803FB00F06FF467721044D2
:104F100081FB00310144C317C3EBA1210028ACBFC2
:104F200001F25F1101F5AF718D424FF00000A8BF93
:104F30000D460AF005F89C4B9C49323803FB00F003
:104F40006FF46773184481FB00310144C317C3EB4E
:104F5000A1210028ACBF01F25F1101F5AF718D42B4
:104F6000A8BF0D46A5F11401312900F3A58040F238
:104F70006C7332218E488F4A0180BDE870402A2030
:104F8000136004F097B80E2008F094FA40F6FF7111
:104F9000C8308842A8BF084620EAE07000F2DC5220
:104FA00083B28A42844D854EA8BF0A460220194624
:104FB00033802A8004F07EF82988042004F07AF8EF
:104FC000B4F90030022B82D1172009F0B9FF054651
:104FD000162009F0B5FFA842B8BF284600F1C80165
:104FE000B1F5FA7FC0F2C680B1F57A6FA8BF4FF471
:104FF0007A6101F54873B3F57A6FA8BF4FF47A630D
:105000009BB289B26E4A6F4D11800A202B8004F04A
:1050100051F829880C2004F04DF8B4F90030052B24
:105020007FF458AF0F2009F08BFFC0F53F630433C6
:10503000B3F5AF6FC0F29B80B3F5FA6FA8BF4FF422
:10504000FA6399B2604BC0F54360B0F5AF6F198059
:10505000C0F28A80B0F5FA6FA8BF4FF4FA6083B24D
:105060005A4DA4202B8004F025F82988A62004F0AE
:1050700021F8B4F90030012B7FF42FAF0B2008F09A
:105080006BFE002851D0112009F05AFF00F1C80131
:10509000B1F52F7F51DB41F25C2399427EDC4C4A13
:1050A00000F5487089B2B0F52F7F118073DB834221
:1050B000A8BF03469BB246E0B1F5AF7FA8BF4FF44F
:1050C000AF71A1F5AF7240F23A7303FB02F2414BAC
:1050D000963A83FB0203D217A2EB631389B23233F1
:1050E00048E7102009F02CFFC830B0F5FA7F36DB16
:1050F000B0F57A6F0146A8BF4FF47A6101F51673D7
:10510000B3F57A6FA8BF4FF47A639BB289B2324A83
:10511000324D118022202B8003F0CCFF29882420DF
:1051200003F0C8FFB4F90030CDE6152008F0C2F94D
:1051300000F59671B1F52F7F21DA40F214534FF448
:105140002F71234A1180264D06202B8003F0B2FFD9
:105150002988082003F0AEFFB4F90030BDE640F224
:105160004C434FF4FA71D2E74FF4AF6378E74FF452
:10517000AF6167E740F214534FF4FA7142E741F22E
:105180005C2399420ADC124A00F5617089B2B0F5DD
:105190002F7F11808BDA4FF42F73D4E71946D0E7B5
:1051A00010A4FF1F2CA2FF1FD4FEFFFFC70FB38D5B
:1051B000C8A3FF1FA48DFF1F1CA1FF1F3CA2FF1F40
:1051C0006CA3FF1F8CA1FF1F40A2FF1F88A3FF1F1E
:1051D000E4A1FF1FB5814E1B38A3FF1F34A3FF1F9F
:1051E0009CA3FF1F2DE9F041224D82B0012602B29F
:1051F00084B20092284601967823192107F0AEFB6D
:1052000004F10C0212B28DE844002846A719782355
:10521000192104F1020807F0A1FB3FB20FFA88F848
:1052200019233A46284619460196CDF8008007F022
:1052300095FB78233A4628461946CDF8008001961A
:1052400004F10A070B3407F089FB3FB224B278233C
:105250003A46284619468DE8500007F07FFB19238F
:1052600000943A4601962846194607F077FB02B0AB
:10527000BDE8F08134A4FF1F30B583B000230C4695
:1052800005B2009326225B231C210C4807F0B6F8D8
:10529000294601232622094806F0CCFB002C24B223
:1052A00005DB214601232622044806F0C3FB044AFD
:1052B000044B15801C8003B030BD00BF34A4FF1F19
:1052C000BA8DFF1FBC8DFF1F70B5BB4C237882B019
:1052D0001BB1BA4B4FF6FF721A80B94BB3F90030CD
:1052E00003BBB84BB8481B68B4495A2283F30C037C
:1052F00002FB03F303F2FF7380FB03201844DB1768
:10530000C3EBE020B1F900301C30834256D04FF09F
:10531000FF31FFF7B1FFAD4807F0D4F80023237049
:1053200002B070BD012B25D0022B68D0032B4BD0CF
:10533000042B00F0AC80052BF0D10F2009F000FE0B
:10534000C0F53B600830B0F5AF6F56DBB0F5FA6FD3
:10535000A8BF4FF4FA60A0F5AF625A2303FB02F333
:105360009B4803F5967380FB0320DB17C3EBA0106B
:105370001C301EE0974B1B78002B78D0152008F0CE
:1053800099F8954B1860B0F52F7F36DB41F25C231E
:105390009842A8BF1846A0F52F705A2303FB00F3CC
:1053A0008E4803F5FA6380FB0320DB17C3EB202054
:1053B0001C30824BB3F900308342A8D1884BB3F93B
:1053C00000300133A3D1A9E7864B1B68B3F5FA7F00
:1053D00013DBB3F57A6FA8BF4FF47A63A3F5FA72C3
:1053E0005A2303FB02F3804803F2D66380FB0320B9
:1053F000DB17C3EB60201C30DBE71C20D9E77B4BBD
:105400001B68B3F5FA7F3ADBB3F57A6FA8BF4FF4A8
:105410007A63A3F5FA725A2303FB02F3724803F28C
:10542000D66380FB0320DB17C3EB60201C30704B7E
:105430001B68B3F5FA7F20DBB3F57A6FA8BF4FF492
:105440007A63A3F5FA725A2303FB02F3664903F267
:10545000D66381FB0321DB17C3EB61211C31574B62
:10546000B3F9003083420CD0FFF706FF53E7112059
:1054700009F066FD584B186085E71C21EFE71C20FA
:10548000D5E7574BB3F900308B42EDD146E72722E1
:1054900000258DE8240076231C214C484C4E07F053
:1054A0005DFA17E0B0F5AF7FA8BF4FF4AF703238A8
:1054B00003FB00F3963386FB0321DB17C3EB61117B
:1054C0001C3109B201231D442722404806F0B2FADC
:1054D0000C2D09D0E9B2474805F050FC31284FF0B7
:1054E0005A03DFDC1C21EDE7012009F029FD424BC6
:1054F000424A323803FB00F36FF46770034482FBC7
:105500000312D118DA17002BC2EBA122B4BF02F5A7
:10551000AF7302F25F13312B4BDDB3F5AF7FA8BF42
:105520004FF4AF735A22323B02FB03F3284D9633FC
:1055300085FB0325DB17C3EB65151C35002009F03F
:10554000FFFC2D4B2D4A32386FF4677103FB00F3DB
:105550000B4482FB0312D118DA17002BC2EBA122F5
:10556000B4BF02F5AF7302F25F13312B1FDDB3F549
:10557000AF7FA8BF4FF4AF735A22323B02FB03F355
:105580001349963381FB0321DB17C3EB61111C31F7
:105590000A4BB3F90030AB4201D0284664E7104B08
:1055A000B3F900308B423FF4B6AE28465CE71C21CD
:1055B000EEE71C25C2E700BF0AA4FF1FBA8DFF1F3C
:1055C00010A4FF1F70A3FF1F8100088034A4FF1FD9
:1055D000B5814E1B40A3FF1F14A1FF1FD34D6210C6
:1055E000BC8DFF1F98A1FF1F07FB7225C4A1FF1FE1
:1055F0005CA1FF1F2CA2FF1FD4FEFFFFC70FB38DBE
:105600002DE9F043764C054683B02046D5F800805E
:10561000EE6806F04BFE1120FFF7E4FD0127192389
:105620004FF028091946204601972422CDF8009012
:1056300007F094F978231946242201972046CDF8E3
:10564000009007F08BF93946204607F011FD022340
:10565000192240462382E2810DF0F2F841460246CB
:1056600020460AF0B7FF20460AF0CAFF002714239D
:1056700003225C4923822046E7810AF0ABFF2046E3
:105680000AF0BEFF2323204603225749E7812382E5
:105690000AF0A0FF20460AF0B3FF6EB12F20FFF7FB
:1056A000A1FD322303225149E781204623820AF0DB
:1056B00091FF20460AF0A4FF01234D4A18461370BB
:1056C000FFF7DAFB28896B896A68191A128867D094
:1056D00001EBD173121A5B105C2000FB023303FB59
:1056E00001F2002A93FBF1F3ACBF1B331A331FFA0C
:1056F00083FE1BB23F4A3A4F1A214FF001088DE852
:1057000002013846A2F800E01946142207F026F9F3
:10571000002E4BD0288A6B8AEA68191A128842D068
:1057200001EBD173121A43FA08F35C2000FB023339
:1057300003FB01F2002A93FBF1F3ACBF1B331A33D6
:1057400099B21BB22C4A26481180012638228DE8D6
:1057500044001946322207F001F9002240230921B2
:105760008DE806001E48194607F0C6F831461C4869
:1057700007F07EFC6B681A48022244212282E181F4
:1057800019880AF091FF32461C4915480AF022FF99
:10579000EB681348198803B0BDE8F0430AF084BFF2
:1057A00049239E46A6E749231946CBE74023092112
:1057B0003246009138461946019607F09DF8414659
:1057C000384607F055FC6B6868210222F9813A825D
:1057D0001988384603B0BDE8F0430AF065BF00BF42
:1057E00034A4FF1F94390100983901009C3901004D
:1057F000BDA4FF1F0CA4FF1F0EA4FF1FA0390100B2
:105800002DE9F04F1F4685B01446002A4ED0052AD8
:105810000646D0F80C8000F0B0800F9B8D4A00EB5C
:10582000C305012CB5F80AE029896868C1EB0E03AD
:1058300082FB03C21A444FEAE373C3EBA21302884C
:1058400051D0042C00F09280834D00220921402386
:1058500028468DE80600194607F04EF82846012133
:1058600007F006FCB8F1000F00F0E980736802222F
:1058700044212A82E981198828460AF015FF7749D0
:10588000012228460AF0A6FEF368284619880AF085
:105890000BFF734B022CB3F9001000F0B280082C00
:1058A00000F0CA80012005B0BDE8F08F6D4E6E4A51
:1058B00033681268CB1A93420D465AD96B4A3B881B
:1058C00011786548012918BF012414700E9A063218
:1058D0001BB212B28DE814001946BDF9382007F04A
:1058E0003DF83560DEE79BB2D31A994203DC9E4552
:1058F0007146A8BF19460E9A0180B7F90030BDF96C
:1059000038A0554802F106094FF0000E0FFA89F948
:1059100019465246CDF80090CDF804E007F01EF885
:1059200029896B896A685B1A128800F0828003EB10
:10593000D370511A42105C2000FB012202FB03F1DC
:10594000002992FBF3F3ACBF1B331A339AB21BB29C
:1059500001213A804048019152461946CDF8009005
:1059600006F0FCFF414B00221A706DE712FA83F338
:10597000BBE7204605B0BDE8F08F374D4FF0070A72
:105980004FF0000B28465A2323228DE8000C1A21E1
:1059900006F0B2FF2846012107F06AFB4FF001092B
:1059A0004FF0350E2323A5F80EE052462B823049E6
:1059B000A5F814902846A5F8129003930AF00AFE61
:1059C00028460AF01DFE284606F07CFD4FF4FA60DA
:1059D00008F0F8F9FFF770FA039B1A211A462846D7
:1059E0005A238DE8000C06F087FF284606F06AFD72
:1059F0003046FFF705FE1F4B83F80090FFF764FC6D
:105A000022E74A1C12B21A8091423FF44BAF0E9A21
:105A1000B7F9003010480632012412B2009219463C
:105A20000194BDF9382006F099FF204605B0BDE885
:105A3000F08F49231A468BE700221A80E4E7736847
:105A400068210222E9812A82198828460AF02CFE60
:105A50001FE700BFC94216B234A4FF1FA0390100DE
:105A600014A4FF1F9CA4FF1F984A0100BDA4FF1FA0
:105A7000A43901000AA4FF1F2DE9F04F5A4E5B4DD7
:105A8000B6F900704C7855F8277085B08146984675
:105A900004B10C78DFF874A11AB99AF80030002B21
:105AA00039D0534D002338462B808AF80030FFF759
:105AB000A7FD504A504BB5F90000012111704FF677
:105AC000FF721A8060B301285ED001203223224683
:105AD000019000934946494B3846FFF791FE002458
