:1000000000800020BD0100003DD60000F5D50000B5
:10001000F5D50000F5D50000F5D50000F5D50000B8
:10002000F5D50000F5D50000F5D500003DD600005F
:100030003DD60000F5D50000AD000100B100010083
:100040003DD600003DD600003DD600003DD6000064
:100050003DD600003DD600003DD600003DD6000054
:100060003DD600003DD600003DD600003DD6000044
:100070003DD600003DD600003DD600003DD6000034
:100080003DD600003DD600003DD600003DD6000024
:100090003DD600003DD600003DD600003DD6000014
:1000A00009AC000015AC00003DD600003DD60000B4
:1000B0003DD600003DD600003DD600003DD60000F4
:1000C0003DD600003DD600003DD600003DD60000E4
:1000D0003DD600003DD600003DD600003DD60000D4
:1000E0003DD600003DD600003DD600003DD60000C4
:1000F0003DD600003DD600003DD60000A5E500003D
:100100003DD60000B9EC00003DD600003DD6000011
:100110003DD600003DD600003DD600003DD6000093
:100120003DD600003DD600003DD600003DD6000083
:100130003DD600003DD600003DD600003DD6000073
:100140003DD600003DD600003DD600003DD6000063
:100150007D04010091040100A5040100B90401001F
:100160003DD6000039F000003DD600003DD600002D
:100170003DD600003DD600003DD600003DD6000033
:100180003DD600003DD600003DD600003DD6000023
:100190003DD600003DD600003DD600003DD6000013
:1001A0003DD600003DD600003DD600003DD6000003
:1001B0003DD600003DD600003DD60000564B4CF227
:1001C000205210B51A804DF628121A8000BF00BFC9
:1001D0000DF038FA514B4FF010621A60504A9A6095
:1001E000504ADA60504A136813F4807304D14F49BF
:1001F0000B604FF4A85313604D4B1A78110703D5C9
:100200001A7842F008021A704A4B4B492A221A7097
:100210004A4A4B4B8B4204D252F8040F43F8040B6A
:10022000F8E7484B484900228B4202D243F8042B9E
:10023000FAE74649464A002352F8230041F82300D2
:1002400001336F2BF8D1434B434A802103F8011B44
:100250009342FBD1414B3D4A1A60414B8A221A70AE
:10026000A3F5805324225A70A0221A709A7992071B
:10027000FCD59A79D406FCD43A4A937903F00C035E
:10028000082B384BF9D103221A7140225A719A79FE
:100290009006FCD5334A9179324B4906FBD5324A58
:1002A000324911600221516020221A709A7902F0BD
:1002B0000C020C2AFAD12E4B2E4A1A602E4B2F4AD2
:1002C0001A6000225A60072243F8042C2C4AC3F813
:1002D0000C2D62B60DF040FD144B1B68DA0705D5F6
:1002E00028480DF00DFB284B284A1A60284B1B7834
:1002F0005B0609D5244C254B22689A4204D121483B
:100300000DF0FEFA0023236011F05AFC0DF0A0F965
:1003100010F04EF9FEE700BF0E200540308004408B
:10032000823F04000100002B10D0034014D0034092
:1003300002D0074000E00740E4A0FF1FF859010089
:10034000308CFF1FE4A0FF1FF4A8FF1F0082FF1FD7
:100350000000000000E400E05FE400E008ED00E0E1
:100360000050064000400640448004400000030165
:1003700004800440C010050014E000E0FF76010096
:1003800000002020D213D5641CE00340A5C3945A7A
:1003900000F00740FFFFFFFFFFFFFFFFFFFFFFFF32
:1003A000FFFFFFFFFFFFFFFFFFFFFFFFFFFFFFFF5D
:1003B000FFFFFFFFFFFFFFFFFFFFFFFFFFFFFFFF4D
:1003C000FFFFFFFFFFFFFFFFFFFFFFFFFFFFFFFF3D
:1003D000FFFFFFFFFFFFFFFFFFFFFFFFFFFFFFFF2D
:1003E000FFFFFFFFFFFFFFFFFFFFFFFFFFFFFFFF1D
:1003F000FFFFFFFFFFFFFFFFFFFFFFFFFFFFFFFF0D
:10040000FFFFFFFFFFFFFFFFFFFFFFFFDEF9FFFF23
:1004100010B5054C237833B9044B13B10448AFF33E
:1004200000800123237010BDE4A0FF1F0000000026
:10043000F4590100084B10B51BB108490848AFF347
:1004400000800848036803B910BD074B002BFBD0A0
:10045000BDE81040184700BF00000000E8A0FF1FE3
:10046000F4590100E4A0FF1F0000000038B5044665
:10047000104621700A491D4611F08AF901464FF0D5
:100480007E5011F039FA074911F082F9E560606099
:10049000256165610DF0F0FBE061204638BD00BFCD
:1004A000DB0FC9400024744938B50446104621705A
:1004B00009491D4611F06CF901464FF07E5011F0CC
:1004C0001BFA064911F064F9E56060602561656119
:1004D0000DF0D2FBE06138BDDB0FC9400024744948
:1004E00038B503780446032B20D8DFE803F01A1848
:1004F0001002C168406911F041F80D490546606875
:1005000011F0FAF90146284611F0F6F938BD08490C
:10051000406811F0F1F9E16811F03AF938BDC068AE
:1005200038BDC168406911F029F838BD002038BDD8
:100530000024744970B504460E460DF09DFB054637
:10054000E069281A11F0D0F8E3682361E56166617B
:10055000A0610146606811F0CFF90146A060104823
:1005600011F0CAF910F0A0FC10F03AF910F0B2FF47
:10057000054601464FF07E5011F000F8616911F018
:1005800007F921690646284611F002F9014630466E
:1005900010F0F6FFE0602046BDE87040FFF7A0BF16
:1005A000000080BF10B50E200CF000FF1E4B1B8812
:1005B000012B32D01D4B1C88A0421BDB40F6FF7282
:1005C000C4F57F61904201F10F01A8BF1046B9B197
:1005D000001B01EBD173C0EB003000EB630303FBA6
:1005E00001F2002A93FBF1F111DB2820BDE8104055
:1005F0000DF098B9C4F57F610F3120460029E7D18D
:1006000040F2FF712820BDE810400DF08BB9013990
:100610002820BDE810400DF085B90146BDE8104026
:1006200014200DF07FB900BF74A3FF1F3CA2FF1F71
:1006300070B50C46054634F8023B182B0BD003442A
:10064000A3F118007F283EDC002858DB334BC0B2F2
:10065000197808F05FFB324E3278013202F0030263
:10066000D3B2337034F81200182810D10422032BAF
:1006700003F10101CBB20ABF002359001946605AA9
:10068000182803D1013AF2D1337070BD3370284479
:10069000A0F118037F2B08DC002B22DB1F4AD8B205
:1006A0001178BDE8704008F035BB1E4B973883FBCE
:1006B0000032C317C3EB620303EB4303A0EB8300D9
:1006C00000F17303EAE7174A973B82FB0321DA172D
:1006D000C2EB610202EB4202A3EB820303F173005F
:1006E000B4E710485A4280FB0230D317C3EB6000D6
:1006F00000EB4000A2EB8000C0F10C03CEE7094BF9
:10070000424283FB0230D317C3EB600303EB430386
:10071000A2EB8303C3F10C0098E700BF08A2FF1F00
:10072000988DFF1FABAAAA2AF8B5814B814D1B8873
:10073000C31A044685FB0306D817C0EB660000EB1E
:100740004000A3EB800303EB43039B00CE18C85883
:100750002044002A3DD07F2840F38180A0F17F0310
:1007600085FB0320DA17C2EB600000EB4000A3EB2F
:1007700080007330704F714D3978C0B208F0CAFAFA
:100780002B88022B7AD9706820447F2877DC0028D8
:10079000C0F2BF80C0B2397808F0BCFA2B88032BB6
:1007A0006CD9B06820447F2840F38580614CA0F16B
:1007B0007F0384FB0320DA17C2EB600000EB4000EC
:1007C000A3EB800073303978C0B2BDE8F84008F080
:1007D000A1BA7F2834DDA0F17F0385FB0320DA175F
:1007E000C2EB600000EB4000A3EB80007330534D80
:1007F000C0B208F0B3FA2B88022B3FD970682044AE
:100800007F284ADC002876DBC0B208F0A7FA2B88E4
:10081000032B33D9B06820447F285CDD454CA0F120
:100820007F0384FB0320DA17C2EB600000EB40007B
:10083000A3EB80007330C0B2BDE8F84008F08EBA78
:100840000028D4DA4342D81785FB0325C0EB6505A1
:1008500005EB4505A3EB8505C5F10C00C7E70028AE
:1008600088DA434285FB0320DA17C2EB600000EB15
:100870004000A3EB8000C0F10C007BE7F8BD2D4ADF
:10088000A0F17F0382FB0320DA17C2EB600000EBCC
:100890004000A3EB800073307CE7264AA0F17F0381
:1008A00082FB0320DA17C2EB600000EB4000A3EBF1
:1008B00080007330A8E7002885DA1E4A434282FB95
:1008C0000320DA17C2EB600000EB4000A3EB8000CE
:1008D000C0F10C0077E70028ADDA164A434282FBEC
:1008E0000320DA17C2EB600000EB4000A3EB8000AE
:1008F000C0F10C009FE70F4A434282FB0320DA1746
:10090000C2EB600000EB4000A3EB8000C0F10C00E4
:100910007AE7084A434282FB0320DA17C2EB600001
:1009200000EB4000A3EB8000C0F10C0032E700BFF9
:1009300060A3FF1FABAAAA2A08A2FF1F6AA1FF1F7C
:100940002DE9F8439F4B1B88013B092B00F2EF80F8
:10095000DFE803F00A10161C22282EBCC1059A49B4
:10096000BDE8F843FFF764BE01229849BDE8F843AB
:10097000FFF7DABE01229649BDE8F843FFF7D4BE7F
:1009800001229449BDE8F843FFF7CEBE0122924907
:10099000BDE8F843FFF7C8BE01229049BDE8F8431F
:1009A000FFF7C2BE01228E49BDE8F843FFF7BCBE87
:1009B0008C4B8D4A1B88044610881D18002800F0B7
:1009C0008F808A4A12880332934200F38980022D75
:1009D00040F3AD80DFF82C928549B9F80020DFF8AC
:1009E0002882844FA21A81FB0230D317C3EB600028
:1009F000B8F8003000EB4000A2EB800203EBC30329
:100A000002EB42021B0103EB82033B445868204483
:100A10007F2840F3AA80A0F17F0381FB0320DA172F
:100A2000C2EB600000EB4000A3EB80007330724E1D
:100A3000C0B2317808F06EF9032D78D0B9F80020F3
:100A40006B48B8F80030A21A80FB021ED117C1EB28
:100A50006E0101EB410103EBC303A2EB81011A011B
:100A600001EB410302EB83033B449B6823447F2B50
:100A70006CDDA3F17F0280FB0230D317C3EB600370
:100A800003EB4303A2EB83037333D8B2317808F04E
:100A900041F9042D4BD0554B1B88012B47D1A4F1B4
:100AA0000C007F2871DD524BA4F18B0083FB0032D8
:100AB000C317C3EB620303EB4303A0EB8300733064
:100AC0003178C0B2BDE8F84308F024B94B49BDE81D
:100AD000F843FFF7ADBD4A49BDE8F843FFF7A8BDAD
:100AE000484B43491B88484FE31A81FB0326DA171A
:100AF000C2EB66063A883F4F06EB4606A3EB860339
:100B000002EBC20203EB4303120102EB8303A0EBEF
:100B10008000FB58234403EB80007F2809DC002879
:100B200043DB354BC0B2197808F0F4F84FE7BDE865
:100B3000F883A0F17F0381FB0320DA17C2EB60008A
:100B400000EB4000A3EB80007330EAE7002B9CDA57
:100B50005A4280FB0230D317C3EB600000EB400029
:100B6000A2EB8000C0F10C038FE70028BFF65FAF57
:100B70004342D81781FB0321C0EB610101EB410126
:100B8000A3EB8101C1F10C0051E7002898DA184A63
:100B9000434282FB0320DA17C2EB600000EB400007
:100BA000A3EB8000C0F10C008AE74342D81781FB19
:100BB0000321C0EB610101EB4101A3EB8101C1F114
:100BC0000C00AEE73EA3FF1F4CA1FF1F84310100C4
:100BD000A83401003835010018340100BC37010089
:100BE000643601006AA1FF1F10A2FF1F92A1FF1F20
:100BF000ABAAAA2A802E010008A2FF1F34A1FF1F62
:100C000040A1FF1F60A3FF1F2AA3FF1F0A88182A05
:100C100038B50C46054609D00244A2F118007F28D9
:100C200029DC002848DBC0B208F098F8294B197875
:100C300004EB41046388182B2BD02B44A3F118003C
:100C40007F2806DC002825DBC0B2BDE8384008F06C
:100C500085B82148973B80FB0320DA17C2EB600080
:100C600000EB4000A3EB800303F17300C0B2BDE8CA
:100C7000384008F073B81848973A80FB0230D31711
:100C8000C3EB600000EB4000A2EB800202F17300B6
:100C9000C9E738BD104B424283FB0230D317C3EB88
:100CA000600303EB4303A2EB8303C3F10C00C0B268
:100CB000BDE8384008F052B8074A414282FB013291
:100CC000CB17C3EB620202EB4202A1EB8202C2F13C
:100CD0000C00A8E7988DFF1FABAAAA2A2DE9F843BC
:100CE000A54B1B88013B092B00F20381DFE813F0C1
:100CF0000F0015001B00210027002D003300F70016
:100D0000FC000A009D49BDE8F843FFF77FBF0022C1
:100D10009B49BDE8F843FFF707BD00229949BDE8AC
:100D2000F843FFF701BD00229749BDE8F843FFF7FC
:100D3000FBBC00229549BDE8F843FFF7F5BC002253
:100D40009349BDE8F843FFF7EFBC00229149BDE8A5
:100D5000F843FFF7E9BC904E04463088002800F0C5
:100D6000CA808E4B8E4D1A882B880332934234DD15
:100D70008C4B8D491B88DFF840E2E31A81FB032787
:100D8000DA17C2EB6707BEF80020DFF820E207EBB6
:100D90004707A3EB870302EBC20203EB43031201F5
:100DA00002EB8303A0EB80005EF80330234403EBE7
:100DB00080007F2840F3A180A0F17F0381FB032006
:100DC000DA17C2EB600000EB4000A3EB8000733049
:100DD000C0B207F0C3FF2B8830881844022840F3C4
:100DE0008880DFF8C0917049B9F80020DFF8C88129
:100DF0006E4FA21A81FB0230D317C3EB6000B8F824
:100E0000003000EB4000A2EB800203EBC30302EBD7
:100E100042021B0103EB82033B44586820447F28B5
:100E200040F38A80A0F17F0381FB0320DA17C2EB35
:100E3000600000EB4000A3EB80007330C0B207F00D
:100E40008DFF2A8833881344032B52DDB9F8002024
:100E50005548B8F80030A21A80FB021ED117C1EB2A
:100E60006E0101EB410103EBC303A2EB810101EB36
:100E700041011A0102EB81033B449B6823447F2B11
:100E80004BDDA3F17F0280FB0230D317C3EB60037D
:100E900003EB4303A2EB83037333D8B207F05EFF87
:100EA0002A8833881344042B23DD3C4B1B88012BF9
:100EB0001FD1A4F10C007F284EDD3B4BA4F18B0029
:100EC00083FB0032C317C3EB620303EB4303A0EBC6
:100ED00083007330C0B2BDE8F84307F03FBF344928
:100EE000BDE8F843FFF792BE3249BDE8F843FFF78B
:100EF0008DBEBDE8F8832A4D3AE70028BFF668AFFB
:100F00004342D81781FB0321C0EB610101EB410192
:100F1000A3EB8101C1F10C005AE7002BBDDA5A4264
:100F200080FB0230D317C3EB600000EB4000A2EB64
:100F30008000C0F10C03B0E70028BFF67FAF43424A
:100F4000D81781FB0321C0EB610101EB4101A3EB49
:100F50008101C1F10C0071E70028BBDA124A43425B
:100F600082FB0320DA17C2EB600000EB4000A3EB2A
:100F70008000C0F10C00ADE73EA3FF1F4CA1FF1F96
:100F800084310100A8340100383501001834010013
:100F9000BC3701006436010010A2FF1F92A1FF1FA1
:100FA0006AA1FF1F60A3FF1FABAAAA2A802E01001F
:100FB00034A1FF1F40A1FF1F2AA3FF1F10B5044645
:100FC0000FF03AFA204610BD70B44C88A04220D9E8
:100FD00001230133DBB21CB2660031F814408442B5
:100FE0001D46F6D3A04211D005F10045013D965BA8
:100FF00031F8151032F81530401AF21A00FB02F0E1
:10100000641A90FBF4F4E01870BC7047905B70BCFD
:10101000704702260125E5E738B5274B1B78002BE2
:1010200037D015200CF0C2F9244B1860244B1B88D4
:10103000984204DA234C2378002B32D138BD224A5F
:101040001288D11A2BD08242D4BFC3EB0203C3EB68
:10105000000301EBD174C3EBC31303EB640303FB85
:1010600001F2002A93FBF1F4B8BF04F1FF34002C25
:10107000E0D0144B1A780AB901221A70134D2B686C
:101080009C4204D0124BE1B2187807F013FE2C609A
:1010900038BD11200DF0D0FE084B1860C6E73F2484
:1010A000E7E70B4B0021187807F004FE0023074AFE
:1010B0002370136038BD00BF40A3FF1F14A1FF1FA2
:1010C000E4A1FF1F00A4FF1F9CA3FF1FF8A3FF1FA5
:1010D0009CA1FF1F08B51B4B1B785BB315200CF0C0
:1010E00065F9194B1860194A1278FAB118491A684B
:1010F0000B8893421ADC17490988C81A20D08A4203
:10110000D4BFC3EB0203C3EB0103A3EB830300EBE8
:10111000D072A3EB620303FB00F2002A93FBF0F30F
:10112000B4BF043305330C4A136008BD0A4B0022D8
:101130001A6008BD11200DF07FFE034B1860D2E746
:101140000323F0E740A3FF1F14A1FF1F68A1FF1FA7
:10115000E4A1FF1F9CA3FF1F1CA2FF1F38B50F2097
:101160000DF06AFE204B214A1B881060C0F53B60E1
:101170000830984228DB1E4A1288D11A28D09042A3
:10118000D4BFC3EB0003C3EB020301EBD174C3EB89
:10119000C31303EB640303FB01F2002A93FBF1F496
:1011A000B8BF04F1FF347CB1124B1A780AB901229E
:1011B0001A70114D2B68A34204D0104BE1B218787D
:1011C00007F078FD2C6038BD0A4C237813B938BD80
:1011D0003F24E9E7094B0021187807F06BFD002355
:1011E000054A2370136038BD40A2FF1F2CA1FF1FCA
:1011F00088A3FF1FACA3FF1FF0A1FF1FDAA1FF1FF1
:10120000521A0FD0411A002B03FB01F102EBD270EE
:101210000CDB01EB600101FB02F3002B91FBF2F010
:101220000EDB704703EBD37358107047A1EB6001DE
:1012300001FB02F3002B91FBF2F003DB013070475E
:1012400001387047704700BF521A10D010B402EB3B
:10125000D274411A641003FB014303FB02F100291D
:1012600093FBF2F010BCB8BF00F1FF30704758108C
:10127000704700BF70B50E4615460446184610F07C
:101280004DFCAA1B0FD0A41B002800FB04F402EBAA
:10129000D2700CDB04EB600404FB02F3002B94FB24
:1012A000F2F00EDB70BD00EBD070401070BDA4EB0F
:1012B000600404FB02F3002B94FBF2F003DB01302B
:1012C00070BD013870BD70BDF0B40E8886420DD27D
:1012D00003F10043013B31F81350854202D9F0BCC1
:1012E000FFF772BE32F81300F0BC70471088F0BCF4
:1012F000704700BF094B1B880C2B09D8084A80B2E5
:1013000052F8232028B143F6FE73984203D9108C7B
:101310007047108870470349FFF756BE66A1FF1F4C
:10132000C0300100CC320100494A4A4B2DE9F04758
:101330001B681488484AA3422546178866DBBB42CF
:10134000A8BF3B46454A9C4298461360C8BF234607
:101350005FDD381B57D01B1B00EBD072C3EB833310
:1013600003EB620303FB00F2002A93FBF0F06DDB5A
:10137000FFF7C0FF3A4A3B4B16881B88C0F3C619DB
:1013800009FB06F67F2E8246A8BF7F26002B37D0AA
:10139000444543DD3A4621462846FFF755FF324B88
:1013A0001860324C2368994509D0314B1B88002BBB
:1013B00046D1304B1B88002B3ED1C4F800902E4CF8
:1013C00023689A4506D02A4B1B885A1F032A2AD91C
:1013D000C4F800A0294C23689E420FD0284B1888DF
:1013E00048B1234B274A1B88D35C834203D0C0B249
:1013F000F1B207F05FFC2660BDE8F087BDE8F0873A
:10140000194A1360CDE741F6FF70B1E7134BA046D0
:101410001C6047453B46A8BF43469AE7B84545464A
:10142000A8BF3D46B6E7174AD05C2030C0B20AF0EC
:101430007F0107F03FFCCBE7484607F0DBFCBCE749
:10144000104A4946D05C07F035FCB2E701388FE717
:101450003CA2FF1F70A3FF1F1CA1FF1F08A1FF1FBD
:101460001EA1FF1F20A1FF1FD8A3FF1FD4A1FF1F94
:1014700056A3FF1F32A2FF1F60A1FF1F34A2FF1F50
:1014800066A3FF1FA88DFF1F2DE9F04F17208DB019
:101490000DF0D2FCDFF880B3DFF880A3CBF80000BA
:1014A00016200DF0C9FCBC4BCAF800001B880C2BA1
:1014B00000F0E081B94A00211F2B117039D0DFF80C
:1014C0006093B74BB9F80020B64F53F82260002361
:1014D0003B70B54BB54A1B88B5491288013B012AC0
:1014E00031F91330089300F0E181B24B0393B24B12
:1014F0000293B24B0593B24C00230193B14B1B886E
:10150000012B00F01D82B04BDFF818830493AF4B22
:101510000693D8F8005000230793AD4B1B88013B7E
:10152000032B00F24A82DFE813F0F200D000130030
:101530001401A84BDFF8E8921B78B9F80010984A1C
:10154000984F52F82160003318BF01233B70C0E769
:10155000284610F0C9F8A04910F01AF90546079876
:1015600010F0C2F89D4910F013F90146284610F01A
:1015700007F810F0D3FA0546C8F80050206810F0BC
:10158000B3F8954910F004F98046019810F0ACF8D2
:10159000924910F0FDF8014640460FF0F1FF10F0BF
:1015A000BDFA20608E4B8F4A1B8812888E49DBF86B
:1015B00000800C888D49C3EB050E1D44049BC3F8C5
:1015C00000E0831A1044069A1560039A0D88136090
:1015D000059BA0451860C0F2498145452846A8BF33
:1015E000404633462A462146FFF70AFEDAF800A0B5
:1015F0005445834600F33C8155452846A8BF5046D4
:101600002A4633462146FFF7FBFDA04500F3108133
:101610005445C0F20D81DFF81092D9F8000010F0A7
:1016200063F8734910F0B4F872490FF0A9FF10F095
:1016300075FAA0F5FF531C3B082B98BF4FF40050E0
:10164000029BDFF8E8811C6843F6FF750444AC4256
:10165000A8BF2C4624EAE474C9F80040204610F0E4
:1016600043F88146387806FB00F010F03DF84FF063
:101670007A5110F08DF8014648460FF07FFF10F0C8
:101680004DFA5D4BA842A8BF28461B7820EAE070BF
:10169000C8F80000002B00F0DD80B4F5005F00F01A
:1016A000D98004F039FA554BD8F8000001221A709D
:1016B000534C2368834205D080B207F0CBFAD8F8A8
:1016C000003023600DB0BDE8F08F284610F00CF814
:1016D0004C4910F05DF80546079810F005F84A49A6
:1016E00010F056F8014628460FF04AFF10F016FA9F
:1016F0000546C8F8005020680FF0F6FF414910F089
:1017000047F8804601980FF0EFFF3F4941E7284630
:101710000FF0EAFF3D4910F03BF8054607980FF03F
:10172000E3FF3B4910F034F8014628460FF028FF4C
:1017300010F0F4F90546C8F8005020680FF0D4FF07
:10174000324910F025F8804601980FF0CDFF30495E
:101750001FE728460FF0C8FF254910F019F8054685
:1017600007980FF0C1FF2B4910F012F801462846E8
:101770000FF006FF10F0D2F90546C8F800502068B7
:101780000FF0B2FF1A4910F003F8804601980FF0ED
:10179000ABFF2049FDE600BF9EA3FF1F0EA1FF1F68
:1017A000648DFF1F82A3FF1F268DFF1F76A3FF1FDF
:1017B00024360100FCA3FF1FA8A3FF1F00A2FF1FE8
:1017C00000A1FF1F1AA3FF1F90A3FF1F20A3FF1F4D
:1017D000388DFF1F54A3FF1FCDCC4C3FCDCC4C3ECA
:1017E000B48DFF1F308DFF1F6CA3FF1F8CA1FF1F47
:1017F0009A99193FCDCC4C45BEA4FF1F30A2FF1FC4
:10180000288DFF1F6666663FCDCCCC3D3333733FDA
:10181000CDCC4C3DCDCCCC3EC4A1FF1F5CA1FF1F65
:10182000C8A1FF1F8CA3FF1F9C8DFF1F348DFF1FBE
:10183000B9F80030002B3FF4EEAEC0EB0B03002BE9
:10184000B8BF5B42092B00F3BA804FF40050DFF8B9
:10185000F892F5E6A84C2378002B3FF429AF04F06A
:1018600057F90023D8F80000237021E72046B8E696
:101870002046C5E6A14B1B78002B00F0C180DFF8A5
:10188000CC929F4BB9F800109E4A9F4F53F821000D
:101890000023012111703B700FF026FF4FF07C51A7
:1018A0000FF076FF10F03AF9064612E6974B984A89
:1018B0001B8898491278013B31F91380002A40F0C7
:1018C0009A8011200DF0B8FA0190934B03931D6894
:1018D000019B9D4240F39780904B914C1B8822685E
:1018E00090490491012B904B1B8805938F4B0293D9
:1018F000C8EB0208304600F02D810FF0F5FE059B85
:10190000049951F823108A4B05930FF041FF0146CB
:1019100000200FF033FE0346019840454246294619
:10192000B8BF4046FFF7A6FC02990B681844814BEC
:101930001B8800EBD0704010012B08607FF4E3ADF2
:101940007D4B04931D460F200DF076FA2B6807900F
:101950009842099380F28780704BDFF8F4811B88EE
:10196000012B714B00F0B3801A886E4B0A923046FF
:1019700006930FF0B9FE069B0A9AD8F8005053F868
:1019800022106E4B06930FF003FF089B0146EA1AE4
:10199000002008920FF0F2FD089A09990346079873
:1019A0009042B8BF1046FFF765FC029A13681844CE
:1019B00000EBD07040101060AFE52068F2E50BF549
:1019C000005B0BF1010BC0EB0B000FF08DFE5C49CF
:1019D000DFF874910FF0DCFE0446D9F800000FF038
:1019E00083FE58490FF0D4FE014620460FF0C8FD93
:1019F00010F094F824E615200BF0D8FC019064E771
:101A0000404A13705BE54A4B05931D68019B9D425C
:101A10001FDA424B424C1B88226842490491012B39
:101A2000414B1B880693414B02939044304600F093
:101A3000A6800FF059FE0499069B51F823100FF071
:101A4000A7FE03460198404542462946A8BF4046A6
:101A500068E7364B029319461B68314C03EBD3738E
:101A60005B100B604AE5354B0693079A1B68099398
:101A70009A4221DD294BDFF8D8801B88012B2A4BA5
:101A800000F08A801988274B0B9130460A93D8F8CA
:101A900000500FF029FE089B0B992B4408930A9BDA
:101AA00053F821100FF074FE089A0999034607981D
:101AB0009042A8BF104676E7029ADFF89480136838
:101AC000D8F8005003EBD3735B10136025E5198839
:101AD000144B0A9130460693D8F800500FF004FEDC
:101AE000089B0A99EA1A069B089253F82110134B97
:101AF00006930FF04DFE4FE730A2FF1F54A3FF1FC8
:101B0000648DFF1F0EA1FF1F82A3FF1FB88DFF1F53
:101B100040A3FF1F14320100FCA3FF1F06A2FF1FFA
:101B200000A1FF1F3C36010090A1FF1FA8A3FF1FCB
:101B300000A2FF1F1AA3FF1F90A3FF1F20A3FF1FD8
:101B4000CDCCCC3E9A99193F9C8DFF1FC8A1FF1F99
:101B50008CA3FF1F0FF0C8FD059B0499224A51F882
:101B6000231005920FF014FE0346019840452946C4
:101B70004246B8BF4046FFF77DFB1C49D5E60FF053
:101B8000B3FD069B049951F823100FF001FE0146A6
:101B900000200FF0F3FC54E71A88154B0B923046E7
:101BA0000A930FF0A1FD0B9A0A9BD8F8005053F846
:101BB00022100FF0EDFD089B01462B4400200893F6
:101BC0000FF0DCFC089A0999034607989042A8BFD9
:101BD0001046FFF74FFB029A1368184400EBD070D1
:101BE0004310136099E400BF00A2FF1FA8A3FF1FCA
:101BF0003C36010008B5244B1B88FBB1234B1B78F6
:101C0000FBB1234B1B78E3B1224B1B78CBB1224BAA
:101C10001B78B3B1214B22481A78C2B9214A224914
:101C20000088128809680244B1EB620F09DD0122C5
:101C30001A706420BDE8084003F082BF174A11788B
:101C400001B908BD1370BDE8084007F0A7B8154AF0
:101C500016490088128809680244B1EB620FF0DD72
:101C600000221A7007F09AF8642003F069FF6420DC
:101C700003F066FF642003F063FF4FF41670BDE8C5
:101C800008400CF01BB800BF32A3FF1F04A4FF1FC5
:101C9000CAA3FF1FCBA3FF1FCCA3FF1F64A1FF1F7D
:101CA0008CA1FF1F6CA3FF1FC4A1FF1F5CA1FF1F1E
:101CB00038B5114C232025780BF078FB0F4A42F8F9
:101CC0002500131F02F1C400002253F8041F8342B1
:101CD0000A44FAD123780A4907480A4C0133DBB297
:101CE000322B81FB025108BF0023D217C2EB211215
:101CF0000370226038BD00BF22A1FF1F4CA2FF1F4E
:101D00001F85EB5168A3FF1F2DE9F04FB64CB74D6F
:101D10002068B74F83B00FF0E7FCB6490FF038FDED
:101D2000064610200DF088F80FF0DEFCB2490FF0E7
:101D30002FFD31460FF024FC0FF0F0FE2A882060C2
:101D40009042964639884ADA1346B1EB020C44D0E9
:101D50009B1AC3EBC3160CEBDC7306EB630303FBAC
:101D60000CF6002E93FBFCF3C0F27681A34EDFF855
:101D7000B482B6F800C0C8F80030BCF1190F00F00A
:101D8000E080BCF11A0F00F02281BCF11E0F00F0C0
:101D90004F810126B0469A4B1B88002B00F09E8095
:101DA0009446984A1288032A00F20881704580F20E
:101DB00055810A4670466146FFF746FA924B186015
:101DC000924B188880B9924A12886AB9914B197857
:101DD00001B11A7003B0BDE8F08F3F23C6E7884217
:101DE0000346A8BF0B46B0E72A882168DFF8FC91BC
:101DF000DFF8F4A18A4279DCDFF818E29EF800C02F
:101E0000BCF1000F34D14FF0010C04288EF800C053
:101E10002ED1002E40F0C3817D4B18880028D9D0E8
:101E2000B8F1000FD6D023682A883C88934280F20C
:101E300097811346A41A00F091819A1A04EBD47387
:101E4000C2EB82125B1003EB420303FB04F2002A95
:101E500093FBF4F400DB01346F4D2B68A34203D0F5
:101E6000C0B2E1B206F026FF2C6003B0BDE8F08FEF
:101E7000012800F01B81022800F00D810328CBD13E
:101E8000664B1B88092BC7D0002EC5D023682A8833
:101E90003E88934280F2A7811346B61A00F0A181D2
:101EA0009A1A06EBD673C2EB82125B1003EB420365
:101EB00003FB06F2002A93FBF6F600DB0136DFF89F
:101EC00060A1DAF80030B34203D0F1B24A2006F044
:101ED000F1FECAF800609FE798460126BCF11E0F8C
:101EE0007FF46EAF0023DFF84091ACE0494B1A78E5
:101EF000002A3FF46FAF002401281C7000F0BE8060
:101F0000022840F03181002E00F0BE80444D2B6845
:101F1000002B00F0B9800420214606F0CBFE3C4B9C
:101F20002C60188800283FF455AFB8F1000F3FF43B
:101F300051AFC0B2002106F0BDFE374B00221A603F
:101F400048E7DFF8E49099F80030CBB1DFF8C080C3
:101F5000B8F800A0BAF1000F12D0DFF8D08098F8DE
:101F600000B09B4500F093805FFA8AF07F2106F075
:101F7000A1FE99F80030B6F800C088F8003011E0F2
:101F8000DFF8A88098F800A09A4500F08080204BE8
:101F90000021187806F08EFE99F80030B6F800C0DF
:101FA00088F80030164B1B88002B95D0BCF11E0F13
:101FB00040F0288101264FF0000844E0704552DAD5
:101FC00062467046FFF740F90F4B1860F8E6DFF8FD
:101FD000589099F80030002B0BBF012600264FF0D7
:101FE00000084FF00108D6E698A1FF1F38A3FF1F95
:101FF00034A3FF1F9A99193FCDCCCC3E9EA3FF1F5F
:10200000DCA3FF1F94A3FF1F44A2FF1FC2A1FF1F59
:10201000B0A3FF1FA7A3FF1F80A1FF1F56A3FF1F91
:1020200048A2FF1F84A3FF1F54A3FF1F26A1FF1F69
:10203000DFF8F891784B99F800601B88B6FA86F6BD
:1020400076094FF0000899F8002062B3B5F800C097
:1020500020683988E646A4E6013B87E68842A8BFA7
:1020600008468646A5E68842A8BF084686466246D8
:102070007046FFF7E9F8694B1860A1E626B1684D94
:102080002B68002B40F08480664B18884AE70126B5
:102090004FF000087FE6002E3FF4BEAEDFF880A1CF
:1020A000DAF8002033E05D4B1A6089E6002E3FF439
:1020B000B3AEB7F800904945A8BF49460846B9EB0A
:1020C000020900F0848009EBD971821A4910C2EB31
:1020D000821201EB420202FB09F1002992FBF9F99D
:1020E00001DB09F10109DFF838A1DAF800204A45DF
:1020F00006D05FFA89F10120019306F0DBFD019B18
:102100001888CAF8009002287FF4B8AE4A462168C1
:102110002888B7F800E081425FDA0146BEEB000E86
:1021200058D0091A0EEBDE704010C1EB811100EBA4
:10213000410101FB0EF0002891FBFEF901DB09F1E2
:102140000109914506D05FFA89F10420019306F058
:10215000B1FD019B1888CAF800908FE640247BE609
:10216000A342A8BF234665E6032825D12E4B1B8832
:10217000092B89D0002E87D0294D2B68002B83D0C6
:102180004A20214606F096FD264B2C601888C9E6A9
:10219000214606F08FFD234B2C601888C2E64020B4
:1021A0007F21019306F086FD019B188801281ED02F
:1021B00002287FF463AE71E704287FF465AF002E38
:1021C0003FF462AF2146402006F074FD5CE74FF01B
:1021D000400988E74FF04009B3E77145A8BF714651
:1021E0009CE740266BE6B342A8BF334655E6B9F8F4
:1021F0000000DAF80010B7F8009081420246FFF6BE
:102200005EAF58E7B5F800C020683988E646012679
:102210004FF00008C5E500BFDCA3FF1F44A2FF1F6D
:1022200048A2FF1FB0A3FF1F56A3FF1F54A3FF1F09
:1022300008B5114B1B88022B09D0052B07D0032BA7
:1022400015D0042B0BD00D4B01221A7008BD7F2135
:10225000412006F02FFD094B01221A7008BD7F2195
:10226000092006F027FD054B01221A7008BD402108
:10227000092006F01FFDE6E742A2FF1FE6A1FF1FAF
:1022800038B5074B074D1B88052B044606D02B6835
:10229000834203D0C1B2052006F00CFD2C6038BD8E
:1022A00042A2FF1FB4A3FF1F38B5124D124C2B885A
:1022B000052B12D022684AB9022B0ED0033B012B0A
:1022C00013D90E4A00231370236038BD0021052066
:1022D00006F0F0FC2B88022B04D10021412006F0EF
:1022E000E9FCEEE7052BE9D1F7E70021092006F02C
:1022F000E1FCE6E742A2FF1FB4A3FF1FE6A1FF1F18
:1023000038B53A4B1B881D2B37D0394D0024394B3B
:102310001B88022B15D0384B1B88022B4AD02D88E6
:10232000364B002C1B780ADBAC42A8BF2C4634B1DC
:10233000002B30D02046BDE83840FFF7A1BF33BBAB
:1023400038BD2F4B1B78002B2ED015200BF02EF80C
:102350002C4B18602C4A1288002ADCD02B4A1868B3
:1023600011888142D7DC2A4A2B8812889042A8BF64
:102370001046FEF769FF0444CDE7234B1C888CB15F
:10238000244B1B4D1C78002CC1D02C88BFE7BDE826
:102390003840FFF789BFFFF74BFF2046BDE83840C4
:1023A000FFF76EBF124DB2E711200CF045FD154B43
:1023B0001860CFE70F200CF03FFD134B164A1B8827
:1023C0001060002BABD0154BC0F53B60198808306E
:1023D0008842A4DB124B2D881A889042A8BF104671
:1023E0002B46FEF731FF04449AE700BF9EA3FF1F70
:1023F000A4A3FF1F76A3FF1F1AA3FF1FE6A1FF1FC1
:1024000040A3FF1F14A1FF1F42A2FF1FE4A1FF1F53
:102410009CA3FF1F54A3FF1F2CA1FF1F40A2FF1F5F
:1024200088A3FF1F38B510200CF006FDC830B0F5AA
:10243000FA7FC0F21081B0F57A6F0146A8BF4FF461
:102440007A6101F51673B3F57A6FA8BF4FF47A631A
:102450009BB289B29B4A9C4C11802220238006F0BB
:10246000A5FD2188994D9A4C242006F09FFD0E2051
:102470000AF09CFF40F6FF71C8308842A8BF0846AA
:1024800020EAE07000F2DC5283B28A42A8BF0A461A
:102490000220194622802B8006F088FD2188042026
:1024A00006F084FD17200CF0C7FC044616200CF043
:1024B000C3FCA042B8BF204600F1C801B1F5FA7FC5
:1024C000C0F2C480B1F57A6FA8BF4FF47A6101F50C
:1024D0004873B3F57A6FA8BF4FF47A639BB289B2A1
:1024E0007C4A7D4C11800A20238006F05FFD218804
:1024F0000C2006F05BFD0F200CF09EFCC0F53F6148
:102500000431B1F5AF6FC0F2AB80B1F5FA6FA8BF7F
:102510004FF4FA6189B2714BC0F54360B0F5AF6F0B
:102520001980C0F29080B0F5FA6FA8BF4FF4FA603E
:1025300083B26B4CA420238006F038FDA6202188AE
:1025400006F034FD0B200BF083FB002800F08F8099
:1025500011200CF071FC00F1C801B1F52F7F80F261
:10256000958040F214534FF42F715E4A11805E4CF7
:102570000620238006F01AFD2188082006F016FDAB
:1025800000244FF4AF75E1B2584808F073FB0134F2
:102590008542A8BF05460C2CF5D101200CF04CFC5F
:1025A000534B5449323803FB00F06FF46772104408
:1025B00081FB00310144C317C3EBA1210028ACBF4C
:1025C00001F25F1101F5AF718D424FF00000A8BF1D
:1025D0000D460CF031FC464B4649323803FB00F007
:1025E0006FF46773184481FB00310144C317C3EBD8
:1025F000A1210028ACBF01F25F1101F5AF718D423E
:10260000A8BF0D46A5F1140131292CDDB1F5AF7F2E
:10261000A8BF4FF4AF71A1F5AF7240F23A7303FB5C
:1026200002F2354B963A83FB0203D217A2EB6313F7
:1026300089B232333148324A018013602A20BDE822
:10264000384006F0B3BC4FF4AF6372E740F2145366
:102650004FF4FA7144E740F24C434FF4FA71F9E653
:102660004FF4AF6157E740F26C733221E2E7152077
:102670000AF09CFE00F59671B1F52F7FFFF671AF61
:1026800041F25C23994210DD19466EE741F25C236A
:102690009942F9DC134A00F5487089B2B0F52F7FF2
:1026A00011800ADA4FF42F7361E70E4A00F561706A
:1026B00089B2B0F52F7F1180F4DB8342A8BF0346B7
:1026C0009BB254E738A3FF1F34A3FF1F3CA2FF1F98
:1026D0001CA1FF1F6CA3FF1F8CA1FF1F40A2FF1FA7
:1026E00088A3FF1FE4A1FF1F9CA3FF1F2CA2FF1FB5
:1026F000D4FEFFFFC70FB38DB5814E1BC8A3FF1FCC
:10270000A48DFF1F2DE9F04F0C2083B00AF01AFEB4
:102710000C200BF005FAC149DFF888A314200BF058
:102720000FFABF49BF4807F075FF022103200BF0E5
:102730009DFA022104200BF099FA022105200BF0EA
:1027400095FA022106200BF091FA01210A200BF0E4
:102750008DFA012109200BF089FA01210D200BF0DF
:1027600085FA012128200BF081FA012114200BF0B9
:102770007DFA02210B200BF079FA01210C200BF0DD
:1027800075FA00210C200BF05DFA012121200BF0DD
:102790006DFA02211C200BF069FA01211B200BF0BD
:1027A00065FA00211B200BF04DFA1C200BF050FAAB
:1027B000B0FA80F35B091A208AF800300BF0BCFCF9
:1027C0001F2000210BF07EFC04200BF041FA0028B2
:1027D00000F0F68005200BF03BFA002800F06D8138
:1027E0000023914C062023700BF032FAB0FA80F3EC
:1027F0005B094FF0000B8D4A137004F00BFF237838
:10280000002B40F0D880584606F0FAFB884B8949E7
:102810001B88894D894C8A4840F23A72A3F5AF7300
:1028200002FB03F3963B002B81FB03214FEAE3728B
:10283000844BA2EB61111B882B70D4BF3231313134
:1028400006230093774A21600C235A2108F07AFA74
:10285000002800F039817C4A7C481268DFF84892F1
:1028600000230121FDF720FE0B200BF0F1F9011EE2
:102870000CBF0123002389F8003000F0BA80744FA8
:10288000744D754EDFF8248200233B602B6033606B
:1028900004240F200CF0D0FA336803440E20336078
:1028A0000AF084FD3B6899F8002018443860002A3B
:1028B0007AD015200AF07AFD2B681844286004F0BD
:1028C000010080F0010003F02BF9B8F80030002B74
:1028D00014BF4B20DC200BF0F1F9013CD9D1336857
:1028E00039685B4A28685D4F002BB8BF0333002965
:1028F000B8BF03318910116059495A4A09881488B0
:102900009B1000283360B8BF0330574E8210581A0E
:1029100019442A6031603860544D55485549161B9A
:1029200022442E6002600B60BBF1000F65D1B8F845
:102930000030002B50D0504B012404201C600BF0C1
:1029400087F918B94D4B3C4A1C7010704C4B1B88D2
:102950001C2B59D04B4C04F1C80523200AF026FD4E
:1029600044F8040F01200BF0A9F9AC42F5D19AF814
:10297000003023B1444B1B78002B40F0998000219C
:1029800021200BF05FF9414A414B1078187006F096
:10299000D3FA03F0BDF83F493F4845F6BF5203B0B4
:1029A000BDE8F04F0DF0FEBC11200CF045FA2B688D
:1029B0001844286083E703B0BDE8F04F07F03EBD40
:1029C00006200BF045F900287FF404AF164C0346AF
:1029D00020704FF0010B0EE74FF4FA7003F0B0F8DF
:1029E00003F09AF805F07CF94FF4AF600BF066F94C
:1029F000A1E711200BF03AF941E7FFF713FDB8F812
:102A00000030002B97D1E7E7244B18880028A1D08D
:102A1000234BC0B2197806F04DF99BE7001B3746EF
:102A200040420F008895FF1F6CA1FF1F02A4FF1FEB
:102A3000C8A3FF1FB5814E1BFCA1FF1FA48DFF1F64
:102A40002CA2FF1FE0A3FF1F2C8DFF1FA0A1FF1FC3
:102A500018A1FF1F00A1FF1F8CA3FF1F90A3FF1F42
:102A6000B48DFF1F308DFF1F20A3FF1FFCA3FF1F8E
:102A700000A2FF1FE4A3FF1F98A3FF1F31A1FF1FA8
:102A80009EA3FF1F48A2FF1F3AA3FF1F3CA3FF1FE7
:102A900018A3FF1FA5050000BCA3FF1F04A2FF1F72
:102AA00094A1FF1F1CA3FF1F40A3FF1F62A3FF1FD2
:102AB000012121200BF0C6F865E703200BF0C8F8D0
:102AC000B0FA80F35B098CE603200BF0C1F8002814
:102AD000FAD104200BF0BCF80028F5D105200BF04A
:102AE000B7F80028F0D106200BF0B2F80028EBD19F
:102AF0000CF0A0FA2DE9F04F8DB009AD934F2C46A4
:102B00000CAE611BC9B2924808F0B4F83B8883420E
:102B100094BF0020012004F8010BA642F1D18D4B97
:102B20009DF824701E889DF826508B4B9DF8281028
:102B30009DF82A001F707B199DF82C20874CDFF828
:102B40006CC2DFF86CE225700B440344844C8CF8B3
:102B500000101344DFF85CC28EF80000012EDFF88D
:102B600058E28CF80020DBB2237088BF4FF0000CD5
:102B70007C4C98BF4FF0010C8EF800C04FF0000E57
:102B800084F800E08AB9002800F0F981002900F0FB
:102B90001E8204232370DFF824E2734B0093032E7C
:102BA00000F05A8394F800C00AE0002900F0C180C8
:102BB0004FF0060C6C4BDFF804E284F800C0009381
:102BC0006A4ADFF8FC91DFF8FC819DF825109DF83A
:102BD00027309DF82900DFF8F0B1654D654F664E4E
:102BE0008EF800C011709DF82BE09DF82D109DF817
:102BF0002EC089F8003088F800009DF82F3085F845
:102C000000E001200192397033708BF800C00CF0A5
:102C100013F95A495A4B0968019A8842CCBF4FF0C0
:102C2000010E4FF0000E83F800E040F35181554B48
:102C30001B88182B00F24C81A3F10C0A524B1B8805
:102C4000002B40F04C81514B92F800E01B7899F832
:102C5000002098F800809BF800C094F800902C7831
:102C6000A3EB4E03A8EB880B9B1A5B44CCEB8C7B4D
:102C7000CCEB8B0CDFF81CB1634497F800C0BBF8B9
:102C800000B003EB440334789C4404FB0BCB4FF0BF
:102C90000C0C3F4C1CFB09BCC4F800C0B8F1000F81
:102CA0000BD033784BB13B4B1B88042B0CBF0CF182
:102CB000020C0CF1040CC4F800C0374CDFF80C9186
:102CC0002688364BD9F800901B88354CDFF800B1C8
:102CD0002488BBF800B0C6EBC6064E44DFF8F4907B
:102CE000033BD9F8009003EB43030CEB8303C4EBE5
:102CF000C4045B444C44DFF8E090A3F10C0B294B77
:102D000059F8266053F82440D3440BEB06032344C0
:102D1000BEF1000F62D02C78002C5FD0002A40F06A
:102D20004881B8FA88F8204C4FEA581884F8008097
:102D30005DE0002800F012814FF0050C0A4B84F88A
:102D400000C0DFF878E000933AE700BFC8A3FF1F98
:102D50002CA2FF1F14A3FF1FCAA3FF1FCBA3FF1F9B
:102D600084A1FF1F28A3FF1FF0A3FF1F01A4FF1FC3
:102D700005A4FF1F06A4FF1FA6A3FF1FA48DFF1F0E
:102D800054A3FF1F9EA3FF1F0CA1FF1FB68DFF1FA3
:102D90005CA3FF1FD0A1FF1F94A3FF1F7AA3FF1FF7
:102DA000E8A1FF1F5C320100DEA3FF1FCCA3FF1FC1
:102DB000CDA3FF1FCEA3FF1F78A3FF1F36A3FF1FC6
:102DC00037A3FF1F03A4FF1F04A4FF1F44A2FF1F7C
:102DD00024A1FF1FD8A3FF1F38330100A04C0025FA
:102DE00025701AB13A78002A40F0AE8000229D4C3E
:102DF00088422270C8BF9C4A9C49C8BFC2F800C024
:102E00009B4A1288042A8CBF01200020087040F2DF
:102E100086809849984C086802EB820291B2032898
:102E2000218000F074810024944D95482A68047034
:102E300093427AD09348944F02680492049E934A36
:102E40003E600127177002680592914F059A3F88EE
:102E5000DFF830E2921BBA4253D98E4E8E4F326861
:102E600033609A1A3A60002C6BD0884A1478002C90
:102E700040F0A3802B60894D2A689A4249D00468AB
:102E8000874F0794079C3E68A41B8C421BD39B1A58
:102E9000002BC0F2D68012D08249096881EAE17421
:102EA000A4EBE174A34208DA7B4909680029B8BFA2
:102EB00049428C42ACBF194601210A442A6003688A
:102EC0000893089B3B60009B1A600DB0BDE8F08F33
:102ED000754B1B884FF0000A002B3FF4B4AE012B5A
:102EE00000F02581022B00F05581032B72D06F4C2E
:102EF00092F800E098F8008099F80020D4F800C01B
:102F0000CCE62B60634BA4B1644D1B682A689A42DF
:102F1000B5D11A46009B1A600DB0BDE8F08F564837
:102F200000221146028014467EE7574A554816682B
:102F300089E71A68594B1A60009B1A600DB0BDE80A
:102F4000F08F2B601A46F5E7BEF1000F7FF44EAF0D
:102F5000B8F1000F7FF44AAF012248E7012E7FF657
:102F6000EBAE002D00F04F8117B9012E00F2AA80C0
:102F7000022323704E4BDFF844E100930FE6002953
:102F8000EFD0002D00F03D81DFF830E1484B009399
:102F90004FF0030C664584F800C07FF411AE9EF834
:102FA0000030062B7FF4FEAD4FF0070C84F800C014
:102FB00006E62B4A0024147018E7DEF80040069459
:102FC000069C374F0C4400263C60167052E7012ED9
:102FD000C7D8DEE5374B92F800E01B7899F800205F
:102FE00098F8008094F800902C789BF800C0019429
:102FF000A3EB4E03A8EB88049B1A2344052414FB7F
:103000000C342D4B97F800B01B880293CCEBCC0C02
:103010000CEB09030393019B96F80090DFF8A0C026
:10302000053404EB4304029B5C4409FB0349039B06
:103030001E4C5CF823C009F10C039C44C4F800C08A
:103040002CE61849096881EAE1745B42A4EBE1745B
:10305000A342C0F2ED800B46D21A2A602FE700BFD0
:10306000DEA3FF1FDFA3FF1FE8A3FF1F68A1FF1F51
:1030700080A3FF1F98A3FF1FA08DFF1FDCA1FF1FD0
:10308000C6A3FF1FDCA4FF1FCCA1FF1F18A2FF1FB8
:10309000AEA3FF1FA0A3FF1FD0A3FF1F24A3FF1FEA
:1030A00044A3FF1F1CA2FF1F0CA1FF1F5CA3FF1F57
:1030B000F0A3FF1FB68DFF1FD0A1FF1F36A3FF1F78
:1030C00084370100DFF8FCE19EF80000012840F29F
:1030D000AD8006B120706C480088002800F0B180F7
:1030E000002B40F0AE80694B1B88013B9BB2062B46
:1030F00000F2A780664B1B78002B00F0A280654B86
:103100001B68012B644B00F0AE80009347E5634AD7
:103110001268002A7FF787AE614A1278002A7FF48E
:1031200082AE604A1478B4FA84F464097CE65E4B9B
:1031300092F800E093F800C099F8002098F8008019
:1031400023789BF800900193ACEB4E04A41AA8EBF3
:10315000880CA444C9EB8974C9EB84092B78534CBF
:1031600096F800B02488CC440CEB43030293019BF7
:1031700097F80090C3F1060C029B4B440BFB043301
:103180005FFA8CF94A4C4FF00C0C1CFB093CC4F85C
:1031900000C083E5DFF810C192F800E09CF800C0A1
:1031A00099F8002098F800809BF8009094F800B0FF
:1031B0002C780194ACEB4E04A41AA8EB880C644460
:1031C000C9EBC909023C0294DFF8FCC009EB0B040F
:1031D000DFF8D8905CF824C03C78B9F800B00394CC
:1031E000BDF80490029C13FB0943039C96F80090E1
:1031F000234409FB0B3318332D4C9C44C4F800C006
:103200004CE5012E09D9002F3FF45CAFDFF8B4E0A4
:10321000214B009301232370C1E4DFF8A8E09EF85E
:103220000030002B7FF4B2AE002FF1D11A4B6CE7C7
:10323000204909680029B8BF49428C42B8BF012320
:103240000AE7144B1B68012B134B00937FF4A7ACC8
:10325000194B03201870A2E400293FF4A3AC002A04
:103260007FF4A0AC9BE6184600930068134B144F04
:1032700083FB0035C317C3EB650303EB4303A0EBEC
:1032800083033B80E4E700BF7EA3FF1F3EA3FF1F35
:103290003EA2FF1F98A3FF1FF0A3FF1F1CA2FF1F4A
:1032A00064A3FF1F30A1FF1FB68DFF1FD0A1FF1F1A
:1032B0005CA3FF1FD0A3FF1F988DFF1FABAAAA2AF4
:1032C00060A3FF1F36A3FF1FEC3501002DE9F04F6F
:1032D0003A4B1B788BB0002B6BD10E200AF066F8AE
:1032E0000EF002FA01463648364C374DFDF722F90A
:1032F0003348FDF7F5F80EF011FC80F30C00206068
:10330000FFF7F8FB2E68012E7AD0022E00F0D5824E
:10331000032E00F082842D4C2D4E23682D4A2E4C16
:103320000993099B216812883360591A013A914226
:10333000274F00F2BD82294C22689A1A092A00F20E
:10334000A382274C22689A1A0D2A00F29882254CF3
:1033500022689A1A252A1AD9234B1B88002B40F081
:10336000A081224B1B78002B40F09B81FEF7A0FC34
:103370001F4B1B881B3B9BB2022B04D81D4B1B7899
:10338000002B40F0918102F0EDFB336823601A4C72
:1033900022689B1A502B00F21082184B1B88012BBD
:1033A00000F02B8205F02CFC05F0E6FA0BB0BDE82E
:1033B000F08F06F0CBFE0BB0BDE8F08F6CA1FF1FC5
:1033C000A0A1FF1F70A3FF1F98A3FF1FDCA4FF1F76
:1033D00050A3FF1FA28DFF1F38A2FF1F14A2FF1FC3
:1033E000F4A1FF1FF8A1FF1F32A3FF1F64A1FF1F5D
:1033F0009EA3FF1F54A3FF1F2CA3FF1F74A3FF1F37
:10340000DFF84C93AD4AB9F800001378834204D03A
:10341000C3B21846137005F0E5FBDFF83883A84AFD
:10342000B8F800301178994204D0A64F39780029B5
:1034300040F09E87A44A23681288A44C9A42C0F2A6
:103440009381A34A1278002A40F08E81DFF808A306
:10345000BAF8003023B99F4B1B88002B00F0DF85A2
:103460009D4A9E4B11881B889D4A0B4412685B1035
:1034700093429C4A126880F2588500219342B4BF5F
:1034800001230B4604910293ACBF4FF0010B8B4616
:1034900005910E2009F08AFF934B944A1B68039311
:1034A0000133002B8446176840F3A587802BA8BF03
:1034B00080238F4A8F4912780191002A00F05E81A3
:1034C0000978914200F05A81B8F80010DFF884E2E0
:1034D000994201F0AE817B49AEF80030864B4FF047
:1034E000010E81F800E01978DFF870E2834B019853
:1034F0001B7802708EF80010002B40F07183029B45
:10350000002B40F06883A7F252339C4533DA714BAD
:103510001B88002B2FD0BBF1000F40F06183784B4C
:103520001B881BB1059B002B40F05A83049B13B3EF
:10353000744B1A78FAB9DFF8289299F800600122E2
:103540001A70002E40F038856F4B1B78002B41F02D
:10355000FD826E4B1B78002B01F00E836C4B1B78A9
:103560004BB96C4B1B7833B1B8F8003055490A336E
:10357000A8F800300A700E2009F018FF6FF4547399
:103580001F44874202DC5F4B00221A7000200BF0C0
:1035900053FC614A614B1168614E1B888842D4BF5D
:1035A000002201223270002B00F0E9845D4B1E786E
:1035B000964269D0884267DD56490878002800F0B5
:1035C000FB87594991F800C0BCF1000F40F0F28729
:1035D000564FDFF890E1564EDFF864A13F788EF841
:1035E00000C04FF0010E02968AF800C086F800C0B5
:1035F00081F800E03FB100260E7002994FF0010EF5
:103600008AF800E00E7040490978002901F09480A2
:10361000484E96F800E0BEF1000F41F0A481DFF8BB
:1036200010814FF0010C88F800E086F800C0374E9A
:10363000367896B1DFF82CE19EF800C0BCF1000F9F
:1036400041F09781DFF8E0904FF0010889F800C061
:103650008EF80080002901F074803749097899B10B
:1036600033480178002941F08A81DFF8BCE0334F0C
:10367000334E8EF800104FF0030E87F800E02D4F08
:1036800031700126397006701A702E4B1B88A3F119
:103690001B02012A40F25A861D2B00F0A5862A4EF5
:1036A0003BE6FEF7A7FA61E6284B1B78002B3FF4B8
:1036B0006AAE2B68012B7FF466AE66E618A3FF1F87
:1036C000FCA1FF1F31A1FF1F3CA2FF1FDCA4FF1FB5
:1036D00064A1FF1F24A2FF1F8CA1FF1F6CA3FF1F6B
:1036E000C4A1FF1F5CA1FF1FE8A3FF1F18A1FF1FBC
:1036F000DEA3FF1FD8A1FF1FDFA3FF1F22A2FF1F12
:1037000048A3FF1F85A1FF1F01A4FF1F37A3FF1FB1
:1037100003A4FF1F04A4FF1FA48DFF1F3EA3FF1FD0
:103720008EA1FF1F04A1FF1F64A3FF1F05A4FF1F9D
:103730003EA2FF1F05A1FF1F54A3FF1F988DFF1F6F
:10374000B2A3FF1F9EA3FF1F50A3FF1FA6A3FF1F2F
:103750003CA3FF1FE0A3FF1FE0A1FF1FD9A1FF1F94
:1037600028A3FF1F30A1FF1F21689A4A06910698DF
:103770009949106002220B602A6067E69749DFF8DA
:10378000D4E2097800293FF4B1AE9EF800008142EE
:103790003FF4ACAE03984B2840F3FB871833802BE3
:1037A000B8F80000A8BF802398423FF49FAE8C4831
:1037B00003808C480123037098E603F077FF8A4B5F
:1037C0001B788BB9894B1B7873B9894B1B785BB914
:1037D000884B1B7843B9884B1B782BB9874B1B78D8
:1037E00013B902F095F901E002F09EF93368236005
:1037F000834B1B88012B7FF4D5AD824A824B126824
:103800001C688249824DA82303FB02F202F5FF5295
:103810001F3281FB0231D0171144183C2A23C0EB20
:10382000613103FB04F07B4B002A7B4A1B78147840
:10383000ACBF5439553901446FF0140202FB031236
:103840002A607648002C00F0648103689A4200F3F5
:103850002D8480F25E81724C2178002941F06280D3
:1038600070490968D1F17F0148BF033189100131E6
:103870005B1A9A4200F34D8103601A464AE1FEF753
:103880003FFD3368236062E5674FFDF7FDFDFEF7FE
:103890003BFA3B88032B00F0B985042B00F0B2857E
:1038A000624B1B88032B00F0A9853368236048E531
:1038B000FDF73AFD3B6823603DE55D4B26681A88BD
:1038C000B24204DB4D4B1B78002B00F02984594C8D
:1038D000404823680793584B079900681B88091ACA
:1038E000994200F2BD80002B00F0BA80534B19883A
:1038F00000293FF4D4AE384B51481B680088B342CE
:10390000B8BF33469A4201F390804E4A8342A8BF23
:1039100003461360DFF8408188F800103A4FFDF746
:1039200003FD38687F2840F32986474AA0F17F03CA
:1039300082FB0320DA17C2EB600000EB4000A3EB30
:1039400080007330414B01931B883860002B40F09E
:103950005A87DFF89CA09AF80030002B00F085848D
:103960003B4E3378002B00F08084DFF8F0904FF06E
:10397000000B0CE003F17300C0B298F8001005F0E2
:10398000C9F933780BF1010B5B4540F36E843B685A
:1039900059F8040F18442C4BA0F17F0283FB02312D
:1039A000D317C3EB610303EB43037F28A2EB83032D
:1039B000E0DC0028E0DA244A434282FB0320DA17E5
:1039C000C2EB600000EB4000A3EB8000C0F10C00F4
:1039D000D2E700BFECA1FF1F4CA3FF1FDFA3FF1F17
:1039E000E0A3FF1F31A1FF1F3EA2FF1F64A3FF1F23
:1039F000B2A3FF1F05A1FF1F30A1FF1F64A1FF1F7E
:103A000074A3FF1F9C8DFF1FF0A3FF1F09000280FE
:103A10000CA2FF1F82A3FF1FE6A1FF1F28A2FF1F0A
:103A2000B8A3FF1FB4A3FF1F76A3FF1F1AA3FF1F96
:103A30003CA2FF1FDCA4FF1F20A2FF1F28A1FF1F25
:103A40001CA1FF1F08A1FF1FABAAAA2AC0A1FF1F2C
:103A5000608DFF1FD9A1FF1F08A2FF1F388DFF1F18
:103A6000A04BA1491B680888A049B342B8BF3346A0
:103A70009A4200F334839E4E09888342A8BF0346CE
:103A8000336000297FF446AF9A42C8BF134640F323
:103A90002D83801A00F018879B1AC3EB833300EB49
:103AA000D07203EB620300FB03F2002A93FBF0F0F9
:103AB000C1F24480FDF71EFCC0F3C6100DF014FEE9
:103AC0008C4B064618880DF00FFE8B490746304692
:103AD0000DF05EFE014638460DF05AFE31460DF0FF
:103AE0004FFD4FF07E5106460DF0F0FF002840F0EC
:103AF0009187824930460EF007F8002840F0308761
:103B000030460EF031F8C0B2DFF8388288F8000095
:103B100004E702607A4B1B88002B3BD0794951F8AF
:103B20002340002C00F0D9823368B3FBF4F104FB8E
:103B30001133C3EBC30304EBD47103EB031303EBA7
:103B4000610303FB04F1002993FBF4F3C0F2C08688
:103B50006D4951F82310A1F2FF716C4B6C4C1B683E
:103B600003FB01F303F57D3101F56071162303FBBF
:103B700001F303F57D3303F5607384FB0314D91758
:103B8000C1EB6441002BACBFA1F10B03A1F10C030D
:103B90001A4402605F4B60481B88604903F27C73E3
:103BA0005B0002FB03F303F5FC6380FB030209885F
:103BB000D018DA17C2EBE022002BA1F16401B8BFE4
:103BC00002F1FF324900114481F30C01282009F071
:103BD000A9FEFFF7E7BBBAF80030002B3FF493AC27
:103BE0004F4B1B685A1C002A40F3AD81802A00F31A
:103BF000A9814C4E4C494D483688098800683144AB
:103C0000B0EB610FC0F29786A3F148020F2A3FF68E
:103C1000B2AC473BA9F80030ADE4454B20681988A9
:103C2000814240F39780434B1B78002B40F09280F9
:103C3000DFF8149199F800007F280CDD3E4AA0F1CE
:103C40007F0382FB0320DA17C2EB600000EB400029
:103C5000A3EB80007330394B01931B88C0B289F805
:103C60000000002B40F0BE86DFF8E0A09AF800309C
:103C7000002B00F0B284324E3378002B00F0AD847C
:103C8000DFF8CCB02C4F4FF000080AE003F17300CE
:103C9000C0B205F063F8337808F10108434540F3FA
:103CA0009C845BF8043F99F800001844A0F17F025F
:103CB00087FB0231D317C3EB610303EB43037F2878
:103CC000A2EB8303E2DC0028E2DA434287FB032015
:103CD000DA17C2EB600000EB4000A3EB8000C0F1FC
:103CE0000C00D5E74CA3FF1F1CA1FF1F28A1FF1F3D
:103CF00008A1FF1F10A1FF1FCDCCCC3D0000FE424C
:103D00007CA3FF1FF03201007C2C010084A3FF1F65
:103D1000491B8940F4A3FF1F83200882C4A3FF1F0F
:103D20005CA3FF1F38A3FF1F34A3FF1F98A1FF1F31
:103D30003CA2FF1F64A1FF1FABAAAA2AC0A1FF1FBC
:103D4000608DFF1F08A2FF1F58A3FF1FB2A3FF1F14
:103D5000388DFF1FB44F3B687F2B00F3CB81002BC6
:103D6000C0F2EC85DFF8389399F800609E4200F0CD
:103D70000F82AE4B1B88002B46D1AD4BAD4A1B6862
:103D80001088994240F39B850B46401A00F06785E6
:103D9000591AC1EB813100EBD07301EB630303FBD4
:103DA00000F2002A93FBF0F0C0F2C586FDF7A2FAFC
:103DB000C0F3C6100DF098FC9F4B804618880DF09C
:103DC00093FC9E49824640460DF0E2FC0146504677
:103DD0000DF0DEFC41460DF0D3FB4FF07E518046E6
:103DE0000DF074FE002840F0FA85954940460DF02C
:103DF0008BFE002840F0B18540460DF0B5FEC0B204
:103E0000DFF8A08288F800007F2E0DDD8D4BA6F133
:103E10007F0083FB0036C317C3EB660303EB43034A
:103E2000A0EB830303F17306DFF84CA29AF800308D
:103E3000F0B289F80000002B40F0FE82824B039321
:103E40001B78002B40F00285804B02931B78002BDF
:103E500040F0E3857E4B0193029B1B78002B40F0E2
:103E6000C1849AF80030002B00F08584019B784EC5
:103E70001A88002A00F0E38438687F2840F3CB8258
:103E80007049A0F17F0381FB0310D917C1EB6000DB
:103E900000EB4000A3EB800073303860002A40F054
:103EA00089849AF80030002B00F08181694E3378C4
:103EB000002B00F07C81684ACDF81090DFF8E48197
:103EC000B9464FF0000B17460CE003F17300C0B287
:103ED00098F8001004F01EFF33780BF1010B5B45DE
:103EE00040F36281D9F8003057F8040F1844554B5D
:103EF000A0F17F0183FB013ECB17C3EB6E0303EB05
:103F000043037F28A1EB8303DFDC0028DFDA4D4B7E
:103F1000414283FB0130CB17C3EB600303EB43004B
:103F2000A1EB8003C3F10C00D1E793424FF0000BEB
:103F300080F2EE800123CDF808B0CDF814B00493E0
:103F4000FFF7A7BA80264549454B464A09881B8892
:103F500012680B44B2EB630FBFF60DAB424B1B78FC
:103F6000002B40F0AA83B8F80030404AB3423FF437
:103F700002AB3F4B168001221A70FFF7FCBA334F99
:103F80003C4E3D4830493D4A3B70337003700B70E6
:103F90001370FFF77ABB3A4B1B78002B7FF4EBAA28
:103FA000039B384A243B83F34703D9B25B20136059
:103FB00004F080FE99F80060032E30D1DFF8E8802D
:103FC00098F80030002B40F031862F4F3B78002BC3
:103FD00040F01F862A4E3378002B40F00D862B4B85
:103FE0001B78002B40F0FB85294A1380294B1B7856
:103FF000002B40F0E7850D4B7F221A8098F80030A7
:104000006BB93B785BB933784BB9234A7F210720E2
:10401000138004F04FFE7F210B2004F04BFE1F4B5A
:104020001F68FFF7A8BA00BFF0A3FF1F28A1FF1F5A
:1040300008A1FF1F1CA1FF1F10A1FF1FCDCCCC3D6D
:104040000000FE42ABAAAA2A05A1FF1F3EA2FF1F45
:10405000C0A1FF1F608DFF1F388DFF1F38A3FF1FFA
:1040600034A3FF1F98A1FF1F54A3FF1FE0A3FF1F4E
:1040700031A1FF1F64A3FF1FB2A3FF1F30A1FF1FC9
:1040800004A4FF1F88A1FF1F03A4FF1F37A3FF1F66
:1040900032A2FF1F05A4FF1F56A3FF1F18A1FF1F79
:1040A00058A3FF1F08A2FF1F01A4FF1FB84C2178CF
:1040B000002940F01183B7490968D1F17F0148BF59
:1040C000033103EBA1030133B34903609A42B8BF44
:1040D0000A60FFF61FAD1A461CE56B213DE5AF4BAC
:1040E00009881A6000297FF415AC13468342A8BFE3
:1040F0000346CEE4AA4EA3F17F0286FB0236D31715
:10410000C3EB660303EB4303A2EB8303733329E69C
:104110000123CDF810B0CDF808B00593FFF7B9B979
:1041200001232B609F4CA04EFFF7F7B84F46DDF8F8
:104130001090029B1B78002B40F04B83019B1B8847
:10414000002B00F040839AF800303BB9039B1B78AA
:1041500023B9029B1B78002B00F0E384934B1B7860
:10416000002B00F0038192490B78082B00F2FE80AF
:1041700090483A680068904E0133DBB25F1E101A17
:1041800046F827000B708D4B2068198889F80020AD
:104190008842844C7FF783AA2268894B0892089A48
:1041A000814E1A60FFF7B9B84F46DDF81090039BB7
:1041B0001B78002BBDD03B68A3F10C007F2840F397
:1041C0005283774A8B3B82FB0321DA17C2EB6102F1
:1041D00002EB4202A3EB820303F17300DFF80482D7
:1041E000C0B298F8001004F095FD9AF80030002B4A
:1041F0009FD06F4E3378002B9BD0724ACDF8109031
:104200004FF0000BB94617460BE002F17300C0B245
:1042100098F8001004F07EFD32780BF1010B5A453E
:1042200084DDD9F8002057F8040F5D4B1044A0F14D
:104230008B0183FB013ECA17C2EB6E020C3802EB06
:1042400042027F28A1EB8202DFDC0028DFDA544B38
:10425000424283FB0230D117C1EB600000EB40000B
:10426000A2EB8000C0F10C00D1E7504B1B78002B73
:1042700040F0BE82544B1B78002B51D03B68A3F119
:104280000C007F2840F32C83454A8B3B82FB0321A3
:10429000DA17C2EB610202EB4202A3EB820303F1E5
:1042A0007300C0B298F8001004F034FD9AF80030A2
:1042B000B3B33F4E33789BB3DFF808B1DFF8E0903B
:1042C0004FF0000A0BE003F17300C0B298F8001041
:1042D00004F020FD33780AF1010A534520DD3B68E4
:1042E0005BF8040F1844A0F18B0189FB0123CA1766
:1042F000C2EB63030C3803EB43037F28A1EB83037A
:10430000E1DC0028E1DA434289FB0320DA17C2EB43
:10431000600000EB4000A3EB8000C0F10C00D4E78C
:104320002A4B1B78002B40F08082019B1B88002BBE
:1043300000F07582264B1B78002B40F06B82254BDA
:104340003A681A7003232B60FFF7A9B9DFF8908051
:1043500098F80030002B40F023811F4F3B78002B52
:1043600040F06783104E3B70FEF7D7BF3A680AE70C
:10437000DBB21846137004F05BFD0C491748124A73
:1043800000230B703B7003701370FFF753B800BF2E
:10439000B8A3FF1FB4A3FF1F28A2FF1F08A1FF1F80
:1043A000ABAAAA2ADCA4FF1F50A3FF1F64A3FF1F10
:1043B000608DFF1F58A1FF1F3C8DFF1F3CA2FF1FF8
:1043C0009CA4FF1F388DFF1F05A1FF1F3EA2FF1FEA
:1043D00030A1FF1F58A3FF1F26A1FF1FB2A3FF1F7D
:1043E00054A3FF1F08A2FF1FC24AC34B12781A70C2
:1043F000C24EFEF792BF0123FFF75BB8FCF7AEFE9B
:10440000FFF753BAFCF766FEFFF74ABAFCF704FE63
:104410003B88FFF742BA0028BFF63FADB849434298
:1044200081FB0310D917C1EB600000EB4000A3EB48
:104430008000C0F10C0030E5B24B01931B88002BCB
:1044400040F00084B04B0393B04B0293B04E3378EE
:10445000002B39D0DFF8D8824FF0000B09E003F1D0
:104460007300C0B204F07AFC33780BF1010B5B45AA
:104470002ADD58F8043F99F800001844A04BA0F139
:104480007F0283FB0231D317C3EB610303EB4303CA
:104490007F28A2EB8303E2DC0028E2DA984A434259
:1044A00082FB0320DA17C2EB600000EB4000A3EBB5
:1044B0008000C0F10C00D4E7944B029304F04EFC52
:1044C0009AF80030002BC1D1039B1B78002B3FF4DE
:1044D000C3AC99F80030A3F10C007F2840F3DE81D3
:1044E000874A8B3B82FB0321DA17C2EB610202EBA6
:1044F0004202A3EB820303F17300C0B204F02EFC6E
:104500009AF80030002B00F0BF81814E3378002BE9
:1045100000F06381DFF818824FF0000B0AE003F12E
:104520007300C0B204F01AFC33780BF1010B5B4549
:104530007FF792AC58F8043F99F800001844704B8C
:10454000A0F18B0183FB0123CA17C2EB63030C3874
:1045500003EB43037F28A1EB8303E0DC0028E0DAD0
:10456000674A434282FB0320DA17C2EB600000EB8C
:104570004000A3EB8000C0F10C00D2E70028BFF69A
:10458000E1A95F4A434282FB0320DA17C2EB6000D5
:1045900000EB4000A3EB8000C0F10C00FFF7D2B9A4
:1045A0005C4A1278002A40F0EE81534F534E3B7024
:1045B000FEF7B3BE00260E7057490F78002F3FF468
:1045C00022A8DFF870A19AF80010002900F0A48258
:1045D00000218AF80010FFF716B84B4B1B78002B10
:1045E0004ED099F80030A3F10C007F2840F35A8296
:1045F000434A8B3B82FB0321DA17C2EB610202EBD9
:104600004202A3EB820303F17300C0B204F0A6FBE5
:104610009AF80030A3B33E4E33788BB3DFF810A185
:10462000374F4FF0000809E003F17300C0B204F007
:1046300095FB337808F10108434521DD5AF8043F22
:1046400099F800001844A0F18B0187FB0123CA17D9
:10465000C2EB63030C3803EB43037F28A1EB830316
:10466000E2DC0028E2DA434287FB0320DA17C2EBE0
:10467000600000EB4000A3EB8000C0F10C00D5E728
:10468000224B1B78002B40F0C081019B1B88002B24
:1046900000F0B681214B1B78002B40F0AC81204B01
:1046A0001B78002B40F0A2811E4B1F4A19882068FE
:1046B0000123002414602B606AE54B2E40F3218116
:1046C0001836802EB8F80030184AA8BF8026B342AA
:1046D0007FF44FACFEF74FBF0131C9B2022903D8B6
:1046E00021701A46FFF716BA002222701A46FFF709
:1046F00011BA00BF54A3FF1F26A1FF1F50A3FF1F25
:10470000ABAAAA2AC0A1FF1F05A1FF1F3EA2FF1F3F
:10471000608DFF1FA6A3FF1F05A4FF1F64A3FF1F3B
:1047200030A1FF1F3CA2FF1F08A1FF1FE0A3FF1F36
:10473000388DFF1FB2A3FF1FC34E3678002E7EF4C4
:1047400079AF00287EF489AF002F7EF486AF002E6B
:104750007EF483AFBD49097800297EF481AFBC485F
:10476000BC4906700E70BC4FBC48BD493E70067017
:104770000E70FEF789BF039B1B78002B7FF476AB8E
:10478000029B1B78002B7FF471AB019B1A88FFF70B
:1047900073BB243B002BB8F8000040F3B88198426B
:1047A0003EF4A4AE9BB2AF48A8F8003001230370DA
:1047B000FEF79CBEDFF8B082C0B298F8001004F09B
:1047C000A9FAFFF76EBBA84B3878197804F0A2FA63
:1047D000B9E43878FCF7B4F8B0E4029B1B78002BFE
:1047E0003FF444AB99F80000FCF778FAFFF739BBC7
:1047F0007F21402004F05EFA9C4A9D4B396811608D
:1048000000221A7036E5C0B298F8001004F082FA5F
:10481000FFF79FB87F21422004F04CFA8FE598F80B
:104820000010387804F076FA84E53878FCF788F8D8
:104830007BE5904BDFF864E21978FEF757BE99F8F4
:10484000000004F08BFA3288FFF716BB8A4B019305
:104850001B88002B7FF430AE804B029339E641F683
:10486000FF70FFF7A3BA0028BFF6B8AC834B4242F3
:1048700083FB0230D317C3EB600303EB4303A2EBCC
:104880008303C3F10C00A9E4029B1B78002BA9D180
:10489000039B1B78002B7FF4E9AA76E70028BFF67C
:1048A0002CAE764B424283FB0230D317C3EB60033E
:1048B00003EB4303A2EB8303C3F10C001DE6834229
:1048C000A8BF0346FFF761BA41F6FF70FFF7F2B8E1
:1048D0006B49013B51F82330A3F2FF71FFF73DB95B
:1048E0000028BFF6DEAC654B424283FB0230D31793
:1048F000C3EB600303EB4303A2EB8303C3F10C00A0
:10490000CFE4243E002EB8F8003040F31A81B342C1
:104910003EF431AEB6B2534BA8F8006001221A70D3
:10492000FEF729BE4A1CD2B2022A3FF6DDAE227043
:104930001A46FFF7EFB81646FFF710BB4F4E5A4224
:1049400086FB0236D317C3EB660303EB4303A2EBEC
:104950008303C3F10C03FFF705BA7F20FFF750BABA
:104960007F20FFF7D1B84FF0000E86F800E0FEF789
:104970005EBE4FF0000C8EF800C0FEF76BBE00214B
:104980000170FEF781BE3F4F387801F03DF93E4B94
:104990001B78002B00F09E803B887E2B00F29A80D3
:1049A0003A4EDFF8FC903268D9F80010521A0F2AFC
:1049B00040F28A80364A0133108899B23980002843
:1049C00000F0A180C9B2C0B204F074F9314F32686E
:1049D00098F80030C9F800203B70FEF79EBC01201B
:1049E000FFF70EBA04F0BAF9FFF73EB900214220F2
:1049F00004F060F958E60021402004F05BF94EE62F
:104A000099F8000004F0AAF944E699F80000FCF7D0
:104A100065F93AE60120FFF777B8174B01931B8839
:104A2000002B7FF44BADFFF717BA1B4B1A60FEF754
:104A300071BF144B154E19886A2004F0B7FA98F824
:104A400000303B70FEF769BC37A3FF1F54A3FF1F64
:104A500064A3FF1FB2A3FF1F05A1FF1F3EA2FF1FFC
:104A600030A1FF1F31A1FF1F08A2FF1F58A1FF1F88
:104A7000608DFF1FDFA3FF1FC0A1FF1FABAAAA2AE3
:104A80007C2C010094A1FF1F06A4FF1F50A3FF1F51
:104A900004A2FF1F26A1FF1F08A1FF1FD9A1FF1F0E
:104AA000ECA3FF1F0028BFF6B0AD694B424283FB69
:104AB0000230D317C3EB600303EB4303A2EB830382
:104AC000C3F10C00A1E5634E634F98F800303B70D2
:104AD000FEF723BC614B1B78002BF4D03B88604F62
:104AE000002BF0D05B4EDFF8A8913268D9F80010A7
:104AF000521A0F2AE8D95B4A013B108899B23980D3
:104B000000287FF45FAFC8B204F074F95EE70128B3
:104B10003EF4ECAC012346E6534E54490296FEF7B0
:104B20006ABD4FF47A43013BFDD199F8000004F0CF
:104B300015F9FFF713BB0138FFF738B90138FEF755
:104B4000B9BF012B3EF417AD0126E4E6484B1B78B4
:104B50002BB3484B1B78002B7EF40DAD464B1B78D6
:104B6000002B3EF408ADB8F8003044490A3BA8F8E1
:104B700000300A70FEF7FFBC3E4B1B78002B7FF421
:104B80000AAA3D4B1B78002B3EF4F5ACB8F8003078
:104B90003A490133A8F800300A70FEF7ECBC354BF7
:104BA0001B78002B7EF4E7AC334B1B78002B3EF4D4
:104BB000E2ACB8F800303149013BA8F800300A7087
:104BC000FEF7D9BC2E4B00227F2107201A8004F06B
:104BD00071F87F210B2004F06DF8FFF70FBA294B15
:104BE00001227F2107201A8004F064F87F210B2026
:104BF00004F060F8FFF7FAB9234B04227F21072065
:104C00001A8004F057F800210B2004F053F8FFF746
:104C1000E6B91D4B02227F2107201A8004F04AF8D2
:104C20007F210B2004F046F8FFF7D4B9164B002182
:104C300007201E8004F03EF87F210B2004F03AF894
:104C4000FFF7C3B9114B0393074B029336E400BF40
:104C5000ABAAAA2A50A3FF1F26A1FF1F05A4FF1F6E
:104C600094A1FF1F04A2FF1F3EA2FF1F64A3FF1F0A
:104C700037A3FF1F03A4FF1F04A4FF1F31A1FF1FC1
:104C800028A1FF1F32A2FF1F56A3FF1F05A1FF1F70
:104C9000ECA3FF1F38B508F025FC0B4805F0C0FF5A
:104CA00000234FF07E5201210848FBF7DFFB084B41
:104CB000084A0949802400251C7118461D60BDE87A
:104CC00038400BF087BF00BF2CA2FF1FA0A1FF1F21
:104CD000BCA3FF1F0C8DFF1FBD0F000010B50446C5
:104CE000A4206368198804F061F9E368A620198894
:104CF000BDE8104004F05AB943682A20198804F02E
:104D000055B900BF10B5044622206368198804F025
:104D10004DF9E36824201988BDE8104004F046B935
:104D200010B504460A206368198804F03FF9E36867
:104D30000C201988BDE8104004F038B910B50446BD
:104D400006206368198804F031F9E368082019889F
:104D5000BDE8104004F02AB910B50446022063688B
:104D6000198804F023F9E36804201988BDE810408D
:104D700004F01CB970B50E4C84B012250422012336
:104D800006460390029320468DE824001423102148
:104D900007F01AFE06220923029303960195204686
:104DA00000921423102107F00FFE04B070BD00BF65
:104DB00034A4FF1F70B5B94CB4F90030032B00F0D8
:104DC0000E81002B5DD0022B7CD0052B00F0A8803B
:104DD000012B00F0D180042B00D070BD00244FF4D3
:104DE000AF75E1B2AE4805F045FF01348542A8BF7A
:104DF00005460C2CF5D101200AF01EF8A94BAA4952
:104E0000323803FB00F06FF46772104481FB00310D
:104E10000144C317C3EBA1210028ACBF01F25F110D
:104E200001F5AF718D424FF00000A8BF0D460AF0AA
:104E300003F89C4B9C49323803FB00F06FF4677316
:104E4000184481FB00310144C317C3EBA1210028A2
:104E5000ACBF01F25F1101F5AF718D42A8BF0D46E5
:104E6000A5F11401312900F3A58040F26C733221C1
:104E70008E488F4A0180BDE870402A20136004F0FC
:104E800095B80E2008F092FA40F6FF71C8308842BB
:104E9000A8BF084620EAE07000F2DC5283B28A42E2
:104EA000844D854EA8BF0A460220194633802A80C9
:104EB00004F07CF82988042004F078F8B4F9003074
:104EC000022B82D1172009F0B7FF0546162009F002
:104ED000B3FFA842B8BF284600F1C801B1F5FA7F78
:104EE000C0F2C680B1F57A6FA8BF4FF47A6101F5C0
:104EF0004873B3F57A6FA8BF4FF47A639BB289B257
:104F00006E4A6F4D11800A202B8004F04FF82988DB
:104F10000C2004F04BF8B4F90030052B7FF458AFA7
:104F20000F2009F089FFC0F53F630433B3F5AF6F7D
:104F3000C0F29B80B3F5FA6FA8BF4FF4FA6399B241
:104F4000604BC0F54360B0F5AF6F1980C0F28A8046
:104F5000B0F5FA6FA8BF4FF4FA6083B25A4DA4209F
:104F60002B8004F023F82988A62004F01FF8B4F958
:104F70000030012B7FF42FAF0B2008F069FE0028D2
:104F800051D0112009F058FF00F1C801B1F52F7F71
:104F900051DB41F25C2399427EDC4C4A00F54870BB
:104FA00089B2B0F52F7F118073DB8342A8BF03461F
:104FB0009BB246E0B1F5AF7FA8BF4FF4AF71A1F54A
:104FC000AF7240F23A7303FB02F2414B963A83FB15
:104FD0000203D217A2EB631389B2323348E71020E1
:104FE00009F02AFFC830B0F5FA7F36DBB0F57A6FEA
:104FF0000146A8BF4FF47A6101F51673B3F57A6FD5
:10500000A8BF4FF47A639BB289B2324A324D118005
:1050100022202B8003F0CAFF2988242003F0C6FF3A
:10502000B4F90030CDE6152008F0C0F900F596710E
:10503000B1F52F7F21DA40F214534FF42F71234A38
:105040001180264D06202B8003F0B0FF2988082010
:1050500003F0ACFFB4F90030BDE640F24C434FF42E
:10506000FA71D2E74FF4AF6378E74FF4AF6167E7C7
:1050700040F214534FF4FA7142E741F25C23994233
:105080000ADC124A00F5617089B2B0F52F7F1180F9
:105090008BDA4FF42F73D4E71946D0E710A4FF1F23
:1050A0002CA2FF1FD4FEFFFFC70FB38DC8A3FF1FA5
:1050B000A48DFF1F1CA1FF1F3CA2FF1F6CA3FF1F9D
:1050C0008CA1FF1F40A2FF1F88A3FF1FE4A1FF1FA9
:1050D000B5814E1B38A3FF1F34A3FF1F9CA3FF1FE6
:1050E0002DE9F041224D82B0012602B284B2009235
:1050F000284601967823192107F0ACFB04F10C0235
:1051000012B28DE844002846A7197823192104F12A
:10511000020807F09FFB3FB20FFA88F819233A46BE
:10512000284619460196CDF8008007F093FB7823B6
:105130003A4628461946CDF80080019604F10A0740
:105140000B3407F087FB3FB224B278233A46284657
:1051500019468DE8500007F07DFB192300943A466C
:1051600001962846194607F075FB02B0BDE8F081AC
:1051700034A4FF1F30B583B000230C4605B2009362
:1051800026225B231C210C4807F0B4F82946012392
:105190002622094806F0CAFB002C24B205DB214672
:1051A00001232622044806F0C1FB044A044B158063
:1051B0001C8003B030BD00BF34A4FF1FBA8DFF1F99
:1051C000BC8DFF1F70B5BB4C237882B01BB1BA4BAE
:1051D0004FF6FF721A80B94BB3F9003003BBB84BDE
:1051E000B8481B68B4495A2283F30C0302FB03F34B
:1051F00003F2FF7380FB03201844DB17C3EBE020AE
:10520000B1F900301C30834256D04FF0FF31FFF728
:10521000B1FFAD4807F0D2F80023237002B070BD93
:10522000012B25D0022B68D0032B4BD0042B00F090
:10523000AC80052BF0D10F2009F0FEFDC0F53B60DE
:105240000830B0F5AF6F56DBB0F5FA6FA8BF4FF47A
:10525000FA60A0F5AF625A2303FB02F39B4803F503
:10526000967380FB0320DB17C3EBA0101C301EE0FD
:10527000974B1B78002B78D0152008F097F8954BAA
:105280001860B0F52F7F36DB41F25C239842A8BF4F
:105290001846A0F52F705A2303FB00F38E4803F540
:1052A000FA6380FB0320DB17C3EB20201C30824B0A
:1052B000B3F900308342A8D1884BB3F900300133F1
:1052C000A3D1A9E7864B1B68B3F5FA7F13DBB3F5CF
:1052D0007A6FA8BF4FF47A63A3F5FA725A2303FBDF
:1052E00002F3804803F2D66380FB0320DB17C3EB95
:1052F00060201C30DBE71C20D9E77B4B1B68B3F533
:10530000FA7F3ADBB3F57A6FA8BF4FF47A63A3F55F
:10531000FA725A2303FB02F3724803F2D66380FB4E
:105320000320DB17C3EB60201C30704B1B68B3F508
:10533000FA7F20DBB3F57A6FA8BF4FF47A63A3F549
:10534000FA725A2303FB02F3664903F2D66381FB28
:105350000321DB17C3EB61211C31574BB3F900303C
:1053600083420CD0FFF706FF53E7112009F064FDDC
:10537000584B186085E71C21EFE71C20D5E7574BF9
:10538000B3F900308B42EDD146E7272200258DE8A6
:10539000240076231C214C484C4E07F05BFA17E0A2
:1053A000B0F5AF7FA8BF4FF4AF70323803FB00F306
:1053B000963386FB0321DB17C3EB61111C3109B265
:1053C00001231D442722404806F0B0FA0C2D09D0D5
:1053D000E9B2474805F04EFC31284FF05A03DFDCB4
:1053E0001C21EDE7012009F027FD424B424A3238EB
:1053F00003FB00F36FF46770034482FB0312D118C0
:10540000DA17002BC2EBA122B4BF02F5AF7302F290
:105410005F13312B4BDDB3F5AF7FA8BF4FF4AF73F4
:105420005A22323B02FB03F3284D963385FB0325BA
:10543000DB17C3EB65151C35002009F0FDFC2D4B77
:105440002D4A32386FF4677103FB00F30B4482FB83
:105450000312D118DA17002BC2EBA122B4BF02F558
:10546000AF7302F25F13312B1FDDB3F5AF7FA8BF1F
:105470004FF4AF735A22323B02FB03F313499633C6
:1054800081FB0321DB17C3EB61111C310A4BB3F91C
:105490000030AB4201D0284664E7104BB3F900302E
:1054A0008B423FF4B6AE28465CE71C21EEE71C2594
:1054B000C2E700BF0AA4FF1FBA8DFF1F10A4FF1F81
:1054C00070A3FF1F8100088034A4FF1FB5814E1B0D
:1054D00040A3FF1F14A1FF1FD34D6210BC8DFF1FFF
:1054E00098A1FF1F07FB7225C4A1FF1F5CA1FF1F2E
:1054F0002CA2FF1FD4FEFFFFC70FB38D2DE9F04391
:10550000764C054683B02046D5F80080EE6806F05C
:1055100049FE1120FFF7E4FD012719234FF0280968
:105520001946204601972422CDF8009007F092F901
:1055300078231946242201972046CDF8009007F0E1
:1055400089F93946204607F00FFD0223192240460B
:105550002382E2810DF0F4F84146024620460AF02B
:10556000B5FF20460AF0C8FF0027142303225C4938
:1055700023822046E7810AF0A9FF20460AF0BCFFFB
:105580002323204603225749E78123820AF09EFF06
:1055900020460AF0B1FF6EB12F20FFF7A1FD3223A4
:1055A00003225149E781204623820AF08FFF2046DB
:1055B0000AF0A2FF01234D4A18461370FFF7DAFBE9
:1055C00028896B896A68191A128867D001EBD17330
:1055D000121A5B105C2000FB023303FB01F2002A6D
:1055E00093FBF1F3ACBF1B331A331FFA83FE1BB2DC
:1055F0003F4A3A4F1A214FF001088DE80201384620
:10560000A2F800E01946142207F024F9002E4BD02E
:10561000288A6B8AEA68191A128842D001EBD17382
:10562000121A43FA08F35C2000FB023303FB01F279
:10563000002A93FBF1F3ACBF1B331A3399B21BB2B0
:105640002C4A26481180012638228DE8440019464C
:10565000322207F0FFF80022402309218DE80600DE
:105660001E48194607F0C4F831461C4807F07CFC78
:105670006B681A48022244212282E18119880AF0CB
:105680008FFF32461C4915480AF020FFEB6813488B
:10569000198803B0BDE8F0430AF082BF49239E4653
:1056A000A6E749231946CBE740230921324600915A
:1056B00038461946019607F09BF84146384607F0F0
:1056C00053FC6B6868210222F9813A8219883846B6
:1056D00003B0BDE8F0430AF063BF00BF34A4FF1F6E
:1056E00094380100983801009C380100BDA4FF1FC8
:1056F0000CA4FF1F0EA4FF1FA03801002DE9F04FDE
:105700001F4685B01446002A4ED0052A0646D0F81A
:105710000C8000F0B0800F9B8D4A00EBC305012C7C
:10572000B5F80AE029896868C1EB0E0382FB03C261
:105730001A444FEAE373C3EBA213028851D0042C3E
:1057400000F09280834D00220921402328468DE8F5
:105750000600194607F04CF82846012107F004FC22
:10576000B8F1000F00F0E9807368022244212A8218
:10577000E981198828460AF013FF77490122284653
:105780000AF0A4FEF368284619880AF009FF734B53
:10579000022CB3F9001000F0B280082C00F0CA808F
:1057A000012005B0BDE8F08F6D4E6E4A3368126877
:1057B000CB1A93420D465AD96B4A3B8811786548FB
:1057C000012918BF012414700E9A06321BB212B2BE
:1057D0008DE814001946BDF9382007F03BF8356014
:1057E000DEE79BB2D31A994203DC9E457146A8BFFF
:1057F00019460E9A0180B7F90030BDF938A0554816
:1058000002F106094FF0000E0FFA89F919465246C7
:10581000CDF80090CDF804E007F01CF829896B89D9
:105820006A685B1A128800F0828003EBD370511A09
:1058300042105C2000FB012202FB03F1002992FBD5
:10584000F3F3ACBF1B331A339AB21BB201213A8077
:105850004048019152461946CDF8009006F0FAFFF3
:10586000414B00221A706DE712FA83F3BBE7204622
:1058700005B0BDE8F08F374D4FF0070A4FF0000B31
:1058800028465A2323228DE8000C1A2106F0B0FF87
:105890002846012107F068FB4FF001094FF0350E53
:1058A0002323A5F80EE052462B823049A5F8149028
:1058B0002846A5F8129003930AF008FE28460AF03D
:1058C0001BFE284606F07AFD4FF4FA6008F0F6F960
:1058D000FFF770FA039B1A211A4628465A238DE8CF
:1058E000000C06F085FF284606F068FD3046FFF7FD
:1058F00005FE1F4B83F80090FFF764FC22E74A1C6B
:1059000012B21A8091423FF44BAF0E9AB7F90030B1
:1059100010480632012412B2009219460194BDF9D2
:10592000382006F097FF204605B0BDE8F08F4923E8
:105930001A468BE700221A80E4E773686821022286
:10594000E9812A82198828460AF02AFE1FE700BF4B
:10595000C94216B234A4FF1FA038010014A4FF1FCF
:105960009CA4FF1F8C490100BDA4FF1FA4380100A7
:105970000AA4FF1F2DE9F04F5A4E5B4DB6F9007097
:105980004C7855F8277085B08146984604B10C785C
:10599000DFF874A11AB99AF80030002B39D0534DB2
:1059A000002338462B808AF80030FFF7A7FD504AC5
:1059B000504BB5F90000012111704FF6FF721A80AB
:1059C00060B301285ED0012032232246019000936B
:1059D0004946494B3846FFF791FE00240346B5F986
:1059E0000020022A39DD00222A80B6F900203D4934
:1059F000002A3BDB052AC4BF00220A80B8F1000F51
:105A000039D1002C0CBF18464FF0FF3005B0BDE86F
:105A1000F08F364DB5F900000028D2D1DFF8ECB098
:105A2000364ADBF800301268C3EB0903934227D9EA
:105A3000334B1A78012A18BF01201870FFF79AF922
:105A40000123CBF80090012C2AD0042C35D0022C55
:105A50003AD0082C3ED00024C1E7C6D1FA68002A0B
:105A6000C1D0B6F900201F49002AC3DA05220A80F6
:105A7000B8F1000FC5D00393FFF7A4FB039BC0E769
:105A80000346E0E74FF0000E142322468DE808405D
:105A900049461C4B38467446FFF730FE03469EE7E6
:105AA00032888AF80040013232807A6982B100245B
:105AB000384603939047039B91E732880121013ACE
:105AC00032808AF80010F0E701222A8000248CE757
:105AD000144684E77A69002129804FF0FF34002AB8
