:1000000000800020BD01000025D60000DDD50000E5
:10001000DDD50000DDD50000DDD50000DDD5000018
:10002000DDD50000DDD50000DDD5000025D60000BF
:1000300025D60000DDD500009500010099000100E3
:1000400025D6000025D6000025D6000025D60000C4
:1000500025D6000025D6000025D6000025D60000B4
:1000600025D6000025D6000025D6000025D60000A4
:1000700025D6000025D6000025D6000025D6000094
:1000800025D6000025D6000025D6000025D6000084
:1000900025D6000025D6000025D6000025D6000074
:1000A000F1AB0000FDAB000025D6000025D6000016
:1000B00025D6000025D6000025D6000025D6000054
:1000C00025D6000025D6000025D6000025D6000044
:1000D00025D6000025D6000025D6000025D6000034
:1000E00025D6000025D6000025D6000025D6000024
:1000F00025D6000025D6000025D600008DE500009D
:1001000025D60000A1EC000025D6000025D6000071
:1001100025D6000025D6000025D6000025D60000F3
:1001200025D6000025D6000025D6000025D60000E3
:1001300025D6000025D6000025D6000025D60000D3
:1001400025D6000025D6000025D6000025D60000C3
:1001500065040100790401008D040100A10401007F
:1001600025D6000021F0000025D6000025D600008D
:1001700025D6000025D6000025D6000025D6000093
:1001800025D6000025D6000025D6000025D6000083
:1001900025D6000025D6000025D6000025D6000073
:1001A00025D6000025D6000025D6000025D6000063
:1001B00025D6000025D6000025D60000564B4CF26F
:1001C000205210B51A804DF628121A8000BF00BFC9
:1001D0000DF02CFA514B4FF010621A60504A9A60A1
:1001E000504ADA60504A136813F4807304D14F49BF
:1001F0000B604FF4A85313604D4B1A78110703D5C9
:100200001A7842F008021A704A4B4B492A221A7097
:100210004A4A4B4B8B4204D252F8040F43F8040B6A
:10022000F8E7484B484900228B4202D243F8042B9E
:10023000FAE74649464A002352F8230041F82300D2
:1002400001336F2BF8D1434B434A802103F8011B44
:100250009342FBD1414B3D4A1A60414B8A221A70AE
:10026000A3F5805324225A70A0221A709A7992071B
:10027000FCD59A79D406FCD43A4A937903F00C035E
:10028000082B384BF9D103221A7140225A719A79FE
:100290009006FCD5334A9179324B4906FBD5324A58
:1002A000324911600221516020221A709A7902F0BD
:1002B0000C020C2AFAD12E4B2E4A1A602E4B2F4AD2
:1002C0001A6000225A60072243F8042C2C4AC3F813
:1002D0000C2D62B60DF034FD144B1B68DA0705D502
:1002E00028480DF001FB284B284A1A60284B1B7840
:1002F0005B0609D5244C254B22689A4204D121483B
:100300000DF0F2FA0023236011F04EFC0DF094F989
:1003100010F042F9FEE700BF0E2005403080044097
:10032000823F04000100002B10D0034014D0034092
:1003300002D0074000E00740E4A0FF1FF859010089
:10034000308CFF1FE4A0FF1FECA8FF1F0082FF1FDF
:100350000000000000E400E05FE400E008ED00E0E1
:100360000050064000400640448004400000030165
:1003700004800440C010050014E000E0FF76010096
:1003800000002020BE680B641CE00340A5C3945A03
:1003900000F00740FFFFFFFFFFFFFFFFFFFFFFFF32
:1003A000FFFFFFFFFFFFFFFFFFFFFFFFFFFFFFFF5D
:1003B000FFFFFFFFFFFFFFFFFFFFFFFFFFFFFFFF4D
:1003C000FFFFFFFFFFFFFFFFFFFFFFFFFFFFFFFF3D
:1003D000FFFFFFFFFFFFFFFFFFFFFFFFFFFFFFFF2D
:1003E000FFFFFFFFFFFFFFFFFFFFFFFFFFFFFFFF1D
:1003F000FFFFFFFFFFFFFFFFFFFFFFFFFFFFFFFF0D
:10040000FFFFFFFFFFFFFFFFFFFFFFFFDEF9FFFF23
:1004100010B5054C237833B9044B13B10448AFF33E
:1004200000800123237010BDE4A0FF1F0000000026
:10043000F4590100084B10B51BB108490848AFF347
:1004400000800848036803B910BD074B002BFBD0A0
:10045000BDE81040184700BF00000000E8A0FF1FE3
:10046000F4590100E4A0FF1F0000000038B5044665
:10047000104621700A491D4611F07EF901464FF0E1
:100480007E5011F02DFA074911F076F9E5606060B1
:10049000256165610DF0E4FBE061204638BD00BFD9
:1004A000DB0FC9400024744938B50446104621705A
:1004B00009491D4611F060F901464FF07E5011F0D8
:1004C0000FFA064911F058F9E56060602561656131
:1004D0000DF0C6FBE06138BDDB0FC9400024744954
:1004E00038B503780446032B20D8DFE803F01A1848
:1004F0001002C168406911F035F80D490546606881
:1005000011F0EEF90146284611F0EAF938BD084924
:10051000406811F0E5F9E16811F02EF938BDC068C6
:1005200038BDC168406911F01DF838BD002038BDE4
:100530000024744970B504460E460DF091FB054643
:10054000E069281A11F0C4F8E3682361E561666187
:10055000A0610146606811F0C3F90146A06010482F
:1005600011F0BEF910F094FC10F02EF910F0A6FF77
:10057000054601464FF07E5010F0F4FF616911F01E
:10058000FBF821690646284611F0F6F80146304688
:1005900010F0EAFFE0602046BDE87040FFF7A0BF22
:1005A000000080BF10B50E200CF0F4FE1E4B1B881F
:1005B000012B32D01D4B1C88A0421BDB40F6FF7282
:1005C000C4F57F61904201F10F01A8BF1046B9B197
:1005D000001B01EBD173C0EB003000EB630303FBA6
:1005E00001F2002A93FBF1F111DB2820BDE8104055
:1005F0000DF08CB9C4F57F610F3120460029E7D199
:1006000040F2FF712820BDE810400DF07FB901399C
:100610002820BDE810400DF079B90146BDE8104032
:1006200014200DF073B900BF70A3FF1F38A2FF1F85
:1006300070B50C46054634F8023B182B0BD003442A
:10064000A3F118007F283EDC002858DB334BC0B2F2
:10065000197808F053FB324E3278013202F003026F
:10066000D3B2337034F81200182810D10422032BAF
:1006700003F10101CBB20ABF002359001946605AA9
:10068000182803D1013AF2D1337070BD3370284479
:10069000A0F118037F2B08DC002B22DB1F4AD8B205
:1006A0001178BDE8704008F029BB1E4B973883FBDA
:1006B0000032C317C3EB620303EB4303A0EB8300D9
:1006C00000F17303EAE7174A973B82FB0321DA172D
:1006D000C2EB610202EB4202A3EB820303F173005F
:1006E000B4E710485A4280FB0230D317C3EB6000D6
:1006F00000EB4000A2EB8000C0F10C03CEE7094BF9
:10070000424283FB0230D317C3EB600303EB430386
:10071000A2EB8303C3F10C0098E700BF04A2FF1F04
:10072000988DFF1FABAAAA2AF8B5814B814D1B8873
:10073000C31A044685FB0306D817C0EB660000EB1E
:100740004000A3EB800303EB43039B00CE18C85883
:100750002044002A3DD07F2840F38180A0F17F0310
:1007600085FB0320DA17C2EB600000EB4000A3EB2F
:1007700080007330704F714D3978C0B208F0BEFA06
:100780002B88022B7AD9706820447F2877DC0028D8
:10079000C0F2BF80C0B2397808F0B0FA2B88032BC2
:1007A0006CD9B06820447F2840F38580614CA0F16B
:1007B0007F0384FB0320DA17C2EB600000EB4000EC
:1007C000A3EB800073303978C0B2BDE8F84008F080
:1007D00095BA7F2834DDA0F17F0385FB0320DA176B
:1007E000C2EB600000EB4000A3EB80007330534D80
:1007F000C0B208F0A7FA2B88022B3FD970682044BA
:100800007F284ADC002876DBC0B208F09BFA2B88F0
:10081000032B33D9B06820447F285CDD454CA0F120
:100820007F0384FB0320DA17C2EB600000EB40007B
:10083000A3EB80007330C0B2BDE8F84008F082BA84
:100840000028D4DA4342D81785FB0325C0EB6505A1
:1008500005EB4505A3EB8505C5F10C00C7E70028AE
:1008600088DA434285FB0320DA17C2EB600000EB15
:100870004000A3EB8000C0F10C007BE7F8BD2D4ADF
:10088000A0F17F0382FB0320DA17C2EB600000EBCC
:100890004000A3EB800073307CE7264AA0F17F0381
:1008A00082FB0320DA17C2EB600000EB4000A3EBF1
:1008B00080007330A8E7002885DA1E4A434282FB95
:1008C0000320DA17C2EB600000EB4000A3EB8000CE
:1008D000C0F10C0077E70028ADDA164A434282FBEC
:1008E0000320DA17C2EB600000EB4000A3EB8000AE
:1008F000C0F10C009FE70F4A434282FB0320DA1746
:10090000C2EB600000EB4000A3EB8000C0F10C00E4
:100910007AE7084A434282FB0320DA17C2EB600001
:1009200000EB4000A3EB8000C0F10C0032E700BFF9
:100930005CA3FF1FABAAAA2A04A2FF1F66A1FF1F88
:100940002DE9F8439F4B1B88013B092B00F2EF80F8
:10095000DFE803F00A10161C22282EBCC1059A49B4
:10096000BDE8F843FFF764BE01229849BDE8F843AB
:10097000FFF7DABE01229649BDE8F843FFF7D4BE7F
:1009800001229449BDE8F843FFF7CEBE0122924907
:10099000BDE8F843FFF7C8BE01229049BDE8F8431F
:1009A000FFF7C2BE01228E49BDE8F843FFF7BCBE87
:1009B0008C4B8D4A1B88044610881D18002800F0B7
:1009C0008F808A4A12880332934200F38980022D75
:1009D00040F3AD80DFF82C928549B9F80020DFF8AC
:1009E0002882844FA21A81FB0230D317C3EB600028
:1009F000B8F8003000EB4000A2EB800203EBC30329
:100A000002EB42021B0103EB82033B445868204483
:100A10007F2840F3AA80A0F17F0381FB0320DA172F
:100A2000C2EB600000EB4000A3EB80007330724E1D
:100A3000C0B2317808F062F9032D78D0B9F80020FF
:100A40006B48B8F80030A21A80FB021ED117C1EB28
:100A50006E0101EB410103EBC303A2EB81011A011B
:100A600001EB410302EB83033B449B6823447F2B50
:100A70006CDDA3F17F0280FB0230D317C3EB600370
:100A800003EB4303A2EB83037333D8B2317808F04E
:100A900035F9042D4BD0554B1B88012B47D1A4F1C0
:100AA0000C007F2871DD524BA4F18B0083FB0032D8
:100AB000C317C3EB620303EB4303A0EB8300733064
:100AC0003178C0B2BDE8F84308F018B94B49BDE829
:100AD000F843FFF7ADBD4A49BDE8F843FFF7A8BDAD
:100AE000484B43491B88484FE31A81FB0326DA171A
:100AF000C2EB66063A883F4F06EB4606A3EB860339
:100B000002EBC20203EB4303120102EB8303A0EBEF
:100B10008000FB58234403EB80007F2809DC002879
:100B200043DB354BC0B2197808F0E8F84FE7BDE871
:100B3000F883A0F17F0381FB0320DA17C2EB60008A
:100B400000EB4000A3EB80007330EAE7002B9CDA57
:100B50005A4280FB0230D317C3EB600000EB400029
:100B6000A2EB8000C0F10C038FE70028BFF65FAF57
:100B70004342D81781FB0321C0EB610101EB410126
:100B8000A3EB8101C1F10C0051E7002898DA184A63
:100B9000434282FB0320DA17C2EB600000EB400007
:100BA000A3EB8000C0F10C008AE74342D81781FB19
:100BB0000321C0EB610101EB4101A3EB8101C1F114
:100BC0000C00AEE73AA3FF1F48A1FF1F84310100CC
:100BD000A83401003835010018340100BC37010089
:100BE0006436010066A1FF1F0CA2FF1F8EA1FF1F2C
:100BF000ABAAAA2A802E010004A2FF1F30A1FF1F6A
:100C00003CA1FF1F5CA3FF1F26A3FF1F0A88182A11
:100C100038B50C46054609D00244A2F118007F28D9
:100C200029DC002848DBC0B208F08CF8294B197881
:100C300004EB41046388182B2BD02B44A3F118003C
:100C40007F2806DC002825DBC0B2BDE8384008F06C
:100C500079B82148973B80FB0320DA17C2EB60008C
:100C600000EB4000A3EB800303F17300C0B2BDE8CA
:100C7000384008F067B81848973A80FB0230D3171D
:100C8000C3EB600000EB4000A2EB800202F17300B6
:100C9000C9E738BD104B424283FB0230D317C3EB88
:100CA000600303EB4303A2EB8303C3F10C00C0B268
:100CB000BDE8384008F046B8074A414282FB01329D
:100CC000CB17C3EB620202EB4202A1EB8202C2F13C
:100CD0000C00A8E7988DFF1FABAAAA2A2DE9F843BC
:100CE000A54B1B88013B092B00F20381DFE813F0C1
:100CF0000F0015001B00210027002D003300F70016
:100D0000FC000A009D49BDE8F843FFF77FBF0022C1
:100D10009B49BDE8F843FFF707BD00229949BDE8AC
:100D2000F843FFF701BD00229749BDE8F843FFF7FC
:100D3000FBBC00229549BDE8F843FFF7F5BC002253
:100D40009349BDE8F843FFF7EFBC00229149BDE8A5
:100D5000F843FFF7E9BC904E04463088002800F0C5
:100D6000CA808E4B8E4D1A882B880332934234DD15
:100D70008C4B8D491B88DFF840E2E31A81FB032787
:100D8000DA17C2EB6707BEF80020DFF820E207EBB6
:100D90004707A3EB870302EBC20203EB43031201F5
:100DA00002EB8303A0EB80005EF80330234403EBE7
:100DB00080007F2840F3A180A0F17F0381FB032006
:100DC000DA17C2EB600000EB4000A3EB8000733049
:100DD000C0B207F0B7FF2B8830881844022840F3D0
:100DE0008880DFF8C0917049B9F80020DFF8C88129
:100DF0006E4FA21A81FB0230D317C3EB6000B8F824
:100E0000003000EB4000A2EB800203EBC30302EBD7
:100E100042021B0103EB82033B44586820447F28B5
:100E200040F38A80A0F17F0381FB0320DA17C2EB35
:100E3000600000EB4000A3EB80007330C0B207F00D
:100E400081FF2A8833881344032B52DDB9F8002030
:100E50005548B8F80030A21A80FB021ED117C1EB2A
:100E60006E0101EB410103EBC303A2EB810101EB36
:100E700041011A0102EB81033B449B6823447F2B11
:100E80004BDDA3F17F0280FB0230D317C3EB60037D
:100E900003EB4303A2EB83037333D8B207F052FF93
:100EA0002A8833881344042B23DD3C4B1B88012BF9
:100EB0001FD1A4F10C007F284EDD3B4BA4F18B0029
:100EC00083FB0032C317C3EB620303EB4303A0EBC6
:100ED00083007330C0B2BDE8F84307F033BF344934
:100EE000BDE8F843FFF792BE3249BDE8F843FFF78B
:100EF0008DBEBDE8F8832A4D3AE70028BFF668AFFB
:100F00004342D81781FB0321C0EB610101EB410192
:100F1000A3EB8101C1F10C005AE7002BBDDA5A4264
:100F200080FB0230D317C3EB600000EB4000A2EB64
:100F30008000C0F10C03B0E70028BFF67FAF43424A
:100F4000D81781FB0321C0EB610101EB4101A3EB49
:100F50008101C1F10C0071E70028BBDA124A43425B
:100F600082FB0320DA17C2EB600000EB4000A3EB2A
:100F70008000C0F10C00ADE73AA3FF1F48A1FF1F9E
:100F800084310100A8340100383501001834010013
:100F9000BC370100643601000CA2FF1F8EA1FF1FA9
:100FA00066A1FF1F5CA3FF1FABAAAA2A802E010027
:100FB00030A1FF1F3CA1FF1F26A3FF1F10B5044651
:100FC0000FF02EFA204610BD70B44C88A04220D9F4
:100FD00001230133DBB21CB2660031F814408442B5
:100FE0001D46F6D3A04211D005F10045013D965BA8
:100FF00031F8151032F81530401AF21A00FB02F0E1
:10100000641A90FBF4F4E01870BC7047905B70BCFD
:10101000704702260125E5E738B5274B1B78002BE2
:1010200037D015200CF0B6F9244B1860244B1B88E0
:10103000984204DA234C2378002B32D138BD224A5F
:101040001288D11A2BD08242D4BFC3EB0203C3EB68
:10105000000301EBD174C3EBC31303EB640303FB85
:1010600001F2002A93FBF1F4B8BF04F1FF34002C25
:10107000E0D0144B1A780AB901221A70134D2B686C
:101080009C4204D0124BE1B2187807F007FE2C60A6
:1010900038BD11200DF0C4FE084B1860C6E73F2490
:1010A000E7E70B4B0021187807F0F8FD0023074A0B
:1010B0002370136038BD00BF3CA3FF1F14A1FF1FA6
:1010C000E0A1FF1FF8A3FF1F98A3FF1FF0A3FF1FBE
:1010D00098A1FF1F10B51A4B1B784BB315200CF0CD
:1010E00059F9184B1860184A1278EAB1174A19686A
:1010F00013888B4218DC164A1088C41A1ED004EBE1
:10110000D4728142D4BFC3EB0103C3EB000352107E
:1011100002EB830303FB04F2002A93FBF4F300DAEF
:10112000013B0C4A136010BD0A4B00221A6010BD2F
:1011300011200DF075FE034B1860D4E70223F0E791
:101140003CA3FF1F14A1FF1F64A1FF1FE0A1FF1F0D
:1011500098A3FF1F18A2FF1F38B50F200DF060FEE7
:10116000204B214A1B881060C0F53B600830984234
:1011700028DB1E4A1288D11A28D09042D4BFC3EB74
:101180000003C3EB020301EBD174C3EBC31303EB06
:10119000640303FB01F2002A93FBF1F4B8BF04F1EE
:1011A000FF347CB1124B1A780AB901221A70114D22
:1011B0002B68A34204D0104BE1B2187807F06EFD03
:1011C0002C6038BD0A4C237813B938BD3F24E9E7B9
:1011D000094B0021187807F061FD0023054A2370B0
:1011E000136038BD3CA2FF1F28A1FF1F84A3FF1F6F
:1011F000A8A3FF1FECA1FF1FD6A1FF1F521A0FD0FB
:10120000411A002B03FB01F102EBD2700CDB01EB66
:10121000600101FB02F3002B91FBF2F00EDB704743
:1012200003EBD37358107047A1EB600101FB02F38D
:10123000002B91FBF2F003DB01307047013870475F
:10124000704700BF521A10D010B402EBD274411A8A
:10125000641003FB014303FB02F1002993FBF2F04E
:1012600010BCB8BF00F1FF3070475810704700BF86
:1012700070B50E4615460446184610F043FCAA1BEE
:101280000FD0A41B002800FB04F402EBD2700CDB8F
:1012900004EB600404FB02F3002B94FBF2F00EDB82
:1012A00070BD00EBD070401070BDA4EB600404FB77
:1012B00002F3002B94FBF2F003DB013070BD013828
:1012C00070BD70BDF0B40E8886420DD203F10043AC
:1012D000013B31F81350854202D9F0BCFFF774BED0
:1012E00032F81300F0BC70471088F0BC704700BFA4
:1012F000094B1B880C2B09D8084A80B252F82320CE
:1013000028B143F6FE73984203D9108C70471088B9
:1013100070470349FFF758BE62A1FF1FC0300100AC
:10132000CC320100494A4A4B2DE9F0471B6814882A
:10133000484AA3422546178866DBBB42A8BF3B4606
:10134000454A9C4298461360C8BF23465FDD381B60
:1013500057D01B1B00EBD072C3EB833303EB62034C
:1013600003FB00F2002A93FBF0F06DDBFFF7C0FFF8
:101370003A4A3B4B16881B88C0F3C61909FB06F690
:101380007F2E8246A8BF7F26002B37D0444543DD01
:101390003A4621462846FFF755FF324B1860324C3B
:1013A0002368994509D0314B1B88002B46D1304B1F
:1013B0001B88002B3ED1C4F800902E4C23689A4520
:1013C00006D02A4B1B885A1F032A2AD9C4F800A02A
:1013D000294C23689E420FD0284B188848B1234BD4
:1013E000274A1B88D35C834203D0C0B2F1B207F016
:1013F00055FC2660BDE8F087BDE8F087194A136008
:10140000CDE741F6FF70B1E7134BA0461C6047459E
:101410003B46A8BF43469AE7B8454546A8BF3D4668
:10142000B6E7174AD05C2030C0B20AF07F0107F05F
:1014300035FCCBE7484607F0D1FCBCE7104A4946EB
:10144000D05C07F02BFCB2E701388FE738A2FF1F12
:101450006CA3FF1FCCA3FF1F08A1FF1F1CA1FF1F30
:101460001EA1FF1FD0A3FF1FD0A1FF1F52A3FF1F6C
:101470002EA2FF1F5CA1FF1F30A2FF1F62A3FF1F50
:10148000A88DFF1F2DE9F04F17208DB00DF0C8FC7F
:10149000DFF880B3DFF880A3CBF8000016200DF052
:1014A000BFFCBC4BCAF800001B880C2B00F0E0818D
:1014B000B94A00211F2B117039D0DFF86093B74B68
:1014C000B9F80020B64F53F8226000233B70B54BAB
:1014D000B54A1B88B5491288013B012A31F91330FE
:1014E000089300F0E181B24B0393B24B0293B24BED
:1014F0000593B24C00230193B14B1B88012B00F0E4
:101500001D82B04BDFF818830493AF4B0693D8F8D5
:10151000005000230793AD4B1B88013B032B00F2C7
:101520004A82DFE813F0F200D00013001401A84B48
:10153000DFF8E8921B78B9F80010984A984F52F8F3
:101540002160003318BF01233B70C0E7284610F02C
:10155000BFF8A04910F010F90546079810F0B8F848
:101560009D4910F009F9014628460FF0FDFF10F0E3
:10157000C9FA0546C8F80050206810F0A9F8954946
:1015800010F0FAF88046019810F0A2F8924910F095
:10159000F3F8014640460FF0E7FF10F0B3FA206081
:1015A0008E4B8F4A1B8812888E49DBF800800C888E
:1015B0008D49C3EB050E1D44049BC3F800E0831A5C
:1015C0001044069A1560039A0D881360059BA04588
:1015D0001860C0F2498145452846A8BF40463346B9
:1015E0002A462146FFF70AFEDAF800A05445834652
:1015F00000F33C8155452846A8BF50462A4633464D
:101600002146FFF7FBFDA04500F310815445C0F2D1
:101610000D81DFF81092D9F8000010F059F87349E5
:1016200010F0AAF872490FF09FFF10F06BFAA0F5C6
:10163000FF531C3B082B98BF4FF40050029BDFF870
:10164000E8811C6843F6FF750444AC42A8BF2C46F1
:1016500024EAE474C9F80040204610F039F88146C5
:10166000387806FB00F010F033F84FF07A5110F0A4
:1016700083F8014648460FF075FF10F043FA5D4BC2
:10168000A842A8BF28461B7820EAE070C8F80000EE
:10169000002B00F0DD80B4F5005F00F0D98004F08D
:1016A0002FFA554BD8F8000001221A70534C2368CA
:1016B000834205D080B207F0C1FAD8F80030236029
:1016C0000DB0BDE8F08F284610F002F84C4910F03C
:1016D00053F8054607980FF0FBFF4A4910F04CF805
:1016E000014628460FF040FF10F00CFA0546C8F8F6
:1016F000005020680FF0ECFF414910F03DF88046A3
:1017000001980FF0E5FF3F4941E728460FF0E0FF61
:101710003D4910F031F8054607980FF0D9FF3B49D5
:1017200010F02AF8014628460FF01EFF10F0EAF9E3
:101730000546C8F8005020680FF0CAFF324910F083
:101740001BF8804601980FF0C3FF30491FE7284679
:101750000FF0BEFF254910F00FF8054607980FF06F
:10176000B7FF2B4910F008F8014628460FF0FCFEA1
:1017700010F0C8F90546C8F8005020680FF0A8FF1F
:101780001A490FF0F9FF804601980FF0A1FF204998
:10179000FDE600BF9AA3FF1F0EA1FF1F648DFF1F70
:1017A0007EA3FF1F268DFF1F72A3FF1F243601009B
:1017B000F4A3FF1FA4A3FF1FFCA1FF1F00A1FF1F95
:1017C00016A3FF1F8CA3FF1F1CA3FF1F388DFF1F35
:1017D00050A3FF1FCDCC4C3FCDCC4C3EB48DFF1F52
:1017E000308DFF1F68A3FF1F88A1FF1F9A99193F23
:1017F000CDCC4C45B6A4FF1F2CA2FF1F288DFF1F88
:101800006666663FCDCCCC3D3333733FCDCC4C3D8B
:10181000CDCCCC3EC0A1FF1F58A1FF1FC4A1FF1F0C
:1018200088A3FF1F9C8DFF1F348DFF1FB9F8003068
:10183000002B3FF4EEAEC0EB0B03002BB8BF5B42B6
:10184000092B00F3BA804FF40050DFF8F892F5E668
:10185000A84C2378002B3FF429AF04F04DF9002366
:10186000D8F80000237021E72046B8E62046C5E6F8
:10187000A14B1B78002B00F0C180DFF8CC929F4B6E
:10188000B9F800109E4A9F4F53F821000023012110
:1018900011703B700FF01CFF4FF07C510FF06CFF8C
:1018A00010F030F9064612E6974B984A1B88984983
:1018B0001278013B31F91380002A40F09A80112000
:1018C0000DF0AEFA0190934B03931D68019B9D426E
:1018D00040F39780904B914C1B882268904904916B
:1018E000012B904B1B8805938F4B0293C8EB02088A
:1018F000304600F02D810FF0EBFE059B049951F866
:1019000023108A4B05930FF037FF014600200FF09C
:1019100029FE03460198404542462946B8BF404645
:10192000FFF7A6FC02990B681844814B1B8800EB5B
:10193000D0704010012B08607FF4E3AD7D4B049321
:101940001D460F200DF06CFA2B6807909842099302
:1019500080F28780704BDFF8F4811B88012B714B7C
:1019600000F0B3801A886E4B0A92304606930FF04F
:10197000AFFE069B0A9AD8F8005053F822106E4B1F
:1019800006930FF0F9FE089B0146EA1A0020089220
:101990000FF0E8FD089A0999034607989042B8BFEE
:1019A0001046FFF765FC029A1368184400EBD070EC
:1019B00040101060AFE52068F2E50BF5005B0BF11D
:1019C000010BC0EB0B000FF083FE5C49DFF8749154
:1019D0000FF0D2FE0446D9F800000FF079FE584906
:1019E0000FF0CAFE014620460FF0BEFD10F08AF847
:1019F00024E615200BF0CEFC019064E7404A1370FA
:101A00005BE54A4B05931D68019B9D421FDA424BE3
:101A1000424C1B88226842490491012B414B1B8890
:101A20000693414B02939044304600F0A6800FF09D
:101A30004FFE0499069B51F823100FF09DFE0346BC
:101A40000198404542462946A8BF404668E7364BC4
:101A5000029319461B68314C03EBD3735B100B6088
:101A60004AE5354B0693079A1B6809939A4221DD94
:101A7000294BDFF8D8801B88012B2A4B00F08A8085
:101A80001988274B0B9130460A93D8F800500FF075
:101A90001FFE089B0B992B4408930A9B53F82110B7
:101AA0000FF06AFE089A0999034607989042A8BF6A
:101AB000104676E7029ADFF894801368D8F8005051
:101AC00003EBD3735B10136025E51988144B0A915F
:101AD00030460693D8F800500FF0FAFD089B0A999B
:101AE000EA1A069B089253F82110134B06930FF045
:101AF00043FE4FE72CA2FF1F50A3FF1F648DFF1F63
:101B00000EA1FF1F7EA3FF1FB88DFF1F3CA3FF1F69
:101B100014320100F4A3FF1F02A2FF1F00A1FF1F48
:101B20003C3601008CA1FF1FA4A3FF1FFCA1FF1FD7
:101B300016A3FF1F8CA3FF1F1CA3FF1FCDCCCC3E01
:101B40009A99193F9C8DFF1FC4A1FF1F88A3FF1FF7
:101B50000FF0BEFD059B0499224A51F8231005920F
:101B60000FF00AFE03460198404529464246B8BF99
:101B70004046FFF77DFB1C49D5E60FF0A9FD069B0B
:101B8000049951F823100FF0F7FD014600200FF0E3
:101B9000E9FC54E71A88154B0B9230460A930FF074
:101BA00097FD0B9A0A9BD8F8005053F822100FF0BB
:101BB000E3FD089B01462B44002008930FF0D2FC64
:101BC000089A0999034607989042A8BF1046FFF764
:101BD0004FFB029A1368184400EBD0704310136057
:101BE00099E400BFFCA1FF1FA4A3FF1F3C36010026
:101BF00008B5244B1B88FBB1234B1B78FBB1234B4F
:101C00001B78E3B1224B1B78CBB1224B1B78B3B1CD
:101C1000214B22481A78C2B9214A224900881288E9
:101C200009680244B1EB620F09DD01221A706420D9
:101C3000BDE8084003F078BF174A117801B908BD24
:101C40001370BDE8084007F09DB8154A1649008892
:101C5000128809680244B1EB620FF0DD00221A70AD
:101C600007F090F8642003F05FFF642003F05CFF4E
:101C7000642003F059FF4FF41670BDE808400CF0E3
:101C800011B800BF2EA3FF1FFCA3FF1FC6A3FF1F99
:101C9000C7A3FF1FC8A3FF1F60A1FF1F88A1FF1FCD
:101CA00068A3FF1FC0A1FF1F58A1FF1F38B5114C2B
:101CB000232025780BF06EFB0F4A42F82500131FF6
:101CC00002F1C400002253F8041F83420A44FAD1EF
:101CD00023780A4907480A4C0133DBB2322B81FBD7
:101CE000025108BF0023D217C2EB211203702260F9
:101CF00038BD00BF20A1FF1F48A2FF1F1F85EB5169
:101D000064A3FF1F2DE9F04FB64CB74D2068B74FC5
:101D100083B00FF0DDFCB6490FF02EFD0646102013
:101D20000DF07EF80FF0D4FCB2490FF025FD3146DE
:101D30000FF01AFC0FF0E6FE2A88206090429646CB
:101D400039884ADA1346B1EB020C44D09B1AC3EB34
:101D5000C3160CEBDC7306EB630303FB0CF6002EDF
:101D600093FBFCF3C0F27681A34EDFF8B482B6F8A1
:101D700000C0C8F80030BCF1190F00F0E080BCF1E1
:101D80001A0F00F02281BCF11E0F00F04F810126D6
:101D9000B0469A4B1B88002B00F09E809446984AD0
:101DA0001288032A00F20881704580F255810A46A4
:101DB00070466146FFF746FA924B1860924B1888BE
:101DC00080B9924A12886AB9914B197801B11A7098
:101DD00003B0BDE8F08F3F23C6E788420346A8BFA3
:101DE0000B46B0E72A882168DFF8FC91DFF8F4A100
:101DF0008A4279DCDFF818E29EF800C0BCF1000FDF
:101E000034D14FF0010C04288EF800C02ED1002EE2
:101E100040F0C3817D4B18880028D9D0B8F1000F5D
:101E2000D6D023682A883C88934280F29781134653
:101E3000A41A00F091819A1A04EBD473C2EB8212B7
:101E40005B1003EB420303FB04F2002A93FBF4F460
:101E500000DB01346F4D2B68A34203D0C0B2E1B266
:101E600006F01CFF2C6003B0BDE8F08F012800F0E5
:101E70001B81022800F00D810328CBD1664B1B8803
:101E8000092BC7D0002EC5D023682A883E889342EC
:101E900080F2A7811346B61A00F0A1819A1A06EBC8
:101EA000D673C2EB82125B1003EB420303FB06F214
:101EB000002A93FBF6F600DB0136DFF860A1DAF8C2
:101EC0000030B34203D0F1B24A2006F0E7FECAF870
:101ED00000609FE798460126BCF11E0F7FF46EAFAD
:101EE0000023DFF84091ACE0494B1A78002A3FF418
:101EF0006FAF002401281C7000F0BE80022840F063
:101F00003181002E00F0BE80444D2B68002B00F084
:101F1000B9800420214606F0C1FE3C4B2C60188895
:101F200000283FF455AFB8F1000F3FF451AFC0B2F5
:101F3000002106F0B3FE374B00221A6048E7DFF8B5
:101F4000E49099F80030CBB1DFF8C080B8F800A079
:101F5000BAF1000F12D0DFF8D08098F800B09B459E
:101F600000F093805FFA8AF07F2106F097FE99F8DF
:101F70000030B6F800C088F8003011E0DFF8A88023
:101F800098F800A09A4500F08080204B0021187836
:101F900006F084FE99F80030B6F800C088F80030EA
:101FA000164B1B88002B95D0BCF11E0F40F02881EA
:101FB00001264FF0000844E0704552DA6246704650
:101FC000FFF740F90F4B1860F8E6DFF8589099F8E2
:101FD0000030002B0BBF012600264FF000084FF009
:101FE0000108D6E694A1FF1F34A3FF1F30A3FF1FF3
:101FF0009A99193FCDCCCC3E9AA3FF1FD4A3FF1FC3
:1020000090A3FF1F40A2FF1FBEA1FF1FACA3FF1F95
:10201000A3A3FF1F7CA1FF1F52A3FF1F44A2FF1F0A
:1020200080A3FF1F50A3FF1F24A1FF1FDFF8F8911B
:10203000784B99F800601B88B6FA86F676094FF05F
:10204000000899F8002062B3B5F800C0206839880C
:10205000E646A4E6013B87E68842A8BF08468646D6
:10206000A5E68842A8BF0846864662467046FFF746
:10207000E9F8694B1860A1E626B1684D2B68002B82
:1020800040F08480664B18884AE701264FF000082C
:102090007FE6002E3FF4BEAEDFF880A1DAF8002024
:1020A00033E05D4B1A6089E6002E3FF4B3AEB7F81B
:1020B00000904945A8BF49460846B9EB020900F01F
:1020C000848009EBD971821A4910C2EB821201EBAC
:1020D000420202FB09F1002992FBF9F901DB09F147
:1020E0000109DFF838A1DAF800204A4506D05FFA86
:1020F00089F10120019306F0D1FD019B1888CAF8EF
:10210000009002287FF4B8AE4A4621682888B7F8C4
:1021100000E081425FDA0146BEEB000E58D0091A9A
:102120000EEBDE704010C1EB811100EB410101FBB1
:102130000EF0002891FBFEF901DB09F10109914540
:1021400006D05FFA89F10420019306F0A7FD019BF8
:102150001888CAF800908FE640247BE6A342A8BF07
:10216000234665E6032825D12E4B1B88092B89D0F1
:10217000002E87D0294D2B68002B83D04A20214682
:1021800006F08CFD264B2C601888C9E6214606F027
:1021900085FD234B2C601888C2E640207F210193E7
:1021A00006F07CFD019B188801281ED002287FF4D0
:1021B00063AE71E704287FF465AF002E3FF462AF91
:1021C0002146402006F06AFD5CE74FF0400988E7B1
:1021D0004FF04009B3E77145A8BF71469CE7402620
:1021E0006BE6B342A8BF334655E6B9F80000DAF80B
:1021F0000010B7F8009081420246FFF65EAF58E744
:10220000B5F800C020683988E64601264FF000087E
:10221000C5E500BFD4A3FF1F40A2FF1F44A2FF1FBC
:10222000ACA3FF1F52A3FF1F50A3FF1F08B5114B04
:102230001B88022B09D0052B07D0032B15D0042BAC
:102240000BD00D4B01221A7008BD7F21412006F0F2
:1022500025FD094B01221A7008BD7F21092006F0D7
:102260001DFD054B01221A7008BD4021092006F012
:1022700015FDE6E73EA2FF1FE2A1FF1F38B5074BA1
:10228000074D1B88052B044606D02B68834203D0DC
:10229000C1B2052006F002FD2C6038BD3EA2FF1F32
:1022A000B0A3FF1F38B5124D124C2B88052B12D04E
:1022B00022684AB9022B0ED0033B012B13D90E4AD8
:1022C00000231370236038BD0021052006F0E6FCD2
:1022D0002B88022B04D10021412006F0DFFCEEE721
:1022E000052BE9D1F7E70021092006F0D7FCE6E746
:1022F0003EA2FF1FB0A3FF1FE2A1FF1F38B53A4B5C
:102300001B881D2B37D0394D0024394B1B88022BDD
:1023100015D0384B1B88022B4AD02D88364B002C09
:102320001B780ADBAC42A8BF2C4634B1002B30D05E
:102330002046BDE83840FFF7A1BF33BB38BD2F4B67
:102340001B78002B2ED015200BF024F82C4B186096
:102350002C4A1288002ADCD02B4A18681188814246
:10236000D7DC2A4A2B8812889042A8BF1046FEF775
:1023700069FF0444CDE7234B1C888CB1244B1B4DD3
:102380001C78002CC1D02C88BFE7BDE83840FFF78F
:1023900089BFFFF74BFF2046BDE83840FFF76EBF0F
:1023A000124DB2E711200CF03BFD154B1860CFE742
:1023B0000F200CF035FD134B164A1B881060002BC4
:1023C000ABD0154BC0F53B60198808308842A4DBC0
:1023D000124B2D881A889042A8BF10462B46FEF754
:1023E00031FF04449AE700BF9AA3FF1FA0A3FF1F79
:1023F00072A3FF1F16A3FF1FE2A1FF1F3CA3FF1F35
:1024000014A1FF1F3EA2FF1FE0A1FF1F98A3FF1F03
:1024100050A3FF1F28A1FF1F3CA2FF1F84A3FF1F83
:1024200038B510200CF0FCFCC830B0F5FA7FC0F2D3
:102430001081B0F57A6F0146A8BF4FF47A6101F5BB
:102440001673B3F57A6FA8BF4FF47A639BB289B263
:102450009B4A9C4C11802220238006F09BFD218802
:10246000994D9A4C242006F095FD0E200AF092FF1B
:1024700040F6FF71C8308842A8BF084620EAE070E5
:1024800000F2DC5283B28A42A8BF0A4602201946F3
:1024900022802B8006F07EFD2188042006F07AFD44
:1024A00017200CF0BDFC044616200CF0B9FCA0422D
:1024B000B8BF204600F1C801B1F5FA7FC0F2C48070
:1024C000B1F57A6FA8BF4FF47A6101F54873B3F59F
:1024D0007A6FA8BF4FF47A639BB289B27C4A7D4C75
:1024E00011800A20238006F055FD21880C2006F07B
:1024F00051FD0F200CF094FCC0F53F610431B1F5A3
:10250000AF6FC0F2AB80B1F5FA6FA8BF4FF4FA61BC
:1025100089B2714BC0F54360B0F5AF6F1980C0F25E
:102520009080B0F5FA6FA8BF4FF4FA6083B26B4C9D
:10253000A420238006F02EFDA620218806F02AFD87
:102540000B200BF079FB002800F08F8011200CF09D
:1025500067FC00F1C801B1F52F7F80F2958040F251
:1025600014534FF42F715E4A11805E4C0620238075
:1025700006F010FD2188082006F00CFD00244FF421
:10258000AF75E1B2584808F069FB01348542A8BF35
:1025900005460C2CF5D101200CF042FC534B54495C
:1025A000323803FB00F06FF46772104481FB003196
:1025B0000144C317C3EBA1210028ACBF01F25F1196
:1025C00001F5AF718D424FF00000A8BF0D460CF031
:1025D00027FC464B4649323803FB00F06FF4677323
:1025E000184481FB00310144C317C3EBA12100282B
:1025F000ACBF01F25F1101F5AF718D42A8BF0D466E
:10260000A5F1140131292CDDB1F5AF7FA8BF4FF43E
:10261000AF71A1F5AF7240F23A7303FB02F2354B92
:10262000963A83FB0203D217A2EB631389B23233CB
:102630003148324A018013602A20BDE8384006F054
:10264000A9BC4FF4AF6372E740F214534FF4FA7130
:1026500044E740F24C434FF4FA71F9E64FF4AF61AE
:1026600057E740F26C733221E2E715200AF092FE40
:1026700000F59671B1F52F7FFFF671AF41F25C2343
:10268000994210DD19466EE741F25C239942F9DC6C
:10269000134A00F5487089B2B0F52F7F11800ADA2D
:1026A0004FF42F7361E70E4A00F5617089B2B0F5FF
:1026B0002F7F1180F4DB8342A8BF03469BB254E70F
:1026C00034A3FF1F30A3FF1F38A2FF1FCCA3FF1F9F
:1026D00068A3FF1F88A1FF1F3CA2FF1F84A3FF1F49
:1026E000E0A1FF1F98A3FF1F28A2FF1FD4FEFFFF3A
:1026F000C70FB38DB5814E1BC4A3FF1FA48DFF1F51
:102700002DE9F04F0C2083B00AF010FE0C200BF0E6
:10271000FBF9C149DFF888A314200BF005FABF4983
:10272000BF4807F06BFF022103200BF093FA022150
:1027300004200BF08FFA022105200BF08BFA022106
:1027400006200BF087FA01210A200BF083FA012101
:1027500009200BF07FFA01210D200BF07BFA0121FB
:1027600028200BF077FA012114200BF073FA0221D4
:102770000B200BF06FFA01210C200BF06BFA0021FB
:102780000C200BF053FA012121200BF063FA0221F7
:102790001C200BF05FFA01211B200BF05BFA0021DB
:1027A0001B200BF043FA1C200BF046FAB0FA80F322
:1027B0005B091A208AF800300BF0B2FC1F200021C0
:1027C0000BF074FC04200BF037FA002800F0F680C0
:1027D00005200BF031FA002800F06D810023914CA8
:1027E000062023700BF028FAB0FA80F35B094FF053
:1027F000000B8D4A137004F001FF2378002B40F08A
:10280000D880584606F0F0FB884B89491B88894DD3
:10281000894C8A4840F23A72A3F5AF7302FB03F386
:10282000963B002B81FB03214FEAE372844BA2EB22
:1028300061111B882B70D4BF3231313106230093D4
:10284000774A21600C235A2108F070FA002800F022
:1028500039817C4A7C481268DFF8489200230121C4
:10286000FDF722FE0B200BF0E7F9011E0CBF012340
:10287000002389F8003000F0BA80744F744D754E13
:10288000DFF8248200233B602B60336004240F2098
:102890000CF0C6FA336803440E2033600AF07AFD68
:1028A0003B6899F8002018443860002A7AD0152037
:1028B0000AF070FD2B681844286004F0010080F0D5
:1028C000010003F021F9B8F80030002B14BF4B20B1
:1028D000DC200BF0E7F9013CD9D1336839685B4A59
:1028E00028685D4F002BB8BF03330029B8BF033100
:1028F0008910116059495A4A098814889B10002888
:102900003360B8BF0330574E8210581A19442A60FA
:1029100031603860544D55485549161B22442E608D
:1029200002600B60BBF1000F65D1B8F80030002BDE
:1029300050D0504B012404201C600BF07DF918B9D5
:102940004D4B3C4A1C7010704C4B1B881C2B59D0B3
:102950004B4C04F1C80523200AF01CFD44F8040F79
:1029600001200BF09FF9AC42F5D19AF8003023B169
:10297000444B1B78002B40F09980002121200BF064
:1029800055F9414A414B1078187006F0C9FA03F026
:10299000B3F83F493F4845F6BF5203B0BDE8F04F9A
:1029A0000DF0F4BC11200CF03BFA2B6818442860A1
:1029B00083E703B0BDE8F04F07F034BD06200BF00D
:1029C0003BF900287FF404AF164C034620704FF00B
:1029D000010B0EE74FF4FA7003F0A6F803F090F83D
:1029E00005F072F94FF4AF600BF05CF9A1E711202C
:1029F0000BF030F941E7FFF713FDB8F80030002B7A
:102A000097D1E7E7244B18880028A1D0234BC0B208
:102A1000197806F043F99BE7001B374640420F0048
:102A20008895FF1F68A1FF1FFAA3FF1FC4A3FF1F04
:102A3000B5814E1BF8A1FF1FA48DFF1F28A2FF1F09
:102A4000D8A3FF1F2C8DFF1F9CA1FF1F18A1FF1FE4
:102A500000A1FF1F88A3FF1F8CA3FF1FB48DFF1FC2
:102A6000308DFF1F1CA3FF1FF4A3FF1FFCA1FF1F3E
:102A7000DCA3FF1F94A3FF1F2DA1FF1F9AA3FF1F1D
:102A800044A2FF1F36A3FF1F38A3FF1F14A3FF1F7D
:102A9000A5050000B8A3FF1F00A2FF1F90A1FF1F04
:102AA00018A3FF1F3CA3FF1F5EA3FF1F01212120CE
:102AB0000BF0BCF865E703200BF0BEF8B0FA80F32A
:102AC0005B098CE603200BF0B7F80028FAD104204C
:102AD0000BF0B2F80028F5D105200BF0ADF8002876
:102AE000F0D106200BF0A8F80028EBD10CF096FAF4
:102AF0002DE9F04F8DB009AD934F2C460CAE611B04
:102B0000C9B2924808F0AAF83B88834294BF0020DB
:102B1000012004F8010BA642F1D18D4B9DF82470E1
:102B20001E889DF826508B4B9DF828109DF82A0092
:102B30001F707B199DF82C20874CDFF86CC2DFF8E2
:102B40006CE225700B440344844C8CF80010134451
:102B5000DFF85CC28EF80000012EDFF858E28CF836
:102B60000020DBB2237088BF4FF0000C7C4C98BF74
:102B70004FF0010C8EF800C04FF0000E84F800E01A
:102B80008AB9002800F0EC81002900F011820423AA
:102B90002370DFF824E2734B0093032E00F064836C
:102BA00094F800C00AE0002900F0C1804FF0060C44
:102BB0006C4BDFF804E284F800C000936A4ADFF847
:102BC000FC91DFF8FC819DF825109DF827309DF8D9
:102BD0002900DFF8F0B1654D654F664E8EF800C0F4
:102BE00011709DF82BE09DF82D109DF82EC089F8EE
:102BF000003088F800009DF82F3085F800E00120B3
:102C00000192397033708BF800C00CF009F95A4901
:102C10005A4B0968019A8842CCBF4FF0010E4FF021
:102C2000000E83F800E040F34581554B1B88182BBC
:102C300000F24081A3F10C0A524B1B88002B40F09C
:102C40004081514B92F800E01B7899F8002098F8E9
:102C500000809BF800C094F800902C78A3EB4E0302
:102C6000A8EB880B9B1A5B44CCEB8C7BCCEB8B0CDE
:102C7000DFF81CB1634497F800C0BBF800B003EB69
:102C8000440334789C4404FB0BCB4FF00C0C3F4CBA
:102C90001CFB09BCC4F800C0B8F1000F0BD033789E
:102CA0004BB13B4B1B88042B0CBF0CF1020C0CF1FD
:102CB000040CC4F800C0374CDFF80C912688364B62
:102CC000D9F800901B88354CDFF800B12488BBF898
:102CD00000B0C6EBC6064E44DFF8F490033BD9F8CB
:102CE000009003EB43030CEB8303C4EBC4045B448D
:102CF0004C44DFF8E090A3F10C0B294B59F8266007
:102D000053F82440D3440BEB06032344BEF1000FD9
:102D100062D02C78002C5FD0002A40F03B81B8FABA
:102D200088F8204C4FEA581884F800805DE00028AD
:102D300000F006814FF0050C0A4B84F800C0DFF864
:102D400078E000933AE700BFC4A3FF1F28A2FF1F4B
:102D500010A3FF1FC6A3FF1FC7A3FF1F80A1FF1F54
:102D600024A3FF1FE8A3FF1FF9A3FF1FFDA3FF1F5D
:102D7000FEA3FF1FA2A3FF1FA48DFF1F50A3FF1FD1
:102D80009AA3FF1F0CA1FF1FB68DFF1F58A3FF1FA3
:102D9000CCA1FF1F90A3FF1F76A3FF1FE4A1FF1F7D
:102DA0005C320100D6A3FF1FC8A3FF1FC9A3FF1FEA
:102DB000CAA3FF1F74A3FF1F32A3FF1F33A3FF1F6C
:102DC000FBA3FF1FFCA3FF1F40A2FF1F22A1FF1FA9
:102DD000D0A3FF1F38330100AC4C002525701AB179
:102DE0003A78002A40F0A2800022A94C8842227042
:102DF000C8BFA84AA849C8BFC2F800C0A74A1288DD
:102E0000042A8CBF0120002008707AD9A449A54C5F
:102E1000086802EB820291B20328218000F06C81E5
:102E20000024A14DA1482A68047093426FD0A048A5
:102E3000A04F02680492049E9F4A3E6001271770CB
:102E4000026805929D4F059A3F88DFF864E2921B65
:102E5000BA4248D99A4A1360002C64D0964A147832
:102E6000002C40F09B802B60964D2A689A4242D0FD
:102E70000468954F0794079C3E68A41B8C4214D3AA
:102E80009B1A002BC0F2CE800BD09049096881EAD2
:102E9000E174A4EBE174A342ACBF0B4601231A44D6
:102EA0002A6003680893089B3B60009B1A600DB082
:102EB000BDE8F08F864B1B884FF0000A002B3FF4D3
:102EC000C0AE012B00F03281022B00F06281032B97
:102ED00071D0804C92F800E098F8008099F80020BA
:102EE000D4F800C0D8E62B60754BA4B1754D1B68B3
:102EF0002A689A42BCD11A46009B1A600DB0BDE800
:102F0000F08F6848002211460280144689E7694A1A
:102F10006748166894E71A686A4B1A60009B1A6043
:102F20000DB0BDE8F08F2B601A46F5E7BEF1000F3B
:102F30007FF45AAFB8F1000F7FF456AF012254E787
:102F4000012E7FF6F7AE002D00F05C810FB9012E47
:102F500076D802232370604BDFF894E100931CE6DF
:102F60000029F0D0002D00F04B81DFF884E15A4BAE
:102F700000934FF0030C664584F800C07FF41EAE4A
:102F80009EF80030062B7FF40BAE4FF0070C84F850
:102F900000C013E63D4A0024147025E7DEF8004027
:102FA0000694069C484F0C4400263C6016705AE775
:102FB000012EC8D8EBE5494B92F800E01B7899F850
:102FC000002098F8008094F800902C789BF800C0BE
:102FD0000194A3EB4E03A8EB88049B1A2344052419
:102FE00014FB0C343E4B97F800B01B880293CCEBDB
:102FF000CC0C0CEB09030393019B96F80090DFF8CF
:10300000F4C0053404EB4304029B5C4409FB034910
:10301000039B304C5CF823C009F10C039C44C4F8BA
:1030200000C039E62949096881EAE1745B42A4EBF2
:10303000E174A342ACBF0B460123D21A2A6030E7E9
:10304000DFF8ACE09EF80000012840F2EE8006B107
:10305000207024480088002800F0E980002B40F010
:10306000E680214B1B88013B9BB2062B00F2DF80E0
:103070001E4B1B78002B00F0DA80094B1B68012BDC
:10308000154B00F0E180009387E500BFD6A3FF1F3A
:10309000D7A3FF1FE0A3FF1F64A1FF1F7CA3FF1F97
:1030A00094A3FF1FA08DFF1FD8A1FF1FC2A3FF1F66
:1030B000D4A4FF1FC8A1FF1F14A2FF1FAAA3FF1FB4
:1030C0009CA3FF1F20A3FF1F40A3FF1F18A2FF1FE9
:1030D0000CA1FF1F58A3FF1FE8A3FF1FB68DFF1F02
:1030E000CCA1FF1F7AA3FF1F3AA3FF1F3AA2FF1F25
:1030F00032A3FF1F843701005F4A1268002A7FF75E
:103100008FAE5E4A1478002C7FF48AAE5C4A127847
:10311000002A7FF486AE5B480078002840F0928059
:10312000594A1478B4FA84F464097AE6574B92F851
:1031300000E093F800C099F8002098F80080237808
:103140009BF800900193ACEB4E04A41AA8EB880CFA
:10315000A444C9EB8974C9EB84092B784C4C96F8CC
:1031600000B02488CC440CEB43030293019B97F8F6
:103170000090C3F1060C029B4B440BFB04335FFA37
:103180008CF9444C4FF00C0C1CFB093CC4F800C0FB
:1031900082E5DFF8F8C092F800E09CF800C099F8EA
:1031A000002098F800809BF8009094F800B02C78EC
:1031B0000194ACEB4E04A41AA8EB880C6444C9EB50
:1031C000C909023C0294DFF8E4C009EB0B04DFF804
:1031D000C0905CF824C03C78B9F800B00394BDF806
:1031E0000490029C13FB0943039C96F8009023442F
:1031F00009FB0B331833274C9C44C4F800C04BE543
:10320000012E09D9002F3FF41BAFDFF8A4E0224BB9
:10321000009301232370C0E4DFF894E09EF80030AF
:10322000002B7FF4A4AE002FF1D11B4B2BE71B4BDF
:103230001B68012B184B00937FF4AFAC184B032095
:103240001870AAE41446ECE5184600930068154B84
:10325000154F83FB0035C317C3EB650303EB430333
:10326000A0EB83033B80E9E700293FF499AC002AF7
:103270007FF496AC84E600BF18A2FF1F60A3FF1F77
:10328000AEA3FF1F05A1FF1F2CA1FF1FB68DFF1FBF
:10329000CCA1FF1F58A3FF1FE8A3FF1F94A3FF1F8C
:1032A000988DFF1FABAAAA2A5CA3FF1FEC35010073
:1032B00032A3FF1F2DE9F04F3A4B1B788BB0002B48
:1032C0006BD10E200AF066F80EF002FA014636487D
:1032D000364C374DFDF72EF93348FDF701F90EF066
:1032E00011FC80F30C002060FFF702FC2E68012E19
:1032F0007AD0022E00F0D582032E00F082842D4C6D
:103300002D4E23682D4A2E4C0993099B2168128863
:103310003360591A013A9142274F00F2BD82294C7D
:1033200022689A1A092A00F2A382274C22689A1A64
:103330000D2A00F29882254C22689A1A252A1AD959
:10334000234B1B88002B40F0A081224B1B78002BC5
:1033500040F09B81FEF7AAFC1F4B1B881B3B9BB2D6
:10336000022B04D81D4B1B78002B40F0918102F0FA
:10337000EDFB336823601A4C22689B1A502B00F235
:103380001082184B1B88012B00F02B8205F02CFCBF
:1033900005F0E6FA0BB0BDE8F08F06F0CBFE0BB0FF
:1033A000BDE8F08F68A1FF1F9CA1FF1F6CA3FF1F4A
:1033B00094A3FF1FD4A4FF1F4CA3FF1FA28DFF1FC8
:1033C00034A2FF1F10A2FF1FF0A1FF1FF4A1FF1FD7
:1033D0002EA3FF1F60A1FF1F9AA3FF1F50A3FF1F73
:1033E00028A3FF1F70A3FF1FDFF84C93AD4AB9F865
:1033F00000001378834204D0C3B21846137005F05E
:10340000E5FBDFF83883A84AB8F800301178994214
:1034100004D0A64F3978002940F09E87A44A23683B
:103420001288A44C9A42C0F29381A34A1278002ACF
:1034300040F08E81DFF808A3BAF8003023B99F4B23
:103440001B88002B00F0DF859D4A9E4B11881B884E
:103450009D4A0B4412685B1093429C4A126880F2AA
:10346000588500219342B4BF01230B460491029377
:10347000ACBF4FF0010B8B4605910E2009F08AFF7F
:10348000934B944A1B6803930133002B84461768BF
:1034900040F3A587802BA8BF80238F4A8F491278DD
:1034A0000191002A00F05E810978914200F05A8172
:1034B000B8F80010DFF884E2994201F0AE817B4950
:1034C000AEF80030864B4FF0010E81F800E019781D
:1034D000DFF870E2834B01981B7802708EF80010C1
:1034E000002B40F07183029B002B40F06883A7F211
:1034F00052339C4533DA714B1B88002B2FD0BBF124
:10350000000F40F06183784B1B881BB1059B002B9B
:1035100040F05A83049B13B3744B1A78FAB9DFF85E
:10352000289299F8006001221A70002E40F0388528
:103530006F4B1B78002B41F0FD826E4B1B78002BEC
:1035400001F00E836C4B1B784BB96C4B1B7833B17D
:10355000B8F8003055490A33A8F800300A700E2038
:1035600009F018FF6FF454731F44874202DC5F4B6D
:1035700000221A7000200BF053FC614A614B116865
:10358000614E1B888842D4BF002201223270002B7A
:1035900000F0E9845D4B1E78964269D0884267DD71
:1035A00056490878002800F0FB87594991F800C077
:1035B000BCF1000F40F0F287564FDFF890E1564E15
:1035C000DFF864A13F788EF800C04FF0010E02963C
:1035D0008AF800C086F800C081F800E03FB10026FC
:1035E0000E7002994FF0010E8AF800E00E7040490B
:1035F0000978002901F09480484E96F800E0BEF169
:10360000000F41F0A481DFF810814FF0010C88F821
:1036100000E086F800C0374E367896B1DFF82CE12E
:103620009EF800C0BCF1000F41F09781DFF8E090F8
:103630004FF0010889F800C08EF80080002901F0E1
:1036400074803749097899B133480178002941F0ED
:103650008A81DFF8BCE0334F334E8EF800104FF014
:10366000030E87F800E02D4F317001263970067087
:103670001A702E4B1B88A3F11B02012A40F25A86B6
:103680001D2B00F0A5862A4E3BE6FEF7B1FA61E657
:10369000284B1B78002B3FF46AAE2B68012B7FF47C
:1036A00066AE66E614A3FF1FF8A1FF1F2DA1FF1F42
:1036B00038A2FF1FD4A4FF1F60A1FF1F20A2FF1F7D
:1036C00088A1FF1F68A3FF1FC0A1FF1F58A1FF1FF4
:1036D000E0A3FF1F18A1FF1FD6A3FF1FD4A1FF1F48
:1036E000D7A3FF1F1EA2FF1F44A3FF1F81A1FF1F1F
:1036F000F9A3FF1F33A3FF1FFBA3FF1FFCA3FF1FA3
:10370000A48DFF1F3AA3FF1F8AA1FF1F04A1FF1F63
:1037100060A3FF1FFDA3FF1F3AA2FF1F05A1FF1F0C
:1037200050A3FF1F988DFF1FAEA3FF1F9AA3FF1F7B
:103730004CA3FF1FA2A3FF1F38A3FF1FD8A3FF1F87
:10374000DCA1FF1FD5A1FF1F24A3FF1F2CA1FF1F7A
:1037500021689A4A069106989949106002220B60E6
:103760002A6067E69749DFF8D4E2097800293FF438
:10377000B1AE9EF8000081423FF4ACAE03984B28F6
:1037800040F3FB871833802BB8F80000A8BF8023D4
:1037900098423FF49FAE8C4803808C48012303700D
:1037A00098E603F077FF8A4B1B788BB9894B1B781F
:1037B00073B9894B1B785BB9884B1B7843B9884B2D
:1037C0001B782BB9874B1B7813B902F095F901E0F0
:1037D00002F09EF933682360834B1B88012B7FF432
:1037E000D5AD824A824B12681C688249824DA8235B
:1037F00003FB02F202F5FF521F3281FB0231D017A8
:103800001144183C2A23C0EB613103FB04F07B4BCD
:10381000002A7B4A1B781478ACBF543955390144CF
:103820006FF0140202FB03122A607648002C00F0AD
:10383000648103689A4200F32D8480F25E81724CA9
:103840002178002941F0628070490968D1F17F0137
:1038500048BF0331891001315B1A9A4200F34D8150
:1038600003601A464AE1FEF749FD3368236062E5CA
:10387000674FFDF707FEFEF745FA3B88032B00F084
:10388000B985042B00F0B285624B1B88032B00F036
:10389000A9853368236048E5FDF744FD3B68236054
:1038A0003DE55D4B26681A88B24204DB4D4B1B7820
:1038B000002B00F02984594C404823680793584B4B
:1038C000079900681B88091A994200F2BD80002BF5
:1038D00000F0BA80534B198800293FF4D4AE384B1E
:1038E00051481B680088B342B8BF33469A4201F37F
:1038F00090804E4A8342A8BF03461360DFF84081A0
:1039000088F800103A4FFDF70DFD38687F2840F326
:103910002986474AA0F17F0382FB0320DA17C2EB16
:10392000600000EB4000A3EB80007330414B01933B
:103930001B883860002B40F05A87DFF89CA09AF86B
:103940000030002B00F085843B4E3378002B00F0D4
:103950008084DFF8F0904FF0000B0CE003F173006F
:10396000C0B298F8001005F0C9F933780BF1010BDB
:103970005B4540F36E843B6859F8040F18442C4BA8
:10398000A0F17F0283FB0231D317C3EB610303EB8A
:1039900043037F28A2EB8303E0DC0028E0DA244A1B
:1039A000434282FB0320DA17C2EB600000EB4000C9
:1039B000A3EB8000C0F10C00D2E700BFE8A1FF1F1D
:1039C00048A3FF1FD7A3FF1FD8A3FF1F2DA1FF1FD1
:1039D0003AA2FF1F60A3FF1FAEA3FF1F05A1FF1F99
:1039E0002CA1FF1F60A1FF1F70A3FF1F9C8DFF1F55
:1039F000E8A3FF1F0900028008A2FF1F7EA3FF1F8C
:103A0000E2A1FF1F24A2FF1FB4A3FF1FB0A3FF1F4B
:103A100072A3FF1F16A3FF1F38A2FF1FD4A4FF1F0E
:103A20001CA2FF1F26A1FF1FCCA3FF1F08A1FF1F81
:103A3000ABAAAA2ABCA1FF1F608DFF1FD5A1FF1F43
:103A400004A2FF1F388DFF1FA04BA1491B680888E7
:103A5000A049B342B8BF33469A4200F334839E4E26
:103A600009888342A8BF0346336000297FF446AF2C
:103A70009A42C8BF134640F32D83801A00F018877E
:103A80009B1AC3EB833300EBD07203EB620300FBA2
:103A900003F2002A93FBF0F0C1F24480FDF728FC0A
:103AA000C0F3C6100DF014FE8C4B064618880DF0BE
:103AB0000FFE8B49074630460DF05EFE0146384644
:103AC0000DF05AFE31460DF04FFD4FF07E51064687
:103AD0000DF0F0FF002840F09187824930460EF04B
:103AE00007F8002840F0308730460EF031F8C0B2B9
:103AF000DFF8388288F8000004E702607A4B1B8800
:103B0000002B3BD0794951F82340002C00F0D9829A
:103B10003368B3FBF4F104FB1133C3EBC30304EBD1
:103B2000D47103EB031303EB610303FB04F10029DE
:103B300093FBF4F3C0F2C0866D4951F82310A1F253
:103B4000FF716C4B6C4C1B6803FB01F303F57D317B
:103B500001F56071162303FB01F303F57D3303F5D3
:103B6000607384FB0314D917C1EB6441002BACBF15
:103B7000A1F10B03A1F10C031A4402605F4B6048F2
:103B80001B88604903F27C735B0002FB03F303F5BF
:103B9000FC6380FB03020988D018DA17C2EBE0222D
:103BA000002BA1F16401B8BF02F1FF3249001144BA
:103BB00081F30C01282009F0A9FEFFF7E7BBBAF852
:103BC0000030002B3FF493AC4F4B1B685A1C002A6B
:103BD00040F3AD81802A00F3A9814C4E4C494D48F9
:103BE0003688098800683144B0EB610FC0F29786CF
:103BF000A3F148020F2A3FF6B2AC473BA9F80030C8
:103C0000ADE4454B20681988814240F39780434BCF
:103C10001B78002B40F09280DFF8149199F8000097
:103C20007F280CDD3E4AA0F17F0382FB0320DA17D8
:103C3000C2EB600000EB4000A3EB80007330394B17
:103C400001931B88C0B289F80000002B40F0BE86AB
:103C5000DFF8E0A09AF80030002B00F0B284324E7A
:103C60003378002B00F0AD84DFF8CCB02C4F4FF050
:103C700000080AE003F17300C0B205F063F833787E
:103C800008F10108434540F39C845BF8043F99F830
:103C900000001844A0F17F0287FB0231D317C3EB69
:103CA000610303EB43037F28A2EB8303E2DC0028DC
:103CB000E2DA434287FB0320DA17C2EB600000EB35
:103CC0004000A3EB8000C0F10C00D5E748A3FF1F24
:103CD000CCA3FF1F26A1FF1F08A1FF1F10A1FF1FDC
:103CE000CDCCCC3D0000FE4278A3FF1FF032010096
:103CF0007C2C010080A3FF1F491B8940ECA3FF1F00
:103D000083200882C0A3FF1F58A3FF1F34A3FF1FF7
:103D100030A3FF1F94A1FF1F38A2FF1F60A1FF1F48
:103D2000ABAAAA2ABCA1FF1F608DFF1F04A2FF1F20
:103D300054A3FF1FAEA3FF1F388DFF1FB44F3B6876
:103D40007F2B00F3CB81002BC0F2EC85DFF838939A
:103D500099F800609E4200F00F82AE4B1B88002B4A
:103D600046D1AD4BAD4A1B681088994240F39B8504
:103D70000B46401A00F06785591AC1EB813100EB00
:103D8000D07301EB630303FB00F2002A93FBF0F016
:103D9000C0F2C586FDF7ACFAC0F3C6100DF098FC72
:103DA0009F4B804618880DF093FC9E498246404602
:103DB0000DF0E2FC014650460DF0DEFC41460DF0F0
:103DC000D3FB4FF07E5180460DF074FE002840F08A
:103DD000FA85954940460DF08BFE002840F0B185EC
:103DE00040460DF0B5FEC0B2DFF8A08288F80000B2
:103DF0007F2E0DDD8D4BA6F17F0083FB0036C317B0
:103E0000C3EB660303EB4303A0EB830303F17306E9
:103E1000DFF84CA29AF80030F0B289F80000002BCD
:103E200040F0FE82824B03931B78002B40F002850A
:103E3000804B02931B78002B40F0E3857E4B01936F
:103E4000029B1B78002B40F0C1849AF80030002BB5
:103E500000F08584019B784E1A88002A00F0E384E4
:103E600038687F2840F3CB827049A0F17F0381FB43
:103E70000310D917C1EB600000EB4000A3EB8000FA
:103E800073303860002A40F089849AF80030002BA3
:103E900000F08181694E3378002B00F07C81684A04
:103EA000CDF81090DFF8E481B9464FF0000B1746CB
:103EB0000CE003F17300C0B298F8001004F01EFF8C
:103EC00033780BF1010B5B4540F36281D9F8003088
:103ED00057F8040F1844554BA0F17F0183FB013EB6
:103EE000CB17C3EB6E0303EB43037F28A1EB8303E4
:103EF000DFDC0028DFDA4D4B414283FB0130CB177A
:103F0000C3EB600303EB4300A1EB8003C3F10C00A0
:103F1000D1E793424FF0000B80F2EE800123CDF801
:103F200008B0CDF814B00493FFF7A7BA802645492E
:103F3000454B464A09881B8812680B44B2EB630F55
:103F4000BFF60DAB424B1B78002B40F0AA83B8F8AC
:103F50000030404AB3423FF402AB3F4B168001228F
:103F60001A70FFF7FCBA334F3C4E3D4830493D4A8A
:103F70003B70337003700B701370FFF77ABB3A4BD2
:103F80001B78002B7FF4EBAA039B384A243B83F376
:103F90004703D9B25B20136004F080FE99F80060FB
:103FA000032E30D1DFF8E88098F80030002B40F085
:103FB00031862F4F3B78002B40F01F862A4E3378F6
:103FC000002B40F00D862B4B1B78002B40F0FB851F
:103FD000294A1380294B1B78002B40F0E7850D4BB5
:103FE0007F221A8098F800306BB93B785BB9337840
:103FF0004BB9234A7F210720138004F04FFE7F2115
:104000000B2004F04BFE1F4B1F68FFF7A8BA00BF40
:10401000E8A3FF1F26A1FF1F08A1FF1FCCA3FF1FBE
:1040200010A1FF1FCDCCCC3D0000FE42ABAAAA2AB6
:1040300005A1FF1F3AA2FF1FBCA1FF1F608DFF1F3C
:10404000388DFF1F34A3FF1F30A3FF1F94A1FF1F54
:1040500050A3FF1FD8A3FF1F2DA1FF1F60A3FF1FA9
:10406000AEA3FF1F2CA1FF1FFCA3FF1F84A1FF1FF6
:10407000FBA3FF1F33A3FF1F2EA2FF1FFDA3FF1FE4
:1040800052A3FF1F18A1FF1F54A3FF1F04A2FF1F6D
:10409000F9A3FF1FB84C2178002940F01183B749DC
:1040A0000968D1F17F0148BF033103EBA10301335C
:1040B000B34903609A42B8BF0A60FFF61FAD1A46C3
:1040C0001CE56B213DE5AF4B09881A6000297FF4A0
:1040D00015AC13468342A8BF0346CEE4AA4EA3F113
:1040E0007F0286FB0236D317C3EB660303EB430361
:1040F000A2EB8303733329E60123CDF810B0CDF88A
:1041000008B00593FFF7B9B901232B609F4CA04E6F
:10411000FFF7F7B84F46DDF81090029B1B78002B95
:1041200040F04B83019B1B88002B00F040839AF8E2
:1041300000303BB9039B1B7823B9029B1B78002BF3
:1041400000F0E384934B1B78002B00F0038192492D
:104150000B78082B00F2FE8090483A680068904E79
:104160000133DBB25F1E101A46F827000B708D4B2F
:104170002068198889F800208842844C7FF783AA38
:104180002268894B0892089A814E1A60FFF7B9B8E5
:104190004F46DDF81090039B1B78002BBDD03B6889
:1041A000A3F10C007F2840F35283774A8B3B82FBBC
:1041B0000321DA17C2EB610202EB4202A3EB820396
:1041C00003F17300DFF80482C0B298F8001004F025
:1041D00095FD9AF80030002B9FD06F4E3378002B5E
:1041E0009BD0724ACDF810904FF0000BB94617469D
:1041F0000BE002F17300C0B298F8001004F07EFDED
:1042000032780BF1010B5A4584DDD9F8002057F8BC
:10421000040F5D4B1044A0F18B0183FB013ECA17D4
:10422000C2EB6E020C3802EB42027F28A1EB820245
:10423000DFDC0028DFDA544B424283FB0230D11727
:10424000C1EB600000EB4000A2EB8000C0F10C006D
:10425000D1E7504B1B78002B40F0BE82544B1B78AB
:10426000002B51D03B68A3F10C007F2840F32C8336
:10427000454A8B3B82FB0321DA17C2EB610202EB5A
:104280004202A3EB820303F17300C0B298F800105E
:1042900004F034FD9AF80030B3B33F4E33789BB34B
:1042A000DFF808B1DFF8E0904FF0000A0BE003F10F
:1042B0007300C0B298F8001004F020FD33780AF1C2
:1042C000010A534520DD3B685BF8040F1844A0F158
:1042D0008B0189FB0123CA17C2EB63030C3803EB84
:1042E00043037F28A1EB8303E1DC0028E1DA4342AA
:1042F00089FB0320DA17C2EB600000EB4000A3EB60
:104300008000C0F10C00D4E72A4B1B78002B40F052
:104310008082019B1B88002B00F07582264B1B7846
:10432000002B40F06B82254B3A681A7003232B60F8
:10433000FFF7A9B9DFF8908098F80030002B40F023
:1043400023811F4F3B78002B40F06783104E3B705A
:10435000FEF7D7BF3A680AE7DBB21846137004F0DD
:104360005BFD0C491748124A00230B703B70037029
:104370001370FFF753B800BFB4A3FF1FB0A3FF1F14
:1043800024A2FF1F08A1FF1FABAAAA2AD4A4FF1FC3
:104390004CA3FF1F60A3FF1F608DFF1F54A1FF1FD1
:1043A0003C8DFF1F38A2FF1F94A4FF1F388DFF1FF5
:1043B00005A1FF1F3AA2FF1F2CA1FF1F54A3FF1F3F
:1043C00024A1FF1FAEA3FF1F50A3FF1F04A2FF1FC6
:1043D000C24AC34B12781A70C24EFEF792BF012335
:1043E000FFF75BB8FCF7B8FEFFF753BAFCF772FEB5
:1043F000FFF74ABAFCF710FE3B88FFF742BA0028E5
:10440000BFF63FADB849434281FB0310D917C1EB5A
:10441000600000EB4000A3EB8000C0F10C0030E531
:10442000B24B01931B88002B40F00084B04B0393E8
:10443000B04B0293B04E3378002B39D0DFF8D882DE
:104440004FF0000B09E003F17300C0B204F07AFCF6
:1044500033780BF1010B5B452ADD58F8043F99F8DE
:1044600000001844A04BA0F17F0283FB0231D31758
:10447000C3EB610303EB43037F28A2EB8303E2DC7E
:104480000028E2DA984A434282FB0320DA17C2EBA3
:10449000600000EB4000A3EB8000C0F10C00D4E70B
:1044A000944B029304F04EFC9AF80030002BC1D1DB
:1044B000039B1B78002B3FF4C3AC99F80030A3F1A9
:1044C0000C007F2840F3DE81874A8B3B82FB03216F
:1044D000DA17C2EB610202EB4202A3EB820303F1A3
:1044E0007300C0B204F02EFC9AF80030002B00F0EC
:1044F000BF81814E3378002B00F06381DFF8188292
:104500004FF0000B0AE003F17300C0B204F01AFC94
:1045100033780BF1010B5B457FF792AC58F8043F01
:1045200099F800001844704BA0F18B0183FB012324
:10453000CA17C2EB63030C3803EB43037F28A1EBDC
:104540008303E0DC0028E0DA674A434282FB032071
:10455000DA17C2EB600000EB4000A3EB8000C0F173
:104560000C00D2E70028BFF6E1A95F4A434282FB74
:104570000320DA17C2EB600000EB4000A3EB8000E1
:10458000C0F10C00FFF7D2B95C4A1278002A40F063
:10459000EE81534F534E3B70FEF7B3BE00260E70B4
:1045A00057490F78002F3FF422A8DFF870A19AF83E
:1045B0000010002900F0A48200218AF80010FFF703
:1045C00016B84B4B1B78002B4ED099F80030A3F156
:1045D0000C007F2840F35A82434A8B3B82FB032125
:1045E000DA17C2EB610202EB4202A3EB820303F192
:1045F0007300C0B204F0A6FB9AF80030A3B33E4E9D
:1046000033788BB3DFF810A1374F4FF0000809E083
:1046100003F17300C0B204F095FB337808F1010890
:10462000434521DD5AF8043F99F800001844A0F1F1
:104630008B0187FB0123CA17C2EB63030C3803EB22
:1046400043037F28A1EB8303E2DC0028E2DA434244
:1046500087FB0320DA17C2EB600000EB4000A3EBFE
:104660008000C0F10C00D5E7224B1B78002B40F0F6
:10467000C081019B1B88002B00F0B681214B1B7869
:10468000002B40F0AC81204B1B78002B40F0A28126
:104690001E4B1F4A198820680123002414602B60D8
:1046A0006AE54B2E40F321811836802EB8F8003091
:1046B000184AA8BF8026B3427FF44FACFEF74FBF25
:1046C0000131C9B2022903D821701A46FFF716BA80
:1046D000002222701A46FFF711BA00BF50A3FF1F35
:1046E00024A1FF1F4CA3FF1FABAAAA2ABCA1FF1F36
:1046F00005A1FF1F3AA2FF1F608DFF1FA2A3FF1F8E
:10470000FDA3FF1F60A3FF1F2CA1FF1F38A2FF1FE7
:1047100008A1FF1FD8A3FF1F388DFF1FAEA3FF1FE7
:10472000C34E3678002E7EF479AF00287EF489AF30
:10473000002F7EF486AF002E7EF483AFBD4909784A
:1047400000297EF481AFBC48BC4906700E70BC4F96
:10475000BC48BD493E7006700E70FEF789BF039BD2
:104760001B78002B7FF476AB029B1B78002B7FF429
:1047700071AB019B1A88FFF773BB243B002BB8F881
:10478000000040F3B88198423EF4A4AE9BB2AF481B
:10479000A8F8003001230370FEF79CBEDFF8B0825A
:1047A000C0B298F8001004F0A9FAFFF76EBBA84B4E
:1047B0003878197804F0A2FAB9E43878FCF7C0F830
:1047C000B0E4029B1B78002B3FF444AB99F8000047
:1047D000FCF784FAFFF739BB7F21402004F05EFA32
:1047E0009C4A9D4B3968116000221A7036E5C0B2B0
:1047F00098F8001004F082FAFFF79FB87F2142205A
:1048000004F04CFA8FE598F80010387804F076FA46
:1048100084E53878FCF794F87BE5904BDFF864E2A8
:104820001978FEF757BE99F8000004F08BFA328829
:10483000FFF716BB8A4B01931B88002B7FF430AE29
:10484000804B029339E641F6FF70FFF7A3BA0028C8
:10485000BFF6B8AC834B424283FB0230D317C3EBA5
:10486000600303EB4303A2EB8303C3F10C00A9E451
:10487000029B1B78002BA9D1039B1B78002B7FF494
:10488000E9AA76E70028BFF62CAE764B424283FBBE
:104890000230D317C3EB600303EB4303A2EB8303A4
:1048A000C3F10C001DE68342A8BF0346FFF761BABF
:1048B00041F6FF70FFF7F2B86B49013B51F8233026
:1048C000A3F2FF71FFF73DB90028BFF6DEAC654BE0
:1048D000424283FB0230D317C3EB600303EB430375
:1048E000A2EB8303C3F10C00CFE4243E002EB8F802
:1048F000003040F31A81B3423EF431AEB6B2534BAE
:10490000A8F8006001221A70FEF729BE4A1CD2B234
:10491000022A3FF6DDAE22701A46FFF7EFB81646C0
:10492000FFF710BB4F4E5A4286FB0236D317C3EB3C
:10493000660303EB4303A2EB8303C3F10C03FFF70E
:1049400005BA7F20FFF750BA7F20FFF7D1B84FF0AC
:10495000000E86F800E0FEF75EBE4FF0000C8EF809
:1049600000C0FEF76BBE00210170FEF781BE3F4F15
:10497000387801F03DF93E4B1B78002B00F09E800B
:104980003B887E2B00F29A803A4EDFF8FC9032682A
:10499000D9F80010521A0F2A40F28A80364A0133A1
:1049A000108899B23980002800F0A180C9B2C0B245
:1049B00004F074F9314F326898F80030C9F80020DB
:1049C0003B70FEF79EBC0120FFF70EBA04F0BAF967
:1049D000FFF73EB90021422004F060F958E60021BB
:1049E000402004F05BF94EE699F8000004F0AAF9C3
:1049F00044E699F80000FCF771F93AE60120FFF768
:104A000077B8174B01931B88002B7FF44BADFFF752
:104A100017BA1B4B1A60FEF771BF144B154E19885D
:104A20006A2004F0B7FA98F800303B70FEF769BCD2
:104A300033A3FF1F50A3FF1F60A3FF1FAEA3FF1FE1
:104A400005A1FF1F3AA2FF1F2CA1FF1F2DA1FF1FD1
:104A500004A2FF1F54A1FF1F608DFF1FD7A3FF1FDC
:104A6000BCA1FF1FABAAAA2A7C2C010090A1FF1FAA
:104A7000FEA3FF1F4CA3FF1F00A2FF1F24A1FF1FC7
:104A800008A1FF1FD5A1FF1FE4A3FF1F0028BFF649
:104A9000B0AD694B424283FB0230D317C3EB6003D6
:104AA00003EB4303A2EB8303C3F10C00A1E5634EC8
:104AB000634F98F800303B70FEF723BC614B1B78C6
:104AC000002BF4D03B88604F002BF0D05B4EDFF81A
:104AD000A8913268D9F80010521A0F2AE8D95B4A17
:104AE000013B108899B2398000287FF45FAFC8B2CB
:104AF00004F074F95EE701283EF4ECAC012346E6CD
:104B0000534E54490296FEF76ABD4FF47A43013B77
:104B1000FDD199F8000004F015F9FFF713BB013837
:104B2000FFF738B90138FEF7B9BF012B3EF417ADD6
:104B30000126E4E6484B1B782BB3484B1B78002B2F
:104B40007EF40DAD464B1B78002B3EF408ADB8F853
:104B5000003044490A3BA8F800300A70FEF7FFBC59
:104B60003E4B1B78002B7FF40AAA3D4B1B78002B91
:104B70003EF4F5ACB8F800303A490133A8F80030FB
:104B80000A70FEF7ECBC354B1B78002B7EF4E7ACCB
:104B9000334B1B78002B3EF4E2ACB8F800303149BF
:104BA000013BA8F800300A70FEF7D9BC2E4B00225A
:104BB0007F2107201A8004F071F87F210B2004F078
:104BC0006DF8FFF70FBA294B01227F2107201A80C9
:104BD00004F064F87F210B2004F060F8FFF7FAB9C5
:104BE000234B04227F2107201A8004F057F800216C
:104BF0000B2004F053F8FFF7E6B91D4B02227F218A
:104C000007201A8004F04AF87F210B2004F046F8B0
:104C1000FFF7D4B9164B002107201E8004F03EF8A0
:104C20007F210B2004F03AF8FFF7C3B9114B03932F
:104C3000074B029336E400BFABAAAA2A4CA3FF1F7E
:104C400024A1FF1FFDA3FF1F90A1FF1F00A2FF1FB4
:104C50003AA2FF1F60A3FF1F33A3FF1FFBA3FF1F89
:104C6000FCA3FF1F2DA1FF1F26A1FF1F2EA2FF1FC8
:104C700052A3FF1F05A1FF1FE4A3FF1F38B508F0D3
:104C800025FC0B4805F0C0FF00234FF07E520121A8
:104C90000848FBF7EBFB084B084A0949802400252C
:104CA0001C7118461D60BDE838400BF087BF00BF7F
:104CB00028A2FF1F9CA1FF1FB8A3FF1F0C8DFF1F81
:104CC000BD0F000010B50446A4206368198804F0E5
:104CD00061F9E368A6201988BDE8104004F05AB9CC
:104CE00043682A20198804F055B900BF10B504465E
:104CF00022206368198804F04DF9E368242019889C
:104D0000BDE8104004F046B910B504460A206368B7
:104D1000198804F03FF9E3680C201988BDE81040B9
:104D200004F038B910B5044606206368198804F009
:104D300031F9E36808201988BDE8104004F02AB969
:104D400010B5044602206368198804F023F9E3686B
:104D500004201988BDE8104004F01CB970B50E4C51
:104D600084B01225042201230646039002932046B4
:104D70008DE824001423102107F01AFE06220923CF
:104D8000029303960195204600921423102107F008
:104D90000FFE04B070BD00BF2CA4FF1F70B5B94C4E
:104DA000B4F90030032B00F00E81002B5DD0022BF4
:104DB0007CD0052B00F0A880012B00F0D180042BC3
:104DC00000D070BD00244FF4AF75E1B2AE4805F0DD
:104DD00045FF01348542A8BF05460C2CF5D10120C2
:104DE0000AF01EF8A94BAA49323803FB00F06FF411
:104DF0006772104481FB00310144C317C3EBA1214A
:104E00000028ACBF01F25F1101F5AF718D424FF088
:104E10000000A8BF0D460AF003F89C4B9C493238AD
:104E200003FB00F06FF46773184481FB0031014409
:104E3000C317C3EBA1210028ACBF01F25F1101F53C
:104E4000AF718D42A8BF0D46A5F11401312900F3C1
:104E5000A58040F26C7332218E488F4A0180BDE8F4
:104E600070402A20136004F095B80E2008F092FAE2
:104E700040F6FF71C8308842A8BF084620EAE070BB
:104E800000F2DC5283B28A42844D854EA8BF0A46A6
:104E90000220194633802A8004F07CF829880420F7
:104EA00004F078F8B4F90030022B82D1172009F011
:104EB000B7FF0546162009F0B3FFA842B8BF284641
:104EC00000F1C801B1F5FA7FC0F2C680B1F57A6F82
:104ED000A8BF4FF47A6101F54873B3F57A6FA8BFA4
:104EE0004FF47A639BB289B26E4A6F4D11800A20EB
:104EF0002B8004F04FF829880C2004F04BF8B4F90B
:104F00000030052B7FF458AF0F2009F089FFC0F562
:104F10003F630433B3F5AF6FC0F29B80B3F5FA6F14
:104F2000A8BF4FF4FA6399B2604BC0F54360B0F587
:104F3000AF6F1980C0F28A80B0F5FA6FA8BF4FF446
:104F4000FA6083B25A4DA4202B8004F023F82988FC
:104F5000A62004F01FF8B4F90030012B7FF42FAF26
:104F60000B2008F069FE002851D0112009F058FFED
:104F700000F1C801B1F52F7F51DB41F25C2399426A
:104F80007EDC4C4A00F5487089B2B0F52F7F118065
:104F900073DB8342A8BF03469BB246E0B1F5AF7F07
:104FA000A8BF4FF4AF71A1F5AF7240F23A7303FBA3
:104FB00002F2414B963A83FB0203D217A2EB631332
:104FC00089B2323348E7102009F02AFFC830B0F523
:104FD000FA7F36DBB0F57A6F0146A8BF4FF47A61ED
:104FE00001F51673B3F57A6FA8BF4FF47A639BB2DD
:104FF00089B2324A324D118022202B8003F0CAFF41
:105000002988242003F0C6FFB4F90030CDE615202E
:1050100008F0C0F900F59671B1F52F7F21DA40F262
:1050200014534FF42F71234A1180264D06202B80F4
:1050300003F0B0FF2988082003F0ACFFB4F900307A
:10504000BDE640F24C434FF4FA71D2E74FF4AF6340
:1050500078E74FF4AF6167E740F214534FF4FA7109
:1050600042E741F25C2399420ADC124A00F5617082
:1050700089B2B0F52F7F11808BDA4FF42F73D4E70C
:105080001946D0E708A4FF1F28A2FF1FD4FEFFFF88
:10509000C70FB38DC4A3FF1FA48DFF1FCCA3FF1F99
:1050A00038A2FF1F68A3FF1F88A1FF1F3CA2FF1F9C
:1050B00084A3FF1FE0A1FF1FB5814E1B34A3FF1F78
:1050C00030A3FF1F98A3FF1F2DE9F041224D82B0AE
:1050D000012602B284B20092284601967823192153
:1050E00007F0ACFB04F10C0212B28DE84400284634
:1050F000A7197823192104F1020807F09FFB3FB29A
:105100000FFA88F819233A46284619460196CDF831
:10511000008007F093FB78233A4628461946CDF8DD
:105120000080019604F10A070B3407F087FB3FB2B9
:1051300024B278233A46284619468DE8500007F0F5
:105140007DFB192300943A4601962846194607F03C
:1051500075FB02B0BDE8F0812CA4FF1F30B583B011
:1051600000230C4605B2009326225B231C210C4829
:1051700007F0B4F8294601232622094806F0CAFBA5
:10518000002C24B205DB214601232622044806F028
:10519000C1FB044A044B15801C8003B030BD00BF26
:1051A0002CA4FF1FBA8DFF1FBC8DFF1F70B5BB4C19
:1051B000237882B01BB1BA4B4FF6FF721A80B94BFD
:1051C000B3F9003003BBB84BB8481B68B4495A2246
:1051D00083F30C0302FB03F303F2FF7380FB032052
:1051E0001844DB17C3EBE020B1F900301C308342D8
:1051F00056D04FF0FF31FFF7B1FFAD4807F0D2F8BE
:105200000023237002B070BD012B25D0022B68D083
:10521000032B4BD0042B00F0AC80052BF0D10F20DA
:1052200009F0FEFDC0F53B600830B0F5AF6F56DB0E
:10523000B0F5FA6FA8BF4FF4FA60A0F5AF625A2339
:1052400003FB02F39B4803F5967380FB0320DB17F7
:10525000C3EBA0101C301EE0974B1B78002B78D0BE
:10526000152008F097F8954B1860B0F52F7F36DBC6
:1052700041F25C239842A8BF1846A0F52F705A232C
:1052800003FB00F38E4803F5FA6380FB0320DB1772
:10529000C3EB20201C30824BB3F900308342A8D1ED
:1052A000884BB3F900300133A3D1A9E7864B1B68C3
:1052B000B3F5FA7F13DBB3F57A6FA8BF4FF47A63C7
:1052C000A3F5FA725A2303FB02F3804803F2D66374
:1052D00080FB0320DB17C3EB60201C30DBE71C20C6
:1052E000D9E77B4B1B68B3F5FA7F3ADBB3F57A6FEE
:1052F000A8BF4FF47A63A3F5FA725A2303FB02F3B3
:10530000724803F2D66380FB0320DB17C3EB6020F7
:105310001C30704B1B68B3F5FA7F20DBB3F57A6F56
:10532000A8BF4FF47A63A3F5FA725A2303FB02F382
:10533000664903F2D66381FB0321DB17C3EB6121CE
:105340001C31574BB3F9003083420CD0FFF706FFF6
:1053500053E7112009F064FD584B186085E71C21C4
:10536000EFE71C20D5E7574BB3F900308B42EDD166
:1053700046E7272200258DE8240076231C214C488F
:105380004C4E07F05BFA17E0B0F5AF7FA8BF4FF4C3
:10539000AF70323803FB00F3963386FB0321DB1733
:1053A000C3EB61111C3109B201231D44272240487F
:1053B00006F0B0FA0C2D09D0E9B2474805F04EFCD2
:1053C00031284FF05A03DFDC1C21EDE7012009F002
:1053D00027FD424B424A323803FB00F36FF46770FB
:1053E000034482FB0312D118DA17002BC2EBA1226F
:1053F000B4BF02F5AF7302F25F13312B4BDDB3F58F
:10540000AF7FA8BF4FF4AF735A22323B02FB03F3C6
:10541000284D963385FB0325DB17C3EB65151C353B
:10542000002009F0FDFC2D4B2D4A32386FF46771D6
:1054300003FB00F30B4482FB0312D118DA17002B95
:10544000C2EBA122B4BF02F5AF7302F25F13312B9E
:105450001FDDB3F5AF7FA8BF4FF4AF735A22323BC5
:1054600002FB03F31349963381FB0321DB17C3EBE4
:1054700061111C310A4BB3F90030AB4201D0284610
:1054800064E7104BB3F900308B423FF4B6AE2846C8
:105490005CE71C21EEE71C25C2E700BF02A4FF1F4A
:1054A000BA8DFF1F08A4FF1F6CA3FF1F8100088097
:1054B0002CA4FF1FB5814E1B3CA3FF1F14A1FF1F8F
:1054C000D34D6210BC8DFF1F94A1FF1F07FB7225F7
:1054D000C0A1FF1F58A1FF1F28A2FF1FD4FEFFFF7E
:1054E000C70FB38D2DE9F043764C054683B02046B7
:1054F000D5F80080EE6806F049FE1120FFF7E4FDC4
:10550000012719234FF02809194620460197242224
:10551000CDF8009007F092F97823194624220197DC
:105520002046CDF8009007F089F93946204607F06B
:105530000FFD0223192240462382E2810DF000F97B
:105540004146024620460AF0B5FF20460AF0C8FF51
:105550000027142303225C4923822046E7810AF0B6
:10556000A9FF20460AF0BCFF232320460322574907
:10557000E78123820AF09EFF20460AF0B1FF6EB158
:105580002F20FFF7A1FD322303225149E781204656
:1055900023820AF08FFF20460AF0A2FF01234D4A22
:1055A00018461370FFF7DAFB28896B896A68191AA5
:1055B000128867D001EBD173121A5B105C2000FBDC
:1055C000023303FB01F2002A93FBF1F3ACBF1B3360
:1055D0001A331FFA83FE1BB23F4A3A4F1A214FF08B
:1055E00001088DE802013846A2F800E019461422AD
:1055F00007F024F9002E4BD0288A6B8AEA68191A22
:10560000128842D001EBD173121A43FA08F35C20DE
:1056100000FB023303FB01F2002A93FBF1F3ACBF62
:105620001B331A3399B21BB22C4A2648118001262B
:1056300038228DE844001946322207F0FFF8002294
:10564000402309218DE806001E48194607F0C4F8DA
:1056500031461C4807F07CFC6B681A480222442142
:105660002282E18119880AF08FFF32461C491548D1
:105670000AF020FFEB681348198803B0BDE8F04337
:105680000AF082BF49239E46A6E749231946CBE785
:10569000402309213246009138461946019607F009
:1056A0009BF84146384607F053FC6B68682102229C
:1056B000F9813A821988384603B0BDE8F0430AF010
:1056C00063BF00BF2CA4FF1F94380100983801006D
:1056D0009C380100B5A4FF1F04A4FF1F06A4FF1FF0
:1056E000A03801002DE9F04F1F4685B01446002A6E
:1056F0004ED0052A0646D0F80C8000F0B0800F9BF3
:105700008D4A00EBC305012CB5F80AE029896868C9
:10571000C1EB0E0382FB03C21A444FEAE373C3EBEF
:10572000A213028851D0042C00F09280834D0022F5
:105730000921402328468DE80600194607F04CF859
:105740002846012107F004FCB8F1000F00F0E980C1
:105750007368022244212A82E981198828460AF0C6
:1057600013FF7749012228460AF0A4FEF368284671
:1057700019880AF009FF734B022CB3F9001000F0EE
:10578000B280082C00F0CA80012005B0BDE8F08F7F
:105790006D4E6E4A33681268CB1A93420D465AD941
:1057A0006B4A3B8811786548012918BF01241470A1
:1057B0000E9A06321BB212B28DE814001946BDF9DA
:1057C000382007F03BF83560DEE79BB2D31A9942E8
:1057D00003DC9E457146A8BF19460E9A0180B7F9B1
:1057E0000030BDF938A0554802F106094FF0000E0F
:1057F0000FFA89F919465246CDF80090CDF804E029
:1058000007F01CF829896B896A685B1A128800F016
:10581000828003EBD370511A42105C2000FB0122FE
:1058200002FB03F1002992FBF3F3ACBF1B331A33E5
:105830009AB21BB201213A80404801915246194662
:10584000CDF8009006F0FAFF414B00221A706DE788
:1058500012FA83F3BBE7204605B0BDE8F08F374D61
:105860004FF0070A4FF0000B28465A2323228DE8F9
:10587000000C1A2106F0B0FF2846012107F068FB52
:105880004FF001094FF0350E2323A5F80EE05246E4
:105890002B823049A5F814902846A5F8129003935E
:1058A0000AF008FE28460AF01BFE284606F07AFD9C
:1058B0004FF4FA6008F0F6F9FFF770FA039B1A212B
:1058C0001A4628465A238DE8000C06F085FF284624
:1058D00006F068FD3046FFF705FE1F4B83F8009089
:1058E000FFF764FC22E74A1C12B21A8091423FF48F
:1058F0004BAF0E9AB7F9003010480632012412B2AD
:10590000009219460194BDF9382006F097FF204611
:1059100005B0BDE8F08F49231A468BE700221A80B4
:10592000E4E7736868210222E9812A8219882846FF
:105930000AF02AFE1FE700BFC94216B22CA4FF1FBF
:10594000A03801000CA4FF1F94A4FF1F8C49010084
:10595000B5A4FF1FA438010002A4FF1F2DE9F04FDA
:105960005A4E5B4DB6F900704C7855F8277085B0EB
:105970008146984604B10C78DFF874A11AB99AF8F8
:105980000030002B39D0534D002338462B808AF845
:105990000030FFF7A7FD504A504BB5F90000012138
:1059A00011704FF6FF721A8060B301285ED001209B
:1059B00032232246019000934946494B3846FFF76F
:1059C00091FE00240346B5F90020022A39DD0022A9
:1059D0002A80B6F900203D49002A3BDB052AC4BFD6
:1059E00000220A80B8F1000F39D1002C0CBF1846F4
:1059F0004FF0FF3005B0BDE8F08F364DB5F900002F
:105A00000028D2D1DFF8ECB0364ADBF8003012685B
:105A1000C3EB0903934227D9334B1A78012A18BFE5
:105A200001201870FFF79AF90123CBF80090012CA0
:105A30002AD0042C35D0022C3AD0082C3ED0002499
:105A4000C1E7C6D1FA68002AC1D0B6F900201F49C3
:105A5000002AC3DA05220A80B8F1000FC5D00393EB
:105A6000FFF7A4FB039BC0E70346E0E74FF0000EFF
:105A7000142322468DE8084049461C4B384674469C
:105A8000FFF730FE03469EE732888AF80040013275
:105A900032807A6982B10024384603939047039B91
:105AA00091E732880121013A32808AF80010F0E74C
:105AB00001222A8000248CE7144684E77A690021B9
:105AC00029804FF0FF34002AE6D182E708A4FF1FA7
:105AD000C08DFF1F0CA4FF1F02A4FF1FBA8DFF1F64
