:1000000000800020BD010000B5DC00006DDC0000B8
:100010006DDC00006DDC00006DDC00006DDC0000BC
:100020006DDC00006DDC00006DDC0000B5DC000064
:10003000B5DC00006DDC0000250701002907010088
:10004000B5DC0000B5DC0000B5DC0000B5DC00006C
:10005000B5DC0000B5DC0000B5DC0000B5DC00005C
:10006000B5DC0000B5DC0000B5DC0000B5DC00004C
:10007000B5DC0000B5DC0000B5DC0000B5DC00003C
:10008000B5DC0000B5DC0000B5DC0000B5DC00002C
:10009000B5DC0000B5DC0000B5DC0000B5DC00001C
:1000A00081B200008DB20000B5DC0000B5DC0000BC
:1000B000B5DC0000B5DC0000B5DC0000B5DC0000FC
:1000C000B5DC0000B5DC0000B5DC0000B5DC0000EC
:1000D000B5DC0000B5DC0000B5DC0000B5DC0000DC
:1000E000B5DC0000B5DC0000B5DC0000B5DC0000CC
:1000F000B5DC0000B5DC0000B5DC00001DEC000044
:10010000B5DC000031F30000B5DC0000B5DC000018
:10011000B5DC0000B5DC0000B5DC0000B5DC00009B
:10012000B5DC0000B5DC0000B5DC0000B5DC00008B
:10013000B5DC0000B5DC0000B5DC0000B5DC00007B
:10014000B5DC0000B5DC0000B5DC0000B5DC00006B
:10015000F50A0100090B01001D0B0100310B010024
:10016000B5DC0000B1F60000B5DC0000B5DC000035
:10017000B5DC0000B5DC0000B5DC0000B5DC00003B
:10018000B5DC0000B5DC0000B5DC0000B5DC00002B
:10019000B5DC0000B5DC0000B5DC0000B5DC00001B
:1001A000B5DC0000B5DC0000B5DC0000B5DC00000B
:1001B000B5DC0000B5DC0000B5DC0000564B4CF2AD
:1001C000205210B51A804DF628121A8000BF00BFC9
:1001D0000DF074FD514B4FF010621A60504A9A6056
:1001E000504ADA60504A136813F4807304D14F49BF
:1001F0000B604FF4A85313604D4B1A78110703D5C9
:100200001A7842F008021A704A4B4B492A221A7097
:100210004A4A4B4B8B4204D252F8040F43F8040B6A
:10022000F8E7484B484900228B4202D243F8042B9E
:10023000FAE74649464A002352F8230041F82300D2
:1002400001336F2BF8D1434B434A802103F8011B44
:100250009342FBD1414B3D4A1A60414B8A221A70AE
:10026000A3F5805324225A70A0221A709A7992071B
:10027000FCD59A79D406FCD43A4A937903F00C035E
:10028000082B384BF9D103221A7140225A719A79FE
:100290009006FCD5334A9179324B4906FBD5324A58
:1002A000324911600221516020221A709A7902F0BD
:1002B0000C020C2AFAD12E4B2E4A1A602E4B2F4AD2
:1002C0001A6000225A60072243F8042C2C4AC3F813
:1002D0000C2D62B60EF07CF8144B1B68DA0705D5BE
:1002E00028480DF049FE284B284A1A60284B1B78F5
:1002F0005B0609D5244C254B22689A4204D121483B
:100300000DF03AFE0023236011F096FF0DF0DCFCA7
:1003100010F08AFCFEE700BF0E200540308004404C
:10032000823F04000100002B10D0034014D0034092
:1003300002D0074000E0074074A1FF1FB060010039
:10034000308CFF1F74A1FF1FA4A9FF1F0082FF1F95
:100350000000000000E400E05FE400E008ED00E0E1
:100360000050064000400640448004400000030165
:1003700004800440C010050014E000E0FF76010096
:10038000000020202E100B641CE00340A5C3945AEB
:1003900000F00740FFFFFFFFFFFFFFFFFFFFFFFF32
:1003A000FFFFFFFFFFFFFFFFFFFFFFFFFFFFFFFF5D
:1003B000FFFFFFFFFFFFFFFFFFFFFFFFFFFFFFFF4D
:1003C000FFFFFFFFFFFFFFFFFFFFFFFFFFFFFFFF3D
:1003D000FFFFFFFFFFFFFFFFFFFFFFFFFFFFFFFF2D
:1003E000FFFFFFFFFFFFFFFFFFFFFFFFFFFFFFFF1D
:1003F000FFFFFFFFFFFFFFFFFFFFFFFFFFFFFFFF0D
:10040000FFFFFFFFFFFFFFFFFFFFFFFFDEF9FFFF23
:1004100010B5054C237833B9044B13B10448AFF33E
:1004200000800123237010BD74A1FF1F0000000095
:10043000AC600100084B10B51BB108490848AFF388
:1004400000800848036803B910BD074B002BFBD0A0
:10045000BDE81040184700BF0000000078A1FF1F52
:10046000AC60010074A1FF1F0000000038B5044615
:10047000104621700A491D4611F0C6FC01464FF096
:100480007E5011F075FD074911F0BEFCE56060601B
:10049000256165610DF02CFFE061204638BD00BF8D
:1004A000DB0FC9400024744938B50446104621705A
:1004B00009491D4611F0A8FC01464FF07E5011F08D
:1004C00057FD064911F0A0FCE5606060256165619B
:1004D0000DF00EFFE06138BDDB0FC9400024744908
:1004E00038B503780446032B20D8DFE803F01A1848
:1004F0001002C168406911F07DFB0D490546606836
:1005000011F036FD0146284611F032FD38BD08498C
:10051000406811F02DFDE16811F076FC38BDC0682F
:1005200038BDC168406911F065FB38BD002038BD99
:100530000024744970B504460E460DF0D9FE0546F8
:10054000E069281A11F00CFCE3682361E56166613B
:10055000A0610146606811F00BFD0146A0601048E3
:1005600011F006FD10F0DCFF10F076FC11F0EEFA51
:10057000054601464FF07E5011F03CFB616911F0D9
:1005800043FC21690646284611F03EFC01463046F0
:1005900011F032FBE0602046BDE87040FFF7A0BFDD
:1005A000000080BF38B50E202C4C0DF03BFA23889C
:1005B0002B4A98420546118838DA1A46C91A32D0B1
:1005C000D31AC3EB033301EBD17203EB620303FBDA
:1005D00001F2002A93FBF1F13BDB14200DF0DEFC6D
:1005E000204B1B88A3BB2288954224DB40F6FF7377
:1005F000C2F57F619D4201F10F012846A8BF184650
:10060000F9B1831AC3EB033301EBD17203EB62033D
:1006100003FB01F2002A93FBF1F11CDB2820BDE86B
:1006200038400DF0BBBC40F2FF71D6E7884202466D
:10063000A8BF0A46C2E7C2F57F610F311046002904
:10064000DFD140F2FF712820BDE838400DF0A6BC94
:1006500038BD0139C1E70139E0E700BFD8A2FF1F6B
:10066000ACA1FF1F18A4FF1F70B50C46054634F857
:10067000023B182B0BD00344A3F118007F283EDC6B
:10068000002858DB334BC0B2197808F095FE324E83
:100690003278013202F00302D3B2337034F8120020
:1006A000182810D10422032B03F10101CBB20ABF99
:1006B000002359001946605A182803D1013AF2D193
:1006C000337070BD33702844A0F118037F2B08DC11
:1006D000002B22DB1F4AD8B21178BDE8704008F029
:1006E0006BBE1E4B973883FB0032C317C3EB62030C
:1006F00003EB4303A0EB830000F17303EAE7174A1F
:10070000973B82FB0321DA17C2EB610202EB420244
:10071000A3EB820303F17300B4E710485A4280FB55
:100720000230D317C3EB600000EB4000A2EB800067
:10073000C0F10C03CEE7094B424283FB0230D317D2
:10074000C3EB600303EB4303A2EB8303C3F10C0091
:1007500098E700BFA4A2FF1FC88DFF1FABAAAA2A5B
:10076000F8B5814B814D1B88C31A044685FB0306EF
:10077000D817C0EB660000EB4000A3EB800303EB4F
:1007800043039B00CE18C8582044002A3DD07F2840
:1007900040F38180A0F17F0385FB0320DA17C2EBD1
:1007A000600000EB4000A3EB80007330704F714D90
:1007B0003978C0B208F000FE2B88022B7AD9706815
:1007C00020447F2877DC0028C0F2BF80C0B239788F
:1007D00008F0F2FD2B88032B6CD9B06820447F28E9
:1007E00040F38580614CA0F17F0384FB0320DA177E
:1007F000C2EB600000EB4000A3EB8000733039785F
:10080000C0B2BDE8F84008F0D7BD7F2834DDA0F1C4
:100810007F0385FB0320DA17C2EB600000EB40008A
:10082000A3EB80007330534DC0B208F0E9FD2B8874
:10083000022B3FD9706820447F284ADC002876DBF1
:10084000C0B208F0DDFD2B88032B33D9B0682044FB
:100850007F285CDD454CA0F17F0384FB0320DA1781
:10086000C2EB600000EB4000A3EB80007330C0B22D
:10087000BDE8F84008F0C4BD0028D4DA4342D817D8
:1008800085FB0325C0EB650505EB4505A3EB850559
:10089000C5F10C00C7E7002888DA434285FB032036
:1008A000DA17C2EB600000EB4000A3EB8000C0F160
:1008B0000C007BE7F8BD2D4AA0F17F0382FB0320EB
:1008C000DA17C2EB600000EB4000A3EB800073304E
:1008D0007CE7264AA0F17F0382FB0320DA17C2EBF4
:1008E000600000EB4000A3EB80007330A8E7002815
:1008F00085DA1E4A434282FB0320DA17C2EB60000E
:1009000000EB4000A3EB8000C0F10C0077E700286B
:10091000ADDA164A434282FB0320DA17C2EB6000CD
:1009200000EB4000A3EB8000C0F10C009FE70F4AF2
:10093000434282FB0320DA17C2EB600000EB400069
:10094000A3EB8000C0F10C007AE7084A434282FB27
:100950000320DA17C2EB600000EB4000A3EB80003D
:10096000C0F10C0032E700BF04A4FF1FABAAAA2A03
:10097000A4A2FF1FF8A1FF1F2DE9F8439F4B1B887E
:10098000013B092B00F2EF80DFE803F00A10161C90
:1009900022282EBCC1059A49BDE8F843FFF764BE82
:1009A00001229849BDE8F843FFF7DABE01229649D3
:1009B000BDE8F843FFF7D4BE01229449BDE8F843EF
:1009C000FFF7CEBE01229249BDE8F843FFF7C8BE4B
:1009D00001229049BDE8F843FFF7C2BE01228E49CB
:1009E000BDE8F843FFF7BCBE8C4B8D4A1B8804461C
:1009F00010881D18002800F08F808A4A1288033260
:100A0000934200F38980022D40F3AD80DFF82C92F1
:100A10008549B9F80020DFF82882844FA21A81FBAB
:100A20000230D317C3EB6000B8F8003000EB400091
:100A3000A2EB800203EBC30302EB42021B0103EBB8
:100A400082033B44586820447F2840F3AA80A0F1E9
:100A50007F0381FB0320DA17C2EB600000EB40004C
:100A6000A3EB80007330724EC0B2317808F0A4FC62
:100A7000032D78D0B9F800206B48B8F80030A21ADE
:100A800080FB021ED117C1EB6E0101EB410103EBAC
:100A9000C303A2EB81011A0101EB410302EB8303C3
:100AA0003B449B6823447F2B6CDDA3F17F0280FBDA
:100AB0000230D317C3EB600303EB4303A2EB8303C2
:100AC0007333D8B2317808F077FC042D4BD0554BF6
:100AD0001B88012B47D1A4F10C007F2871DD524BFC
:100AE000A4F18B0083FB0032C317C3EB620303EB5B
:100AF0004303A0EB830073303178C0B2BDE8F84304
:100B000008F05ABC4B49BDE8F843FFF7ADBD4A4970
:100B1000BDE8F843FFF7A8BD484B43491B88484F41
:100B2000E31A81FB0326DA17C2EB66063A883F4FC9
:100B300006EB4606A3EB860302EBC20203EB43037C
:100B4000120102EB8303A0EB8000FB58234403EB6C
:100B500080007F2809DC002843DB354BC0B21978C0
:100B600008F02AFC4FE7BDE8F883A0F17F0381FB82
:100B70000320DA17C2EB600000EB4000A3EB80001B
:100B80007330EAE7002B9CDA5A4280FB0230D3171D
:100B9000C3EB600000EB4000A2EB8000C0F10C034F
:100BA0008FE70028BFF65FAF4342D81781FB0321D0
:100BB000C0EB610101EB4101A3EB8101C1F10C002C
:100BC00051E7002898DA184A434282FB0320DA17DB
:100BD000C2EB600000EB4000A3EB8000C0F10C0012
:100BE0008AE74342D81781FB0321C0EB610101EB87
:100BF0004101A3EB8101C1F10C00AEE7E2A3FF1FAD
:100C0000DCA1FF1F04380100583C0100E83C010052
:100C1000C83B0100343A0100DC3D0100F8A1FF1F90
:100C2000ACA2FF1F20A2FF1FABAAAA2A0035010019
:100C3000A4A2FF1FC4A1FF1FD0A1FF1F04A4FF1F78
:100C4000CEA3FF1F0A88182A38B50C46054609D0DE
:100C50000244A2F118007F2829DC002848DBC0B23A
:100C600008F0CEFB294B197804EB41046388182B5C
:100C70002BD02B44A3F118007F2806DC002825DBAD
:100C8000C0B2BDE8384008F0BBBB2148973B80FBB1
:100C90000320DA17C2EB600000EB4000A3EB8003F7
:100CA00003F17300C0B2BDE8384008F0A9BB184892
:100CB000973A80FB0230D317C3EB600000EB400093
:100CC000A2EB800202F17300C9E738BD104B42422B
:100CD00083FB0230D317C3EB600303EB4303A2EBA8
:100CE0008303C3F10C00C0B2BDE8384008F088BBF4
:100CF000074A414282FB0132CB17C3EB620202EB8F
:100D00004202A1EB8202C2F10C00A8E7C88DFF1FCE
:100D1000ABAAAA2A2DE9F843A54B1B88013B092B56
:100D200000F20381DFE813F00F0015001B00210023
:100D300027002D003300F700FC000A009D49BDE8A4
:100D4000F843FFF77FBF00229B49BDE8F843FFF758
:100D500007BD00229949BDE8F843FFF701BD002215
:100D60009749BDE8F843FFF7FBBC00229549BDE871
:100D7000F843FFF7F5BC00229349BDE8F843FFF7BD
:100D8000EFBC00229149BDE8F843FFF7E9BC904E63
:100D900004463088002800F0CA808E4B8E4D1A8899
:100DA0002B880332934234DD8C4B8D491B88DFF84E
:100DB00040E2E31A81FB0327DA17C2EB6707BEF8AC
:100DC0000020DFF820E207EB4707A3EB870302EBE5
:100DD000C20203EB4303120102EB8303A0EB80008A
:100DE0005EF80330234403EB80007F2840F3A180AA
:100DF000A0F17F0381FB0320DA17C2EB600000EB58
:100E00004000A3EB80007330C0B208F0F9FA2B88E1
:100E100030881844022840F38880DFF8C091704978
:100E2000B9F80020DFF8C8816E4FA21A81FB0230AA
:100E3000D317C3EB6000B8F8003000EB4000A2EB22
:100E4000800203EBC30302EB42021B0103EB8203AC
:100E50003B44586820447F2840F38A80A0F17F03F8
:100E600081FB0320DA17C2EB600000EB4000A3EB2C
:100E700080007330C0B208F0C3FA2A883388134464
:100E8000032B52DDB9F800205548B8F80030A21AFB
:100E900080FB021ED117C1EB6E0101EB410103EB98
:100EA000C303A2EB810101EB41011A0102EB8103B3
:100EB0003B449B6823447F2B4BDDA3F17F0280FBE7
:100EC0000230D317C3EB600303EB4303A2EB8303AE
:100ED0007333D8B208F094FA2A8833881344042B69
:100EE00023DD3C4B1B88012B1FD1A4F10C007F2874
:100EF0004EDD3B4BA4F18B0083FB0032C317C3EBE9
:100F0000620303EB4303A0EB83007330C0B2BDE880
:100F1000F84308F075BA3449BDE8F843FFF792BECC
:100F20003249BDE8F843FFF78DBEBDE8F8832A4D8E
:100F30003AE70028BFF668AF4342D81781FB032188
:100F4000C0EB610101EB4101A3EB8101C1F10C0098
:100F50005AE7002BBDDA5A4280FB0230D317C3EBAD
:100F6000600000EB4000A2EB8000C0F10C03B0E792
:100F70000028BFF67FAF4342D81781FB0321C0EBA7
:100F8000610101EB4101A3EB8101C1F10C0071E7AB
:100F90000028BBDA124A434282FB0320DA17C2EB75
:100FA000600000EB4000A3EB8000C0F10C00ADE757
:100FB000E2A3FF1FDCA1FF1F04380100583C010021
:100FC000E83C0100C83B0100343A0100DC3D01006F
:100FD000ACA2FF1F20A2FF1FF8A1FF1F04A4FF1F48
:100FE000ABAAAA2A00350100C4A1FF1FD0A1FF1F90
:100FF000CEA3FF1F10B504460FF05AFD204610BDCA
:1010000070B44C88A04220D901230133DBB21CB25A
:10101000660031F8144084421D46F6D3A04211D038
:1010200005F10045013D965B31F8151032F8153099
:10103000401AF21A00FB02F0641A90FBF4F4E01874
:1010400070BC7047905B70BC704702260125E5E7D5
:1010500038B5274B1B78002B37D015200CF0E2FC5D
:10106000244B1860244B1B88984204DA234C2378C5
:10107000002B32D138BD224A1288D11A2BD082429D
:10108000D4BFC3EB0203C3EB000301EBD174C3EB8A
:10109000C31303EB640303FB01F2002A93FBF1F497
:1010A000B8BF04F1FF34002CE0D0144B1A780AB911
:1010B00001221A70134D2B689C4204D0124BE1B2EE
:1010C000187808F049F92C6038BD11200EF0F0F9BD
:1010D000084B1860C6E73F24E7E70B4B0021187860
:1010E00008F03AF90023074A2370136038BD00BFA7
:1010F000E4A3FF1FA4A1FF1F70A2FF1FACA4FF1F4A
:1011000044A4FF1FA4A4FF1F28A2FF1F38B50F206F
:101110000EF0CEF9204B214A1B881060C0F53B60D1
:101120000830984228DB1E4A1288D11A28D09042F3
:10113000D4BFC3EB0003C3EB020301EBD174C3EBD9
:10114000C31303EB640303FB01F2002A93FBF1F4E6
:10115000B8BF04F1FF347CB1124B1A780AB90122EE
:101160001A70114D2B68A34204D0104BE1B21878CD
:1011700008F0F2F82C6038BD0A4C237813B938BD5A
:101180003F24E9E7094B0021187808F0E5F800232F
:10119000054A2370136038BDDCA2FF1FBCA1FF1FEE
:1011A0002CA4FF1F54A4FF1F7CA2FF1F66A2FF1FD9
:1011B000521A0FD0411A002B03FB01F102EBD2703F
:1011C0000CDB01EB600101FB02F3002B91FBF2F061
:1011D0000EDB704703EBD37358107047A1EB60012F
:1011E00001FB02F3002B91FBF2F003DB01307047AF
:1011F00001387047704700BF521A10D010B402EB8C
:10120000D274411A641003FB014303FB02F100296D
:1012100093FBF2F010BCB8BF00F1FF3070475810DC
:10122000704700BF70B50E4615460446184610F0CC
:10123000B1FFAA1B0FD0A41B002800FB04F402EB93
:10124000D2700CDB04EB600404FB02F3002B94FB74
:10125000F2F00EDB70BD00EBD070401070BDA4EB5F
:10126000600404FB02F3002B94FBF2F003DB01307B
:1012700070BD013870BD70BDF0B40E8886420DD2CD
:1012800003F10043013B31F81350854202D9F0BC11
:10129000FFF7B6BE32F81300F0BC70471088F0BC00
:1012A000704700BF094B1B880C2B09D8084A80B235
:1012B00052F8232028B143F6FE73984203D9108CCC
:1012C0007047108870470349FFF79ABEF4A1FF1FCB
:1012D000403701004C390100494A4A4B2DE9F0479B
:1012E0001B681488484AA3422546178866DBBB4220
:1012F000A8BF3B46454A9C4298461360C8BF234658
:101300005FDD381B57D01B1B00EBD072C3EB833360
:1013100003EB620303FB00F2002A93FBF0F06DDBAA
:10132000FFF7C0FF3A4A3B4B16881B88C0F3C6192B
:1013300009FB06F67F2E8246A8BF7F26002B37D0FA
:10134000444543DD3A4621462846FFF755FF324BD8
:101350001860324C2368994509D0314B1B88002B0B
:1013600046D1304B1B88002B3ED1C4F800902E4C48
:1013700023689A4506D02A4B1B885A1F032A2AD96C
:10138000C4F800A0294C23689E420FD0284B18882F
:1013900048B1234B274A1B88D35C834203D0C0B299
:1013A000F1B207F0D9FF2660BDE8F087BDE8F0870D
:1013B000194A1360CDE741F6FF70B1E7134BA04621
:1013C0001C6047453B46A8BF43469AE7B84545469B
:1013D000A8BF3D46B6E7174AD05C2030C0B20AF03D
:1013E0007F0107F0B9FFCBE7484608F055F8BCE7A6
:1013F000104A4946D05C07F0AFFFB2E701388FE7EB
:10140000D8A2FF1F14A4FF1FACA1FF1F98A1FF1FAC
:1014100016A2FF1FB0A1FF1F84A4FF1F60A2FF1F21
:10142000FCA3FF1FCAA2FF1F88A4FF1FCCA2FF1F9F
:101430000AA4FF1F188EFF1F2DE9F04F01208DB069
:101440000EF036F8DFF880B3DFF880A3CBF80000A9
:1014500000200EF02DF8BC4BCAF800001B880C2BA6
:1014600000F0E081B94A00211F2B117039D0DFF85C
:101470006093B74BB9F80020B64F53F822600023B1
:101480003B70B54BB54A1B88B5491288013B012A10
:1014900031F91330089300F0E181B24B0393B24B62
:1014A0000293B24B0593B24C00230193B14B1B88BE
:1014B000012B00F01D82B04BDFF818830493AF4B73
:1014C0000693D8F8005000230793AD4B1B88013BCF
:1014D000032B00F24A82DFE813F0F200D000130081
:1014E0001401A84BDFF8E8921B78B9F80010984A6D
:1014F000984F52F82160003318BF01233B70C0E7BA
:10150000284610F02DFCA04910F07EFC05460798F7
:1015100010F026FC9D4910F077FC0146284610F09B
:101520006BFB10F037FE0546C8F80050206810F03D
:1015300017FC954910F068FC8046019810F010FCEB
:10154000924910F061FC0146404610F055FB10F046
:1015500021FE20608E4B8F4A1B8812888E49DBF853
:1015600000800C888D49C3EB050E1D44049BC3F815
:1015700000E0831A1044069A1560039A0D881360E0
:10158000059BA0451860C0F2498145452846A8BF83
:10159000404633462A462146FFF70AFEDAF800A005
:1015A0005445834600F33C8155452846A8BF504624
:1015B0002A4633462146FFF7FBFDA04500F3108184
:1015C0005445C0F20D81DFF81092D9F8000010F0F8
:1015D000C7FB734910F018FC724910F00DFB10F0B6
:1015E000D9FDA0F5FF531C3B082B98BF4FF40050CA
:1015F000029BDFF8E8811C6843F6FF750444AC42A7
:10160000A8BF2C4624EAE474C9F80040204610F034
:10161000A7FB8146387806FB00F010F0A1FB4FF0E5
:101620007A5110F0F1FB0146484610F0E3FA10F051
:10163000B1FD5D4BA842A8BF28461B7820EAE070A8
:10164000C8F80000002B00F0DD80B4F5005F00F06A
:10165000D98004F0B5FD554BD8F8000001221A706E
:10166000534C2368834205D080B207F045FED8F87A
:10167000003023600DB0BDE8F08F284610F070FBFD
:101680004C4910F0C1FB0546079810F069FB4A4928
:1016900010F0BAFB0146284610F0AEFA10F07AFDC1
:1016A0000546C8F80050206810F05AFB414910F078
:1016B000ABFB8046019810F053FB3F4941E72846B9
:1016C00010F04EFB3D4910F09FFB0546079810F0C7
:1016D00047FB3B4910F098FB0146284610F08CFA76
:1016E00010F058FD0546C8F80050206810F038FB8F
:1016F000324910F089FB8046019810F031FB3049E7
:101700001FE7284610F02CFB254910F07DFB05460D
:10171000079810F025FB2B4910F076FB0146284670
:1017200010F06AFA10F036FD0546C8F8005020683F
:1017300010F016FB1A4910F067FB8046019810F074
:101740000FFB2049FDE600BF46A4FF1F9EA1FF1F1F
:10175000948DFF1F24A4FF1F268DFF1F1AA4FF1FB7
:101760009C3D0100A8A4FF1F50A4FF1F8CA2FF1FD7
:1017700090A1FF1FB6A1FF1F38A4FF1FC0A3FF1F2A
:10178000688DFF1FBAA1FF1FCDCC4C3FCDCC4C3E86
:10179000248EFF1F608DFF1F10A4FF1F18A2FF1FC4
:1017A0009A99193FCDCC4C456EA5FF1FC8A2FF1FCB
:1017B000288DFF1F6666663FCDCCCC3D3333733F2B
:1017C000CDCC4C3DCDCCCC3E50A2FF1FECA1FF1F99
:1017D00058A2FF1F34A4FF1FCC8DFF1F648DFF1F75
:1017E000B9F80030002B3FF4EEAEC0EB0B03002B3A
:1017F000B8BF5B42092B00F3BA804FF40050DFF80A
:10180000F892F5E6A84C2378002B3FF429AF04F0BA
:10181000D3FC0023D8F80000237021E72046B8E667
:101820002046C5E6A14B1B78002B00F0C180DFF8F5
:10183000CC929F4BB9F800109E4A9F4F53F821005D
:101840000023012111703B7010F08AFA4FF07C5197
:1018500010F0DAFA10F09EFC064612E6974B984A12
:101860001B8898491278013B31F91380002A40F017
:101870009A8011200DF01CFE0190934B03931D687C
:10188000019B9D4240F39780904B914C1B882268AE
:1018900090490491012B904B1B8805938F4B029329
:1018A000C8EB0208304600F02D8110F059FA059B74
:1018B000049951F823108A4B059310F0A5FA0146BC
:1018C000002010F097F9034601984045424629460A
:1018D000B8BF4046FFF7A6FC02990B681844814B3D
:1018E0001B8800EBD0704010012B08607FF4E3AD43
:1018F0007D4B04931D460F200DF0DAFD2B680790F9
:101900009842099380F28780704BDFF8F4811B883E
:10191000012B714B00F0B3801A886E4B0A9230464F
:10192000069310F01DFA069B0A9AD8F8005053F857
:1019300022106E4B069310F067FA089B0146EA1AD4
:101940000020089210F056F9089A09990346079862
:101950009042B8BF1046FFF765FC029A136818441E
:1019600000EBD07040101060AFE52068F2E50BF599
:10197000005B0BF1010BC0EB0B0010F0F1F95C49BF
:10198000DFF8749110F040FA0446D9F8000010F026
:10199000E7F9584910F038FA0146204610F02CF9C2
:1019A00010F0F8FB24E615200CF03CF8019064E7F9
:1019B000404A13705BE54A4B05931D68019B9D42AD
:1019C0001FDA424B424C1B88226842490491012B8A
:1019D000414B1B880693414B02939044304600F0E4
:1019E000A68010F0BDF90499069B51F8231010F061
:1019F0000BFA03460198404542462946A8BF404697
:101A000068E7364B029319461B68314C03EBD373DE
:101A10005B100B604AE5354B0693079A1B680993E8
:101A20009A4221DD294BDFF8D8801B88012B2A4BF5
:101A300000F08A801988274B0B9130460A93D8F81A
:101A4000005010F08DF9089B0B992B4408930A9BCA
:101A500053F8211010F0D8F9089A0999034607980D
:101A60009042A8BF104676E7029ADFF89480136888
:101A7000D8F8005003EBD3735B10136025E5198889
:101A8000144B0A9130460693D8F8005010F068F9CC
:101A9000089B0A99EA1A069B089253F82110134BE7
:101AA000069310F0B1F94FE7C8A2FF1FBAA1FF1FBC
:101AB000948DFF1F9EA1FF1F24A4FF1F708EFF1F88
:101AC000E4A3FF1F94380100A8A4FF1FA2A2FF1FD8
:101AD00090A1FF1FB43D0100F0A1FF1F50A4FF1F04
:101AE0008CA2FF1FB6A1FF1F38A4FF1FC0A3FF1FBA
:101AF000CDCCCC3E9A99193FCC8DFF1F58A2FF1F29
:101B000034A4FF1F10F02CF9059B0499224A51F8C8
:101B10002310059210F078F90346019840452946B4
:101B20004246B8BF4046FFF77DFB1C49D5E610F0A2
:101B300017F9069B049951F8231010F065F9014636
:101B4000002010F057F854E71A88154B0B923046D6
:101B50000A9310F005F90B9A0A9BD8F8005053F835
:101B6000221010F051F9089B01462B4400200893E5
:101B700010F040F8089A0999034607989042A8BFC8
:101B80001046FFF74FFB029A1368184400EBD07021
:101B90004310136099E400BF8CA2FF1F50A4FF1FE5
:101BA000B43D010008B5244B1B88FBB1234B1B78C7
:101BB000FBB1234B1B78E3B1224B1B78CBB1224BFB
:101BC0001B78B3B1214B22481A78C2B9214A224965
:101BD0000088128809680244B1EB620F09DD012216
:101BE0001A706420BDE8084004F0FEBA174A117864
:101BF00001B908BD1370BDE8084007F021BC154AC3
:101C000016490088128809680244B1EB620FF0DDC2
:101C100000221A7007F014FC642004F0E5FA642036
:101C200004F0E2FA642004F0DFFA4FF41670BDE825
:101C300008400CF07FBB00BFD6A3FF1F7BA4FF1F93
:101C40007CA4FF1FF8A3FF1F7EA4FF1FF2A1FF1FAC
:101C500018A2FF1F10A4FF1F50A2FF1FECA1FF1F1F
:101C600038B5114C232025780BF0DCFE0F4A42F8E2
:101C70002500131F02F1C400002253F8041F834201
:101C80000A44FAD123780A4907480A4C0133DBB2E7
:101C9000322B81FB025108BF0023D217C2EB211265
:101CA0000370226038BD00BFB2A1FF1FE8A2FF1F72
:101CB0001F85EB510CA4FF1F2DE9F04FC34CC44D01
:101CC0002068C44E83B010F04BF8C34910F09CF864
:101CD000074610200DF0ECFB10F042F8BF4910F061
:101CE00093F839460FF088FF10F054FA2A882060E4
:101CF0009042964631886EDA1346B1EB020C68D0FA
:101D00009B1AC3EBC3170CEBDC7307EB630303FBFA
:101D10000CF7002F93FBFCF3C0F2AB81B04FDFF860
:101D2000F082B7F800C0C8F80030BCF1190F00F01D
:101D30001181BCF11A0F00F07A81BCF11E0F00F086
:101D400083810127B846A74B1B88002B00F0CC806D
:101D50009446A54A1288032A00F26081704580F2F9
:101D60008A810A4670466146FFF746FA9F4B186023
:101D70009F4B1888002833D19E4A128882BB9E4B05
:101D80001978002940F087819C4B1B78002B00F0CC
:101D9000A3802B8821688B4200F39E803088C41A70
:101DA00000F07F8104EBD4728142D4BFC3EB010306
:101DB000C3EB0003521002EB430303FB04F2002ABF
:101DC00093FBF4F300DB01338D4A136003B0BDE8ED
:101DD000F08F3F23A2E788420346A8BF0B468CE75B
:101DE0002A882168DFF8E891DFF8E0A18A4200F351
:101DF0008380DFF804E29EF800C0BCF1000F37D109
:101E00004FF0010C04288EF800C031D1002F40F0B3
:101E1000C481784B18880028B6D0B8F1000FB3D031
:101E200023682A8837889342C0F2B581BB42A8BF95
:101E30003B46BF1A00F0BE819A1A07EBD773C2EB7C
:101E400082125B1003EB420303FB07F2002A93FBB1
:101E5000F7F700DB0137DFF8B481D8F80030BB4278
:101E600003D0C0B2F9B207F077FAC8F800708BE778
:101E7000012800F03981022800F021810328C8D10F
:101E8000604B1B88092BC4D0002FC2D023682A883E
:101E90003788934280F2AF811346BF1A00F0AF81BA
:101EA0009A1A07EBD773C2EB82125B1003EB420363
:101EB00003FB07F2002A93FBF7F700DB0137DFF89B
:101EC00048A1DAF80030BB4203D0F9B24A2007F04B
:101ED00043FACAF800709CE7494B00221A6003B02D
:101EE000BDE8F08F98460127BCF11E0F7FF440AF8C
:101EF0000023DFF82091B2E03F4B1A78002A3FF42C
:101F000043AF4FF00009012883F8009000F0CB8028
:101F1000022840F05181002F00F0E0803A4F3B68EA
:101F2000002B00F0DB800420494607F015FA314B06
:101F3000C7F80090188800283FF426AFB8F1000FCA
:101F40003FF422AFC0B2002107F006FA2F4B002267
:101F50001A6019E7DFF8BC9099F80030CBB1DFF8D0
:101F60009480B8F800A0BAF1000F12D0DFF8A88072
:101F700098F800B09B4500F090805FFA8AF07F21CE
:101F800007F0EAF999F80030B7F800C088F8003097
:101F900010E0DFF8848098F800A09A457DD0154BBA
:101FA0000021187807F0D8F999F80030B7F800C088
:101FB00088F800300B4B1B88002B93D0BCF11E0F10
:101FC00040F02A8101274FF0000848E024A2FF1FBB
:101FD000DCA3FF1FD8A3FF1F9A99193FCDCCCC3E9D
:101FE00046A4FF1F5AA2FF1F3CA4FF1FE0A2FF1F31
:101FF0004EA2FF1F58A4FF1F4DA4FF1FF6A1FF1FF5
:10200000B8A2FF1FFCA3FF1FE4A2FF1F0CA2FF1F2B
:1020100028A4FF1FBAA1FF1FB8A1FF1F70452FDA28
:1020200062467046FFF7E8F8804B1860A0E6DFF8DC
:10203000109299F80030002B0BBF012700274FF0BA
:1020400000084FF001087EE6DFF8F491784B99F82C
:1020500000701B88B7FA87F77F094FF0000899F8DE
:102060000020002A3DD0B5F800C020683188E6463F
:102070006FE6013B52E68842A8BF0846864670E6F6
:102080008842A8BF0846864662467046FFF7B4F805
:10209000664B18606CE61A7076E601274FF0000870
:1020A00051E6022390E6CFB1624F3B68B3B1494697
:1020B00007F052F9604BC7F8009018883BE7002FF3
:1020C0003FF4A7AEDFF86CA1DAF800203CE004286A
:1020D00004D11FB14946402007F03EF9564B1888FD
:1020E00029E7524B1A6043E6002F3FF492AEB6F850
:1020F00000904945A8BF49460846B9EB020973D08C
:1021000009EBD971821A4910C2EB821201EB42022B
:1021100002FB09F1002992FBF9F901DB09F1010940
:10212000DFF810A1DAF800204A4506D05FFA89F1FD
:102130000120019307F010F9019B1888CAF800905C
:1021400002287FF49BAE4A4621682888B6F800E052
:1021500081424CDA0146BEEB000E42D0091A0EEB6A
:10216000DE704010C1EB811100EB410101FB0EF06C
:10217000002891FBFEF901DB09F10109914506D028
:102180005FFA89F10420019307F0E6F8019B1888B3
:10219000CAF8009072E613464BE640207F21019377
:1021A00007F0DAF8019B188801282AD002287FF46A
:1021B00065AE87E740274EE6032888D11F4B1B8872
:1021C000092B8BD0002F89D01A4F3B68002B85D06C
:1021D0004A20494607F0C0F8174BC7F80090188806
:1021E000A9E64FF04009C9E74FF0400998E771456B
:1021F000A8BF7146AFE7BB42A8BF3B464DE64027AC
:102200005DE6B9F80000DAF80010B6F800908142F7
:102210000246FFF672AF6CE7B5F800C0206831885F
:10222000E64601274FF0000893E500BFE0A2FF1F3C
:102230005AA2FF1FE4A2FF1F58A4FF1FFCA3FF1F09
:10224000BAA1FF1F08B5114B1B88022B09D0052B23
:1022500007D0032B15D0042B0BD00D4B01221A7085
:1022600008BD7F21412007F077F8094B01221A7041
:1022700008BD7F21092007F06FF8054B01221A7075
:1022800008BD4021092007F067F8E6E7DEA2FF1F3E
:1022900074A2FF1F38B5074B074D1B88052B04465A
:1022A00006D02B68834203D0C1B2052007F054F852
:1022B0002C6038BDDEA2FF1F60A4FF1F38B5124D91
:1022C000124C2B88052B12D022684AB9022B0ED053
:1022D000033B012B13D90E4A00231370236038BD32
:1022E0000021052007F038F82B88022B04D10021AB
:1022F000412007F031F8EEE7052BE9D1F7E700219F
:10230000092007F029F8E6E7DEA2FF1F60A4FF1FFF
:1023100074A2FF1F38B53A4B1B881D2B37D0394D9F
:102320000024394B1B88022B15D0384B1B88022BFD
:102330004AD02D88364B002C1B780ADBAC42A8BF54
:102340002C4634B1002B30D02046BDE83840FFF792
:10235000A1BF33BB38BD2F4B1B78002B2ED01520CF
:102360000BF060FB2C4B18602C4A1288002ADCD042
:102370002B4A186811888142D7DC2A4A2B88128898
:102380009042A8BF1046FEF737FF0444CDE7234B29
:102390001C888CB1244B1B4D1C78002CC1D02C8880
:1023A000BFE7BDE83840FFF789BFFFF74BFF204686
:1023B000BDE83840FFF76EBF124DB2E711200DF0B7
:1023C00077F8154B1860CFE70F200DF071F8134B1D
:1023D000164A1B881060002BABD0154BC0F53B6034
:1023E000198808308842A4DB124B2D881A88904245
:1023F000A8BF10462B46FEF7FFFE04449AE700BF35
:1024000046A4FF1F4AA4FF1F1AA4FF1FB6A1FF1F67
:1024100074A2FF1FE4A3FF1FA4A1FF1FDEA2FF1FE2
:1024200070A2FF1F44A4FF1FBAA1FF1FBCA1FF1F82
:10243000DCA2FF1F2CA4FF1FF8B510200DF038F808
:10244000C830B0F5FA7FC0F29680B0F57A6F0146D9
:10245000A8BF4FF47A6101F51673B3F57A6FA8BF80
:102460004FF47A639BB289B2914A924C1180222038
:10247000238007F0EDF821888F4D904C242007F041
:10248000E7F80E200BF0CEFA40F6FF71C830884214
:10249000A8BF084620EAE07000F2DC5283B28A420C
:1024A000A8BF0A460220194622802B8007F0D0F8E8
:1024B0002188042007F0CCF801200CF0F9FF044635
:1024C00000200CF0F5FFA042B8BF204600F1C80183
:1024D000B1F5FA7FC0F2D680B1F57A6FA8BF4FF49C
:1024E0007A6101F54873B3F57A6FA8BF4FF47A6348
:1024F0009BB289B2724A734C11800A20238007F084
:10250000A7F821880C2007F0A3F80F200CF0D0FFCB
:10251000C0F53F610431B1F5AF6FC0F2B080B1F5E5
:10252000FA6FA8BF4FF4FA6189B2674BC0F54360F8
:10253000B0F5AF6F1980C0F29B80B0F5FA6FA8BFFD
:102540004FF4FA6083B2614CA420238007F080F836
:102550002188A62007F07CF815200BF063FA00F51F
:102560009671B1F52F7F0BDB41F25C23994240F36A
:102570008E80194608E040F24C434FF4FA7173E73D
:1025800040F214534FF42F71514A1180514C524D67
:102590002380062007F05CF82188504E082007F0C1
:1025A00057F800274FF4AF74F9B24D4808F09EFE7B
:1025B00055F8043BC3F5967300FB03F086FB00233C
:1025C000C017C0EB6310844207F10107A8BF04469F
:1025D000062FE9D1434F414E0025E9B2424808F0A9
:1025E00085FE57F8043BC3F5967300FB03F086FBAA
:1025F0000023C017C0EB6310844205F10105A8BF9A
:1026000004460C2DE9D1394F344E0025E9B2384843
:1026100008F06CFE57F8043B304AC3F5967300FB94
:1026200003F086FB0013C017C0EB6310844205F172
:102630000105A8BF04460C2DE8D1A4F114013129ED
:1026400019DD40F23A73A4F5B97403FB04F4963C27
:1026500082FB0432E417A4EB621289B232322548BD
:10266000254B01801A602A20BDE8F84006F0F0BF33
:102670004FF4AF6367E740F26C723221EFE74FF43B
:10268000AF6152E740F214534FF4FA7132E7104A47
:1026900000F5617089B2B0F52F7F1180B8BF4FF49B
:1026A0002F73FFF673AF8342A8BF03469BB26DE75B
:1026B000DCA3FF1FD8A3FF1FD8A2FF1FACA1FF1FE1
:1026C00010A4FF1F18A2FF1FDCA2FF1F2CA4FF1FD6
:1026D00070A2FF1F44A4FF1F588EFF1FB5814E1B21
:1026E000B8A3FF1F288EFF1F54A2FF1F308DFF1FAE
:1026F000D0A2FF1F78A4FF1F148EFF1F2DE9F04FFB
:102700000C2083B00BF05AF90C200BF045FDCA49A0
:10271000DFF8ACA314200BF04FFDC849C84808F0FF
:10272000B5FA022103200BF0DDFD022104200BF09D
:10273000D9FD022105200BF0D5FD022106200BF06A
:10274000D1FD01210A200BF0CDFD012109200BF064
:10275000C9FD01210D200BF0C5FD012128200BF042
:10276000C1FD012114200BF0BDFD012116200BF04D
:10277000B9FD012117200BF0B5FD012121200BF03F
:10278000B1FD02211C200BF0ADFD01211B200BF03F
:10279000A9FD00211B200BF091FD1C200BF094FDE6
:1027A000B0FA80F35B091A208AF800300CF000F8C8
:1027B0001F2000210BF0C2FF04200BF085FD002834
:1027C00000F0908105200BF07FFD002800F0BB8118
:1027D00000239C4C062023700BF076FDB0FA80F3AA
:1027E0005B094FF0000B984A137005F071FA2378DB
:1027F000002B40F07281584606F054FF934B9449E9
:102800001B88944840F23A72A3F5AF7302FB03F3BE
:10281000963B81FB0321DA17A2EB61128E49002B54
:10282000D4BF02F1320302F1310309888B4A0170EF
:1028300001210D2013600BF041FD64200BF07AFDA7
:1028400006244FF416710A200BF0A8FB00940C2309
:102850007B4A83485D2108F0B1FD002800F0B0817B
:1028600064200BF067FD00210A200BF097FB4FF46A
:10287000967109200BF092FB00940C23704A794862
:102880005C2108F09BFD002800F0878164200BF09C
:1028900051FD002109200BF081FB4FF496711620A9
:1028A0000BF07CFB00940C23654A6F485B2108F019
:1028B00085FD002800F04E8164200BF03BFD0021D7
:1028C00016200BF06BFB4FF4967117200BF066FB94
:1028D00064200BF02FFD002117200BF05FFB64201C
:1028E0000BF028FD00210D200BF0E8FC5F4A60484A
:1028F0001268DFF8D0915F4F5F4D604EDFF8C881FE
:1029000000230121FDF7D0FD0023012289F80020DA
:102910003B602B60336004240F200CF0C9FD33684A
:1029200003440E2033600BF07DF83B6899F80020DB
:1029300018443860002A00F0C98015200BF072F8A6
:102940002B681844286004F0010080F0010003F0B7
:102950003BFCB8F80030002B14BF4B20DC200BF000
:10296000E9FC013CD8D133683968424A2868444FB1
:10297000002BB8BF03330029B8BF033189101160A1
:102980004049414A098814889B1000283360B8BF29
:1029900003303E4E8210581A19442A603160386064
:1029A0003B4D3C483C49161B22442E6002600B60A4
:1029B000BBF1000F40F0AF80B8F80030002B00F002
:1029C0009D80364B012404201C600BF07DFC18B95F
:1029D000334B204A1C701070324B1B881C2B00F0AC
:1029E000A280314C04F1C80523200BF01BF844F8F9
:1029F000040F01200BF09EFCA542F5D19AF800309F
:102A000023B12A4B1B78002B40F098800021212015
:102A10000BF054FC264A274B1078187006F0DEFDA8
:102A200003F0CAFB2449254845F6BF5203B0BDE870
:102A3000F04F0DF0F3BF00BF001B374640420F00C0
:102A40001896FF1FFAA1FF1FC4A3FF1F78A4FF1F42
:102A5000B5814E1B88A2FF1F8EA4FF1F148EFF1F7F
:102A6000B8A3FF1FD0A2FF1F54A2FF1F2C8DFF1F72
:102A70002CA2FF1FA8A1FF1F90A1FF1F34A4FF1FBE
:102A800038A4FF1F248EFF1F608DFF1FC0A3FF1FF0
:102A9000A8A4FF1F8CA2FF1F90A4FF1F40A4FF1F2C
:102AA000C1A1FF1F46A4FF1FE4A2FF1FDEA3FF1F5B
:102AB000E0A3FF1FB5A3FF1FA505000068A4FF1F2B
:102AC000BCA3FF1FE4A3FF1F06A4FF1F11200CF0EF
:102AD000EFFC2B681844286035E703B0BDE8F04FE1
:102AE00007F0E8BF06200BF0EFFB00287FF46AAE8A
:102AF000364C034620704FF0010B74E64FF4FA7029
:102B000003F072FB03F05CFB05F03CFC4FF4AF609C
:102B10000BF010FC55E7FFF78FFCB8F80030002BE6
:102B20007FF44FAFEAE72A4B188800283FF459AFEB
:102B3000284BC0B2197806F00FFC52E70121212082
:102B40000BF0BCFB66E703200BF0BEFBB0FA80F392
:102B50005B093EE603200BF0B7FB0028FAD1042006
:102B60000BF0B2FB0028F5D105200BF0ADFB0028DF
:102B7000F0D106200BF0A8FB0028EBD10CF096FD5D
:102B800004200BF0A1FB40B905200BF09DFB20B900
:102B900006200BF099FB0028F0D003200BF094FBEB
:102BA0000028FAD1ECE704200BF08EFB40B9052099
:102BB0000BF08AFB20B906200BF086FB0028DDD045
:102BC00003200BF081FB0028FAD1ECE7FAA1FF1FEC
:102BD00090A2FF1F22A2FF1F2DE9F04FDFF814B3D0
:102BE0009BF80030012B99B000F05083C0F0D882E0
:102BF000022B00F085818D498D4891F800C08D49E8
:102C000001918D498D4D8E4C8E4E8F4F8F4A06917E
:102C10008F4903918F4990F800A002912D788E4939
:102C20002478367897F800901278DFF8CCE2DFF855
:102C3000CC828A480491012B94BF013300238BF886
:102C40000030874B874983F800A0874B0D701C70BC
:102C50008649874B0E7083F800C08649864B81F801
:102C600000A01A70B9F1000F40F0C281834B1F8899
:102C70000D2F00F02E82824900239B460B702CB151
:102C80007E490F88002F40F031823C467D490988FB
:102C9000E3180593002940F0C6817B4B7B49029CD9
:102CA0001B78247809780133A3EB4403002940F012
:102CB0002482049909785B1A002940F0A383002438
:102CC0007349039F09783F781B1BA3EB41033344EF
:102CD0005D1B17B1B6FA86F77F099EF800303D44B8
:102CE000EC1A002B00F01D82003118BF0121019B5E
:102CF00098F8007006781D786648631ADB1BA3EB12
:102D000046036344CAEB030AAAEB42024FF00C09E4
:102D100019FB052202606048604B614D04881B88E6
:102D200060482E686049614D008809882D68033B22
:102D300003EB430302EB8303C0EBC00028440B44C6
:102D4000C4EBC4045A495B4D51F820100598344433
:102D50000C3B55F82440034423445C18BBF1000F9E
:102D600001D0554B1A60554B554A1B88042B8CBF1C
:102D700001210021117040F23581524A52481168F8
:102D800003EB83039AB20329028000F063840020DE
:102D90004E4D4F492B6808709C4200F096814D497A
:102DA0004D4F0B680893089E4C4B3E6001271F70E7
:102DB0000B6809934A4F099B3F88DFF818E19B1B7A
:102DC000BB4240F22081474B1C60002800F0A781E5
:102DD000424B1878002840F00B832C60424D23466C
:102DE0002C689C4200F019810868404F0B900B98AA
:102DF0003E68801B904214D31B1B002BC0F27883CB
:102E00000BD03B4A126882EAE270A0EBE270834288
:102E1000ACBF134601231C442C600B680C930C9B25
:102E20003B60069B1C6019B0BDE8F08FF9A3FF1F43
:102E3000FAA3FF1FCCA3FF1F9CA4FF1F73A2FF1FB9
:102E4000FFA3FF1F72A2FF1FB4A4FF1FFBA3FF1F5E
:102E50007DA4FF1F5BA4FF1F5CA4FF1F72A4FF1FC4
:102E6000AEA4FF1FAFA4FF1FB0A4FF1FB1A4FF1F9C
:102E7000B2A4FF1FB3A4FF1F4CA4FF1FB6A4FF1FE3
:102E8000BAA1FF1F9CA1FF1F268EFF1F98A4FF1F42
:102E90005DA4FF1F00A4FF1F3CA4FF1F1EA4FF1F73
:102EA000E0A2FF1F76A2FF1FB4A1FF1F84A4FF1F93
:102EB000DC380100E83A01001CA2FF1F22A4FF1F1A
:102EC000F6A1FF1F40A4FF1FD08DFF1F68A2FF1FA8
:102ED000B9A1FF1F8CA5FF1F94A2FF1FB4A2FF1F63
:102EE00056A4FF1F30A4FF1FC8A3FF1FE8A3FF1FA6
:102EF000B8A2FF1FB4A3FF1FADA4FF1F48A4FF1F6C
:102F0000894F8A4D0CAE0024E1B2894808F0EEF9F1
:102F100057F8043BC3F5967300FB03F085FB0023D1
:102F20000134C017C0EB63100C2C46F8040BEBD136
:102F3000804B0D981F88804B0293804B139993F818
:102F400000C0149B7E4A0492BB42ACBF4FF0000904
:102F50004FF00109159B7B4A179E0F9D92F800A028
:102F6000109CDFF82C82DFF82CE288F80090874272
:102F7000D4BF002001208F42D4BF002101219F42F5
:102F8000169BDFF81482D4BF002201229F42D4BFD7
:102F900000230123B742D4BF00260126AF42D4BF8D
:102FA00000250125A742684F3870634F6748397084
:102FB00063490A70664A67491370674B01911E7036
:102FC0006649674B0691D4BF0024012465491D70F2
:102FD0008EF8004002789BF800300391DFF8BCE1E6
:102FE000614828E6614900231A460B801846CFE65F
:102FF0005F4B60491B884FF0010B182B81F800B024
:1030000077D900233BE62C605B4B00287FD05B4DDB
:103010001B682C689C427FF4E7AE1C46069B1C6034
:1030200019B0BDE8F08F012900F0CC82022900F030
:1030300027830329524B00F0EA81042900F095838D
:10304000052900F023841C7803789EF8001007936C
:10305000049F029B019897F800E098F800901B7875
:10306000DFF8EC8000780190A4EB4104079998F810
:103070000080039FBEF1000FC9EB0409A1EB8100A2
:10308000C3EB837EC3EB8E034844184414BF002374
:103090000423B8F1000F03443F783A4C14BF0020DA
:1030A0000320034403EB470303EB82031E44019A0E
:1030B00006EB0C03C2F106025D1B02EB4202A5EB1C
:1030C0004A0A0AEB8202226025E62F4B2F491E682E
:1030D0006EE6002C3FF4CFAD254B26491B884FF000
:1030E000010B182B81F800B003D94B46A7F10D0452
:1030F000CCE50C3B4FF0010BC1E50499002C00F02E
:1031000070810C78002C40F02C83013BD8E51C68C2
:103110001A4B1C60069B1C6019B0BDE8F08F2C6038
:10312000F6E71946E3E500BF308DFF1FB5814E1B62
:10313000D0A2FF1F78A4FF1F5BA4FF1FF9A3FF1FEE
:103140005CA4FF1FFAA3FF1F98A4FF1FFBA3FF1F90
:103150005DA4FF1FCCA3FF1F72A2FF1F9CA4FF1F33
:1031600073A2FF1F7DA4FF1F72A4FF1FD08DFF1F3E
:1031700046A4FF1FBAA1FF1F30A4FF1FC8A3FF1F53
:10318000268EFF1F00A4FF1F94A2FF1F8CA5FF1F08
:10319000B4A4FF1FFFA3FF1F48A4FF1FADA4FF1F80
:1031A000B04FB14D0CAE0024E1B2B04808F09EF82B
:1031B00057F8043BC3F5967300FB03F085FB00232F
:1031C0000134C017C0EB6310062C46F8040BEBD19A
:1031D000A74BDDF830901A88119B02930DF134084B
:1031E00098E800519145ACBF00270127A14BDFF8BB
:1031F000F0A2198810984245D4BF002601266245E6
:1032000007EB0603D4BF002501252C462B449A4D1D
:103210008AF800602F70994DDFF8C8A22C707245B3
:10322000029C974DD4BF0027012782423B44D4BF64
:1032300000260126A2422E708AF800703344D4BFC3
:10324000002701278F4E904D37703B448F4E0196DB
:10325000DBB201292B708E4D37468CBF002601262C
:103260002E70A2424FF000053D7040F38D808242E7
:1032700002DC012900F26381019C864D06230329AB
:10328000237000F05783844A069247E1834F764DBE
:103290000CAE0024E1B2824808F028F857F8043B4D
:1032A000C3F5967300FB03F085FB00230134C017C0
:1032B000C0EB63100C2C46F8040BEBD16C4B0F9D4C
:1032C0001F88109C0E990D9B0C9E76480390BD4262
:1032D000ACBF00250125A742D4BF002401248F42A2
:1032E000D4BF002101219F42D4BF002301236E4897
:1032F000DFF8F4810370B742149E6C4B139A88F880
:103300000010D4BF4FF0000C4FF0010CB742D4BFF7
:103310004FF0000A4FF0010A654983F800A0169BA0
:1033200081F800C09742DFF8C4E15E4E6149357014
:10333000D4BF002201229F428EF800400A701DDC9B
:10334000002311995C4C5D4D23708F424F4B0193CC
:10335000D4BF00270127504B2F7006935849594B73
:10336000594D5A4C0E785A4902915A4993F8009097
:103370002D7824789BF8003004915CE4159B9F42E3
:10338000D4BF00230123DCE7824240F3D88072459A
:1033900000F3BC80012940F2B980624540F3D88037
:1033A000424500F3CA82012940F2C782914580F26A
:1033B000D8800123019D2B70364D374B069303298E
:1033C00040F0AA80029B9A4240F3A680824200F31A
:1033D000A3802B78062B40F09F80019A072313705F
:1033E0009CE00978013B5B1A00297FF469AC66E434
:1033F000DEF800000A900A98374F10440026386023
:103400001E70EAE4002C3FF45AAC012458E4197809
:10341000029B9EF800401B78039F98F8006000789C
:1034200097F800E0049FA1EB4401A0EB8000891B0A
:10343000C3EB83740144C3EB84030B443F7803EB79
:103440004E0303EB8203002F40F005820125019A11
:10345000224912782B444FF00C0919FB02320A6002
:1034600059E400BF588EFF1FB5814E1BB8A3FF1F44
:1034700078A4FF1FB0A3FF1F7AA4FF1F7CA4FF1F27
:103480007EA4FF1F7FA4FF1F10A2FF1FCCA3FF1F5E
:103490001CA4FF1FDAA3FF1F9CA4FF1F288EFF1F81
:1034A00054A2FF1F7DA4FF1F72A4FF1FFAA3FF1FDA
:1034B000F9A3FF1FFBA3FF1F1AA2FF1FBEA2FF1F3E
:1034C00072A2FF1FB4A4FF1F73A2FF1FFFA3FF1F61
:1034D0005BA4FF1F5CA4FF1FE8A3FF1F00A4FF1F46
:1034E0007BA4FF1FF8A3FF1F48A4FF1FADA4FF1F6D
:1034F000B54A126882EAE2705B42A0EBE270834256
:10350000ACBF13460123E41A2C6086E4019AAF4D48
:1035100005231370AE4B0693019B1B78AD48AE4953
:10352000AE4A2B70AE4B90F800A091F800C0127814
:103530000393DFF8E8E2DFF8E882AA480EE7724575
:103540007FF72BAF624500F39F81012940F29C81F8
:1035500042457FF72BAF9145C0F2F181012940F23E
:10356000EE819A4D2E78012E7FF627AF09B1019F8B
:103570003E709D4E3688002E00F0E381002B40F017
:10358000E0819A4B1B88013B9BB2062B00F2D9814C
:10359000974B1B78002B00F0D481964B1B68012BB6
:1035A0008B4B06937FF40BAF1F68DFF878E20C2398
:1035B00097FBF3F603FB1673AEF800308E4B032631
:1035C0001E70FCE68D4B8E4F029C1B7824783F7852
:1035D0000133A3EB4403002F40F0B680049909782F
:1035E0000291DF1B029BFF1A002B40F0A980029979
:1035F000DFF82092039B99F800901B78791AA1EBD1
:10360000490131444D1B13B1B6FA86F35B099EF8AC
:1036100000702B44DB1B1FB119F1000718BF0127F5
:1036200098F800100078DB1B5B1AA3EB400363449F
:10363000CAEB0303A3EB4203002C6BD102990029D0
:1036400000F01781B9F1000F0CBF4FF0000E4FF0E2
:10365000090E61E05C4B1B68002B7FF798AB694B50
:10366000187800287FF493AB674B1B78002B7FF40E
:103670008FAB664B1878B0FA80F04009FFF788BB33
:10368000049C634B24780299624F029498F800409E
:1036900090F800805A489EF80090097890F800E071
:1036A0003F789DF8080083F808C0DFF87CC15A72A3
:1036B00083F801E0987019701E7183F805909C7171
:1036C00083F80780DF704FF0000E01220023504F77
:1036D00018465FFA8EF866460C4607E0022A09D0C3
:1036E0000A2B0BD017F8014F16F8012F944203F163
:1036F0000103F3D101300A2BC0B2F3D1092800F243
:1037000004810EF1010EBEF1100F00F08F801CF845
:103710000A2FDBE74FF0000E734400BB002A0CBFFA
:1037200000216FF00901019A3B4812780B444FF0D9
:103730000C0919FB02320260FFF7EDBA02995F1A19
:10374000211C18BF012153E7002C00F08D80049943
:10375000097802910029F1D15F1E029948E7002102
:10376000E1E71B1B0124FFF7ABBA93F80090039B22
:10377000029F9EF8004093F800E0049B3F7898F881
:103780000060007893F800C0A9EB44039E1BA0EBF7
:103790008000C7EB87730644C7EB8307F31903EB7D
:1037A0004E0E11FB02E1BCF1000F65D10125019B1A
:1037B0001A78194BC2F1060202EB4202294401EBCE
:1037C00082021A60FFF7A7BAB8A2FF1FDAA3FF1F91
:1037D0009CA4FF1FFAA3FF1FF9A3FF1FFBA3FF1F5A
:1037E0007DA4FF1F72A4FF1F20A4FF1FE2A3FF1FE1
:1037F000DAA2FF1F40A4FF1FC88DFF1F268EFF1FE8
:1038000098A4FF1F08A4FF1F5AA4FF1F95A1FF1F24
:1038100098A2FF1F5DA4FF1F00A4FF1FADA4FF1F00
:1038200048A4FF1F04A4FF1F94390100494A4A4BD2
:103830001178DA6B039B01311B780A44551B2B442A
:1038400000220199087845499B1A0C2212FB00328C
:103850000A60FFF760BA424A1278002A3FF4F6ADD8
:10386000003518BF0125F2E5049F3F7802970F4607
:10387000B7E6DDF808E04FE7394B1B78002B95D011
:10388000003518BF012592E7042393E51B780793C1
:10389000049B01781B7802980293039B98F80070B0
:1038A00093F80080019B9EF8004093F80090079BDE
:1038B0000078DFF8ACE0A3EB4403DB1B029F9EF82B
:1038C00000E0264CA1EB8101002FC0EB80770B4478
:1038D000C0EB870014BF002104210344BEF1000F98
:1038E0000B4414BF002103210B4403EB480303EBFB
:1038F00082031E4406EB0C035D1BA5EB4A0A0C2257
:1039000012FB09A22260FFF706BA124A124B117885
:1039100053F82E20039B01311B780A44521B134499
:10392000BAF1000F8CD0B8F1000F89D1002D87D0EB
:10393000012286E70B4B069348E503233AE5022371
:1039400038E5094B1B68012B064B06937FF437AD16
:1039500034E600BF268EFF1FD48DFF1F00A4FF1F7B
:103960005DA4FF1F9CA4FF1F40A4FF1F2DE9F04F83
:103970003A4B1B788BB0002B6BD10E200AF052F81B
:103980000EF0EEF901463648364C374DFCF7D2FDC5
:103990003348FCF7A5FD0EF0FDFB80F30C00206022
:1039A000FFF71AF92E68012E7AD0022E00F0C88295
:1039B000032E00F074842D4C2D4E23682D4A2E4C7E
:1039C0000993099B216812883360591A013A914280
:1039D000274F00F2B082294C22689A1A092A00F275
:1039E0009982274C22689A1A0D2A00F28E82254C61
:1039F00022689A1A252A1AD9234B1B88002B40F0DB
:103A00009781224B1B78002B40F09281FEF728F91A
:103A10001F4B1B881B3B9BB2022B04D81D4B1B78F2
:103A2000002B40F0888102F0F1FB336823601A4CD0
:103A300022689B1A502B00F20682184B1B88012B20
:103A400000F0218205F02EFC05F0E8FA0BB0BDE88D
:103A5000F08F06F0B7FE0BB0BDE8F08FFAA1FF1FA4
:103A60002CA2FF1F14A4FF1F40A4FF1F8CA5FF1F43
:103A7000F4A3FF1FD28DFF1FD4A2FF1FB0A2FF1F10
:103A800080A2FF1F84A2FF1FD6A3FF1FF2A1FF1F6A
:103A900046A4FF1FBAA1FF1FD0A3FF1F18A4FF1F3A
:103AA000DFF83893A94AB9F800001378834204D0AC
:103AB000C3B21846137005F0E7FBDFF82483A44A6D
:103AC000B8F800301178994204D0A24F3978002913
:103AD00040F08E87A04A23681288A04C9A42C0F218
:103AE00089819F4A1278002A40F08481DFF8F4A28D
:103AF000BAF8003023B99B4B1B88002B00F0D0850F
:103B0000994A9A4B11881B88994A0B4412685B109A
:103B10009342984A126880F24A8500219342B4BFCA
:103B200001230B4604910293ACBF4FF0010B8B466F
:103B300005910E2009F076FF8F4B904A1B68039386
:103B40000133002B8446176840F39587802BA8BF6C
:103B500080238B4A8B4912780191002A00F054810E
:103B60000978914200F05081B8F80010DFF870E257
:103B7000994201F098817749AEF80030824B4FF0BE
:103B8000010E81F800E01978DFF85CE27F4B0198C4
:103B90001B7802708EF80010002B40F06383029BAC
:103BA000002B40F05A83A7F252339C4533DA6D4B19
:103BB0001B88002B2FD0BBF1000F40F05383744BB8
:103BC0001B881BB1059B002B40F04C83049B13B357
:103BD000704B1A78FAB9DFF8149299F80060012254
:103BE0001A70002E40F029856B4B1B78002B41F09A
:103BF000E7826A4B1B78002B01F0F882684B1B7838
:103C00004BB9684B1B7833B1B8F8003051490A33CF
:103C1000A8F800300A700E2009F004FF6FF4547306
:103C20001F44874202DC5B4B00221A705E4B1B88EC
:103C3000002B00F0E6845D4B5D4A1B7811789942B9
:103C400069D0002B67D057490878002800F0EF872B
:103C5000584991F800C0BCF1000F40F0E687564F7C
:103C6000DFF88CE1554EDFF864A13F788EF800C094
:103C70004FF0010E02968AF800C086F800C081F865
:103C800000E03FB100260E7002994FF0010E8AF855
:103C900000E00E7040490978002901F08780484E05
:103CA00096F800E0BEF1000F41F0A181DFF80C8131
:103CB0004FF0010C88F800E086F800C0374E3678E7
:103CC00096B1DFF82CE19EF800C0BCF1000F41F086
:103CD0008881DFF8E0904FF0010889F800C08EF885
:103CE0000080002901F067803649097899B133488E
:103CF0000178002941F07181DFF8B8E0324F334E8E
:103D00008EF800104FF0030E87F800E02C4F317052
:103D100001263970067013702D4B1B88A3F11B020E
:103D2000012A40F253861D2B00F09E86294E44E660
:103D3000FDF738FF6AE6284B1B78002B3FF473AE83
:103D40002B68012B7FF46FAE6FE600BFB5A3FF1F9A
:103D500088A2FF1FC1A1FF1FD8A2FF1F8CA5FF1FB4
:103D6000F2A1FF1FC0A2FF1F18A2FF1F10A4FF1F78
:103D700050A2FF1FECA1FF1F1CA2FF1FA8A1FF1F45
:103D80008CA4FF1F64A2FF1F8DA4FF1FBEA2FF1FF4
:103D9000ECA3FF1F14A2FF1FAEA4FF1FAFA4FF1FC1
:103DA000B0A4FF1FB1A4FF1FE2A3FF1F1AA2FF1FB1
:103DB00094A1FF1F08A4FF1FB2A4FF1FDAA2FF1FD8
:103DC00095A1FF1FBAA1FF1FC88DFF1F5AA4FF1F97
:103DD00046A4FF1FF4A3FF1F4CA4FF1FE0A3FF1F77
:103DE0008EA4FF1F6CA2FF1F65A2FF1FCCA3FF1FA5
:103DF000C0A1FF1F2168984A069106989749106054
:103E000002220B602A6071E69549DFF8CCE209785E
:103E100000293FF4BBAE9EF8000081423FF4B6AEED
:103E200003984B2840F3EF871833802BB8F8000035
:103E3000A8BF802398423FF4A9AE8A4803808A48ED
:103E400001230370A2E603F08FFF884B1B788BB928
:103E5000874B1B7873B9874B1B785BB9864B1B78F4
:103E600043B9864B1B782BB9854B1B7813B902F0ED
:103E7000A3F901E002F0ACF933682360814B1B88A1
:103E8000012B7FF4DFAD804A804B12681C688049AB
:103E9000804DA82303FB02F202F5FF521F3281FB83
:103EA0000231D0171144183C2A23C0EB613103FBC7
:103EB00004F0794B002A794A1B781478ACBF543946
:103EC000553901446FF0140202FB03122A60744852
:103ED000002C00F0608103689A4200F3278480F28E
:103EE0005A81704C2178002941F056806E4909684A
:103EF000D1F17F0148BF0331891001315B1A9A4229
:103F000000F3498103601A4646E1FEF703FA33687D
:103F100023606CE5FDF790FAFDF7CEFE634B1B883E
:103F2000032B00F0AB85624B1B88032B00F0AA85A6
:103F30003368236055E5FDF7CFF93B6823604AE518
:103F40005C4B26681A88B24204DB4D4B1B78002B71
:103F500000F02684584C404823680793574B079934
:103F600000681B88091A994200F2BC80002B00F0FF
:103F7000B980534B198800293FF4D8AE374B5148CC
:103F80001B680088B342B8BF33469A4201F387806A
:103F90004D4A8342A8BF03461360DFF8408188F88A
:103FA00000103A4FFDF798F938687F2840F32B86C8
:103FB000464AA0F17F0382FB0320DA17C2EB6000C0
:103FC00000EB4000A3EB80007330414B01931B8852
:103FD0003860002B40F06087DFF898A09AF8003036
:103FE000002B00F082843B4E3378002B00F07D8460
:103FF000DFF8EC904FF0000B0CE003F17300C0B25F
:1040000098F8001005F0D8F933780BF1010B5B45F7
:1040100040F36B843B6859F8040F18442B4BA0F114
:104020007F0283FB0231D317C3EB610303EB43032E
:104030007F28A2EB8303E0DC0028E0DA234A434236
:1040400082FB0320DA17C2EB600000EB4000A3EB19
:104050008000C0F10C00D2E778A2FF1FF0A3FF1F81
:104060008DA4FF1F8EA4FF1FC1A1FF1FDAA2FF1F97
:1040700008A4FF1F5AA4FF1F95A1FF1FC0A1FF1F87
:10408000F2A1FF1F18A4FF1FCC8DFF1F9CA4FF1FD0
:1040900009000280A8A2FF1F24A4FF1F74A2FF1F13
:1040A000C4A2FF1F64A4FF1F60A4FF1F1AA4FF1F68
:1040B000B6A1FF1FD8A2FF1F8CA5FF1FBCA2FF1F28
:1040C00012A2FF1FACA1FF1F98A1FF1FABAAAA2A33
:1040D0004CA2FF1F908DFF1F65A2FF1FA4A2FF1F10
:1040E000688DFF1FA04BA1491B680888A049B342F7
:1040F000B8BF33469A4200F332839E4E098883420A
:10410000A8BF0346336000297FF447AF9A42C8BF77
:10411000134640F32B83801A00F010879B1AC3EBE1
:10412000833300EBD07203EB620300FB03F2002A3F
:1041300093FBF0F0C1F23C80FDF7B4F8C0F3C61079
:104140000DF00EFE8C4B064618880DF009FE8B49CB
:10415000074630460DF058FE014638460DF054FE35
:1041600031460DF049FD4FF07E5106460DF0EAFF55
:10417000002840F08987824930460EF001F8002877
:1041800040F0288730460EF02BF8C0B2DFF83882B6
:1041900088F8000005E702607A4B1B88002B3BD0B3
:1041A000794951F82340002C00F0D7823368B3FBE3
:1041B000F4F104FB1133C3EBC30304EBD47103EB41
:1041C000031303EB610303FB04F1002993FBF4F3F6
:1041D000C0F2C9866D4951F82310A1F2FF716C4BF2
:1041E0006C4C1B6803FB01F303F57D3101F5607135
:1041F000162303FB01F303F57D3303F5607384FBA2
:104200000314D917C1EB6441002BACBFA1F10B0320
:10421000A1F10C031A4402605F4B60481B8860499F
:1042200003F27C735B0002FB03F303F5FC6380FB8A
:1042300003020988D018DA17C2EBE022002BA1F1A3
:104240006401B8BF02F1FF324900114481F30C014F
:10425000282009F0A3FEFFF7F5BBBAF80030002BC9
:104260003FF4A1AC4F4B1B685A1C002A40F3AD81B0
:10427000802A00F3A9814C4E4C494D483688098864
:1042800000683144B0EB610FC0F28F86A3F14802A1
:104290000F2A3FF6C0AC473BA9F80030BBE4454BC2
:1042A00020681988814240F39780434B1B78002B8C
:1042B00040F09280DFF8149199F800007F280CDD1F
:1042C0003E4AA0F17F0382FB0320DA17C2EB6000B5
:1042D00000EB4000A3EB80007330394B01931B8847
:1042E000C0B289F80000002B40F0B686DFF8E0A0ED
:1042F0009AF80030002B00F0AB84324E3378002B5C
:1043000000F0A684DFF8CCB02C4F4FF000080AE094
:1043100003F17300C0B205F073F8337808F10108B7
:10432000434540F395845BF8043F99F80000184436
:10433000A0F17F0287FB0231D317C3EB610303EBCC
:1043400043037F28A2EB8303E2DC0028E2DA434246
:1043500087FB0320DA17C2EB600000EB4000A3EB01
:104360008000C0F10C00D5E7F0A3FF1FACA1FF1F38
:1043700012A2FF1F98A1FF1FA0A1FF1FCDCCCC3D13
:104380000000FE42AEA1FF1F70390100FC320100A7
:1043900028A4FF1F491B8940A0A4FF1F8320088277
:1043A00070A4FF1F00A4FF1FDCA3FF1FD8A3FF1FE3
:1043B00024A2FF1FD8A2FF1FF2A1FF1FABAAAA2AA7
:1043C0004CA2FF1F908DFF1FA4A2FF1FFEA3FF1F83
:1043D0005AA4FF1F688DFF1FB34F3B687F2B00F36C
:1043E000C981002BC0F2E485DFF8349399F80060AE
:1043F0009E4200F00D82AD4B1B88002B46D1AC4B8A
:10440000AC4A1B681088994240F35E850B46401AFF
:1044100000F05685591AC1EB813100EBD07301EBE6
:10442000630303FB00F2002A93FBF0F0C0F2BD86A9
:10443000FCF738FFC0F3C6100DF092FC9E4B80468F
:1044400018880DF08DFC9D49824640460DF0DCFC3D
:10445000014650460DF0D8FC41460DF0CDFB4FF023
:104460007E5180460DF06EFE002840F0F2859449A2
:1044700040460DF085FE002840F0A98540460DF02D
:10448000AFFEC0B2DFF89C8288F800007F2E0DDD01
:104490008C4BA6F17F0083FB0036C317C3EB66038A
:1044A00003EB4303A0EB830303F17306DFF848A299
:1044B0009AF80030F0B289F80000002B40F0F78243
:1044C000814B03931B78002B40F003857F4B0293B5
:1044D0001B78002B40F0DB857D4B0193029B1B7802
:1044E000002B40F0B0849AF80030002B00F07D845F
:1044F000019B774E1A88002A00F0DB8438687F28F9
:1045000040F3C4826F49A0F17F0381FB0310D917E8
:10451000C1EB600000EB4000A3EB8000733038601B
:10452000002A40F096849AF80030002B00F07F813A
:10453000684E3378002B00F07A81674ACDF81090EE
:10454000DFF8E081B9464FF0000B17460CE003F1AD
:104550007300C0B298F8001004F02EFF33780BF10E
:10456000010B5B4540F36081D9F8003057F8040F28
:104570001844544BA0F17F0183FB013ECB17C3EBE2
:104580006E0303EB43037F28A1EB8303DFDC0028EA
:10459000DFDA4C4B414283FB0130CB17C3EB6003A6
:1045A00003EB4300A1EB8003C3F10C00D1E793427E
:1045B0004FF0000B80F2EC800123CDF808B0CDF86D
:1045C00014B00493FFF7B5BA80264449444B454ADA
:1045D00009881B8812680B44B2EB630FBFF61BAB54
:1045E000414B1B78002B40F0A383B8F800303F4AC2
:1045F000B3423FF410AB3E4B168001221A70FFF716
:104600000ABB324F3B4E3C482F493C4A3B7033700B
:1046100003700B70FFF77FBB394B1B78002B7FF4C7
:10462000FAAA039B374A243B83F34703D9B25B20A2
:10463000136004F091FE99F80060032E30D1DFF88A
:10464000E88098F80030002B40F02A862E4F3B7807
:10465000002B40F018862A4E3378002B40F0068657
:104660002A4B1B78002B40F0F485294A1380294BF4
:104670001B78002B40F0E0850C4B7F221A8098F8C5
:1046800000306BB93B785BB933784BB9224A7F2154
:104690000720138004F060FE7F210B2004F05CFEF5
:1046A0001E4B1F68FFF7B7BA9CA4FF1F12A2FF1F83
:1046B00098A1FF1FACA1FF1FA0A1FF1FCDCCCC3D37
:1046C0000000FE42ABAAAA2A95A1FF1FDAA2FF1F93
:1046D0004CA2FF1F908DFF1F688DFF1FDCA3FF1FE3
:1046E000D8A3FF1F24A2FF1FBAA1FF1F8EA4FF1F84
:1046F000C1A1FF1F08A4FF1F5AA4FF1FC0A1FF1FD5
:10470000B1A4FF1F74A4FF1FB0A4FF1FAFA4FF1F1D
:10471000CAA2FF1FB2A4FF1FFCA3FF1FA8A1FF1F77
:10472000FEA3FF1FA4A2FF1FAEA4FF1FB84C217859
:10473000002940F00C83B7490968D1F17F0148BFD7
:10474000033103EBA1030133B34903609A42B8BFBD
:104750000A60FFF621AD1A461EE56B213FE5AF4B1F
:1047600009881A6000297FF418AC13468342A8BF59
:104770000346D0E4AA4EA3F17F0286FB0236D3178C
:10478000C3EB660303EB4303A2EB830373332BE614
:104790000123CDF810B0CDF808B00593FFF7C9B9E3
:1047A00001232B609F4CA04EFFF707B94F46DDF861
:1047B0001090029B1B78002B40F03C83019B1B88D0
:1047C000002B00F031839AF800303BB9039B1B7833
:1047D00023B9029B1B78002B00F0DD84934B1B78E0
:1047E000002B00F0038192490B78082B00F2FE8029
:1047F00090483A680068904E0133DBB25F1E101A91
:1048000046F827000B708D4B2068198889F8002026
:104810008842844C7FF78AAA2268894B0892089ABA
:10482000814E1A60FFF7C9B84F46DDF81090039B20
:104830001B78002BBDD03B68A3F10C007F2840F310
:104840005B83774A8B3B82FB0321DA17C2EB610261
:1048500002EB4202A3EB820303F17300DFF8048250
:10486000C0B298F8001004F0A7FD9AF80030002BB1
:104870009FD06F4E3378002B9BD0724ACDF81090AA
:104880004FF0000BB94617460BE002F17300C0B2BF
:1048900098F8001004F090FD32780BF1010B5A45A6
:1048A00084DDD9F8002057F8040F5D4B1044A0F1C7
:1048B0008B0183FB013ECA17C2EB6E020C3802EB80
:1048C00042027F28A1EB8202DFDC0028DFDA544BB2
:1048D000424283FB0230D117C1EB600000EB400085
:1048E000A2EB8000C0F10C00D1E7504B1B78002BED
:1048F00040F0B882544B1B78002B51D03B68A3F199
:104900000C007F2840F31E83454A8B3B82FB03212A
:10491000DA17C2EB610202EB4202A3EB820303F15E
:104920007300C0B298F8001004F046FD9AF8003009
:10493000B3B33F4E33789BB3DFF808B1DFF8E090B4
:104940004FF0000A0BE003F17300C0B298F80010BA
:1049500004F032FD33780AF1010A534520DD3B684B
:104960005BF8040F1844A0F18B0189FB0123CA17DF
:10497000C2EB63030C3803EB43037F28A1EB8303F3
:10498000E1DC0028E1DA434289FB0320DA17C2EBBD
:10499000600000EB4000A3EB8000C0F10C00D4E706
:1049A0002A4B1B78002B40F07382019B1B88002B45
:1049B00000F06882264B1B78002B40F05E82254B6E
:1049C0003A681A7003232B60FFF7B0B9DFF89080C4
:1049D00098F80030002B40F00C811F4F3B78002BE3
:1049E00040F06183104E3B70FEF7E7BF3A680AE77C
:1049F000DBB21846137004F06DFD0C491748124ADB
:104A000000230B703B7003701370FFF763B800BF97
:104A100064A4FF1F60A4FF1FC4A2FF1F98A1FF1F73
:104A2000ABAAAA2A8CA5FF1FF4A3FF1F08A4FF1F8F
:104A3000908DFF1FE8A1FF1F6C8DFF1FD8A2FF1FE5
:104A400048A5FF1F688DFF1F95A1FF1FDAA2FF1F5A
:104A5000C0A1FF1FFEA3FF1FB8A1FF1F5AA4FF1F85
:104A6000BAA1FF1FA4A2FF1FBF4AC04B12781A7041
:104A7000BF4EFEF7A2BF0123FFF76BB8FCF7E8FAC1
:104A8000FFF751BAFCF742FBFFF752BA0028BFF616
:104A900046ADB849434281FB0310D917C1EB600012
:104AA00000EB4000A3EB8000C0F10C0037E5B24BF7
:104AB00001931B88002B40F0FF83B04B0393B04B56
:104AC0000293B04E3378002B39D0DFF8D8824FF004
:104AD000000B09E003F17300C0B204F091FC3378DD
:104AE0000BF1010B5B452ADD58F8043F99F80000F3
:104AF0001844A04BA0F17F0283FB0231D317C3EB14
:104B0000610303EB43037F28A2EB8303E2DC00286D
:104B1000E2DA984A434282FB0320DA17C2EB6000D4
:104B200000EB4000A3EB8000C0F10C00D4E7944BF5
:104B3000029304F065FC9AF80030002BC1D1039B6E
:104B40001B78002B3FF4CAAC99F80030A3F10C009D
:104B50007F2840F3E281874A8B3B82FB0321DA17EF
:104B6000C2EB610202EB4202A3EB820303F173008A
:104B7000C0B204F045FC9AF80030002B00F0B2817E
:104B8000804E3378002B00F05981DFF818824FF007
:104B9000000B0AE003F17300C0B204F031FC33787B
:104BA0000BF1010B5B457FF799AC58F8043F99F87E
:104BB000000018446F4BA0F18B0183FB0123CA173F
:104BC000C2EB63030C3803EB43037F28A1EB8303A1
:104BD000E0DC0028E0DA674A434282FB0320DA1770
:104BE000C2EB600000EB4000A3EB8000C0F10C00C2
:104BF000D2E7654A1278002A40F0FF815B4F5C4E95
:104C00003B70FEF7DABE0028BFF6DFA9594A4342DF
:104C100082FB0320DA17C2EB600000EB4000A3EB3D
:104C20008000C0F10C00FFF7D0B900260E70574984
:104C30000F78002F3FF42EA8DFF86CA19AF800102F
:104C4000002900F0A38200218AF80010FFF722B8A3
:104C50004A4B1B78002B4ED099F80030A3F10C0082
:104C60007F2840F35982434A8B3B82FB0321DA17AA
:104C7000C2EB610202EB4202A3EB820303F1730079
:104C8000C0B204F0BDFB9AF80030A3B33D4E3378B8
:104C90008BB3DFF810A1374F4FF0000809E003F1A4
:104CA0007300C0B204F0ACFB337808F1010843454F
:104CB00021DD5AF8043F99F800001844A0F18B0157
:104CC00087FB0123CA17C2EB63030C3803EB4303D2
:104CD0007F28A1EB8303E2DC0028E2DA434287FB72
:104CE0000320DA17C2EB600000EB4000A3EB80006A
:104CF000C0F10C00D5E7224B1B78002B40F0BF81A0
:104D0000019B1B88002B00F0B581214B1B78002BE9
:104D100040F0AB811F4B1B78002B40F0A1811E4B54
:104D20001E4A198820680123002414602B606FE557
:104D30004B2E40F320811836802EB8F80030184AE8
:104D4000A8BF8026B3427FF456ACFEF764BF0131A2
:104D5000C9B2022903D821701A46FFF71DBA0022F2
:104D600022701A46FFF718BABAA1FF1FB8A1FF1F99
:104D7000F4A3FF1FABAAAA2A4CA2FF1F95A1FF1FF5
:104D8000DAA2FF1F908DFF1F4CA4FF1FB2A4FF1FCC
:104D900008A4FF1FC0A1FF1FD8A2FF1F98A1FF1FDB
:104DA0008EA4FF1F688DFF1F5AA4FF1FC34E3678C5
:104DB000002E7EF486AF00287EF496AF002F7EF49E
:104DC00093AF002E7EF490AFBD49097800297EF4A0
:104DD0008EAFBC48BC4906700E70BC4FBC48BD4984
:104DE0003E7006700E70FEF796BF039B1B78002B7B
:104DF0007FF47EAB029B1B78002B7FF479AB019B89
:104E00001A88FFF77BBB243B002BB8F8000040F367
:104E1000B88198423EF4BAAE9BB2AF48A8F80030D1
:104E200001230370FEF7B2BEAC4B3878197804F05A
:104E3000C3FAC8E43878FBF79FFDBFE4029B1B78F8
:104E4000002B3FF455AB99F80000FBF763FFFFF729
:104E50004ABBDFF88882C0B298F8001004F0ACFAC0
:104E6000FFF761BB7F21402004F076FA9C4A9D4BFE
:104E70003968116000221A703CE57F21422004F05D
:104E80006BFA9CE598F80010387804F095FA91E5F3
:104E90003878FBF771FD88E5C0B298F8001004F08F
:104EA0008BFAFFF799B8904BDFF864E21978FEF7B8
:104EB0006DBE99F8000004F0A3FA3288FFF71EBB1C
:104EC00041F6FF70FFF7B4BA8342A8BF0346FFF76D
:104ED0009EBA864B01931B88002B7FF428AE7C4B37
:104EE000029331E6029B1B78002BACD1039B1B780D
:104EF000002B7FF4FDAA82E70028BFF6AFAC7C4B05
:104F0000424283FB0230D317C3EB600303EB43033E
:104F1000A2EB8303C3F10C00A0E40028BFF628AE87
:104F2000734B424283FB0230D317C3EB600303EBA6
:104F30004303A2EB8303C3F10C0019E641F6FF70B3
:104F4000FFF7FAB80028BFF6ECAC694B424283FB8E
:104F50000230D317C3EB600303EB4303A2EB8303DD
:104F6000C3F10C00DDE46349013B51F82330A3F2A7
:104F7000FF71FFF734B9243E002EB8F8003040F33B
:104F80001A81B3423EF447AEB6B2534BA8F8006064
:104F900001221A70FEF73FBE4A1CD2B2022A3FF627
:104FA000DEAE22701A46FFF7F7B81646FFF718BBB9
:104FB0004F4E5A4286FB0236D317C3EB660303EB10
:104FC0004303A2EB8303C3F10C03FFF70DBA7F2069
:104FD000FFF758BA7F20FFF7D9B800210170FEF71C
:104FE0009ABE4FF0000C8EF800C0FEF77ABE4FF06C
:104FF000000E86F800E0FEF761BE3F4F387801F002
:1050000073F93E4B1B78002B00F09E803B887E2B73
:1050100000F29A803A4EDFF8FC903268D9F800101E
:10502000521A0F2A40F28A80364A0133108899B208
:105030003980002800F0A180C9B2C0B204F08CF918
:10504000314F326898F80030C9F800203B70FEF705
:10505000B4BC0120FFF716BA04F0D2F9FFF746B945
:105060000021422004F078F959E60021402004F0A4
:1050700073F94FE699F8000004F0C2F945E699F893
:105080000000FBF747FE3BE60120FFF77FB8174B18
:1050900001931B88002B7FF44CADFFF71FBA1B4B0D
:1050A0001A60FEF77ABF144B154E19886A2004F077
:1050B000CFFA98F800303B70FEF77FBCAFA4FF1F1B
:1050C000BAA1FF1F08A4FF1F5AA4FF1F95A1FF1F2D
:1050D000DAA2FF1FC0A1FF1FC1A1FF1FA4A2FF1FD3
:1050E000E8A1FF1F908DFF1F8DA4FF1F4CA2FF1F83
:1050F000ABAAAA2AFC32010022A2FF1FB3A4FF1F01
:10510000F4A3FF1F90A2FF1FB8A1FF1F98A1FF1FCC
:1051100065A2FF1F94A4FF1F0028BFF6B1AD694B25
:10512000424283FB0230D317C3EB600303EB43031C
:10513000A2EB8303C3F10C00A2E5634E634F98F822
:1051400000303B70FEF739BC614B1B78002BF4D06C
:105150003B88604F002BF0D05B4EDFF8A89132689F
:10516000D9F80010521A0F2AE8D95B4A013B10887F
:1051700099B2398000287FF45FAFC8B204F08CF98F
:105180005EE701283EF402AD012346E6534E544942
:105190000296FEF777BD4FF47A43013BFDD199F8B3
:1051A000000004F02DF9FFF719BB0138FFF740B9F3
:1051B0000138FEF7C1BF012B3EF42DAD0126E4E618
:1051C000484B1B782BB3484B1B78002B7EF423AD48
:1051D000464B1B78002B3EF41EADB8F80030444916
:1051E0000A3BA8F800300A70FEF715BD3E4B1B784D
:1051F000002B7FF411AA3D4B1B78002B3EF40BAD26
:10520000B8F800303A490133A8F800300A70FEF7C8
:1052100002BD354B1B78002B7EF4FDAC334B1B7865
:10522000002B3EF4F8ACB8F800303149013BA8F847
:1052300000300A70FEF7EFBC2E4B00227F210720C2
:105240001A8004F089F87F210B2004F085F8FFF71D
:1052500016BA294B01227F2107201A8004F07CF81E
:105260007F210B2004F078F8FFF701BA234B0422CA
:105270007F2107201A8004F06FF800210B2004F032
:105280006BF8FFF7EDB91D4B02227F2107201A8032
:1052900004F062F87F210B2004F05EF8FFF7DBB921
:1052A000164B002107201E8004F056F87F210B20AA
:1052B00004F052F8FFF7CAB9114B0393074B02935E
:1052C00037E400BFABAAAA2AF4A3FF1FB8A1FF1FAF
:1052D000B2A4FF1F22A2FF1F90A2FF1FDAA2FF1F8E
:1052E00008A4FF1FAFA4FF1FB0A4FF1FB1A4FF1F9E
:1052F000C1A1FF1F12A2FF1FCAA2FF1FFCA3FF1F15
:1053000095A1FF1F94A4FF1F38B508F027FC0E4895
:1053100005F0C2FF0D4805F0BFFF0D4805F0BCFFCA
:1053200000234FF07E5201210A48FBF79FF80A4BF9
:105330000A4A0B49802400251C7118461D60BDE8EF
:1053400038400BF083BF00BFB8A3FF1F54A2FF1F5C
:10535000D0A2FF1F2CA2FF1F68A4FF1F0C8DFF1FF0
:10536000F50F000010B50446A4206368198804F006
:105370006FF9E368A6201988BDE8104004F068B909
:1053800043682A20198804F063B900BF10B50446A9
:1053900022206368198804F05BF9E36824201988E7
:1053A000BDE8104004F054B910B504460A20636803
:1053B000198804F04DF9E3680C201988BDE8104005
:1053C00004F046B910B5044606206368198804F055
:1053D0003FF9E36808201988BDE8104004F038B9A7
:1053E00010B5044602206368198804F031F9E368B7
:1053F00004201988BDE8104004F02AB970B50E4C9D
:1054000084B012250422012306460390029320460D
:105410008DE824001423102107F012FE0622092330
:10542000029303960195204600921423102107F061
:1054300007FE04B070BD00BFE0A4FF1FF8B5B04C7C
:10544000B4F90030032B00F01381002B6AD0022B3B
:1054500000F08A80052B00F0B580012B00F0DD8084
:10546000042B00D0F8BDA74FA74E00254FF4AF7412
:10547000E9B2A64805F03AFF57F8043BC3F5967326
:1054800000FB03F086FB0023C017C0EB63108442CF
:1054900005F10105A8BF0446062DE9D19C4F9A4E9F
:1054A0000025E9B29B4805F021FF57F8043BC3F5FE
:1054B000967300FB03F086FB0023C017C0EB63105C
:1054C000844205F10105A8BF04460C2DE9D1924F95
:1054D0008D4E0025E9B2914805F008FF57F8043BCE
:1054E000894AC3F5967300FB03F086FB0013C017CF
:1054F000C0EB6310844205F10105A8BF04460C2DE2
:10550000E8D1A4F11401312900F3A38040F26C72B8
:1055100032218348834B01801A602A20BDE8F8407D
:1055200004F096B80E2008F07DFA40F6FF71C830FE
:105530008842A8BF084620EAE07000F2DC5283B23D
:105540008A42794D794EA8BF0A4602201946338017
:105550002A8004F07DF82988042004F079F8B4F951
:105560000030022B7FF476AF012009F0A1FF054641
:10557000002009F09DFFA842B8BF284600F1C801ED
:10558000B1F5FA7FC0F2B580B1F57A6FA8BF4FF4DC
:105590007A6101F54873B3F57A6FA8BF4FF47A6367
:1055A0009BB289B2624A634D11800A202B8004F0BD
:1055B0004FF829880C2004F04BF8B4F90030052B83
:1055C0007FF44BAF0F2009F073FFC0F53F63043346
:1055D000B3F5AF6FC0F28A80B3F5FA6FA8BF4FF48E
:1055E000FA6399B2544BC0F54360B0F5AF6F1980C0
:1055F00062DBB0F5FA6FA8BF4FF4FA6083B24F4D8B
:10560000A4202B8004F024F82988A62004F020F898
:10561000B4F90030012B7FF423AF152008F002FA13
:1056200000F59671B1F52F7F4EDB41F25C23994274
:1056300064DC434A00F5617089B2B0F52F7F1180B8
:10564000B8BF4FF42F7345DB8342A8BF03469BB21C
:1056500040E040F23A73A4F5B97403FB04F4963CBD
:1056600082FB0432E417A4EB621289B2323250E7B3
:10567000102009F01DFFC830B0F5FA7F1FDBB0F530
:105680007A6F0146A8BF4FF47A6101F51673B3F53E
:105690007A6FA8BF4FF47A639BB289B2294A2A4D28
:1056A000118022202B8003F0D3FF2988242003F0CF
:1056B000CFFFB4F90030C8E64FF4AF639FE740F284
:1056C0004C434FF4FA71E9E740F214534FF42F7151
:1056D0001B4A11801D4D06202B8003F0B9FF29883D
:1056E000082003F0B5FFB4F90030B9E64FF4AF611C
:1056F00078E740F214534FF4FA7153E71946E7E79D
:10570000BEA4FF1F588EFF1FB5814E1BB8A3FF1FFD
:10571000288EFF1F54A2FF1F308DFF1FD0A2FF1F36
:1057200078A4FF1F148EFF1FACA1FF1FD8A2FF1F7C
:1057300010A4FF1F18A2FF1FDCA2FF1F2CA4FF1F35
:1057400070A2FF1FDCA3FF1FD8A3FF1F44A4FF1FED
:105750002DE9F041224D82B0012602B284B20092BE
:10576000284601967823192107F0B0FB04F10C02BA
:1057700012B28DE844002846A7197823192104F1B4
:10578000020807F0A3FB3FB20FFA88F819233A4644
:10579000284619460196CDF8008007F097FB78233C
:1057A0003A4628461946CDF80080019604F10A07CA
:1057B0000B3407F08BFB3FB224B278233A462846DD
:1057C00019468DE8500007F081FB192300943A46F2
:1057D00001962846194607F079FB02B0BDE8F08132
:1057E000E0A4FF1F30B583B000230C4605B2009340
:1057F00026225B231C210C4807F0B8F82946012318
:105800002622094806F0CEFB002C24B205DB2146F7
:1058100001232622044806F0C5FB044A044B1580E8
:105820001C8003B030BD00BFE0A4FF1F728EFF1FBD
:10583000748EFF1FF0B5C64C237883B01BB1C54BE7
:105840004FF6FF721A80C44BB3F9003003BBC34B51
:10585000C3481B68BF495A2283F30C0302FB03F3BE
:1058600003F2FF7380FB03201844DB17C3EBE02037
:10587000B1F900301C30834256D04FF0FF31FFF7B2
:10588000B1FFB84807F0D6F80023237003B0F0BD8D
:10589000012B25D0022B68D0032B4BD0042B00F01A
:1058A000AB80052BF0D10F2009F002FEC0F53B6064
:1058B0000830B0F5AF6F56DBB0F5FA6FA8BF4FF404
:1058C000FA60A0F5AF625A2303FB02F3A64803F582
:1058D000967380FB0320DB17C3EBA0101C301EE087
:1058E000A24B1B78002B7DD0152008F09BF8A04B15
:1058F0001860B0F52F7F36DB41F25C239842A8BFD9
:105900001846A0F52F705A2303FB00F3994803F5BE
:10591000FA6380FB0320DB17C3EB20201C308D4B88
:10592000B3F900308342A8D1934BB3F9003001336F
:10593000A3D1A9E7914B1B68B3F5FA7F13DBB3F54D
:105940007A6FA8BF4FF47A63A3F5FA725A2303FB68
:1059500002F38B4803F2D66380FB0320DB17C3EB13
:1059600060201C30DBE71C20D9E7864B1B68B3F5B1
:10597000FA7F3FDBB3F57A6FA8BF4FF47A63A3F5E4
:10598000FA725A2303FB02F37D4803F2D66380FBCD
:105990000320DB17C3EB60201C307B4B1B68B3F587
:1059A000FA7F25DBB3F57A6FA8BF4FF47A63A3F5CE
:1059B000FA725A2303FB02F3714903F2D66381FBA7
:1059C0000321DB17C3EB61211C31624BB3F90030BB
:1059D00083427FF454AF684BB3F900308B427FF4BD
:1059E0004EAF51E7112009F063FD614B186080E76D
:1059F0001C21EAE71C20D0E7252200258DE82400A1
:105A000076231C215748614E574F07F05FFA17E085
:105A1000B0F5AF7FA8BF4FF4AF70323802FB00F093
:105A2000963087FB0031C017C0EB61111C3109B201
:105A300001231D4425224B4806F0B4FA0C2D14D046
:105A4000E9B2534805F052FC56F8043BC3F596738F
:105A500000FB03F087FB0013C017C0EB6310312875
:105A60004FF05A02D4DC1C21E2E7262200258DE803
:105A7000240076231C213B48464E3B4F07F026FA74
:105A800017E0B0F5AF7FA8BF4FF4AF70323802FB1C
:105A900000F0963087FB0031C017C0EB61111C315C
:105AA00009B201231D4426222E4806F07BFA0C2D54
:105AB00014D0E9B2384805F019FC56F8043BC3F598
:105AC000967300FB03F087FB0013C017C0EB631055
:105AD00031284FF05A02D4DC1C21E2E727220025AE
