:1000000000800020BD01000019EA0000D5E90000D1
:10001000D5E90000D5E90000D5E90000D5E90000E8
:10002000D5E90000D5E90000D5E9000019EA000093
:1000300019EA0000D5E9000005DE000009DE000035
:1000400019EA000019EA000019EA000019EA0000A4
:1000500019EA000019EA000019EA000019EA000094
:1000600019EA000019EA000019EA000019EA000084
:1000700019EA000019EA000019EA000019EA000074
:1000800019EA000019EA000019EA000019EA000064
:1000900019EA000019EA000019EA000019EA000054
:1000A000DDB80000E9B8000019EA000019EA000014
:1000B00019EA000019EA000019EA000019EA000034
:1000C00019EA000019EA000019EA000019EA000024
:1000D00019EA000019EA000019EA000019EA000014
:1000E00019EA000019EA000019EA000019EA000004
:1000F00019EA000019EA000019EA0000DDF9000021
:1001000019EA00002501010019EA000019EA0000BF
:1001100019EA000019EA000019EA000019EA0000D3
:1001200019EA000019EA000019EA000019EA0000C3
:1001300019EA000019EA000019EA000019EA0000B3
:1001400019EA000019EA000019EA000019EA0000A3
:10015000A1E20000BDE20000D9E20000F5E20000EB
:1001600019EA0000A104010019EA000019EA0000E0
:1001700019EA000019EA000019EA000019EA000073
:1001800019EA000019EA000019EA000019EA000063
:1001900019EA000019EA000019EA000019EA000053
:1001A00019EA000019EA000019EA000019EA000043
:1001B00019EA000019EA000019EA0000574B4CF256
:1001C000205210B5DA814DF62812DA8100BF00BF47
:1001D0000EF026FC524B4FF010621A63514A9A639C
:1001E000514ADA63514A136913F4807303D153619E
:1001F0004FF4A85313614E4B9A78110703D59A78A0
:1002000042F008029A704B4B4B482A221A704B4B13
:10021000DA1C121AC11E22F00302994288BF002282
:1002200047490EF003FB474B4748DA1C121AC11E20
:1002300022F00302994288BF0022002112F072FBD3
:10024000424943484FF4DE720EF0F0FA414B424A05
:10025000802103F8011B9342FBD14FF0E0233C4A7D
:10026000C3F8082D3D4B8A221A70A3F5805324222F
:100270005A70A0221A709A799207FCD59A79D406FE
:10028000FCD4374B9A7902F00C02082AFAD10322E7
:100290001A7140225A719A799006FCD5304A9379A6
:1002A0005906FCD51E4B2F4959640221996420211F
:1002B0001170917901F00C010C29FAD12A4A5A6087
:1002C0004FF0E023294A5A6100229A6107221A61FD
:1002D000274AC3F8202D62B60EF0FEFC134B5B6973
:1002E000DA0705D523480EF0EBFC234B234ADA61ED
:1002F000234B1B785B0609D51F4C204BE2699A42C1
:1003000004D11C480EF0DCFC0023E3610EF08EFBF0
:1003100012F0EAFB0EF082FAFEE700BF0020054073
:1003200000800440823F04000100002B00D0034005
:1003300000D0074000E00740308CFF1FF898FF1FF7
:10034000BC6401006CA4FF1FF898FF1F00000000B0
:100350000082FF1F00E400E05FE400E00050064080
:100360000040064000000301C0100500FF760100B8
:10037000000020206114CE6700E00340A5C3945A1A
:1003800000F00740FFFFFFFFFFFFFFFFFFFFFFFF42
:10039000FFFFFFFFFFFFFFFFFFFFFFFFFFFFFFFF6D
:1003A000FFFFFFFFFFFFFFFFFFFFFFFFFFFFFFFF5D
:1003B000FFFFFFFFFFFFFFFFFFFFFFFFFFFFFFFF4D
:1003C000FFFFFFFFFFFFFFFFFFFFFFFFFFFFFFFF3D
:1003D000FFFFFFFFFFFFFFFFFFFFFFFFFFFFFFFF2D
:1003E000FFFFFFFFFFFFFFFFFFFFFFFFFFFFFFFF1D
:1003F000FFFFFFFFFFFFFFFFFFFFFFFFFFFFFFFF0D
:10040000FFFFFFFFFFFFFFFFFFFFFFFFDEF9FFFF23
:100410000548064B1B1AD90F01EBA301491002D066
:10042000034B03B118477047F898FF1FF898FF1F58
:100430000000000008B5054B1BB105490548AFF3A6
:100440000080BDE80840FFF7E3BF00BF00000000E8
:10045000F898FF1FB464010038B5044608462070C0
:100460000A4910461D4611F00BFB01464FF07E5025
:1004700011F0BAFB064911F003FBE56060602561ED
:1004800065610EF075FEE061204638BDDB0FC940A6
:100490000024744938B50446084620700A491046BD
:1004A0001D4611F0EDFA01464FF07E5011F09CFB15
:1004B000064911F0E5FAE5606060256165610EF0BE
:1004C00057FEE06138BD00BFDB0FC940002474490E
:1004D000037810B50446032B21D8DFE803F0191E7A
:1004E0001102C168406911F0C1F90E490346606804
:1004F0001C4611F079FB0146204611F075FB10BD3A
:100500000849406811F070FBE16811F0B9FA10BDBC
:10051000C168406911F0AAF910BDC06810BD002083
:1005200010BD00BF00247449F8B504460E460EF015
:100530001FFEE3690546C01A11F04EFAE768A06194
:100540000146E56160686661276111F04DFB014677
:10055000A0600E4811F048FB11F006F80546014670
:100560004FF07E5011F082F9314611F089FA294698
:100570000646384611F084FA0146304611F078F903
:10058000E0602046BDE8F840FFF7A2BF000080BF52
:10059000036818470B680360704700BF0B6803606F
:1005A000704700BF704700BF10B504460DF02CFE29
:1005B000204610BDF8B5044606981D460F46561A4B
:1005C00011F024FC401BF6B1A4EB070C002800FB43
:1005D0000CFC06EBD6730ADB0CEB630C0CFB06F38E
:1005E000002B9CFBF6FC0CEB050011DBF8BDACEB23
:1005F000630C0CFB06F3002B9CFBF6FC0CEB0500DC
:10060000F4DB0130F8BD00EBD07005EB6000F8BD05
:100610000138F8BDBDF800C0521AACEB030C1CD079
:10062000401ABCF1000F0CFB00F002EBD27109DBA9
:1006300000EB610000FB02F1002990FBF2F018448E
:1006400010DB7047A0EB610000FB02F1002990FB7A
:10065000F2F01844F5DB013070470CEBDC7C03EB67
:100660006C00704701387047DDF800C0521AACEBDF
:10067000030C1CD0401ABCF1000F0CFB00F002EB85
:10068000D27109DB00EB610000FB02F1002990FB55
:10069000F2F0184410DB7047A0EB610000FB02F1A0
:1006A000002990FBF2F01844F5DB013070470CEBA9
:1006B000DC7C03EB6C0070470138704738B50B8861
:1006C000182B0D46044607D1294B1B7805EB430533
:1006D0006B88182B14D138BD0344A3F118007F2870
:1006E00023DD244A973BA2FB0312D20802EB42020D
:1006F000A3EB820303F17300C0B208F0A7FDE3E7A8
:100700001C44A4F118007F281EDD1A4B973CA3FB64
:100710000423DB0803EB4303A4EB830404F173001D
:10072000BDE83840C0B208F091BD0028E4DA114AB3
:10073000C3F11803A2FB0312D20802EB4202A3EB9F
:100740008203C3F10C00D7E70028E9DA094BC4F1B2
:100750001804A3FB0423DB0803EB4303A4EB83048B
:10076000C4F10C00C0B2BDE8384008F06FBD00BF56
:10077000BF8DFF1FABAAAAAA38B50C46054634F8B0
:10078000023B182B1DD134480378013303F00302D8
:100790000270134634F81220182A28D14FF0040CA6
:1007A000591C032BCAB215BF1346224604EB420262
:1007B000002303701288182A19D1BCF1010CEFD163
:1007C00038BD0344A3F118007F2827DD234A973B57
:1007D000A2FB0312D20802EB4202A3EB820303F155
:1007E00073001F4BC0B2197808F0F2FCCBE7154438
:1007F000A5F118007F2820DD184B973DA3FB0523AA
:10080000DB0803EB4303A5EB830505F17300144BF1
:10081000C0B21978BDE8384008F0DABC0028E0DA48
:100820000E4AC3F11803A2FB0312D20802EB4202E4
:10083000A3EB8203C3F10C00D3E70028E7DA074BF0
:10084000C5F11805A3FB0523DB0803EB4303A5EB68
:100850008305C5F10C00DAE7BF8DFF1FABAAAAAA7A
:100860001A9CFF1F38B50E202B4D0DF0D1FE2988A4
:100870002A4B81421B88044633DD5B1A0A4636D078
:10088000521AC2EB023203EBD37102EB610292FB0C
:10089000F3F102FB03F3002B3ADB14200EF06EFAA7
:1008A0001F4B1B889BBB2A88A24223DC40F6FF73A8
:1008B0009C42A8BF1C46C2F57F630F3303B3A11A45
:1008C000C1EB013103EBD37201EB620101FB03F2D7
:1008D000002A91FBF3F11DDBBDE8384028200EF023
:1008E0004DBA83421A46A8BF02465B1AC8D140F2ED
:1008F000FF71D2E7C2F57F630F331446002BDED1C0
:10090000BDE8384040F2FF7128200EF037BA38BDFC
:100910000139C2E70139DFE7569AFF1F549AFF1FDA
:10092000949AFF1FF8B5724B724C1B88C31A054688
:1009300084FB0304D817C0EB640000EB4000A3EB7A
:10094000800303EB4303980001EB83040858284419
:10095000AAB17F285CDD684B7F38A3FB0023DB084E
:1009600003EB4303A0EB83007330644F644E39788C
:10097000C0B208F02DFC3388022B57D8F8BD7F2871
:1009800038DD5D4B7F38A3FB0023DB0803EB43031B
:10099000A0EB830073305A4EC0B208F057FC338886
:1009A000022BEBD9606828447F2840F39280524B99
:1009B0007F38A3FB0023DB0803EB4303A0EB83009A
:1009C0007330C0B208F042FC3388032BD6D9A0683C
:1009D00028447F286FDD484B7F38A3FB0023DB08CA
:1009E00003EB4303A0EB83007330BDE8F840C0B2D3
:1009F00008F02CBC0028CEDA3F4B4042A3FB00237A
:100A0000DB0803EB4303A0EB8300C0F10C00C2E75B
:100A10000028AADA384B4042A3FB0023DB0803EB93
:100A20004303A0EB8300C0F10C009EE760682844FC
:100A30007F2832DD304B7F38A3FB0023DB0803EB3C
:100A40004303A0EB830073303978C0B208F0C0FBD9
:100A50003388032B92D9A06828447F280FDD264BCA
:100A60007F38A3FB0023DB0803EB4303A0EB8300E9
:100A700073303978C0B2BDE8F84008F0A9BB00284F
:100A8000F7DA1D4B4042A3FB0023DB0803EB4303D3
:100A9000A0EB8300C0F10C00EBE70028D4DA164B82
:100AA0004042A3FB0023DB0803EB4303A0EB8300DE
:100AB000C0F10C00C8E7002897DA0F4B4042A3FBB7
:100AC0000023DB0803EB4303A0EB8300C0F10C0021
:100AD0008BE70028BFF675AF074B4042A3FB00230E
:100AE000DB0803EB4303A0EB8300C0F10C0068E7D5
:100AF000049BFF1FABAAAA2AABAAAAAA1A9CFF1F93
:100B0000069BFF1F08B51A4B1B7833B315200DF059
:100B10007FFD184B184A1B781060DBB1174B1B8800
:100B200083421EDC164A1288D11A1ED08242D4BFDC
:100B3000C3EB0203C3EB0003A3EB830301EBD1720E
:100B4000A3EB620303FB01F2002A93FBF1F3B4BFB2
:100B5000043305330B4A136008BD11200FF0A6FBC8
:100B6000D7E7084A0023136008BD0323F2E700BF5C
:100B7000149AFF1FE49AFF1F189AFF1FAA9BFF1FDA
:100B8000A89BFF1FE89AFF1F2DE9F843974B1B888E
:100B9000013B0446092B3CD8DFE803F00A10161C81
:100BA00022282E3D4205BDE8F8439149FFF786BD56
:100BB000BDE8F8438F490022FFF7B4BEBDE8F84313
:100BC0008D490022FFF7AEBEBDE8F8438B490022F5
:100BD000FFF7A8BEBDE8F84389490022FFF7A2BE8F
:100BE000BDE8F84387490022FFF79CBEBDE8F84303
:100BF00085490022FFF796BE844D854E2B88A3B110
:100C000084493288098803318A420EDC1344022B5E
:100C100048DCBDE8F883BDE8F8437F49FFF74EBDE7
:100C2000BDE8F8437D49FFF749BD7D4A7D491288FB
:100C30007D4FA21A81FB021C7C49D0170988C0EBAA
:100C40006C0000EB4000A2EB800201EBC101090146
:100C500002EB420201EB8202A3EB8303B85820446B
:100C600000EB83007F2812DC00280ADA704B404238
:100C7000A3FB0023DB0803EB4303A0EB8300C0F1DD
:100C80000C00C0B208F0E2FA32882B88BEE7684B4D
:100C90007F38A3FB0023DB0803EB4303A0EB8300B7
:100CA0007330EEE7DFF878915E49B9F80030DFF88D
:100CB0007C815D4FE31A81FB0321DA17C2EB6102ED
:100CC00002EB4202A3EB820303EB4302B8F80030CD
:100CD00003EBC3031B0103EB82033B44586820442E
:100CE0007F2858DD524B7F38A3FB0023DB0803EB42
:100CF0004303A0EB83007330C0B208F0A7FA338837
:100D00002A881344032B84DDB9F800304548B8F82D
:100D10000020E31A80FB0310D917C1EB600101EB3F
:100D2000410102EBC202A3EB8103120103EB430377
:100D300002EB83031F44B86820447F2839DD3C4B15
:100D40007F38A3FB0023DB0803EB4303A0EB830006
:100D50007330C0B208F07AFA33882A881344042B1F
:100D60007FF757AF2B4B1B88012B7FF452AFA4F1B9
:100D70000C037F2B2BDD2E4AA4F18B03A2FB031265
:100D8000D20802EB4202A3EB82037333D8B2BDE870
:100D9000F84308F05BBA0028AEDA254B4042A3FBCB
:100DA0000023DB0803EB4303A0EB8300C0F10C003E
:100DB000A2E70028CDDA1E4B4042A3FB0023DB084C
:100DC00003EB4303A0EB8300C0F10C00C1E7002B51
:100DD000DCDA174AC4F10C03A2FB0312D20802EBBF
:100DE0004202A3EB8203C3F10C03CFE7A09BFF1FDA
:100DF000DC9BFF1FE030010050300100A82F0100F4
:100E0000303A0100A0390100C03A0100CE9AFF1F1C
:100E1000069BFF1FD09AFF1FC49BFF1FD09BFF1F85
:100E2000049BFF1FABAAAA2A38370100D29AFF1FE2
:100E3000ABAAAAAA2DE9F843964B1B88013B0446AE
:100E4000092B3CD8DFE803F00A10161C22282E3D9F
:100E50004205BDE8F8439049FFF78EBCBDE8F84372
:100E60008E490122FFF75EBDBDE8F8438C4901229F
:100E7000FFF758BDBDE8F8438A490122FFF752BD8C
:100E8000BDE8F84388490122FFF74CBDBDE8F843AF
:100E900086490122FFF746BDBDE8F8438449012297
:100EA000FFF740BD834A844B12881988551891B1C9
:100EB000824B1B8803339A420DDC022D48DCBDE8CF
:100EC000F883BDE8F8437E49FFF756BCBDE8F84318
:100ED0007C49FFF751BC7C4B7C4F1B887C4EE31A4E
:100EE00087FB03277B4AD8171288C0EB670000EB0B
:100EF0004000A3EB800302EBC202120103EB4303A9
:100F000002EB8303A1EB8101F058204400EB810048
:100F10007F2812DC00280ADA6F4B4042A3FB002333
:100F2000DB0803EB4303A0EB8300C0F10C006B4B29
:100F3000C0B2197808F04CF9BFE7674B7F38A3FBC4
:100F40000023DB0803EB4303A0EB83007330EEE7E1
:100F5000DFF874915D49B9F80030DFF878815C4EB4
:100F6000E31A81FB0321DA17C2EB610202EB4202B2
:100F7000A3EB820303EB4302B8F8003003EBC30397
:100F80001B0103EB82033344586820447F2856DD5D
:100F9000514B7F38A3FB0023DB0803EB4303A0EB9B
:100FA000830073304D4FC0B2397808F011F9032D2A
:100FB00085D0B9F800304548B8F80020E31A80FB26
:100FC0000310D917C1EB600101EB410102EBC20232
:100FD000A3EB8103120103EB430302EB83031E44E3
:100FE000B06820447F2838DD3B4B7F38A3FB0023CB
:100FF000DB0803EB4303A0EB830073303978C0B206
:1010000008F0E6F8042D3FF45AAF2C4B1B88012B57
:101010007FF455AFA4F10C037F2B2CDD2E4AA4F1F5
:101020008B03A2FB0312D20802EB4202A3EB820362
:1010300073333978D8B2BDE8F84308F0C9B800284E
:10104000B0DA254B4042A3FB0023DB0803EB43034C
:10105000A0EB8300C0F10C00A4E70028CEDA1E4B01
:101060004042A3FB0023DB0803EB4303A0EB830018
:10107000C0F10C00C2E7002BDBDA174AC4F10C0305
:10108000A2FB0312D20802EB4202A3EB8203C3F1DC
:101090000C03CEE7A09BFF1FDC9BFF1FE03001008D
:1010A00050300100A82F0100303A0100A0390100A2
:1010B000C03A0100069BFF1FCE9AFF1FD09AFF1F68
:1010C000C49BFF1FD09BFF1F049BFF1FABAAAA2A34
:1010D00038370100D29AFF1FABAAAAAA1A9CFF1F99
:1010E00010B50C8884422DD203F10043013B31F846
:1010F0001340844223D9B1F802C0844538BF01238C
:1011000024D20133DBB29E4631F813C060454FEA6A
:101110004304F6D8604517D00EF1004E0EF1FF3EA5
:10112000135B31F81E1032F81E20401A9B1A03FB85
:1011300000F0ACEB010C90FBFCF0104410BD32F859
:10114000130010BD108810BD105B10BD02244FF0BD
:10115000010EDFE7204B1B880C2B30D81F4982B2D1
:1011600030B551F8235042B343F6FE739A4227D864
:10117000B2F5806F29D31A4C01230133DBB2194633
:1011800034F813E072454FEA430CF6D8724519D093
:1011900001F100410139124B35F8114033F811309B
:1011A00035F80C2080B2C01A121B00FB02F2AEEB25
:1011B000030392FBF3F3181930BD288830BD704744
:1011C000288C30BD35F80C0030BD40F2FF3E4FF0AA
:1011D000020C0121DAE700BF749AFF1F743B010083
:1011E000503B01002DE9F0435C4B83B0186810F0D0
:1011F000F3FB5B4B0446188810F0EAFB01462046DF
:1012000010F03EFC574910F0EFFC10F0FFFD564B7C
:101210001A88002A73D04042544B55491B680C88E9
:10122000544A9C42168825465CDCB342A8BF33462C
:101230001844A0425ADA504B1C60B542A8BF35464C
:10124000331B6BD0281B03EBD372C0EB803000EB59
:10125000620000FB03F2002A90FBF3F07BDBFFF758
:1012600079FF464B1F88464BC0F3C61909FB07F7A9
:101270001B887F2F8046A8BF7F273BB10093324653
:10128000002321462846FFF7C5F903463D4A3E4C58
:10129000136023684B4509D03C4B1B88002B4DD174
:1012A0003B4B1B88002B45D1C4F80090394C236878
:1012B000434506D0354B1B885A1F032A31D9C4F841
:1012C0000080354C23689F4209D0344B188828B1E0
:1012D0002E4B334A1B88D35C834237D1276003B03F
:1012E000BDE8F08323461844A042A4DBB042A8BF67
:1012F0003046214BA0421860A2DB05469DE7294BF2
:101300001B68032B88D0194B19481B68048819499E
:10131000A3420E88254617DA2046E7E741F6FF701C
:101320009DE71F4AD05C203008F07F01C0B207F073
:1013300011FFC4E7484607F0C1FFB5E7184A494620
:10134000D05C07F007FFABE710466EE7F9B2C0B21A
:1013500007F000FFC2E7013881E700BF249CFF1FB0
:10136000748EFF1F000020421C9CFF1FB09BFF1FBC
:10137000569AFF1F549AFF1F509AFF1F2A9AFF1F69
:101380001E9AFF1F209AFF1F5C9BFF1F269AFF1FBC
:10139000249AFF1F649BFF1F609BFF1F289AFF1F5B
:1013A000B48DFF1F4C9BFF1F2DE9F04F01208DB026
:1013B0000EF07CFFAB4A0346002013600EF076FF70
:1013C000A94BAA4A1B8810600C2B00F08B80A84AFE
:1013D00000211F2B117040F08C80A64BA6491B7872
:1013E000A648A74A0891003B18BF012303700B8849
:1013F000069052F82380A34BA3491A88A34BA44814
:101400001B880988013A013B30F912200992A14A50
:10141000072932F9134000F243826FF0D2030B41E7
:10142000DB0700F13D829C4B1B78002B00F07182A2
:1014300015200DF0EDF80546984B04931E68AE425A
:1014400040F33B82964B974A1B88DFF85C920792E9
:10145000012B964B1F8813684046A3EB040400F051
:101460000C8310F0B9FA59F8271010F009FB014667
:10147000002010F0FBF9A5428D4F00904FF00003C3
:1014800028463146B8BF20462246FFF793F83B680E
:10149000184400EBD070874B059340103860864BA2
:1014A0001B88072B07D86FF0D20A4AFA03FA1AF002
:1014B000010A00F08F81DFF80492814BD7F800A079
:1014C000D9F80040DFF8FCB1039300267E4B1B885F
:1014D000013B032B00F22C83DFE813F058013401A9
:1014E00010011700634B1B78002B40F04B82604AC1
:1014F0001370624B604A06931946002308920B70E2
:1015000012885F4B53F8228075E7204610F064FA8A
:101510006E4910F0B5FA0446304610F05DFA6C4999
:1015200010F0AEFA0146204610F0A2F910F06EFC61
:10153000079EC9F800000446306810F04DFA634970
:1015400010F09EFA034628461D4610F045FA604901
:1015500010F096FA0146284610F08AF910F056FC71
:101560003060404B5B4D19685B4B2D881A885B4B94
:101570005B4E1B88DDF80CC03688A71A2244049CF9
:10158000CBF80020C21A2260059ACCF80070034400
:101590008D42136000F38F818E423046A8BF08460B
:1015A000324B1B689D4200F384819E423446A8BFA3
:1015B0001C468D42C0F257819D42C0F25481494D74
:1015C000286810F009FA414910F05AFA464910F01B
:1015D0004FF910F01BFCA0F5FF531C3B082B2860B3
:1015E00001D84FF4005043F6FF768244B24550468E
:1015F000A8BF304620EAE070286010F0EDF9069BA5
:101600000546187808FB00F010F0E6F94FF07A5123
:1016100010F036FA0146284610F028F910F0F6FBD3
:10162000324B334D1B78B042A8BF304620EAE07001
:101630002860002B00F00C81BAF5005F00F00881F3
:1016400004F0B8FD2B4B286801221A702A4C23683D
:10165000834204D080B207F063FE2B6823600DB094
:10166000BDE8F08F8C9BFF1F949BFF1F889BFF1F83
:10167000F89AFF1F929BFF1F2299FF1FB79BFF1F26
:10168000CC8DFF1F788EFF1F129AFF1F7A8EFF1FCF
:1016900038300100F0320100149AFF1F2C9CFF1F0C
:1016A000209CFF1F3C9CFF1F78390100409CFF1FBE
:1016B000249CFF1F309CFF1F309BFF1F389CFF1F87
:1016C000289CFF1F349CFF1F768EFF1F9A99193F9D
:1016D000CDCCCC3E989BFF1F7C8EFF1F7E8EFF1FC4
:1016E000969BFF1F048EFF1FCDCC4C45009DFF1F16
:1016F000008EFF1F229CFF1FC88DFF1F204610F089
:101700006BF9B64910F0BCF90446304610F064F9A4
:10171000B34910F0B5F90146204610F0A9F810F0D1
:1017200075FB079EC9F800000446306810F054F9B4
:10173000AA4910F0A5F9034628461D4610F04CF9B9
:10174000A74905E7204610F047F9A64910F098F997
:101750000446304610F040F9A34910F091F90146D3
:10176000204610F085F810F051FB079EC9F80000E4
:101770000446306810F030F99A4910F081F90346B8
:1017800028461D4610F028F99749E1E6204610F05A
:1017900023F9964910F074F90446304610F01CF90C
:1017A000934910F06DF90146204610F061F810F0F1
:1017B0002DFB079EC9F800000446306810F00CF9B4
:1017C0008A4910F05DF9034628461D4610F004F9D9
:1017D0008749BDE6874C03940F200EF067FD226811
:1017E0008242064640F39A80834B0B921B88012B62
:1017F00000F04A81814BDFF808921988D9F800403F
:10180000099B0A914046A4EB030B10F0E5F87D4BD1
:101810000A9953F8211010F033F90146002010F016
:1018200025F80B9A00905E455346114630465A46BD
:10183000B8BF5846FEF7BEFE3B68DFF8CCB100EB00
:10184000030A0AEBDA7A4FEA6A0AC7F800A03DE613
:101850006E4C2378002B3FF4F9AE04F0A7FC002374
:1018600028682370F2E6089B1B88002B3FF4A7AE84
:10187000002332462946CDF80080FEF7F5FECDF86C
:1018800000800746324629462046FEF7EDFE3B1A09
:10189000002BB8BF5B42092B00F3CC805C4DA0E667
:1018A0005C4B04935C4B07935C4B5D4F05930025A9
:1018B000F5E52C467DE6284672E6584B05931E68F2
:1018C000AE4276DA4C4B544A1B88DFF838910792C7
:1018D000012B4A4B1F88136840461C4400F0C2800D
:1018E00010F07AF859F8271010F0CAF8A5424C4FBA
:1018F00000904FF0000328463146A8BF20462246FC
:10190000FEF758FE3B68184400EBD070401038607A
:10191000C5E511200EF0CAFC05468DE5DFF8E8B0FC
:10192000DBF8002082424DDA334B0B921B88012BEF
:1019300000F0D380DFF8C890304BD9F80040099A06
:1019400019880A9122444046099210F045F82D4B1F
:101950000A9953F8211010F093F80B9A0090114651
:10196000099AB24253461046A8BF3046FEF722FEFF
:101970003B6800EB030A0AEBDA7A4FEA6A0AC7F817
:1019800000A0A3E5274B284A19880893274B52F853
:1019900021002749069101221A7000230B7010F0D4
:1019A0001BF84FF07C5110F06BF810F02FFA8046C6
:1019B00021E51B4F184B07933B6803EBD3735B1078
:1019C0003B606CE53B68DFF8389003EBD3734FEA7C
:1019D000630AD9F80040C7F800A077E5CDCC4C3FAA
:1019E000CDCC4C3E6666663FCDCCCC3D3333733FA9
:1019F000CDCC4C3D289CFF1F209CFF1F409CFF1F0F
:101A0000389CFF1F78390100349CFF1F229CFF1F68
:101A1000048EFF1F2C9CFF1F3C9CFF1F309CFF1F50
:101A2000249CFF1F2299FF1FCC8DFF1FF89AFF1FD8
:101A3000B79BFF1F07F500540134201A0FF0CCFFAD
:101A40003D493E4D10F01CF8044628680FF0C4FFD5
:101A50003B4910F015F8014620460FF009FF10F041
:101A6000D5F9C0E50FF0B8FF59F8271010F008F8C5
:101A7000014600200FF0FAFE38E70FF0ADFF59F8ED
:101A800027100FF0FDFFF6E42E4BDFF8BC9019880D
:101A9000D9F80040099B0A914046A4EB030B0FF0D4
:101AA0009BFF2A4B0A9953F821100FF0E9FF0B9A7C
:101AB00000905E455346114630465A46B8BF5846D8
:101AC000FEF778FD3B68DFF888B0184400EBD07073
:101AD0004FEA600AC7F800A0F8E4DFF86C90194BF1
:101AE000D9F80040099A19880A912244404609927F
:101AF0000FF072FF154B0A9953F821100FF0C0FF39
:101B0000014600200FF0B2FE0B9A00901146099A90
:101B1000B24253461046A8BF3046FEF74BFD3B6825
:101B2000184400EBD0704FEA600AC7F800A0CDE47B
:101B3000079B186815E500BFCDCCCC3E048EFF1F77
:101B40009A99193F409CFF1F389CFF1F783901006C
:101B5000349CFF1F08B5244B1B885BB3234B1B78B9
:101B60005BB3234B1B7843B3224B1B782BB3224B25
:101B70001B7813B3214B1A782AB3214A21482249F2
:101B80001288008809680244B1EB520F15DD00226B
:101B90001A7007F071FC642004F020FB642004F04C
:101BA0001DFB642004F01AFBBDE808404FF41670DA
:101BB0000DF0FEBA114A117801B908BD1370BDE8E5
:101BC000084007F059BC0E4A0E4810491288008898
:101BD00009680244B1EB520FEFDD01221A70BDE833
:101BE0000840642004F0FABAD69AFF1F2599FF1F17
:101BF0002699FF1F2799FF1F2899FF1FD49AFF1FBF
:101C0000969BFF1F989BFF1F889BFF1F8C9BFF1FAE
:101C100038B5114C232025780CF0FAFC0F4900222E
:101C200041F825000B1F01F1C40053F8041F834243
:101C30000A44FAD123780A490A480133DBB281FB0E
:101C40000251322B4FEAE272C2EB211208BF00238D
:101C50000260237038BD00BF4099FF1F4499FF1FE9
:101C60001F85EB513C99FF1F2DE9F04F9F4CA04D74
:101C70002068DFF8808285B00FF0AEFE9E490FF03D
:101C8000FFFE064610200EF011FB0FF0A5FE9B494B
:101C90000FF0F6FE31460FF0EBFD10F0B7F82B8891
:101CA000206002469A42B8F80010184680F2D080B0
:101CB000CF1A1E4600F0D380F61A07EBD77CC6EB8E
:101CC000C61606EB6C0606FB07FCBCF1000F96FB84
:101CD000F7F6C0F267818A4FDFF828C2CCF80060BF
:101CE0003E88192E00F0EA801A2E2ED01E2E00F00B
:101CF000A4810127844EB946DFF810C2BCF800C0A9
:101D0000BCF1000F13D0DFF808E2BEF800E0BEF12E
:101D1000030F00F23C819A4280F246810A46CDF8D8
:101D200000C019460023FEF775FC7A4B18607A4A0A
:101D30003388108850EA030114D1784B1A78002AAE
:101D400040F01D8205B0BDE8F08F754E3678002E4C
:101D500008BF01276C4E16BF00274FF000094FF057
:101D60000109C9E72988D4F800C0614579DCDFF8AA
:101D7000ACE19EF800A0BAF1000F34D14FF0010A97
:101D800004288EF800A02ED1002F40F0C6813388A1
:101D9000002BD7D0B9F1000FD4D022682888B8F82A
:101DA0000010904200F3AC818A42A8BF0A46091A8B
:101DB00000F0C681121A01EBD174C2EB82126410DA
:101DC00004EB420404FB01F2002A94FBF1F400DB73
:101DD0000134544D2A68A24203D0E1B2D8B207F0D0
:101DE000B9F92C60AEE7012800F04181022800F02B
:101DF000F4800328CBD14C4B1B88092BC7D0002F74
:101E0000C5D023682988B8F80020994240F3A881FA
:101E10000B46521A00F0A8815B1A02EBD277C3EB93
:101E200083137F1007EB430707FB02F3002B97FB9D
:101E3000F2F700DB0137DFF8F4B0DBF80030BB422B
:101E400003D0F9B24A2007F085F9CBF800709EE77D
:101E50008A421646A8BF0E46CF1A7FF42DAF3F2602
:101E600039E72E4A117800293FF46CAF002401288D
:101E7000147000F0EE80022800F0A080032840F0EB
:101E80003381294A1288092A09D047B1274D2A6887
:101E90002AB121464A2007F05DF933882C60002BD7
:101EA0003FF450AFB9F1000F3FF44CAFD8B200216E
:101EB00007F050F91B4B00221A6043E7DFF86090EF
:101EC000114E99F800C0BCF1000F33D0B6F800E015
:101ED000BEF1000F2ED0DFF858A09AF800B0E3450D
:101EE00040F0108101274FF0000905E79C9AFF1F81
:101EF000AC9AFF1FAA9AFF1F9A99193FCDCCCC3EEE
:101F0000949BFF1FA09AFF1FA69AFF1FFC9AFF1F1A
:101F1000FA9AFF1F009BFF1FA49AFF1FA89AFF1F9A
:101F2000929BFF1F6C9BFF1F269AFF1F689BFF1F42
:101F3000219BFF1FDFF84CA29AF800E0E645D1D0C4
:101F40003078002107F006F999F800303A888AF8CD
:101F500000308D4BB3F800C0BCF1000F00F0BE8024
:101F60001E2A40F00381012799F80030002B60D031
:101F7000DFF818E22B88BEF800E02268B8F80010FD
:101F8000BEF1030F18464FF000097FF6C4AE9A4227
:101F90000FDA1A46CDF800C00023FEF73BFB7C4B5E
:101FA0001860C4E6013E96E68A42A8BF0A4610467B
:101FB000B4E68A42A8BF0A461046EAE7002F3FF47B
:101FC0006EAF744D2A68002A3FF469AF21460420A1
:101FD00007F0C0F833882C6061E7002F3FF4D8AEDB
:101FE000DFF8B0B1B8F80000DBF800A08445634624
:101FF000A8BF0346401A00F0AE805B1A00EBD07118
:102000004910C3EB831301EB430303FB00F10029E9
:1020100093FBF0F300DB0133534506D0D9B2042023
:10202000039307F097F85C4A039B1088CBF80030C5
:10203000DFE6574A9946136079E6DFF86091524B24
:1020400099F80070B3F800C0554EB7FA87F77F09CA
:102050008AE7002F3FF423AF4E4D2A68002A3FF451
:102060001EAF214607F076F833882C6017E7002F63
:102070003FF48DAEB8F800309C456046A8BF1846C6
:102080005B1A6AD0401A03EBD37AC0EB80104FEA98
:102090006A0A0AEB400A0AFB03F100299AFBF3FAE9
:1020A00001DB0AF1010ADFF8ECB0DBF80030534540
:1020B00005D05FFA8AF1012007F04CF8364A108803
:1020C000CBF800A002287FF494AE2B88D4F800C08F
:1020D000B8F80000634519468CDC87E71E2A3FF4F8
:1020E00042AFE146012722E604287FF4D8AE002F54
:1020F0003FF4D5AE2146402007F02CF83388CEE6D9
:10210000024654E65FFA8EF07F2107F023F899F833
:1021100000303A888AF800301BE740207F2107F022
:1021200019F81D4A108850450CD002287FF461AE82
:10213000DFF860B02B88DBF800A0D4F800C0C7E758
:10214000402446E62888D4F800C0B8F8003060453E
:10215000014695DC90E740235EE74FF0400AA2E796
:102160009342A8BF134654E6402764E62B882268B2
:10217000B8F80010184601274FF00009C3E51970A0
:10218000E0E500BF219BFF1FFC9AFF1FFA9AFF1F8B
:10219000009BFF1F689BFF1FA49AFF1F929BFF1FBE
:1021A000A69AFF1F08B5114B1B88022B09D0052BDF
:1021B00007D0032B0DD0042B13D00D4B01221A7026
:1021C00008BD7F21412006F0C5FF094B01221A708E
:1021D00008BD4021092006F0BDFF054B01221A7001
:1021E00008BD7F21092006F0B5FFE6E7AC9BFF1F85
:1021F000A29BFF1F70B5134E134D3388134C052B54
:1022000016D029882268914209D1022B10D0033BB5
:10221000012B11D80021092006F09CFF0CE0C9B267
:10222000052006F097FF3388022B01D0052BEED155
:102230000021412006F08EFF054A2B8823600021F3
:10224000117070BDAC9BFF1FA69BFF1F749BFF1FEF
:10225000A29BFF1F714B1B881D2B70B500F0A78040
:102260006F4B1C78002C40F09B806E4B1B88022B20
:1022700038D0053B032B35D96B4B1B88022B5DD027
:10228000053B022B5AD9694A694B11881A88521AA0
:1022900084F30703002A02FB03F3664AC0F2998025
:1022A0003F3382FB03021A44DD17C5EBA215002B56
:1022B0000D44C0F2A580604E604B3560002C1B7849
:1022C00064DD002B00F092805D4B5E4C1B88052B7B
:1022D00006D023689D4203D0E9B2052006F03AFFFC
:1022E000256070BD584B1B78002B55D111200DF087
:1022F000DDFF534B554A1B881060002BBCD0544B5C
:102300001B888342B8DC534A1288D11A7AD08242A1
:10231000D4BFC3EB0203C3EB0003C3EBC31301EB56
:10232000D17203EB620303FB01F2002A93FBF1F38A
:102330006EDB1C443C4B1B88022BA1D10F200DF0FF
:10234000B5FF3F4B444A1B881060002B9BD0434B8A
:10235000C0F53B601B880830984294DB404A1288E5
:10236000D11A52D09042D4BFC3EB0003C3EB020397
:10237000C3EBC31301EBD17203EB620303FB01F266
:10238000002A93FBF1F346DB1C447CE7002B9BD037
:10239000BDE87040FFF72EBF15200CF039F9A8E713
:1023A000274B1B88002B0CBF00247F245DE7244BA8
:1023B0001C88002C3FF459AF2A4A194B12781B781D
:1023C000002A0CBF00247F24002B3FF44EAF7F3443
:1023D0004BE73F3B82FB03021A44DD17C5EBA21516
:1023E000002B0D44FFF667AF013564E7FFF7DAFE17
:1023F000134B35681B88134C052B7FF46AAF6FE7CE
:10240000013D58E73F231C4494E73F231C443AE72F
:10241000013B1C448EE7013B1C4434E7949BFF1FA7
:10242000DC9AFF1F129AFF1F309BFF1FA69BFF1F06
:10243000A49BFF1F09040281C09AFF1FA29BFF1FDC
:10244000AC9BFF1F749BFF1F149AFF1F189AFF1F5E
:10245000AA9BFF1FA89BFF1F349BFF1F3C9BFF1FD6
:10246000329BFF1F929BFF1F38B51F4B1B88DA1E44
:10247000022A02D9072B00D038BD1C4B1B784BBB5E
:1024800011200DF013FF1A4B1A4A1B88106083426B
:1024900024DC194A1288D11A22D08242D4BFC3EB5D
:1024A0000203C3EB0003C3EBC31301EBD17203EBD5
:1024B000620404FB01F3002B94FBF1F412DB0F4DDB
:1024C0002B68A342D8D00E4BE1B2187806F042FE3A
:1024D0002C6038BD15200CF09BF8D4E70024EEE703
:1024E0003F24ECE7013CEAE7129AFF1F149AFF1F12
:1024F000AA9BFF1F189AFF1FA89BFF1F589BFF1F37
:10250000109AFF1F38B51D4B1B88DA1E022A02D90C
:10251000072B00D038BD0F200DF0C8FE184B19490D
:102520001B880860C0F53B6208329A420BDA00242F
:10253000154D2B68A342EDD0144BE1B2187806F08C
:1025400009FE2C6038BD12490988C81A13D08A4286
:10255000D4BFC3EB0203C3EB0103C3EBC31300EB14
:10256000D07203EB620404FB00F3002B94FBF0F445
:10257000DEDA013CDCE73F24DAE700BF309BFF1FD7
:102580003C9BFF1F349BFF1F709BFF1F2E9BFF1F59
:10259000329BFF1F2DE9F04110200DF087FEC8305F
:1025A000B0F57A6FA8BF4FF47A60B0F5FA7FB8BF84
:1025B0004FF4FA7000F51673B3F57A6F844A854CC0
:1025C000DFF81482854E864DA8BF4FF47A6381B23E
:1025D00022201180238007F031F82188814C2420AB
:1025E00007F02CF80E200CF013F840F6FF72C830FC
:1025F0009042A8BF104620EAE07000F2DC5381B29E
:1026000079489342A8BF134601800220238007F037
:1026100015F82188042007F011F801200DF046FE7E
:10262000044600200DF042FE8442B8BF044604F187
:10263000C800B0F57A6FA8BF4FF47A60B0F5FA7FA2
:10264000B8BF4FF4FA7000F54873B3F57A6F674A74
:10265000674CA8BF4FF47A6381B20A2011802380AF
:1026600006F0ECFF2188634C0C2006F0E7FF0F20FA
:102670000DF01CFEC0F53F610431B1F5FA6FA8BF43
:102680004FF4FA61C0F54363B1F5AF6FB8BF4FF4D3
:10269000AF61B3F5FA6FA8BF4FF4FA63B3F5AF6F4C
:1026A000554AB8BF4FF4AF6389B2A420118023808C
:1026B00006F0C4FF2188514CA62006F0BFFF15206C
:1026C0000BF0A6FF41F25C2200F548709042A8BFD3
:1026D0001046B0F52F7FB8BF4FF42F7000F596630A
:1026E00081B247489342A8BF134601800620238049
:1026F00006F0A4FF2188082006F0A0FF00274FF471
:10270000AF74F9B2304609F0F9F858F8043BC3F554
:10271000967303FB00F085FB0023C017C0EB63102A
:10272000844207F10107A8BF0446062FE9D1DFF86C
:10273000D480354E2A4D0027F9B2304609F0DEF834
:1027400058F8043BC3F5967303FB00F085FB0023A8
:10275000C017C0EB6310844207F10107A8BF04460D
:102760000C2FE9D1DFF8A480294E1D4D0027F9B2C6
:10277000304609F0C3F858F8043BC3F5967303FBE1
:1027800000F085FB0023C017C0EB6310844207F103
:102790000107A8BF04460C2FE9D1143C322CB8BF66
:1027A000322440F23A72A4F5AF7302FB03F3963B76
:1027B00085FB03251748184ADB17A1B2A3EB651365
:1027C00032330180BDE8F0412A20136006F036BFA5
:1027D000AC9AFF1FAA9AFF1F9C8DFF1F0C9CFF1F26
:1027E000B5814E1B549AFF1F569AFF1F989BFF1FDF
:1027F000969BFF1F329BFF1F3C9BFF1FA89BFF1F49
:10280000AA9BFF1F6C8DFF1F089CFF1F3C8DFF1FA5
:10281000049CFF1F6E9AFF1F708EFF1F2DE9F04F63
:102820000C2095B00BF0C0FE0C200CF0B9FB394920
:10283000DFF8E4A014200CF0C1FB3849384808F058
:10284000B9FD022103200CF057FC022104200CF0FA
:1028500053FC022105200CF04FFC022106200CF055
:102860004BFC01210A200CF047FC012109200CF04F
:1028700043FC01210D200CF03FFC012128200CF02D
:102880003BFC012114200CF037FC012116200CF038
:1028900033FC012117200CF02FFC012121200CF02A
:1028A0002BFC02211C200CF027FC01211B200CF02A
:1028B00023FC00211B200CF0EBFB1C200CF00EFC79
:1028C000B0FA80F35B091A208AF800300CF04AFE57
:1028D0001F2000210CF008FE04200CF0FFFB002854
:1028E00000F0038205200CF0F9FBE8B903200CF09E
:1028F000F5FBC8B904200CF0F1FB002800F05C8265
:1029000006200CF0EBFB074D031E18BF01232B70B4
:102910000DE000BF001B3746429CFF1F40420F00E6
:102920000C90FF1F6C9AFF1FB54D00232B700620E3
:102930000CF0D4FBB0FA80F35B094FF0000BB14A06
:10294000137005F0D1FA2B78002B40F0C98158465E
:1029500006F08EFEAC4BAD491B8840F23A72A3F5EF
:10296000AF7302FB03F3963B81FB0321DA17002BC5
:10297000A2EB6112A649D4BF02F1320302F1310386
:10298000A44A0B60A44B12881A7001210D200CF090
:102990007FFB64200CF00CFC06244FF416710A2017
:1029A0000CF0ECF99D4A9E4800940C235D2109F03F
:1029B00009F8002800F0188164200CF0F9FB0021D0
:1029C0000A200CF0DBF94FF4967109200CF0D6F9CF
:1029D000924A944800940C235C2108F0F3FF0028ED
:1029E00000F06D8164200CF0E3FB002109200CF065
:1029F000C5F94FF4967116200CF0C0F9874A8A4841
:102A000000940C235B2108F0DDFF002800F04781D3
:102A100064200CF0CDFB002116200CF0AFF94FF430
:102A2000967117200CF0AAF964200CF0C1FB00216C
:102A300017200CF0A3F964200CF0BAFB00210D2044
:102A40000CF026FB794A7A481268DFF8E8917A4E52
:102A50007A4D7B4FDFF8EC8100230121FDF71AFD51
:102A60000124002333602B603B6089F800400F2075
:102A70000DF01CFC3B6803440E203B600BF0C8FDCE
:102A800033680344336099F80030002B00F0228152
:102A900015200BF0BDFD2B681844286004F00100E0
:102AA00003F08CFBB8F80030002B14BF4B20DC2067
:102AB00001340CF07DFB052CD9D13B6832686249AA
:102AC000624C08886249002BB8BF0333002AB8BFA4
:102AD0000332921032602A6809885E4E002AB8BF1D
:102AE00003329B109210A3EB000C3B602A60236022
:102AF000594F5A4D5A4CC7F800C003443360202048
:102B0000531A0A442B6022600DF0D0FB554B00F5A0
:102B1000FA70186019200DF0C9FB534B00F5FA70DC
:102B20001860BBF1000F40F00881B8F80030002BAE
:102B300000F00A814D4B012404201C600CF0CEFAF9
:102B400018B94B4B344A1C7010704A4B1B881C2B15
:102B500000F0E880484C04F1C80523200BF058FD34
:102B600044F8040F01200CF023FBA542F5D19AF89C
:102B7000003023B1414B1B78002B40F0F280002144
:102B800021200CF085FA3E4A3E4B10783E4C1870DE
:102B900006F01CFD03F00AFB3C4B049304A90AA8B1
:102BA00002940894FDF7F6FC0AA910A80E94FDF70C
:102BB000F1FC45F6BF520EA935480BF0B7FA0E9B53
:102BC00010A8DB689847089B0AA8DB689847029B17
:102BD00004A8DB68984715B0BDE8F08F04200CF01E
:102BE0007DFA002800F0C28003200CF077FA00285C
:102BF000F4D003200CF072FA0028F5D1EEE700BF04
:102C00006C9AFF1F089BFF1F6E9AFF1FB5814E1B1A
:102C1000708EFF1F7E9BFF1F3A99FF1F0C90FF1FB6
:102C20000C9CFF1F049CFF1F089CFF1FC08DFF1FF3
:102C3000309AFF1F149AFF1F2C9AFF1F3C9CFF1F06
:102C4000389CFF1FAE9AFF1F7C8EFF1F389BFF1F13
:102C50007E8EFF1F349CFF1F289CFF1F2C9CFF1F94
:102C6000309CFF1F849BFF1F409BFF1F4C9BFF1F3F
:102C70009A9AFF1F949BFF1F4099FF1F439CFF1FC1
:102C80002099FF1F3899FF1F982F01006508000049
:102C9000809AFF1F04200CF021FA00287FD0032027
:102CA0000CF01CFA0028F5D003200CF017FA0028CD
:102CB000F5D1EFE704200CF011FA002864D00320CE
:102CC0000CF00CFA0028F5D003200CF007FA0028CD
:102CD000F5D1EFE711200DF0E9FA2B681844DCE696
:102CE00015B0BDE8F04F08F01FBA06200CF0F6F959
:102CF00000287FF4F7AD03200CF0F0F900283FF432
:102D0000F1AD05200CF0EAF900283FF4EBAD052009
:102D10000CF0E4F9002852D0374D00232B704FF00F
:102D2000010B0CE6354B188800283FF413AF344BE9
:102D3000C0B2197806F00EFA0CE7FFF72BFCB8F8D2
:102D40000030002B7FF4F6AE4FF4FA7003F046FA31
:102D500003F030FA05F042FA4FF4AF600CF028FAB5
:102D6000E8E6012121200CF093F90CE705200CF096
:102D7000B5F900287FF438AF06200CF0AFF9002831
:102D80007FF432AF0DF08AFB05200CF0A7F9002884
:102D900095D106200CF0A2F9002890D1F2E7052089
:102DA0000CF09CF900287FF47AAF06200CF096F91D
:102DB00000287FF474AFE5E70F4D2870B7E50320D6
:102DC0000CF08CF904460028A6D104200CF086F9FA
:102DD000034620B9084D4FF0010B2B70AFE50620DC
:102DE0000CF07CF9044D031E18BF01232B704FF02B
:102DF000010B2346A3E500BF6C9AFF1F2A9BFF1F10
:102E00002C9BFF1F2DE9F04FA14D2C78012C97B082
:102E100000F03582022C00F0B581002C00F0EA822F
:102E20009C4C9D4926789D4C9D4F94F800809D4C6C
:102E30009D48247801949D4C3F7891F800A094F827
:102E400000B09B499B4C04979B4F9C4B9C4A90F82D
:102E500000C094F800E008789A4C9B493F780397AB
:102E60001B789A4F127809782478029700272F70E0
:102E7000974D85F800C0974D85F800A0964D2B70B2
:102E8000964D2A70964D2870964D85F800C0964D47
:102E90002970002E00F0D080944D2D8805952E4687
:102EA000934D0127182E2F7000F2D080059D012729
:102EB000A5F10C0623B18F4B1D88002D40F0318306
:102EC0008D4B1B88002B40F0C3808C4B8C4D1B78A6
:102ED0002D780133A3EB4E03002D00F0C480BEF12A
:102EE000000F00F03083002C40F0F184013B854C52
:102EF000049D2478A3EB44031344A3EB0A0315B108
:102F0000002A00F04583A3EB0803B8F1000F02D0BC
:102F1000002C40F03983019A9B1AA3EB4B03039AD0
:102F20000344A3EB0C03A3EB410302EB420203EBCC
:102F30008201754B75481960754B764C1A8800688C
:102F40002488033A02EB4203734A1288C2EBC2029E
:102F5000104401EB8303714A2344714C12882468A6
:102F6000C2EBC20222446F4C0C3B54F820003344A5
:102F700003446D4850F8222013440FB16B4A11608E
:102F80006B496C4A098807298CBF0120002010700A
:102F900040F2EC80684A694812680180032A00F018
:102FA0006C840025664A674C157022689A4200F0CE
:102FB000E3806548654F02680692069E644A3E605B
:102FC0000127177002680792624A1788079A921BB6
:102FD000BA4251D9604E614F326833609A1A3A60F2
:102FE000002D00F0CD805A4A1578002D40F0A282C5
:102FF00023605B4D2A689A4245D00468594F099472
:10300000099C3E68A41B8C42C0F08E82991A00F184
:103010004384554C266886EAE674A4EBE6748C4239
:1030200040F380844D4909680029B8BF49428C4269
:10303000B8BF531C00F041BC2E4D2D880D2D00F063
:1030400060822B4D00272F703E4633E7002631E784
:10305000013B042B00F2F884DFE813F005036A0358
:10306000E702C7029C021B1B002C3FF440AFBEF1DD
:10307000000F18BF013B3AE72360374B1B68002D58
:10308000B7D1374A1360029A136017B0BDE8F08FCA
:10309000109BFF1F1E99FF1F1C99FF1F2A99FF1FDE
:1030A0003099FF1F2B99FF1F2E99FF1F2C99FF1F8F
:1030B0002D99FF1F1799FF1F549BFF1F1D99FF1F7D
:1030C0001B99FF1F1899FF1F2F99FF1FC49AFF1FFD
:1030D0001099FF1F1199FF1F1299FF1F1399FF1FCE
:1030E0001499FF1F1599FF1F1699FF1F949BFF1F2F
:1030F000929BFF1F449BFF1FCC9AFF1F6C8EFF1FEC
:103100001A99FF1F1999FF1FC89AFF1F009BFF1FE5
:10311000529BFF1F109CFF1FFA9AFF1F1C9AFF1F54
:10312000209AFF1F70310100183501009C9BFF1F82
:10313000EC9AFF1FE49AFF1F4C9BFF1FC48DFF1FDB
:10314000DE9AFF1F189BFF1F909DFF1F149BFF1F00
:10315000509BFF1F969AFF1FF49AFF1FF09AFF1FC4
:10316000E09AFF1F1C9BFF1FE89AFF1F8548002263
:1031700011460280154615E7834A8448166821E700
:1031800023607EE7DFF80892824F834E0DF1280816
:103190000024E1B2384608F0B1FB59F8043BC3F50E
:1031A000967303FB00F086FB00230134C017C0EBCD
:1031B00063100C2C48F8040BEBD1784B129E1B8843
:1031C0000B9F119A139C149875499E42ACBF002620
:1031D0000126BB42D4BF002701279342D8BF4FF03E
:1031E000000E159A0E70C8BF4FF0010EA3420D9944
:1031F000D4BF002401248342D4BF00200120934285
:10320000D4BF002201228B420E99D4BF4FF0000A96
:103210004FF0010A8B4263490F706349634F81F895
:1032200000E0634997F800800C706249624F0870B3
:1032300062493F780A7001976149624F81F800A0A6
:1032400097F800B06049614FD4BF002301230B7091
:103250003F785F4904975F4F91F800C05E493F781F
:10326000087803975D492F780978B9465C4F029733
:103270004F46012F9ABF0137FFB20027F7E5DFF86D
:103280006491594F444E0DF128080024E1B23846AC
:1032900008F034FB59F8043BC3F5967303FB00F0C8
:1032A00086FB00230134C017C0EB63100C2C48F8D8
:1032B000040BEBD1394B0D991C88444B0E9A0A989C
:1032C000A142ACBF0021012119700C9B04919442D2
:1032D000D4BF4FF000084FF001089C42D4BF002338
:1032E000012301930B9B019A11999C42129BD4BF1D
:1032F0004FF0000B4FF0010B8442D4BF002001209F
:103300009C422A4B83F800802B4B1A702D4B83F87C
:1033100000B0314B18702E4BD4BF4FF0000C4FF063
:10332000010C83F800C08C422C4BD4BF002101213A
:103330001970149B9C4240F32981139B9C42D4BF7B
:10334000002301230F9A9442284A1370284BD4BFBC
:10335000002401241C701F4B1B780393204B029305
:103360000F4C174B2678104C93F800A0134A164BBD
:1033700094F800E02F780E4C1B7812782478B94628
:1033800076E700BFC48DFF1F149BFF1F909DFF1F9A
:103390003C8DFF1F049CFF1FB5814E1B6E9AFF1FC3
:1033A0001E99FF1F1A99FF1F1799FF1F2A99FF1FC8
:1033B0001899FF1F1999FF1F2B99FF1F1B99FF1FBA
:1033C0001C99FF1F2C99FF1F1D99FF1F3099FF1F8C
:1033D0002E99FF1F549BFF1F2D99FF1F2F99FF1F31
:1033E000C49AFF1F6C8DFF1F089CFF1FFA9BFF1FD5
:1033F000809BFF1FDFF8E092B84FB94E0DF128080F
:10340000E1B2384608F07AFA59F8043BC3F59673EE
:1034100003FB00F086FB00230134C017C0EB6310F0
:10342000062C48F8040BEBD1AE4B0A9A1B88049289
:103430009A420B9A0C99DDF834B00392ACBF4FF06E
:10344000000A4FF0010A9342A74A0E9E0F9802917C
:10345000D4BF4FF000094FF001098B42D4BF4FF0A9
:1034600000084FF0010811885B450AEB0902D4BF40
:10347000002701274244B342D4BF4FF0000E4FF063
:10348000010E3A448342D4BF4FF0000C4FF0010CC0
:10349000724462440192954A82F800A0DFF850A27B
:1034A000019A8AF80090DFF84C9289F80080DFF8E2
:1034B000488288F80070914F87F800E0904F87F8B5
:1034C00000C0904FDFF840C23A70904F4FF0000EAE
:1034D000012987F800E08CBF4FF0000E4FF0010E7D
:1034E00083428CF800E031DDB34200F3F38101291F
:1034F00000F27881864A039423463C700292854C00
:103500005BE1002B3FF49DAD834F3F880597834FD0
:103510004FF0010987F80090059F182F7FF6C6AC81
:1035200001270D3D2E44CBE41346029A136017B0D9
:10353000BDE8F08F05680895089D794E0D4435600B
:103540000025157054E5013B1B1BD0E4B34240F34A
:1035500049815B4500F32A81012940F22781029AC3
:10356000934240F34981039A934200F31282012966
:1035700040F20F82049A9A4280F2498101223A7005
:10358000634A644C02926BE1013BC4E40023D9E638
:103590000133B8E4634B019D1B78A3EB48035B1B2D
:1035A000614DABEB8B0995F80080CEEB8E75B4FACC
:1035B00084F44B44CEEB850564092B4403EB840370
:1035C000B8F1000F00F0AA81049C03EB440303EB65
:1035D000810313440344A3EB0A03A3EB4C03039AB4
:1035E00002EB420203EB8201A3E44E4B01981B78ED
:1035F000A3EB4803ABEB8B021B1A1344CEEB8E728A
:10360000CEEB82021344049A03EB420303EB8103E3
:10361000002C40F0798101221344039AC2F1060282
:1036200002EB420203EB820183E43E4B01981B78DC
:10363000A3EB4803ABEB8B021B1A1344CEEB8E7249
:10364000CEEB82021344049A03EB420303EB8103A3
:10365000002C40F04F8101221344039A02EB4202F6
:1036600003EB820165E42F4B1B780133A3EB4E057E
:103670002E4B1B78002B40F036812B1B002C40F08A
:103680008381294D2D78A3EB45031344A3EB0A0A4C
:10369000049B13B10AB90AF1010AAAEB0803B8F1B5
:1036A000000F02D0002D18BF013B019A9B1AA3EB1B
:1036B0004B030344A3EB0C03A3EB4103BEF1000F48
:1036C00002D10CB105B10933BBF1000F87D100293C
:1036D00085D00A3B83E700BF9C8DFF1F0C9CFF1F1A
:1036E000B5814E1B6E9AFF1FC09BFF1F2499FF1FC1
:1036F0002599FF1F2699FF1F2799FF1F2899FF1F54
:103700002999FF1FB89BFF1F789BFF1F549BFF1F2A
:10371000C49AFF1F209BFF1F949BFF1F929BFF1FBC
:103720001C9BFF1F6C8EFF1F1999FF1F1A99FF1F0B
:10373000A74D019BAB71A74B2A711B786B70A64BF1
:1037400085F805801B78AC7085F807B0287285F87D
:1037500000E0EB704FF0010805F8091FDFF87C92DC
:10376000CDF804C042469A4B5FFA88FC08F1FF3B53
:103770004C467046002107E0022A07D0AB4209D030
:1037800013F8010F14F8012F9042F5D10131AB422B
:10379000C9B2F5D1092900F2D68008F10108B8F1C3
:1037A000110F00F0C58019F80A2FDCE78C4A8D4C08
:1037B000029205233B703B78039323708A4B8B4A1C
:1037C00018788B4B92F800C019788A4B1B780493B9
:1037D000894B93F80080894B1B780193884B93F8B1
:1037E00000B0BDE55B457FF7BAAE029A934200F3A5
:1037F000C480012940F2C180039A93427FF7BAAE98
:10380000049A9A42C0F2CE80012940F2CB80754CD6
:1038100094F800C0BCF1010F40F2D78009B187F8DD
:1038200000C0DFF8E0C1BCF800C0BCF1000F00F040
:10383000BF80019A002A40F0BB80734A1288013A87
:1038400092B2062A00F2B480704A1278002A00F080
:10385000AF806F4A1268012A614A029200F0E88044
:103860000329A8D18342A6DDB342A4DC2378062B2A
:10387000A1D107233B7003939FE7664A1268002A91
:103880007FF78FAB644A65481278007802430CBF1B
:1038900001250025FFF786BB5E490E6886EAE674BF
:1038A000D11AA4EBE674A1423ADA5D49096800290D
:1038B000B8BF49428C4200DA531E02680A920A9A43
:1038C0003A60029A2B60136017B0BDE8F08F1B1BA3
:1038D000FFF7CDBB03293C7026D0414A0394234611
:1038E0000292404C69E7BEF1000F58D0002C4AD13B
:1038F0006B1EC6E6384A1278002A3FF4ACAEBAF125
:10390000000218BF0122A7E6334A1278002A3FF4CA
:1039100082AEBAF1000218BF01227DE6033353E6FE
:10392000931BCAE79319C8E72D4B2E4C029342E72D
:103930003C4B3D4A1B78D26B01331344049AA3EBF2
:103940000A0313444BE6374B374A1B7852F82B20B7
:103950000499013360461344DDF804C0A3EB0A0365
:103960000B44BCF1000F3FF43AAE01287FF437AEB0
:10397000BAF1000F18BF013B31E604223A70184A31
:10398000184C02926CE72B1BBEF1000F18BF013BD5
:1039900077E603223A70124A124C029260E76B1EDD
:1039A0001B1B6EE602223A700D4A0E4C029257E73C
:1039B000174A1268012A0A4A02927FF451AF1B4A41
:1039C0004FF0030C82F800C04AE7054A029247E72D
:1039D000E89BFF1F1A99FF1F1999FF1F5032010022
:1039E000C49AFF1F209BFF1F2D99FF1F2E99FF1FB9
:1039F0002F99FF1F3099FF1F2A99FF1F2B99FF1F37
:103A00002C99FF1F7A9BFF1FA09BFF1FE69BFF1FA8
:103A10004C9BFF1FE89AFF1FF99BFF1FF89BFF1F9E
:103A2000F09AFF1F6C8EFF1F088EFF1FBF8DFF1FB8
:103A30001268DFF86CE04FF00C0C92FBFCF80CFB0A
:103A40001822AEF80020BAE7164B1B78ABEB8B05BB
:103A5000B4FA84FB019CA3EB48031B1B124C2B44C0
:103A60002578CEEB8E74CEEB84044FEA5B1B2344A7
:103A700003EB8B0305B90333049C03EB440303EB13
:103A800081031344039A0344A3EB0A03C2F1060221
:103A9000A3EB4C0302EB420203EB8201FFF749BAAE
:103AA000049BFF1F6C8EFF1F1999FF1FA34B1B78F0
:103AB000002B40F036812DE9F04F0E2091B00AF036
:103AC000A7FD0DF089FF01469D489E4C9E4DFCF7D9
:103AD0002BFD9B48FCF7FCFC0EF098F980F30C00E2
:103AE0002060FFF78FF92B68012B5DD0022B00F0CF
:103AF000FD84032B00F07C81944C954E2368954CFB
:103B00000F930F9B22683360991A934A1288013AE7
:103B1000914200F28383914C22689A1A092A00F29A
:103B200087838F4C22689A1A0D2A00F297838D4C56
:103B300022689A1A252A1CD98B4B1B8813B98B4BE8
:103B40001B780BB1FEF706F8FEF762F8884B1B886E
:103B50001B3B9BB2022B08D8864B1B782BB1864BA4
:103B60001B7813B12B68012B01D002F04BFB33689B
:103B70002360824C22689A1A502A00F235838049C9
:103B80000A689A1A052A03D97E4A0B600120107030
:103B90007D4A1288012A00F0958205F009FC11B0D7
:103BA000BDE8F04F05F0A0B8DFF8E081784BB8F839
:103BB00000001A78824240F0BC80764F764B3888FD
:103BC0001A78824204D0754E3278002A40F002867C
:103BD000734A236812885D4C9A4280F2A48021685F
:103BE0000A917049704A0B600A9B136002232B6094
:103BF000DFF8B891DFF8B8A1B9F80030BAF80020C2
:103C000013439BB2002B40F061836A4B1E680E2069
:103C10000AF0FEFC6FF454731E44864202DC664BCD
:103C200000221A70654B1B88002B00F08485644BC2
:103C300064491A780B78934262D0002A60D0624BB4
:103C40001E78002E00F0488760480778002F40F06B
:103C50004187DFF87CC15F4B8CF80070DFF878A1FA
:103C6000DFF878C11B788AF800708CF800700127A3
:103C7000CDF804C0077033B10027077001980770B2
:103C800001208AF80000564890F800E0BEF1000FCD
:103C900001F0348053480778002F41F06B81DFF842
:103CA0003CC18CF80070012707704F48007800284D
:103CB00000F08886464F97F800C0BCF1000F41F035
:103CC0005381DFF8088188F800C04FF0010C87F8B5
:103CD00000C0BEF1000F40F075863343184340F03A
:103CE0007186244B1B78002B40F071863748037097
:103CF000394803703B4803703848037034480370F8
:103D00000A701B4B1B88A3F11B02012A40F21F857E
:103D10001D2B7FF4F2AE174A344B12780C4E1A70FA
:103D2000ECE607F07BB8114A1278002A7FF457AF0F
:103D30005EE7C0B2187005F0CBF93EE76C9AFF1F42
:103D4000309AFF1FB09BFF1F4C9BFF1F909DFF1FD2
:103D5000709AFF1F5C9AFF1F3A8DFF1F609AFF1F2A
:103D6000649AFF1F689AFF1FD69AFF1FD49AFF1FFD
:103D7000949BFF1F929BFF1F1699FF1F3499FF1FF3
:103D8000909AFF1F8C9AFF1F949AFF1F2099FF1F84
:103D90003899FF1F7E9BFF1F3A99FF1F9A9AFF1FBA
:103DA000569AFF1F0C9BFF1F589AFF1F269BFF1F51
:103DB000289BFF1F2C9AFF1FB69BFF1FA09BFF1F76
:103DC000FA9BFF1F229BFF1F1399FF1FF99BFF1FE9
:103DD000F89BFF1F1499FF1F7C9BFF1FE69BFF1F93
:103DE0001099FF1FFE9BFF1F1199FF1F219BFF1FB3
:103DF000A24B21681A888A4258DDA14B1B78002B00
:103E000054D1DFF8809299F800007F280BDD7F38CD
:103E1000A3F15533A3FB0023DB0803EB4303A0EB23
:103E200083007330C0B2984B00931B8889F8000060
:103E3000002B41F00F81DFF854A29AF80030002BDC
:103E400000F05B86924F3B78002B00F05686914E37
:103E5000DFF844B24FF0000811E0ABFB0213DB08BF
:103E600003EB4303A2EB830202F17300C0B205F03F
:103E7000EDF93B7808F10108434540F33E8699F897
:103E8000000056F8043F18447F28A0F17F02E4DCCC
:103E90000028C0F10002E9DAABFB0213DB0803EBF8
:103EA0004303A2EB8302C2F10C00DFE77B4E3368D1
:103EB0007F2B00F3BE84002B0ADA77485B42A0FB1D
:103EC0000370C00800EB4000A3EB8003C3F10C03B8
:103ED000DFF8B09199F800709F4200F03585704B83
:103EE0001B88002B46D16F4B6F491B6809889A428B
:103EF00040F3F4871346891A01F044809B1AC3EB00
:103F0000833301EBD17203EB620303FB01F2002A5E
:103F100093FBF1F0C1F2FD80FDF71CF9C0F3C61070
:103F20000DF05AFD614B804618880DF055FD604933
:103F3000824640460DF0A4FD014650460DF0A0FD1E
:103F400041460DF095FC4FF07E5180460DF036FF56
:103F5000002841F00680574940460DF04DFF0028EB
:103F600041F0A18040460DF077FFC3B2DFF84881F1
:103F700088F800307F2F0ADD474B7F3FA3FB0723E4
:103F8000DB0803EB4303A7EB83077337FFB2DFF8CC
:103F9000FCA089F800709AF80030002B40F0CF8523
:103FA000464B474A029301921B7812781A4340F01D
:103FB000AC86354B0093019B1B78002B40F0CC86E0
:103FC0009AF80030002B00F08E86009B1B88002B97
:103FD00000F0748730687F2840F370862E4A7F385F
:103FE000A2FB0012D20802EB4202A0EB8200733067
:103FF0003060002B40F029879AF80030002B00F049
:104000007284234F3B78002B00F06D84214ACDF859
:104010000C900023B146DFF8A0809B46164614E0C2
:104020001D4BA3FB0102D20802EB4202A1EB82016D
:1040300001F1730098F80010C0B205F0C9F83A78A1
:104040000BF1010B5A4540F34B8456F8040FD9F895
:10405000002010447F28A0F17F01E1DC0028C0F19E
:104060000001E7DA0C4BA3FB0102D20802EB42028B
:10407000A1EB8201C1F10C00DCE700BF569AFF1FE3
:10408000D49AFF1F3999FF1FB49BFF1F7C9BFF1F12
:10409000388DFF1F448EFF1FABAAAAAAC49AFF1F28
:1040A000189CFF1F509AFF1F549AFF1F149CFF1F5C
:1040B000CDCCCC3D0000FE421A9CFF1FFE9BFF1F93
:1040C000E69BFF1F6849694A08681268A82441F600
:1040D000FF7104FB0011664C183A84FB01042A208E
:1040E0000C4400FB02F2C817C0EB64300029ACBFDF
:1040F000A0F15401A0F155015E4804785E480A44DD
:104100006FF014055D49006805FB04220A60002871
:1041100000F00E835A4D2978002940F04483594914
:104120000A6859480088002839D0584C54F82000B3
:10413000002800F04284B3FBF0F400FB1433C3EB1F
:10414000C30300EBD07403EB031303EB640393FB93
:10415000F0F403FB00F000284D4BB8BF04F1FF342E
:1041600053F82430A3F2FF734A4C246804FB03F392
:1041700003F57D33162003F5607300FB03F3464C13
:1041800003F57D3303F5607384FB0304D817C0EB9C
:104190006440002BACBF0B380C3802440A603F4B24
:1041A0003F491B883F4803F27C7302FB03F35B002B
:1041B00003F5FC630A8880FB0310643A1844D9179E
:1041C000002B4FEA4202C1EBE021C0F28785114487
:1041D00081F30C0128200AF0D1FD05F0E9F811B0B7
:1041E000BDE8F04F04F080BD03F0B4FE2E4B2F4924
:1041F0002F4A09781B7812780B432E4913432E4A15
:10420000097812780B4313432C4A1278134300F0B9
:104210007C8701F0D7FF33682360B0E4FCF7E2FF4E
:1042200033682360264C22689A1A092A7FF679ACF3
:10423000FDF7BAF8FDF718FDFEF716F9214B1B88BC
:10424000082B01D1FCF75EFCFEF75CF933682360B4
:104250001D4C22689A1A0D2A7FF669ACFDF7FAFF09
:104260003368236063E400BF048EFF1FC49AFF1FFE
:1042700009000280B79BFF1FC09AFF1F009CFF1F11
:104280008C9AFF1F789AFF1F8A9AFF1FF43401004F
:1042900014330100A09AFF1F491B89407C9AFF1F1D
:1042A000889AFF1F83200882E69BFF1FF99BFF1F50
:1042B0007C9BFF1FFE9BFF1FF89BFF1FD49AFF1FD5
:1042C000609AFF1F129AFF1F649AFF1F20200BF0B5
:1042D000EDFF9B4B02901B68039319200BF0E6FF48
:1042E000984B994A1B8812881344984A1168984A37
:1042F000834610688B45D4BF002201225E10B0EBCC
:10430000530F944B1B6840F332829E424FF00003E0
:10431000B4BF012018460490ACBF01201846089392
:10432000079009930E20CDE900120AF071F98A4B2B
:104330008A4A1B68DFF828C205930133802B166870
:104340000690019A9CF800000099A8BF8023012BD9
:10435000B8BF0123904200F0398220680B90814859
:10436000DDF82CE0C0F800E020680C900C98A0EB81
:104370000E00282812D97C4890F800E0BEF1000F0A
:1043800040F04B828B4540F34B8278494FF0010E51
:1043900080F800E0087880EA0E0008708CF80020B1
:1043A000734ADFF8D0B11278002A64D09BF800106D
:1043B000914260D03988994200F0B6846E493B80C2
:1043C0006E4B09784FF0010C83F800C0DFF8B0C1E4
:1043D0006C4B8BF800201B788CF80010002B67D1F9
:1043E000029B039A934263DC049B1BB1B9F8003033
:1043F000002B5DD1069AA6F252339A42BFF607AC63
:10440000BAF80030002B3FF402AC079B002B4FD1D1
:104410005D4B1B8813B1099B002B49D1089B002BD6
:104420003FF4F5AB594A1378002B7FF4F0ABDFF87B
:1044300060810123137098F80020002A40F08286E2
:10444000544A1278002A40F0B386534A1278002A60
:1044500000F03787514A1278002A7FF4D8AB504ACF
:104460001278002A3FF4D3AB3A880A323A80434AA2
:104470001370FFF7CCBB4049DFF804C1097800296D
:10448000A6D09CF800E07145A2D005984B2840F3D7
:1044900054841833802BB7F800E0A8BF80239E45D2
:1044A00096D03B80354B4FF0010E83F800E08FE74C
:1044B0003C4B18683C4B1A883C4B1B881A443C4BBD
:1044C0001968431C802BA8BF8023012BB8BF012390
:1044D000B1EB520FC0F25981A3F149020F2A3FF606
:1044E00096AB483BA8F80030FFF791BB314A2068F3
:1044F0001288824204DB304B1B78002B00F0938142
:104500002E4C21680D912E490D9B09685B1A2D498F
:1045100009888B4260D800295ED02B4B198800296E
:104520003FF4EBAA294B1B688342B8BF03462848D7
:104530009A42008840F3C185264B1A60C9B29EE0BA
:10454000849BFF1F969BFF1F989BFF1F409BFF1F95
:104550008C9BFF1F889BFF1F9C9BFF1F2C9AFF1F9C
:10456000239BFF1FD89AFF1FDD9AFF1FDC9AFF1FB6
:10457000909BFF1F249BFF1F919BFF1F9A9AFF1F79
:10458000259BFF1F809BFF1F0E9AFF1FB69BFF1FDF
:10459000549BFF1F1099FF1F1199FF1F1299FF1FB6
:1045A0001399FF1FC89AFF1FAC9AFF1FAA9AFF1FFB
:1045B0009C9AFF1F569AFF1FD49AFF1F909DFF1FC2
:1045C000589AFF1F169CFF1F189CFF1F0C9BFF1F74
:1045D000549AFF1F509AFF1FA74BA8491B6883429C
:1045E000B8BF03469A42088800F30B81A449A54E40
:1045F00009888342A8BF0346336000299ED19A42AE
:10460000C8BF134640F30581811A00F093839B1ABB
:10461000C3EB833301EBD17203EB620393FBF1F045
:1046200003FB01F10029C0F24F85FCF793FDC0F3B5
:10463000C6100DF0D1F9944B064618880DF0CCF950
:104640009249074630460DF01BFA014638460DF0F8
:1046500017FA31460DF00CF94FF07E5106460DF079
:10466000ADFB002840F03D83894930460DF0C4FB86
:10467000002840F0208430460DF0EEFBC1B2DFF898
:104680001482854E88F80010FCF7ACFD30687F2856
:1046900040F38481814B7F38A3FB0023DB0803EBCD
:1046A0004303A0EB830073307D4B00931B88306085
:1046B000002B40F09E81DFF8ECA19AF80030002B2F
:1046C00000F04E81784F3B78002B00F04981DFF8F5
:1046D000DCB14FF0000914E0704BA3FB0213DB08C0
:1046E00003EB4303A2EB830202F1730098F800107E
:1046F000C0B204F06DFD3B7809F101094B4540F370
:104700002F815BF8040F336818447F28A0F17F02E3
:10471000E2DC0028C0F10002E8DA604BA3FB0213E0
:10472000DB0803EB4303A2EB8302C2F10C00DDE7DD
:104730005F490A60F5E45F4A5F4913705F4A0B7096
:10474000137058495E4A0B701370FFF7DABADFF83E
:10475000748198F80030002B4AD05B4A1278002A06
:1047600040F08183594F5A4E3B70FFF7C7B99E42C4
:104770004FF00003B4BF012018460890ACBF0120E1
:104780001846079309900493CCE54E4A1278002A04
:104790005BD13A889A423FF43AAA3B804D4B0122C2
:1047A0001A70FFF734BA42490C68A24259DC61DA48
:1047B000D0F17F0048BF033080100130241AA2429C
:1047C00058DC0C60224600202870AAE44248D0F849
:1047D00000E0C9E5C0B2187004F088FC35483149E2
:1047E000364A002303700B7013703370FFF7F0B973
:1047F000364F3B78002B40F06683354E3B70FFF719
:104800007DB9204B1A601E4B198800297FF496AEA3
:1048100013468342A8BF0346F6E68B453FF7BEAD7D
:1048200000210170BAE501232C4C294E2B60FFF7C3
:1048300065B91A487F3BA0FB0370C00800EB40003D
:10484000A3EB80037333FFF743BB4A2840F306838F
:104850001833802B3A88A8BF80239A429DD1FFF756
:10486000D6B9D0F17F0048BF033004EBA004013477
:10487000A242A6DA0A60A6E70C9BFF1F549AFF1F0C
:10488000189CFF1F509AFF1F149CFF1FCDCCCC3DDE
:104890000000FE421A9CFF1FC49AFF1FABAAAAAADF
:1048A000B49BFF1F7C9BFF1F388DFF1F448EFF1F93
:1048B000789AFF1FF99BFF1FE69BFF1FFE9BFF1FC0
:1048C000F89BFF1F929BFF1F1699FF1F219BFF1F45
:1048D000709AFF1F9A9AFF1FD89AFF1F909DFF1F83
:1048E0004E46DDF80C90029B1B78002B40F0448272
:1048F000019B1B78002B40F03B82009B1B88002B08
:1049000000F03082029A9AF8003012781343019A2C
:104910001278134300F0E083A84B1B78002B4FD094
:10492000A74A1378082B4BD80133DBB21370A54A82
:1049300030681268A449013B821A41F82320A34B36
:1049400021681A8889F800008A42A14CBFF6D5A8D0
:104950002268A04B0E920E9A9F4E1A60FFF7CEB8B7
:10496000964B1B78002B40F0A5809C4B1B78002BAE
:104970004FD19B4B1B78002B47D1009B1B88002BF2
:104980003DD0984B1B78002B40F09F80964A3168B1
:1049900011700323904E2B60FFF7B0B80028BFF6CC
:1049A00083AE924B4042A3FB0023DB0803EB43039F
:1049B000A0EB8300C0F10C0076E66B23FFF7D4BBBD
:1049C0003068BCE78A4B1B78002B3FF499A98448D8
:1049D0000378002B40F0D282784F864E3B70864F92
:1049E0003B707E4F3B700123037003233370FFF74E
:1049F00087B998F80010C0B204F0EAFB5BE698F8BB
:104A00000010307804F0E4FBBBE73078FCF712FAD2
:104A1000B3E73368A3F10C007F2840F30682734AA2
:104A20008B3BA2FB0312D20802EB4202A3EB8203F0
:104A300003F1730098F80010C0B204F0C9FB9AF8B3
:104A40000030002B95D05E4F3B78002B91D0DFF8E3
:104A5000AC91DFF898B14FF0000A13E0ABFB021302
:104A6000DB0803EB4303A2EB830202F1730098F827
:104A70000010C0B204F0ACFB3B780AF1010A5345C8
:104A80007FF777AF326859F8043F1344A3F10C0065
:104A90007F28A3F18B02E1DC0028C3F10C03E6DAE6
:104AA000ABFB0312D20802EB4202A3EB8203C3F179
:104AB0000C00DCE77F21402004F04CFB414A404BD6
:104AC0003168116000221A704FE77F21422004F004
:104AD00041FB5BE700230370494B1B78002B3FF43D
:104AE000D2A8DFF814A19AF80000002800F0EF82A5
:104AF00000208AF80000FFF7C6B8384B1B78002B5F
:104B000040F05382364B1B78002B40F04982009BCB
:104B10001B88002B00F03F82284B1B78002B40F0B5
:104B20003582304B1B78002B40F08F82354B274A63
:104B3000216812880020186001232B6004E7324BA3
:104B400000931B88002B40F09982244B0293244B46
:104B500001931B4F3B78002B59D0284A0396DFF86E
:104B60008CB04FF00008164610E0ABFB0103DB08E9
:104B700003EB4303A1EB830101F17300C0B204F026
:104B800065FB3B7808F1010843453FDD99F80000DB
:104B900056F8043F18447F28A0F17F01E5DC002887
:104BA000C0F10001EADAABFB0103DB0803EB4303CE
:104BB000A1EB8301C1F10C00E0E700BFF99BFF1FEF
:104BC000388DFF1FF49BFF1F488EFF1F569AFF1F53
:104BD000909DFF1F909CFF1F709AFF1FFE9BFF1F61
:104BE000E69BFF1FF89BFF1F3999FF1FABAAAAAADC
:104BF000929BFF1FBF8DFF1F7C9BFF1F448EFF1FDB
:104C00001499FF1F509AFF1FB49BFF1F039E029B26
:104C10001B78002B3FF4CFA999F80030A3F10C00CA
:104C20007F2840F31B82B34A8B3BA2FB0312D208BE
:104C300002EB4202A3EB820303F17300C0B204F063
:104C400005FB9AF80030002B00F08280AA4F3B78D9
:104C5000002B00F06182A9490396DFF898B24FF06B
:104C600000080E4611E0ABFB0203DB0803EB430335
:104C7000A2EB830202F17300C0B204F0E7FA3B78C2
:104C800008F10108434540F3118256F8042F99F8C2
:104C900000301344A3F10C007F28A3F18B02E2DC67
:104CA0000028C3F10C03E7DAABFB0302D20802EBE6
:104CB0004202A3EB8203C3F10C00DDE70028BFF63C
:104CC00097A98C4A4042A2FB0012D20802EB420292
:104CD000A0EB8200C0F10C00FFF78AB90139FFF7A1
:104CE00076BA0121CBE4019B1B78029A1278134318
:104CF0007FF46BA9009B1B88FFF76CB98048007894
:104D000000283EF4EAAFFEF7D5BF7E4A0092128833
:104D1000002A3FF47EAF384604F098FA9AF8003043
:104D2000002B7FF416AF72E7774BDFF8E0C11978FC
:104D3000FFF74EBB41F6FF7077E4243B012BB7F839
:104D400000E0B8BF01239E457FF4ABABFFF740BB4B
:104D5000019B1B78002BC8D099F80000FBF714FFCB
:104D6000FFF72EB96A4B3078197804F031FAC9E5AB
:104D70003078FCF75FF8C0E53368A3F10C007F28BA
:104D800040F381815B4A8B3BA2FB0312D20802EB0A
:104D90004202A3EB820303F17300DFF87481C0B217
:104DA00098F8001004F014FA9AF80030002B3FF441
:104DB0009FAD514F3B78002B3FF49AAD4F4ACDF851
:104DC0000C900023B1469B46164614E0494BA3FBCA
:104DD0000C12D20802EB4202ACEB820C0CF1730015
:104DE00098F80010C0B204F0F3F93A780BF1010B17
:104DF0005A4540F35E8156F8041FD9F8002011444B
:104E0000A1F10C007F28A1F18B0CDFDC0028C1F19F
:104E10000C01E5DA374BA3FB0102D20802EB420298
:104E2000A1EB8201C1F10C00DAE70028BFF602AE67
:104E3000304AC3F10C03A2FB0312D20802EB420278
:104E4000A3EB8203C3F10C00F4E5DFF8C480C0B229
:104E500098F8001004F0BCF9FFF7CEB8243B012B02
:104E6000B8BF012395E42B4F387801F03DFA2A4B67
:104E70001B78002B5AD03B887E2B57D8274EDFF863
:104E8000A0903268D9F80010521A0F2A2CD9013399
:104E900099B2244B3980188800285ED0C9B2C0B2BC
:104EA00004F058F9204F98F800303268C9F8002013
:104EB0003B70FEF723BE7F21FFF7E1BB99F80000AE
:104EC00004F0C4F916E7134B144E19886A2004F055
:104ED000B5FB98F800303B70FEF710BE8B42A8BFC0
:104EE0000B46FFF708B80D4E0F4F98F800303B7097
:104EF000FEF704BEABAAAAAA388DFF1F448EFF1F7F
:104F00001199FF1FB49BFF1F919BFF1F259BFF1F44
:104F10001A9CFF1F2C9BFF1F1599FF1F709AFF1FE4
:104F2000489BFF1F2A9BFF1F219BFF1FB94B1B782C
:104F3000002BD8D039880029D5D0B74EDFF8DC92C5
:104F40003368D9F800209B1A0F2BCDD9B44B013907
:104F5000188889B239800028A0D1C8B204F0AEF90F
:104F6000A0E70123FFF702B84FF0000C87F800C05C
:104F7000FEF7AFBE00270770FEF797BE0023037051
:104F8000FEF7BEBE41F6FF70FEF7C6BF002140200F
:104F900004F0E0F8C5E599F8000004F057F9BBE526
:104FA00099F80000FBF7F0FDB1E599F80030A3F1A6
:104FB0000C007F2840F399809A4A8B3BA2FB031296
:104FC000D20802EB4202A3EB820303F17300C0B2EA
:104FD00004F03CF99AF80030002B3FF493AD924F67
:104FE0003B78002B3FF48EADDFF840A28D4E4FF0A2
:104FF000000811E0A6FB0213DB0803EB4303A2EB5E
:10500000830202F17300C0B204F020F93B7808F18A
:10501000010843457FF776AD5AF8042F99F8003020
:105020001344A3F10C007F28A3F18B02E2DC0028DB
:10503000C3F10C03E7DAA6FB0312D20802EB42022B
:10504000A3EB8203C3F10C00DDE70021422004F052
:1050500081F86BE504F0FAF8FEF7EDBE0028BFF624
:10506000EDAD704AC3F10C03A2FB0312D20802EBB0
:105070004202A3EB8203C3F10C00DFE56C4B029309
:105080006C4B019347E60028BFF687AE654AC3F133
:105090000C03A2FB0312D20802EB4202A3EB820331
:1050A000C3F10C0079E67F23FEF760BF039EFEF795
:1050B00082BF4E46DDF80C901AE49842A8BF18460D
:1050C0005D4B1860FFF73ABA0138FFF7AEBA594F97
:1050D0005A480197FEF7D0BD4FF47A43013BFDD10A
:1050E00099F8000004F0B2F816E40028BFF66FAF9C
:1050F0004C4AC3F10C03A2FB0312D20802EB42029A
:10510000A3EB8203C3F10C0061E701F04FF8FFF756
:1051100082B80138FEF700BF019B1B78002B3EF4DC
:1051200054AF19E6464B1B78002B7EF470AD059BFF
:10513000A3F12401434B81F3470119605B20C9B2FD
:1051400004F008F898F80030032B7EF45EADDFF829
:10515000F88098F80020002A40F0A8803B4F3B7868
:10516000002B40F09780364E3378002B40F086803D
:10517000374B1B78002B75D1364A1380254B1B7893
:1051800053BB354B7F221A803A7898F8003013438E
:10519000327813437EF439AD304A7F2107201380E3
:1051A00003F0D8FF7F210B2003F0D4FFFEF72DBDC5
:1051B000274A1278E2B1254A1278002A7EF427ADF8
:1051C0001F4A1278002A3EF422AD3A880A3A3A8001
:1051D000234A1370FEF71BBD1F4B00227F210720BF
:1051E0001A8003F0B7FF7F210B2003F0B3FFCBE75A
:1051F000164A1278002A7EF40AAD114A1278002A63
:105200003EF405AD3A88013A3A80154A1370FEF72C
:10521000FEBC00BF1499FF1F709AFF1F489BFF1F21
:105220002A9BFF1FABAAAAAA388DFF1F448EFF1F1F
:10523000FE9BFF1FE69BFF1F509AFF1FF99BFF1F5E
:105240001399FF1FBC9BFF1F1099FF1F1299FF1F8F
:105250001199FF1F249AFF1F189CFF1F269AFF1FFA
:105260009A9AFF1F1F4B01227F2107201A8003F00B
:1052700071FF7F210B2003F06DFF7FE71A4B0422A3
:105280007F2107201A8003F065FF00210B2003F027
:1052900061FF6DE7144B02227F2107201A8003F083
:1052A00059FF7F210B2003F055FF5CE70E4A0021D8
:1052B0000720138003F04EFF7F210B2003F04AFFED
:1052C0004CE70A4A1278002A7FF42CAF084A127879
:1052D000002A3EF49CAC3A8801323A80054A1370A9
:1052E000FEF795BC249AFF1F269AFF1F1299FF1FF5
:1052F0001399FF1F9A9AFF1F10B509F019FA0D486C
:1053000006F0F8FA0C4806F0F5FA0C4806F0F2FA46
:105310004FF07E52012100230948FBF79DF8094810
:10532000094A0A498023002403710460BDE8104043
:105330000CF092BA0C9CFF1F089CFF1F049CFF1FDF
:10534000309AFF1F809AFF1F348DFF1FA9050000B0
:1053500010B50446A4206368198804F06FF9E36867
:10536000A620BDE81040198804F068B903462A2039
:105370005B68198804F062B910B50446222063689E
:10538000198804F05BF9E3682420BDE8104019880F
:1053900004F054B910B504460A206368198804F073
:1053A0004DF9E3680C20BDE81040198804F046B9B7
:1053B00010B5044606206368198804F03FF9E368D5
:1053C0000820BDE81040198804F038B910B504462B
:1053D00002206368198804F031F9E3680420BDE80D
:1053E0001040198804F02AB970B50E4D84B0122609
:1053F00004220123CDE900260446039002932846A7
:105400001423102108F0B8F9062209230293CDE9EC
:105410000026039414231021284608F0ADF904B0A7
:1054200070BD00BF989CFF1F2DE9F041A14DB5F95B
:105430000030032B0CD083B3022B4ED0052B79D038
:10544000012B00F0A480042B00F0C680BDE8F081A1
:1054500010200AF02BFFC830B0F57A6FA8BF4FF4C8
:105460007A60B0F5FA7FB8BF4FF4FA7000F51673A2
:10547000B3F57A6F904A914C81B2A8BF4FF47A632A
:1054800022201180238004F0D9F82188242004F000
:10549000D5F8B5F90030002BCED10E2009F0B8F8C0
:1054A00040F6FF73C8309842A8BF184620EAE07063
:1054B00081B200F2DC509842814CA8BF1846814B63
:1054C00020800220198004F0B9F82188042004F01B
:1054D000B5F8B5F90030022BB0D101200AF0E6FE94
:1054E000044600200AF0E2FE8442B8BF044604F1FC
:1054F000C800B0F57A6FA8BF4FF47A60B0F5FA7FB4
:10550000B8BF4FF4FA7000F54873B3F57A6F6E4A7E
:105510006E4CA8BF4FF47A6381B20A2011802380B9
:1055200004F08CF821880C2004F088F8B5F90030DC
:10553000052B85D10F200AF0B9FEC0F53F6104317B
:10554000B1F5FA6FA8BF4FF4FA61C0F54363B1F546
:10555000AF6FB8BF4FF4AF61B3F5FA6FA8BF4FF4A8
:10556000FA63B3F5AF6F5A4A5A4CB8BF4FF4AF6302
:1055700089B2A4201180238004F060F82188A6203D
:1055800004F05CF8B5F90030012B7FF45CAF152016
:1055900009F03EF841F25C2300F548709842A8BF3C
:1055A0001846B0F52F7FB8BF4FF42F7081B200F5C9
:1055B00096609842484CA8BF1846484B2080062069
:1055C000198004F03BF82188082004F037F8B5F979
:1055D0000030042B7FF43AAFDFF80481414E424D96
:1055E00000274FF4AF74F9B2304606F087F958F847
:1055F000043BC3F5967303FB00F085FB0023C01743
:10560000C0EB6310844207F10107A8BF0446062FD0
:10561000E9D1DFF8D880364E334D0027F9B2304655
:1056200006F06CF958F8043BC3F5967303FB00F0E1
:1056300085FB0023C017C0EB6310844207F101070C
:10564000A8BF04460C2FE9D1DFF8A8802A4E264DCA
:105650000027F9B2304606F051F958F8043BC3F57B
:10566000967303FB00F085FB0023C017C0EB6310AB
:10567000844207F10107A8BF04460C2FE9D1143C6E
:10568000322CB8BF322440F23A72A4F5AF7302FB59
:1056900003F3963B85FB03251848194ADB17A1B293
:1056A000A3EB651332330180BDE8F0412A2013607B
:1056B00003F0C4BF449CFF1FAC9AFF1FAA9AFF1FB0
:1056C000549AFF1F569AFF1F989BFF1F969BFF1F20
:1056D0003C9BFF1F329BFF1FA89BFF1FAA9BFF1F26
:1056E0009C8DFF1F0C9CFF1FB5814E1B6C8DFF1FF7
:1056F000089CFF1F3C8DFF1F049CFF1F6E9AFF1F1D
:10570000708EFF1F2DE9F041214D82B0012602B2BB
:1057100084B2CDE9002628467823192107F094FEAB
:1057200004F10C0212B2CDE90026284604EB06086B
:1057300078231921A71C07F087FE0FFA88F83FB2DB
:1057400019230097194642462846019607F07CFE29
:1057500078234246009719462846019604F10A0725
:105760000B3407F071FE3FB224B2782319463A4653
:105770002846CDE9004607F067FE1923CDE900462B
:105780003A461946284607F05FFE02B0BDE8F081B0
:10579000989CFF1FF0B5164E164FB6F900308342A5
:1057A00083B00D4603D1B7F900308B421DD00023E2
:1057B000009304B25B23104826221C2107F042F814
:1057C00001230D482622214606F0D6FE6B1C04D18B
:1057D000012034803D8003B0F0BD2DB20648012386
:1057E0002622294606F0C8FEF2E7002003B0F0BDED
:1057F000808EFF1F828EFF1F989CFF1F2DE9F043B4
:10580000C64D2B7883B01BB1C54B4FF6FF721A8083
:10581000C44BB3F900303BB1013B042B1AD8DFE88D
:1058200003F04972A6C62600BF4BC0481B685A2227
:1058300083F30C0302FB03F303F2FF73A0FB0320CB
:105840001B1A00EB5300C00A4FF0FF311C30FFF76A
:10585000A1FF20B900232B7003B0BDE8F083B4484A
:1058600007F048FC00232B7003B0BDE8F0830F2045
:105870000AF01CFDC0F53B600830B0F5FA6FA8BF18
:105880004FF4FA60B0F5AF6FB8BF4FF4AF605A2372
:10589000A0F5AF6003FB00F0A64B00F59670A3FBEC
:1058A000003080094FF0FF311C30FFF773FF0028F4
:1058B000D0D0D4E7A04B1B78002B00F02A81152014
:1058C00008F0A6FE024641F25C239342A8BF1346AD
:1058D000B3F52F7FB8BF4FF42F735A21A3F52F7361
:1058E00001FB03F39549964C03F5FA63A1FB0313FF
:1058F0001B0A4FF0FF3103F11C002260FFF74AFF43
:105900000028A7D0ABE78F4B8F4A1B681268B3F50E
:105910007A6FA8BF4FF47A63B2F57A6FA8BF4FF4DD
:105920007A62B3F5FA7FB8BF4FF4FA73B2F5FA7F33
:10593000B8BF4FF4FA72A3F5FA70A2F5FA715A23C0
:1059400003FB00F003FB01F1804B01F2D66100F292
:10595000D660A3FB0121A3FB0030C90AC00A1C3199
:105960001C30FFF717FF00283FF474AF77E7784B40
:10597000764A1B68B3F57A6FA8BF4FF47A63B3F524
:10598000FA7FB8BF4FF4FA735A21A3F5FA7001FBFE
:1059900000F000F2D660A2FB0020C00A4FF0FF31F9
:1059A0001C30FFF7F7FE00283FF454AF57E72522DD
:1059B0000024CDE900245E48664E674FDFF89C91D5
:1059C000DFF8708176231C2107F03EFD18E0484582
:1059D00026DC88FB0023C117C1EB631132395A233F
:1059E00003FB01F19631A8FB013149091C3109B2D1
:1059F00001231C444E48252206F0BEFD0C2C11D07C
:105A0000E1B2384605F07AFF56F8043BC3F59673C9
:105A100043F6972203FB00F09042D8DC1C21E7E715
:105A20007621E5E726220024CDE9002440484C4EAB
:105A30004C4FDFF82891DFF8FC8076231C2107F01B
:105A400003FD18E0484526DC88FB0023C117C1EBA5
:105A5000631132395A2303FB01F19631A8FB01315E
:105A600049091C3109B201231C443148262206F0A1
:105A700083FD0C2C11D0E1B2384605F03FFF56F8FB
:105A8000043BC3F5967343F6972203FB00F0904264
:105A9000D8DC1C21E7E77621E5E727220024CDE9C1
:105AA00000242348304E314FDFF8B090DFF8848077
:105AB00076231C2107F0C8FC17E088FB0023C117E0
:105AC000C1EB631132395A2303FB01F19631A8FB74
:105AD000013149091C3109B215480134012327223B
