:1000000000800020BD01000075D9000031D900003A
:1000100031D9000031D9000031D9000031D90000B8
:1000200031D9000031D9000031D9000075D9000064
:1000300075D9000031D90000E9020100ED0201008C
:1000400075D9000075D9000075D9000075D9000078
:1000500075D9000075D9000075D9000075D9000068
:1000600075D9000075D9000075D9000075D9000058
:1000700075D9000075D9000075D9000075D9000048
:1000800075D9000075D9000075D9000075D9000038
:1000900075D9000075D9000075D9000075D9000028
:1000A000B1AE0000BDAE000075D9000075D90000EA
:1000B00075D9000075D9000075D9000075D9000008
:1000C00075D9000075D9000075D9000075D90000F8
:1000D00075D9000075D9000075D9000075D90000E8
:1000E00075D9000075D9000075D9000075D90000D8
:1000F00075D9000075D9000075D90000D5E8000059
:1001000075D900001DF0000075D9000075D90000F8
:1001100075D9000075D9000075D9000075D90000A7
:1001200075D9000075D9000075D9000075D9000097
:1001300075D9000075D9000075D9000075D9000087
:1001400075D9000075D9000075D9000075D9000077
:1001500085070100A1070100BD070100D9070100C3
:1001600075D9000091F3000075D9000075D9000021
:1001700075D9000075D9000075D9000075D9000047
:1001800075D9000075D9000075D9000075D9000037
:1001900075D9000075D9000075D9000075D9000027
:1001A00075D9000075D9000075D9000075D9000017
:1001B00075D9000075D9000075D90000574B4CF275
:1001C000205210B5DA814DF62812DA8100BF00BF47
:1001D0000DF0D4FB524B4FF010621A63514A9A63F0
:1001E000514ADA63514A136913F4807303D153619E
:1001F0004FF4A85313614E4B9A78110703D59A78A0
:1002000042F008029A704B4B4B482A221A704B4B13
:10021000DA1C121AC11E22F00302994288BF002282
:1002200047490DF0B7F8474B4748DA1C121AC11E70
:1002300022F00302994288BF0022002111F05CFEE7
:10024000424943484FF4DE720DF0A4F8414B424A54
:10025000802103F8011B9342FBD14FF0E0233C4A7D
:10026000C3F8082D3D4B8A221A70A3F5805324222F
:100270005A70A0221A709A799207FCD59A79D406FE
:10028000FCD4374B9A7902F00C02082AFAD10322E7
:100290001A7140225A719A799006FCD5304A9379A6
:1002A0005906FCD51E4B2F4959640221996420211F
:1002B0001170917901F00C010C29FAD12A4A5A6087
:1002C0004FF0E023294A5A6100229A6107221A61FD
:1002D000274AC3F8202D62B60DF07AFC134B5B69F8
:1002E000DA0705D523480DF067FC234B234ADA6172
:1002F000234B1B785B0609D51F4C204BE2699A42C1
:1003000004D11C480DF058FC0023E3610DF03CFBC8
:1003100011F0D4FE10F0FAFAFEE700BF002005400D
:1003200000800440823F04000100002B00D0034005
:1003300000D0074000E00740308CFF1F3898FF1FB7
:100340009459010068A3FF1F3898FF1F00000000A8
:100350000082FF1F00E400E05FE400E00050064080
:100360000040064000000301C0100500FF760100B8
:1003700000002020C683F06600E00340A5C3945A25
:1003800000F00740FFFFFFFFFFFFFFFFFFFFFFFF42
:10039000FFFFFFFFFFFFFFFFFFFFFFFFFFFFFFFF6D
:1003A000FFFFFFFFFFFFFFFFFFFFFFFFFFFFFFFF5D
:1003B000FFFFFFFFFFFFFFFFFFFFFFFFFFFFFFFF4D
:1003C000FFFFFFFFFFFFFFFFFFFFFFFFFFFFFFFF3D
:1003D000FFFFFFFFFFFFFFFFFFFFFFFFFFFFFFFF2D
:1003E000FFFFFFFFFFFFFFFFFFFFFFFFFFFFFFFF1D
:1003F000FFFFFFFFFFFFFFFFFFFFFFFFFFFFFFFF0D
:10040000FFFFFFFFFFFFFFFFFFFFFFFFDEF9FFFF23
:100410000548064B1B1AD90F01EBA301491002D066
:10042000034B03B1184770473898FF1F3898FF1FD8
:100430000000000008B5054B1BB105490548AFF3A6
:100440000080BDE80840FFF7E3BF00BF00000000E8
:100450003898FF1F8C59010038B5044608462070B3
:100460000A4910461D4610F0F5FD01464FF07E503A
:1004700010F0A4FE064910F0EDFDE5606060256116
:1004800065610DF0F1FDE061204638BDDB0FC9402C
:100490000024744938B50446084620700A491046BD
:1004A0001D4610F0D7FD01464FF07E5010F086FE3D
:1004B000064910F0CFFDE5606060256165610DF0D3
:1004C000D3FDE06138BD00BFDB0FC9400024744993
:1004D000037810B50446032B21D8DFE803F0191E7A
:1004E0001102C168406910F0ABFC0E490346606818
:1004F0001C4610F063FE0146204610F05FFE10BD62
:100500000849406810F05AFEE16810F0A3FD10BDE4
:10051000C168406910F094FC10BDC06810BD002097
:1005200010BD00BF00247449F8B504460E460DF016
:100530009BFDE3690546C01A10F038FDE768A0612D
:100540000146E56160686661276110F037FE01468B
:10055000A0600E4810F032FE10F0F0FA0546014699
:100560004FF07E5010F06CFC314610F073FD2946C0
:100570000646384610F06EFD0146304610F062FC2B
:10058000E0602046BDE8F840FFF7A2BF000080BF52
:10059000036818470B680360704700BF0B6803606F
:1005A000704700BF704700BF10B5044610F09EF8BA
:1005B000204610BDF8B5044606981D460F46561A4B
:1005C00010F00EFF401BF6B1A4EB070C002800FB57
:1005D0000CFC06EBD6730ADB0CEB630C0CFB06F38E
:1005E000002B9CFBF6FC0CEB050011DBF8BDACEB23
:1005F000630C0CFB06F3002B9CFBF6FC0CEB0500DC
:10060000F4DB0130F8BD00EBD07005EB6000F8BD05
:100610000138F8BDBDF800C0521AACEB030C1CD079
:10062000401ABCF1000F0CFB00F002EBD27109DBA9
:1006300000EB610000FB02F1002990FBF2F018448E
:1006400010DB7047A0EB610000FB02F1002990FB7A
:10065000F2F01844F5DB013070470CEBDC7C03EB67
:100660006C00704701387047DDF800C0521AACEBDF
:10067000030C1CD0401ABCF1000F0CFB00F002EB85
:10068000D27109DB00EB610000FB02F1002990FB55
:10069000F2F0184410DB7047A0EB610000FB02F1A0
:1006A000002990FBF2F01844F5DB013070470CEBA9
:1006B000DC7C03EB6C0070470138704708B50E20F6
:1006C0000DF030F81B4B1B88012B2BD01A4B1A88CE
:1006D00082421ADC40F6FF739842A8BF1846C2F562
:1006E0007F630F33BBB1811AC1EB013103EBD372CE
:1006F00001EB620101FB03F2002A91FBF3F117DB2E
:10070000BDE8084028200DF0B5BAC2F57F630F336D
:100710001046002BE7D1BDE8084040F2FF712820C9
:100720000DF0A8BA0146BDE8084014200DF0A2BAA9
:100730000139E5E7BC99FF1F8699FF1F38B50B8883
:10074000182B0D46044607D1294B1B7805EB4305B2
:100750006B88182B14D138BD0344A3F118007F28EF
:1007600023DD244A973BA2FB0312D20802EB42028C
:10077000A3EB820303F17300C0B208F06BF8E3E768
:100780001C44A4F118007F281EDD1A4B973CA3FBE4
:100790000423DB0803EB4303A4EB830404F173009D
:1007A000BDE83840C0B208F055B80028E4DA114A74
:1007B000C3F11803A2FB0312D20802EB4202A3EB1F
:1007C0008203C3F10C00D7E70028E9DA094BC4F132
:1007D0001804A3FB0423DB0803EB4303A4EB83040B
:1007E000C4F10C00C0B2BDE8384008F033B800BF17
:1007F0005F8DFF1FABAAAAAA38B50C46054634F890
:10080000023B182B1DD134480378013303F0030257
:100810000270134634F81220182A28D14FF0040C25
:10082000591C032BCAB215BF1346224604EB4202E1
:10083000002303701288182A19D1BCF1010CEFD1E2
:1008400038BD0344A3F118007F2827DD234A973BD6
:10085000A2FB0312D20802EB4202A3EB820303F1D4
:1008600073001F4BC0B2197807F0B6FFCBE71544F1
:10087000A5F118007F2820DD184B973DA3FB052329
:10088000DB0803EB4303A5EB830505F17300144B71
:10089000C0B21978BDE8384007F09EBF0028E0DA02
:1008A0000E4AC3F11803A2FB0312D20802EB420264
:1008B000A3EB8203C3F10C00D3E70028E7DA074B70
:1008C000C5F11805A3FB0523DB0803EB4303A5EBE8
:1008D0008305C5F10C00DAE75F8DFF1FABAAAAAA5A
:1008E000169BFF1F38B50F200EF058FC214B2249F4
:1008F0001B880860C0F53B6208329A4218DB1F492A
:100900000988C81A22D08A42D4BFC3EB0203C3EBC2
:100910000103C3EBC31300EBD07203EB620404FBCF
:1009200000F3002B94FBF0F4B8BF04F1FF3474B96A
:10093000134C237803B938BD124B0021187807F007
:100940000DFF0023104A2370136038BD3F240C4B69
:100950001A780AB901221A700B4D2B68A34201D1F3
:100960002C6038BD074BE1B2187807F0F7FE2C6019
:10097000F7E700BF5C9AFF1F549AFF1F509AFF1FB2
:100980004E9AFF1F4A9AFF1F889AFF1F38B5254BC2
:100990001B782BB315200CF0C5FE234B234A1B8874
:1009A0001060834218DC224A1288D11A26D0824273
:1009B000D4BFC3EB0203C3EB0003C3EBC31301EBD0
:1009C000D17203EB620404FB01F3002B94FBF1F4FE
:1009D000B8BF04F1FF3494B9164C237823B938BD5D
:1009E00011200EF0DBFBD8E7134B0021187807F03D
:1009F000B5FE0023114A2370136038BD3F240D4B10
:100A00001A780AB901221A700C4D2B68A34201D141
:100A10002C6038BD084BE1B2187807F09FFE2C60BF
:100A2000F7E700BF4599FF1FBC9AFF1F4899FF1FBA
:100A3000BA9AFF1F4499FF1F4099FF1F709AFF1F2A
:100A4000F8B5724B724C1B88C31A054684FB03042D
:100A5000D817C0EB640000EB4000A3EB800303EB6E
:100A60004303980001EB830408582844AAB17F2867
:100A70005CDD684B7F38A3FB0023DB0803EB4303FB
:100A8000A0EB83007330644F644E3978C0B207F036
:100A9000A3FE3388022B57D8F8BD7F2838DD5D4B85
:100AA0007F38A3FB0023DB0803EB4303A0EB8300A9
:100AB00073305A4EC0B207F0CDFE3388022BEBD90B
:100AC000606828447F2840F39280524B7F38A3FB14
:100AD0000023DB0803EB4303A0EB83007330C0B2B9
:100AE00007F0B8FE3388032BD6D9A06828447F28A6
:100AF0006FDD484B7F38A3FB0023DB0803EB430388
:100B0000A0EB83007330BDE8F840C0B207F0A2BE8E
:100B10000028CEDA3F4B4042A3FB0023DB0803EB67
:100B20004303A0EB8300C0F10C00C2E70028AADA5F
:100B3000384B4042A3FB0023DB0803EB4303A0EB4D
:100B40008300C0F10C009EE7606828447F2832DDF6
:100B5000304B7F38A3FB0023DB0803EB4303A0EB00
:100B6000830073303978C0B207F036FE3388032B28
:100B700092D9A06828447F280FDD264B7F38A3FB3D
:100B80000023DB0803EB4303A0EB830073303978C9
:100B9000C0B2BDE8F84007F01FBE0028F7DA1D4BD1
:100BA0004042A3FB0023DB0803EB4303A0EB8300DD
:100BB000C0F10C00EBE70028D4DA164B4042A3FB4F
:100BC0000023DB0803EB4303A0EB8300C0F10C0020
:100BD000C8E7002897DA0F4B4042A3FB0023DB084D
:100BE00003EB4303A0EB8300C0F10C008BE700286C
:100BF000BFF675AF074B4042A3FB0023DB0803EBB6
:100C00004303A0EB8300C0F10C0068E7249AFF1FA8
:100C1000ABAAAA2AABAAAAAA169BFF1F269AFF1F55
:100C200008B51A4B1B7833B315200CF07BFD184B1D
:100C3000184A1B781060DBB1174B1B8883421EDCFF
:100C4000164A1288D11A1ED08242D4BFC3EB0203C7
:100C5000C3EB0003A3EB830301EBD172A3EB6203AD
:100C600003FB01F2002A93FBF1F3B4BF0433053315
:100C70000B4A136008BD11200EF090FAD7E7084A1E
:100C80000023136008BD0323F2E700BF4599FF1F4F
:100C9000049AFF1F4899FF1FBC9AFF1FBA9AFF1FB3
:100CA000089AFF1F2DE9F843964B1B88013B044629
:100CB000092B3CD8DFE803F00A10161C22282E3D31
:100CC0004205BDE8F8439049FFF796BDBDE8F843FB
:100CD0008E490122FFF7B4BEBDE8F8438C490122DA
:100CE000FFF7AEBEBDE8F8438A490122FFF7A8BE70
:100CF000BDE8F84388490122FFF7A2BEBDE8F843EA
:100D000086490122FFF79CBEBDE8F84384490122D1
:100D1000FFF796BE834A844B12881988551891B103
:100D2000824B1B8803339A420DDC022D48DCBDE860
:100D3000F883BDE8F8437E49FFF75EBDBDE8F843A0
:100D40007C49FFF759BD7C4B7C4F1B887C4EE31AD6
:100D500087FB03277B4AD8171288C0EB670000EB9C
:100D60004000A3EB800302EBC202120103EB43033A
:100D700002EB8303A1EB8101F058204400EB8100DA
:100D80007F2812DC00280ADA6F4B4042A3FB0023C5
:100D9000DB0803EB4303A0EB8300C0F10C006B4BBB
:100DA000C0B2197807F018FDBFE7674B7F38A3FB87
:100DB0000023DB0803EB4303A0EB83007330EEE773
:100DC000DFF874915D49B9F80030DFF878815C4E46
:100DD000E31A81FB0321DA17C2EB610202EB420244
:100DE000A3EB820303EB4302B8F8003003EBC30329
:100DF0001B0103EB82033344586820447F2856DDEF
:100E0000514B7F38A3FB0023DB0803EB4303A0EB2C
:100E1000830073304D4FC0B2397807F0DDFC032DED
:100E200085D0B9F800304548B8F80020E31A80FBB7
:100E30000310D917C1EB600101EB410102EBC202C3
:100E4000A3EB8103120103EB430302EB83031E4474
:100E5000B06820447F2838DD3B4B7F38A3FB00235C
:100E6000DB0803EB4303A0EB830073303978C0B297
:100E700007F0B2FC042D3FF45AAF2C4B1B88012B1A
:100E80007FF455AFA4F10C037F2B2CDD2E4AA4F187
:100E90008B03A2FB0312D20802EB4202A3EB8203F4
:100EA00073333978D8B2BDE8F84307F095BC002811
:100EB000B0DA254B4042A3FB0023DB0803EB4303DE
:100EC000A0EB8300C0F10C00A4E70028CEDA1E4B93
:100ED0004042A3FB0023DB0803EB4303A0EB8300AA
:100EE000C0F10C00C2E7002BDBDA174AC4F10C0397
:100EF000A2FB0312D20802EB4202A3EB8203C3F16E
:100F00000C03CEE7B49AFF1FEC9AFF1FE026010006
:100F100050260100A825010000300100702F0100BB
:100F200090300100269AFF1FF299FF1FF499FF1FCE
:100F3000D49AFF1FE09AFF1F249AFF1FABAAAA2A88
:100F4000082D0100F699FF1FABAAAAAA169BFF1F46
:100F50002DE9F843974B1B88013B0446092B3CD8ED
:100F6000DFE803F00A10161C22282E3D4205BDE8DA
:100F7000F8439149FFF7E2BBBDE8F8438F490022EF
:100F8000FFF75EBDBDE8F8438D490022FFF758BD6D
:100F9000BDE8F8438B490022FFF752BDBDE8F84396
:100FA00089490022FFF74CBDBDE8F843874900227C
:100FB000FFF746BDBDE8F84385490022FFF740BD75
:100FC000844D854E2B88A3B184493288098803312A
:100FD0008A420EDC1344022B48DCBDE8F883BDE8EE
:100FE000F8437F49FFF7AABBBDE8F8437D49FFF707
:100FF000A5BB7D4A7D4912887D4FA21A81FB021C48
:101000007C49D0170988C0EB6C0000EB4000A2EBD4
:10101000800201EBC101090102EB420201EB8202F5
:10102000A3EB8303B858204400EB83007F2812DC35
:1010300000280ADA704B4042A3FB0023DB0803EBD5
:101040004303A0EB8300C0F10C00C0B207F002FC28
:1010500032882B88BEE7684B7F38A3FB0023DB0870
:1010600003EB4303A0EB83007330EEE7DFF87891E6
:101070005E49B9F80030DFF87C815D4FE31A81FBEF
:101080000321DA17C2EB610202EB4202A3EB8203F7
:1010900003EB4302B8F8003003EBC3031B0103EB7F
:1010A00082033B44586820447F2858DD524B7F38E8
:1010B000A3FB0023DB0803EB4303A0EB83007330A7
:1010C000C0B207F0C7FB33882A881344032B84DDA2
:1010D000B9F800304548B8F80020E31A80FB031047
:1010E000D917C1EB600101EB410102EBC202A3EB96
:1010F0008103120103EB430302EB83031F44B8682F
:1011000020447F2839DD3C4B7F38A3FB0023DB08DC
:1011100003EB4303A0EB83007330C0B207F09AFBEC
:1011200033882A881344042B7FF757AF2B4B1B8837
:10113000012B7FF452AFA4F10C037F2B2BDD2E4A41
:10114000A4F18B03A2FB0312D20802EB4202A3EB31
:1011500082037333D8B2BDE8F84307F07BBB0028A5
:10116000AEDA254B4042A3FB0023DB0803EB43032D
:10117000A0EB8300C0F10C00A2E70028CDDA1E4BE3
:101180004042A3FB0023DB0803EB4303A0EB8300F7
:10119000C0F10C00C1E7002BDCDA174AC4F10C03E4
:1011A000A2FB0312D20802EB4202A3EB8203C3F1BB
:1011B0000C03CFE7B49AFF1FEC9AFF1FE026010053
:1011C00050260100A825010000300100702F010009
:1011D00090300100F299FF1F269AFF1FF499FF1F1C
:1011E000D49AFF1FE09AFF1F249AFF1FABAAAA2AD6
:1011F000082D0100F699FF1FABAAAAAA10B50C880A
:1012000084422DD203F10043013B31F81340844264
:1012100023D9B1F802C0844538BF012324D2013359
:10122000DBB29E4631F813C060454FEA4304F6D85E
:10123000604517D00EF1004E0EF1FF3E135B31F802
:101240001E1032F81E20401A9B1A03FB00F0ACEB74
:10125000010C90FBFCF0104410BD32F8130010BDDF
:10126000108810BD105B10BD02244FF0010EDFE7A7
:10127000204B1B880C2B30D81F4982B230B551F857
:10128000235042B343F6FE739A4227D8B2F5806FDB
:1012900029D31A4C01230133DBB2194634F813E089
:1012A00072454FEA430CF6D8724519D001F100415E
:1012B0000139124B35F8114033F8113035F80C2054
:1012C00080B2C01A121B00FB02F2AEEB030392FBCA
:1012D000F3F3181930BD288830BD7047288C30BD15
:1012E00035F80C0030BD40F2FF3E4FF0020C0121FA
:1012F000DAE700BFA499FF1F44310100203101004B
:101300002DE9F043554B83B018680FF04FFE544B56
:10131000044618880FF046FE014620460FF09AFE5C
:1013200050490FF04BFF10F05BF84F4B1B8803B197
:1013300040424E4B4E491B680D884E4A9D421688CE
:1013400040F386802B46184485424B4B53DCB04219
:10135000A8BF304685421860C8BF2C464DDD731BC0
:1013600051D0601B03EBD372C0EB803000EB620006
:1013700000FB03F2002A90FBF3F06DDBFFF778FF30
:101380003E4B1F883E4BC0F3C61909FB07F71B886D
:101390007F2F8046A8BF7F273BB1009332460023B2
:1013A00029462046FFF736F90346364A364C136085
:1013B00023684B4509D0354B1B88002B3ED1344B5D
:1013C0001B88002B36D1C4F80090324C236843456B
:1013D00006D02E4B1B885A1F032A22D9C4F800803E
:1013E0002D4C23689F4203D02C4B188870B927607E
:1013F00003B0BDE8F08328461D60B042A8BF304668
:10140000731B0446ADD141F6FF70B7E71F4B244A6A
:101410001B88D35C8342EAD0F9B2C0B207F09EF9D0
:10142000E5E71F4AD05C203008F07F01C0B207F02A
:1014300095F9D3E7484607F045FAC4E7184A494604
:10144000D05C07F08BF9124B1B88002BBBD0F1E767
:10145000B342A8BF334676E701388FE7209BFF1FD2
:10146000D48DFF1F0000F041189BFF1FC09AFF1F83
:101470008699FF1F8499FF1F8099FF1F5A99FF1FAC
:101480004E99FF1F5099FF1F749AFF1F5699FF1F17
:101490005499FF1F7C9AFF1F789AFF1F5899FF1FCE
:1014A000548DFF1F2DE9F04F17208BB00DF076FE05
:1014B000AD4A0346162013600DF070FEAB4BAC4AEC
:1014C0001B8810600C2B43D0AA4A00211F2B1170DF
:1014D00045D1A94BDFF8A4B21B78DFF8A482A94A52
:1014E000003B18BF012388F80030BBF8003052F8E9
:1014F0002350A54BA54A1B881288A549013B012A08
:1015000031F913A000F0E081A24B0293A24B0693A5
:10151000A24FA34B03930026A24B1B88012B00F084
:101520001982A14BA14A1C680793D7F800A0A04BD1
:10153000049205934FF000099E4B1B88013B032B3F
:1015400000F23E83DFE813F05801EB00C7001800FB
:10155000894B1B78002B40F09E81864A1370DFF880
:101560001CB2DFF81C82BBF80020002388F8003092
:10157000844B53F82250BCE720460FF017FD8E49EC
:101580000FF068FD044648460FF010FD8B490FF040
:1015900061FD014620460FF055FC0FF021FF079B2F
:1015A000069F1860044638680FF000FD82490FF06E
:1015B00051FD034630461E460FF0F8FC7F490FF000
:1015C00049FD014630460FF03DFC0FF009FF386041
:1015D000654B7B4E19687B4B36881A887A4B7B4F5C
:1015E0001B88DDF810E03F88A4EB020C2244059C28
:1015F000CEF800C02260029CC21A2260039A034403
:101600008E42136000F345818F423846A8BF0846DA
:10161000574B1B689E4200F33A819F423C46A8BF4D
:101620001C468E42C0F217819E42C0F21481684E61
:1016300030680FF0BBFC60490FF00CFD65490FF0FE
:1016400001FC0FF0CDFEA0F5FF531C3B082B3060D2
:1016500001D84FF4005043F6FF778244BA45504614
:10166000A8BF384620EAE07030600FF09FFC0346C8
:1016700098F8000005FB00F01D460FF097FC4FF0B6
:101680007A510FF0E7FC014628460FF0D9FB0FF026
:10169000A7FE514B514D1B78B842A8BF384620EAEF
:1016A000E0702860002B00F0CB80BAF5005F00F0FE
:1016B000C78004F049F94A4B286801221A70494C46
:1016C0002368834204D080B207F02EF92B68236090
:1016D0000BB0BDE8F08F20460FF068FC42490FF0D8
:1016E000B9FC044648460FF061FC40490FF0B2FCDB
:1016F000014620460FF0A6FB0FF072FE079B069FE7
:101700001860044638680FF051FC37490FF0A2FC0E
:10171000034630461E460FF049FC34494FE7204649
:101720000FF044FC32490FF095FC044648460FF098
:101730003DFC30490FF08EFC014620460FF082FB45
:101740000FF04EFE079B069F1860044638680FF0A6
:101750002DFC27490FF07EFC034630461E460FF055
:1017600025FC24492BE700BFA09AFF1FA89AFF1F62
:101770009C9AFF1F199AFF1FA69AFF1F5A98FF1FD6
:10178000C79AFF1F6C8DFF1FD88DFF1F4299FF1F47
:1017900038260100289BFF1F389BFF1F209BFF1F3F
:1017A0002C9BFF1F4C9AFF1F349BFF1F249BFF1F86
:1017B000309BFF1FD68DFF1F9A99193FCDCCCC3E91
:1017C000AC9AFF1FDC8DFF1FDE8DFF1FAA9AFF1F43
:1017D000A48DFF1FCDCC4C45FC9BFF1FA08DFF1F90
:1017E0001E9BFF1F688DFF1FCDCC4C3FCDCC4C3EC8
:1017F0006666663FCDCCCC3D20460FF0D7FBB549A1
:101800000FF028FC044648460FF0D0FBB2490FF019
:1018100021FC014620460FF015FB0FF0E1FD079B70
:10182000069F1860044638680FF0C0FBA9490FF006
:1018300011FC034630461E460FF0B8FBA649BEE633
:10184000A64C2378002B3FF43AAF04F079F800233C
:101850002868237033E7BBF80030002B3FF4E7AE75
:1018600000233A4631460095FEF7FEFE0095844679
:101870003A46204631466446FEF7F6FE231A002B10
:10188000B8BF5B42092B00F39F80954EE1E63446DA
:10189000C7E63046BCE6DFF84CB2934ABBF800100E
:1018A000924B52F82100DFF8488201221A7000237F
:1018B00088F800300FF07AFB4FF07C510FF0CAFB34
:1018C0000FF08EFD054614E68A4B8B4A1B888B4928
:1018D0001278013B31F91340002A40F08D8011202D
:1018E0000DF05CFC864B02931F680646B74240F33E
:1018F0008D80844B844A1B880692012B834BB3F85E
:10190000009013682846A3EB040400F013810FF045
:101910004DFB7F4B53F829100FF09CFB0146002034
:101920000FF08EFAA642009039463046794FB8BF84
:10193000204600232246FEF73DFE3B681844764BC6
:101940000393764B1B8800EBD0704010012B38605E
:101950007FF4E7AD724C04940F200DF01FFC226859
:10196000824281467EDD674B08921B88012B00F086
:101970000981664B6B4A19881468059128460792BD
:101980000FF014FB624B059953F821100FF062FB26
:1019900001460020A4EB0A0A0FF052FA089A0090C0
:1019A000D145114648465246B8BF50460023FEF77F
:1019B00001FE3B68184400EBD0705B4B05934FEA87
:1019C000600AC7F800A0B7E504F500540134201AF6
:1019D0000FF0ECFA5549424E0FF03CFB04463068DC
:1019E0000FF0E4FA52490FF035FB014620460FF0A4
:1019F00029FA0FF0F5FC2EE615200BF093FE404B74
:101A000002931F680646B7423FF773AF424B0393FA
:101A10001F68B74254DA3B4B3B4A1B880692012BA6
:101A20003A4BB3F80090136828461C4400F0BC8081
:101A30000FF0BCFA364B53F829100FF00BFBA642FF
:101A4000009039463046334F4FF00003A8BF204680
:101A50002246FEF7AFFD3B68184400EBD070401003
:101A6000386059E5304B05931A6882426ADA254B93
:101A700009921B88012B70D0244B2A4A19881468BC
:101A80000891284607920FF091FA214B089953F8D4
:101A90002110A2440FF0DEFA099A0090D1451146B8
:101AA00048465246A8BF50460023FEF783FD3B68D8
:101AB000184400EBD0704FEA600AC7F800A03BE57D
:101AC000144F114B06933B6803EBD3735B103B60E1
:101AD00022E500BF3333733FCDCC4C3D1E9BFF1F2F
:101AE000A48DFF1F5A98FF1F6C8DFF1F199AFF1FAF
:101AF000C79AFF1FDA8DFF1F4599FF1F8828010035
:101B0000289BFF1F1C9BFF1F389BFF1F3C9BFF1F39
:101B1000482F0100209BFF1F2C9BFF1F4C9AFF1F8B
:101B2000249BFF1F349BFF1F309BFF1FCDCCCC3E5F
:101B30009A99193F0FF03AFA234B53F829100FF0F6
:101B400089FAEFE63B6803EBD3734FEA630A1F4B56
:101B5000C7F800A01C680793EEE41D4B1B4A1988C8
:101B600014680891284607920FF020FA164B08993E
:101B700053F821100FF06EFA01460020A2440FF036
:101B80005FF989E7124B114A1988146805912846B4
:101B900007920FF00BFA0C4B059953F82110A4EBA8
:101BA0000A0A0FF057FAF9E60FF000FA064B53F85D
:101BB00029100FF04FFA014600200FF041F93EE7DF
:101BC000069B186804E500BF482F0100349BFF1FE7
:101BD0003C9BFF1F08B5244B1B885BB3234B1B7832
:101BE0005BB3234B1B7843B3224B1B782BB3224BA5
:101BF0001B7813B3214B1A782AB3214A2148224972
:101C00001288008809680244B1EB520F15DD0022EA
:101C10001A7006F035FF642003F0AAFE642003F07A
:101C2000A7FE642003F0A4FEBDE808404FF4167040
:101C30000CF03ABA114A117801B908BD1370BDE829
:101C4000084006F01DBF0E4A0E4810491288008851
:101C500009680244B1EB520FEFDD01221A70BDE8B2
:101C60000840642003F084BEFA99FF1F5398FF1FB9
:101C70005C98FF1F5D98FF1F5E98FF1FF899FF1F7C
:101C8000AA9AFF1FAC9AFF1F9C9AFF1FA09AFF1FE2
:101C900038B5114C232025780BF044FD0F49002264
:101CA00041F825000B1F01F1C40053F8041F8342C3
:101CB0000A44FAD123780A490A480133DBB281FB8E
:101CC0000251322B4FEAE272C2EB211208BF00230D
:101CD0000260237038BD00BF7098FF1F7498FF1F0B
:101CE0001F85EB516C98FF1F2DE9F04F9F4CA04DC5
:101CF0002068DFF8808285B00FF058F99E490FF018
:101D0000A9F9064610200DF049FA0FF04FF99B494A
:101D10000FF0A0F931460FF095F80FF061FB2B881A
:101D2000206002469A42B8F80010184680F2D0802F
:101D3000CF1A1E4600F0D380F61A07EBD77CC6EB0D
:101D4000C61606EB6C0606FB07FCBCF1000F96FB03
:101D5000F7F6C0F267818A4FDFF828C2CCF800603E
:101D60003E88192E00F0EA801A2E2ED01E2E00F08A
:101D7000A4810127844EB946DFF810C2BCF800C028
:101D8000BCF1000F13D0DFF808E2BEF800E0BEF1AE
:101D9000030F00F23C819A4280F246810A46CDF858
:101DA00000C019460023FEF735FC7A4B18607A4ACA
:101DB0003388108850EA030114D1784B1A78002A2E
:101DC00040F01D8205B0BDE8F08F754E3678002ECC
:101DD00008BF01276C4E16BF00274FF000094FF0D7
:101DE0000109C9E72988D4F800C0614579DCDFF82A
:101DF000ACE19EF800A0BAF1000F34D14FF0010A17
:101E000004288EF800A02ED1002F40F0C681338820
:101E1000002BD7D0B9F1000FD4D022682888B8F8A9
:101E20000010904200F3AC818A42A8BF0A46091A0A
:101E300000F0C681121A01EBD174C2EB8212641059
:101E400004EB420404FB01F2002A94FBF1F400DBF2
:101E50000134544D2A68A24203D0E1B2D8B206F050
:101E60007DFC2C60AEE7012800F04181022800F0E3
:101E7000F4800328CBD14C4B1B88092BC7D0002FF3
:101E8000C5D023682988B8F80020994240F3A8817A
:101E90000B46521A00F0A8815B1A02EBD277C3EB13
:101EA00083137F1007EB430707FB02F3002B97FB1D
:101EB000F2F700DB0137DFF8F4B0DBF80030BB42AB
:101EC00003D0F9B24A2006F049FCCBF800709EE737
:101ED0008A421646A8BF0E46CF1A7FF42DAF3F2682
:101EE00039E72E4A117800293FF46CAF002401280D
:101EF000147000F0EE80022800F0A080032840F06B
:101F00003381294A1288092A09D047B1274D2A6806
:101F10002AB121464A2006F021FC33882C60002B90
:101F20003FF450AFB9F1000F3FF44CAFD8B20021ED
:101F300006F014FC1B4B00221A6043E7DFF86090A8
:101F4000114E99F800C0BCF1000F33D0B6F800E094
:101F5000BEF1000F2ED0DFF858A09AF800B0E3458C
:101F600040F0108101274FF0000905E7C499FF1FD9
:101F7000D499FF1FD299FF1F9A99193FCDCCCC3E1F
:101F8000A89AFF1FC899FF1FCE99FF1F1C9AFF1F19
:101F90001A9AFF1F209AFF1FCC99FF1FD099FF1F8D
:101FA000A69AFF1F849AFF1F5699FF1F809AFF1F52
:101FB0003D9AFF1FDFF84CA29AF800E0E645D1D029
:101FC0003078002106F0CAFB99F800303A888AF888
:101FD00000308D4BB3F800C0BCF1000F00F0BE80A4
:101FE0001E2A40F00381012799F80030002B60D0B1
:101FF000DFF818E22B88BEF800E02268B8F800107D
:10200000BEF1030F18464FF000097FF6C4AE9A42A6
:102010000FDA1A46CDF800C00023FEF7FBFA7C4B1E
:102020001860C4E6013E96E68A42A8BF0A461046FA
:10203000B4E68A42A8BF0A461046EAE7002F3FF4FA
:102040006EAF744D2A68002A3FF469AF2146042020
:1020500006F084FB33882C6061E7002F3FF4D8AE94
:10206000DFF8B0B1B8F80000DBF800A084456346A3
:10207000A8BF0346401A00F0AE805B1A00EBD07197
:102080004910C3EB831301EB430303FB00F1002969
:1020900093FBF0F300DB0133534506D0D9B20420A3
:1020A000039306F05BFB5C4A039B1088CBF800307F
:1020B000DFE6574A9946136079E6DFF86091524BA4
:1020C00099F80070B3F800C0554EB7FA87F77F094A
:1020D0008AE7002F3FF423AF4E4D2A68002A3FF4D1
:1020E0001EAF214606F03AFB33882C6017E7002F1D
:1020F0003FF48DAEB8F800309C456046A8BF184646
:102100005B1A6AD0401A03EBD37AC0EB80104FEA17
:102110006A0A0AEB400A0AFB03F100299AFBF3FA68
:1021200001DB0AF1010ADFF8ECB0DBF800305345BF
:1021300005D05FFA8AF1012006F010FB364A1088BC
:10214000CBF800A002287FF494AE2B88D4F800C00E
:10215000B8F80000634519468CDC87E71E2A3FF477
:1021600042AFE146012722E604287FF4D8AE002FD3
:102170003FF4D5AE2146402006F0F0FA3388CEE693
:10218000024654E65FFA8EF07F2106F0E7FA99F8EE
:1021900000303A888AF800301BE740207F2106F0A3
:1021A000DDFA1D4A108850450CD002287FF461AE3C
:1021B000DFF860B02B88DBF800A0D4F800C0C7E7D8
:1021C000402446E62888D4F800C0B8F800306045BE
:1021D000014695DC90E740235EE74FF0400AA2E716
:1021E0009342A8BF134654E6402764E62B88226832
:1021F000B8F80010184601274FF00009C3E5197020
:10220000E0E500BF3D9AFF1F1C9AFF1F1A9AFF1FAF
:10221000209AFF1F809AFF1FCC99FF1FA69AFF1FCD
:10222000CE99FF1F08B5114B1B88022B09D0052B37
:1022300007D0032B0DD0042B13D00D4B01221A70A5
:1022400008BD7F21412006F089FA094B01221A704E
:1022500008BD4021092006F081FA054B01221A70C1
:1022600008BD7F21092006F079FAE6E7BE9AFF1F34
:10227000B69AFF1F38B5134D134C2B88052B18D079
:1022800022686AB9022B14D0033B012B15D8002118
:10229000092006F063FA0D4A00231370236038BD4D
:1022A0000021052006F05AFA2B88022B01D0052BBD
:1022B000EAD10021412006F051FA044A00231370AC
:1022C000236038BDBE9AFF1F8C9AFF1FB69AFF1F6E
:1022D000F0B55A4B1B881D2B83B048D0584B1B8838
:1022E000022B09D0574B1B88022B73D0564B1B78FF
:1022F000002B48D103B0F0BD544D554E0024554B32
:102300001B78002B4AD111200CF048FF524B18606B
:102310002B88002B4AD0514B1988814246DC504B08
:1023200037881A8800979042A8BF10460023FEF70E
:1023300071F9444B1B88022B044473D0002CD5DB6D
:10234000BC42A8BF3C46002CD0D03F4B1B78002B92
:102350005FD02B88434D052B06D02B689C4203D0C1
:10236000E1B2052006F0FAF92C6003B0F0BD374D5C
:102370002C886CB13C4B1C78314B002C4CD11B8809
:10238000022BAFD108E003B0BDE8F040FFF772BF09
:102390002B4B1B88022BA5D12D4EB0E715200BF03F
:1023A000C1F92D4B18602B88002BB4D1254B1B880D
:1023B000022B41D10F200CF0F1FE2C4B18602B8822
:1023C000002B39D02A4BC0F53B6019880830884271
:1023D00013DA2FE01D4D0F200CF0E0FE234A2B886E
:1023E0001060002B82D0224BC0F53B60198808306A
:1023F00081423FF77BAF164E00241E4B3788009773
:102400001A889042A8BF10460023FEF703F904443F
:1024100094E7FFF707FF9CE71B880D4E022B3488DB
:10242000C4D16CE70F200CF0B9FE104B18602B885C
:10243000002BC7D1378881E7378881E7A89AFF1F2B
:102440004299FF1F4C9AFF1FB69AFF1FBE9AFF1FAB
:10245000B89AFF1F4599FF1F4899FF1FBC9AFF1F9D
:10246000BA9AFF1F8C9AFF1FA69AFF1F549AFF1F4C
:102470005C9AFF1F509AFF1F70B510200CF08EFE63
:10248000C830B0F57A6FA8BF4FF47A60B0F5FA7F24
:10249000B8BF4FF4FA7000F51673B3F57A6F834A3C
:1024A000834CA8BF4FF47A6381B22220118023802D
:1024B00006F0C8FB21887F4C242006F0C3FB0E20C9
:1024C0000BF030F940F6FF72C8309042A8BF1046BA
:1024D00020EAE07000F2DC5381B277489342A8BF53
:1024E000134601800220238006F0ACFB21880420E3
:1024F00006F0A8FB17200CF051FE044616200CF045
:102500004DFE8442B8BF044604F1C800B0F57A6FAE
:10251000A8BF4FF47A60B0F5FA7FB8BF4FF4FA70F5
:1025200000F54873B3F57A6F644A654CA8BF4FF461
:102530007A6381B20A201180238006F083FB218810
:10254000604C0C2006F07EFB0F200CF027FEC0F53F
:102550003F610431B1F5FA6FA8BF4FF4FA61C0F5DD
:102560004363B1F5AF6FB8BF4FF4AF61B3F5FA6F26
:10257000A8BF4FF4FA63B3F5AF6F534AB8BF4FF437
:10258000AF6389B2A4201180238006F05BFBA620F4
:10259000218806F057FB0B200BF01CFD00287FD094
:1025A00011200CF0FBFDC83041F25C229042A8BF24
:1025B0001046B0F52F7FB8BF4FF42F7000F516739B
:1025C00081B24248424C01809342A8BF1346062084
:1025D000238006F037FB21883E4E082006F032FBB0
:1025E00000244FF4AF75E1B2304608F071FC0134BD
:1025F0008542A8BF05460C2CF5D101200CF0CEFD7C
:102600003549364AA0F1320301FB03F36FF46770DA
:10261000034482FB03121A44DC17C4EBA224002BF0
:10262000ACBF04F25F1404F5AF74AC424FF000008D
:10263000A8BF2C460CF0B2FD2749284AA0F132036E
:1026400001FB03F36FF467710B4482FB03121A441E
:10265000D917C1EBA221002BACBF01F25F1101F52C
:10266000AF71A142A8BF214614393229B8BF322127
:1026700040F23A70A1F5AF7300FB03F3184A194C0E
:10268000963B82FB0302DB17A3EB621389B2164A67
:1026900021803233BDE870402A20136006F0D2BAA0
:1026A00015200BF03FF800F596707DE7D499FF1FD9
:1026B000D299FF1F8499FF1F8699FF1FAC9AFF1FB5
:1026C000AA9AFF1F509AFF1F5C9AFF1FBC9AFF1F18
:1026D000BA9AFF1F089BFF1FD4FEFFFFC70FB38DE1
:1026E000B5814E1B9E99FF1FD08DFF1F2DE9F04F26
:1026F0000C2095B00AF0E2FF0C200BF0CDFBBF4997
:10270000DFF8FCA214200BF0D5FBBE49BE4808F050
:102710003BF9022103200BF06BFC022104200BF09B
:1027200067FC022105200BF063FC022106200BF060
:102730005FFC01210A200BF05BFC012109200BF05A
:1027400057FC01210D200BF053FC012128200BF038
:102750004FFC012114200BF04BFC02210B200BF04D
:1027600047FC01210C200BF043FC00210C200BF056
:102770000BFC012121200BF03BFC02211C200BF063
:1027800037FC01211B200BF033FC00211B200BF038
:10279000FBFB1C200BF01EFCB0FA80F35B091A2037
:1027A0008AF800300BF05AFE1F2000210BF018FEB3
:1027B00004200BF00FFC30B906200BF00BFC034695
:1027C000002800F0698105200BF004FC002800F0CF
:1027D000988100238D4C062023700BF0FBFB8C4A64
:1027E000B0FA80F35B09137004F0B6FE23784FF063
:1027F000000B002B40F05C81584606F03DFA854BFB
:1028000085491B88854840F23A72A3F5AF7302FBF5
:1028100003F3963B81FB0321DA17A2EB6112002B35
:102820007F49D4BF02F1320302F131037D4A0B60CC
:102830007D4B12881A7006230093734A0C235A2189
:1028400008F0AAFB002800F0CD80784A784812688A
:10285000DFF8E09100230121FDF71CFE0B200BF0B7
:10286000B9FB011E0CBF0123002389F8003000F0E2
:102870002F81714E714D724FDFF8C8810023336094
:102880002B603B6001240F200CF088FC3B68034464
:102890000E203B600AF046FF33680344336099F82A
:1028A0000030002B00F0F28015200AF03BFF2B686F
:1028B0001844286004F0010003F04AF8B8F800302A
:1028C000002B14BF4B20DC2001340BF0EDFB052C5A
:1028D000D9D13B6832685C495C4C08885C49002B64
:1028E000B8BF0333002AB8BF0332921032602A689F
:1028F0000988584E002AB8BF03329B1092103B60E3
:102900002A602360A3EB000C534F544D544CC7F87E
:1029100000C003443360531A0A442B602260BBF1A9
:10292000000F40F0E680B8F80030002B00F0D480B3
:102930004C4B012404201C600BF04CFB18B94A4B93
:10294000394A1C701070494B1B881C2B00F0B58055
:10295000474C04F1C80523200AF0E4FE44F8040FB4
:1029600001200BF0A1FBA542F5D19AF8003023B16C
:10297000404B1B78002B40F0CC80002121200BF035
:1029800003FB3D4A3D4B10783D4C187006F022F990
:1029900002F0D6FF3B4B049304A90AA802940894C2
:1029A000FDF7F8FD0AA910A80E94FDF7F3FD45F612
:1029B000BF520EA934480DF02BFE0E9B10A8DB6809
:1029C0009847089B0AA8DB689847029B04A8DB6825
:1029D000984715B0BDE8F08F04200BF0FBFA0028F3
:1029E00000F09C8003200BF0F5FA0028F4D00320BF
:1029F0000BF0F0FA0028F5D1EEE700BF001B3746D8
:102A00003E9BFF1F40420F00508FFF1F9C99FF1FEE
:102A1000289AFF1F9E99FF1FB5814E1B089BFF1F21
:102A2000D08DFF1F969AFF1F6A98FF1F608DFF1FB2
:102A30006099FF1F4599FF1F5C99FF1F389BFF1F7F
:102A4000349BFF1FD699FF1FDC8DFF1F589AFF1F75
:102A5000DE8DFF1F309BFF1F249BFF1F289BFF1F46
:102A60002C9BFF1F649AFF1FC299FF1FA89AFF1F8C
:102A70007098FF1F3F9BFF1F5898FF1F6898FF1F0C
:102A800098250100BD060000B099FF1F11200CF031
:102A900085FB2B6818440CE7274C284A20701370DC
:102AA00004F05AFD23784FF0010B002B3FF4A4AE45
:102AB00015B0BDE8F04F07F021BE214B1888002863
:102AC0003FF446AF1F4BC0B2197805F047FE3FE711
:102AD00011200BF08DFACCE64FF4FA7002F048FFAB
:102AE00002F032FF04F0AEFE4FF4AF600BF0DCFA00
:102AF0001EE7FFF7C1FCB8F80030002B7FF418AFD9
:102B0000EAE703200BF066FA00287FF462AE0123A7
:102B100060E6012121200BF037FA32E705200BF0A7
:102B200059FA00287FF45EAF06200BF053FA002814
:102B30007FF458AF0CF02AFC9C99FF1F289AFF1FC6
:102B4000469AFF1F489AFF1F2DE9F04F924F934E70
:102B50008DB009AD0024E1B2304608F0B9F93B88E8
:102B60000134834294BF002301230C2C05F8013B60
:102B7000F1D18B4B9DF824701F708A4B9DF8265025
:102B80001D70894B9DF828101970884B9DF82A00FC
:102B90001870874B9DF82C201E88864CDFF818C2D1
:102BA00022707B190B440344844C1344DBB2237022
:102BB000834C4FF0000E012E84F800E08CBF4FF0E4
:102BC000000E4FF0010E8CF800E07AB9002800F0FA
:102BD000CF81002900F0F2810423237079487A4BD9
:102BE0000093032E00F04783237807E0002900F0CC
:102BF000B580754A7348009206232370DFF8CCA194
:102C00000370DFF8CC919DF825308AF80030DFF8AA
:102C1000C4819DF8273089F80030DFF8BCB19DF8F9
:102C2000293088F800306D4D9DF82E308BF800303B
:102C30006B4F9DF82B302B706A4E9DF82D303B70FA
:102C400001209DF82F3033700CF0A8FA664B1968FC
:102C5000664B8842CCBF012200221A7040F3878065
:102C6000634B1A88182A00F28280624BB3F800C0C6
:102C70000C3ABCF1000F40F082809AF800E0DFF8D7
:102C800078A199F800909AF800A098F800809BF835
:102C900000302478AAEB4E0AAAEB090AA8EB880BAD
:102CA000D344C3EB837AC3EB8A039B442B780BEBAF
:102CB000430B524BB3F800A03B785B4496F800B04E
:102CC0000BFB0A33DFF838A14FF00C0B1BFB04336E
:102CD000CAF80030B8F1000F05D034781CB1BCF14F
:102CE000030F40F26281474C474E2488DFF81CA155
:102CF000DFF81CC13688BAF800A0DCF800C0033C3D
:102D000004EB440403EB8404C6EBC6065444664457
:102D10000C3CDFF800C122443F4CBCF800C02468E2
:102D2000CCEBCC0C6444DFF8F4C05CF82660324491
:102D30003B4E56F824402244BEF1000F74D02C784C
:102D4000002C71D0B9F1000F40F02B81354CB8FA4E
:102D500088F84FEA581884F8008070E0002800F0E6
:102D6000F380194A174800920523237046E7214B48
:102D7000B3F800C00022BCF1000F3FF47EAF0CF1AD
:102D8000FF33042B00F2C782DFE813F00F02E001EB
:102D90007A0170011B0100BF9E99FF1F089BFF1F56
:102DA0005C98FF1F5D98FF1F5E98FF1F5F98FF1FD5
:102DB000D09AFF1F6098FF1F909AFF1FC89AFF1FAD
:102DC0006C9AFF1F3C9AFF1FE899FF1F5098FF1F46
:102DD0005198FF1F5298FF1F5398FF1F5498FF1FD1
:102DE0005598FF1F5698FF1FD08DFF1FA69AFF1FF3
:102DF000A89AFF1FF099FF1FCC8DFF1F0E9BFF1F8E
:102E0000EC99FF1F6A9AFF1F1A9AFF1F0C9BFF1F66
:102E1000209AFF1F4C99FF1F5099FF1F7027010038
:102E2000E82A0100A49AFF1FAF4C00252570B9F1D4
:102E3000000F02D03C78002C7FD14FF0000988426F
:102E4000C8BFAA49AA4CC8BF0B60AA49AA4B0988A7
:102E500084F8009007298CBF01200020187060D9E9
:102E6000A64BA7481B680180032B00F0F6810025C4
:102E7000A44BA54C1D702368934258D0A348A44B83
:102E800006680496A34EA44F93F800C086F800C0CD
:102E9000049E3E6001271F70036805939F4B1F88A7
:102EA000059B9B1BBB4230D99D4E9A4F33683260C5
:102EB0009C4ED31A336000233B70002D3BD0944DC1
:102EC0002E78002E65D12260974D2B68934223D037
:102ED0000468964F0794079C3E68A41B8C4241D31C
:102EE000D11A00F1DD81924C266886EAE674A4EBE3
:102EF000E6748C4240F3FC818A4909680029B8BF16
:102F000049428C42B8BF5A1CE5E1854B22601A68E1
:102F1000002DD9D1844B1A60009B1A600DB0BDE81A
:102F2000F08F77480023194603801D46A0E77A4BAF
:102F300076481E68B0E72260ECE75EEA08087FF496
:102F40007CAF4FF001097AE7012E7FF60AAFBDB1E1
:102F500017B9012E00F2588102232370754B764871
:102F600000933EE61A46009B1A600DB0BDE8F08F54
:102F70000029ECD0002D40F08B81012E40F2A2817F
:102F8000002F00F041816C4801232370694B0093AE
:102F900027E62B7003680693069B644D0B442B6059
:102FA00091E7514C0025257047E7644C2488042C98
:102FB0000CBF02330433CAF8003094E6012EC6D8A1
:102FC0000AE624789AF800E099F8009098F80080D2
:102FD0009BF80030C4F10604E4B20194584CDFF8C9
:102FE0005CA12478BAF800A0CDF808A0A4EB4E04A8
:102FF000A8EB880AA4EB09045444C3EB837AC3EB1F
:103000008A0395F800B0DDF808A02344BEFA8EF4D8
:1030100064090BFB04F403EB44041EFB0BF3039362
:10302000337897F800B003FB0AFA18FB03F3A3EB1D
:1030300083030293B9FA89F35B090BFB0343B8FAE4
:1030400088F4640904FB0A33039CDDF808A0A3EBB1
:10305000440309FB1B33DDF804B053440C24DFF8B0
:10306000E4A014FB0B33CAF8003033E69AF800E012
:1030700099F8009098F800809BF800302478ACE72D
:103080009BF8003094F800B02D4C9AF800E02478BA
:1030900099F8009098F80080A4EB4E04A4EB090482
:1030A000A8EB880AA244052414FB03A4C3EBC303C2
:1030B00004F1050A03EB0B04204B95F800B00AEB72
:1030C0004B0BB3F800A03B785B4496F800B00BFBC9
:1030D0000A33DFF874A05AF82440DFF868A00C33F4
:1030E0002344CAF80030F5E5A49AFF1FB09AFF1FE9
:1030F000A59AFF1F0C9AFF1F049AFF1F649AFF1FD7
:10310000648DFF1FFC99FF1F349AFF1F149CFF1F43
:10311000689AFF1F189AFF1F309AFF1FBE99FF1F62
:10312000149AFF1F109AFF1F009AFF1F389AFF1F63
:10313000089AFF1FE899FF1F3C9AFF1F0E9BFF1F75
:10314000CC8DFF1FEC99FF1F502801009BF8003029
:1031500024789AF800E099F8009098F80080C3EB82
:10316000C3031C44714B93F800B0ABEB4E0BA8EBC0
:103170008803ABEB090B9B442B78ABF1020B0BEBF9
:10318000430B6B4BB3F800A03B785B4496F800B060
:103190000BFB0A33DFF89CA15AF82440DFF898A112
:1031A00018332344CAF8003094E524789BF80030A3
:1031B0009AF800E099F8009098F80080C4F10604AD
:1031C0005FFA84FB594C94F800A0AAEB4E0AAAEBD4
:1031D000090AA8EB88045444C3EB837AC3EB8A033F
:1031E0001C442B7804EB430A514B1C883B78534416
:1031F00096F800A00AFB0433DFF83CA10C2414FB72
:103200000B33CAF8003065E54C480578012D71D9BB
:1032100006B125704A4D2D88002D6ED0002B6CD143
:10322000484B1B88013B9BB2062B66D8464B1B784C
:10323000002B62D0454B1B68012B454B00937FF45C
:10324000D0AC1B68434F0C2593FBF5FC05FB1C33EE
:103250003B80414B03251D70C3E4404B1B68002B92
:103260007FF705AE3E4B3F481B78007803430CBF09
:1032700001250025FCE500293FF4B6AC002A7FF4C7
:10328000B3AC0378062B7FF4AFAC07232370B5E40F
:1032900003239E422948237027D02D4A0092ADE493
:1032A0002E490E6886EAE674991AA4EBE674A142E8
:1032B00010DA2D4909680029B8BF49428C420ADA60
:1032C0005A1E08E01D480378FBB1214A00920323EF
:1032D000237093E49A1B03680893089B3B60009B50
:1032E0002A601A600DB0BDE8F08F194B0093C8E753
:1032F0009A19F0E7164B009373E4144B1B68012BEB
:10330000134B00937FF46DACA3E7002F7FF43CAE2A
:103310000F4B009368E49AF800E0DFF81CA099F8DE
:10332000009098F80080DAF80030D3E4CC8DFF1FCD
:103330000E9BFF1FB02A0100EC99FF1F3C9AFF1F54
:10334000929AFF1FB49AFF1FF69AFF1F649AFF1FFD
:10335000E899FF1F249AFF1F5F8DFF1F089AFF1F28
:10336000FD9AFF1FFC9AFF1F109AFF1FA34B1B78AB
:10337000002B40F036812DE9F04F0E208BB00AF083
:10338000D1F90DF013FE01469D489E4C9E4DFDF770
:10339000CBF89B48FDF79CF80EF022F880F30C0068
:1033A0002060FFF7D1FB2B68012B54D0022B00F0DB
:1033B0008184032B00F07A81944C954E2368954CC0
:1033C0000993099B22683360991A934A1288013A3B
:1033D000914200F24383914C22689A1A092A00F222
:1033E0000C838F4C22689A1A0D2A00F201838D4CAF
:1033F00022689A1A252A1CD98B4B1B8813B98B4B30
:103400001B780BB1FEF7E6FBFEF742FC884B1B88EE
:103410001B3B9BB2022B08D8864B1B782BB1864BEB
:103420001B7813B12B68012B01D002F0B5FA336879
:103430002360824C22689B1A502B00F2F582804B4D
:103440001B88012B00F09C8205F0B6FA0BB0BDE89A
:10345000F04F04F065BFDFF8EC817B4BB8F800005B
:103460001A78824240F0C580784F794B38881A78B4
:10347000824204D0774E3278002A40F0D585764AD1
:1034800023681288614C9A4280F2AD8021680691CF
:103490007249734A0B60069B136002232B60DFF8AE
:1034A000C491DFF8C4A1B9F80030BAF80020134382
:1034B0009BB2002B40F03E836C4B1E680E200AF03E
:1034C00031F96FF454731E44864202DC684B0022CB
:1034D0001A7000200BF062FE664B67491A68674B52
:1034E00090421B88D4BF002601260E70002B00F0EE
:1034F000198563490B78B34262D0904260DD614B1D
:103500001878002800F027875F4A1778002F40F0CE
:103510002087DFF878C15E4B8CF80070DFF874A16B
:10352000DFF874C11B788AF800708CF800700127EE
:10353000CDF808C0177033B100271770029A1770C2
:1035400001228AF80020554A92F800E0BEF1000FEF
:1035500000F0F987524A1778002F41F02981DFF8EF
:1035600038C18CF80070012717704E4A1278002A73
:1035700000F03486454F97F800C0BCF1000F41F0D1
:103580001B81DFF8048188F800C04FF0010C87F838
:1035900000C0BEF1000F40F0218603431A4340F003
:1035A0001D86244B1B78002B40F01D86364A137075
:1035B000384A13703A4A1370374A1370334A1370FB
:1035C0000E701B4B1B88A3F11B02012A40F2B6842C
:1035D0001D2B7FF4F2AE174A334B12780C4E1A7043
:1035E000ECE606F005BF114A1278002A7FF44EAFD0
:1035F00055E7C0B2187005F06FF835E79C99FF1FCA
:103600006099FF1FC09AFF1F649AFF1F149CFF1F41
:10361000A099FF1F8C99FF1F508DFF1F9099FF1FCE
:103620009499FF1F9899FF1FFA99FF1FF899FF1FA0
:10363000A89AFF1FA69AFF1F5698FF1F6498FF1FA6
:10364000BC99FF1F5898FF1F6898FF1F969AFF1F8D
:103650006A98FF1FC299FF1F8699FF1F2C9AFF1FB0
:103660008899FF1F429AFF1F449AFF1F5C99FF1F12
:10367000C69AFF1FD08DFF1FFE9AFF1FB49AFF1F2F
:103680003E9AFF1F5398FF1FFD9AFF1FFC9AFF1FD2
:103690005498FF1F949AFF1FF69AFF1F5098FF1F20
:1036A000029BFF1F5198FF1F3D9AFF1FA24B2168ED
:1036B0001A888A4258DDA14B1B78002B54D1DFF8C1
:1036C000809299F800007F280BDD7F38A3F15533F5
:1036D000A3FB0023DB0803EB4303A0EB8300733061
:1036E000C0B2984B01931B8889F80000002B41F071
:1036F000CC80DFF854A29AF80030002B00F03C8612
:10370000924F3B78002B00F03786914EDFF844B2A1
:103710004FF0000811E0ABFB0213DB0803EB43039F
:10372000A2EB830202F17300C0B205F093F83B787C
:1037300008F10108434540F31F8699F8000056F848
:10374000043F18447F28A0F17F02E4DC0028C0F188
:103750000002E9DAABFB0213DB0803EB4303A2EB45
:103760008302C2F10C00DFE77B4E33687F2B00F34E
:103770008484002B0ADA77485B42A0FB0370C00800
:1037800000EB4000A3EB8003C3F10C03DFF8B09122
:1037900099F800709F4200F0E284704B1B88002B68
:1037A00046D16F4B6F491B6809889A4240F3D28714
:1037B0001346891A01F006809B1AC3EB833301EB91
:1037C000D17203EB620303FB01F2002A93FBF1F0D9
:1037D000C1F2C080FDF74CFDC0F3C6100DF0E6FB52
:1037E000614B804618880DF0E1FB604982464046F7
:1037F0000DF030FC014650460DF02CFC41460DF01A
:1038000021FB4FF07E5180460DF0C2FD002840F0B4
:10381000C887574940460DF0D9FD002841F0668021
:1038200040460DF003FEC3B2DFF8488188F800304F
:103830007F2F0ADD474B7F3FA3FB0723DB0803EB0A
:103840004303A7EB83077337FFB2DFF8FCA089F8C7
:1038500000709AF80030002B40F0C085464B474A74
:10386000039302921B7812781A4340F07386354B0B
:103870000193029B1B78002B40F093869AF800304E
:10388000002B00F04A86019B1B88002B00F052871A
:1038900030687F2840F392852E4A7F38A2FB0012C1
:1038A000D20802EB4202A0EB820073303060002BA2
:1038B00040F07D869AF80030002B00F01F84234FE3
:1038C0003B78002B00F01A84214ACDF81090002399
:1038D000B146DFF8A0809B46164614E01D4BA3FBC3
:1038E0000102D20802EB4202A1EB820101F1730056
:1038F00098F80010C0B204F06FFF3A780BF1010B9A
:103900005A4540F3F88356F8040FD9F800201044C4
:103910007F28A0F17F01E1DC0028C0F10001E7DA97
:103920000C4BA3FB0102D20802EB4202A1EB820185
:10393000C1F10C00DCE700BF8699FF1FF899FF1F5B
:103940006998FF1FC49AFF1F949AFF1F4E8DFF1F97
:10395000A48DFF1FABAAAAAAE899FF1F149BFF1F03
:103960008099FF1F8499FF1F109BFF1FCDCCCC3D7A
:103970000000FE42169BFF1F029BFF1FF69AFF1FCF
:10398000A44AA54B11681B68A82041F6FF7200FBF2
:103990000122A248183B80FB02102A21104401FB9F
:1039A00003F3D117C1EB6031002AACBFA1F154027F
:1039B000A1F155029A4913449A4A087812789A4913
:1039C0006FF0140404FB00330B609849002A4CD0BC
:1039D0000868834247DD964C2278002A00F07983FC
:1039E0000132D2B2022A00F29185227003463DE0F4
:1039F000FEF76EFC33682360F9E48E4FFDF752FD4D
:103A0000FEF772F93B88032B02D1FCF7BFFF3B881E
:103A1000042B01D1FDF704F9874B1B88032B00F021
:103A2000D68333682360DCE403F0CCFD834B844908
:103A3000844A09781B7812780B4383491343834ADD
:103A4000097812780B431343814A1278134300F02C
:103A50007D8701F081FF33682360F0E4FDF750FCBF
:103A600033682360B7E4C0F220830B60794A108882
:103A700000283AD0784C326854F82000002800F032
:103A8000A983B2FBF0F400FB1422C2EBC20200EBEC
:103A9000D07402EB021202EB640292FBF0F402FB20
:103AA00000F000286D4AB8BF04F1FF3452F824201A
:103AB000A2F2FF726A4C246804FB02F202F57D3226
:103AC000162002F5607200FB02F2664C02F57D32B0
:103AD00002F5607284FB0204D017C0EB6440002A38
:103AE000ACBF0B380C3803440B605F4A5F49128847
:103AF0005F4802F27C7202FB03F35B0003F5FC6398
:103B00000A8880FB0310643A1844D917002B4FEA47
:103B10004202C1EBE021C0F2F684114481F30C01B2
:103B200028200AF0A7F804F047FF0BB0BDE8F04FDB
:103B300004F0F6BB4F4B504A1B88128813444F4A7F
:103B400011685A10B1EB530F4D4B1B6840F30682BE
:103B50009A424FF00003B4BF01221A460192ACBF53
:103B600001221A460493039205930E2009F0DAFD10
:103B7000444B4549D3F800E0444B02901A780E6854
:103B800043480EF10103802BA8BF8023012BB8BF4F
:103B90000123002A00F063810178914200F05F81E7
:103BA0003988994200F0A2823A493B803A4B097821
:103BB0004FF0010C83F800C0DFF8E0C0384B027012
:103BC0001B788CF8001043B9019B002B00F0678133
:103BD000B9F80030002B00F06281324B1868324B8C
:103BE0001A88324B1B881A44314B1968431C802BAE
:103BF000A8BF8023012BB8BF0123B1EB520FC0F245
:103C00000582A3F149020F2A3FF658AC483BA8F8B9
:103C1000003053E4A48DFF1FE899FF1F09000280C4
:103C2000C79AFF1FB69AFF1F049BFF1FA899FF1F8B
:103C3000AC99FF1F4299FF1F4C9AFF1FF69AFF1F76
:103C4000FD9AFF1F949AFF1F029BFF1FFC9AFF1F04
:103C5000F899FF1FBA99FF1F8C2A0100AC280100B8
:103C6000C899FF1F491B8940AE99FF1FB899FF1FD4
:103C700083200882AA9AFF1FAC9AFF1FA09AFF1FF9
:103C80009C9AFF1FB09AFF1F5C99FF1FA49AFF1F09
:103C90003F9AFF1FA59AFF1FC299FF1F409AFF1F5F
:103CA000989AFF1FEC99FF1FD499FF1FD299FF1F0D
:103CB000C499FF1FB04A20681288824204DBAF4BD0
:103CC0001B78002B00F0D381AD4C21680791AD49E2
:103CD000079B09685B1AAC4909888B4213D891B1DC
:103CE000AA4B198800293FF468ABA94B1B68834293
:103CF000B8BF0346A7489A42008840F3FE85A64B0A
:103D00001A60C9B252E0A24BA2491B688342B8BFF5
:103D100003469A42088800F39E819C499E4E09887A
:103D20008342A8BF034633600029EAD19A42C8BF44
:103D3000134640F39881811A00F01B849B1AC3EB51
:103D4000833301EBD17203EB620393FBF1F003FBCE
:103D500001F10029C0F2D885FDF78AFAC0F3C61038
:103D60000DF024F98D4B064618880DF01FF98C498B
:103D7000074630460DF06EF9014638460DF06AF9F7
:103D800031460DF05FF84FF07E5106460DF000FB16
:103D9000002840F0C083834930460DF017FB00280F
:103DA00040F0BC8430460DF041FBC1B2DFF8F88131
:103DB0007E4E88F80010FDF7A3FA30687F2840F3A4
:103DC000F7817B4B7F38A3FB0023DB0803EB430326
:103DD000A0EB83007330774B01931B883060002B7E
:103DE00040F01382DFF8D0A19AF80030002B00F0E9
:103DF000C281724F3B78002B00F0BD81DFF8C0B16B
:103E00004FF0000914E06A4BA3FB0213DB0803EB3D
:103E10004303A2EB830202F1730098F80010C0B2D2
:103E200004F0DAFC3B7809F101094B4540F3A3812A
:103E30005BF8040F336818447F28A0F17F02E2DCAE
:103E40000028C0F10002E8DA594BA3FB0213DB089B
:103E500003EB4303A2EB8302C2F10C00DDE75949F7
:103E6000DFF864C1097800293FF4A8AE9CF800B0DF
:103E700059453FF4A3AEBEF14B0F40F359831833BD
:103E8000802BB7F800B0A8BF80239B453FF496AEC7
:103E90003B804E4B4FF0010B83F800B08EE6029A48
:103EA000A6F252339A42BFF609ABBAF80030002BA3
:103EB0003FF404AB039B002B7FF48FAE444B1B8875
:103EC0001BB1059B002B7FF488AE049B002B3FF4B5
:103ED000F5AA404B1A78002A7FF4F0AADFF8F880A0
:103EE00001221A7098F80030002B40F064853B4B9B
:103EF0001B78002B40F09885394B1B78002B00F085
:103F0000F385384B1B78002B7FF4D8AA364B1B78EF
:103F1000002B3FF4D3AA3B880A333B802B4B1A700B
:103F2000FFF7CCBA314A32491370324A0B70137022
:103F30002149314A0B701370FFF743BBDFF8BC8097
:103F400098F80030002B7DD02D4A1278002A40F0DE
:103F5000B8832C4F2C4E3B70FFF730BA9A424FF08B
:103F60000003B4BF01221A460492ACBF01221A46D4
:103F7000039305920193F8E58699FF1FF899FF1FB7
:103F8000149CFF1F8899FF1F129BFF1F149BFF1F8C
:103F90002C9AFF1F8499FF1F8099FF1F109BFF1F02
:103FA000CDCCCC3D0000FE42169BFF1FE899FF1FC1
:103FB000ABAAAAAAC49AFF1F949AFF1F4E8DFF1F97
:103FC000A48DFF1FA59AFF1F409AFF1FC299FF1FD4
:103FD0003E99FF1FC69AFF1F6C9AFF1F5098FF1F44
:103FE0005198FF1F5298FF1F5398FF1FFD9AFF1F04
:103FF000F69AFF1F029BFF1FFC9AFF1FA69AFF1F46
:104000005698FF1F3D9AFF1FA099FF1F9C4A1278E8
:10401000002A3ED13A889A423FF450AA3B80994BFD
:1040200001221A70FFF74ABAC0B2187004F062FB9E
:10403000954A964896490023137003700B703370AD
:10404000FFF71DBA934F3B78002B40F07883924ED8
:104050003B70FFF7B3B9914B1A60914B1988002957
:104060007FF44FAE13468342A8BF034663E60123A5
:104070008C4C894E2B60FFF7A1B98B487F3BA0FB8E
:104080000370C00800EB4000A3EB80037333FFF71D
:104090007DBB4A2840F33D831833802B3A88A8BF64
:1040A00080239A42BAD1FFF709BA804C2278002ABD
:1040B00040F037837E4A1268D2F17F0248BF033254
:1040C00092100132821A93423FF7CFAC0A60134636
:1040D000CCE4774A1268D2F17F0248BF033200EB8A
:1040E000A20201329342FFF6C0ACEFE7714BDFF85A
:1040F000C8C1197862E54E46DDF81090039B1B7825
:10410000002B40F06782029B1B78002B40F05E8200
:10411000019B1B88002B00F05382039A9AF8003011
:1041200012781343029A1278134300F00584564B19
:104130001B78002B50D0614A1378082B4CD80133E0
:10414000DBB213705E4A306812685E49013B821A26
:1041500041F823205C4B21681A8889F800008A42C4
:10416000504CBFF62AA92268584B0892089A4A4E2A
:104170001A60FFF723B9444B1B78002B40F0DE8018
:10418000434B1B78002B55D1514B1B78002B4DD145
:10419000019B1B88002B43D04E4B1B78002B3AD140
:1041A0004D4A3168117003233B4E2B60FFF706B96F
:1041B0000028BFF610AE3C4B4042A3FB0023DB08B7
:1041C00003EB4303A0EB8300C0F10C0003E6FCF714
:1041D00089FB26E46B226DE43068BBE7284B1B7833
:1041E000002B3FF4EDA93A4A1378002B40F0DC8213
:1041F000254F3A483B70254F3B70254F3B700123BC
:10420000137003230370FFF7DBB998F80010C0B2F6
:1042100004F0E2FAE6E57F21422004F09FFABFE7CE
:1042200098F80010307804F0D7FAB5E73078FCF74A
:1042300039FDADE73368A3F10C007F2840F39D8181
:10424000194A8B3BA2FB0312D20802EB4202A3EBFA
:10425000820303F1730098F80010C0B204F0BCFAB6
:104260009AF80030002B8FD0144F3B78002B8BD066
:10427000DFF86C90DFF830B04FF0000A46E000BF86
:10428000A69AFF1FC299FF1FFD9AFF1F949AFF1F56
:10429000029BFF1F3D9AFF1FA099FF1F8099FF1FE0
:1042A000149BFF1F149CFF1FABAAAAAAAC99FF1F67
:1042B0008C9AFF1FA59AFF1F409AFF1F4E8DFF1F6C
:1042C000F89AFF1FA88DFF1F8699FF1F8C9BFF1F69
:1042D000F69AFF1FFC9AFF1F6998FF1F5F8DFF1F53
:1042E000A48DFF1FABFB0213DB0803EB4303A2EB20
:1042F000830202F1730098F80010C0B204F06CFA67
:104300003B780AF1010A53457FF73EAF326859F80E
:10431000043F1344A3F10C007F28A3F18B02E1DCDE
:104320000028C3F10C03E6DAABFB0312D20802EB60
:104330004202A3EB8203C3F10C00DCE77F214020A3
:1043400004F00CFAB84AB94B3168116000221A70B7
:1043500016E700231370B64B1B78002B3FF4F3A82D
:10436000DFF8D0A29AF80020002A00F0D0820022C4
:104370008AF80020FFF7E7B8AF4B1B78002B40F01E
:104380003482AE4B1B78002B40F02A82019B1B88A5
:10439000002B00F02082AA4B1B78002B40F01682E5
:1043A000A84B1B78002B40F07482A74BA74A2168CA
:1043B00012880020186001232B60D0E60028BFF689
:1043C00075AAA34A4042A2FB0012D20802EB4202A5
:1043D000A0EB8200C0F10C00FFF768BA9D4B01937F
:1043E0001B88002B40F06A82934B0393934B0293FC
:1043F0008E4F3B7883B3984A0496DFF854B24FF05F
:104400000008164610E0ABFB0103DB0803EB430397
:10441000A1EB830101F17300C0B204F01BFA3B78F9
:1044200008F10108434516DD99F8000056F8043FED
:1044300018447F28A0F17F01E5DC0028C0F10001CD
:10444000EADAABFB0103DB0803EB4303A1EB8301D7
:10445000C1F10C00E0E7049E039B1B78002B3FF4A6
:1044600008AA99F80030A3F10C007F2840F32B82B2
:10447000774A8B3BA2FB0312D20802EB4202A3EB6A
:10448000820303F17300C0B204F0E4F99AF800303B
:10449000002B00F08280654F3B78002B00F0BE823D
:1044A0006D490496DFF8A8B14FF000080E4611E000
:1044B000ABFB0203DB0803EB4303A2EB830202F135
:1044C0007300C0B204F0C6F93B7808F10108434517
:1044D00040F3098256F8042F99F800301344A3F1F1
:1044E0000C007F28A3F18B02E2DC0028C3F10C034F
:1044F000E7DAABFB0302D20802EB4202A3EB820332
:10450000C3F10C00DDE70139FFF707BB002323707F
:104510000346FFF7ABBA012148E4029B1B78039ADC
:10452000127813437FF4AFA9019B1B88FFF7B0B942
:10453000243B012BB7F800B0B8BF01239B457FF4A3
:10454000A7ACFFF73BBB454A1278002A3FF425A8E9
:10455000FFF710B83F4A01921288002A3FF47EAF5D
:10456000384604F077F99AF80030002B7FF440AF1A
:1045700072E741F6FF70FFF7EFBB0028BFF66BAEA6
:10458000334AC3F10C03A2FB0312D20802EB42022E
:10459000A3EB8203C3F10C005DE6029B1B78002BAA
:1045A000BDD099F80000FCF7D3FCFFF767B9DFF83E
:1045B000B080C0B298F8001004F00EF9FFF77AB995
:1045C000274B3078197804F007F9A6E53078FCF726
:1045D00069FB9DE53368A3F10C007F2840F35E8101
:1045E0001B4A8B3BA2FB0312D20802EB4202A3EB55
:1045F000820303F17300DFF86880C0B298F80010FE
:1046000004F0EAF89AF80030002B3FF47CAD074F35
:104610003B78002B3FF477AD0F4ACDF81090002384
:10462000B1469B46164632E0F89AFF1F4E8DFF1F9B
:104630005498FF1F949AFF1F029BFF1FF69AFF1FBB
:10464000FD9AFF1FFC9AFF1F8099FF1F8699FF1F8D
:10465000ABAAAAAAC49AFF1FA48DFF1F5198FF1FDF
:10466000169BFF1FBD4BA3FB0C12D20802EB4202AC
:10467000ACEB820C0CF1730098F80010C0B204F09F
:10468000ABF83A780BF1010B5A4540F3328156F8FA
:10469000041FD9F800201144A1F10C007F28A1F1DA
:1046A0008B0CDFDC0028C1F10C01E5DAAB4BA3FB7E
:1046B0000102D20802EB4202A1EB8201C1F10C001F
:1046C000DAE7A74F387801F0BBF9A64B1B78002B2F
:1046D0004CD03B887E2B49D8A34EDFF890923268AD
:1046E000D9F80010521A0F2A3AD9013399B2A04BC7
:1046F00039801888002850D0C9B2C0B204F02EF812
:104700009C4F98F800303268C9F800203B70FEF7E3
:1047100055BE243B012BB8BF01237BE47F21FFF76B
:1047200045BB531CDBB2022B3FF6F0AE23700346B1
:10473000FFF79CB999F8000004F08CF8F4E6884B78
:10474000894E19886A2004F07DFA98F800303B7091
:10475000FEF734BE8B42A8BF0B46FFF72AB8824E45
:10476000844F98F800303B70FEF728BE824B1B78D0
:10477000002BF4D039880029F1D07B4EDFF8EC9182
:104780003368D9F800209B1A0F2BE9D9784B0139EF
:10479000188889B239800028AED1C8B204F092F8E6
:1047A000AEE70123FFF740B800231370FEF708BF00
:1047B00000271770FEF7D9BE4FF0000C87F800C035
:1047C000FEF7E7BE41F6FF70FFF704B80021402076
:1047D00003F0C4FFE4E599F8000004F03BF8DAE5E3
:1047E00099F80000FCF7B4FBD0E599F80030A3F18C
:1047F0000C007F2840F39080584A8B3BA2FB0312A9
:10480000D20802EB4202A3EB820303F17300C0B2B1
:1048100004F020F89AF80030002B3FF4B2AD574F67
:104820003B78002B3FF4ADADDFF854A14B4E4FF079
:10483000000811E0A6FB0213DB0803EB4303A2EB25
:10484000830202F17300C0B204F004F83B7808F16F
:10485000010843457FF795AD5AF8042F99F80030C9
:104860001344A3F10C007F28A3F18B02E2DC0028A3
:10487000C3F10C03E7DAA6FB0312D20802EB4202F3
:10488000A3EB8203C3F10C00DDE703F0E3FFFEF7C7
:1048900030BF0021422003F061FF86E50028BFF60B
:1048A000AAAE2E4AC3F10C03A2FB0312D20802EBFC
:1048B0004202A3EB8203C3F10C009CE6314B03934D
:1048C000314B02934CE60028BFF6DDAD234AC3F11D
:1048D0000C03A2FB0312D20802EB4202A3EB8203F9
:1048E000C3F10C00CFE5049EFEF7C3BF7F23FEF7A4
:1048F0009BBF4E46DDF8109005E49842A8BF1846CD
:10490000224B1860FFF7FDB90138FFF725BA1E4F9B
:104910001F4A0297FEF710BE0028BFF678AF0F4A75
:10492000C3F10C03A2FB0312D20802EB4202A3EB79
:104930008203C3F10C006AE74FF47A43013BFDD1D7
:1049400099F8000003F086FFFFF7F1BB00F0F8FFD5
:10495000FFF781B80138FEF73DBF00BFABAAAAAA96
:10496000489AFF1F5598FF1FA099FF1F609AFF1FCD
:10497000469AFF1F3D9AFF1F5498FF1F4E8DFF1F41
:10498000A48DFF1F029BFF1FF69AFF1F8099FF1F38
:10499000FD9AFF1F5D4B1B78002B7EF48FAD5C4BA7
:1049A000AEF1240181F3470119605B20C9B203F025
:1049B000D5FE98F80030032B7EF47EADDFF85481ED
:1049C00098F80020002A40F08480534F3B78002B59
:1049D00073D14E4E3378002B63D1504B1B78002B94
:1049E00053D14F4A13804F4B1B78002B30D14E4B85
:1049F0007F221A803A7898F80030134332781343B4
:104A00007EF45AAD494A7F210720138003F0A6FEA9
:104A10007F210B2003F0A2FEFEF74EBD029B1B7808
:104A2000002B3EF430AFBCE53C4B1B78E3B13A4B76
:104A30001B78002B7EF442AD344B1B78002B3EF4E8
:104A40003DAD3B880A3B3B80394B1A70FEF736BDC3
:104A5000354B00227F2107201A8003F07FFE7F2143
:104A60000B2003F07BFEC5E72B4B1B78002B7EF45D
:104A700025AD264B1B78002B3EF420AD3B88013B37
:104A80003B802B4B1A70FEF719BD254B01227F216D
:104A900007201A8003F062FE7F210B2003F05EFEE8
:104AA000A1E7224B04227F2107201A8003F056FE43
:104AB00000210B2003F052FE8FE71C4B02227F21C6
:104AC00007201A8003F04AFE7F210B2003F046FEE8
:104AD0007FE7164A00210720138003F03FFE7F2165
:104AE0000B2003F03BFE70E70B4B1B78002B7FF491
:104AF00051AF064B1B78002B3EF4E0AC3B880133F2
:104B00003B800B4B1A70FEF7D9BC00BF5398FF1FB8
:104B1000CC9AFF1F5098FF1F5298FF1F5198FF1FFC
:104B20005499FF1F5498FF1F149BFF1F5699FF1F96
:104B3000C299FF1F10B508F085FE0A4806F0C4F9B7
:104B40004FF07E52012100230748FBF785FC074800
:104B5000074A08498023002403710460BDE810401F
:104B60000CF064B9089BFF1F6099FF1FB099FF1FED
:104B7000348DFF1FA905000010B50446A42063680A
:104B8000198804F05FF8E368A620BDE81040198892
:104B900004F058B803462A205B68198804F052B81C
:104BA00010B5044622206368198804F04BF8E368C6
:104BB0002420BDE81040198804F044B810B504461C
:104BC0000A206368198804F03DF8E3680C20BDE80A
:104BD0001040198804F036B810B504460620636802
:104BE000198804F02FF8E3680820BDE81040198800
:104BF00004F028B810B5044602206368198804F050
:104C000021F8E3680420BDE81040198804F01AB8C0
:104C100070B50E4D84B0122604220123CDE9002682
:104C200004460390029328461423102108F08EF8BE
:104C3000062209230293CDE90026039414231021B0
:104C4000284608F083F804B070BD00BF949BFF1F96
:104C500070B5A04DB5F90030032B0BD07BB3022B00
:104C60004DD0052B78D0012B00F0A380042B00F051
:104C7000CB8070BD10200AF091FAC830B0F57A6F81
:104C8000A8BF4FF47A60B0F5FA7FB8BF4FF4FA705E
:104C900000F51673B3F57A6F8F4A904C81B2A8BFB6
:104CA0004FF47A6322201180238003F0CBFF218808
:104CB000242003F0C7FFB5F90030002BCFD10E2020
:104CC00008F030FD40F6FF73C8309842A8BF184680
:104CD00020EAE07081B200F2DC509842804CA8BF1C
:104CE0001846804B20800220198003F0ABFF2188FA
:104CF000042003F0A7FFB5F90030022BB1D1172033
:104D00000AF04CFA044616200AF048FA8442B8BF6A
:104D1000044604F1C800B0F57A6FA8BF4FF47A607A
:104D2000B0F5FA7FB8BF4FF4FA7000F54873B3F5E9
:104D30007A6F6D4A6D4CA8BF4FF47A6381B20A2036
:104D40001180238003F07EFF21880C2003F07AFF7E
:104D5000B5F90030052B86D10F200AF01FFAC0F5F7
:104D60003F610431B1F5FA6FA8BF4FF4FA61C0F5A5
:104D70004363B1F5AF6FB8BF4FF4AF61B3F5FA6FEE
:104D8000A8BF4FF4FA63B3F5AF6F594A594CB8BF97
:104D90004FF4AF6389B2A4201180238003F052FF47
:104DA0002188A62003F04EFFB5F90030012B7FF4D7
:104DB0005DAF0B2009F00EF9002840F08680152029
:104DC00008F0B0FC00F5967041F25C239842A8BF51
:104DD0001846B0F52F7FB8BF4FF42F7081B200F5A1
:104DE00016709842444CA8BF1846444B20800620B9
:104DF000198003F027FF2188082003F023FFB5F96D
:104E00000030042B7FF435AF3D4E00244FF4AF75D6
:104E1000E1B2304606F05CF801348542A8BF054691
:104E20000C2CF5D101200AF0B9F93649364AA0F127
:104E3000320301FB03F36FF46770034482FB031238
:104E40001A44DC17C4EBA224002BACBF04F25F149D
:104E500004F5AF74AC424FF00000A8BF2C460AF036
:104E60009DF92849284AA0F1320301FB03F36FF4AE
:104E700067710B4482FB03121A44D917C1EBA221BC
:104E8000002BACBF01F25F1101F5AF71A142A8BFC9
:104E9000214614393229B8BF322140F23A70A1F5C7
:104EA000AF7300FB03F3194A194C963B82FB0302D4
:104EB000DB17A3EB621389B2164A21803233BDE8B7
:104EC00070402A20136003F0BDBE11200AF066F97D
:104ED000C83079E7409BFF1FD499FF1FD299FF1F6D
:104EE0008499FF1F8699FF1FAC9AFF1FAA9AFF1F84
:104EF0005C9AFF1F509AFF1FBA9AFF1FBC9AFF1FB0
:104F0000089BFF1FD4FEFFFFC70FB38DB5814E1B5B
:104F10009E99FF1FD08DFF1F2DE9F041214D82B0DA
:104F2000012602B284B2CDE9002628467823192151
:104F300007F074FD04F10C0212B2CDE900262846F8
:104F400004EB060878231921A71C07F067FD0FFA68
:104F500088F83FB219230097194642462846019621
:104F600007F05CFD782342460097194628460196D3
:104F700004F10A070B3407F051FD3FB224B2782345
:104F800019463A462846CDE9004607F047FD192361
:104F9000CDE900463A461946284607F03FFD02B0E3
:104FA000BDE8F081949BFF1FF0B5164E164FB6F981
:104FB0000030834283B00D4603D1B7F900308B42F5
:104FC0001DD00023009304B25B23104826221C212D
:104FD00006F022FF01230D482622214606F0B6FDE9
:104FE0006B1C04D1012034803D8003B0F0BD2DB294
:104FF000064801232622294606F0A8FDF2E70020F4
:1050000003B0F0BDE08DFF1FE28DFF1F949BFF1FDB
:105010002DE9F041AA4D2B7882B01BB1A94B4FF678
:10502000FF721A80A84BB3F900303BB1013B042B4F
:105030001DD8DFE803F042699AB72100A34BA448CA
:105040001B685A2283F30C0302FB03F303F2FF7382
:10505000A0FB03201B1A00EB5300C00A4FF0FF31E6
:105060001C30FFF7A1FF10B19A4807F02DFB002379
:105070002B7002B0BDE8F0810F200AF08FF8C0F568
:105080003B600830B0F5FA6FA8BF4FF4FA60B0F596
:10509000AF6FB8BF4FF4AF605A23A0F5AF6003FB0A
:1050A00000F08D4B00F59670A3FB003080094FF0A7
:1050B000FF311C30FFF778FFD5E7884B1B78002BBA
:1050C00000F0F980152008F02DFB024641F25C2328
:1050D0009342A8BF1346B3F52F7FB8BF4FF42F7389
:1050E0005A21A3F52F7301FB03F37D497D4C03F592
:1050F000FA63A1FB03131B0A4FF0FF3103F11C00FD
:105100002260FFF751FFAEE7774B784A1B681268C1
:10511000B3F57A6FA8BF4FF47A63B2F57A6FA8BF80
:105120004FF47A62B3F5FA7FB8BF4FF4FA73B2F571
:10513000FA7FB8BF4FF4FA72A2F5FA71A3F5FA70CC
:105140005A2303FB00F003FB01F1694B01F2D66126
:1051500000F2D660A3FB0121A3FB0030C90AC00AFC
:105160001C311C30FFF720FF7DE7624B604A1B6853
:10517000B3F57A6FA8BF4FF47A63B3F5FA7FB8BF7F
:105180004FF4FA735A21A3F5FA7001FB00F000F214
:10519000D660A2FB0020C00A4FF0FF311C30FFF7A1
:1051A00003FF60E727220024CDE900244948524F3D
:1051B000DFF82481474E76231C2107F02FFC16E0F0
:1051C000B0F5AF7FA8BF4FF4AF70A0F1320103FB81
:1051D00001F19631A8FB013149091C3109B20123C3
:1051E0001C442722304606F0B1FC0C2C09D0E1B259
:1051F000384605F06DFE31284FF05A03E0D81C21E7
:10520000EDE7012009F0CAFF3C4B3D49A0F1320215
:1052100003FB02F26FF46770024481FB0231114418
:10522000D317C3EBA123002AB4BF03F5AF7303F276
:105230005F13B3F5AF7FA8BF4FF4AF73322BB8BF86
:105240003223A3F132045A2303FB04F4224B963495
:105250000020A3FB043409F0A1FF284B2849A0F14A
:10526000320203FB02F26FF467731A4481FB0231CE
:105270001144D317C3EBA123002AB4BF03F5AF73C6
:1052800003F25F13B3F5AF7FA8BF4FF4AF73322BB8
:10529000B8BF3223A3F132015A220F4B02FB01F1B6
:1052A0009631A3FB013164091C3449091C312046A5
:1052B000FFF77AFED8E6112009F070FF024605E7F5
:1052C0004A9BFF1FE08DFF1F409BFF1FC09AFF1FDF
:1052D00001011000949BFF1FB5814E1B4599FF1FD4
:1052E000D34D62104899FF1FA09AFF1F9C9AFF1F81
:1052F0001BECCB95C499FF1F089BFF1FD4FEFFFF3B
:10530000C70FB38D2DE9F043834D044683B0284683
:10531000E668D4F8008007F0C7F91120FFF7FCFD1C
:10532000012719234FF028091946242228460197FE
:10533000CDF8009007F072FB782319462422284606
:10534000CDF80090019707F069FB3946284608F030
:105350001BF8724B2B61B8F1000F07D040460CF0E0
:10536000EFFE4146024628460BF060FA6A480BF011
:10537000BFFA4FF4A0136A4967482B6103220BF070
:1053800055FA65480BF0B4FA4FF40C1365496248BE
:105390002B6103220BF04AFA5F480BF0A9FA002EAA
:1053A00040F09080604B012738461F70FFF730FCBB
:1053B0006368628919882389D21A61D0C91A02EBFD
:1053C000D2735C205B1000FB013303FB02F1002968
:1053D00093FBF2F3554AACBF1B331A3399B21180D9
:1053E0001A2001221BB2CDE9000219464A481422B4
:1053F00007F014FB002E4ED0238A628AE168D21A8D
:10540000098800F08680CB1A02EBD2715C2049102B
:1054100000FB031191FBF2F301FB02F2002AACBF87
:105420001B331A3399B21BB2414A3B481180012603
:105430003822CDE900261946322207F0EFFA092377
:1054400000220093402301921946334807F038FBAD
:105450003146314807F098FF6368364A2A61198857
:105460002D480BF03DFA34492B4832460BF0DEF95B
:10547000E3682948198803B0BDE8F0430BF030BA5F
:105480002A4A019749231A2100912348138019467B
:10549000142207F0C3FA402300220921CDE90012AB
:1054A0001D48194607F00CFB1B48012107F06CFF53
:1054B0006368224A2A611988174803B0BDE8F0439F
:1054C0000BF00EBA2F20FFF727FD1D4912480322CB
:1054D0004FF448132B610BF0A9F90F480BF008FAB1
:1054E0000127114B38461F70FFF792FB63686289F2
:1054F00019882389D21A7FF461AF0C4A0197492396
:105500001A210091044813801946142207F086FAE4
:1055100072E74923194687E7949BFF1F1900020091
:10552000783101007C310100909BFF1F469BFF1FDB
:10553000489BFF1F44000200843101006800020004
:10554000803101002DE9F047D0F80C8082B01E4672
:105550001446002A4AD0052A054654D00B9B864A99
:1055600000EBC307012C78893989D7F804C0A0EB78
:10557000010382FB03E21A444FEAE373C3EBA21375
:10558000BCF8002000F0F280042C77D07B4F7B48E1
:1055900000224023092100910192194607F090FA58
:1055A0007648012107F0F0FEB8F1000F00F0D4803A
:1055B000734B3B616B68714819880BF091F9714925
:1055C0006E4801220BF032F9EB686C4819880BF039
:1055D00087F96D4B022CB3F9001000F09080082C75
:1055E00000F0C280012002B0BDE8F087674D684A34
:1055F0002B681268CB1A93420F4600F2988020461F
:1056000002B0BDE8F0875D4F4FF007094FF0000A88
:105610005A2323223846CDE9009A1A2107F050FA7E
:105620003846012107F0B0FE5A4B3B614FF00113A1
:105630004A467B61584938460BF0F8F838460BF07B
:1056400057F9384607F040F84FF4FA6008F02CFD9F
:10565000FFF7FEFA5A2323221A213846CDE9009A91
:1056600007F02EFA384607F02FF82846FFF74AFED3
:105670004A4B01221A70FFF7CBFC88E712FA83F23B
:10568000914203DC9042A8BF104681B20A9AACF85E
:105690000010B6F90030394802F106090FFA82FA13
:1056A0000FFA89F9002219460192CDF8009052466E
:1056B00007F0B4F97B687A8919883B89D21A58D0E7
:1056C000C91A02EBD2735B105C2000FB013303FBB1
:1056D00002F1002993FBF2F3ACBF1B331A339AB2E9
:1056E0001BB2012132802548019152461946CDF85E
:1056F000009007F093F92A4B00221A7046E74A1CE3
:1057000012B291421A803FF46DAF0A9AB6F9003096
:105710001A480632012412B2CDE900240A9A194629
:1057200012B207F07BF9204602B0BDE8F0871C49B1
:1057300033880A781148013A18BF012201920A7091
:105740000A9A063212B200920A9A1BB212B2194693
:1057500007F064F92F6045E76B68124A3A611988CF
:1057600006480BF0BDF834E70022CAE79BB2D21A14
:1057700086E749231A46B4E7C94216B2949BFF1F35
:105780004400020084310100429BFF1F8C9BFF1FDD
:10579000284A010035002300883101004A9BFF1F81
:1057A000909BFF1F680002002DE9F04F594F5A4DA2
:1057B00091F801A09846B7F9003083B055F82390CE
:1057C0000646BAF1000F01D091F800A0DFF84CB105
:1057D0001AB99BF80030002B38D0514D00234846B1
:1057E0002B808BF80030FFF78DFD4E4A4E4BB5F9FC
:1057F0000040012111704FF6FF721A805CB3012C3A
:105800005246314647D032230124CDE90034484680
:10581000464BFFF797FE00260446B5F90030022BF1
:1058200046DD00232B80B7F90030002B49DB052B28
:10583000C4BF00233B80B8F1000F47D1002E0CBF3E
:1058400020464FF0FF3003B0BDE8F08F344DB5F97E
:105850000040002CD3D1364B364A19681368F31A2E
:105860008B420AD9344B18780124001B18BF012041
:105870001870FFF7CDF92F4A1660BAF1010F36D034
:10588000BAF1040F25D0BAF1020F36D0BAF1080FE1
:1058900037D00026C1E71423002600930196274B3A
:1058A0004846FFF74FFEB5F90030022B0446B8DC3E
:1058B000B9D1D9F80C30002BB3D0B7F90030002B98
:1058C000B5DA05233B80B8F1000FB7D0FFF7A0FB96
:1058D000B4E73B88013B1BB23B80D9F8143001226E
:1058E0008BF800203BB100264846984795E73B8857
:1058F00001331BB2F0E71E468FE701232B80002601
:1059000091E7D9F8143000222A804FF0FF36002B9F
:10591000EAD188E7409BFF1FE48DFF1F449BFF1FD8
:10592000429BFF1F4A9BFF1FE08DFF1F489BFF1FED
:10593000284A01008C9BFF1F909BFF1F469BFF1F67
:1059400001210D2008F020BB00210D2008F01CBB18
:1059500001460D2008F018BB08B50D2008F03AFBF1
:10596000B0FA80F1BDE8084049090D2008F00CBBF1
:1059700010B50446002164080D2008F005FB204600
:1059800008F092FB0D20012108F0FEFA2046BDE848
:10599000104008F089BB00BF08B5234A234B1268AA
:1059A0001B8893421ADA22490888B0EB030C37D0DF
:1059B0000CEBDC718242D4BFC3EB0203C3EB0003E8
:1059C000491040F2532202FB031101FB0CF3002BA0
:1059D00091FBFCF1ACBF0531043100E000210A204D
:1059E00008F048F9134B1978A9B1134B13491B68F8
:1059F00040F2271283F3070302FB03F33F33A1FBBB
:105A000003215B1A01EB53018909BDE80840053108
:105A1000092008F02FB9BDE80840092008F02AB98C
:105A20004FF49771DBE700BF8099FF1F8699FF1F36
:105A30008499FF1FB69AFF1F8C9AFF1F110804025A
:105A40007F28A8BF7F204FF4167300FB03F3104993
:105A50003F33A1FB03215B1A01EB530110B5890908
:105A600004460A2008F006F9A4F17F034FF4967269
:105A700002FB03F307493F3B81FB03211944DB177A
:105A8000BDE81040A3EBA111092008F0F3B800BF56
:105A9000110804020904028138B5094D8224204608
:105AA00004F000FC35F8021F00B28842204601D005
:105AB00003F0C8F80234A4B28A2CF0D138BD00BF7C
:105AC000EC9AFF1F024B4420198803F0BBB800BFBB
:105AD000D49AFF1F024B7620198803F0B3B800BF99
