:1000000000800020BD01000015DD0000CDDC0000F7
:10001000CDDC0000CDDC0000CDDC0000CDDC00003C
:10002000CDDC0000CDDC0000CDDC000015DD0000E3
:1000300015DD0000CDDC0000850701008907010007
:1000400015DD000015DD000015DD000015DD0000E8
:1000500015DD000015DD000015DD000015DD0000D8
:1000600015DD000015DD000015DD000015DD0000C8
:1000700015DD000015DD000015DD000015DD0000B8
:1000800015DD000015DD000015DD000015DD0000A8
:1000900015DD000015DD000015DD000015DD000098
:1000A000E1B20000EDB2000015DD000015DD00003A
:1000B00015DD000015DD000015DD000015DD000078
:1000C00015DD000015DD000015DD000015DD000068
:1000D00015DD000015DD000015DD000015DD000058
:1000E00015DD000015DD000015DD000015DD000048
:1000F00015DD000015DD000015DD00007DEC0000C1
:1001000015DD000091F3000015DD000015DD000095
:1001100015DD000015DD000015DD000015DD000017
:1001200015DD000015DD000015DD000015DD000007
:1001300015DD000015DD000015DD000015DD0000F7
:1001400015DD000015DD000015DD000015DD0000E7
:10015000550B0100690B01007D0B0100910B0100A3
:1001600015DD000011F7000015DD000015DD0000B1
:1001700015DD000015DD000015DD000015DD0000B7
:1001800015DD000015DD000015DD000015DD0000A7
:1001900015DD000015DD000015DD000015DD000097
:1001A00015DD000015DD000015DD000015DD000087
:1001B00015DD000015DD000015DD0000564B4CF28A
:1001C000205210B51A804DF628121A8000BF00BFC9
:1001D0000DF0A4FD514B4FF010621A60504A9A6026
:1001E000504ADA60504A136813F4807304D14F49BF
:1001F0000B604FF4A85313604D4B1A78110703D5C9
:100200001A7842F008021A704A4B4B492A221A7097
:100210004A4A4B4B8B4204D252F8040F43F8040B6A
:10022000F8E7484B484900228B4202D243F8042B9E
:10023000FAE74649464A002352F8230041F82300D2
:1002400001336F2BF8D1434B434A802103F8011B44
:100250009342FBD1414B3D4A1A60414B8A221A70AE
:10026000A3F5805324225A70A0221A709A7992071B
:10027000FCD59A79D406FCD43A4A937903F00C035E
:10028000082B384BF9D103221A7140225A719A79FE
:100290009006FCD5334A9179324B4906FBD5324A58
:1002A000324911600221516020221A709A7902F0BD
:1002B0000C020C2AFAD12E4B2E4A1A602E4B2F4AD2
:1002C0001A6000225A60072243F8042C2C4AC3F813
:1002D0000C2D62B60EF0ACF8144B1B68DA0705D58E
:1002E00028480DF079FE284B284A1A60284B1B78C5
:1002F0005B0609D5244C254B22689A4204D121483B
:100300000DF06AFE0023236011F0C6FF0DF00CFD16
:1003100010F0BAFCFEE700BF0E200540308004401C
:10032000823F04000100002B10D0034014D0034092
:1003300002D0074000E0074074A1FF1F00610100E8
:10034000308CFF1F74A1FF1FACA9FF1F0082FF1F8D
:100350000000000000E400E05FE400E008ED00E0E1
:100360000050064000400640448004400000030165
:1003700004800440C010050014E000E0FF76010096
:10038000000020204E12D5641CE00340A5C3945AFF
:1003900000F00740FFFFFFFFFFFFFFFFFFFFFFFF32
:1003A000FFFFFFFFFFFFFFFFFFFFFFFFFFFFFFFF5D
:1003B000FFFFFFFFFFFFFFFFFFFFFFFFFFFFFFFF4D
:1003C000FFFFFFFFFFFFFFFFFFFFFFFFFFFFFFFF3D
:1003D000FFFFFFFFFFFFFFFFFFFFFFFFFFFFFFFF2D
:1003E000FFFFFFFFFFFFFFFFFFFFFFFFFFFFFFFF1D
:1003F000FFFFFFFFFFFFFFFFFFFFFFFFFFFFFFFF0D
:10040000FFFFFFFFFFFFFFFFFFFFFFFFDEF9FFFF23
:1004100010B5054C237833B9044B13B10448AFF33E
:1004200000800123237010BD74A1FF1F0000000095
:10043000FC600100084B10B51BB108490848AFF338
:1004400000800848036803B910BD074B002BFBD0A0
:10045000BDE81040184700BF0000000078A1FF1F52
:10046000FC60010074A1FF1F0000000038B50446C5
:10047000104621700A491D4611F0F6FC01464FF066
:100480007E5011F0A5FD074911F0EEFCE5606060BB
:10049000256165610DF05CFFE061204638BD00BF5D
:1004A000DB0FC9400024744938B50446104621705A
:1004B00009491D4611F0D8FC01464FF07E5011F05D
:1004C00087FD064911F0D0FCE5606060256165613B
:1004D0000DF03EFFE06138BDDB0FC94000247449D8
:1004E00038B503780446032B20D8DFE803F01A1848
:1004F0001002C168406911F0ADFB0D490546606806
:1005000011F066FD0146284611F062FD38BD08492C
:10051000406811F05DFDE16811F0A6FC38BDC068CF
:1005200038BDC168406911F095FB38BD002038BD69
:100530000024744970B504460E460DF009FF0546C7
:10054000E069281A11F03CFCE3682361E56166610B
:10055000A0610146606811F03BFD0146A0601048B3
:1005600011F036FD11F00CF810F0A6FC11F01EFB96
:10057000054601464FF07E5011F06CFB616911F0A9
:1005800073FC21690646284611F06EFC0146304690
:1005900011F062FBE0602046BDE87040FFF7A0BFAD
:1005A000000080BF38B50E202C4C0DF06BFA23886C
:1005B0002B4A98420546118838DA1A46C91A32D0B1
:1005C000D31AC3EB033301EBD17203EB620303FBDA
:1005D00001F2002A93FBF1F13BDB14200DF00EFD3C
:1005E000204B1B88A3BB2288954224DB40F6FF7377
:1005F000C2F57F619D4201F10F012846A8BF184650
:10060000F9B1831AC3EB033301EBD17203EB62033D
:1006100003FB01F2002A93FBF1F11CDB2820BDE86B
:1006200038400DF0EBBC40F2FF71D6E7884202463D
:10063000A8BF0A46C2E7C2F57F610F311046002904
:10064000DFD140F2FF712820BDE838400DF0D6BC64
:1006500038BD0139C1E70139E0E700BFDCA2FF1F67
:10066000ACA1FF1F1CA4FF1F70B50C46054634F853
:10067000023B182B0BD00344A3F118007F283EDC6B
:10068000002858DB334BC0B2197808F0C5FE324E53
:100690003278013202F00302D3B2337034F8120020
:1006A000182810D10422032B03F10101CBB20ABF99
:1006B000002359001946605A182803D1013AF2D193
:1006C000337070BD33702844A0F118037F2B08DC11
:1006D000002B22DB1F4AD8B21178BDE8704008F029
:1006E0009BBE1E4B973883FB0032C317C3EB6203DC
:1006F00003EB4303A0EB830000F17303EAE7174A1F
:10070000973B82FB0321DA17C2EB610202EB420244
:10071000A3EB820303F17300B4E710485A4280FB55
:100720000230D317C3EB600000EB4000A2EB800067
:10073000C0F10C03CEE7094B424283FB0230D317D2
:10074000C3EB600303EB4303A2EB8303C3F10C0091
:1007500098E700BFA8A2FF1FC88DFF1FABAAAA2A57
:10076000F8B5814B814D1B88C31A044685FB0306EF
:10077000D817C0EB660000EB4000A3EB800303EB4F
:1007800043039B00CE18C8582044002A3DD07F2840
:1007900040F38180A0F17F0385FB0320DA17C2EBD1
:1007A000600000EB4000A3EB80007330704F714D90
:1007B0003978C0B208F030FE2B88022B7AD97068E5
:1007C00020447F2877DC0028C0F2BF80C0B239788F
:1007D00008F022FE2B88032B6CD9B06820447F28B8
:1007E00040F38580614CA0F17F0384FB0320DA177E
:1007F000C2EB600000EB4000A3EB8000733039785F
:10080000C0B2BDE8F84008F007BE7F2834DDA0F193
:100810007F0385FB0320DA17C2EB600000EB40008A
:10082000A3EB80007330534DC0B208F019FE2B8843
:10083000022B3FD9706820447F284ADC002876DBF1
:10084000C0B208F00DFE2B88032B33D9B0682044CA
:100850007F285CDD454CA0F17F0384FB0320DA1781
:10086000C2EB600000EB4000A3EB80007330C0B22D
:10087000BDE8F84008F0F4BD0028D4DA4342D817A8
:1008800085FB0325C0EB650505EB4505A3EB850559
:10089000C5F10C00C7E7002888DA434285FB032036
:1008A000DA17C2EB600000EB4000A3EB8000C0F160
:1008B0000C007BE7F8BD2D4AA0F17F0382FB0320EB
:1008C000DA17C2EB600000EB4000A3EB800073304E
:1008D0007CE7264AA0F17F0382FB0320DA17C2EBF4
:1008E000600000EB4000A3EB80007330A8E7002815
:1008F00085DA1E4A434282FB0320DA17C2EB60000E
:1009000000EB4000A3EB8000C0F10C0077E700286B
:10091000ADDA164A434282FB0320DA17C2EB6000CD
:1009200000EB4000A3EB8000C0F10C009FE70F4AF2
:10093000434282FB0320DA17C2EB600000EB400069
:10094000A3EB8000C0F10C007AE7084A434282FB27
:100950000320DA17C2EB600000EB4000A3EB80003D
:10096000C0F10C0032E700BF08A4FF1FABAAAA2AFF
:10097000A8A2FF1FF8A1FF1F2DE9F8439F4B1B887A
:10098000013B092B00F2EF80DFE803F00A10161C90
:1009900022282EBCC1059A49BDE8F843FFF764BE82
:1009A00001229849BDE8F843FFF7DABE01229649D3
:1009B000BDE8F843FFF7D4BE01229449BDE8F843EF
:1009C000FFF7CEBE01229249BDE8F843FFF7C8BE4B
:1009D00001229049BDE8F843FFF7C2BE01228E49CB
:1009E000BDE8F843FFF7BCBE8C4B8D4A1B8804461C
:1009F00010881D18002800F08F808A4A1288033260
:100A0000934200F38980022D40F3AD80DFF82C92F1
:100A10008549B9F80020DFF82882844FA21A81FBAB
:100A20000230D317C3EB6000B8F8003000EB400091
:100A3000A2EB800203EBC30302EB42021B0103EBB8
:100A400082033B44586820447F2840F3AA80A0F1E9
:100A50007F0381FB0320DA17C2EB600000EB40004C
:100A6000A3EB80007330724EC0B2317808F0D4FC32
:100A7000032D78D0B9F800206B48B8F80030A21ADE
:100A800080FB021ED117C1EB6E0101EB410103EBAC
:100A9000C303A2EB81011A0101EB410302EB8303C3
:100AA0003B449B6823447F2B6CDDA3F17F0280FBDA
:100AB0000230D317C3EB600303EB4303A2EB8303C2
:100AC0007333D8B2317808F0A7FC042D4BD0554BC6
:100AD0001B88012B47D1A4F10C007F2871DD524BFC
:100AE000A4F18B0083FB0032C317C3EB620303EB5B
:100AF0004303A0EB830073303178C0B2BDE8F84304
:100B000008F08ABC4B49BDE8F843FFF7ADBD4A4940
:100B1000BDE8F843FFF7A8BD484B43491B88484F41
:100B2000E31A81FB0326DA17C2EB66063A883F4FC9
:100B300006EB4606A3EB860302EBC20203EB43037C
:100B4000120102EB8303A0EB8000FB58234403EB6C
:100B500080007F2809DC002843DB354BC0B21978C0
:100B600008F05AFC4FE7BDE8F883A0F17F0381FB52
:100B70000320DA17C2EB600000EB4000A3EB80001B
:100B80007330EAE7002B9CDA5A4280FB0230D3171D
:100B9000C3EB600000EB4000A2EB8000C0F10C034F
:100BA0008FE70028BFF65FAF4342D81781FB0321D0
:100BB000C0EB610101EB4101A3EB8101C1F10C002C
:100BC00051E7002898DA184A434282FB0320DA17DB
:100BD000C2EB600000EB4000A3EB8000C0F10C0012
:100BE0008AE74342D81781FB0321C0EB610101EB87
:100BF0004101A3EB8101C1F10C00AEE7E6A3FF1FA9
:100C0000DCA1FF1FD4380100983C0100283D010001
:100C1000083C01001C3501001C3E0100F8A1FF1F2B
:100C2000B0A2FF1F20A2FF1FABAAAA2AD035010045
:100C3000A8A2FF1FC4A1FF1FD0A1FF1F08A4FF1F70
:100C4000D2A3FF1F0A88182A38B50C46054609D0DA
:100C50000244A2F118007F2829DC002848DBC0B23A
:100C600008F0FEFB294B197804EB41046388182B2C
:100C70002BD02B44A3F118007F2806DC002825DBAD
:100C8000C0B2BDE8384008F0EBBB2148973B80FB81
:100C90000320DA17C2EB600000EB4000A3EB8003F7
:100CA00003F17300C0B2BDE8384008F0D9BB184862
:100CB000973A80FB0230D317C3EB600000EB400093
:100CC000A2EB800202F17300C9E738BD104B42422B
:100CD00083FB0230D317C3EB600303EB4303A2EBA8
:100CE0008303C3F10C00C0B2BDE8384008F0B8BBC4
:100CF000074A414282FB0132CB17C3EB620202EB8F
:100D00004202A1EB8202C2F10C00A8E7C88DFF1FCE
:100D1000ABAAAA2A2DE9F843A54B1B88013B092B56
:100D200000F20381DFE813F00F0015001B00210023
:100D300027002D003300F700FC000A009D49BDE8A4
:100D4000F843FFF77FBF00229B49BDE8F843FFF758
:100D500007BD00229949BDE8F843FFF701BD002215
:100D60009749BDE8F843FFF7FBBC00229549BDE871
:100D7000F843FFF7F5BC00229349BDE8F843FFF7BD
:100D8000EFBC00229149BDE8F843FFF7E9BC904E63
:100D900004463088002800F0CA808E4B8E4D1A8899
:100DA0002B880332934234DD8C4B8D491B88DFF84E
:100DB00040E2E31A81FB0327DA17C2EB6707BEF8AC
:100DC0000020DFF820E207EB4707A3EB870302EBE5
:100DD000C20203EB4303120102EB8303A0EB80008A
:100DE0005EF80330234403EB80007F2840F3A180AA
:100DF000A0F17F0381FB0320DA17C2EB600000EB58
:100E00004000A3EB80007330C0B208F029FB2B88B0
:100E100030881844022840F38880DFF8C091704978
:100E2000B9F80020DFF8C8816E4FA21A81FB0230AA
:100E3000D317C3EB6000B8F8003000EB4000A2EB22
:100E4000800203EBC30302EB42021B0103EB8203AC
:100E50003B44586820447F2840F38A80A0F17F03F8
:100E600081FB0320DA17C2EB600000EB4000A3EB2C
:100E700080007330C0B208F0F3FA2A883388134434
:100E8000032B52DDB9F800205548B8F80030A21AFB
:100E900080FB021ED117C1EB6E0101EB410103EB98
:100EA000C303A2EB810101EB41011A0102EB8103B3
:100EB0003B449B6823447F2B4BDDA3F17F0280FBE7
:100EC0000230D317C3EB600303EB4303A2EB8303AE
:100ED0007333D8B208F0C4FA2A8833881344042B39
:100EE00023DD3C4B1B88012B1FD1A4F10C007F2874
:100EF0004EDD3B4BA4F18B0083FB0032C317C3EBE9
:100F0000620303EB4303A0EB83007330C0B2BDE880
:100F1000F84308F0A5BA3449BDE8F843FFF792BE9C
:100F20003249BDE8F843FFF78DBEBDE8F8832A4D8E
:100F30003AE70028BFF668AF4342D81781FB032188
:100F4000C0EB610101EB4101A3EB8101C1F10C0098
:100F50005AE7002BBDDA5A4280FB0230D317C3EBAD
:100F6000600000EB4000A2EB8000C0F10C03B0E792
:100F70000028BFF67FAF4342D81781FB0321C0EBA7
:100F8000610101EB4101A3EB8101C1F10C0071E7AB
:100F90000028BBDA124A434282FB0320DA17C2EB75
:100FA000600000EB4000A3EB8000C0F10C00ADE757
:100FB000E6A3FF1FDCA1FF1FD4380100983C01000D
:100FC000283D0100083C01001C3501001C3E0100C9
:100FD000B0A2FF1F20A2FF1FF8A1FF1F08A4FF1F40
:100FE000ABAAAA2AD0350100C4A1FF1FD0A1FF1FC0
:100FF000D2A3FF1F10B504460FF08AFD204610BD96
:1010000070B44C88A04220D901230133DBB21CB25A
:10101000660031F8144084421D46F6D3A04211D038
:1010200005F10045013D965B31F8151032F8153099
:10103000401AF21A00FB02F0641A90FBF4F4E01874
:1010400070BC7047905B70BC704702260125E5E7D5
:1010500038B5274B1B78002B37D015200CF012FD2C
:10106000244B1860244B1B88984204DA234C2378C5
:10107000002B32D138BD224A1288D11A2BD082429D
:10108000D4BFC3EB0203C3EB000301EBD174C3EB8A
:10109000C31303EB640303FB01F2002A93FBF1F497
:1010A000B8BF04F1FF34002CE0D0144B1A780AB911
:1010B00001221A70134D2B689C4204D0124BE1B2EE
:1010C000187808F079F92C6038BD11200EF020FA5C
:1010D000084B1860C6E73F24E7E70B4B0021187860
:1010E00008F06AF90023074A2370136038BD00BF77
:1010F000E8A3FF1FA4A1FF1F74A2FF1FB4A4FF1F3A
:1011000048A4FF1FACA4FF1F28A2FF1F08B51B4B5C
:101110001B785BB315200CF0B5FC194B1860194A0D
:101120001278FAB118491A680B8893421ADC1749E9
:101130000988C81A20D08A42D4BFC3EB0203C3EB8C
:101140000103A3EB830300EBD072A3EB620303FB69
:1011500000F2002A93FBF0F3B4BF043305330C4ACA
:10116000136008BD0A4B00221A6008BD11200EF062
:10117000CFF9034B1860D2E70323F0E7E8A3FF1F82
:10118000A4A1FF1FF6A1FF1F74A2FF1F48A4FF1F09
:10119000BCA2FF1F38B50F200EF0BAF9204B214A30
:1011A0001B881060C0F53B600830984228DB1E4A5F
:1011B0001288D11A28D09042D4BFC3EB0003C3EBEE
:1011C000020301EBD174C3EBC31303EB640303FB12
:1011D00001F2002A93FBF1F4B8BF04F1FF347CB1B3
:1011E000124B1A780AB901221A70114D2B68A342CA
:1011F00004D0104BE1B2187808F0DEF82C6038BD4E
:101200000A4C237813B938BD3F24E9E7094B002184
:10121000187808F0D1F80023054A2370136038BD10
:10122000E0A2FF1FBCA1FF1F30A4FF1F58A4FF1F97
:1012300080A2FF1F66A2FF1F521A0FD0411A002B77
:1012400003FB01F102EBD2700CDB01EB600101FB4F
:1012500002F3002B91FBF2F00EDB704703EBD3732C
:1012600058107047A1EB600101FB02F3002B91FBCA
:10127000F2F003DB0130704701387047704700BF60
:10128000521A10D010B402EBD274411A641003FB4E
:10129000014303FB02F1002993FBF2F010BCB8BF3D
:1012A00000F1FF3070475810704700BF70B50E4610
:1012B00015460446184610F09DFFAA1B0FD0A41B2C
:1012C000002800FB04F402EBD2700CDB04EB60049A
:1012D00004FB02F3002B94FBF2F00EDB70BD00EB7D
:1012E000D070401070BDA4EB600404FB02F3002B2F
:1012F00094FBF2F003DB013070BD013870BD70BDAE
:10130000F0B40E8886420DD203F10043013B31F860
:101310001350854202D9F0BCFFF772BE32F81300B9
:10132000F0BC70471088F0BC704700BF094B1B88A9
:101330000C2B09D8084A80B252F8232028B143F672
:10134000FE73984203D9108C704710887047034988
:10135000FFF756BEF4A1FF1F103801001C3A010030
:10136000494A4A4B2DE9F0471B681488484AA34272
:101370002546178866DBBB42A8BF3B46454A9C42D0
:1013800098461360C8BF23465FDD381B57D01B1B30
:1013900000EBD072C3EB833303EB620303FB00F279
:1013A000002A93FBF0F06DDBFFF7C0FF3A4A3B4B9E
:1013B00016881B88C0F3C61909FB06F67F2E8246E5
:1013C000A8BF7F26002B37D0444543DD3A4621464F
:1013D0002846FFF755FF324B1860324C2368994579
:1013E00009D0314B1B88002B46D1304B1B88002B7A
:1013F0003ED1C4F800902E4C23689A4506D02A4B63
:101400001B885A1F032A2AD9C4F800A0294C236834
:101410009E420FD0284B188848B1234B274A1B887F
:10142000D35C834203D0C0B2F1B207F0C5FF26609F
:10143000BDE8F087BDE8F087194A1360CDE741F6B3
:10144000FF70B1E7134BA0461C6047453B46A8BF61
:1014500043469AE7B8454546A8BF3D46B6E7174A12
:10146000D05C2030C0B20AF07F0107F0A5FFCBE7C7
:10147000484608F041F8BCE7104A4946D05C07F0FE
:101480009BFFB2E701388FE7DCA2FF1F18A4FF1F04
:10149000ACA1FF1F98A1FF1F16A2FF1FB0A1FF1F45
:1014A00088A4FF1F60A2FF1F00A4FF1FCEA2FF1F82
:1014B00090A4FF1FD0A2FF1F0EA4FF1F188EFF1FB6
:1014C0002DE9F04F01208DB00EF022F8DFF880B347
:1014D000DFF880A3CBF8000000200EF019F8BC4B19
:1014E000CAF800001B880C2B00F0E081B94A0021EB
:1014F0001F2B117039D0DFF86093B74BB9F800207B
:10150000B64F53F8226000233B70B54BB54A1B8899
:10151000B5491288013B012A31F91330089300F0D4
:10152000E181B24B0393B24B0293B24B0593B24CA1
:1015300000230193B14B1B88012B00F01D82B04B9F
:10154000DFF818830493AF4B0693D8F800500023BC
:101550000793AD4B1B88013B032B00F24A82DFE867
:1015600013F0F200D00013001401A84BDFF8E8924A
:101570001B78B9F80010984A984F52F82160003350
:1015800018BF01233B70C0E7284610F019FCA049A2
:1015900010F06AFC0546079810F012FC9D4910F007
:1015A00063FC0146284610F057FB10F023FE054669
:1015B000C8F80050206810F003FC954910F054FC66
:1015C0008046019810F0FCFB924910F04DFC01465A
:1015D000404610F041FB10F00DFE20608E4B8F4A0C
:1015E0001B8812888E49DBF800800C888D49C3EB7C
:1015F000050E1D44049BC3F800E0831A1044069AAC
:101600001560039A0D881360059BA0451860C0F211
:10161000498145452846A8BF404633462A462146CB
:10162000FFF70AFEDAF800A05445834600F33C8138
:1016300055452846A8BF50462A4633462146FFF75F
:10164000FBFDA04500F310815445C0F20D81DFF889
:101650001092D9F8000010F0B3FB734910F004FCAD
:10166000724910F0F9FA10F0C5FDA0F5FF531C3BCC
:10167000082B98BF4FF40050029BDFF8E8811C68EC
:1016800043F6FF750444AC42A8BF2C4624EAE47438
:10169000C9F80040204610F093FB8146387806FBDD
:1016A00000F010F08DFB4FF07A5110F0DDFB014699
:1016B000484610F0CFFA10F09DFD5D4BA842A8BF40
:1016C00028461B7820EAE070C8F80000002B00F0E4
:1016D000DD80B4F5005F00F0D98004F0A1FD554B2A
:1016E000D8F8000001221A70534C2368834205D0B9
:1016F00080B207F031FED8F8003023600DB0BDE8AD
:10170000F08F284610F05CFB4C4910F0ADFB05460D
:10171000079810F055FB4A4910F0A6FB01462846F1
:1017200010F09AFA10F066FD0546C8F800502068DF
:1017300010F046FB414910F097FB8046019810F0ED
:101740003FFB3F4941E7284610F03AFB3D4910F086
:101750008BFB0546079810F033FB3B4910F084FBE8
:101760000146284610F078FA10F044FD0546C8F806
:101770000050206810F024FB324910F075FB8046C1
:10178000019810F01DFB30491FE7284610F018FBA8
:10179000254910F069FB0546079810F011FB2B490D
:1017A00010F062FB0146284610F056FA10F022FDB8
:1017B0000546C8F80050206810F002FB1A4910F0E6
:1017C00053FB8046019810F0FBFA2049FDE600BF6C
:1017D0004AA4FF1F9EA1FF1F948DFF1F28A4FF1F77
:1017E000268DFF1F1EA4FF1FDC3D0100B0A4FF1FBC
:1017F00054A4FF1F90A2FF1F90A1FF1FB6A1FF1FBF
:101800003CA4FF1FC4A3FF1F688DFF1FBAA1FF1FC9
:10181000CDCC4C3FCDCC4C3E248EFF1F608DFF1FA6
:1018200014A4FF1F18A2FF1F9A99193FCDCC4C4555
:1018300076A5FF1FCCA2FF1F288DFF1F6666663F9F
:10184000CDCCCC3D3333733FCDCC4C3DCDCCCC3E19
:1018500050A2FF1FECA1FF1F58A2FF1F38A4FF1FBB
:10186000CC8DFF1F648DFF1FB9F80030002B3FF4B3
:10187000EEAEC0EB0B03002BB8BF5B42092B00F3AD
:10188000BA804FF40050DFF8F892F5E6A84C2378C0
:10189000002B3FF429AF04F0BFFC0023D8F8000070
:1018A000237021E72046B8E62046C5E6A14B1B7809
:1018B000002B00F0C180DFF8CC929F4BB9F80010EC
:1018C0009E4A9F4F53F821000023012111703B7065
:1018D00010F076FA4FF07C5110F0C6FA10F08AFC46
:1018E000064612E6974B984A1B8898491278013BA6
:1018F00031F91380002A40F09A8011200DF008FE83
:101900000190934B03931D68019B9D4240F3978088
:10191000904B914C1B88226890490491012B904B6D
:101920001B8805938F4B0293C8EB0208304600F0EA
:101930002D8110F045FA059B049951F823108A4B2C
:10194000059310F091FA0146002010F083F9034648
:101950000198404542462946B8BF4046FFF7A6FCDD
:1019600002990B681844814B1B8800EBD070401023
:10197000012B08607FF4E3AD7D4B04931D460F20DF
:101980000DF0C6FD2B6807909842099380F287807E
:10199000704BDFF8F4811B88012B714B00F0B38092
:1019A0001A886E4B0A923046069310F009FA069B8D
:1019B0000A9AD8F8005053F822106E4B069310F094
:1019C00053FA089B0146EA1A0020089210F042F9E7
:1019D000089A0999034607989042B8BF1046FFF746
:1019E00065FC029A1368184400EBD0704010106038
:1019F000AFE52068F2E50BF5005B0BF1010BC0EBE6
:101A00000B0010F0DDF95C49DFF8749110F02CFA4E
:101A10000446D9F8000010F0D3F9584910F024FA20
:101A20000146204610F018F910F0E4FB24E61520DA
:101A30000CF028F8019064E7404A13705BE54A4BCC
:101A400005931D68019B9D421FDA424B424C1B8847
:101A5000226842490491012B414B1B880693414B5C
:101A600002939044304600F0A68010F0A9F9049942
:101A7000069B51F8231010F0F7F9034601984045F2
:101A800042462946A8BF404668E7364B02931946AE
:101A90001B68314C03EBD3735B100B604AE5354B8D
:101AA0000693079A1B6809939A4221DD294BDFF8B8
:101AB000D8801B88012B2A4B00F08A801988274B7D
:101AC0000B9130460A93D8F8005010F079F9089B32
:101AD0000B992B4408930A9B53F8211010F0C4F97A
:101AE000089A0999034607989042A8BF104676E7DE
:101AF000029ADFF894801368D8F8005003EBD37390
:101B00005B10136025E51988144B0A913046069343
:101B1000D8F8005010F054F9089B0A99EA1A069B6D
:101B2000089253F82110134B069310F09DF94FE7DC
:101B3000CCA2FF1FBAA1FF1F948DFF1F9EA1FF1F04
:101B400028A4FF1F708EFF1FE8A3FF1F6439010048
:101B5000B0A4FF1FA6A2FF1F90A1FF1FF43D01002C
:101B6000F0A1FF1F54A4FF1F90A2FF1FB6A1FF1FEB
:101B70003CA4FF1FC4A3FF1FCDCCCC3E9A99193FB4
:101B8000CC8DFF1F58A2FF1F38A4FF1F10F018F9BB
:101B9000059B0499224A51F82310059210F064F92C
:101BA00003460198404529464246B8BF4046FFF7E4
:101BB0007DFB1C49D5E610F003F9069B049951F80A
:101BC000231010F051F90146002010F043F854E7BB
:101BD0001A88154B0B9230460A9310F0F1F80B9AC5
:101BE0000A9BD8F8005053F8221010F03DF9089BDA
:101BF00001462B440020089310F02CF8089A09990C
:101C0000034607989042A8BF1046FFF74FFB029A81
:101C10001368184400EBD0704310136099E400BFC0
:101C200090A2FF1F54A4FF1FF43D010008B5244BF0
:101C30001B88FBB1234B1B78FBB1234B1B78E3B113
:101C4000224B1B78CBB1224B1B78B3B1214B2248DE
:101C50001A78C2B9214A22490088128809680244C8
:101C6000B1EB620F09DD01221A706420BDE8084063
:101C700004F0EABA174A117801B908BD1370BDE83B
:101C8000084007F00DBC154A1649008812880968FB
:101C90000244B1EB620FF0DD00221A7007F000FC85
:101CA000642004F0D1FA642004F0CEFA642004F039
:101CB000CBFA4FF41670BDE808400CF06BBB00BFC8
:101CC000DAA3FF1F7FA4FF1F80A4FF1FFCA3FF1F39
:101CD00082A4FF1FF2A1FF1F18A2FF1F14A4FF1F61
:101CE00050A2FF1FECA1FF1F38B5114C232025780F
:101CF0000BF0C8FE0F4A42F82500131F02F1C40082
:101D0000002253F8041F83420A44FAD123780A4977
:101D100007480A4C0133DBB2322B81FB025108BF6A
:101D20000023D217C2EB21120370226038BD00BF1E
:101D3000B2A1FF1FECA2FF1F1F85EB5110A4FF1FD4
:101D40002DE9F04FB64CB74D2068B74F83B010F077
:101D500037F8B64910F088F8064610200DF0D8FB89
:101D600010F02EF8B24910F07FF831460FF074FFF2
:101D700010F040FA2A8820609042964639884ADA64
:101D80001346B1EB020C44D09B1AC3EBC3160CEB09
:101D9000DC7306EB630303FB0CF6002E93FBFCF3F2
:101DA000C0F27681A34EDFF8B482B6F800C0C8F85E
:101DB0000030BCF1190F00F0E080BCF11A0F00F008
:101DC0002281BCF11E0F00F04F810126B0469A4BD4
:101DD0001B88002B00F09E809446984A1288032AA4
:101DE00000F20881704580F255810A4670466146CE
:101DF000FFF746FA924B1860924B188880B9924AC6
:101E000012886AB9914B197801B11A7003B0BDE814
:101E1000F08F3F23C6E788420346A8BF0B46B0E7D2
:101E20002A882168DFF8FC91DFF8F4A18A4279DC86
:101E3000DFF818E29EF800C0BCF1000F34D14FF07B
:101E4000010C04288EF800C02ED1002E40F0C38172
:101E50007D4B18880028D9D0B8F1000FD6D0236860
:101E60002A883C88934280F297811346A41A00F096
:101E700091819A1A04EBD473C2EB82125B1003EBCC
:101E8000420303FB04F2002A93FBF4F400DB013469
:101E90006F4D2B68A34203D0C0B2E1B207F08CFAB9
:101EA0002C6003B0BDE8F08F012800F01B810228F0
:101EB00000F00D810328CBD1664B1B88092BC7D0BE
:101EC000002EC5D023682A883E88934280F2A781DD
:101ED0001346B61A00F0A1819A1A06EBD673C2EB2C
:101EE00082125B1003EB420303FB06F2002A93FB12
:101EF000F6F600DB0136DFF860A1DAF80030B34215
:101F000003D0F1B24A2007F057FACAF800609FE701
:101F100098460126BCF11E0F7FF46EAF0023DFF858
:101F20004091ACE0494B1A78002A3FF46FAF00248F
:101F300001281C7000F0BE80022840F03181002E84
:101F400000F0BE80444D2B68002B00F0B9800420C7
:101F5000214607F031FA3C4B2C60188800283FF4EA
:101F600055AFB8F1000F3FF451AFC0B2002107F0F8
:101F700023FA374B00221A6048E7DFF8E49099F81B
:101F80000030CBB1DFF8C080B8F800A0BAF1000F84
:101F900012D0DFF8D08098F800B09B4500F0938015
:101FA0005FFA8AF07F2107F007FA99F80030B6F857
:101FB00000C088F8003011E0DFF8A88098F800A091
:101FC0009A4500F08080204B0021187807F0F4F942
:101FD00099F80030B6F800C088F80030164B1B881E
:101FE000002B95D0BCF11E0F40F0288101264FF048
:101FF000000844E0704552DA62467046FFF740F947
:102000000F4B1860F8E6DFF8589099F80030002B75
:102010000BBF012600264FF000084FF00108D6E65E
:1020200024A2FF1FE0A3FF1FDCA3FF1F9A99193F03
:10203000CDCCCC3E4AA4FF1F5AA2FF1F40A4FF1FD5
:10204000E4A2FF1F4EA2FF1F5CA4FF1F4FA4FF1FAF
:102050000CA2FF1F00A4FF1FE8A2FF1F2CA4FF1F5C
:10206000BAA1FF1FB8A1FF1FDFF8F891784B99F8CC
:1020700000601B88B6FA86F676094FF0000899F8DA
:10208000002062B3B5F800C020683988E646A4E6AF
:10209000013B87E68842A8BF08468646A5E68842F7
:1020A000A8BF0846864662467046FFF7E9F8694BC6
:1020B0001860A1E626B1684D2B68002B40F08480A3
:1020C000664B18884AE701264FF000087FE6002E8D
:1020D0003FF4BEAEDFF880A1DAF8002033E05D4BBC
:1020E0001A6089E6002E3FF4B3AEB7F80090494578
:1020F000A8BF49460846B9EB020900F0848009EB05
:10210000D971821A4910C2EB821201EB420202FB22
:1021100009F1002992FBF9F901DB09F10109DFF866
:1021200038A1DAF800204A4506D05FFA89F101208B
:10213000019307F041F9019B1888CAF80090022822
:102140007FF4B8AE4A4621682888B7F800E081429B
:102150005FDA0146BEEB000E58D0091A0EEBDE70B6
:102160004010C1EB811100EB410101FB0EF0002892
:1021700091FBFEF901DB09F10109914506D05FFAF7
:1021800089F10420019307F017F9019B1888CAF818
:1021900000908FE640247BE6A342A8BF234665E675
:1021A000032825D12E4B1B88092B89D0002E87D0E0
:1021B000294D2B68002B83D04A20214607F0FCF8DC
:1021C000264B2C601888C9E6214607F0F5F8234B0A
:1021D0002C601888C2E640207F21019307F0ECF8BC
:1021E000019B188801281ED002287FF463AE71E796
:1021F00004287FF465AF002E3FF462AF21464020F3
:1022000007F0DAF85CE74FF0400988E74FF0400943
:10221000B3E77145A8BF71469CE740266BE6B34221
:10222000A8BF334655E6B9F80000DAF80010B7F851
:10223000009081420246FFF65EAF58E7B5F800C055
:1022400020683988E64601264FF00008C5E500BF42
:102250005AA2FF1FE4A2FF1FE8A2FF1F5CA4FF1FFA
:1022600000A4FF1FBAA1FF1F08B5114B1B88022B4A
:1022700009D0052B07D0032B15D0042B0BD00D4B09
:1022800001221A7008BD7F21412007F095F8094B03
:1022900001221A7008BD7F21092007F08DF8054B37
:1022A00001221A7008BD4021092007F085F8E6E7F1
:1022B000E2A2FF1F78A2FF1F38B5074B074D1B880E
:1022C000052B044606D02B68834203D0C1B20520FB
:1022D00007F072F82C6038BDE2A2FF1F64A4FF1F54
:1022E00038B5124D124C2B88052B12D022684AB9F2
:1022F000022B0ED0033B012B13D90E4A002313707F
:10230000236038BD0021052007F056F82B88022BEA
:1023100004D10021412007F04FF8EEE7052BE9D169
:10232000F7E70021092007F047F8E6E7E2A2FF1FE0
:1023300064A4FF1F78A2FF1F38B53A4B1B881D2BE2
:1023400037D0394D0024394B1B88022B15D0384B20
:102350001B88022B4AD02D88364B002C1B780ADBB9
:10236000AC42A8BF2C4634B1002B30D02046BDE88B
:102370003840FFF7A1BF33BB38BD2F4B1B78002B74
:102380002ED015200BF07EFB2C4B18602C4A1288A7
:10239000002ADCD02B4A186811888142D7DC2A4AEF
:1023A0002B8812889042A8BF1046FEF769FF0444AC
:1023B000CDE7234B1C888CB1244B1B4D1C78002C83
:1023C000C1D02C88BFE7BDE83840FFF789BFFFF7D1
:1023D0004BFF2046BDE83840FFF76EBF124DB2E715
:1023E00011200DF095F8154B1860CFE70F200DF078
:1023F0008FF8134B164A1B881060002BABD0154B7F
:10240000C0F53B60198808308842A4DB124B2D8848
:102410001A889042A8BF10462B46FEF731FF0444AD
:102420009AE700BF4AA4FF1F50A4FF1F1EA4FF1F6E
:10243000B6A1FF1F78A2FF1FE8A3FF1FA4A1FF1FE3
:10244000E2A2FF1F74A2FF1F48A4FF1FBAA1FF1F33
:10245000BCA1FF1FE0A2FF1F30A4FF1FF8B5102092
:102460000DF056F8C830B0F5FA7FC0F29680B0F59E
:102470007A6F0146A8BF4FF47A6101F51673B3F580
:102480007A6FA8BF4FF47A639BB289B2914A924C9B
:1024900011802220238007F00BF921888F4D904C6A
:1024A000242007F005F90E200BF0ECFA40F6FF713E
:1024B000C8308842A8BF084620EAE07000F2DC522B
:1024C00083B28A42A8BF0A460220194622802B8086
:1024D00007F0EEF82188042007F0EAF801200DF05B
:1024E00017F8044600200DF013F8A042B8BF2046AC
:1024F00000F1C801B1F5FA7FC0F2D680B1F57A6F6C
:10250000A8BF4FF47A6101F54873B3F57A6FA8BF9D
:102510004FF47A639BB289B2724A734C11800A20DD
:10252000238007F0C5F821880C2007F0C1F80F20A0
:102530000CF0EEFFC0F53F610431B1F5AF6FC0F2B2
:10254000B080B1F5FA6FA8BF4FF4FA6189B2674B5A
:10255000C0F54360B0F5AF6F1980C0F29B80B0F555
:10256000FA6FA8BF4FF4FA6083B2614CA4202380B5
:1025700007F09EF82188A62007F09AF815200BF0A6
:1025800081FA00F59671B1F52F7F0BDB41F25C23E8
:10259000994240F38E80194608E040F24C434FF4D4
:1025A000FA7173E740F214534FF42F71514A1180BE
:1025B000514C524D2380062007F07AF82188504E66
:1025C000082007F075F800274FF4AF74F9B24D48B2
:1025D00008F0BCFE55F8043BC3F5967300FB03F00E
:1025E00086FB0023C017C0EB6310844207F101078C
:1025F000A8BF0446062FE9D1434F414E0025E9B25A
:10260000424808F0A3FE57F8043BC3F5967300FB5D
:1026100003F086FB0023C017C0EB6310844205F172
:102620000105A8BF04460C2DE9D1394F344E0025D1
:10263000E9B2384808F08AFE57F8043B304AC3F53F
:10264000967300FB03F086FB0013C017C0EB63100A
:10265000844205F10105A8BF04460C2DE8D1A4F180
:102660001401312919DD40F23A73A4F5B97403FB62
:1026700004F4963C82FB0432E417A4EB621289B2A4
:1026800032322548254B01801A602A20BDE8F840E7
:1026900007F00EB84FF4AF6367E740F26C72322177
:1026A000EFE74FF4AF6152E740F214534FF4FA7181
:1026B00032E7104A00F5617089B2B0F52F7F1180C2
:1026C000B8BF4FF42F73FFF673AF8342A8BF034622
:1026D0009BB26DE7E0A3FF1FDCA3FF1FDCA2FF1F7F
:1026E000ACA1FF1F14A4FF1F18A2FF1FE0A2FF1F31
:1026F00030A4FF1F74A2FF1F48A4FF1F588EFF1FA6
:10270000B5814E1BBCA3FF1F288EFF1F54A2FF1FC5
:10271000308DFF1FD4A2FF1F7CA4FF1F148EFF1F4C
:102720002DE9F04F0C2083B00BF078F90C200BF062
:1027300063FDCA49DFF8ACA314200BF06DFDC84956
:10274000C84808F0D3FA022103200BF0FBFD022158
:1027500004200BF0F7FD022105200BF0F3FD022110
:1027600006200BF0EFFD01210A200BF0EBFD01210B
:1027700009200BF0E7FD01210D200BF0E3FD012105
:1027800028200BF0DFFD012114200BF0DBFD0121DF
:1027900016200BF0D7FD012117200BF0D3FD0121EE
:1027A00021200BF0CFFD02211C200BF0CBFD0121DD
:1027B0001B200BF0C7FD00211B200BF0AFFD1C20E0
:1027C0000BF0B2FDB0FA80F35B091A208AF80030F2
:1027D0000CF01EF81F2000210BF0E0FF04200BF08E
:1027E000A3FD002800F0908105200BF09DFD00283E
:1027F00000F0BB8100239C4C062023700BF094FD5D
:10280000B0FA80F35B094FF0000B984A137005F0A3
:102810008FFA2378002B40F07281584606F072FF41
:10282000934B94491B88944840F23A72A3F5AF73D6
:1028300002FB03F3963B81FB0321DA17A2EB611243
:102840008E49002BD4BF02F1320302F13103098813
:102850008B4A017001210D2013600BF05FFD642095
:102860000BF098FD06244FF416710A200BF0C6FBFE
:1028700000940C237B4A83485D2108F0CFFD00289B
:1028800000F0B08164200BF085FD00210A200BF0E0
:10289000B5FB4FF4967109200BF0B0FB00940C23AC
:1028A000704A79485C2108F0B9FD002800F0878162
:1028B00064200BF06FFD002109200BF09FFB4FF40B
:1028C000967116200BF09AFB00940C23654A6F4812
:1028D0005B2108F0A3FD002800F04E8164200BF07E
:1028E00059FD002116200BF089FB4FF4967117203B
:1028F0000BF084FB64200BF04DFD002117200BF042
:102900007DFB64200BF046FD00210D200BF006FD41
:102910005F4A60481268DFF8D0915F4F5F4D604EAC
:10292000DFF8C88100230121FDF7BEFD002301224D
:1029300089F800203B602B60336004240F200CF0EA
:10294000E7FD336803440E2033600BF09BF83B68CF
:1029500099F8002018443860002A00F0C98015203A
:102960000BF090F82B681844286004F0010080F008
:10297000010003F059FCB8F80030002B14BF4B20C5
:10298000DC200BF007FD013CD8D133683968424A9E
:102990002868444F002BB8BF03330029B8BF033168
:1029A000891011604049414A098814889B10002809
:1029B0003360B8BF03303E4E8210581A19442A6063
:1029C000316038603B4D3C483C49161B22442E6028
:1029D00002600B60BBF1000F40F0AF80B8F8003030
:1029E000002B00F09D80364B012404201C600BF06E
:1029F0009BFC18B9334B204A1C701070324B1B885B
:102A00001C2B00F0A280314C04F1C80523200BF0F0
:102A100039F844F8040F01200BF0BCFCA542F5D1B5
:102A20009AF8003023B12A4B1B78002B40F0988095
:102A3000002121200BF072FC264A274B10781870D9
:102A400006F0FCFD03F0E8FB2449254845F6BF529B
:102A500003B0BDE8F04F0EF011B800BF001B3746C1
:102A600040420F001896FF1FFAA1FF1FC8A3FF1FC7
:102A70007CA4FF1FB5814E1B8CA2FF1F96A4FF1FD5
:102A8000148EFF1FBCA3FF1FD4A2FF1F54A2FF1F61
:102A90002C8DFF1F2CA2FF1FA8A1FF1F90A1FF1FBD
:102AA00038A4FF1F3CA4FF1F248EFF1F608DFF1F53
:102AB000C4A3FF1FB0A4FF1F90A2FF1F98A4FF1F75
:102AC00044A4FF1FC1A1FF1F4AA4FF1FE8A2FF1FCC
:102AD000E2A3FF1FE4A3FF1FB9A3FF1FA50500008A
:102AE0006CA4FF1FC0A3FF1FE8A3FF1F0AA4FF1FC2
:102AF00011200CF00DFD2B681844286035E703B059
:102B0000BDE8F04F08F006B806200BF00DFC0028D9
:102B10007FF46AAE364C034620704FF0010B74E62A
:102B20004FF4FA7003F090FB03F07AFB05F05AFCC7
:102B30004FF4AF600BF02EFC55E7FFF78FFCB8F8B1
:102B40000030002B7FF44FAFEAE72A4B18880028AB
:102B50003FF459AF284BC0B2197806F02DFC52E76C
:102B6000012121200BF0DAFB66E703200BF0DCFBF0
:102B7000B0FA80F35B093EE603200BF0D5FB00289A
:102B8000FAD104200BF0D0FB0028F5D105200BF082
:102B9000CBFB0028F0D106200BF0C6FB0028EBD1C0
:102BA0000CF0B4FD04200BF0BFFB40B905200BF086
:102BB000BBFB20B906200BF0B7FB0028F0D00320A8
:102BC0000BF0B2FB0028FAD1ECE704200BF0ACFBD1
:102BD00040B905200BF0A8FB20B906200BF0A4FBA0
:102BE0000028DDD003200BF09FFB0028FAD1ECE792
:102BF000FAA1FF1F94A2FF1F22A2FF1F2DE9F04F91
:102C0000DFF830B39BF80030012B99B000F05E8301
:102C1000C0F0E682022B00F093819349934891F82B
:102C200000C0934901919349934D944C944E954F14
:102C3000954A069195490391954990F800A0029113
:102C40002D7894492478367897F800901278DFF838
:102C5000E8E2DFF8E88290480491012B94BF013349
:102C600000238BF800308D4B8D4983F800A08D4BED
:102C70000D701C708C498D4B0E7083F800C08C4910
:102C80008C4B81F800A01A70B9F1000F40F0D08190
:102C9000894B1F880D2F00F03C82884900239B46FA
:102CA0000B702CB184490F88002F40F03F823C46C6
:102CB00083490988E3180593002940F0D481814BAA
:102CC0008149029C1B78247809780133A3EB4403E3
:102CD000002940F03282049909785B1A002940F0FB
:102CE000B18300247949039F09783F781B1BA3EB2C
:102CF000410333445D1B17B1B6FA86F77F099EF88E
:102D000000303D44EC1A002B00F02B82003118BF3C
:102D10000121019B98F8007006781D786C48631AB1
:102D2000DB1BA3EB46036344CAEB030AAAEB420294
:102D30004FF00C0919FB052202606648664B674D8F
:102D400004881B8866482E686649674D0088098894
:102D50002D68033B03EB430302EB8303C0EBC0008E
:102D600028440B44C4EBC4046049614D51F8201061
:102D7000059834440C3B55F82440034423445C1824
:102D8000BBF1000F01D05B4B1A605B4B5B4A1B88A9
:102D9000042B8CBF01210021117040F24381584A5D
:102DA0005848116803EB83039AB20329028000F0AC
:102DB00071840020544D55492B6808709C4200F0E6
:102DC000A4815349534F0B680893089E524B3E60B1
:102DD00001271F700B680993504F099B3F88DFF84C
:102DE00030E19B1BBB4240F22E814D4E4D4F33686C
:102DF0003460E31A3B60002800F0B181464B18783C
:102E0000002840F015832C60474D23462C689C42D7
:102E100000F023810868454F0B900B983E68801B9B
:102E200090421BD31B1B002BC0F2828312D0404A5E
:102E3000126882EAE270A0EBE270834208DA394A53
:102E40001268002AB8BF52429042ACBF1A46012213
:102E500014442C600B680C930C9B3B60069B1C601D
:102E600019B0BDE8F08F00BFFDA3FF1FFEA3FF1F39
:102E7000D0A3FF1FA4A4FF1F77A2FF1F03A4FF1F5F
:102E800076A2FF1FBCA4FF1FFFA3FF1F81A4FF1F8B
:102E90005FA4FF1F60A4FF1F4DA4FF1FB6A4FF1F68
:102EA000B7A4FF1FB8A4FF1FB9A4FF1FBAA4FF1F38
:102EB000BBA4FF1F4EA4FF1FBEA4FF1FBAA1FF1F8C
:102EC0009CA1FF1F268EFF1FA0A4FF1F61A4FF1F50
:102ED00004A4FF1F40A4FF1F22A4FF1FE4A2FF1FA2
:102EE0007AA2FF1FB4A1FF1F88A4FF1FAC39010005
:102EF000283B01001CA2FF1F26A4FF1FF6A1FF1FF5
:102F000044A4FF1FD08DFF1F6CA2FF1FB9A1FF1F9C
:102F100094A5FF1F98A2FF1FB8A2FF1F5AA4FF1F6E
:102F200034A4FF1F8CA4FF1FCCA3FF1FECA3FF1F23
:102F3000BCA2FF1FB8A3FF1FB5A4FF1F4CA4FF1F17
:102F4000894F8A4D0CAE0024E1B2894808F0FEF9A1
:102F500057F8043BC3F5967300FB03F085FB002391
:102F60000134C017C0EB63100C2C46F8040BEBD1F6
:102F7000804B0D981F88804B0293804B139993F8D8
:102F800000C0149B7E4A0492BB42ACBF4FF00009C4
:102F90004FF00109159B7B4A179E0F9D92F800A0E8
:102FA000109CDFF82C82DFF82CE288F80090874232
:102FB000D4BF002001208F42D4BF002101219F42B5
:102FC000169BDFF81482D4BF002201229F42D4BF97
:102FD00000230123B742D4BF00260126AF42D4BF4D
:102FE00000250125A742684F3870634F6748397044
:102FF00063490A70664A67491370674B01911E70F6
:103000006649674B0691D4BF0024012465491D70B1
:103010008EF8004002789BF800300391DFF8BCE1A5
:1030200061481AE6614900231A460B801846C1E63A
:103030005F4B60491B884FF0010B182B81F800B0E3
:1030400077D900232DE62C605B4B00287FD05B4DA9
:103050001B682C689C427FF4DDAE1C46069B1C60FE
:1030600019B0BDE8F08F012900F0CC82022900F0F0
:1030700022830329524B00F0EA81042900F0908357
:10308000052900F026841C7803789EF80010079329
:10309000049F029B019897F800E098F800901B7835
:1030A000DFF8EC8000780190A4EB4104079998F8D0
:1030B0000080039FBEF1000FC9EB0409A1EB810062
:1030C000C3EB837EC3EB8E034844184414BF002334
:1030D0000423B8F1000F03443F783A4C14BF00209A
:1030E0000320034403EB470303EB82031E44019ACE
:1030F00006EB0C03C2F106025D1B02EB4202A5EBDC
:103100004A0A0AEB8202226017E62F4B2F491E68FB
:1031100060E6002C3FF4C1AD254B26491B884FF0DB
:10312000010B182B81F800B003D94B46A7F10D0411
:10313000BEE50C3B4FF0010BB3E50499002C00F009
:1031400070810C78002C40F02783013BCAE51C6895
:103150001A4B1C60069B1C6019B0BDE8F08F2C60F8
:10316000F6E71946D5E500BF308DFF1FB5814E1B30
:10317000D4A2FF1F7CA4FF1F5FA4FF1FFDA3FF1F9E
:1031800060A4FF1FFEA3FF1FA0A4FF1FFFA3FF1F3C
:1031900061A4FF1FD0A3FF1F76A2FF1FA4A4FF1FDF
:1031A00077A2FF1F81A4FF1F4DA4FF1FD08DFF1F1B
:1031B0004AA4FF1FBAA1FF1F34A4FF1FCCA3FF1F07
:1031C000268EFF1F04A4FF1F98A2FF1F94A5FF1FB8
:1031D000BCA4FF1F03A4FF1F4CA4FF1FB5A4FF1F27
:1031E000B04FB14D0CAE0024E1B2B04808F0AEF8DB
:1031F00057F8043BC3F5967300FB03F085FB0023EF
:103200000134C017C0EB6310062C46F8040BEBD159
:10321000A74BDDF830901A88119B02930DF134080A
:1032200098E800519145ACBF00270127A14BDFF87A
:10323000F0A2198810984245D4BF002601266245A5
:1032400007EB0603D4BF002501252C462B449A4DDD
:103250008AF800602F70994DDFF8C8A22C70724573
:10326000029C974DD4BF0027012782423B44D4BF24
:1032700000260126A2422E708AF800703344D4BF83
:10328000002701278F4E904D37703B448F4E01969B
:10329000DBB201292B708E4D37468CBF00260126EC
:1032A0002E70A2424FF000053D7040F38D808242A7
:1032B00002DC012900F26381019C864D062303296B
:1032C000237000F05B83844A069247E1834F764D7A
:1032D0000CAE0024E1B2824808F038F857F8043BFD
:1032E000C3F5967300FB03F085FB00230134C01780
:1032F000C0EB63100C2C46F8040BEBD16C4B0F9D0C
:103300001F88109C0E990D9B0C9E76480390BD4221
:10331000ACBF00250125A742D4BF002401248F4261
:10332000D4BF002101219F42D4BF002301236E4856
:10333000DFF8F4810370B742149E6C4B139A88F83F
:103340000010D4BF4FF0000C4FF0010CB742D4BFB7
:103350004FF0000A4FF0010A654983F800A0169B60
:1033600081F800C09742DFF8C4E15E4E61493570D4
:10337000D4BF002201229F428EF800400A701DDC5B
:10338000002311995C4C5D4D23708F424F4B01938C
:10339000D4BF00270127504B2F7006935849594B33
:1033A000594D5A4C0E785A4902915A4993F8009057
:1033B0002D7824789BF8003004914EE4159B9F42B1
:1033C000D4BF00230123DCE7824240F3D88072455A
:1033D00000F3BC80012940F2B980624540F3D880F7
:1033E000424500F3CE82012940F2CB82914580F222
:1033F000D8800123019D2B70364D374B069303294E
:1034000040F0AA80029B9A4240F3A680824200F3D9
:10341000A3802B78062B40F09F80019A072313701E
:103420009CE00978013B5B1A00297FF45BAC58E40F
:10343000DEF800000A900A98374F104400263860E2
:103440001E70E0E4002C3FF44CAC01244AE41978EF
:10345000029B9EF800401B78039F98F8006000785C
:1034600097F800E0049FA1EB4401A0EB8000891BCA
:10347000C3EB83740144C3EB84030B443F7803EB39
:103480004E0303EB8203002F40F0FF810125019AD8
:10349000224912782B444FF00C0919FB02320A60C2
:1034A0004BE400BF588EFF1FB5814E1BBCA3FF1F0E
:1034B0007CA4FF1FB4A3FF1F7EA4FF1F80A4FF1FD7
:1034C00082A4FF1F83A4FF1F10A2FF1FD0A3FF1F12
:1034D00020A4FF1FDEA3FF1FA4A4FF1F288EFF1F31
:1034E00054A2FF1F81A4FF1F4DA4FF1FFEA3FF1FB7
:1034F000FDA3FF1FFFA3FF1F1AA2FF1FC2A2FF1FF2
:1035000076A2FF1FBCA4FF1F77A2FF1F03A4FF1F0B
:103510005FA4FF1F60A4FF1FECA3FF1F04A4FF1FF5
:103520007FA4FF1FFCA3FF1F4CA4FF1FB5A4FF1F18
:10353000B34A126882EAE2705B42A0EBE270834217
:10354000C0F2B4811346E41A2C6083E4019AAD4DB5
:1035500005231370AC4B0693019B1B78AB48AC4919
:10356000AC4A2B70AC4B90F800A091F800C01278D8
:103570000393DFF8DCE2DFF8DC82A8480EE772454F
:103580007FF72BAF624500F3A281012940F29F81B2
:1035900042457FF72BAF9145C0F2F581012940F2FA
:1035A000F281984D2E78012E7FF627AF09B1019F49
:1035B0003E709B4E3688002E00F0E781002B40F0D5
:1035C000E481984B1B88013B9BB2062B00F2DD8106
:1035D000954B1B78002B00F0D881944B1B68012B76
:1035E000894B06937FF40BAF1F68DFF86CE20C2366
:1035F00097FBF3F603FB1673AEF800308C4B0326F3
:103600001E70FCE68B4B8C4F029C1B7824783F7815
:103610000133A3EB4403002F40F0B18004990978F3
:103620000291DF1B029BFF1A002B40F0A48002993D
:10363000DFF81492039B99F800901B78791AA1EB9C
:10364000490131444D1B13B1B6FA86F35B099EF86C
:1036500000702B44DB1B1FB119F1000718BF0127B5
:1036600098F800100078DB1B5B1AA3EB400363445F
:10367000CAEB0303A3EB4203002C66D10299002995
:1036800000F01181B9F1000F0CBF4FF0000E4FF0A8
:10369000090E5CE05A4B1B68002B7FF78AAB674B27
:1036A0001B78002B7FF485AB654B1878B0FA80F05F
:1036B0004009FFF77FBB049C624B24780299624F5C
:1036C000029498F8004090F800805B489EF80090C3
:1036D000097890F800E03F789DF8080083F808C06A
:1036E000DFF878C15A7283F801E0987019701E7182
:1036F00083F805909C7183F80780DF704FF0000E0F
:10370000012200234F4F18465FFA8EF866460C469A
:1037100007E0022A09D00A2B0BD017F8014F16F840
:10372000012F944203F10103F3D101300A2BC0B2FF
:10373000F3D1092800F20C810EF1010EBEF1100F39
:1037400000F08E801CF80A2FDBE74FF0000E734468
:1037500000BB002A0CBF00216FF00901019A3B4811
:1037600012780B444FF00C0919FB02320260FFF78C
:10377000E4BA02995F1A211C18BF012158E7002CF6
:1037800000F08C800499097802910029F1D15F1E24
:1037900002994DE70021E1E71B1B0124FFF7A2BAC4
:1037A00093F80090039B029F9EF8004093F800E07E
:1037B000049B3F7898F80060007893F800C0A9EB6C
:1037C00044039E1BA0EB8000C7EB87730644C7EB46
:1037D0008307F31903EB4E0E11FB02E1BCF1000F5E
:1037E0006DD10125019B1A78184BC2F1060202EB3C
:1037F0004202294401EB82021A60FFF79EBA00BF21
:10380000BCA2FF1FDEA3FF1FA4A4FF1FFEA3FF1F78
:10381000FDA3FF1FFFA3FF1F81A4FF1F4DA4FF1FD8
:1038200024A4FF1FE6A3FF1FDEA2FF1F44A4FF1F67
:10383000C88DFF1F268EFF1FA0A4FF1F0CA4FF1F13
:10384000C0A1FF1F9CA2FF1F61A4FF1F04A4FF1FB4
:10385000B5A4FF1F4CA4FF1F08A4FF1F643A01007A
:103860004E4A4F4B1178DA6B039B01311B780A44A7
:10387000551B2B440022019908784A499B1A0C22B7
:1038800012FB00320A60FFF758BA474A1278002A42
:103890003FF4FCAD003518BF0125F8E5049F3F78E3
:1038A00002970F46BDE6DDF808E050E73F4A126890
:1038B000002AB8BF52429042B8BF012343E63A4BB8
:1038C0001B78002B8DD0003518BF01258AE7042313
:1038D00090E51B780793049B01781B78029802936C
:1038E000039B98F8007093F80080019B9EF80040BD
:1038F00093F80090079B0078DFF8ACE0A3EB44035B
:10390000DB1B029F9EF800E0264CA1EB8101002FFB
:10391000C0EB80770B44C0EB870014BF002104216B
:103920000344BEF1000F0B4414BF002103210B44DC
:1039300003EB480303EB82031E4406EB0C035D1B01
:10394000A5EB4A0A0C2212FB09A22260FFF7F5B987
:10395000124A134B117853F82E20039B01311B7828
:103960000A44521B1344BAF1000F83D0B8F1000F80
:1039700080D1002D3FF47EAF01227CE70C4B0693F3
:1039800044E5032336E5022334E50A4B1B68012B8B
:10399000074B06937FF433AD30E600BF268EFF1F42
:1039A000D48DFF1F04A4FF1F61A4FF1F8CA4FF1F61
:1039B000A4A4FF1F44A4FF1F2DE9F04F3A4B1B782E
:1039C0008BB0002B6BD10E200AF05CF80EF0F8F9EA
:1039D00001463648364C374DFCF7ACFD3348FCF712
:1039E0007FFD0EF007FC80F30C002060FFF706F966
:1039F0002E68012E7AD0022E00F0CB82032E00F02A
:103A000078842D4C2D4E23682D4A2E4C0993099B0A
:103A1000216812883360591A013A9142274F00F207
:103A2000B382294C22689A1A092A00F29982274CFB
:103A300022689A1A0D2A00F28E82254C22689A1A60
:103A4000252A1AD9234B1B88002B40F09781224B43
:103A50001B78002B40F09281FEF746F91F4B1B8824
:103A60001B3B9BB2022B04D81D4B1B78002B40F054
:103A7000888102F0FBFB336823601A4C22689B1A92
:103A8000502B00F20682184B1B88012B00F021827C
:103A900005F038FC05F0F2FA0BB0BDE8F08F06F047
:103AA000C1FE0BB0BDE8F08FFAA1FF1F2CA2FF1FD3
:103AB00018A4FF1F44A4FF1F94A5FF1FF8A3FF1F16
:103AC000D28DFF1FD8A2FF1FB4A2FF1F84A2FF1F29
:103AD00088A2FF1FDAA3FF1FF2A1FF1F4AA4FF1F46
:103AE000BAA1FF1FD4A3FF1F1CA4FF1FDFF8389348
:103AF000A94AB9F800001378834204D0C3B218462B
:103B0000137005F0F1FBDFF82483A44AB8F8003005
:103B10001178994204D0A24F3978002940F0928759
:103B2000A04A23681288A04C9A42C0F289819F4A19
:103B30001278002A40F08481DFF8F4A2BAF800304D
:103B400023B99B4B1B88002B00F0D485994A9A4BD4
:103B500011881B88994A0B4412685B109342984A5B
:103B6000126880F24E8500219342B4BF01230B46B8
:103B700004910293ACBF4FF0010B8B4605910E20D0
:103B800009F080FF8F4B904A1B6803930133002B91
:103B90008446176840F39987802BA8BF80238B4AFF
:103BA0008B4912780191002A00F0548109789142E2
:103BB00000F05081B8F80010DFF870E2994201F08F
:103BC000A2817749AEF80030824B4FF0010E81F8A8
:103BD00000E01978DFF85CE27F4B01981B780270F7
:103BE0008EF80010002B40F06783029B002B40F002
:103BF0005E83A7F252339C4533DA6D4B1B88002B52
:103C00002FD0BBF1000F40F05783744B1B881BB1C2
:103C1000059B002B40F05083049B13B3704B1A7824
:103C2000FAB9DFF8149299F8006001221A70002E98
:103C300040F02D856B4B1B78002B41F0F1826A4BD5
:103C40001B78002B01F00283684B1B784BB9684B43
:103C50001B7833B1B8F8003051490A33A8F8003066
:103C60000A700E2009F00EFF6FF454731F44874250
:103C700002DC5B4B00221A705E4B1B88002B00F0AD
:103C8000EA845D4B5D4A1B781178994269D0002B1C
:103C900067D057490878002800F0F887584991F80C
:103CA00000C0BCF1000F40F0EF87564FDFF88CE109
:103CB000554EDFF864A13F788EF800C04FF0010E3A
:103CC00002968AF800C086F800C081F800E03FB193
:103CD00000260E7002994FF0010E8AF800E00E7077
:103CE00040490978002901F09180484E96F800E09B
:103CF000BEF1000F41F0A181DFF80C814FF0010C03
:103D000088F800E086F800C0374E367896B1DFF8C4
:103D10002CE19EF800C0BCF1000F41F09481DFF867
:103D2000E0904FF0010889F800C08EF8008000296B
:103D300001F071803649097899B13348017800293A
:103D400041F08781DFF8B8E0324F334E8EF8001033
:103D50004FF0030E87F800E02C4F317001263970C8
:103D6000067013702D4B1B88A3F11B02012A40F231
:103D700057861D2B00F0A286294E44E6FDF756FF1C
:103D80006AE6284B1B78002B3FF473AE2B68012B9F
:103D90007FF46FAE6FE600BFB9A3FF1F8CA2FF1FB9
:103DA000C1A1FF1FDCA2FF1F94A5FF1FF2A1FF1FEF
:103DB000C4A2FF1F18A2FF1F14A4FF1F50A2FF1FC1
:103DC000ECA1FF1F1CA2FF1FA8A1FF1F94A4FF1FAF
:103DD00064A2FF1F95A4FF1FC2A2FF1FF0A3FF1F35
:103DE00014A2FF1FB6A4FF1FB7A4FF1FB8A4FF1F94
:103DF000B9A4FF1FE6A3FF1F1AA2FF1F94A1FF1F74
:103E00000CA4FF1FBAA4FF1FDEA2FF1F68A2FF1FA2
:103E1000BAA1FF1FC88DFF1F5EA4FF1F4AA4FF1F8A
:103E2000F8A3FF1F4EA4FF1FE4A3FF1F96A4FF1FCC
:103E300070A2FF1F65A2FF1FD0A3FF1FC0A1FF1F1D
:103E400021689A4A069106989949106002220B60EF
:103E50002A6071E69749DFF8D4E2097800293FF437
:103E6000BBAE9EF8000081423FF4B6AE03984B28EB
:103E700040F3F9871833802BB8F80000A8BF8023DF
:103E800098423FF4A9AE8C4803808C48012303700C
:103E9000A2E603F099FF8A4B1B788BB9894B1B78FC
:103EA00073B9894B1B785BB9884B1B7843B9884B36
:103EB0001B782BB9874B1B7813B902F0ADF901E0E1
:103EC00002F0B6F933682360834B1B88012B7FF423
:103ED000DFAD824A824B12681C688249824DA8235A
:103EE00003FB02F202F5FF521F3281FB0231D017B1
:103EF0001144183C2A23C0EB613103FB04F07B4BD7
:103F0000002A7B4A1B781478ACBF543955390144D8
:103F10006FF0140202FB03122A607648002C00F0B6
:103F2000648103689A4200F32B8480F25E81724CB4
:103F30002178002941F0608070490968D1F17F0142
:103F400048BF0331891001315B1A9A4200F34D8159
:103F500003601A464AE1FEF7EFF9336823606CE527
:103F6000674FFDF7ADFAFDF7EBFE3B88032B00F042
:103F7000B785042B00F0B085624B1B88032B00F043
:103F8000A7853368236052E5FDF7EAF93B682360B3
:103F900047E55D4B26681A88B24204DB4D4B1B781F
:103FA000002B00F02784594C404823680793584B56
:103FB000079900681B88091A994200F2BD80002BFE
:103FC00000F0BA80534B198800293FF4D5AE384B26
:103FD00051481B680088B342B8BF33469A4201F388
:103FE0008E804E4A8342A8BF03461360DFF84081AB
:103FF00088F800103A4FFDF7B3F938687F2840F38E
:104000002786474AA0F17F0382FB0320DA17C2EB21
:10401000600000EB4000A3EB80007330414B019344
:104020001B883860002B40F05887DFF89CA09AF876
:104030000030002B00F083843B4E3378002B00F0DF
:104040007E84DFF8F0904FF0000B0CE003F173007A
:10405000C0B298F8001005F0DFF933780BF1010BCE
:104060005B4540F36C843B6859F8040F18442C4BB3
:10407000A0F17F0283FB0231D317C3EB610303EB93
:1040800043037F28A2EB8303E0DC0028E0DA244A24
:10409000434282FB0320DA17C2EB600000EB4000D2
:1040A000A3EB8000C0F10C00D2E700BF7CA2FF1F91
:1040B000F4A3FF1F95A4FF1F96A4FF1FC1A1FF1F1C
:1040C000DEA2FF1F0CA4FF1F5EA4FF1F68A2FF1F3C
:1040D000C0A1FF1FF2A1FF1F1CA4FF1FCC8DFF1F5B
:1040E000A4A4FF1F09000280ACA2FF1F28A4FF1F89
:1040F00078A2FF1FC8A2FF1F68A4FF1F64A4FF1FB0
:104100001EA4FF1FB6A1FF1FDCA2FF1F94A5FF1F67
:10411000C0A2FF1F12A2FF1FACA1FF1F98A1FF1F8B
:10412000ABAAAA2A4CA2FF1F908DFF1F65A2FF1FFA
:10413000A8A2FF1F688DFF1FA04BA1491B6808881C
:10414000A049B342B8BF33469A4200F332839E4E31
:1041500009888342A8BF0346336000297FF446AF35
:104160009A42C8BF134640F32B83801A00F016878B
:104170009B1AC3EB833300EBD07203EB620300FBAB
:1041800003F2002A93FBF0F0C1F24280FDF7CEF873
:10419000C0F3C6100DF014FE8C4B064618880DF0C7
:1041A0000FFE8B49074630460DF05EFE014638464D
:1041B0000DF05AFE31460DF04FFD4FF07E51064690
:1041C0000DF0F0FF002840F08F87824930460EF056
:1041D00007F8002840F02E8730460EF031F8C0B2C4
:1041E000DFF8388288F8000004E702607A4B1B8809
:1041F000002B3BD0794951F82340002C00F0D782A6
:104200003368B3FBF4F104FB1133C3EBC30304EBDA
:10421000D47103EB031303EB610303FB04F10029E7
:1042200093FBF4F3C0F2BE866D4951F82310A1F25E
:10423000FF716C4B6C4C1B6803FB01F303F57D3184
:1042400001F56071162303FB01F303F57D3303F5DC
:10425000607384FB0314D917C1EB6441002BACBF1E
:10426000A1F10B03A1F10C031A4402605F4B6048FB
:104270001B88604903F27C735B0002FB03F303F5C8
:10428000FC6380FB03020988D018DA17C2EBE02236
:10429000002BA1F16401B8BF02F1FF3249001144C3
:1042A00081F30C01282009F0A9FEFFF7F1BBBAF851
:1042B0000030002B3FF49DAC4F4B1B685A1C002A6A
:1042C00040F3AD81802A00F3A9814C4E4C494D4802
:1042D0003688098800683144B0EB610FC0F29586DA
:1042E000A3F148020F2A3FF6BCAC473BA9F80030C7
:1042F000B7E4454B20681988814240F39780434BCF
:104300001B78002B40F09280DFF8149199F80000A0
:104310007F280CDD3E4AA0F17F0382FB0320DA17E1
:10432000C2EB600000EB4000A3EB80007330394B20
:1043300001931B88C0B289F80000002B40F0BC86B6
:10434000DFF8E0A09AF80030002B00F0B084324E85
:104350003378002B00F0AB84DFF8CCB02C4F4FF05B
:1043600000080AE003F17300C0B205F079F8337871
:1043700008F10108434540F39A845BF8043F99F83B
:1043800000001844A0F17F0287FB0231D317C3EB72
:10439000610303EB43037F28A2EB8303E2DC0028E5
:1043A000E2DA434287FB0320DA17C2EB600000EB3E
:1043B0004000A3EB8000C0F10C00D5E7F4A3FF1F81
:1043C000ACA1FF1F12A2FF1F98A1FF1FA0A1FF1FFA
:1043D000CDCCCC3D0000FE42AEA1FF1F403A010013
:1043E0003C3301002CA4FF1F491B8940A8A4FF1FD8
:1043F0008320088274A4FF1F04A4FF1FE0A3FF1FF3
:10440000DCA3FF1F24A2FF1FDCA2FF1FF2A1FF1FDE
:10441000ABAAAA2A4CA2FF1F908DFF1FA8A2FF1FC4
:1044200002A4FF1F5EA4FF1F688DFF1FB34F3B68F0
:104430007F2B00F3C981002BC0F2EA85DFF83493AB
:1044400099F800609E4200F00D82AD4B1B88002B56
:1044500046D1AC4BAC4A1B681088994240F3998511
:104460000B46401A00F06585591AC1EB813100EB0B
:10447000D07301EB630303FB00F2002A93FBF0F01F
:10448000C0F2C386FCF752FFC0F3C6100DF098FCD3
:104490009E4B804618880DF093FC9D49824640460D
:1044A0000DF0E2FC014650460DF0DEFC41460DF0F9
:1044B000D3FB4FF07E5180460DF074FE002840F093
:1044C000F885944940460DF08BFE002840F0AF85FA
:1044D00040460DF0B5FEC0B2DFF89C8288F80000BF
:1044E0007F2E0DDD8C4BA6F17F0083FB0036C317BA
:1044F000C3EB660303EB4303A0EB830303F17306F3
:10450000DFF848A29AF80030F0B289F80000002BDA
:1045100040F0FC82814B03931B78002B40F0008518
:104520007F4B02931B78002B40F0E1857D4B01937C
:10453000029B1B78002B40F0BF849AF80030002BC0
:1045400000F08384019B774E1A88002A00F0E184F2
:1045500038687F2840F3C9826F49A0F17F0381FB4F
:104560000310D917C1EB600000EB4000A3EB800003
:1045700073303860002A40F087849AF80030002BAE
:1045800000F07F81684E3378002B00F07A81674A13
:10459000CDF81090DFF8E081B9464FF0000B1746D8
:1045A0000CE003F17300C0B298F8001004F034FF7F
:1045B00033780BF1010B5B4540F36081D9F8003093
:1045C00057F8040F1844544BA0F17F0183FB013EC0
:1045D000CB17C3EB6E0303EB43037F28A1EB8303ED
:1045E000DFDC0028DFDA4C4B414283FB0130CB1784
:1045F000C3EB600303EB4300A1EB8003C3F10C00AA
:10460000D1E793424FF0000B80F2EC800123CDF80C
:1046100008B0CDF814B00493FFF7B1BA802644492E
:10462000444B454A09881B8812680B44B2EB630F60
:10463000BFF617AB414B1B78002B40F0A883B8F8AE
:1046400000303F4AB3423FF40CAB3E4B1680012290
:104650001A70FFF706BB324F3B4E3C482F493C4A8D
:104660003B70337003700B70FFF77BBB394B1B78CB
:10467000002B7FF4F6AA039B374A243B83F34703BE
:10468000D9B25B20136004F097FE99F80060032E06
:1046900030D1DFF8E88098F80030002B40F0308609
:1046A0002E4F3B78002B40F01E862A4E3378002B8D
:1046B00040F00C862A4B1B78002B40F0FA85294AE3
:1046C0001380294B1B78002B40F0E6850C4B7F2292
:1046D0001A8098F800306BB93B785BB933784BB9E6
:1046E000224A7F210720138004F066FE7F210B20E1
:1046F00004F062FE1E4B1F68FFF7B3BAA4A4FF1FAD
:1047000012A2FF1F98A1FF1FACA1FF1FA0A1FF1FB6
:10471000CDCCCC3D0000FE42ABAAAA2A68A2FF1F66
:10472000DEA2FF1F4CA2FF1F908DFF1F688DFF1F91
:10473000E0A3FF1FDCA3FF1F24A2FF1FBAA1FF1FDE
:1047400096A4FF1FC1A1FF1F0CA4FF1F5EA4FF1FA3
:10475000C0A1FF1FB9A4FF1F78A4FF1FB8A4FF1FAB
:10476000B7A4FF1FCEA2FF1FBAA4FF1F00A4FF1F04
:10477000A8A1FF1F02A4FF1FA8A2FF1FB6A4FF1F2E
:10478000B84C2178002940F01183B7490968D1F16C
:104790007F0148BF033103EBA1030133B349036039
:1047A0009A42B8BF0A60FFF621AD1A461EE56B219A
:1047B0003FE5AF4B09881A6000297FF417AC134618
:1047C0008342A8BF0346D0E4AA4EA3F17F0286FB32
:1047D0000236D317C3EB660303EB4303A2EB830359
:1047E00073332BE60123CDF810B0CDF808B0059354
:1047F000FFF7C5B901232B609F4CA04EFFF703B90B
:104800004F46DDF81090029B1B78002B40F04B8345
:10481000019B1B88002B00F040839AF800303BB9C5
:10482000039B1B7823B9029B1B78002B00F0E384C9
:10483000934B1B78002B00F0038192490B78082BD7
:1048400000F2FE8090483A680068904E0133DBB277
:104850005F1E101A46F827000B708D4B20681988D0
:1048600089F800208842844C7FF786AA2268894B09
:104870000892089A814E1A60FFF7C5B84F46DDF8D6
:104880001090039B1B78002BBDD03B68A3F10C005C
:104890007F2840F35283774A8B3B82FB0321DA1750
:1048A000C2EB610202EB4202A3EB820303F173004D
:1048B000DFF80482C0B298F8001004F0ADFD9AF859
:1048C0000030002B9FD06F4E3378002B9BD0724A64
:1048D000CDF810904FF0000BB94617460BE002F1EF
:1048E0007300C0B298F8001004F096FD32780BF116
:1048F000010B5A4584DDD9F8002057F8040F5D4BB1
:104900001044A0F18B0183FB013ECA17C2EB6E027B
:104910000C3802EB42027F28A1EB8202DFDC002888
:10492000DFDA544B424283FB0230D117C1EB600007
:1049300000EB4000A2EB8000C0F10C00D1E7504B2F
:104940001B78002B40F0BE82544B1B78002B51D0BB
:104950003B68A3F10C007F2840F32C83454A8B3B36
:1049600082FB0321DA17C2EB610202EB4202A3EBE6
:10497000820303F17300C0B298F8001004F04CFDFC
:104980009AF80030B3B33F4E33789BB3DFF808B1E9
:10499000DFF8E0904FF0000A0BE003F17300C0B2C3
:1049A00098F8001004F038FD33780AF1010A5345F5
:1049B00020DD3B685BF8040F1844A0F18B0189FBF4
:1049C0000123CA17C2EB63030C3803EB43037F28B0
:1049D000A1EB8303E1DC0028E1DA434289FB0320F9
:1049E000DA17C2EB600000EB4000A3EB8000C0F1DF
:1049F0000C00D4E72A4B1B78002B40F08082019BEF
:104A00001B88002B00F07582264B1B78002B40F092
:104A10006B82254B3A681A7003232B60FFF7ACB901
:104A2000DFF8908098F80030002B40F023811F4F72
:104A30003B78002B40F06783104E3B70FEF7E3BFDE
:104A40003A680AE7DBB21846137004F073FD0C49AC
:104A50001748124A00230B703B7003701370FFF766
:104A60005FB800BF68A4FF1F64A4FF1FC8A2FF1F98
:104A700098A1FF1FABAAAA2A94A5FF1FF8A3FF1FA6
:104A80000CA4FF1F908DFF1FE8A1FF1F6C8DFF1F5F
:104A9000DCA2FF1F50A5FF1F688DFF1F68A2FF1F2C
:104AA000DEA2FF1FC0A1FF1F02A4FF1FB8A1FF1FAE
:104AB0005EA4FF1FBAA1FF1FA8A2FF1FC24AC34BDB
:104AC00012781A70C24EFEF79EBF0123FFF767B837
:104AD000FCF760FBFFF755BAFCF718FBFFF74CBA81
:104AE000FCF7B6FA3B88FFF744BA0028BFF641ADA1
:104AF000B849434281FB0310D917C1EB600000EBBA
:104B00004000A3EB8000C0F10C0032E5B24B0193F2
:104B10001B88002B40F00084B04B0393B04B0293F2
:104B2000B04E3378002B39D0DFF8D8824FF0000B2D
:104B300009E003F17300C0B204F092FC33780BF18A
:104B4000010B5B452ADD58F8043F99F80000184432
:104B5000A04BA0F17F0283FB0231D317C3EB6103AB
:104B600003EB43037F28A2EB8303E2DC0028E2DAB5
:104B7000984A434282FB0320DA17C2EB600000EB45
:104B80004000A3EB8000C0F10C00D4E7944B0293EB
:104B900004F066FC9AF80030002BC1D1039B1B780F
:104BA000002B3FF4C5AC99F80030A3F10C007F282E
:104BB00040F3DE81874A8B3B82FB0321DA17C2EB8D
:104BC000610202EB4202A3EB820303F17300C0B265
:104BD00004F046FC9AF80030002B00F0BF81814EB3
:104BE0003378002B00F06381DFF818824FF0000B60
:104BF0000AE003F17300C0B204F032FC33780BF129
:104C0000010B5B457FF794AC58F8043F99F800001E
:104C10001844704BA0F18B0183FB0123CA17C2EB30
:104C200063030C3803EB43037F28A1EB8303E0DC31
:104C30000028E0DA674A434282FB0320DA17C2EB1E
:104C4000600000EB4000A3EB8000C0F10C00D2E755
:104C50000028BFF6E3A95F4A434282FB0320DA172C
:104C6000C2EB600000EB4000A3EB8000C0F10C0041
:104C7000FFF7D4B95C4A1278002A40F0EE81534F16
:104C8000534E3B70FEF7BFBE00260E7057490F789B
:104C9000002F3FF425A8DFF870A19AF80010002932
:104CA00000F0A48200218AF80010FFF719B84B4BDE
:104CB0001B78002B4ED099F80030A3F10C007F2810
:104CC00040F35A82434A8B3B82FB0321DA17C2EB43
:104CD000610202EB4202A3EB820303F17300C0B254
:104CE00004F0BEFB9AF80030A3B33E4E33788BB38A
:104CF000DFF810A1374F4FF0000809E003F173000F
:104D0000C0B204F0ADFB337808F10108434521DD62
:104D10005AF8043F99F800001844A0F18B0187FB72
:104D20000123CA17C2EB63030C3803EB43037F284C
:104D3000A1EB8303E2DC0028E2DA434287FB032095
:104D4000DA17C2EB600000EB4000A3EB8000C0F17B
:104D50000C00D5E7224B1B78002B40F0C081019B53
:104D60001B88002B00F0B681214B1B78002B40F0F4
:104D7000AC81204B1B78002B40F0A2811E4B1F4AB8
:104D8000198820680123002414602B606AE54B2EEB
:104D900040F321811836802EB8F80030184AA8BF99
:104DA0008026B3427FF451ACFEF75BBF0131C9B23C
:104DB000022903D821701A46FFF718BA0022227080
:104DC0001A46FFF713BA00BFBAA1FF1FB8A1FF1F11
:104DD000F8A3FF1FABAAAA2A4CA2FF1F68A2FF1FBD
:104DE000DEA2FF1F908DFF1F4EA4FF1FBAA4FF1F5E
:104DF0000CA4FF1FC0A1FF1FDCA2FF1F98A1FF1F73
:104E000096A4FF1F688DFF1F5EA4FF1FC34E367858
:104E1000002E7EF47CAF00287EF48CAF002F7EF451
:104E200089AF002E7EF486AFBD49097800297EF453
:104E300084AFBC48BC4906700E70BC4FBC48BD492D
:104E40003E7006700E70FEF78CBF039B1B78002B24
:104E50007FF478AB029B1B78002B7FF473AB019B34
:104E60001A88FFF775BB243B002BB8F8000040F30D
:104E7000B88198423EF4B0AE9BB2AF48A8F800307B
:104E800001230370FEF7A8BEDFF8B082C0B298F825
:104E9000001004F0C1FAFFF770BBA84B38781978FE
:104EA00004F0BAFAB9E43878FBF766FDB0E4029B87
:104EB0001B78002B3FF446AB99F80000FBF72AFF64
:104EC000FFF73BBB7F21402004F076FA9C4A9D4BC4
:104ED0003968116000221A7036E5C0B298F80010E7
:104EE00004F09AFAFFF7A1B87F21422004F064FA97
:104EF0008FE598F80010387804F08EFA84E5387859
:104F0000FBF73AFD7BE5904BDFF864E21978FEF79A
:104F100063BE99F8000004F0A3FA3288FFF718BBCB
:104F20008A4B01931B88002B7FF430AE804B029399
:104F300039E641F6FF70FFF7A5BA0028BFF6B8AC16
:104F4000834B424283FB0230D317C3EB600303EB76
:104F50004303A2EB8303C3F10C00A9E4029B1B787B
:104F6000002BA9D1039B1B78002B7FF4EBAA76E7DB
:104F70000028BFF62CAE764B424283FB0230D3179B
:104F8000C3EB600303EB4303A2EB8303C3F10C0009
:104F90001DE68342A8BF0346FFF763BA41F6FF70E0
:104FA000FFF7F4B86B49013B51F82330A3F2FF71CE
:104FB000FFF73FB90028BFF6DEAC654B424283FBEA
:104FC0000230D317C3EB600303EB4303A2EB83036D
:104FD000C3F10C00CFE4243E002EB8F8003040F3BB
:104FE0001A81B3423EF43DAEB6B2534BA8F800600E
:104FF00001221A70FEF735BE4A1CD2B2022A3FF6D1
:10500000DDAE22701A46FFF7F1B81646FFF712BB65
:105010004F4E5A4286FB0236D317C3EB660303EBAF
:105020004303A2EB8303C3F10C03FFF707BA7F200E
:10503000FFF752BA7F20FFF7D3B84FF0000E86F883
:1050400000E0FEF761BE4FF0000C8EF800C0FEF7E6
:105050006EBE00210170FEF784BE3F4F387801F02C
:1050600073F93E4B1B78002B00F09E803B887E2B13
:1050700000F29A803A4EDFF8FC903268D9F80010BE
:10508000521A0F2A40F28A80364A0133108899B2A8
:105090003980002800F0A180C9B2C0B204F08CF9B8
:1050A000314F326898F80030C9F800203B70FEF7A5
:1050B000AABC0120FFF710BA04F0D2F9FFF740B9FB
:1050C0000021422004F078F958E60021402004F045
:1050D00073F94EE699F8000004F0C2F944E699F835
:1050E0000000FBF717FE3AE60120FFF779B8174BEF
:1050F00001931B88002B7FF44BADFFF719BA1B4BB4
:105100001A60FEF773BF144B154E19886A2004F01D
:10511000CFFA98F800303B70FEF775BCB7A4FF1FBC
:10512000BAA1FF1F0CA4FF1F5EA4FF1F68A2FF1FF0
:10513000DEA2FF1FC0A1FF1FC1A1FF1FA8A2FF1F6A
:10514000E8A1FF1F908DFF1F95A4FF1F4CA2FF1F1A
:10515000ABAAAA2A3C33010022A2FF1FBBA4FF1F57
:10516000F8A3FF1F94A2FF1FB8A1FF1F98A1FF1F64
:1051700065A2FF1F9CA4FF1F0028BFF6B0AD694BBE
:10518000424283FB0230D317C3EB600303EB4303BC
:10519000A2EB8303C3F10C00A1E5634E634F98F8C3
:1051A00000303B70FEF72FBC614B1B78002BF4D016
:1051B0003B88604F002BF0D05B4EDFF8A89132683F
:1051C000D9F80010521A0F2AE8D95B4A013B10881F
:1051D00099B2398000287FF45FAFC8B204F08CF92F
:1051E0005EE701283EF4F8AC012346E6534E5449ED
:1051F0000296FEF76DBD4FF47A43013BFDD199F85D
:10520000000004F02DF9FFF713BB0138FFF73AB99E
:105210000138FEF7BBBF012B3EF423AD0126E4E6C7
:10522000484B1B782BB3484B1B78002B7EF419ADF1
:10523000464B1B78002B3EF414ADB8F800304449BF
:105240000A3BA8F800300A70FEF70BBD3E4B1B78F6
:10525000002B7FF40BAA3D4B1B78002B3EF401ADD5
:10526000B8F800303A490133A8F800300A70FEF768
:10527000F8BC354B1B78002B7EF4F3AC334B1B781A
:10528000002B3EF4EEACB8F800303149013BA8F8F1
:1052900000300A70FEF7E5BC2E4B00227F2107206C
:1052A0001A8004F089F87F210B2004F085F8FFF7BD
:1052B00010BA294B01227F2107201A8004F07CF8C4
:1052C0007F210B2004F078F8FFF7FBB9234B042271
:1052D0007F2107201A8004F06FF800210B2004F0D2
:1052E0006BF8FFF7E7B91D4B02227F2107201A80D8
:1052F00004F062F87F210B2004F05EF8FFF7D5B9C7
:10530000164B002107201E8004F056F87F210B2049
:1053100004F052F8FFF7C4B9114B0393074B029303
:1053200036E400BFABAAAA2AF8A3FF1FB8A1FF1F4B
:10533000BAA4FF1F22A2FF1F94A2FF1FDEA2FF1F1D
:105340000CA4FF1FB7A4FF1FB8A4FF1FB9A4FF1F21
:10535000C1A1FF1F12A2FF1FCEA2FF1F00A4FF1FAB
:1053600068A2FF1F9CA4FF1F38B508F027FC0E4859
:1053700005F0C2FF0D4805F0BFFF0D4805F0BCFF6A
:1053800000234FF07E5201210A48FBF76FF80A4BC9
:105390000A4A0B49802400251C7118461D60BDE88F
:1053A00038400BF083BF00BFBCA3FF1F54A2FF1FF8
:1053B000D4A2FF1F2CA2FF1F6CA4FF1F0C8DFF1F88
:1053C000F50F000010B50446A4206368198804F0A6
:1053D0006FF9E368A6201988BDE8104004F068B9A9
:1053E00043682A20198804F063B900BF10B5044649
:1053F00022206368198804F05BF9E3682420198887
:10540000BDE8104004F054B910B504460A206368A2
:10541000198804F04DF9E3680C201988BDE81040A4
:1054200004F046B910B5044606206368198804F0F4
:105430003FF9E36808201988BDE8104004F038B946
:1054400010B5044602206368198804F031F9E36856
:1054500004201988BDE8104004F02AB970B50E4C3C
:1054600084B01225042201230646039002932046AD
:105470008DE824001423102107F012FE06220923D0
:10548000029303960195204600921423102107F001
:1054900007FE04B070BD00BFE8A4FF1FF8B5B04C14
:1054A000B4F90030032B00F01381002B6AD0022BDB
:1054B00000F08A80052B00F0B580012B00F0DD8024
:1054C000042B00D0F8BDA74FA74E00254FF4AF74B2
:1054D000E9B2A64805F03AFF57F8043BC3F59673C6
:1054E00000FB03F086FB0023C017C0EB631084426F
:1054F00005F10105A8BF0446062DE9D19C4F9A4E3F
:105500000025E9B29B4805F021FF57F8043BC3F59D
:10551000967300FB03F086FB0023C017C0EB6310FB
:10552000844205F10105A8BF04460C2DE9D1924F34
:105530008D4E0025E9B2914805F008FF57F8043B6D
:10554000894AC3F5967300FB03F086FB0013C0176E
:10555000C0EB6310844205F10105A8BF04460C2D81
:10556000E8D1A4F11401312900F3A38040F26C7258
:1055700032218348834B01801A602A20BDE8F8401D
:1055800004F096B80E2008F07DFA40F6FF71C8309E
:105590008842A8BF084620EAE07000F2DC5283B2DD
:1055A0008A42794D794EA8BF0A46022019463380B7
:1055B0002A8004F07DF82988042004F079F8B4F9F1
:1055C0000030022B7FF476AF012009F0A1FF0546E1
:1055D000002009F09DFFA842B8BF284600F1C8018D
:1055E000B1F5FA7FC0F2B580B1F57A6FA8BF4FF47C
:1055F0007A6101F54873B3F57A6FA8BF4FF47A6307
:105600009BB289B2624A634D11800A202B8004F05C
:105610004FF829880C2004F04BF8B4F90030052B22
:105620007FF44BAF0F2009F073FFC0F53F630433E5
:10563000B3F5AF6FC0F28A80B3F5FA6FA8BF4FF42D
:10564000FA6399B2544BC0F54360B0F5AF6F19805F
:1056500062DBB0F5FA6FA8BF4FF4FA6083B24F4D2A
:10566000A4202B8004F024F82988A62004F020F838
:10567000B4F90030012B7FF423AF152008F002FAB3
:1056800000F59671B1F52F7F4EDB41F25C23994214
:1056900064DC434A00F5617089B2B0F52F7F118058
:1056A000B8BF4FF42F7345DB8342A8BF03469BB2BC
:1056B00040E040F23A73A4F5B97403FB04F4963C5D
:1056C00082FB0432E417A4EB621289B2323250E753
:1056D000102009F01DFFC830B0F5FA7F1FDBB0F5D0
:1056E0007A6F0146A8BF4FF47A6101F51673B3F5DE
:1056F0007A6FA8BF4FF47A639BB289B2294A2A4DC8
:10570000118022202B8003F0D3FF2988242003F06E
:10571000CFFFB4F90030C8E64FF4AF639FE740F223
:105720004C434FF4FA71E9E740F214534FF42F71F0
:105730001B4A11801D4D06202B8003F0B9FF2988DC
:10574000082003F0B5FFB4F90030B9E64FF4AF61BB
:1057500078E740F214534FF4FA7153E71946E7E73C
:10576000C6A4FF1F588EFF1FB5814E1BBCA3FF1F91
:10577000288EFF1F54A2FF1F308DFF1FD4A2FF1FD2
:105780007CA4FF1F148EFF1FACA1FF1FDCA2FF1F14
:1057900014A4FF1F18A2FF1FE0A2FF1F30A4FF1FC9
:1057A00074A2FF1FE0A3FF1FDCA3FF1F48A4FF1F7D
:1057B0002DE9F041224D82B0012602B284B200925E
:1057C000284601967823192107F0B0FB04F10C025A
:1057D00012B28DE844002846A7197823192104F154
:1057E000020807F0A3FB3FB20FFA88F819233A46E4
:1057F000284619460196CDF8008007F097FB7823DC
:105800003A4628461946CDF80080019604F10A0769
:105810000B3407F08BFB3FB224B278233A4628467C
:1058200019468DE8500007F081FB192300943A4691
:1058300001962846194607F079FB02B0BDE8F081D1
:10584000E8A4FF1F30B583B000230C4605B20093D7
:1058500026225B231C210C4807F0B8F829460123B7
:105860002622094806F0CEFB002C24B205DB214697
:1058700001232622044806F0C5FB044A044B158088
:105880001C8003B030BD00BFE8A4FF1F728EFF1F55
:10589000748EFF1FF0B5C64C237883B01BB1C54B87
:1058A0004FF6FF721A80C44BB3F9003003BBC34BF1
:1058B000C3481B68BF495A2283F30C0302FB03F35E
:1058C00003F2FF7380FB03201844DB17C3EBE020D7
:1058D000B1F900301C30834256D04FF0FF31FFF752
:1058E000B1FFB84807F0D6F80023237003B0F0BD2D
:1058F000012B25D0022B68D0032B4BD0042B00F0BA
:10590000AB80052BF0D10F2009F002FEC0F53B6003
:105910000830B0F5AF6F56DBB0F5FA6FA8BF4FF4A3
:10592000FA60A0F5AF625A2303FB02F3A64803F521
:10593000967380FB0320DB17C3EBA0101C301EE026
:10594000A24B1B78002B7DD0152008F09BF8A04BB4
:105950001860B0F52F7F36DB41F25C239842A8BF78
:105960001846A0F52F705A2303FB00F3994803F55E
:10597000FA6380FB0320DB17C3EB20201C308D4B28
:10598000B3F900308342A8D1934BB3F9003001330F
:10599000A3D1A9E7914B1B68B3F5FA7F13DBB3F5ED
:1059A0007A6FA8BF4FF47A63A3F5FA725A2303FB08
:1059B00002F38B4803F2D66380FB0320DB17C3EBB3
:1059C00060201C30DBE71C20D9E7864B1B68B3F551
:1059D000FA7F3FDBB3F57A6FA8BF4FF47A63A3F584
:1059E000FA725A2303FB02F37D4803F2D66380FB6D
:1059F0000320DB17C3EB60201C307B4B1B68B3F527
:105A0000FA7F25DBB3F57A6FA8BF4FF47A63A3F56D
:105A1000FA725A2303FB02F3714903F2D66381FB46
:105A20000321DB17C3EB61211C31624BB3F900305A
:105A300083427FF454AF684BB3F900308B427FF45C
:105A40004EAF51E7112009F063FD614B186080E70C
:105A50001C21EAE71C20D0E7252200258DE8240040
:105A600076231C215748614E574F07F05FFA17E025
:105A7000B0F5AF7FA8BF4FF4AF70323802FB00F033
:105A8000963087FB0031C017C0EB61111C3109B2A1
:105A900001231D4425224B4806F0B4FA0C2D14D0E6
:105AA000E9B2534805F052FC56F8043BC3F596732F
:105AB00000FB03F087FB0013C017C0EB6310312815
:105AC0004FF05A02D4DC1C21E2E7262200258DE8A3
:105AD000240076231C213B48464E3B4F07F026FA14
