:1000000000800020BD010000D5EB000091EB000056
:1000100091EB000091EB000091EB000091EB0000F0
:1000200091EB000091EB000091EB0000D5EB00009C
:10003000D5EB000091EB0000C1DF0000C5DF000040
:10004000D5EB0000D5EB0000D5EB0000D5EB0000B0
:10005000D5EB0000D5EB0000D5EB0000D5EB0000A0
:10006000D5EB0000D5EB0000D5EB0000D5EB000090
:10007000D5EB0000D5EB0000D5EB0000D5EB000080
:10008000D5EB0000D5EB0000D5EB0000D5EB000070
:10009000D5EB0000D5EB0000D5EB0000D5EB000060
:1000A00025BA000031BA0000D5EB0000D5EB000006
:1000B000D5EB0000D5EB0000D5EB0000D5EB000040
:1000C000D5EB0000D5EB0000D5EB0000D5EB000030
:1000D000D5EB0000D5EB0000D5EB0000D5EB000020
:1000E000D5EB0000D5EB0000D5EB0000D5EB000010
:1000F000D5EB0000D5EB0000D5EB000099FB00002C
:10010000D5EB0000E1020100D5EB0000D5EB0000CB
:10011000D5EB0000D5EB0000D5EB0000D5EB0000DF
:10012000D5EB0000D5EB0000D5EB0000D5EB0000CF
:10013000D5EB0000D5EB0000D5EB0000D5EB0000BF
:10014000D5EB0000D5EB0000D5EB0000D5EB0000AF
:100150005DE4000079E4000095E40000B1E40000F3
:10016000D5EB00005D060100D5EB0000D5EB0000EB
:10017000D5EB0000D5EB0000D5EB0000D5EB00007F
:10018000D5EB0000D5EB0000D5EB0000D5EB00006F
:10019000D5EB0000D5EB0000D5EB0000D5EB00005F
:1001A000D5EB0000D5EB0000D5EB0000D5EB00004F
:1001B000D5EB0000D5EB0000D5EB0000574B4CF21F
:1001C000205210B5DA814DF62812DA8100BF00BF47
:1001D0000EF004FD524B4FF010621A63514A9A63BD
:1001E000514ADA63514A136913F4807303D153619E
:1001F0004FF4A85313614E4B9A78110703D59A78A0
:1002000042F008029A704B4B4B482A221A704B4B13
:10021000DA1C121AC11E22F00302994288BF002282
:1002200047490EF0E1FB474B4748DA1C121AC11E42
:1002300022F00302994288BF0022002112F050FCF4
:10024000424943484FF4DE720EF0CEFB414B424A26
:10025000802103F8011B9342FBD14FF0E0233C4A7D
:10026000C3F8082D3D4B8A221A70A3F5805324222F
:100270005A70A0221A709A799207FCD59A79D406FE
:10028000FCD4374B9A7902F00C02082AFAD10322E7
:100290001A7140225A719A799006FCD5304A9379A6
:1002A0005906FCD51E4B2F4959640221996420211F
:1002B0001170917901F00C010C29FAD12A4A5A6087
:1002C0004FF0E023294A5A6100229A6107221A61FD
:1002D000274AC3F8202D62B60EF0DCFD134B5B6994
:1002E000DA0705D523480EF0C9FD234B234ADA610E
:1002F000234B1B785B0609D51F4C204BE2699A42C1
:1003000004D11C480EF0BAFD0023E3610EF06CFC32
:1003100012F0C8FC0EF060FBFEE700BF00200540B5
:1003200000800440823F04000100002B00D0034005
:1003300000D0074000E00740308CFF1F6099FF1F8E
:1003400094670100D4A4FF1F6099FF1F0000000004
:100350000082FF1F00E400E05FE400E00050064080
:100360000040064000000301C0100500FF760100B8
:1003700000002020B933D06800E00340A5C3945AA0
:1003800000F00740FFFFFFFFFFFFFFFFFFFFFFFF42
:10039000FFFFFFFFFFFFFFFFFFFFFFFFFFFFFFFF6D
:1003A000FFFFFFFFFFFFFFFFFFFFFFFFFFFFFFFF5D
:1003B000FFFFFFFFFFFFFFFFFFFFFFFFFFFFFFFF4D
:1003C000FFFFFFFFFFFFFFFFFFFFFFFFFFFFFFFF3D
:1003D000FFFFFFFFFFFFFFFFFFFFFFFFFFFFFFFF2D
:1003E000FFFFFFFFFFFFFFFFFFFFFFFFFFFFFFFF1D
:1003F000FFFFFFFFFFFFFFFFFFFFFFFFFFFFFFFF0D
:10040000FFFFFFFFFFFFFFFFFFFFFFFFDEF9FFFF23
:100410000548064B1B1AD90F01EBA301491002D066
:10042000034B03B1184770476099FF1F6099FF1F86
:100430000000000008B5054B1BB105490548AFF3A6
:100440000080BDE80840FFF7E3BF00BF00000000E8
:100450006099FF1F8C67010038B50446084620707C
:100460000A4910461D4611F0E9FB01464FF07E5047
:1004700011F098FC064911F0E1FBE5606060256130
:1004800065610EF053FFE061204638BDDB0FC940C7
:100490000024744938B50446084620700A491046BD
:1004A0001D4611F0CBFB01464FF07E5011F07AFC57
:1004B000064911F0C3FBE5606060256165610EF0DF
:1004C00035FFE06138BD00BFDB0FC940002474492F
:1004D000037810B50446032B21D8DFE803F0191E7A
:1004E0001102C168406911F09FFA0E490346606825
:1004F0001C4611F057FC0146204611F053FC10BD7C
:100500000849406811F04EFCE16811F097FB10BDFE
:10051000C168406911F088FA10BDC06810BD0020A4
:1005200010BD00BF00247449F8B504460E460EF015
:10053000FDFEE3690546C01A11F02CFBE768A061D7
:100540000146E56160686661276111F02BFC014698
:10055000A0600E4811F026FC11F0E4F805460146B3
:100560004FF07E5011F060FA314611F067FB2946DA
:100570000646384611F062FB0146304611F056FA45
:10058000E0602046BDE8F840FFF7A2BF000080BF52
:10059000036818470B680360704700BF0B6803606F
:1005A000704700BF704700BF10B504460DF00AFF4A
:1005B000204610BDF8B5044606981D460F46561A4B
:1005C00011F002FD401BF6B1A4EB070C002800FB64
:1005D0000CFC06EBD6730ADB0CEB630C0CFB06F38E
:1005E000002B9CFBF6FC0CEB050011DBF8BDACEB23
:1005F000630C0CFB06F3002B9CFBF6FC0CEB0500DC
:10060000F4DB0130F8BD00EBD07005EB6000F8BD05
:100610000138F8BDBDF800C0521AACEB030C1CD079
:10062000401ABCF1000F0CFB00F002EBD27109DBA9
:1006300000EB610000FB02F1002990FBF2F018448E
:1006400010DB7047A0EB610000FB02F1002990FB7A
:10065000F2F01844F5DB013070470CEBDC7C03EB67
:100660006C00704701387047DDF800C0521AACEBDF
:10067000030C1CD0401ABCF1000F0CFB00F002EB85
:10068000D27109DB00EB610000FB02F1002990FB55
:10069000F2F0184410DB7047A0EB610000FB02F1A0
:1006A000002990FBF2F01844F5DB013070470CEBA9
:1006B000DC7C03EB6C0070470138704738B50B8861
:1006C000182B0D46044607D1294B1B7805EB430533
:1006D0006B88182B14D138BD0344A3F118007F2870
:1006E00023DD244A973BA2FB0312D20802EB42020D
:1006F000A3EB820303F17300C0B208F04BFEE3E703
:100700001C44A4F118007F281EDD1A4B973CA3FB64
:100710000423DB0803EB4303A4EB830404F173001D
:10072000BDE83840C0B208F035BE0028E4DA114A0E
:10073000C3F11803A2FB0312D20802EB4202A3EB9F
:100740008203C3F10C00D7E70028E9DA094BC4F1B2
:100750001804A3FB0423DB0803EB4303A4EB83048B
:10076000C4F10C00C0B2BDE8384008F013BE00BFB1
:10077000BF8DFF1FABAAAAAA38B50C46054634F8B0
:10078000023B182B1DD134480378013303F00302D8
:100790000270134634F81220182A28D14FF0040CA6
:1007A000591C032BCAB215BF1346224604EB420262
:1007B000002303701288182A19D1BCF1010CEFD163
:1007C00038BD0344A3F118007F2827DD234A973B57
:1007D000A2FB0312D20802EB4202A3EB820303F155
:1007E00073001F4BC0B2197808F096FDCBE7154493
:1007F000A5F118007F2820DD184B973DA3FB0523AA
:10080000DB0803EB4303A5EB830505F17300144BF1
:10081000C0B21978BDE8384008F07EBD0028E0DAA3
:100820000E4AC3F11803A2FB0312D20802EB4202E4
:10083000A3EB8203C3F10C00D3E70028E7DA074BF0
:10084000C5F11805A3FB0523DB0803EB4303A5EB68
:100850008305C5F10C00DAE7BF8DFF1FABAAAAAA7A
:10086000829CFF1F38B50E202B4D0DF0AFFF29885D
:100870002A4B81421B88044633DD5B1A0A4636D078
:10088000521AC2EB023203EBD37102EB610292FB0C
:10089000F3F102FB03F3002B3ADB14200EF04CFBC8
:1008A0001F4B1B889BBB2A88A24223DC40F6FF73A8
:1008B0009C42A8BF1C46C2F57F630F3303B3A11A45
:1008C000C1EB013103EBD37201EB620101FB03F2D7
:1008D000002A91FBF3F11DDBBDE8384028200EF023
:1008E0002BBB83421A46A8BF02465B1AC8D140F20E
:1008F000FF71D2E7C2F57F630F331446002BDED1C0
:10090000BDE8384040F2FF7128200EF015BB38BD1D
:100910000139C2E70139DFE7BE9AFF1FBC9AFF1F0A
:10092000FC9AFF1FF8B5724B724C1B88C31A054620
:1009300084FB0304D817C0EB640000EB4000A3EB7A
:10094000800303EB4303980001EB83040858284419
:10095000AAB17F285CDD684B7F38A3FB0023DB084E
:1009600003EB4303A0EB83007330644F644E39788C
:10097000C0B208F0D1FC3388022B57D8F8BD7F28CD
:1009800038DD5D4B7F38A3FB0023DB0803EB43031B
:10099000A0EB830073305A4EC0B208F0FBFC3388E2
:1009A000022BEBD9606828447F2840F39280524B99
:1009B0007F38A3FB0023DB0803EB4303A0EB83009A
:1009C0007330C0B208F0E6FC3388032BD6D9A06898
:1009D00028447F286FDD484B7F38A3FB0023DB08CA
:1009E00003EB4303A0EB83007330BDE8F840C0B2D3
:1009F00008F0D0BC0028CEDA3F4B4042A3FB0023D6
:100A0000DB0803EB4303A0EB8300C0F10C00C2E75B
:100A10000028AADA384B4042A3FB0023DB0803EB93
:100A20004303A0EB8300C0F10C009EE760682844FC
:100A30007F2832DD304B7F38A3FB0023DB0803EB3C
:100A40004303A0EB830073303978C0B208F064FC34
:100A50003388032B92D9A06828447F280FDD264BCA
:100A60007F38A3FB0023DB0803EB4303A0EB8300E9
:100A700073303978C0B2BDE8F84008F04DBC0028AA
:100A8000F7DA1D4B4042A3FB0023DB0803EB4303D3
:100A9000A0EB8300C0F10C00EBE70028D4DA164B82
:100AA0004042A3FB0023DB0803EB4303A0EB8300DE
:100AB000C0F10C00C8E7002897DA0F4B4042A3FBB7
:100AC0000023DB0803EB4303A0EB8300C0F10C0021
:100AD0008BE70028BFF675AF074B4042A3FB00230E
:100AE000DB0803EB4303A0EB8300C0F10C0068E7D5
:100AF0006C9BFF1FABAAAA2AABAAAAAA829CFF1FC3
:100B00006E9BFF1F08B51A4B1B7833B315200DF0F1
:100B10005DFE184B184A1B781060DBB1174B1B8821
:100B200083421EDC164A1288D11A1ED08242D4BFDC
:100B3000C3EB0203C3EB0003A3EB830301EBD1720E
:100B4000A3EB620303FB01F2002A93FBF1F3B4BFB2
:100B5000043305330B4A136008BD11200FF084FCE9
:100B6000D7E7084A0023136008BD0323F2E700BF5C
:100B70007C9AFF1F4C9BFF1F809AFF1F129CFF1F38
:100B8000109CFF1F509BFF1F2DE9F843974B1B88BC
:100B9000013B0446092B3CD8DFE803F00A10161C81
:100BA00022282E3D4205BDE8F8439149FFF786BD56
:100BB000BDE8F8438F490022FFF7B4BEBDE8F84313
:100BC0008D490022FFF7AEBEBDE8F8438B490022F5
:100BD000FFF7A8BEBDE8F84389490022FFF7A2BE8F
:100BE000BDE8F84387490022FFF79CBEBDE8F84303
:100BF00085490022FFF796BE844D854E2B88A3B110
:100C000084493288098803318A420EDC1344022B5E
:100C100048DCBDE8F883BDE8F8437F49FFF74EBDE7
:100C2000BDE8F8437D49FFF749BD7D4A7D491288FB
:100C30007D4FA21A81FB021C7C49D0170988C0EBAA
:100C40006C0000EB4000A2EB800201EBC101090146
:100C500002EB420201EB8202A3EB8303B85820446B
:100C600000EB83007F2812DC00280ADA704B404238
:100C7000A3FB0023DB0803EB4303A0EB8300C0F1DD
:100C80000C00C0B208F086FB32882B88BEE7684BA8
:100C90007F38A3FB0023DB0803EB4303A0EB8300B7
:100CA0007330EEE7DFF878915E49B9F80030DFF88D
:100CB0007C815D4FE31A81FB0321DA17C2EB6102ED
:100CC00002EB4202A3EB820303EB4302B8F80030CD
:100CD00003EBC3031B0103EB82033B44586820442E
:100CE0007F2858DD524B7F38A3FB0023DB0803EB42
:100CF0004303A0EB83007330C0B208F04BFB338892
:100D00002A881344032B84DDB9F800304548B8F82D
:100D10000020E31A80FB0310D917C1EB600101EB3F
:100D2000410102EBC202A3EB8103120103EB430377
:100D300002EB83031F44B86820447F2839DD3C4B15
:100D40007F38A3FB0023DB0803EB4303A0EB830006
:100D50007330C0B208F01EFB33882A881344042B7A
:100D60007FF757AF2B4B1B88012B7FF452AFA4F1B9
:100D70000C037F2B2BDD2E4AA4F18B03A2FB031265
:100D8000D20802EB4202A3EB82037333D8B2BDE870
:100D9000F84308F0FFBA0028AEDA254B4042A3FB27
:100DA0000023DB0803EB4303A0EB8300C0F10C003E
:100DB000A2E70028CDDA1E4B4042A3FB0023DB084C
:100DC00003EB4303A0EB8300C0F10C00C1E7002B51
:100DD000DCDA174AC4F10C03A2FB0312D20802EBBF
:100DE0004202A3EB8203C3F10C03CFE7089CFF1F71
:100DF000449CFF1FA0320100103201006831010045
:100E0000003D0100703C0100903D0100369BFF1F3A
:100E10006E9BFF1F389BFF1F2C9CFF1F389CFF1FE2
:100E20006C9BFF1FABAAAA2A083A01003A9BFF1F3E
:100E3000ABAAAAAA2DE9F843964B1B88013B0446AE
:100E4000092B3CD8DFE803F00A10161C22282E3D9F
:100E50004205BDE8F8439049FFF78EBCBDE8F84372
:100E60008E490122FFF75EBDBDE8F8438C4901229F
:100E7000FFF758BDBDE8F8438A490122FFF752BD8C
:100E8000BDE8F84388490122FFF74CBDBDE8F843AF
:100E900086490122FFF746BDBDE8F8438449012297
:100EA000FFF740BD834A844B12881988551891B1C9
:100EB000824B1B8803339A420DDC022D48DCBDE8CF
:100EC000F883BDE8F8437E49FFF756BCBDE8F84318
:100ED0007C49FFF751BC7C4B7C4F1B887C4EE31A4E
:100EE00087FB03277B4AD8171288C0EB670000EB0B
:100EF0004000A3EB800302EBC202120103EB4303A9
:100F000002EB8303A1EB8101F058204400EB810048
:100F10007F2812DC00280ADA6F4B4042A3FB002333
:100F2000DB0803EB4303A0EB8300C0F10C006B4B29
:100F3000C0B2197808F0F0F9BFE7674B7F38A3FB20
:100F40000023DB0803EB4303A0EB83007330EEE7E1
:100F5000DFF874915D49B9F80030DFF878815C4EB4
:100F6000E31A81FB0321DA17C2EB610202EB4202B2
:100F7000A3EB820303EB4302B8F8003003EBC30397
:100F80001B0103EB82033344586820447F2856DD5D
:100F9000514B7F38A3FB0023DB0803EB4303A0EB9B
:100FA000830073304D4FC0B2397808F0B5F9032D86
:100FB00085D0B9F800304548B8F80020E31A80FB26
:100FC0000310D917C1EB600101EB410102EBC20232
:100FD000A3EB8103120103EB430302EB83031E44E3
:100FE000B06820447F2838DD3B4B7F38A3FB0023CB
:100FF000DB0803EB4303A0EB830073303978C0B206
:1010000008F08AF9042D3FF45AAF2C4B1B88012BB2
:101010007FF455AFA4F10C037F2B2CDD2E4AA4F1F5
:101020008B03A2FB0312D20802EB4202A3EB820362
:1010300073333978D8B2BDE8F84308F06DB90028A9
:10104000B0DA254B4042A3FB0023DB0803EB43034C
:10105000A0EB8300C0F10C00A4E70028CEDA1E4B01
:101060004042A3FB0023DB0803EB4303A0EB830018
:10107000C0F10C00C2E7002BDBDA174AC4F10C0305
:10108000A2FB0312D20802EB4202A3EB8203C3F1DC
:101090000C03CEE7089CFF1F449CFF1FA0320100F9
:1010A0001032010068310100003D0100703C010078
:1010B000903D01006E9BFF1F369BFF1F389BFF1F5B
:1010C0002C9CFF1F389CFF1F6C9BFF1FABAAAA2AFA
:1010D000083A01003A9BFF1FABAAAAAA829CFF1FF5
:1010E00010B50C8884422DD203F10043013B31F846
:1010F0001340844223D9B1F802C0844538BF01238C
:1011000024D20133DBB29E4631F813C060454FEA6A
:101110004304F6D8604517D00EF1004E0EF1FF3EA5
:10112000135B31F81E1032F81E20401A9B1A03FB85
:1011300000F0ACEB010C90FBFCF0104410BD32F859
:10114000130010BD108810BD105B10BD02244FF0BD
:10115000010EDFE7204B1B880C2B30D81F4982B2D1
:1011600030B551F8235042B343F6FE739A4227D864
:10117000B2F5806F29D31A4C01230133DBB2194633
:1011800034F813E072454FEA430CF6D8724519D093
:1011900001F100410139124B35F8114033F811309B
:1011A00035F80C2080B2C01A121B00FB02F2AEEB25
:1011B000030392FBF3F3181930BD288830BD704744
:1011C000288C30BD35F80C0030BD40F2FF3E4FF0AA
:1011D000020C0121DAE700BFDC9AFF1F443E010048
:1011E000203E01002DE9F0435C4B83B0186810F0FD
:1011F000D1FC5B4B0446188810F0C8FC0146204621
:1012000010F01CFD574910F0CDFD10F0DDFE564BDF
:101210001A88002A73D04042544B55491B680C88E9
:10122000544A9C42168825465CDCB342A8BF33462C
:101230001844A0425ADA504B1C60B542A8BF35464C
:10124000331B6BD0281B03EBD372C0EB803000EB59
:10125000620000FB03F2002A90FBF3F07BDBFFF758
:1012600079FF464B1F88464BC0F3C61909FB07F7A9
:101270001B887F2F8046A8BF7F273BB10093324653
:10128000002321462846FFF7C5F903463D4A3E4C58
:10129000136023684B4509D03C4B1B88002B4DD174
:1012A0003B4B1B88002B45D1C4F80090394C236878
:1012B000434506D0354B1B885A1F032A31D9C4F841
:1012C0000080354C23689F4209D0344B188828B1E0
:1012D0002E4B334A1B88D35C834237D1276003B03F
:1012E000BDE8F08323461844A042A4DBB042A8BF67
:1012F0003046214BA0421860A2DB05469DE7294BF2
:101300001B68032B88D0194B19481B68048819499E
:10131000A3420E88254617DA2046E7E741F6FF701C
:101320009DE71F4AD05C203008F07F01C0B207F073
:10133000B5FFC4E7484608F065F8B5E7184A4946DE
:10134000D05C07F0ABFFABE710466EE7F9B2C0B276
:1013500007F0A4FFC2E7013881E700BF8C9CFF1FA4
:10136000748EFF1F00002042849CFF1F189CFF1FEB
:10137000BE9AFF1FBC9AFF1FB89AFF1F929AFF1FC9
:10138000869AFF1F889AFF1FC49BFF1F8E9AFF1F1C
:101390008C9AFF1FCC9BFF1FC89BFF1F909AFF1FBB
:1013A000B48DFF1FB49BFF1F2DE9F04F01208DB0BE
:1013B0000FF05AF8AB4A0346002013600FF054F8C0
:1013C000A94BAA4A1B8810600C2B00F08B80A84AFE
:1013D00000211F2B117040F08C80A64BA6491B7872
:1013E000A648A74A0891003B18BF012303700B8849
:1013F000069052F82380A34BA3491A88A34BA44814
:101400001B880988013A013B30F912200992A14A50
:10141000072932F9134000F243826FF0D2030B41E7
:10142000DB0700F13D829C4B1B78002B00F07182A2
:1014300015200DF0CBF90546984B04931E68AE427B
:1014400040F33B82964B974A1B88DFF85C920792E9
:10145000012B964B1F8813684046A3EB040400F051
:101460000C8310F097FB59F8271010F0E7FB0146AA
:10147000002010F0D9FAA5428D4F00904FF00003E4
:1014800028463146B8BF20462246FFF793F83B680E
:10149000184400EBD070874B059340103860864BA2
:1014A0001B88072B07D86FF0D20A4AFA03FA1AF002
:1014B000010A00F08F81DFF80492814BD7F800A079
:1014C000D9F80040DFF8FCB1039300267E4B1B885F
:1014D000013B032B00F22C83DFE813F058013401A9
:1014E00010011700634B1B78002B40F04B82604AC1
:1014F0001370624B604A06931946002308920B70E2
:1015000012885F4B53F8228075E7204610F042FBAB
:101510006E4910F093FB0446304610F03BFB6C49DB
:1015200010F08CFB0146204610F080FA10F04CFDC4
:10153000079EC9F800000446306810F02BFB634991
:1015400010F07CFB034628461D4610F023FB604943
:1015500010F074FB0146284610F068FA10F034FDD4
:101560003060404B5B4D19685B4B2D881A885B4B94
:101570005B4E1B88DDF80CC03688A71A2244049CF9
:10158000CBF80020C21A2260059ACCF80070034400
:101590008D42136000F38F818E423046A8BF08460B
:1015A000324B1B689D4200F384819E423446A8BFA3
:1015B0001C468D42C0F257819D42C0F25481494D74
:1015C000286810F0E7FA414910F038FB464910F05E
:1015D0002DFA10F0F9FCA0F5FF531C3B082B2860F6
:1015E00001D84FF4005043F6FF768244B24550468E
:1015F000A8BF304620EAE070286010F0CBFA069BC6
:101600000546187808FB00F010F0C4FA4FF07A5144
:1016100010F014FB0146284610F006FA10F0D4FC36
:10162000324B334D1B78B042A8BF304620EAE07001
:101630002860002B00F00C81BAF5005F00F00881F3
:1016400004F05CFE2B4B286801221A702A4C236898
:10165000834204D080B207F007FF2B6823600DB0EF
:10166000BDE8F08FF49BFF1FFC9BFF1FF09BFF1F4B
:10167000609BFF1FFA9BFF1F8A99FF1F1F9CFF1F84
:10168000CC8DFF1F788EFF1F7A9AFF1F7A8EFF1F67
:10169000F8310100B03401007C9AFF1F949CFF1FB9
:1016A000889CFF1FA49CFF1F483C0100A89CFF1FB3
:1016B0008C9CFF1F989CFF1F989BFF1FA09CFF1FE7
:1016C000909CFF1F9C9CFF1F768EFF1F9A99193FCD
:1016D000CDCCCC3E009CFF1F7C8EFF1F7E8EFF1F5B
:1016E000FE9BFF1F048EFF1FCDCC4C45689DFF1F46
:1016F000008EFF1F8A9CFF1FC88DFF1F204610F021
:1017000049FAB64910F09AFA0446304610F042FA07
:10171000B34910F093FA0146204610F087F910F013
:1017200053FC079EC9F800000446306810F032FAF6
:10173000AA4910F083FA034628461D4610F02AFAFB
:10174000A74905E7204610F025FAA64910F076FAD9
:101750000446304610F01EFAA34910F06FFA014615
:10176000204610F063F910F02FFC079EC9F8000026
:101770000446306810F00EFA9A4910F05FFA0346FA
:1017800028461D4610F006FA9749E1E6204610F07B
:1017900001FA964910F052FA0446304610F0FAF970
:1017A000934910F04BFA0146204610F03FF910F033
:1017B0000BFC079EC9F800000446306810F0EAF9F7
:1017C0008A4910F03BFA034628461D4610F0E2F91C
:1017D0008749BDE6874C03940F200EF045FE226832
:1017E0008242064640F39A80834B0B921B88012B62
:1017F00000F04A81814BDFF808921988D9F800403F
:10180000099B0A914046A4EB030B10F0C3F97D4BF2
:101810000A9953F8211010F011FA0146002010F037
:1018200003F90B9A00905E455346114630465A46DE
:10183000B8BF5846FEF7BEFE3B68DFF8CCB100EB00
:10184000030A0AEBDA7A4FEA6A0AC7F800A03DE613
:101850006E4C2378002B3FF4F9AE04F04BFD0023CF
:1018600028682370F2E6089B1B88002B3FF4A7AE84
:10187000002332462946CDF80080FEF7F5FECDF86C
:1018800000800746324629462046FEF7EDFE3B1A09
:10189000002BB8BF5B42092B00F3CC805C4DA0E667
:1018A0005C4B04935C4B07935C4B5D4F05930025A9
:1018B000F5E52C467DE6284672E6584B05931E68F2
:1018C000AE4276DA4C4B544A1B88DFF838910792C7
:1018D000012B4A4B1F88136840461C4400F0C2800D
:1018E00010F058F959F8271010F0A8F9A5424C4FFC
:1018F00000904FF0000328463146A8BF20462246FC
:10190000FEF758FE3B68184400EBD070401038607A
:10191000C5E511200EF0A8FD05468DE5DFF8E8B01D
:10192000DBF8002082424DDA334B0B921B88012BEF
:1019300000F0D380DFF8C890304BD9F80040099A06
:1019400019880A9122444046099210F023F92D4B40
:101950000A9953F8211010F071F90B9A0090114672
:10196000099AB24253461046A8BF3046FEF722FEFF
:101970003B6800EB030A0AEBDA7A4FEA6A0AC7F817
:1019800000A0A3E5274B284A19880893274B52F853
:1019900021002749069101221A7000230B7010F0D4
:1019A000F9F84FF07C5110F049F910F00DFB80462A
:1019B00021E51B4F184B07933B6803EBD3735B1078
:1019C0003B606CE53B68DFF8389003EBD3734FEA7C
:1019D000630AD9F80040C7F800A077E5CDCC4C3FAA
:1019E000CDCC4C3E6666663FCDCCCC3D3333733FA9
:1019F000CDCC4C3D909CFF1F889CFF1FA89CFF1FD7
:101A0000A09CFF1F483C01009C9CFF1F8A9CFF1F5D
:101A1000048EFF1F949CFF1FA49CFF1F989CFF1F18
:101A20008C9CFF1F8A99FF1FCC8DFF1F609BFF1F9F
:101A30001F9CFF1F07F500540134201A10F0AAF86C
:101A40003D493E4D10F0FAF80446286810F0A2F81F
:101A50003B4910F0F3F8014620460FF0E7FF10F085
:101A6000B3FAC0E510F096F859F8271010F0E6F830
:101A7000014600200FF0D8FF38E710F08BF859F836
:101A8000271010F0DBF8F6E42E4BDFF8BC90198835
:101A9000D9F80040099B0A914046A4EB030B10F0D3
:101AA00079F82A4B0A9953F8211010F0C7F80B9ACD
:101AB00000905E455346114630465A46B8BF5846D8
:101AC000FEF778FD3B68DFF888B0184400EBD07073
:101AD0004FEA600AC7F800A0F8E4DFF86C90194BF1
:101AE000D9F80040099A19880A912244404609927F
:101AF00010F050F8154B0A9953F8211010F09EF889
:101B0000014600200FF090FF0B9A00901146099AB1
:101B1000B24253461046A8BF3046FEF74BFD3B6825
:101B2000184400EBD0704FEA600AC7F800A0CDE47B
:101B3000079B186815E500BFCDCCCC3E048EFF1F77
:101B40009A99193FA89CFF1FA09CFF1F483C0100C9
:101B50009C9CFF1F08B5244B1B885BB3234B1B7851
:101B60005BB3234B1B7843B3224B1B782BB3224B25
:101B70001B7813B3214B1A782AB3214A21482249F2
:101B80001288008809680244B1EB520F15DD00226B
:101B90001A7007F015FD642004F0C4FB642004F003
:101BA000C1FB642004F0BEFBBDE808404FF4167092
:101BB0000DF0DCBB114A117801B908BD1370BDE806
:101BC000084007F0FDBC0E4A0E48104912880088F4
:101BD00009680244B1EB520FEFDD01221A70BDE833
:101BE0000840642004F09EBB3E9BFF1F8D99FF1FA1
:101BF0008E99FF1F8F99FF1F9099FF1F3C9BFF1F1E
:101C0000FE9BFF1F009CFF1FF09BFF1FF49BFF1F0D
:101C100038B5114C232025780CF0D8FD0F4900224F
:101C200041F825000B1F01F1C40053F8041F834243
:101C30000A44FAD123780A490A480133DBB281FB0E
:101C40000251322B4FEAE272C2EB211208BF00238D
:101C50000260237038BD00BFA899FF1FAC99FF1F19
:101C60001F85EB51A499FF1F2DE9F04F9F4CA04D0C
:101C70002068DFF8808285B00FF08CFF9E490FF05E
:101C8000DDFF064610200EF0EFFB0FF083FF9B49AF
:101C90000FF0D4FF31460FF0C9FE10F095F92B88F4
:101CA000206002469A42B8F80010184680F2D080B0
:101CB000CF1A1E4600F0D380F61A07EBD77CC6EB8E
:101CC000C61606EB6C0606FB07FCBCF1000F96FB84
:101CD000F7F6C0F267818A4FDFF828C2CCF80060BF
:101CE0003E88192E00F0EA801A2E2ED01E2E00F00B
:101CF000A4810127844EB946DFF810C2BCF800C0A9
:101D0000BCF1000F13D0DFF808E2BEF800E0BEF12E
:101D1000030F00F23C819A4280F246810A46CDF8D8
:101D200000C019460023FEF775FC7A4B18607A4A0A
:101D30003388108850EA030114D1784B1A78002AAE
:101D400040F01D8205B0BDE8F08F754E3678002E4C
:101D500008BF01276C4E16BF00274FF000094FF057
:101D60000109C9E72988D4F800C0614579DCDFF8AA
:101D7000ACE19EF800A0BAF1000F34D14FF0010A97
:101D800004288EF800A02ED1002F40F0C6813388A1
:101D9000002BD7D0B9F1000FD4D022682888B8F82A
:101DA0000010904200F3AC818A42A8BF0A46091A8B
:101DB00000F0C681121A01EBD174C2EB82126410DA
:101DC00004EB420404FB01F2002A94FBF1F400DB73
:101DD0000134544D2A68A24203D0E1B2D8B207F0D0
:101DE0005DFA2C60AEE7012800F04181022800F086
:101DF000F4800328CBD14C4B1B88092BC7D0002F74
:101E0000C5D023682988B8F80020994240F3A881FA
:101E10000B46521A00F0A8815B1A02EBD277C3EB93
:101E200083137F1007EB430707FB02F3002B97FB9D
:101E3000F2F700DB0137DFF8F4B0DBF80030BB422B
:101E400003D0F9B24A2007F029FACBF800709EE7D8
:101E50008A421646A8BF0E46CF1A7FF42DAF3F2602
:101E600039E72E4A117800293FF46CAF002401288D
:101E7000147000F0EE80022800F0A080032840F0EB
:101E80003381294A1288092A09D047B1274D2A6887
:101E90002AB121464A2007F001FA33882C60002B32
:101EA0003FF450AFB9F1000F3FF44CAFD8B200216E
:101EB00007F0F4F91B4B00221A6043E7DFF860904B
:101EC000114E99F800C0BCF1000F33D0B6F800E015
:101ED000BEF1000F2ED0DFF858A09AF800B0E3450D
:101EE00040F0108101274FF0000905E7049BFF1F18
:101EF000149BFF1F129BFF1F9A99193FCDCCCC3E1C
:101F0000FC9BFF1F089BFF1F0E9BFF1F649BFF1F77
:101F1000629BFF1F689BFF1F0C9BFF1F109BFF1FF7
:101F2000FA9BFF1FD49BFF1F8E9AFF1FD09BFF1FA2
:101F3000899BFF1FDFF84CA29AF800E0E645D1D05C
:101F40003078002107F0AAF999F800303A888AF829
:101F500000308D4BB3F800C0BCF1000F00F0BE8024
:101F60001E2A40F00381012799F80030002B60D031
:101F7000DFF818E22B88BEF800E02268B8F80010FD
:101F8000BEF1030F18464FF000097FF6C4AE9A4227
:101F90000FDA1A46CDF800C00023FEF73BFB7C4B5E
:101FA0001860C4E6013E96E68A42A8BF0A4610467B
:101FB000B4E68A42A8BF0A461046EAE7002F3FF47B
:101FC0006EAF744D2A68002A3FF469AF21460420A1
:101FD00007F064F933882C6061E7002F3FF4D8AE36
:101FE000DFF8B0B1B8F80000DBF800A08445634624
:101FF000A8BF0346401A00F0AE805B1A00EBD07118
:102000004910C3EB831301EB430303FB00F10029E9
:1020100093FBF0F300DB0133534506D0D9B2042023
:10202000039307F03BF95C4A039B1088CBF8003020
:10203000DFE6574A9946136079E6DFF86091524B24
:1020400099F80070B3F800C0554EB7FA87F77F09CA
:102050008AE7002F3FF423AF4E4D2A68002A3FF451
:102060001EAF214607F01AF933882C6017E7002FBE
:102070003FF48DAEB8F800309C456046A8BF1846C6
:102080005B1A6AD0401A03EBD37AC0EB80104FEA98
:102090006A0A0AEB400A0AFB03F100299AFBF3FAE9
:1020A00001DB0AF1010ADFF8ECB0DBF80030534540
:1020B00005D05FFA8AF1012007F0F0F8364A10885F
:1020C000CBF800A002287FF494AE2B88D4F800C08F
:1020D000B8F80000634519468CDC87E71E2A3FF4F8
:1020E00042AFE146012722E604287FF4D8AE002F54
:1020F0003FF4D5AE2146402007F0D0F83388CEE635
:10210000024654E65FFA8EF07F2107F0C7F899F88F
:1021100000303A888AF800301BE740207F2107F022
:10212000BDF81D4A108850450CD002287FF461AEDE
:10213000DFF860B02B88DBF800A0D4F800C0C7E758
:10214000402446E62888D4F800C0B8F8003060453E
:10215000014695DC90E740235EE74FF0400AA2E796
:102160009342A8BF134654E6402764E62B882268B2
:10217000B8F80010184601274FF00009C3E51970A0
:10218000E0E500BF899BFF1F649BFF1F629BFF1F51
:10219000689BFF1FD09BFF1F0C9BFF1FFA9BFF1F1D
:1021A0000E9BFF1F08B5114B1B88022B09D0052B76
:1021B00007D0032B0DD0042B13D00D4B01221A7026
:1021C00008BD7F21412007F069F8094B01221A70F0
:1021D00008BD4021092007F061F8054B01221A7063
:1021E00008BD7F21092007F059F8E6E7149CFF1F7E
:1021F0000A9CFF1F70B5134E134D3388134C052BEB
:1022000016D029882268914209D1022B10D0033BB5
:10221000012B11D80021092007F040F80CE0C9B2C9
:10222000052007F03BF83388022B01D0052BEED1B7
:102230000021412007F032F8054A2B882360002155
:10224000117070BD149CFF1F0E9CFF1FDC9BFF1FB5
:102250000A9CFF1F714B1B881D2B70B500F0A780D7
:102260006F4B1C78002C40F09B806E4B1B88022B20
:1022700038D0053B032B35D96B4B1B88022B5DD027
:10228000053B022B5AD9694A694B11881A88521AA0
:1022900084F30703002A02FB03F3664AC0F2998025
:1022A0003F3382FB03021A44DD17C5EBA215002B56
:1022B0000D44C0F2A580604E604B3560002C1B7849
:1022C00064DD002B00F092805D4B5E4C1B88052B7B
:1022D00006D023689D4203D0E9B2052006F0DEFF58
:1022E000256070BD584B1B78002B55D111200EF086
:1022F000BBF8534B554A1B881060002BBCD0544B85
:102300001B888342B8DC534A1288D11A7AD08242A1
:10231000D4BFC3EB0203C3EB0003C3EBC31301EB56
:10232000D17203EB620303FB01F2002A93FBF1F38A
:102330006EDB1C443C4B1B88022BA1D10F200EF0FE
:1023400093F83F4B444A1B881060002B9BD0434BB3
:10235000C0F53B601B880830984294DB404A1288E5
:10236000D11A52D09042D4BFC3EB0003C3EB020397
:10237000C3EBC31301EBD17203EB620303FB01F266
:10238000002A93FBF1F346DB1C447CE7002B9BD037
:10239000BDE87040FFF72EBF15200CF017FAA8E734
:1023A000274B1B88002B0CBF00247F245DE7244BA8
:1023B0001C88002C3FF459AF2A4A194B12781B781D
:1023C000002A0CBF00247F24002B3FF44EAF7F3443
:1023D0004BE73F3B82FB03021A44DD17C5EBA21516
:1023E000002B0D44FFF667AF013564E7FFF7DAFE17
:1023F000134B35681B88134C052B7FF46AAF6FE7CE
:10240000013D58E73F231C4494E73F231C443AE72F
:10241000013B1C448EE7013B1C4434E7FC9BFF1F3F
:10242000449BFF1F7A9AFF1F989BFF1F0E9CFF1F64
:102430000C9CFF1F09040281289BFF1F0A9CFF1FA1
:10244000149CFF1FDC9BFF1F7C9AFF1F809AFF1FBD
:10245000129CFF1F109CFF1F9C9BFF1FA49BFF1F34
:102460009A9BFF1FFA9BFF1F38B51F4B1B88DA1E74
:10247000022A02D9072B00D038BD1C4B1B784BBB5E
:1024800011200DF0F1FF1A4B1A4A1B88106083428D
:1024900024DC194A1288D11A22D08242D4BFC3EB5D
:1024A0000203C3EB0003C3EBC31301EBD17203EBD5
:1024B000620404FB01F3002B94FBF1F412DB0F4DDB
:1024C0002B68A342D8D00E4BE1B2187806F0E6FE96
:1024D0002C6038BD15200CF079F9D4E70024EEE724
:1024E0003F24ECE7013CEAE77A9AFF1F7C9AFF1F42
:1024F000129CFF1F809AFF1F109CFF1FC09BFF1F95
:10250000789AFF1F38B51D4B1B88DA1E022A02D9A4
:10251000072B00D038BD0F200DF0A6FF184B19492E
:102520001B880860C0F53B6208329A420BDA00242F
:10253000154D2B68A342EDD0144BE1B2187806F08C
:10254000ADFE2C6038BD12490988C81A13D08A42E2
:10255000D4BFC3EB0203C3EB0103C3EBC31300EB14
:10256000D07203EB620404FB00F3002B94FBF0F445
:10257000DEDA013CDCE73F24DAE700BF989BFF1F6F
:10258000A49BFF1F9C9BFF1FD89BFF1F969BFF1FB9
:102590009A9BFF1F2DE9F04110200DF065FFC83018
:1025A000B0F57A6FA8BF4FF47A60B0F5FA7FB8BF84
:1025B0004FF4FA7000F51673B3F57A6F844A854CC0
:1025C000DFF81482854E864DA8BF4FF47A6381B23E
:1025D00022201180238007F0D5F82188814C242007
:1025E00007F0D0F80E200CF0F1F840F6FF72C8307A
:1025F0009042A8BF104620EAE07000F2DC5381B29E
:1026000079489342A8BF134601800220238007F037
:10261000B9F82188042007F0B5F801200DF024FF57
:10262000044600200DF020FF8442B8BF044604F1A8
:10263000C800B0F57A6FA8BF4FF47A60B0F5FA7FA2
:10264000B8BF4FF4FA7000F54873B3F57A6F674A74
:10265000674CA8BF4FF47A6381B20A2011802380AF
:1026600007F090F82188634C0C2007F08BF80F20BE
:102670000DF0FAFEC0F53F610431B1F5FA6FA8BF65
:102680004FF4FA61C0F54363B1F5AF6FB8BF4FF4D3
:10269000AF61B3F5FA6FA8BF4FF4FA63B3F5AF6F4C
:1026A000554AB8BF4FF4AF6389B2A420118023808C
:1026B00007F068F82188514CA62007F063F8152030
:1026C0000CF084F841F25C2200F548709042A8BFFB
:1026D0001046B0F52F7FB8BF4FF42F7000F596630A
:1026E00081B247489342A8BF134601800620238049
:1026F00007F048F82188082007F044F800274FF435
:10270000AF74F9B2304609F09DF958F8043BC3F5AF
:10271000967303FB00F085FB0023C017C0EB63102A
:10272000844207F10107A8BF0446062FE9D1DFF86C
:10273000D480354E2A4D0027F9B2304609F082F98F
:1027400058F8043BC3F5967303FB00F085FB0023A8
:10275000C017C0EB6310844207F10107A8BF04460D
:102760000C2FE9D1DFF8A480294E1D4D0027F9B2C6
:10277000304609F067F958F8043BC3F5967303FB3C
:1027800000F085FB0023C017C0EB6310844207F103
:102790000107A8BF04460C2FE9D1143C322CB8BF66
:1027A000322440F23A72A4F5AF7302FB03F3963B76
:1027B00085FB03251748184ADB17A1B2A3EB651365
:1027C00032330180BDE8F0412A20136006F0DABF01
:1027D000149BFF1F129BFF1F9C8DFF1F749CFF1FEC
:1027E000B5814E1BBC9AFF1FBE9AFF1F009CFF1FA6
:1027F000FE9BFF1F9A9BFF1FA49BFF1F109CFF1FA8
:10280000129CFF1F6C8DFF1F709CFF1F3C8DFF1FD4
:102810006C9CFF1FD69AFF1F708EFF1F2DE9F04F93
:102820000C2095B00BF09EFF0C200CF097FC394962
:10283000DFF8E4A014200CF09FFC3849384808F079
:102840005DFE022103200CF035FD022104200CF076
:1028500031FD022105200CF02DFD022106200CF097
:1028600029FD01210A200CF025FD012109200CF091
:1028700021FD01210D200CF01DFD012128200CF06F
:1028800019FD012114200CF015FD012116200CF07A
:1028900011FD012117200CF00DFD012121200CF06C
:1028A00009FD02211C200CF005FD01211B200CF06C
:1028B00001FD00211B200CF0C9FC1C200CF0ECFCDD
:1028C000B0FA80F35B091A208AF800300CF028FF78
:1028D0001F2000210CF0E6FE04200CF0DDFC002897
:1028E00000F0038205200CF0D7FCE8B903200CF0BF
:1028F000D3FCC8B904200CF0CFFC002800F05C82A7
:1029000006200CF0C9FC074D031E18BF01232B70D5
:102910000DE000BF001B3746AA9CFF1F40420F007E
:102920007890FF1FD49AFF1FB54D00232B7006200F
:102930000CF0B2FCB0FA80F35B094FF0000BB14A27
:10294000137005F075FB2B78002B40F0C9815846B9
:1029500006F032FFAC4BAD491B8840F23A72A3F54A
:10296000AF7302FB03F3963B81FB0321DA17002BC5
:10297000A2EB6112A649D4BF02F1320302F1310386
:10298000A44A0B60A44B12881A7001210D200CF090
:102990005DFC64200CF0EAFC06244FF416710A205A
:1029A0000CF0CAFA9D4A9E4800940C235D2109F060
:1029B000ADF8002800F0188164200CF0D7FC00214D
:1029C0000A200CF0B9FA4FF4967109200CF0B4FA11
:1029D000924A944800940C235C2109F097F800284F
:1029E00000F06D8164200CF0C1FC002109200CF086
:1029F000A3FA4FF4967116200CF09EFA874A8A4883
:102A000000940C235B2109F081F8002800F0478135
:102A100064200CF0ABFC002116200CF08DFA4FF472
:102A2000967117200CF088FA64200CF09FFC0021AE
:102A300017200CF081FA64200CF098FC00210D2086
:102A40000CF004FC794A7A481268DFF8E8917A4E73
:102A50007A4D7B4FDFF8EC8100230121FDF71AFD51
:102A60000124002333602B603B6089F800400F2075
:102A70000DF0FAFC3B6803440E203B600BF0A6FE11
:102A800033680344336099F80030002B00F0228152
:102A900015200BF09BFE2B681844286004F0010001
:102AA00003F030FCB8F80030002B14BF4B20DC20C2
:102AB00001340CF05BFC052CD9D13B6832686249CB
:102AC000624C08886249002BB8BF0333002AB8BFA4
:102AD0000332921032602A6809885E4E002AB8BF1D
:102AE00003329B109210A3EB000C3B602A60236022
:102AF000594F5A4D5A4CC7F800C003443360202048
:102B0000531A0A442B6022600DF0AEFC554B00F5C1
:102B1000FA70186019200DF0A7FC534B00F5FA70FD
:102B20001860BBF1000F40F00881B8F80030002BAE
:102B300000F00A814D4B012404201C600CF0ACFB1A
:102B400018B94B4B344A1C7010704A4B1B881C2B15
:102B500000F0E880484C04F1C80523200BF036FE55
:102B600044F8040F01200CF001FCA542F5D19AF8BD
:102B7000003023B1414B1B78002B40F0F280002144
:102B800021200CF063FB3E4A3E4B10783E4C1870FF
:102B900006F0C0FD03F0AEFB3C4B049304A90AA869
:102BA00002940894FDF7F6FC0AA910A80E94FDF70C
:102BB000F1FC45F6BF520EA935480BF095FB0E9B74
:102BC00010A8DB689847089B0AA8DB689847029B17
:102BD00004A8DB68984715B0BDE8F08F04200CF01E
:102BE0005BFB002800F0C28003200CF055FB00289E
:102BF000F4D003200CF050FB0028F5D1EEE700BF25
:102C0000D49AFF1F709BFF1FD69AFF1FB5814E1BE2
:102C1000708EFF1FE69BFF1FA299FF1F7890FF1F7A
:102C2000749CFF1F6C9CFF1F709CFF1FC08DFF1FBB
:102C3000989AFF1F7C9AFF1F949AFF1FA49CFF1F66
:102C4000A09CFF1F169BFF1F7C8EFF1FA09BFF1FDA
:102C50007E8EFF1F9C9CFF1F909CFF1F949CFF1F5C
:102C6000989CFF1FEC9BFF1FA89BFF1FB49BFF1F9F
:102C7000029BFF1FFC9BFF1FA899FF1FAB9CFF1F20
:102C80008899FF1FA099FF1F5831010065080000B7
:102C9000E89AFF1F04200CF0FFFA00287FD00320E1
:102CA0000CF0FAFA0028F5D003200CF0F5FA002811
:102CB000F5D1EFE704200CF0EFFA002864D00320F0
:102CC0000CF0EAFA0028F5D003200CF0E5FA002811
:102CD000F5D1EFE711200DF0C7FB2B681844DCE6B7
:102CE00015B0BDE8F04F08F0C3BA06200CF0D4FAD6
:102CF00000287FF4F7AD03200CF0CEFA00283FF453
:102D0000F1AD05200CF0C8FA00283FF4EBAD05202A
:102D10000CF0C2FA002852D0374D00232B704FF030
:102D2000010B0CE6354B188800283FF413AF344BE9
:102D3000C0B2197806F0B2FA0CE7FFF72BFCB8F82E
:102D40000030002B7FF4F6AE4FF4FA7003F0EAFA8D
:102D500003F0D4FA05F0E6FA4FF4AF600CF006FB8E
:102D6000E8E6012121200CF071FA0CE705200CF0B7
:102D700093FA00287FF438AF06200CF08DFA002873
:102D80007FF432AF0DF068FC05200CF085FA0028C6
:102D900095D106200CF080FA002890D1F2E70520AA
:102DA0000CF07AFA00287FF47AAF06200CF074FA5F
:102DB00000287FF474AFE5E70F4D2870B7E50320D6
:102DC0000CF06AFA04460028A6D104200CF064FA3C
:102DD000034620B9084D4FF0010B2B70AFE50620DC
:102DE0000CF05AFA044D031E18BF01232B704FF04C
:102DF000010B2346A3E500BFD49AFF1F929BFF1F40
:102E0000949BFF1F2DE9F04FA64B1C78012C95B029
:102E100000F04382022C00F0C281002C00F0F0820E
:102E2000A148A249DFF888E20678A24891F800B0EC
:102E30000478A149A1489EF80080DFF884E2A14B04
:102E40009EF80050A04A91F800C007789F49A0481A
:102E5000DFF880E2DFF880A21B781278097800782A
:102E60009EF800E0CDF808A001954FF0000A8D4DC6
:102E700085F800A0994D2E70994D85F800B0994DB8
:102E80002B70994D2A70994D85F800C0984D2E7081
:102E9000984D2970002C00F0D680974C248803941C
:102EA000A246964C012525705446182C00F2D78076
:102EB000039C01250C3C33B1914BB3F800A0BAF14F
:102EC000000F40F033838F4B1B88002B40F0C980EC
:102ED0008D4BDFF838A21B789AF800A00133A3EBE2
:102EE0004703BAF1000F00F0C880002F00F02E83D6
:102EF000002840F04A85013B8548864F00783F789E
:102F0000A3EB40031344A3EB0B0317B1002A00F01B
:102F10002B83A3EB0803B8F1000F02D0002840F088
:102F20002183019A9B1AA3EB4E0363449B1BA3EBE3
:102F30004103794909780C2212FB01327749784B19
:102F400008681A60774B784E1B88DFF8E0C1784F2D
:102F50003688BCF800C03F68033B03EB430302EB39
:102F60008303C6EBC60663443E440C3B714F2344C7
:102F7000714C3F882468C7EBC7073C446F4F57F834
:102F8000266033446E4E56F8244023440DB16D4CF8
:102F900022606D4A14886D4A072C8CBF01250025DC
:102FA000157040F2ED806A4A6A4D12682C80032A3F
:102FB00000F0C1840025684A8342157000F0E98062
:102FC0006648674F02680492049E664A3E60012785
:102FD000177002680592644A1788059A921BBA42D4
:102FE00053D9624E624F326833609A1A3A60002DAC
:102FF00000F0D3805B4A1578002D40F0AA820B6068
:103000005C4D2A689A4247D001685B4F0791079947
:103010003E68891BA142C0F08D82991A00F19A8402
:10302000564C266886EAE674A4EBE6748C4240F3BC
:10303000CA844F4909680029B8BF49428C42B8BFC9
:10304000531C00F098BC2E4DB5F800A0BAF10D0F3E
:1030500000F05C82294C002525702C462BE70024CB
:1030600029E7013B052B00F24085DFE813F08003E0
:10307000C0029E025903FE02CA031B1A00283FF435
:103080003BAF002F18BF013B36E70B60374B1B6887
:10309000002DB5D1374A1360029A136015B0BDE810
:1030A000F08F00BF789BFF1F9699FF1F8499FF1F29
:1030B0009299FF1F8699FF1F9599FF1F7F99FF1F08
:1030C0009399FF1F8599FF1F8399FF1F9799FF1FF2
:1030D0008099FF1F9499FF1F2C9BFF1F7899FF1F5A
:1030E0007999FF1F7A99FF1F7B99FF1F7C99FF1F1A
:1030F0007D99FF1F7E99FF1FFC9BFF1FFA9BFF1FFF
:10310000AC9BFF1F349BFF1F6C8EFF1F8299FF1F1C
:103110008199FF1F9899FF1FBC9BFF1F809BFF1F7A
:10312000309BFF1FBA9BFF1F629BFF1F789CFF1FF6
:10313000689BFF1F849AFF1F889AFF1F303301008E
:10314000E8370100049CFF1F549BFF1F4C9BFF1F8F
:10315000B49BFF1FC48DFF1F469BFF1FF89DFF1FE1
:103160007C9BFF1FB89BFF1FFE9AFF1F5C9BFF1FEE
:10317000589BFF1F489BFF1F849BFF1F509BFF1FF7
:10318000824A00241480824A2546834215707FF4C7
:1031900017AF804A804816681BE70B607AE7DFF8B4
:1031A000FC917F4F7F4E0DF120080024E1B238469C
:1031B00008F048FC59F8043BC3F5967303FB00F094
:1031C00086FB00230134C017C0EB63100C2C48F8B9
:1031D000040BEBD1744B109C1B88099A0F9F11981C
:1031E000129E7249DFF8C8E1DFF8C8A19EF800809E
:1031F000DFF8C4E1CDF808A09C42ACBF0024012454
:103200009342D4BF4FF0000C4FF0010CBB42139A15
:103210000C70D4BF0027012783420B999EF8005001
:103220000195D4BF00200120B342D4BF002601265F
:103230009342D4BF002201228B420C99DFF87CE13B
:103240005F4D9EF800E02D78D4BF4FF0000B4FF09B
:10325000010B8B425B4981F800C05B490F705B49F1
:1032600008705B490E705B490A705B4981F800B0D9
:103270005A49D4BF002301230B7059490E7859498C
:1032800091F800C058490978012D9ABF05F1010A4B
:103290005FFA8AFA4FF0000AE9E5DFF85091544FDF
:1032A000404E0DF120080024E1B2384608F0CAFB78
:1032B00059F8043BC3F5967303FB00F086FB00232B
:1032C0000134C017C0EB63100C2C48F8040BEBD191
:1032D000354A0B9B10880C99464A109E8342ACBF1E
:1032E0000023012313708842314B0A9A0F99D4BFEF
:1032F0004FF000084FF0010883F80080099B9042CE
:10330000D4BF002201229842089B0192D4BF4FF003
:10331000000E4FF0010E9842274B1A70274B83F88E
:1033200000E0304BD4BF4FF0000C4FF0010C83F89D
:1033300000C0B0422A4BD4BF002601261E7088422E
:10334000294BD4BF002101211970129B984200F330
:10335000F78000230D9A9042274A1370274BD4BF61
:10336000002001201870134B029310481A4B047868
:10337000154893F800B0174A184B0778104D1348BA
:103380001B78127800782D787EE700BFC48DFF1F70
:10339000469BFF1F7C9BFF1FF89DFF1F3C8DFF1F5F
:1033A0006C9CFF1FB5814E1BD69AFF1F8699FF1F8D
:1033B0009299FF1F2C9BFF1F9399FF1F9499FF1F4A
:1033C000789BFF1F8299FF1F7F99FF1F8099FF1F26
:1033D0008199FF1F8399FF1F8499FF1F8599FF1F04
:1033E0009699FF1F9599FF1F9799FF1F6C8DFF1FDF
:1033F000709CFF1F9899FF1F629CFF1FE89BFF1F97
:10340000DFF8B892AE4FAF4E0DF12008E1B238466A
:1034100008F018FB59F8043BC3F5967303FB00F062
:1034200086FB00230134C017C0EB6310062C48F85C
:10343000040BEBD1A44B089A1B8803929A42099A79
:103440000A99DDF82CB00292ACBF4FF0000A4FF0A1
:10345000010A93429D4A0C9E0D980191D4BF4FF0F2
:1034600000094FF001098B42D4BF4FF000084FF024
:10347000010811885B450AEB0902D4BF4FF0000E2A
:103480004FF0010E4244B342D4BF4FF0000C4FF056
:10349000010C72448342D4BF002701276244D5192E
:1034A0008B4A82F800A0DFF82CA28AF80090DFF89F
:1034B000289289F80080DFF8248288F800E0DFF89D
:1034C00020E28EF800C0DFF81CC28CF80070864F36
:1034D000DFF818C23D70864F4FF0000E012987F8C3
:1034E00000E08CBF4FF0000E4FF0010E83428CF8CD
:1034F00000E03BDDB34200F34B82012900F2D581AD
:103500007C4BDFF8F4C102933C70B7E1002B3FF431
:10351000A1AD7A4D2D880395794D4FF0010985F8BD
:103520000090039D182D7FF6C3AC0125AAF10D0A6A
:103530005444C8E41346029A136015B0BDE8F08FF6
:10354000119B9842D4BF0023012303E7013B1B1AC0
:10355000D2E405680695069D6A4E2544356000252F
:1035600015704CE5013BDCE40133D2E4B34240F397
:103570009C815B4500F37B81012940F27881019AAF
:10358000934240F39C81029A934200F37F82012987
:1035900040F27C82039A9A4280F29C8101223A7026
:1035A000544ADFF854C10292B8E1574B019A1B7894
:1035B000A3EB48039B1A554AAEEB8E0E1678C7EB69
:1035C00087727344C7EB8202134403EB460303EB99
:1035D0008103002800F065814D4A1278002A00F02E
:1035E0006081BBF1000218BF01221344A1E4494BE2
:1035F000DFF824911A71019A9A71484A83F807E01A
:1036000012785A709E46424A83F8058012780EF866
:10361000091F4FF00108DA70987083F808C01F7016
:10362000424601963B4B5FFA88FC08F1FF3A4E4652
:103630003846002107E0022A07D0734509D013F865
:10364000010F16F8012F9042F5D101317345C9B22F
:10365000F5D1092900F2EE8108F10108B8F1110F46
:1036600000F0088219F80A2FDCE7274B1B78B0FA24
:1036700080F90198A3EB4803AEEB8E0E1B1A73443E
:10368000DFF88CE0C7EB8778C7EB88079EF800E08F
:103690004FEA59193B4403EB8903BEF1000F00D1F7
:1036A00003331A48007803EB400303EB8103134410
:1036B0006344A3EB0B03A3EB46033AE49C8DFF1F8B
:1036C000749CFF1FB5814E1BD69AFF1F289CFF1FBD
:1036D0008C99FF1F8D99FF1F8E99FF1F8F99FF1FD8
:1036E0009099FF1F9199FF1F209CFF1FE09BFF1FD8
:1036F000BC9BFF1F2C9BFF1F889BFF1FFC9BFF1F7A
:10370000FA9BFF1F849BFF1F6C8EFF1F9899FF1F62
:103710008199FF1F509CFF1F103401008299FF1FE9
:10372000AD4B1A78019BA2EB4802D21AAB4BAEEB21
:103730008E0E1E78C7EB87737244C7EB83031A445F
:1037400002EB460202EB8102002840F030810123A7
:103750001A44A34BA3491B78C3F1060303EB4303AD
:1037600002EB83020A60A0490868FFF7EBBB9A4BA3
:10377000DFF878A21B789AF800A00133A3EB470387
:10378000BAF1000F40F00D811B1A002840F086812D
:10379000DFF85CA29AF800A0A3EB4A03D146DFF859
:1037A0003CA29AF800A01344A3EB0B03BAF1000F5C
:1037B00001D002B90133A3EB0803B8F1000F03D025
:1037C000B9F1000F18BF013B019A9B1AA3EB4E03FE
:1037D00063449B1BA3EB41031FB910B14A4602B1DE
:1037E0000933BEF1000F01D101B10A3B7C4A7D488B
:1037F00016787D490C2212FB063202600868FFF73A
:10380000A1BB754B1B78B0FA80F90198A3EB480374
:10381000AEEB8E0E1B1A7344DFF8D4E1C7EB87784A
:10382000C7EB88079EF800E04FEA59193B4403EBC9
:103830008903BEF1000F00D103336848007803EB21
:10384000400303EB81031A44654B67491B78086802
:103850006244A2EB0B02C3F1060303EB4303A2EBAA
:10386000460202EB83025F4B1A60FFF76BBB614AB3
:10387000DFF884C1029205233B703C785F49604BBE
:103880000E7819785F4B604A93F800805F4B8CF894
:1038900000401B7801935E4B92F800C093F800E063
:1038A00063E501221344FFF744BB5B457FF767AE36
:1038B000019A934200F38980012940F28680029A9E
:1038C00093427FF767AE039A9A42C0F2EE800129D5
:1038D00040F2EB80DFF820C19CF80040012C40F260
:1038E000F68001B13C704B4C2488002C00F0E48041
:1038F000002D40F0E180484A1288013A92B2062A2F
:1039000000F2DA80454A1278002A00F0D580444A55
:103910001268012A374A029200F0DC800329ACD1F8
:103920008342AADDB342A8DC9CF80030062BA4D168
:1039300007243C70A2E73B4A1268002A7FF73AABA3
:10394000394A3A4D12782D782A430CBF01250025BB
:10395000FFF731BB33490E6886EAE674D11AA4EB4F
:10396000E674A1422DDA324909680029B8BF4942FC
:103970008C4200DA531E02680892089A3A60029A52
:103980002B60136015B0BDE8F08F1B1AFFF779BBF1
:10399000184BDFF864C03C70032902937FF46EAFCC
:1039A0006BE7002F7ED0002877D1013BF0E6104B6B
:1039B0001B78002B3FF4CBAEBBF1000318BF0123F3
:1039C000C6E6931BD7E79319D5E704223A70094A54
:1039D000DFF824C00292A1E76C8EFF1F9899FF1FA9
:1039E000BC9BFF1F309BFF1F809BFF1F8299FF1F07
:1039F0008199FF1F2C9BFF1F889BFF1F9699FF1F1C
:103A00009799FF1F9299FF1F9599FF1F9399FF1F89
:103A10009499FF1FE29BFF1F089CFF1F4E9CFF1FF6
:103A2000B49BFF1F509BFF1F619CFF1F609CFF1FEB
:103A3000589BFF1F5F4B019E1A785F4B53F82A304B
:103A400001321A445D4B1B78A2EB0B021A4436B1CB
:103A50006346012B03D1BBF1000F18BF013A584B4D
:103A600058491878584B0C2616FB00221A60086833
:103A7000FFF768BA4F4B1A784F4BDB6B01321A4491
:103A80004E4B1B78A2EB0B021A44E8E703223A7074
:103A90004E4ADFF83CC1029240E71B1A002F18BFC4
:103AA000013B75E6013B1B1A72E602223A70474A57
:103AB000DFF81CC1029231E7464A1268012A434AE4
:103AC00002927FF42BAF444A0324147026E73F4A46
:103AD000029223E71268DFF804E10C2492FBF4F869
:103AE00004FB1822AEF80020EDE73D4B1A71019A55
:103AF0009A713C4A83F807E012785A703A4A9870F3
:103B00001278DA709E46012238480EF8091F83F8B1
:103B1000058083F808C01F701146531EDFF8C0C02F
:103B200001935FFA82FA8046B9460023894508D09E
:103B3000022906D0E64507D01CF8019F18F8011F9E
:103B4000F4E70133DBB2F5E7092B05D801321C2A73
:103B500023D010F80A1FE0E70A2B1BD0154B244A8C
:103B600001991B7852F8212001331344134A12782B
:103B7000A3EB0B03134416B1BAF1010F14D0104A92
:103B8000114816780F490C2212FB063202600868B1
:103B9000FFF7D8B9BAF11B0FE0D10A490A4B086800
:103BA00018600246FFF7CEB9BBF1000FE7D0013B2A
:103BB000E5E700BF6C8EFF1F088EFF1F9899FF1F5F
:103BC000BC9BFF1F809BFF1F309BFF1F2C9BFF1F79
:103BD000889BFF1FB49BFF1FBF8DFF1F6C9BFF1FA8
:103BE000509CFF1F8299FF1F8199FF1FB43601006F
:103BF000808EFF1FA34B1B78002B40F036812DE9F0
:103C0000F04F0E2091B00AF0E1FD0DF0C3FF014628
:103C10009D489E4C9E4DFCF787FC9B48FCF758FC4A
:103C20000EF0D2F980F30C002060FFF7EBF82B6860
:103C3000012B5DD0022B00F0FD84032B00F07C8172
:103C4000944C954E2368954C0F930F9B22683360DC
:103C5000991A934A1288013A914200F28383914C57
:103C600022689A1A092A00F287838F4C22689A1ACE
:103C70000D2A00F297838D4C22689A1A252A1CD9A6
:103C80008B4B1B8813B98B4B1B780BB1FDF762FF75
:103C9000FDF7BEFF884B1B881B3B9BB2022B08D84D
:103CA000864B1B782BB1864B1B7813B12B68012BED
:103CB00001D002F04BFB33682360824C22689A1AD1
:103CC000502A00F2358380490A689A1A052A03D9D6
:103CD0007E4A0B60012010707D4A1288012A00F094
:103CE000958205F009FC11B0BDE8F04F05F0A0B8D1
:103CF000DFF8E081784BB8F800001A78824240F093
:103D0000BC80764F764B38881A78824204D0754E44
:103D10003278002A40F00286734A236812885D4C8C
:103D20009A4280F2A48021680A917049704A0B601F
:103D30000A9B136002232B60DFF8B891DFF8B8A16B
:103D4000B9F80030BAF8002013439BB2002B40F0C2
:103D500061836A4B1E680E200AF038FD6FF45473BD
:103D60001E44864202DC664B00221A70654B1B889B
:103D7000002B00F08485644B64491A780B789342D9
:103D800062D0002A60D0624B1E78002E00F0488777
:103D900060480778002F40F04187DFF87CC15F4B17
:103DA0008CF80070DFF878A1DFF878C11B788AF80A
:103DB00000708CF800700127CDF804C0077033B193
:103DC000002707700198077001208AF80000564804
:103DD00090F800E0BEF1000F01F0348053480778FE
:103DE000002F41F06B81DFF83CC18CF80070012797
:103DF00007704F480078002800F08886464F97F8F3
:103E000000C0BCF1000F41F05381DFF8088188F851
:103E100000C04FF0010C87F800C0BEF1000F40F069
:103E200075863343184340F07186244B1B78002B72
:103E300040F0718637480370394803703B4803707F
:103E400038480370344803700A701B4B1B88A3F179
:103E50001B02012A40F21F851D2B7FF4F2AE174A88
:103E6000344B12780C4E1A70ECE607F07BB8114A0E
:103E70001278002A7FF457AF5EE7C0B2187005F0E1
:103E8000CBF93EE7D49AFF1F989AFF1F189CFF1F9B
:103E9000B49BFF1FF89DFF1FD89AFF1FC49AFF1FF6
:103EA0003A8DFF1FC89AFF1FCC9AFF1FD09AFF1FA1
:103EB0003E9BFF1F3C9BFF1FFC9BFF1FFA9BFF1FAE
:103EC0007E99FF1F9C99FF1FF89AFF1FF49AFF1F0E
:103ED000FC9AFF1F8899FF1FA099FF1FE69BFF1FF9
:103EE000A299FF1F029BFF1FBE9AFF1F749BFF1F1B
:103EF000C09AFF1F8E9BFF1F909BFF1F949AFF1F6E
:103F00001E9CFF1F089CFF1F629CFF1F8A9BFF1FB8
:103F10007B99FF1F619CFF1F609CFF1F7C99FF1F07
:103F2000E49BFF1F4E9CFF1F7899FF1F669CFF1F9D
:103F30007999FF1F899BFF1FA24B21681A888A422B
:103F400058DDA14B1B78002B54D1DFF8809299F8F3
:103F500000007F280BDD7F38A3F15533A3FB00233E
:103F6000DB0803EB4303A0EB83007330C0B2984B34
:103F700000931B8889F80000002B41F00F81DFF8C7
:103F800054A29AF80030002B00F05B86924F3B78E9
:103F9000002B00F05686914EDFF844B24FF0000837
:103FA00011E0ABFB0213DB0803EB4303A2EB83023C
:103FB00002F17300C0B205F0EDF93B7808F1010899
:103FC000434540F33E8699F8000056F8043F1844F4
:103FD0007F28A0F17F02E4DC0028C0F10002E9DACA
:103FE000ABFB0213DB0803EB4303A2EB8302C2F13A
:103FF0000C00DFE77B4E33687F2B00F3BE84002B81
:104000000ADA77485B42A0FB0370C00800EB40006F
:10401000A3EB8003C3F10C03DFF8B09199F80070B3
:104020009F4200F03585704B1B88002B46D16F4BAB
:104030006F491B6809889A4240F3F4871346891A2E
:1040400001F044809B1AC3EB833301EBD17203EB85
:10405000620303FB01F2002A93FBF1F0C1F2FD8041
:10406000FDF778F8C0F3C6100DF094FD614B804663
:1040700018880DF08FFD6049824640460DF0DEFD48
:10408000014650460DF0DAFD41460DF0CFFC4FF0F1
:104090007E5180460DF070FF002841F006805749A0
:1040A00040460DF087FF002841F0A18040460DF00A
:1040B000B1FFC3B2DFF8488188F800307F2F0ADDF6
:1040C000474B7F3FA3FB0723DB0803EB4303A7EB2F
:1040D00083077337FFB2DFF8FCA089F800709AF805
:1040E0000030002B40F0CF85464B474A02930192A7
:1040F0001B7812781A4340F0AC86354B0093019B35
:104100001B78002B40F0CC869AF80030002B00F092
:104110008E86009B1B88002B00F0748730687F28F8
:1041200040F370862E4A7F38A2FB0012D20802EBC1
:104130004202A0EB820073303060002B40F02987F0
:104140009AF80030002B00F07284234F3B78002B4C
:1041500000F06D84214ACDF80C900023B146DFF8C1
:10416000A0809B46164614E01D4BA3FB0102D2081B
:1041700002EB4202A1EB820101F1730098F80010FA
:10418000C0B205F0C9F83A780BF1010B5A4540F37B
:104190004B8456F8040FD9F8002010447F28A0F172
:1041A0007F01E1DC0028C0F10001E7DA0C4BA3FB42
:1041B0000102D20802EB4202A1EB8201C1F10C0024
:1041C000DCE700BFBE9AFF1F3C9BFF1FA199FF1FAA
:1041D0001C9CFF1FE49BFF1F388DFF1F448EFF1F99
:1041E000ABAAAAAA2C9BFF1F809CFF1FB89AFF1F97
:1041F000BC9AFF1F7C9CFF1FCDCCCC3D0000FE4233
:10420000829CFF1F669CFF1F4E9CFF1F6849694AE6
:1042100008681268A82441F6FF7104FB0011664C7F
:10422000183A84FB01042A200C4400FB02F2C81750
:10423000C0EB64300029ACBFA0F15401A0F15501DE
:104240005E4804785E480A446FF014055D490068D2
:1042500005FB04220A60002800F00E835A4D2978DD
:10426000002940F0448359490A68594800880028C9
:1042700039D0584C54F82000002800F04284B3FB99
:10428000F0F400FB1433C3EBC30300EBD07403EB77
:10429000031303EB640393FBF0F403FB00F000282B
:1042A0004D4BB8BF04F1FF3453F82430A3F2FF7331
:1042B0004A4C246804FB03F303F57D33162003F511
:1042C000607300FB03F3464C03F57D3303F5607325
:1042D00084FB0304D817C0EB6440002BACBF0B3841
:1042E0000C3802440A603F4B3F491B883F4803F2A9
:1042F0007C7302FB03F35B0003F5FC630A8880FB1D
:104300000310643A1844D917002B4FEA4202C1EB5C
:10431000E021C0F28785114481F30C0128200AF0C6
:104320000BFE05F0E9F811B0BDE8F04F04F080BDD8
:1043300003F0B4FE2E4B2F492F4A09781B781278D0
:104340000B432E4913432E4A097812780B4313432B
:104350002C4A1278134300F07C8701F0D7FF3368B2
:104360002360B0E4FCF73EFF33682360264C2268EC
:104370009A1A092A7FF679ACFDF716F8FDF774FC56
:10438000FEF772F8214B1B88082B01D1FCF7BAFB12
:10439000FEF7B8F8336823601D4C22689A1A0D2A7C
:1043A0007FF669ACFDF756FF3368236063E400BF16
:1043B000048EFF1F2C9BFF1F090002801F9CFF1F04
:1043C000289BFF1F689CFF1FF49AFF1FE09AFF1FA6
:1043D000F29AFF1FC4370100D4340100089BFF1F6D
:1043E000491B8940E49AFF1FF09AFF1F832008822F
:1043F0004E9CFF1F619CFF1FE49BFF1F669CFF1FDD
:10440000609CFF1F3C9BFF1FC89AFF1F7A9AFF1FEB
:10441000CC9AFF1F20200CF027F89B4B02901B68C2
:10442000039319200CF020F8984B994A1B881288A6
:104430001344984A1168984A834610688B45D4BF44
:10444000002201225E10B0EB530F944B1B6840F327
:1044500032829E424FF00003B4BF01201846049000
:10446000ACBF012018460893079009930E20CDE9B0
:1044700000120AF0ABF98A4B8A4A1B68DFF828C29F
:1044800005930133802B16680690019A9CF8000072
:104490000099A8BF8023012BB8BF0123904200F0F0
:1044A000398220680B908148DDF82CE0C0F800E0EC
:1044B00020680C900C98A0EB0E00282812D97C489C
:1044C00090F800E0BEF1000F40F04B828B4540F3C6
:1044D0004B8278494FF0010E80F800E0087880EABE
:1044E0000E0008708CF80020734ADFF8D0B1127803
:1044F000002A64D09BF80010914260D0398899421C
:1045000000F0B6846E493B806E4B09784FF0010C89
:1045100083F800C0DFF8B0C16C4B8BF800201B782B
:104520008CF80010002B67D1029B039A934263DC46
:10453000049B1BB1B9F80030002B5DD1069AA6F29E
:1045400052339A42BFF607ACBAF80030002B3FF462
:1045500002AC079B002B4FD15D4B1B8813B1099B0D
:10456000002B49D1089B002B3FF4F5AB594A137837
:10457000002B7FF4F0ABDFF860810123137098F813
:104580000020002A40F08286544A1278002A40F027
:10459000B386534A1278002A00F03787514A1278BE
:1045A000002A7FF4D8AB504A1278002A3FF4D3ABEC
:1045B0003A880A323A80434A1370FFF7CCBB40492D
:1045C000DFF804C109780029A6D09CF800E0714505
:1045D000A2D005984B2840F354841833802BB7F8A9
:1045E00000E0A8BF80239E4596D03B80354B4FF01E
:1045F000010E83F800E08FE73C4B18683C4B1A88AB
:104600003C4B1B881A443C4B1968431C802BA8BFA9
:104610008023012BB8BF0123B1EB520FC0F25981A7
:10462000A3F149020F2A3FF696AB483BA8F80030A9
:10463000FFF791BB314A20681288824204DB304B7D
:104640001B78002B00F093812E4C21680D912E4990
:104650000D9B09685B1A2D4909888B4260D8002997
:104660005ED02B4B198800293FF4EBAA294B1B681D
:104670008342B8BF034628489A42008840F3C18568
:10468000264B1A60C9B29EE0EC9BFF1FFE9BFF1FEA
:10469000009CFF1FA89BFF1FF49BFF1FF09BFF1FA9
:1046A000049CFF1F949AFF1F8B9BFF1F409BFF1FC3
:1046B000459BFF1F449BFF1FF89BFF1F8C9BFF1F09
:1046C000F99BFF1F029BFF1F8D9BFF1FE89BFF1F96
:1046D000769AFF1F1E9CFF1FBC9BFF1F7899FF1F30
:1046E0007999FF1F7A99FF1F7B99FF1F309BFF1F4E
:1046F000149BFF1F129BFF1F049BFF1FBE9AFF1FEF
:104700003C9BFF1FF89DFF1FC09AFF1F7E9CFF1F51
:10471000809CFF1F749BFF1FBC9AFF1FB89AFF1F4E
:10472000A74BA8491B688342B8BF03469A42088832
:1047300000F30B81A449A54E09888342A8BF034614
:10474000336000299ED19A42C8BF134640F30581C9
:10475000811A00F093839B1AC3EB833301EBD17270
:1047600003EB620393FBF1F003FB01F10029C0F2BC
:104770004F85FCF7EFFCC0F3C6100DF00BFA944B1D
:10478000064618880DF006FA9249074630460DF0A5
:1047900055FA014638460DF051FA31460DF046F90A
:1047A0004FF07E5106460DF0E7FB002840F03D83B8
:1047B000894930460DF0FEFB002840F02084304649
:1047C0000DF028FCC1B2DFF81482854E88F8001085
:1047D000FCF708FD30687F2840F38481814B7F38E7
:1047E000A3FB0023DB0803EB4303A0EB8300733040
:1047F0007D4B00931B883060002B40F09E81DFF8DA
:10480000ECA19AF80030002B00F04E81784F3B78F5
:10481000002B00F04981DFF8DCB14FF0000914E013
:10482000704BA3FB0213DB0803EB4303A2EB8302F1
:1048300002F1730098F80010C0B204F06DFD3B78EF
:1048400009F101094B4540F32F815BF8040F3368F0
:1048500018447F28A0F17F02E2DC0028C0F10002AA
:10486000E8DA604BA3FB0213DB0803EB4303A2EB84
:104870008302C2F10C00DDE75F490A60F5E45F4A9C
:104880005F4913705F4A0B70137058495E4A0B7092
:104890001370FFF7DABADFF8748198F80030002B54
:1048A0004AD05B4A1278002A40F08183594F5A4E11
:1048B0003B70FFF7C7B99E424FF00003B4BF012021
:1048C00018460890ACBF012018460793099004933E
:1048D000CCE54E4A1278002A5BD13A889A423FF4DE
:1048E0003AAA3B804D4B01221A70FFF734BA424975
:1048F0000C68A24259DC61DAD0F17F0048BF033076
:1049000080100130241AA24258DC0C60224600209C
:104910002870AAE44248D0F800E0C9E5C0B2187097
:1049200004F088FC35483149364A002303700B7087
:1049300013703370FFF7F0B9364F3B78002B40F01F
:104940006683354E3B70FFF77DB9204B1A601E4BD6
:10495000198800297FF496AE13468342A8BF034608
:10496000F6E68B453FF7BEAD00210170BAE50123A5
:104970002C4C294E2B60FFF765B91A487F3BA0FBF2
:104980000370C00800EB4000A3EB80037333FFF714
:1049900043BB4A2840F306831833802B3A88A8BFCC
:1049A00080239A429DD1FFF7D6B9D0F17F0048BF4E
:1049B000033004EBA0040134A242A6DA0A60A6E7A1
:1049C000749BFF1FBC9AFF1F809CFF1FB89AFF1F9C
:1049D0007C9CFF1FCDCCCC3D0000FE42829CFF1F83
:1049E0002C9BFF1FABAAAAAA1C9CFF1FE49BFF1FC6
:1049F000388DFF1F448EFF1FE09AFF1F619CFF1F31
:104A00004E9CFF1F669CFF1F609CFF1FFA9BFF1FB1
:104A10007E99FF1F899BFF1FD89AFF1F029BFF1FD4
:104A2000409BFF1FF89DFF1F4E46DDF80C90029B38
:104A30001B78002B40F04482019B1B78002B40F038
:104A40003B82009B1B88002B00F03082029A9AF870
:104A5000003012781343019A1278134300F0E08378
:104A6000A84B1B78002B4FD0A74A1378082B4BD8A4
:104A70000133DBB21370A54A30681268A449013BC8
:104A8000821A41F82320A34B21681A8889F8000074
:104A90008A42A14CBFF6D5A82268A04B0E920E9A6E
:104AA0009F4E1A60FFF7CEB8964B1B78002B40F054
:104AB000A5809C4B1B78002B4FD19B4B1B78002B68
:104AC00047D1009B1B88002B3DD0984B1B78002BB7
:104AD00040F09F80964A316811700323904E2B60FE
:104AE000FFF7B0B80028BFF683AE924B4042A3FB5D
:104AF0000023DB0803EB4303A0EB8300C0F10C00B1
:104B000076E66B23FFF7D4BB3068BCE78A4B1B7893
:104B1000002B3FF499A984480378002B40F0D282FF
:104B2000784F864E3B70864F3B707E4F3B70012323
:104B3000037003233370FFF787B998F80010C0B2F1
:104B400004F0EAFB5BE698F80010307804F0E4FB30
:104B5000BBE73078FCF76EF9B3E73368A3F10C00DC
:104B60007F2840F30682734A8B3BA2FB0312D208D4
:104B700002EB4202A3EB820303F1730098F80010EA
:104B8000C0B204F0C9FB9AF80030002B95D05E4FFC
:104B90003B78002B91D0DFF8AC91DFF898B14FF063
:104BA000000A13E0ABFB0213DB0803EB4303A2EBA9
:104BB000830202F1730098F80010C0B204F0ACFB5D
:104BC0003B780AF1010A53457FF777AF326859F80D
:104BD000043F1344A3F10C007F28A3F18B02E1DC16
:104BE0000028C3F10C03E6DAABFB0312D20802EB98
:104BF0004202A3EB8203C3F10C00DCE77F214020DB
:104C000004F04CFB414A404B3168116000221A709D
:104C10004FE77F21422004F041FB5BE70023037054
:104C2000494B1B78002B3FF4D2A8DFF814A19AF867
:104C30000000002800F0EF8200208AF80000FFF753
:104C4000C6B8384B1B78002B40F05382364B1B788C
:104C5000002B40F04982009B1B88002B00F03F8214
:104C6000284B1B78002B40F03582304B1B78002BF3
:104C700040F08F82354B274A216812880020186047
:104C800001232B6004E7324B00931B88002B40F07C
:104C90009982244B0293244B01931B4F3B78002BAA
:104CA00059D0284A0396DFF88CB04FF0000816461A
:104CB00010E0ABFB0103DB0803EB4303A1EB830133
:104CC00001F17300C0B204F065FB3B7808F1010804
:104CD00043453FDD99F8000056F8043F18447F280B
:104CE000A0F17F01E5DC0028C0F10001EADAABFBAE
:104CF0000103DB0803EB4303A1EB8301C1F10C00CB
:104D0000E0E700BF619CFF1F388DFF1F5C9CFF1F09
:104D1000488EFF1FBE9AFF1FF89DFF1FF89CFF1FC4
:104D2000D89AFF1F669CFF1F4E9CFF1F609CFF1FB1
:104D3000A199FF1FABAAAAAAFA9BFF1FBF8DFF1F55
:104D4000E49BFF1F448EFF1F7C99FF1FB89AFF1F33
:104D50001C9CFF1F039E029B1B78002B3FF4CFA9D6
:104D600099F80030A3F10C007F2840F31B82B34A6E
:104D70008B3BA2FB0312D20802EB4202A3EB82039D
:104D800003F17300C0B204F005FB9AF80030002B69
:104D900000F08280AA4F3B78002B00F06182A94985
:104DA0000396DFF898B24FF000080E4611E0ABFB17
:104DB0000203DB0803EB4303A2EB830202F173005F
:104DC000C0B204F0E7FA3B7808F10108434540F32C
:104DD000118256F8042F99F800301344A3F10C0007
:104DE0007F28A3F18B02E2DC0028C3F10C03E7DA91
:104DF000ABFB0302D20802EB4202A3EB8203C3F136
:104E00000C00DDE70028BFF697A98C4A4042A2FBC0
:104E10000012D20802EB4202A0EB8200C0F10C00AB
:104E2000FFF78AB90139FFF776BA0121CBE4019B7C
:104E30001B78029A127813437FF46BA9009B1B889E
:104E4000FFF76CB98048007800283EF4EAAFFEF71F
:104E5000D5BF7E4A00921288002A3FF47EAF3846C2
:104E600004F098FA9AF80030002B7FF416AF72E73E
:104E7000774BDFF8E0C11978FFF74EBB41F6FF70C2
:104E800077E4243B012BB7F800E0B8BF01239E452F
:104E90007FF4ABABFFF740BB019B1B78002BC8D066
:104EA00099F80000FBF770FEFFF72EB96A4B3078D7
:104EB000197804F031FAC9E53078FBF7BBFFC0E59B
:104EC0003368A3F10C007F2840F381815B4A8B3B60
:104ED000A2FB0312D20802EB4202A3EB820303F10E
:104EE0007300DFF87481C0B298F8001004F014FA6F
:104EF0009AF80030002B3FF49FAD514F3B78002BC8
:104F00003FF49AAD4F4ACDF80C900023B1469B4632
:104F1000164614E0494BA3FB0C12D20802EB4202E6
:104F2000ACEB820C0CF1730098F80010C0B204F0E6
:104F3000F3F93A780BF1010B5A4540F35E8156F8CC
:104F4000041FD9F800201144A1F10C007F28A1F121
:104F50008B0CDFDC0028C1F10C01E5DA374BA3FB39
:104F60000102D20802EB4202A1EB8201C1F10C0066
:104F7000DAE70028BFF602AE304AC3F10C03A2FB09
:104F80000312D20802EB4202A3EB8203C3F10C002E
:104F9000F4E5DFF8C480C0B298F8001004F0BCF962
:104FA000FFF7CEB8243B012BB8BF012395E42B4F6C
:104FB000387801F03DFA2A4B1B78002B5AD03B88F9
:104FC0007E2B57D8274EDFF8A0903268D9F8001012
:104FD000521A0F2A2CD9013399B2244B39801888E0
:104FE00000285ED0C9B2C0B204F058F9204F98F83A
:104FF00000303268C9F800203B70FEF723BE7F21E5
:10500000FFF7E1BB99F8000004F0C4F916E7134B71
:10501000144E19886A2004F0B5FB98F800303B70F4
:10502000FEF710BE8B42A8BF0B46FFF708B80D4E27
:105030000F4F98F800303B70FEF704BEABAAAAAA47
:10504000388DFF1F448EFF1F7999FF1F1C9CFF1F87
:10505000F99BFF1F8D9BFF1F829CFF1F949BFF1FCF
:105060007D99FF1FD89AFF1FB09BFF1F929BFF1FC8
:10507000899BFF1FB94B1B78002BD8D0398800299A
:10508000D5D0B74EDFF8DC923368D9F800209B1AF0
:105090000F2BCDD9B44B0139188889B2398000283B
:1050A000A0D1C8B204F0AEF9A0E70123FFF702B81F
:1050B0004FF0000C87F800C0FEF7AFBE0027077066
:1050C000FEF797BE00230370FEF7BEBE41F6FF70E9
:1050D000FEF7C6BF0021402004F0E0F8C5E599F8CE
:1050E000000004F057F9BBE599F80000FBF74CFD10
:1050F000B1E599F80030A3F10C007F2840F39980C6
:105100009A4A8B3BA2FB0312D20802EB4202A3EBAA
:10511000820303F17300C0B204F03CF99AF8003046
:10512000002B3FF493AD924F3B78002B3FF48EADB4
:10513000DFF840A28D4E4FF0000811E0A6FB0213ED
:10514000DB0803EB4303A2EB830202F17300C0B25E
:1051500004F020F93B7808F1010843457FF776AD6C
:105160005AF8042F99F800301344A3F10C007F285B
:10517000A3F18B02E2DC0028C3F10C03E7DAA6FB03
:105180000312D20802EB4202A3EB8203C3F10C002C
:10519000DDE70021422004F081F86BE504F0FAF825
:1051A000FEF7EDBE0028BFF6EDAD704AC3F10C036B
:1051B000A2FB0312D20802EB4202A3EB8203C3F16B
:1051C0000C00DFE56C4B02936C4B019347E6002823
:1051D000BFF687AE654AC3F10C03A2FB0312D208E7
:1051E00002EB4202A3EB8203C3F10C0079E67F23BA
:1051F000FEF760BF039EFEF782BF4E46DDF80C90BF
:105200001AE49842A8BF18465D4B1860FFF73ABAF7
:105210000138FFF7AEBA594F5A480197FEF7D0BD93
:105220004FF47A43013BFDD199F8000004F0B2F845
:1052300016E40028BFF66FAF4C4AC3F10C03A2FB83
:105240000312D20802EB4202A3EB8203C3F10C006B
:1052500061E701F04FF8FFF782B80138FEF700BFB1
:10526000019B1B78002B3EF454AF19E6464B1B788C
:10527000002B7EF470AD059BA3F12401434B81F319
:10528000470119605B20C9B204F008F898F80030B3
:10529000032B7EF45EADDFF8F88098F80020002A3A
:1052A00040F0A8803B4F3B78002B40F09780364E73
:1052B0003378002B40F08680374B1B78002B75D15C
:1052C000364A1380254B1B7853BB354B7F221A80FF
:1052D0003A7898F800301343327813437EF439ADAE
:1052E000304A7F210720138003F0D8FF7F210B2055
:1052F00003F0D4FFFEF72DBD274A1278E2B1254A0C
:105300001278002A7EF427AD1F4A1278002A3EF454
:1053100022AD3A880A3A3A80234A1370FEF71BBD41
:105320001F4B00227F2107201A8003F0B7FF7F2147
:105330000B2003F0B3FFCBE7164A1278002A7EF465
:105340000AAD114A1278002A3EF405AD3A88013AB6
:105350003A80154A1370FEF7FEBC00BF7C99FF1F10
:10536000D89AFF1FB09BFF1F929BFF1FABAAAAAA50
:10537000388DFF1F448EFF1F669CFF1F4E9CFF1F32
:10538000B89AFF1F619CFF1F7B99FF1F249CFF1F82
:105390007899FF1F7A99FF1F7999FF1F8C9AFF1F39
:1053A000809CFF1F8E9AFF1F029BFF1F1F4B012235
:1053B0007F2107201A8003F071FF7F210B2003F06B
:1053C0006DFF7FE71A4B04227F2107201A8003F02C
:1053D00065FF00210B2003F061FF6DE7144B0222F3
:1053E0007F2107201A8003F059FF7F210B2003F053
:1053F00055FF5CE70E4A00210720138003F04EFFA3
:105400007F210B2003F04AFF4CE70A4A1278002A5A
:105410007FF42CAF084A1278002A3EF49CAC3A88FC
:1054200001323A80054A1370FEF795BC8C9AFF1F33
:105430008E9AFF1F7A99FF1F7B99FF1F029BFF1F08
:1054400010B509F053FA0D4806F0F8FA0C4806F0CA
:10545000F5FA0C4806F0F2FA4FF07E5201210023D3
:105460000948FAF7F9FF0948094A0A498023002444
:1054700003710460BDE810400CF0CCBA749CFF1FAF
:10548000709CFF1F6C9CFF1F989AFF1FE89AFF1FDC
:10549000348DFF1FA905000010B50446A4206368E1
:1054A000198804F06FF9E368A620BDE81040198858
:1054B00004F068B903462A205B68198804F062B9D1
:1054C00010B5044622206368198804F05BF9E3688C
:1054D0002420BDE81040198804F054B910B50446E2
:1054E0000A206368198804F04DF9E3680C20BDE8D0
:1054F0001040198804F046B910B5044606206368C8
:10550000198804F03FF9E3680820BDE810401988C5
:1055100004F038B910B5044602206368198804F015
:1055200031F9E3680420BDE81040198804F02AB975
:1055300070B50E4D84B0122604220123CDE9002659
:1055400004460390029328461423102108F0F2F930
:10555000062209230293CDE9002603941423102187
:10556000284608F0E7F904B070BD00BF009DFF1F9A
:105570002DE9F041A14DB5F90030032B0CD083B3D8
:10558000022B4ED0052B79D0012B00F0A480042BE8
:1055900000F0C680BDE8F08110200AF065FFC83039
:1055A000B0F57A6FA8BF4FF47A60B0F5FA7FB8BF54
:1055B0004FF4FA7000F51673B3F57A6F904A914C78
:1055C00081B2A8BF4FF47A6322201180238004F0B7
:1055D000D9F82188242004F0D5F8B5F90030002B43
:1055E000CED10E2009F0F2F840F6FF73C830984291
:1055F000A8BF184620EAE07081B200F2DC50984261
:10560000814CA8BF1846814B20800220198004F0ED
:10561000B9F82188042004F0B5F8B5F90030022B60
:10562000B0D101200AF020FF044600200AF01CFF40
:105630008442B8BF044604F1C800B0F57A6FA8BF31
:105640004FF47A60B0F5FA7FB8BF4FF4FA7000F506
:105650004873B3F57A6F6E4A6E4CA8BF4FF47A6305
:1056600081B20A201180238004F08CF821880C205C
:1056700004F088F8B5F90030052B85D10F200AF029
:10568000F3FEC0F53F610431B1F5FA6FA8BF4FF4E6
:10569000FA61C0F54363B1F5AF6FB8BF4FF4AF61C6
:1056A000B3F5FA6FA8BF4FF4FA63B3F5AF6F5A4A78
:1056B0005A4CB8BF4FF4AF6389B2A4201180238045
:1056C00004F060F82188A62004F05CF8B5F90030F9
:1056D000012B7FF45CAF152009F078F841F25C23D0
:1056E00000F548709842A8BF1846B0F52F7FB8BFA4
:1056F0004FF42F7081B200F596609842484CA8BFD5
:105700001846484B20800620198004F03BF8218879
:10571000082004F037F8B5F90030042B7FF43AAFD5
:10572000DFF80481414E424D00274FF4AF74F9B2C7
:10573000304606F087F958F8043BC3F5967303FB2F
:1057400000F085FB0023C017C0EB6310844207F113
:105750000107A8BF0446062FE9D1DFF8D880364EEE
:10576000334D0027F9B2304606F06CF958F8043B87
:10577000C3F5967303FB00F085FB0023C017C0EB55
:105780006310844207F10107A8BF04460C2FE9D13A
:10579000DFF8A8802A4E264D0027F9B2304606F0E1
:1057A00051F958F8043BC3F5967303FB00F085FBF1
:1057B0000023C017C0EB6310844207F10107A8BFA4
:1057C00004460C2FE9D1143C322CB8BF322440F2ED
:1057D0003A72A4F5AF7302FB03F3963B85FB0325F6
:1057E0001848194ADB17A1B2A3EB651332330180C5
:1057F000BDE8F0412A20136003F0C4BFAC9CFF1F3A
:10580000149BFF1F129BFF1FBC9AFF1FBE9AFF1F16
:10581000009CFF1FFE9BFF1FA49BFF1F9A9BFF1F67
:10582000109CFF1F129CFF1F9C8DFF1F749CFF1F6D
:10583000B5814E1B6C8DFF1F709CFF1F3C8DFF1FA1
:105840006C9CFF1FD69AFF1F708EFF1F2DE9F04141
:10585000214D82B0012602B284B2CDE9002628464D
:105860007823192107F0CEFE04F10C0212B2CDE923
:105870000026284604EB060878231921A71C07F008
:10588000C1FE0FFA88F83FB2192300971946424625
:105890002846019607F0B6FE78234246009719463F
:1058A0002846019604F10A070B3407F0ABFE3FB21D
:1058B00024B2782319463A462846CDE9004607F037
:1058C000A1FE1923CDE900463A461946284607F0BD
:1058D00099FE02B0BDE8F081009DFF1FF0B5164EA5
:1058E000164FB6F90030834283B00D4603D1B7F9A5
:1058F00000308B421DD00023009304B25B2310487C
:1059000026221C2107F07CF801230D48262221467F
:1059100006F010FF6B1C04D1012034803D8003B0E1
:10592000F0BD2DB2064801232622294606F002FFCB
:10593000F2E7002003B0F0BDEC8EFF1FEE8EFF1FDC
:10594000009DFF1F2DE9F043C64D2B7883B01BB19E
:10595000C54B4FF6FF721A80C44BB3F900303BB110
:10596000013B042B1AD8DFE803F04972A6C62600D3
:10597000BF4BC0481B685A2283F30C0302FB03F39E
:1059800003F2FF73A0FB03201B1A00EB5300C00AB5
:105990004FF0FF311C30FFF7A1FF20B900232B701F
:1059A00003B0BDE8F083B44807F082FC00232B70FD
:1059B00003B0BDE8F0830F200AF056FDC0F53B6050
:1059C0000830B0F5FA6FA8BF4FF4FA60B0F5AF6FCA
:1059D000B8BF4FF4AF605A23A0F5AF6003FB00F0EF
:1059E000A64B00F59670A3FB003080094FF0FF3105
:1059F0001C30FFF773FF0028D0D0D4E7A04B1B78F2
:105A0000002B00F02A81152008F0E0FE024641F24A
:105A10005C239342A8BF1346B3F52F7FB8BF4FF462
:105A20002F735A21A3F52F7301FB03F39549964C6D
:105A300003F5FA63A1FB03131B0A4FF0FF3103F1D7
:105A40001C002260FFF74AFF0028A7D0ABE78F4B6E
:105A50008F4A1B681268B3F57A6FA8BF4FF47A6358
:105A6000B2F57A6FA8BF4FF47A62B3F5FA7FB8BF88
:105A70004FF4FA73B2F5FA7FB8BF4FF4FA72A3F598
:105A8000FA70A2F5FA715A2303FB00F003FB01F14F
:105A9000804B01F2D66100F2D660A3FB0121A3FB8B
:105AA0000030C90AC00A1C311C30FFF717FF00285C
:105AB0003FF474AF77E7784B764A1B68B3F57A6F9B
:105AC000A8BF4FF47A63B3F5FA7FB8BF4FF4FA7307
:105AD0005A21A3F5FA7001FB00F000F2D660A2FB98
