:1000000000800020BD010000D5EB00008DEB00005A
:100010008DEB00008DEB00008DEB00008DEB000000
:100020008DEB00008DEB00008DEB0000D5EB0000A8
:10003000D5EB00008DEB00004516010049160100CC
:10004000D5EB0000D5EB0000D5EB0000D5EB0000B0
:10005000D5EB0000D5EB0000D5EB0000D5EB0000A0
:10006000D5EB0000D5EB0000D5EB0000D5EB000090
:10007000D5EB0000D5EB0000D5EB0000D5EB000080
:10008000D5EB0000D5EB0000D5EB0000D5EB000070
:10009000D5EB0000D5EB0000D5EB0000D5EB000060
:1000A000A1C10000ADC10000D5EB0000D5EB000000
:1000B000D5EB0000D5EB0000D5EB0000D5EB000040
:1000C000D5EB0000D5EB0000D5EB0000D5EB000030
:1000D000D5EB0000D5EB0000D5EB0000D5EB000020
:1000E000D5EB0000D5EB0000D5EB0000D5EB000010
:1000F000D5EB0000D5EB0000D5EB00003DFB000088
:10010000D5EB000051020100D5EB0000D5EB00005B
:10011000D5EB0000D5EB0000D5EB0000D5EB0000DF
:10012000D5EB0000D5EB0000D5EB0000D5EB0000CF
:10013000D5EB0000D5EB0000D5EB0000D5EB0000BF
:10014000D5EB0000D5EB0000D5EB0000D5EB0000AF
:10015000151A0100291A01003D1A0100511A010067
:10016000D5EB0000D1050100D5EB0000D5EB000078
:10017000D5EB0000D5EB0000D5EB0000D5EB00007F
:10018000D5EB0000D5EB0000D5EB0000D5EB00006F
:10019000D5EB0000D5EB0000D5EB0000D5EB00005F
:1001A000D5EB0000D5EB0000D5EB0000D5EB00004F
:1001B000D5EB0000D5EB0000D5EB0000564B4CF220
:1001C000205210B51A804DF628121A8000BF00BFC9
:1001D0000EF004FD514B4FF010621A60504A9A60C5
:1001E000504ADA60504A136813F4807304D14F49BF
:1001F0000B604FF4A85313604D4B1A78110703D5C9
:100200001A7842F008021A704A4B4B492A221A7097
:100210004A4A4B4B8B4204D252F8040F43F8040B6A
:10022000F8E7484B484900228B4202D243F8042B9E
:10023000FAE74649464A002352F8230041F82300D2
:1002400001336F2BF8D1434B434A802103F8011B44
:100250009342FBD1414B3D4A1A60414B8A221A70AE
:10026000A3F5805324225A70A0221A709A7992071B
:10027000FCD59A79D406FCD43A4A937903F00C035E
:10028000082B384BF9D103221A7140225A719A79FE
:100290009006FCD5334A9179324B4906FBD5324A58
:1002A000324911600221516020221A709A7902F0BD
:1002B0000C020C2AFAD12E4B2E4A1A602E4B2F4AD2
:1002C0001A6000225A60072243F8042C2C4AC3F813
:1002D0000C2D62B60FF00CF8144B1B68DA0705D52D
:1002E00028480EF0D9FD284B284A1A60284B1B7865
:1002F0005B0609D5244C254B22689A4204D121483B
:100300000EF0CAFD0023236012F026FF0EF06CFCF5
:1003100011F01AFCFEE700BF0E20054030800440BB
:10032000823F04000100002B10D0034014D0034092
:1003300002D0074000E007408CA1FF1FB06E010013
:10034000308CFF1F8CA1FF1FA0A9FF1F0082FF1F81
:100350000000000000E400E05FE400E008ED00E0E1
:100360000050064000400640448004400000030165
:1003700004800440C010050014E000E0FF76010096
:1003800000002020FA5D04641CE00340A5C3945AD9
:1003900000F00740FFFFFFFFFFFFFFFFFFFFFFFF32
:1003A000FFFFFFFFFFFFFFFFFFFFFFFFFFFFFFFF5D
:1003B000FFFFFFFFFFFFFFFFFFFFFFFFFFFFFFFF4D
:1003C000FFFFFFFFFFFFFFFFFFFFFFFFFFFFFFFF3D
:1003D000FFFFFFFFFFFFFFFFFFFFFFFFFFFFFFFF2D
:1003E000FFFFFFFFFFFFFFFFFFFFFFFFFFFFFFFF1D
:1003F000FFFFFFFFFFFFFFFFFFFFFFFFFFFFFFFF0D
:10040000FFFFFFFFFFFFFFFFFFFFFFFFDEF9FFFF23
:1004100010B5054C237833B9044B13B10448AFF33E
:1004200000800123237010BD8CA1FF1F000000007D
:10043000AC6E0100084B10B51BB108490848AFF37A
:1004400000800848036803B910BD074B002BFBD0A0
:10045000BDE81040184700BF0000000090A1FF1F3A
:10046000AC6E01008CA1FF1F0000000038B50446EF
:10047000104621700A491D4612F056FC01464FF005
:100480007E5012F005FD074912F04EFCE5606060F9
:10049000256165610EF0BCFEE061204638BD00BFFD
:1004A000DB0FC9400024744938B50446104621705A
:1004B00009491D4612F038FC01464FF07E5012F0FB
:1004C000E7FC064912F030FCE5606060256165617B
:1004D0000EF09EFEE06138BDDB0FC9400024744978
:1004E00038B503780446032B20D8DFE803F01A1848
:1004F0001002C168406912F00DFB0D4905466068A5
:1005000012F0C6FC0146284612F0C2FC38BD08496C
:10051000406812F0BDFCE16812F006FC38BDC0680E
:1005200038BDC168406912F0F5FA38BD002038BD09
:100530000024744970B504460E460EF069FE054667
:10054000E069281A12F09CFBE3682361E5616661AB
:10055000A0610146606812F09BFC0146A060104853
:1005600012F096FC11F06CFF11F006FC12F07EFA0E
:10057000054601464FF07E5012F0CCFA616912F048
:10058000D3FB21690646284612F0CEFB01463046D1
:1005900012F0C2FAE0602046BDE87040FFF7A0BF4D
:1005A000000080BF38B50E202C4C0EF0CBF923880C
:1005B0002B4A98420546118838DA1A46C91A32D0B1
:1005C000D31AC3EB033301EBD17203EB620303FBDA
:1005D00001F2002A93FBF1F13BDB14200EF06EFCDC
:1005E000204B1B88A3BB2288954224DB40F6FF7377
:1005F000C2F57F619D4201F10F012846A8BF184650
:10060000F9B1831AC3EB033301EBD17203EB62033D
:1006100003FB01F2002A93FBF1F11CDB2820BDE86B
:1006200038400EF04BBC40F2FF71D6E788420246DC
:10063000A8BF0A46C2E7C2F57F610F311046002904
:10064000DFD140F2FF712820BDE838400EF036BC03
:1006500038BD0139C1E70139E0E700BF9CA2FF1FA7
:10066000C4A1FF1F10A4FF1F10B5044611F0B0F97C
:10067000204610BD70B44C88A04220D9012301331C
:10068000DBB21CB2660031F8144084421D46F6D33A
:10069000A04211D005F10045013D965B31F81510DF
:1006A00032F81530401AF21A00FB02F0641A90FB7F
:1006B000F4F4E01870BC7047905B70BC7047022681
:1006C0000125E5E700280CDA064A434282FB0320B5
:1006D000DA17C2EB600000EB4000A3EB8000C0F132
:1006E0000C007047ABAAAA2A38B5274B1B78002B01
:1006F00037D015200EF026F9244B1860244B1B88A8
:10070000984204DA234C2378002B32D138BD224A98
:100710001288D11A2BD08242D4BFC3EB0203C3EBA1
:10072000000301EBD174C3EBC31303EB640303FBBE
:1007300001F2002A93FBF1F4B8BF04F1FF34002C5E
:10074000E0D0144B1A780AB901221A70134D2B68A5
:100750009C4204D0124BE1B2187809F083FD2C6062
:1007600038BD11200FF034FE084B1860C6E73F2457
:10077000E7E70B4B0021187809F074FD0023074AC6
:100780002370136038BD00BFBCA3FF1FBCA1FF1FB7
:100790003CA2FF1FB4A4FF1F40A4FF1FACA4FF1F77
:1007A00010A2FF1F38B50F200FF012FE204B214A78
:1007B0001B881060C0F53B600830984228DB1E4A59
:1007C0001288D11A28D09042D4BFC3EB0003C3EBE8
:1007D000020301EBD174C3EBC31303EB640303FB0C
:1007E00001F2002A93FBF1F4B8BF04F1FF347CB1AD
:1007F000124B1A780AB901221A70114D2B68A342C4
:1008000004D0104BE1B2187809F02CFD2C6038BDF3
:100810000A4C237813B938BD3F24E9E7094B00217E
:10082000187809F01FFD0023054A2370136038BDB6
:10083000A0A2FF1FD4A1FF1F2CA4FF1F54A4FF1FC1
:100840004CA2FF1F32A2FF1F521A0FD0411A002BD9
:1008500003FB01F102EBD2700CDB01EB600101FB49
:1008600002F3002B91FBF2F00EDB704703EBD37326
:1008700058107047A1EB600101FB02F3002B91FBC4
:10088000F2F003DB0130704701387047704700BF5A
:10089000521A10D010B402EBD274411A641003FB48
:1008A000014303FB02F1002993FBF2F010BCB8BF37
:1008B00000F1FF3070475810704700BF70B50E460A
:1008C00015460446184612F0F5FBAA1B0FD0A41BD0
:1008D000002800FB04F402EBD2700CDB04EB600494
:1008E00004FB02F3002B94FBF2F00EDB70BD00EB77
:1008F000D070401070BDA4EB600404FB02F3002B29
:1009000094FBF2F003DB013070BD013870BD70BDA7
:10091000F0B40E8886420DD203F10043013B31F85A
:100920001350854202D9F0BCFFF7A4BE32F8130081
:10093000F0BC70471088F0BC704700BF094B1B88A3
:100940000C2B09D8084A80B252F8232028B143F66C
:10095000FE73984203D9108C704710887047034982
:10096000FFF788BEEAA1FF1F6447010000490100AC
:10097000494A4A4B2DE9F0471B681488484AA3426C
:100980002546178866DBBB42A8BF3B46454A9C42CA
:1009900098461360C8BF23465FDD381B57D01B1B2A
:1009A00000EBD072C3EB833303EB620303FB00F273
:1009B000002A93FBF0F06DDBFFF7C0FF3A4A3B4B98
:1009C00016881B88C0F3C61909FB06F67F2E8246DF
:1009D000A8BF7F26002B37D0444543DD3A46214649
:1009E0002846FFF755FF324B1860324C2368994573
:1009F00009D0314B1B88002B46D1304B1B88002B74
:100A00003ED1C4F800902E4C23689A4506D02A4B5C
:100A10001B885A1F032A2AD9C4F800A0294C23682E
:100A20009E420FD0284B188848B1234B274A1B8879
:100A3000D35C834203D0C0B2F1B209F013FC26604C
:100A4000BDE8F087BDE8F087194A1360CDE741F6AD
:100A5000FF70B1E7134BA0461C6047453B46A8BF5B
:100A600043469AE7B8454546A8BF3D46B6E7174A0C
:100A7000D05C2030C0B20AF07F0109F0F3FBCBE775
:100A8000484609F08FFCBCE7104A4946D05C09F0A3
:100A9000E9FBB2E701388FE79CA2FF1F0CA4FF1F00
:100AA000C4A1FF1FB0A1FF1FFAA1FF1FC8A1FF1F14
:100AB00088A4FF1F2CA2FF1FF4A3FF1F8EA2FF1FFD
:100AC000E4A1FF1F90A2FF1F02A4FF1F188EFF1FAB
:100AD0002DE9F04F01208DB00FF07AFCDFF880B3E4
:100AE000DFF880A3CBF8000000200FF071FCBC4BB6
:100AF000CAF800001B880C2B00F0E081B94A0021E5
:100B00001F2B117039D0DFF86093B74BB9F8002074
:100B1000B64F53F8226000233B70B54BB54A1B8893
:100B2000B5491288013B012A31F91330089300F0CE
:100B3000E181B24B0393B24B0293B24B0593B24C9B
:100B400000230193B14B1B88012B00F01D82B04B99
:100B5000DFF818830493AF4B0693D8F800500023B6
:100B60000793AD4B1B88013B032B00F24A82DFE861
:100B700013F0F200D00013001401A84BDFF8E89244
:100B80001B78B9F80010984A984F52F8216000334A
:100B900018BF01233B70C0E7284612F071F8A04946
:100BA00012F0C2F80546079812F06AF89D4912F053
:100BB000BBF80146284611F0AFFF12F07BFA05465C
:100BC000C8F80050206812F05BF8954912F0ACF8B4
:100BD0008046019812F054F8924912F0A5F80146A7
:100BE000404611F099FF12F065FA20608E4B8F4A53
:100BF0001B8812888E49DBF800800C888D49C3EB76
:100C0000050E1D44049BC3F800E0831A1044069AA5
:100C10001560039A0D881360059BA0451860C0F20B
:100C2000498145452846A8BF404633462A462146C5
:100C3000FFF70AFEDAF800A05445834600F33C8132
:100C400055452846A8BF50462A4633462146FFF759
:100C5000FBFDA04500F310815445C0F20D81DFF883
:100C60001092D9F8000012F00BF8734912F05CF8FA
:100C7000724911F051FF12F01DFAA0F5FF531C3B11
:100C8000082B98BF4FF40050029BDFF8E8811C68E6
:100C900043F6FF750444AC42A8BF2C4624EAE47432
:100CA000C9F80040204611F0EBFF8146387806FB7A
:100CB00000F011F0E5FF4FF07A5112F035F80146DF
:100CC000484611F027FF12F0F5F95D4BA842A8BF86
:100CD00028461B7820EAE070C8F80000002B00F0DE
:100CE000DD80B4F5005F00F0D98006F0B5FA554B11
:100CF000D8F8000001221A70534C2368834205D0B3
:100D000080B209F07FFAD8F8003023600DB0BDE85A
:100D1000F08F284611F0B4FF4C4912F005F8054653
:100D2000079811F0ADFF4A4911F0FEFF0146284631
:100D300011F0F2FE12F0BEF90546C8F80050206826
:100D400011F09EFF414911F0EFFF8046019811F02C
:100D500097FF3F4941E7284611F092FF3D4911F0C6
:100D6000E3FF0546079811F08BFF3B4911F0DCFFCC
:100D70000146284611F0D0FE12F09CF90546C8F84D
:100D80000050206811F07CFF324911F0CDFF804601
:100D9000019811F075FF30491FE7284611F070FFE8
:100DA000254911F0C1FF0546079811F069FF2B494D
:100DB00011F0BAFF0146284611F0AEFE12F07AF9A2
:100DC0000546C8F80050206811F05AFF1A4911F082
:100DD000ABFF8046019811F053FF2049FDE600BFAC
:100DE00042A4FF1FB6A1FF1FD48DFF1F24A4FF1F25
:100DF000268DFF1F12A4FF1F9C4C0100B0A4FF1FF3
:100E000050A4FF1F5CA2FF1FA8A1FF1F98A3FF1FF4
:100E100034A4FF1F9CA3FF1F688DFF1FD0A1FF1FDD
:100E2000CDCC4C3FCDCC4C3E248EFF1F608DFF1FA0
:100E300008A4FF1FFCA1FF1F9A99193FCDCC4C4578
:100E40006BA5FF1F8CA2FF1F288DFF1F6666663FE4
:100E5000CDCCCC3D3333733FCDCC4C3DCDCCCC3E13
:100E600018A2FF1FE0A1FF1F20A2FF1F30A4FF1F39
:100E70000C8EFF1F648DFF1FB9F80030002B3FF46C
:100E8000EEAEC0EB0B03002BB8BF5B42092B00F3A7
:100E9000BA804FF40050DFF8F892F5E6A84C2378BA
:100EA000002B3FF429AF06F0D3F90023D8F8000057
:100EB000237021E72046B8E62046C5E6A14B1B7803
:100EC000002B00F0C180DFF8CC929F4BB9F80010E6
:100ED0009E4A9F4F53F821000023012111703B705F
:100EE00011F0CEFE4FF07C5111F01EFF12F0E2F82F
:100EF000064612E6974B984A1B8898491278013BA0
:100F000031F91380002A40F09A8011200FF060FA26
:100F10000190934B03931D68019B9D4240F3978082
:100F2000904B914C1B88226890490491012B904B67
:100F30001B8805938F4B0293C8EB0208304600F0E4
:100F40002D8111F09DFE059B049951F823108A4BC9
:100F5000059311F0E9FE0146002011F0DBFD034688
:100F60000198404542462946B8BF4046FFF7A6FCD7
:100F700002990B681844814B1B8800EBD07040101D
:100F8000012B08607FF4E3AD7D4B04931D460F20D9
:100F90000FF01EFA2B6807909842099380F2878021
:100FA000704BDFF8F4811B88012B714B00F0B3808C
:100FB0001A886E4B0A923046069311F061FE069B2A
:100FC0000A9AD8F8005053F822106E4B069311F08D
:100FD000ABFE089B0146EA1A0020089211F09AFD28
:100FE000089A0999034607989042B8BF1046FFF740
:100FF00065FC029A1368184400EBD0704010106032
:10100000AFE52068F2E50BF5005B0BF1010BC0EBDF
:101010000B0011F035FE5C49DFF8749111F084FE8D
:101020000446D9F8000011F02BFE584911F07CFE5F
:101030000146204611F070FD12F03CF824E6152020
:101040000DF080FC019064E7404A13705BE54A4B69
:1010500005931D68019B9D421FDA424B424C1B8841
:10106000226842490491012B414B1B880693414B56
:1010700002939044304600F0A68011F001FE0499DE
:10108000069B51F8231011F04FFE0346019840458E
:1010900042462946A8BF404668E7364B02931946A8
:1010A0001B68314C03EBD3735B100B604AE5354B87
:1010B0000693079A1B6809939A4221DD294BDFF8B2
:1010C000D8801B88012B2A4B00F08A801988274B77
:1010D0000B9130460A93D8F8005011F0D1FD089BCF
:1010E0000B992B4408930A9B53F8211011F01CFE16
:1010F000089A0999034607989042A8BF104676E7D8
:10110000029ADFF894801368D8F8005003EBD37389
:101110005B10136025E51988144B0A91304606933D
:10112000D8F8005011F0ACFD089B0A99EA1A069B0A
:10113000089253F82110134B069311F0F5FD4FE779
:101140008CA2FF1FD0A1FF1FD48DFF1FB6A1FF1FD0
:1011500024A4FF1F708EFF1FBCA3FF1FB84801000F
:10116000B0A4FF1F6EA2FF1FA8A1FF1FB44C010077
:1011700004A2FF1F50A4FF1F5CA2FF1F98A3FF1F24
:1011800034A4FF1F9CA3FF1FCDCCCC3E9A99193FDE
:101190000C8EFF1F20A2FF1F30A4FF1F11F070FD57
:1011A000059B0499224A51F82310059211F0BCFDC9
:1011B00003460198404529464246B8BF4046FFF7DE
:1011C0007DFB1C49D5E611F05BFD069B049951F8A7
:1011D000231011F0A9FD0146002011F09BFC54E7FB
:1011E0001A88154B0B9230460A9311F049FD0B9A61
:1011F0000A9BD8F8005053F8221011F095FD089B77
:1012000001462B440020089311F084FC089A0999A8
:10121000034607989042A8BF1046FFF74FFB029A7B
:101220001368184400EBD0704310136099E400BFBA
:101230005CA2FF1F50A4FF1FB44C010008B5244B53
:101240001B88FBB1234B1B78FBB1234B1B78E3B10D
:10125000224B1B78CBB1224B1B78B3B1214B2248D8
:101260001A78C2B9214A22490088128809680244C2
:10127000B1EB620F09DD01221A706420BDE808405D
:1012800005F0FEBF174A117801B908BD1370BDE81B
:10129000084009F05BB8154A1649008812880968A9
:1012A0000244B1EB620FF0DD00221A7009F04EF833
:1012B000642005F0E5FF642005F0E2FF642005F0FE
:1012C000DFFF4FF41670BDE808400DF0C3BF00BF4C
:1012D000AEA3FF1F7FA4FF1F80A4FF1F81A4FF1FD9
:1012E00082A4FF1FE8A1FF1FFCA1FF1F08A4FF1F8E
:1012F00018A2FF1FE0A1FF1F38B5114C232025784D
:101300000DF020FB0F4A42F82500131F02F1C40024
:10131000002253F8041F83420A44FAD123780A4971
:1013200007480A4C0133DBB2322B81FB025108BF64
:101330000023D217C2EB21120370226038BD00BF18
:10134000CAA1FF1FACA2FF1F1F85EB5104A4FF1F02
:101350002DE9F04FC34CC44D2068C44E83B011F04A
:101360008FFCC34911F0E0FC074610200FF030F865
:1013700011F086FCBF4911F0D7FC394611F0CCFBC7
:1013800011F098FE2A8820609042964631886EDAE5
:101390001346B1EB020C68D09B1AC3EBC3170CEBDE
:1013A000DC7307EB630303FB0CF7002F93FBFCF3E9
:1013B000C0F2AB81B04FDFF8F082B7F800C0C8F8D8
:1013C0000030BCF1190F00F01181BCF11A0F00F0D0
:1013D0007A81BCF11E0F00F083810127B846A74B2C
:1013E0001B88002B00F0CC809446A54A1288032A63
:1013F00000F26081704580F28A810A46704661463B
:10140000FFF746FA9F4B18609F4B1888002833D18E
:101410009E4A128882BB9E4B1978002940F0878132
:101420009C4B1B78002B00F0A3802B8821688B42FB
:1014300000F39E803088C41A00F07F8104EBD472E0
:101440008142D4BFC3EB0103C3EB0003521002EB94
:10145000430303FB04F2002A93FBF4F300DB0133A4
:101460008D4A136003B0BDE8F08F3F23A2E78842A6
:101470000346A8BF0B468CE72A882168DFF8E8916D
:10148000DFF8E0A18A4200F38380DFF804E29EF8EF
:1014900000C0BCF1000F37D14FF0010C04288EF8CA
:1014A00000C031D1002F40F0C481784B188800284B
:1014B000B6D0B8F1000FB3D023682A88378893429A
:1014C000C0F2B581BB42A8BF3B46BF1A00F0BE8147
:1014D0009A1A07EBD773C2EB82125B1003EB42033D
:1014E00003FB07F2002A93FBF7F700DB0137DFF875
:1014F000B481D8F80030BB4203D0C0B2F9B208F0D2
:10150000B1FEC8F800708BE7012800F0398102288D
:1015100000F021810328C8D1604B1B88092BC4D05F
:10152000002FC2D023682A883788934280F2AF8187
:101530001346BF1A00F0AF819A1A07EBD773C2EBBC
:1015400082125B1003EB420303FB07F2002A93FBBA
:10155000F7F700DB0137DFF848A1DAF80030BB42CB
:1015600003D0F9B24A2008F07DFECAF800709CE76B
:10157000494B00221A6003B0BDE8F08F984601275E
:10158000BCF11E0F7FF440AF0023DFF82091B2E0E2
:101590003F4B1A78002A3FF443AF4FF0000901286F
:1015A00083F8009000F0CB80022840F05181002F9A
:1015B00000F0E0803A4F3B68002B00F0DB80042015
:1015C000494608F04FFE314BC7F8009018880028B4
:1015D0003FF426AFB8F1000F3FF422AFC0B20021B4
:1015E00008F040FE2F4B00221A6019E7DFF8BC908C
:1015F00099F80030CBB1DFF89480B8F800A0BAF1C8
:10160000000F12D0DFF8A88098F800B09B4500F0DA
:1016100090805FFA8AF07F2108F024FE99F800306C
:10162000B7F800C088F8003010E0DFF8848098F840
:1016300000A09A457DD0154B0021187808F012FEC5
:1016400099F80030B7F800C088F800300B4B1B88C1
:10165000002B93D0BCF11E0F40F02A8101274FF0E0
:10166000000848E00CA2FF1FB4A3FF1FB0A3FF1F98
:101670009A99193FCDCCCC3E42A4FF1F8CA4FF1FEA
:1016800038A4FF1FA4A2FF1F14A2FF1F58A4FF1F0E
:101690004AA4FF1FECA1FF1F80A2FF1FF4A3FF1F9E
:1016A000A8A2FF1FF0A1FF1F28A4FF1FD0A1FF1FAA
:1016B000CEA1FF1F70452FDA62467046FFF7E8F8AB
:1016C000804B1860A0E6DFF8109299F80030002BEC
:1016D0000BBF012700274FF000084FF001087EE6FE
:1016E000DFF8F491784B99F800701B88B7FA87F708
:1016F0007F094FF0000899F80020002A3DD0B5F886
:1017000000C020683188E6466FE6013B52E6884219
:10171000A8BF0846864670E68842A8BF08468646A7
:1017200062467046FFF7B4F8664B18606CE61A70B4
:1017300076E601274FF0000851E6022390E6CFB18C
:10174000624F3B68B3B1494608F08CFD604BC7F867
:10175000009018883BE7002F3FF4A7AEDFF86CA19C
:10176000DAF800203CE0042804D11FB149464020AB
:1017700008F078FD564B188829E7524B1A6043E66B
:10178000002F3FF492AEB6F800904945A8BF4946F5
:101790000846B9EB020973D009EBD971821A4910D6
:1017A000C2EB821201EB420202FB09F1002992FB1B
:1017B000F9F901DB09F10109DFF810A1DAF80020DD
:1017C0004A4506D05FFA89F10120019308F04AFDED
:1017D000019B1888CAF8009002287FF49BAE4A4605
:1017E00021682888B6F800E081424CDA0146BEEB59
:1017F000000E42D0091A0EEBDE704010C1EB8111D1
:1018000000EB410101FB0EF0002891FBFEF901DB2A
:1018100009F10109914506D05FFA89F1042001938D
:1018200008F020FD019B1888CAF8009072E6134664
:101830004BE640207F21019308F014FD019B18889E
:1018400001282AD002287FF465AE87E740274EE6BC
:10185000032888D11F4B1B88092B8BD0002F89D0E0
:101860001A4F3B68002B85D04A20494608F0FAFC05
:10187000174BC7F800901888A9E64FF04009C9E750
:101880004FF0400998E77145A8BF7146AFE7BB42EA
:10189000A8BF3B464DE640275DE6B9F80000DAF800
:1018A0000010B6F8009081420246FFF672AF6CE776
:1018B000B5F800C020683188E64601274FF00008DF
:1018C00093E500BFA4A2FF1F8CA4FF1FA8A2FF1FC7
:1018D00058A4FF1FF4A3FF1FD0A1FF1F08B5114B91
:1018E0001B88022B09D0052B07D0032B15D0042B06
:1018F0000BD00D4B01221A7008BD7F21412008F04A
:10190000B1FC094B01221A7008BD7F21092008F0A3
:10191000A9FC054B01221A7008BD4021092008F0DE
:10192000A1FCE6E7A2A2FF1F41A2FF1F38B5074BAB
:10193000074D1B88052B044606D02B68834203D035
:10194000C1B2052008F08EFC2C6038BDA2A2FF1F9A
:1019500060A4FF1F38B5124D124C2B88052B12D0F6
:1019600022684AB9022B0ED0033B012B13D90E4A31
:1019700000231370236038BD0021052008F072FC9D
:101980002B88022B04D10021412008F06BFCEEE7EC
:10199000052BE9D1F7E70021092008F063FCE6E711
:1019A000A2A2FF1F60A4FF1F41A2FF1F38B53A4B40
:1019B0001B881D2B37D0394D0024394B1B88022B37
:1019C00015D0384B1B88022B4AD02D88364B002C63
:1019D0001B780ADBAC42A8BF2C4634B1002B30D0B8
:1019E0002046BDE83840FFF7A1BF33BB38BD2F4BC1
:1019F0001B78002B2ED015200CF0A4FF2C4B186068
:101A00002C4A1288002ADCD02B4A1868118881429F
:101A1000D7DC2A4A2B8812889042A8BF1046FEF7CE
:101A200037FF0444CDE7234B1C888CB1244B1B4D5E
:101A30001C78002CC1D02C88BFE7BDE83840FFF7E8
:101A400089BFFFF74BFF2046BDE83840FFF76EBF68
:101A5000124DB2E711200EF0BBFC154B1860CFE71A
:101A60000F200EF0B5FC134B164A1B881060002B9C
:101A7000ABD0154BC0F53B60198808308842A4DB19
:101A8000124B2D881A889042A8BF10462B46FEF7AD
:101A9000FFFE04449AE700BF42A4FF1F4CA4FF1FAF
:101AA00012A4FF1F98A3FF1F41A2FF1FBCA3FF1F8B
:101AB000BCA1FF1FA2A2FF1F3CA2FF1F40A4FF1F4B
:101AC000D0A1FF1FD4A1FF1FA0A2FF1F2CA4FF1FA6
:101AD000F8B510200EF07CFCC830B0F5FA7FC0F2EB
:101AE0009680B0F57A6F0146A8BF4FF47A6101F590
:101AF0001673B3F57A6FA8BF4FF47A639BB289B2BD
:101B0000914A924C11802220238008F027FD2188E1
:101B10008F4D904C242008F021FD0E200CF012FF78
:101B200040F6FF71C8308842A8BF084620EAE0703E
:101B300000F2DC5283B28A42A8BF0A46022019464C
:101B400022802B8008F00AFD2188042008F006FD81
:101B500001200EF03DFC044600200EF039FCA042AE
:101B6000B8BF204600F1C801B1F5FA7FC0F2D680B7
:101B7000B1F57A6FA8BF4FF47A6101F54873B3F5F8
:101B80007A6FA8BF4FF47A639BB289B2724A734CE2
:101B900011800A20238008F0E1FC21880C2008F045
:101BA000DDFC0F200EF014FCC0F53F610431B1F5EF
:101BB000AF6FC0F2B080B1F5FA6FA8BF4FF4FA6111
:101BC00089B2674BC0F54360B0F5AF6F1980C0F2C2
:101BD0009B80B0F5FA6FA8BF4FF4FA6083B2614CF6
:101BE000A420238008F0BAFC2188A62008F0B6FCC7
:101BF00015200CF0A7FE00F59671B1F52F7F0BDBD9
:101C000041F25C23994240F38E80194608E040F28D
:101C10004C434FF4FA7173E740F214534FF42F71B1
:101C2000514A1180514C524D2380062008F096FCF9
:101C30002188504E082008F091FC00274FF4AF7423
:101C4000F9B24D480AF0E2FA55F8043BC3F5967331
:101C500000FB03F086FB0023C017C0EB6310844237
:101C600007F10107A8BF0446062FE9D1434F414EB3
:101C70000025E9B242480AF0C9FA57F8043BC3F517
:101C8000967300FB03F086FB0023C017C0EB6310C4
:101C9000844205F10105A8BF04460C2DE9D1394F56
:101CA000344E0025E9B238480AF0B0FA57F8043B40
:101CB000304AC3F5967300FB03F086FB0013C01790
:101CC000C0EB6310844205F10105A8BF04460C2D4A
:101CD000E8D1A4F11401312919DD40F23A73A4F5D9
:101CE000B97403FB04F4963C82FB0432E417A4EBC2
:101CF000621289B232322548254B01801A602A20AF
:101D0000BDE8F84008F02ABC4FF4AF6367E740F243
:101D10006C723221EFE74FF4AF6152E740F2145397
:101D20004FF4FA7132E7104A00F5617089B2B0F5EC
:101D30002F7F1180B8BF4FF42F73FFF673AF83422C
:101D4000A8BF03469BB26DE7B4A3FF1FB0A3FF1F5C
:101D50009CA2FF1FC4A1FF1F08A4FF1FFCA1FF1F1F
:101D6000A0A2FF1F2CA4FF1F3CA2FF1F40A4FF1F27
:101D7000588EFF1FB5814E1B70A4FF1F288EFF1FBA
:101D80001CA2FF1F308DFF1F94A2FF1F7CA4FF1F0A
:101D9000148EFF1F2DE9F04F0C2083B00CF09EFD38
:101DA0000C200DF089F9CA49DFF8ACA314200DF01E
:101DB00093F9C849C84809F0F9FE022103200DF043
:101DC00021FA022104200DF01DFA022105200DF058
:101DD00019FA022106200DF015FA01210A200DF052
:101DE00011FA012109200DF00DFA01210D200DF04D
:101DF00009FA012128200DF005FA012114200DF027
:101E000001FA012116200DF0FDF9012117200DF036
:101E1000F9F9012121200DF0F5F902211C200DF026
:101E2000F1F901211B200DF0EDF900211B200DF02F
:101E3000D5F91C200DF0D8F9B0FA80F35B091A200F
:101E40008AF800300DF044FC1F2000210DF006FC44
:101E500004200DF0C9F9002800F0908105200DF054
:101E6000C3F9002800F0BB8100239C4C062023709E
:101E70000DF0BAF9B0FA80F35B094FF0000B984A05
:101E8000137006F0CDFE2378002B40F07281584687
:101E900008F08EFB934B94491B88944840F23A72A9
:101EA000A3F5AF7302FB03F3963B81FB0321DA1723
:101EB000A2EB61128E49002BD4BF02F1320302F172
:101EC000310309888B4A017001210D2013600DF048
:101ED00085F964200DF0BEF906244FF416710A202E
:101EE0000CF0ECFF00940C237B4A83485D210AF040
:101EF000F5F9002800F0B08164200DF0ABF9002165
:101F00000A200CF0DBFF4FF4967109200CF0D6FF8D
:101F100000940C23704A79485C210AF0DFF900280C
:101F200000F0878164200DF095F9002109200CF064
:101F3000C5FF4FF4967116200CF0C0FF00940C23DF
:101F4000654A6F485B210AF0C9F9002800F04E810C
:101F500064200DF07FF9002116200CF0AFFF4FF444
:101F6000967117200CF0AAFF64200DF073F9002180
:101F700017200CF0A3FF64200DF06CF900210D2058
:101F80000DF02CF95F4A60481268DFF8D0915F4F7E
:101F90005F4D604EDFF8C88100230121FEF784FA0F
:101FA0000023012289F800203B602B603360042469
:101FB0000F200EF00DFA336803440E2033600CF04E
:101FC000C1FC3B6899F8002018443860002A00F0F2
:101FD000C98015200CF0B6FC2B681844286004F06A
:101FE000010080F0010005F03BF9B8F80030002B4B
:101FF00014BF4B20DC200DF02DF9013CD8D1336803
:102000003968424A2868444F002BB8BF033300297F
:10201000B8BF0331891011604049414A09881488CA
:102020009B1000283360B8BF03303E4E8210581A10
:1020300019442A60316038603B4D3C483C49161BCE
:1020400022442E6002600B60BBF1000F40F0AF80B5
:10205000B8F80030002B00F09D80364B012404209E
:102060001C600DF0C1F818B9334B204A1C70107079
:10207000324B1B881C2B00F0A280314C04F1C805A8
:1020800023200CF05FFC44F8040F01200DF0E2F86F
:10209000A542F5D19AF8003023B12A4B1B78002BCA
:1020A00040F09880002121200DF098F8264A274B17
:1020B0001078187008F018FA05F0CAF82449254875
:1020C00045F6BF5203B0BDE8F04F0FF037BC00BF7C
:1020D000001B374640420F003096FF1FEEA1FF1F46
:1020E000B7A4FF1F7CA4FF1FB5814E1B58A2FF1F82
:1020F00090A4FF1F148EFF1F70A4FF1F94A2FF1F48
:102100001CA2FF1F2C8DFF1FD0A3FF1FC0A1FF1F0C
:10211000A8A1FF1F30A4FF1F34A4FF1F248EFF1FA0
:10212000608DFF1F9CA3FF1FB0A4FF1F5CA2FF1FB9
:1021300094A4FF1F3CA4FF1FD8A1FF1F42A4FF1FB0
:10214000A8A2FF1FB6A3FF1FB8A3FF1F97A3FF1FDF
:10215000A505000068A4FF1F9AA3FF1FBCA3FF1FD3
:10216000FEA3FF1F11200EF033F92B6818442860DE
:1021700035E703B0BDE8F04F09F02CBC06200DF0A8
:1021800033F800287FF46AAE364C034620704FF0D7
:10219000010B74E64FF4FA7005F072F805F05CF884
:1021A00007F0A0F84FF4AF600DF054F855E7FFF7D3
:1021B0008FFCB8F80030002B7FF44FAFEAE72A4BD2
:1021C000188800283FF459AF284BC0B2197808F09E
:1021D00049F852E7012121200DF000F866E70320BD
:1021E0000DF002F8B0FA80F35B093EE603200CF034
:1021F000FBFF0028FAD104200CF0F6FF0028F5D1EF
:1022000005200CF0F1FF0028F0D106200CF0ECFFC7
:102210000028EBD10EF0DAF904200CF0E5FF40B90C
:1022200005200CF0E1FF20B906200CF0DDFF0028AE
:10223000F0D003200CF0D8FF0028FAD1ECE70420FE
:102240000CF0D2FF40B905200CF0CEFF20B90620DB
:102250000CF0CAFF0028DDD003200CF0C5FF0028D9
:10226000FAD1ECE7EEA1FF1F60A2FF1F08A2FF1F3B
:102270002DE9F04FDFF814B39BF80030012B99B033
:1022800000F05083C0F0D882022B00F085818D4988
:102290008D4891F800C08D4901918D498D4D8E4C2E
:1022A0008E4E8F4F8F4A06918F4903918F4990F838
:1022B00000A002912D788E492478367897F8009006
:1022C0001278DFF8CCE2DFF8CC828A480491012B47
:1022D00094BF013300238BF80030874B874983F884
:1022E00000A0874B0D701C708649874B0E7083F8D9
:1022F00000C08649864B81F800A01A70B9F1000F22
:1023000040F0C281834B1F880D2F00F02E8282493E
:1023100000239B460B702CB17E490F88002F40F0A4
:1023200031823C467D490988E3180593002940F035
:10233000C6817B4B7B49029C1B782478097801334A
:10234000A3EB4403002940F02482049909785B1A26
:10235000002940F09C8300247349039F09783F784B
:102360001B1BA3EB410333445D1B17B1B6FA86F781
:102370007F099EF800303D44EC1A002B00F01D82CE
:10238000003118BF0121019B98F8007006781D7874
:102390006648631ADB1BA3EB46036344CAEB030ADC
:1023A000AAEB42024FF00C0919FB052202606048BB
:1023B000604B614D04881B8860482E686049614D00
:1023C000008809882D68033B03EB430302EB83037A
:1023D000C0EBC00028440B44C4EBC4045A495B4D15
:1023E00051F82010059834440C3B55F82440034420
:1023F00023445C18BBF1000F01D0554B1A60554BBC
:10240000554A1B88042B8CBF01210021117040F21A
:102410003581524A5248116803EB83039AB203296B
:10242000028000F0598400204E4D4F492B680870FF
:102430009C4200F096814D494D4F0B680893089ED1
:102440004C4B3E6001271F700B6809934A4F099B54
:102450003F88DFF818E19B1BBB4240F22081474BCD
:102460001C60002800F0A781424B1878002840F03B
:1024700004832C60424D23462C689C4200F0198155
:102480000868404F0B900B983E68801B904214D315
:102490001B1B002BC0F26E830BD03B4A126882EAF2
:1024A000E270A0EBE2708342ACBF134601231C44F0
:1024B0002C600B680C930C9B3B60069B1C6019B056
:1024C000BDE8F08FF0A3FF1FF1A3FF1FA4A3FF1F20
:1024D000A4A4FF1F3FA2FF1F40A2FF1F3EA2FF1F99
:1024E000BCA4FF1FF2A3FF1FEDA1FF1F5DA4FF1FF0
:1024F0005EA4FF1F48A4FF1FB6A4FF1FB3A3FF1FC6
:10250000B8A4FF1FB9A4FF1FBAA4FF1FBBA4FF1FDD
:1025100049A4FF1FBEA4FF1FD0A1FF1FB4A1FF1F2E
:10252000268EFF1FA0A4FF1F5FA4FF1FF8A3FF1F9D
:1025300038A4FF1F16A4FF1FA4A2FF1F42A2FF1F63
:10254000CCA1FF1F88A4FF1F00440100784A0100AE
:1025500098A4FF1F22A4FF1FECA1FF1F3CA4FF1F94
:10256000108EFF1F34A2FF1FCFA1FF1F88A5FF1FE2
:1025700024A2FF1F7CA2FF1F56A4FF1F44A4FF1F1D
:10258000A0A3FF1FC0A3FF1F80A2FF1F96A3FF1FD2
:10259000B5A4FF1F76A4FF1F894F8A4D0CAE0024FF
:1025A000E1B2894809F032FE57F8043BC3F596734F
:1025B00000FB03F085FB00230134C017C0EB631060
:1025C0000C2C46F8040BEBD1804B0D981F88804BE8
:1025D0000293804B139993F800C0149B7E4A049297
:1025E000BB42ACBF4FF000094FF00109159B7B4A7D
:1025F000179E0F9D92F800A0109CDFF82C82DFF848
:102600002CE288F800908742D4BF002001208F423E
:10261000D4BF002101219F42169BDFF81482D4BF52
:10262000002201229F42D4BF00230123B742D4BF1E
:1026300000260126AF42D4BF00250125A742684FDE
:102640003870634F6748397063490A70664A674952
:102650001370674B01911E706649674B0691D4BF9A
:102660000024012465491D708EF8004002789BF813
:1026700000300391DFF8BCE1614828E6614900239E
:102680001A460B801846CFE65F4B60491B884FF017
:10269000010B182B81F800B077D900233BE62C60A2
:1026A0005B4B00287FD05B4D1B682C689C427FF4FD
:1026B000E7AE1C46069B1C6019B0BDE8F08F0129EF
:1026C00000F0C282022900F01D830329524B00F062
:1026D000E381042900F08B83052900F019841C781C
:1026E00003789EF800100793049F029B019897F8C7
:1026F00000E098F800901B78DFF8EC8000780190FB
:10270000A4EB4104079998F80080039FBEF1000FE5
:10271000C9EB0409A1EB8100C3EB837EC3EB8E03FD
:102720004844184414BF00230423B8F1000F0344A5
:102730003F783A4C14BF00200320034403EB4703C7
:1027400003EB82031E44019A06EB0C03C2F106025E
:102750005D1B02EB4202A5EB4A0A0AEB82022260F1
:1027600025E62F4B2F491E686EE6002C3FF4CFADB7
:10277000254B26491B884FF0010B182B81F800B020
:1027800003D94B46A7F10D04CCE50C3B4FF0010BF0
:10279000C1E50499002C00F069810C78002C40F010
:1027A0002283013BD8E51C681A4B1C60069B1C6009
:1027B00019B0BDE8F08F2C60F6E71946E3E500BFDD
:1027C000308DFF1FB5814E1B94A2FF1F7CA4FF1FFD
:1027D0005DA4FF1FF0A3FF1F5EA4FF1FF1A3FF1F57
:1027E000A0A4FF1FF2A3FF1F5FA4FF1FA4A3FF1F4E
:1027F0003EA2FF1FA4A4FF1F3FA2FF1FEDA1FF1FCA
:1028000048A4FF1F108EFF1F42A4FF1FD0A1FF1F6F
:1028100044A4FF1FA0A3FF1F268EFF1FF8A3FF1FC6
:1028200024A2FF1F88A5FF1FBCA4FF1F40A2FF1FFB
:1028300076A4FF1FB5A4FF1FAC4FAD4D0CAE002416
:10284000E1B2AC4809F0E2FC57F8043BC3F59673DB
:1028500000FB03F085FB00230134C017C0EB6310BD
:10286000062C46F8040BEBD1A34BDDF830901A8808
:10287000119B02930DF1340898E800519145ACBFCB
:10288000002701279D4BDFF8DCA2198810984245EC
:10289000D4BF00260126624507EB0603D4BF0025FE
:1028A00001252C462B44964D8AF800602F70954DDB
:1028B000DFF8B4A22C707245029C934DD4BF002760
:1028C000012782423B44D4BF00260126A2422E703B
:1028D0008AF800703344D4BF002701278B4E8C4DFB
:1028E00037703B448B4E0196DBB201292B708A4D29
:1028F00037468CBF002601262E70A2424FF00005FD
:102900003D7040F38680824202DC012900F2598149
:10291000019C824D06230329237000F04D83804AD9
:1029200006923DE17F4F724D0CAE0024E1B27E482D
:1029300009F06CFC57F8043BC3F5967300FB03F0F9
:1029400085FB00230134C017C0EB63100C2C46F844
:10295000040BEBD1684B0F9D1F88109C0E990D9BAB
:102960000C9E72480390BD42ACBF00250125A742D2
:10297000D4BF002401248F42D4BF002101219F42F3
:10298000D4BF002301236A48DFF8E0810370B74217
:10299000149E684B139A88F80010D4BF4FF0000CB7
:1029A0004FF0010CB742D4BF4FF0000A4FF0010ABC
:1029B000614983F800A0169B81F800C09742DFF8B8
:1029C000B0E15A4E5D493570D4BF002201229F42CA
:1029D0008EF800400A7016DC002359494D4C0B70EC
:1029E0004F4B019406935749574B584D584C0E780E
:1029F00058490291584993F800902D7824789BF813
:102A00000030049163E4159B9F42D4BF002301234F
:102A1000E3E7824240F3D580724500F3B980012993
:102A200040F2B680624540F3D580424500F3C7824C
:102A3000012940F2C482914580F2D5800123019D95
:102A40002B70364D364B0693032940F0A780029B2E
:102A50009A4240F3A380824200F3A0802B78062B99
:102A600040F09C80019A0723137099E00978013B9C
:102A70005B1A00297FF470AC6DE4DEF800000A9068
:102A80000A98364F1044002638601E70F1E4002C7E
:102A90003FF461AC01245FE41978029B9EF800408A
:102AA0001B78039F98F80060007897F800E0049F77
:102AB000A1EB4401A0EB8000891BC3EB83740144AC
:102AC000C3EB84030B443F7803EB4E0303EB820319
:102AD000002F40F002820125019A214912782B44EF
:102AE0004FF00C0919FB02320A6060E4588EFF1F98
:102AF000B5814E1B70A4FF1F7CA4FF1F82A3FF1F84
:102B00007EA4FF1F80A4FF1F82A4FF1F83A4FF1FBA
:102B1000F4A1FF1FA4A3FF1F14A4FF1FB2A3FF1F54
:102B2000A4A4FF1F288EFF1F1CA2FF1FEDA1FF1FE3
:102B300048A4FF1FF1A3FF1FF0A3FF1FF2A3FF1F75
:102B400002A2FF1F3EA2FF1FBCA4FF1F3FA2FF1F48
:102B500040A2FF1F5DA4FF1F5EA4FF1FC0A3FF1FB5
:102B6000F8A3FF1F7FA4FF1F81A4FF1F76A4FF1FF0
:102B7000B5A4FF1FB54A126882EAE2705B42A0EB7F
:102B8000E2708342ACBF13460123E41A2C6090E448
:102B9000019AAF4D05231370AE4B0693019B1B7832
:102BA000AD48AE49AE4A2B70AE4B90F800A091F8FC
:102BB00000C012780393DFF8E8E2DFF8E882AA4861
:102BC00011E772457FF72EAF624500F39F8101291F
:102BD00040F29C8142457FF72EAF9145C0F2F181D2
:102BE000012940F2EE819A4D2E78012E7FF62AAF10
:102BF00009B1019F3E709D4E3688002E00F0E381A2
:102C0000002B40F0E0819A4B1B88013B9BB2062BC6
:102C100000F2D981974B1B78002B00F0D481964BA2
:102C20001B68012B8B4B06937FF40EAF1F68DFF8F8
:102C300078E20C2397FBF3F603FB1673AEF8003033
:102C40008E4B03261E70FFE68D4B8E4F029C1B7829
:102C500024783F780133A3EB4403002F40F0B68083
:102C6000049909780291DF1B029BFF1A002B40F0A8
:102C7000A9800299DFF82092039B99F800901B78B5
:102C8000791AA1EB490131444D1B13B1B6FA86F311
:102C90005B099EF800702B44DB1B1FB119F1000784
:102CA00018BF012798F800100078DB1B5B1AA3EB14
:102CB00040036344CAEB0303A3EB4203002C6BD134
:102CC0000299002900F01781B9F1000F0CBF4FF0F5
:102CD000000E4FF0090E61E05C4B1B68002B7FF784
:102CE000A2AB694B187800287FF49DAB674B1B782B
:102CF000002B7FF499AB664B1878B0FA80F040094E
:102D0000FFF792BB049C634B24780299624F0294B4
:102D100098F8004090F800805A489EF80090097892
:102D200090F800E03F789DF8080083F808C0DFF8CD
:102D30007CC15A7283F801E0987019701E7183F893
:102D400005909C7183F80780DF704FF0000E012220
:102D50000023504F18465FFA8EF866460C4607E08F
:102D6000022A09D00A2B0BD017F8014F16F8012FB1
:102D7000944203F10103F3D101300A2BC0B2F3D125
:102D8000092800F204810EF1010EBEF1100F00F0CF
:102D90008F801CF80A2FDBE74FF0000E734400BB56
:102DA000002A0CBF00216FF00901019A3B481278FC
:102DB0000B444FF00C0919FB02320260FFF7F7BA1F
:102DC00002995F1A211C18BF012153E7002C00F063
:102DD0008D800499097802910029F1D15F1E029932
:102DE00048E70021E1E71B1B0124FFF7B5BA93F880
:102DF0000090039B029F9EF8004093F800E0049B24
:102E00003F7898F80060007893F800C0A9EB44037D
:102E10009E1BA0EB8000C7EB87730644C7EB8307BC
:102E2000F31903EB4E0E11FB02E1BCF1000F65D16B
:102E30000125019B1A78194BC2F1060202EB4202EE
:102E4000294401EB82021A60FFF7B1BA80A2FF1F8A
:102E5000B2A3FF1FA4A4FF1FF1A3FF1FF0A3FF1F36
:102E6000F2A3FF1FEDA1FF1F48A4FF1F20A4FF1F17
:102E7000BAA3FF1F9EA2FF1F3CA4FF1F088EFF1FC7
:102E8000268EFF1FA0A4FF1F00A4FF1F5CA4FF1F2E
:102E9000ADA1FF1F64A2FF1F5FA4FF1FF8A3FF1FC8
:102EA000B5A4FF1F76A4FF1FFCA3FF1F4849010024
:102EB000494A4A4B1178DA6B039B01311B780A446B
:102EC000551B2B4400220199087845499B1A0C2276
:102ED00012FB00320A60FFF76ABA424A1278002AEF
:102EE0003FF4F9AD003518BF0125F5E5049F3F78A3
:102EF00002970F46B7E6DDF808E04FE7394B1B783D
:102F0000002B95D0003518BF012592E7042396E5E4
:102F10001B780793049B01781B7802980293039B0C
:102F200098F8007093F80080019B9EF8004093F899
:102F30000090079B0078DFF8ACE0A3EB4403DB1BB9
:102F4000029F9EF800E0264CA1EB8101002FC0EB10
:102F500080770B44C0EB870014BF00210421034499
:102F6000BEF1000F0B4414BF002103210B4403EBFF
:102F7000480303EB82031E4406EB0C035D1BA5EB29
:102F80004A0A0C2212FB09A22260FFF710BA124A69
:102F9000124B117853F82E20039B01311B780A4401
:102FA000521B1344BAF1000F8CD0B8F1000F89D135
:102FB000002D87D0012286E70B4B06934BE50323B8
:102FC0003DE502233BE5094B1B68012B064B0693AD
:102FD0007FF43AAD34E600BF268EFF1F6C8DFF1FD5
:102FE000F8A3FF1F5FA4FF1FA4A4FF1F3CA4FF1FA3
:102FF0002DE9F04F3A4B1B788BB0002B6BD10E2094
:103000000BF0A0FC0FF03CFE01463648364E374D23
:10301000FDF790FA3348FDF763FA10F04BF880F3B0
:103020000C003060FFF724F92C68012C7AD0022CB8
:1030300000F0CC82032C00F04E842D4E2D4C3368D2
:103040002D4A2E4E0993099B316812882360591A24
:10305000013A9142274F00F2B482294E32689A1AFF
:10306000092A00F29D82274E32689A1A0D2A00F230
:103070009282254E32689A1A252A1AD9234B1B8828
:10308000002B40F05B81224B1B78002B40F05681D7
:10309000FEF732F91F4B1B881B3B9BB2022B04D857
:1030A0001D4B1B78002B40F04C8104F0FBF823688B
:1030B00033601A4D2A689B1A502B00F20D82184B70
:1030C0001B88012B00F0258207F072F806F056FFEE
:1030D0000BB0BDE8F08F08F005FB0BB0BDE8F08F3A
:1030E000EEA1FF1FD0A3FF1F0CA4FF1F3CA4FF1FD6
:1030F00088A5FF1FCCA3FF1F128EFF1F98A2FF1FE2
:1031000078A2FF1F50A2FF1F54A2FF1FAEA3FF1FF4
:10311000E8A1FF1F42A4FF1FD0A1FF1FA8A3FF1F0C
:1031200010A4FF1FDFF820939F4AB9F8000013781E
:10313000834204D0C3B21846137007F02BF8DFF8AF
:1031400004839A4AB8F800301178994204D0984F15
:103150003978002940F05087964A33681288964E95
:103160009A42C0F2F880954A1278002A40F0F38023
:10317000DFF8D8A2BAF8003023B9914B1B88002B96
:1031800000F08C858F4A904B11881B888F4A0B4426
:1031900012685B1093428E4A126880F22E850021DD
:1031A0009342B4BF01230B4604910093ACBF4FF090
:1031B000010B8B4605910E200BF0C4FB854B864A14
:1031C0001B68176803930133A7F25232002B844621
:1031D000029240F32287802BA8BF80237F4A804938
:1031E00012780191002A00F0C0800978914200F025
:1031F000BC80B8F80010DFF84CE2994201F036814B
:103200006B49AEF80030774B4FF0010E81F800E0CB
:103210001978DFF83CE2019B8EF800101A70009BD1
:10322000002B00F01781BAF80030002B00F012815B
:103230006D4B1B685A1C002A40F31987802A00F343
:1032400015876A4C6A496B482488098800682144BC
:10325000B0EB610FC1F29483A3F148020F2A02D8A8
:10326000473BA9F800300E200BF06CFB6FF4547351
:103270001F44874202DC604B00221A705F4B1B88A0
:10328000002B00F0B1845E4B5E4A1B7811789942A6
:1032900043D0002B41D05C490C78002C00F0AB8768
:1032A0005A4991F800C0BCF1000F40F0A287584F76
:1032B0000097584F58480297554F007887F800C03C
:1032C000544F4FF0010E87F800C081F800E000284D
:1032D00041F0318151490978002901F0708050494D
:1032E00003910C460978002941F066804D48494F0A
:1032F0000078397001210297217070B14448434928
:103300000090494803270770002008700099029F29
:103310000870039901243C7008701370434B1B889C
:10332000A3F11B02012A40F255861D2B7FF486AEC5
:103330003C4A3F4B12781A703E4C80E6FDF77EFF08
:10334000A6E63D4B1B78002B3FF4AFAE2B68012B5C
:103350007FF4ABAEABE63168384A0691069838493F
:10336000106002220B602A6002E71E49DFF8E0E0ED
:10337000097800293FF44FAF9EF8000081423FF4E6
:103380004AAF03984B2841F338801833802BB8F8A4
:103390000000A8BF802398423FF43DAF2948038036
:1033A00003480123037036E797A3FF1F58A2FF1FAE
:1033B000D8A1FF1F9CA2FF1F88A5FF1FE8A1FF1F28
:1033C00086A2FF1FFCA1FF1F08A4FF1F18A2FF1F5A
:1033D000E0A1FF1F98A4FF1FC0A1FF1F8EA4FF1F25
:1033E00030A2FF1F8FA4FF1FF8A3FF1FB4A3FF1F6E
:1033F000B0A3FF1F0CA2FF1FF8A1FF1FBAA3FF1F5E
:1034000002A2FF1FACA1FF1FB9A4FF1F00A4FF1F52
:103410005CA4FF1F9EA2FF1FBAA4FF1FB6A4FF1F3C
:10342000ADA1FF1FD0A1FF1F088EFF1F42A4FF1FE9
:10343000CEA1FF1FCCA3FF1F49A4FF1F44A2FF1F63
:10344000C8A3FF1F90A4FF1FB8A3FF1F38A2FF1F30
:1034500031A2FF1F029B9C45BFF605AF994B1B880D
:10346000002B3FF400AFBBF1000F7FF4E1AE964BB1
:103470001B881BB1059B002B7FF4DAAE049B002B4D
:103480003FF4F1AE914B1A78002A7FF4ECAEDFF8EE
:10349000C49299F8004001221A70002C40F0CB83AE
:1034A0008B4B1B78002B02F00C818A4B1B78002B76
:1034B00002F04484884B1B78002B7FF4D4AE874BFA
:1034C0001B78002B3FF4CFAEB8F8003084490A3B9C
:1034D000A8F800300A70C6E605F0EAFB814B1B78BD
:1034E00073B9814B1B785BB9804B1B7843B9804B18
:1034F0001B782BB97F4B1B7813B903F0A9FE01E0B1
:1035000003F0B2FE23682B607B4B1B88012B7FF4FA
:10351000DBAD7A4A7A4B12681D687A497A4EA82345
:1035200003FB02F202F5FF521F3281FB0231D0177A
:103530001144183D2A23C0EB613103FB05F0734BA6
:10354000002A734A1B781578ACBF543955390144A9
:103550006FF0140202FB031232606E48002D00F07F
:10356000588103689A4200F39F8380F252816A4D2A
:103570002978002940F0CC8768490D68D5F17F058E
:1035800048BF0335AD1001355B1B9A4200F3418102
:1035900003601A463EE1FEF709FA2368336068E5E6
:1035A000FDF796FAFDF7D4FE5D4B1B88032B00F068
:1035B0007E855C4B1B88032B00F075852368336088
:1035C00051E5FDF7D5F93B68336046E5564A346866
:1035D0001288A24204DB474B1B78002B00F0CE83FD
:1035E000524E534833680793524B079900681B8823
:1035F000091A994200F2B480002B00F0B1804E4BC2
:10360000198800293FF41AAD4C4B4D481B680088BF
:10361000A342B8BF23469A4241F3AB81494B1A609B
:10362000DFF8348188F80010354FFDF7A1F93868CC
:103630007F2840F3D085444B7F3883FB0032C3178B
:10364000C3EB620303EB4303A0EB830073303F4BF8
:1036500001931B883860002B40F0EF86234B0093CA
:103660001B78002B00F03784394C2378002B00F0B6
:103670003284DFF8E890DFF8D0A04FF0000B0CE0C8
:1036800003F17300C0B298F8001006F01BFE237817
:103690000BF1010B5B4540F31E843B6859F8040FA6
:1036A0001844A0F17F038AFB0321DA17C2EB610201
:1036B00002EB42027F28A3EB8203E1DCFDF702F874
:1036C000E0E700BF86A2FF1FC4A3FF1FF8A1FF1FF2
:1036D000B6A4FF1FB3A3FF1FB8A4FF1FB9A4FF1F09
:1036E000D8A1FF1F9EA2FF1F00A4FF1F5CA4FF1F05
:1036F000ADA1FF1FE8A1FF1F10A4FF1F0C8EFF1F2D
:10370000A4A4FF1F0900028070A2FF1F24A4FF1FB2
:1037100041A2FF1F88A2FF1F64A4FF1F60A4FF1F18
:1037200012A4FF1F98A3FF1F9CA2FF1F88A5FF1FC5
:1037300044A2FF1F84A2FF1FF6A1FF1FC8A3FF1F03
:10374000C4A1FF1FB0A1FF1FABAAAA2A12A2FF1F8C
:10375000D08DFF1FA4A3FF1F3AA4FF1FA88DFF1F3A
:103760008A4B8B491B6808888A49A342B8BF234605
:103770009A4200F3ED82884C09888342A8BF034631
:10378000236000297FF44CAF9A42C8BF134640F330
:10379000E682801A00F0A9869B1AC3EB833300EB04
:1037A000D07203EB620300FB03F2002A93FBF0F0FC
:1037B000C1F2D484FDF7C2F8C0F3C6100FF060FA6E
:1037C000764B044618880FF05BFA75490746204689
:1037D0000FF0AAFA014638460FF0A6FA21460FF07C
:1037E0009BF94FF07E5104460FF03CFC002841F05D
:1037F000A4806C4920460FF053FC002840F09586C9
:1038000020460FF07DFCC0B2DFF8D88188F80000B8
:103810000AE70260644B1B88002B3BD0634951F8D8
:103820002350002D00F03E822368B3FBF5F105FB29
:103830001133C3EBC30305EBD57103EB031303EBA8
:10384000610303FB05F1002993FBF5F3C0F25186F8
:10385000574951F82310A1F2FF71564B564C1B6883
:1038600003FB01F303F57D3101F56071162303FBC2
:1038700001F303F57D3303F5607384FB0314D9175B
:10388000C1EB6441002BACBFA1F10B03A1F10C0310
:103890001A440260494B4A481B884A4903F27C7328
:1038A0005B0002FB03F303F5FC6380FB0302098862
:1038B000D018DA17C2EBE022002BA1F16401B8BFE7
:1038C00002F1FF324900114481F30C0128200BF072
:1038D000F5FAFFF7F9BB3C4BD6F800801988414553
:1038E00040F38480394B1B78002B7FD1DFF8F890B0
:1038F00099F800007F2840F30786A3F155337F38FD
:1039000003F1004383FB0032C317C3EB620303EBF5
:103910004303A0EB830073302D4B01931B88C0B28F
:1039200089F80000002B40F0FA872A4B00931B789F
:10393000002B00F08D84284C2378002B00F0888425
:10394000264FDFF89C804FF0000A0AE003F1730075
:10395000C0B206F0DBFC23780AF1010A534540F3BC
:10396000778457F8043F99F800001844A0F17F03CA
:1039700088FB0321DA17C2EB610202EB42027F28C7
:10398000A3EB8203E2DCFCF79DFEE1E7C8A3FF1F87
:10399000C4A1FF1FF6A1FF1FB0A1FF1FB8A1FF1F09
:1039A000CDCCCC3D0000FE42C6A1FF1F2449010042
:1039B000FC41010028A4FF1F491B8940A8A4FF1F48
:1039C0008320088248A2FF1F9CA2FF1FE8A1FF1FBF
:1039D00012A2FF1F5CA4FF1FD08DFF1FA88DFF1F29
:1039E000ABAAAA2A3AA4FF1FF6A3FF1FBA4F386852
:1039F0007F2840F3B881B94B7F3883FB0032C3176F
:103A0000C3EB620303EB4303A0EB83007330DFF8E7
:103A1000309399F80040844200F00282B04B1B883A
:103A2000002B46D1AF4BB04A1B681088994240F337
:103A300049850B46401A00F04185591AC1EB813186
:103A400000EBD07301EB630303FB00F2002A93FB4E
:103A5000F0F0C1F2FA82FCF771FFC0F3C6100FF06C
:103A60000FF9A24B804618880FF00AF9A049824648
:103A700040460FF059F9014650460FF055F94146BE
:103A80000FF04AF84FF07E5180460FF0EBFA002815
:103A900040F0BF86974940460FF002FB002840F0F7
:103AA000418540460FF02CFBC0B2DFF8988288F8C1
:103AB00000007F2C40F38B8388487F3C80FB0430E0
:103AC000E317C3EB600000EB4000A4EB8000733011
:103AD000894B00931B78C0B289F80000002B40F09E
:103AE000ED82864B03931B78002B40F0DB84844BE4
:103AF00002931B78002B40F03487824B0193029B8A
:103B00001B78FBB1804B1B88012B00F04D85022BED
:103B100001F01580032B01F09881042B01F05483F0
:103B2000052B01F0D083062B01F09F85072B01F0B8
:103B30005387082B02F05780092B02F05F810A2B74
:103B400002F06383009B1B78002B00F04884019BEC
:103B50006C4C1988002900F09E8438687F2840F357
:103B6000AA825E4B7F3883FB0032C317C3EB62032C
:103B700003EB4303A0EB830073303860002940F06F
:103B80004D84009B1B78002B00F056815F4C2378FE
:103B9000002B00F05181DFF8B0A1DFF8A8814FF0D1
:103BA000000B0CE003F17300C0B298F8001006F0AF
:103BB00089FB23780BF1010B5B4540F33D813B68AA
:103BC0005AF8040F454A1844A0F17F0382FB0321F1
:103BD000DA17C2EB610202EB42027F28A3EB8203F9
:103BE000E0DCFCF76FFDDFE7454C49484249434ABA
:103BF000237003700B70FFF790BB93424FF0000BE4
:103C000080F2B4800123CDF800B0CDF814B0049355
:103C1000FFF7D1BA3F4B1B78002B7FF424AB039BFB
:103C20003D4A243B83F34703D9B25B20136006F07F
:103C300019FB99F80040032C30D1DFF8108198F877
:103C40000030002B42F06481344F3B78002B42F06F
:103C50005281304C2378002B42F04081304B1B784E
:103C6000002B42F02E812F4A13802F4B1B78002B04
:103C700042F05A811A4B7F221A8098F800306BB9B3
:103C80003B785BB923784BB9284A7F210720138002
:103C900006F0E8FA7F210B2006F0E4FA244B1F68B7
:103CA000FFF7E1BA6B21D8E522490D78002D40F0ED
:103CB000798321490968D1F17F0148BF033103EBC2
:103CC000A1014B1C1D4903609A42B8BF0A60FFF670
:103CD000A1AD1A469EE500BFA4A4FF1FABAAAA2A65
:103CE000F6A1FF1FB0A1FF1FC4A1FF1FB8A1FF1FB6
:103CF000CDCCCC3D0000FE425CA4FF1FADA1FF1F58
:103D00009EA2FF1F12A2FF1FBAA3FF1FD08DFF1F8D
:103D100000A4FF1FB9A4FF1F78A4FF1FB8A4FF1FB2
:103D2000B3A3FF1F8EA2FF1FBAA4FF1FF4A3FF1FA0
:103D3000C0A1FF1F64A4FF1F60A4FF1F88A2FF1F74
:103D4000F6A3FF1F3AA4FF1FA88DFF1FB6A4FF1FF5
:103D5000B34B09881A6000297FF462AC1346834292
:103D6000A8BF034615E5FCF7ADFC50E60123CDF8EE
:103D700010B0CDF800B00593FFF71DBA01232B60FA
:103D8000FFF75BB9029B1B78FBB1A64B1B88012B8D
:103D900000F0B884022B00F05186032B00F0DC8782
:103DA000042B01F0ED81052B01F00483062B01F0BB
:103DB0005484072B01F05D85082B01F0C786092B81
:103DC00001F0E5870A2B02F0E581019B1B88002B9F
:103DD00000F02D83009B1B783BB9039B1B7823B914
:103DE000029B1B78002B01F0A7808F4B1B78002BC8
:103DF00000F000818D490B78082B00F2FB808C4885
:103E00003A6800688B4C0133DBB25F1E101A44F82D
:103E100027000B70884BD6F80080198889F800209D
:103E20008845864E7FF70AA93268854B0892089A22
:103E3000844C1A60FFF703B9039B1B78002BA1D0B9
:103E40003B68A3F10C007F2840F335837E488B3B11
:103E500080FB0320DA17C2EB600000EB4000A3EB0D
:103E6000800303F17300DFF8FC81C0B298F8001002
:103E700006F028FA009B1B78002B83D06B4C23782C
:103E8000002B3FF47FAFDFF8E0A14FF0000B0CE018
:103E900003F17300C0B298F8001006F013FA23780B
:103EA0000BF1010B5B457FF76DAF3B685AF8040FD0
:103EB000654A1844A0F18B0382FB0321DA17C2EB99
:103EC00061020C3802EB42027F28A3EB8203DFDCA5
:103ED000FCF7F8FBDEE7544B1B78002B40F0BB826D
:103EE0003B685A4A1278002A45D0A3F10C007F287B
:103EF00040F30783544A8B3B82FB0321DA17C2EB62
:103F0000610202EB4202A3EB820303F17300C0B231
:103F100098F8001006F0D6F9009B1B7853B3434C79
:103F200023783BB3DFF84091DFF81CA14FF0000B82
:103F30000BE003F17300C0B298F8001006F0C2F96C
:103F400023780BF1010B5B4514DD3B6859F8040F36
:103F50001844A0F18B038AFB0321DA17C2EB61023C
:103F60000C3802EB42027F28A3EB8203E1DCFCF772
:103F7000A9FBE0E73B68364A1278FAB1294A128871
:103F8000012A00F04984022A00F05786032A00F033
:103F9000E187042A01F04381052A01F07482062A90
:103FA00001F08083072A01F0BF83082A01F06286AE
:103FB000092A01F044870A2A02F0B580019A128882
:103FC000002A00F04182234A1E4C137003232B6009
:103FD000FFF735B8DFF8888098F80030002B40F004
:103FE000FE801D4F3B78002B40F0D084154C3B7079
:103FF000FFF725B83A680DE7DBB21846137006F0F4
:10400000EFF9164B08491A46104B184600230B705F
:104010003B7013700370FFF79FB80123FFF7DEB802
:10402000B0A1FF1FBAA3FF1F00A4FF1FD08DFF1F69
:10403000DCA1FF1FAC8DFF1F9CA2FF1F88A5FF1FE7
:1040400048A5FF1FCCA3FF1FABAAAA2AADA1FF1F43
:104050009EA2FF1FF6A3FF1FCEA1FF1F5CA4FF1FA0
:10406000D0A1FF1F3AA4FF1FA88DFF1F8024B749CE
:10407000B74BB84A09881B8812680B44B2EB630F30
:10408000BFF6F1A8B44B1B78002B40F0F581B8F8CF
:104090000030B24AA3423FF4E6A8B14B148001229B
:1040A0001A70FFF7E0B8FCF77DFBFFF787BAFCF763
:1040B0001BFBFFF77EBAFCF705FB5EE5A94B0193FE
:1040C0001B8863BBA84B0393A84B0293A84C23788F
:1040D0007BB3DFF8C082DFF89CA24FF0000B09E051
:1040E00003F17300C0B206F011F923780BF1010B54
:1040F0005B451EDD58F8043F99F800001844A0F114
:104100007F038AFB0321DA17C2EB610202EB420252
:104110007F28A3EB8203E3DCFCF7D4FAE2E7924BBF
:104120000393924B029306F0F1F8009B1B78002B4F
:10413000CCD1039B1B78002B3FF4E1AC99F8003005
:10414000A3F10C007F2840F3CD818A488B3B80FB94
:104150000320DA17C2EB600000EB4000A3EB800302
:1041600003F17300C0B206F0D1F8009B1B78002B5E
:1041700000F0AD817E4C2378002B01F08C82DFF8BB
:104180001482DFF8F0A14FF0000B0AE003F1730096
:10419000C0B206F0BBF823780BF1010B5B457FF74B
:1041A000AEAC58F8043F99F800001844A0F18B0316
:1041B0008AFB0321DA17C2EB61020C3802EB4202E0
:1041C0007F28A3EB8203E1DCFCF77CFAE0E72046E2
:1041D000FCF778FA7CE4FCF775FAFFF738BA664A20
:1041E0001278002A40F0B481644F654C3B70FEF7B2
:1041F00026BF002008706349087840B162490091E9
:104200000978002900F09481009F002139705F49EE
:10421000097800297FF463A8002C40F0D0800028A2
:1042200040F0CD804C4C584F94F800E04E4C039435
:104230004E4C02944C4C564920704C4C00970870E0
:1042400038702070BEF1000F7FF45BA8FFF765B8EF
:10425000454B1B78002B42D099F80030A3F10C009D
:104260007F2840F3A183434A8B3B82FB0321DA176B
:10427000C2EB610202EB4202A3EB820303F1730083
:10428000C0B206F043F8009B1B7843B3384C237848
:104290002BB3404FDFF8DC804FF0000A09E003F158
:1042A0007300C0B206F032F823780AF1010A5345D0
:1042B00015DD57F8043F99F800001844A0F18B036E
:1042C00088FB0321DA17C2EB61020C3802EB4202D1
:1042D0007F28A3EB8203E2DCFCF7F4F9E1E7234B50
:1042E0001B78FBB12C4B1B88012B00F0BF86022BE7
:1042F00000F0BC87032B01F03781042B01F0C28151
:10430000052B01F00884062B01F02E85072B01F008
:104310001886082B01F0D286092B01F0D9870A2BC9
:1043200001F0B687019B1B88002B00F00183184B1E
:104330001B78002B40F0F782184B194A1988D6F8E1
:1043400000800020012310602B6069E5B4A3FF1FEB
:10435000B0A3FF1F0CA2FF1FD0A1FF1F90A4FF1F3F
:10436000D8A1FF1F12A2FF1FADA1FF1F9EA2FF1F1A
:10437000D08DFF1FABAAAA2A49A4FF1FCEA1FF1F01
:10438000CCA3FF1FBAA4FF1F5CA4FF1FB6A4FF1F8E
:1043900000A4FF1FA88DFF1FBAA3FF1F9CA2FF1F31
:1043A000B0A1FF1F0135EDB2022D86BF00220A70B9
:1043B0000D701A46FFF72EBA039800210170BB4911
:1043C000097800293EF4A9AFB9490291097800297A
:1043D00000F07287029800210170FEF79EBF039BD8
:1043E0001B78002B7FF4B3AB029B1B78002B7FF470
:1043F000AEAB019B1988FFF7B0BB243B002BB8F88C
:10440000000040F3998498423EF405AF9BB2A9485E
:10441000A8F8003001230370FEF7FDBEDFF8988294
:10442000C0B298F8001005F04DFFFFF7AABBA24BF1
:104430003878197805F046FFCCE4C0B298F800103F
:1044400005F040FFFFF70AB9D8B298F8001005F060
:1044500039FF3B68B7E57F21402005F003FF97490E
:10446000974A3B680B60002111703AE5954BDFF8E5
:1044700084E21978FEF7CFBE4B2C40F361821834EA
:10448000802CB8F80030904AA8BF8024A3427FF463
:1044900004AEFEF7E8BE99F8000005F037FF21886A
:1044A000FFF75BBB894B01931B88002B41F05D87B5
:1044B0007F4B029342E6FCF705F9D4E441F6FF7026
:1044C000FFF7C9BA8342A8BF0346FFF7B3BA029BFE
:1044D0001B78002B7FF416AB039B1B78002B7FF41B
:1044E00036AB86E7FCF7EEF83CE641F6FF70FFF7E7
:1044F00061B97749013B51F82330A3F2FF71FFF70F
:10450000ACB9FCF7DFF802E5FCF7DCF8FFF704BA1A
:104510004A1CD2B2022A40F24A8200222A701A466B
:10452000FFF778B97F20FFF7C0BA7F20FFF76CB99B
:104530005F4F684902974FF0000C81F800C0009F60
:1045400002994FF0010E87F800E081F800C05EE6A6
:10455000614F387802F014FF604B1B78002B00F09D
:1045600034823B887E2B00F230825D4CDFF88891EC
:104570002268D9F80010521A0F2A40F21D82594AB7
:104580000133108899B23980002800F03782C9B20F
:10459000C0B205F067FE544F226898F80030C9F8A1
:1045A00000203B70FEF74BBDDFF850A199F80000EA
:1045B000BAF800304D4A4E4CC31A82FB031ED9177D
:1045C000C1EB6E0101EB4101A3EB810303EB43035C
:1045D00054F8233018447F2840F3B8847F3882FB96
:1045E0000032C317C3EB620303EB4303A0EB83006A
:1045F0007330DFF80CB1C0B205F088FEBBF80030B4
:10460000022B7FF69FAA99F80010BAF80030374ABB
:10461000CB1A82FB030ED817C0EB6E0000EB4000F4
:10462000A3EB800303EB430304EB830358680844C4
:104630007F2840F324877F3882FB0032C317C3EB07
:10464000620202EB4202A0EB82007330C0B205F0BE
:104650005DFEBBF80030032B7FF674AA99F80010BA
:10466000BAF80030214ACB1A82FB030ED817C0EBF0
:104670006E0000EB4000A3EB800303EB430304EB6D
:104680008304A06808447F2840F37D817F3882FB43
:104690000032C317C3EB620202EB4202A0EB8200BE
:1046A0007330C0B205F032FEFFF74CBAD0A1FF1F45
:1046B0009EA2FF1FD8A1FF1F3AA4FF1FDCA1FF1F6E
:1046C000D08DFF1F8FA4FF1F90A4FF1F12A2FF1FFA
:1046D000FC41010000A4FF1F08A2FF1FBBA4FF1F95
:1046E000CCA3FF1F60A2FF1FCEA1FF1FABAAAA2A67
:1046F000BC47010031A2FF1F9CA4FF1FFCA3FF1FAA
:1047000074A4FF1FDFF824A33868BAF80030BD4A4C
:10471000BD4CC31A82FB031ED917C1EB6E0101EB1E
:104720004101A3EB810303EB430354F82330184406
:104730007F2840F386847F3882FB0032C317C3EBA7
:10474000620303EB4303A0EB83007330DFF8E082E6
:10475000DFF8E0B298F80010C0B205F0B3FDBBF886
:104760000030022B7FF631AB3968BAF80030A54A29
:10477000CB1A82FB030ED817C0EB6E0000EB400093
:10478000A3EB800303EB430304EB83035868084463
:104790007F2840F3DB867F3882FB0032C317C3EBF0
:1047A000620202EB4202A0EB82007330C0B298F8C2
:1047B000001005F087FDBBF80030032B7FF605AB3A
:1047C0003968BAF800308F4ACB1A82FB030ED8172B
:1047D000C0EB6E0000EB4000A3EB800303EB430350
:1047E00004EB8304A06808447F2840F3EB807F3803
:1047F00082FB0032C317C3EB620202EB4202A0EB62
:104800008200733098F80010C0B205F05BFDFFF72E
:10481000DCBA0120FFF749B9DFF810A27949BAF8EC
:104820000020794C9A1A81FB020ED017C0EB6E0063
:1048300000EB4000A2EB800202EB420254F822009F
:1048400018447F2840F30484A0F17F0381FB0321F7
:10485000DA17C2EB610000EB4000A3EB800073307D
:10486000DFF8D0B198F80010C0B205F02BFDBBF80E
:104870000030022B50D93968BAF80030614ACB1A9F
:1048800082FB030ED817C0EB6E0000EB4000A3EBD9
:10489000800303EB430304EB8303586808447F2839
:1048A00040F35E867F3882FB0032C317C3EB62029F
:1048B00002EB4202A0EB82007330C0B298F8001005
:1048C00005F000FDBBF80030032B25D93868BAF895
:1048D00000304C4AC31A82FB031ED917C1EB6E018C
:1048E00001EB4101A3EB810303EB430304EB8304DE
:1048F000A36818447F2854DD7F3882FB0032C31739
:10490000C3EB620202EB4202A0EB82007330C0B242
:1049100098F8001005F0D6FC3B68FFF74FBB05F098
:10492000F5FCFFF702B80021402005F09BFC03E5F1
:1049300099F8000005F0EAFCF9E40120FEF764BFF5
:10494000243C002CB8F8003040F30486A3423EF427
:104950008AACA4B22D4BA8F8004001221A70FEF7D1
:1049600082BC2B4B01931B88002B3FF4C8A8FFF798
:10497000DABB284A8342A8BF03461360FEF750BE45
:104980001446FFF77FBBFBF79DFE8AE6224B234CC4
:1049900019886A2005F0E2FD98F800303B70FEF7B8
:1049A0004EBBFBF78FFEB2E7FBF78CFE68E42A7084
:1049B0001A46FEF72FBF194C194F98F800303B707C
:1049C000FEF73DBBFBF77EFE1CE7164B1B78002B6A
:1049D000F1D03B88104F002BEDD0104CDFF85890F1
:1049E0002268D9F80010521A0F2AE5D90E4A013B65
:1049F000108899B2398000287FF4C9ADC8B205F09B
:104A0000D1FCC8E5ABAAAA2ABC470100D8A1FF1F68
:104A100012A2FF1FB0A1FF1F08A2FF1FCCA3FF1F00
:104A2000CEA1FF1FBAA4FF1F60A2FF1FFCA3FF1FA0
:104A30003AA4FF1F74A4FF1F9CA4FF1FDFF80CA360
:104A40003868BAF80030BF4ABF4CC31A82FB031E55
:104A5000D917C1EB6E0101EB4101A3EB810303EB1D
:104A6000430354F8233018447F2840F3D2837F381F
:104A700082FB0032C317C3EB620303EB4303A0EBDB
:104A800083007330DFF8C882DFF8C8B298F80010EE
:104A9000C0B205F017FCBBF80030022B7FF695A9D9
:104AA0003968BAF80030A74ACB1A82FB030ED81730
:104AB000C0EB6E0000EB4000A3EB800303EB43036D
:104AC00004EB8303586808447F2840F3F2857F385D
:104AD00082FB0032C317C3EB620303EB4303A0EB7B
:104AE00083007330C0B298F8001005F0EBFBBBF800
:104AF0000030032B7FF669A93868BAF80030914A74
:104B0000C31A82FB031ED917C1EB6E0101EB4101F1
:104B1000A3EB810303EB430304EB8304A368184472
:104B20007F287FF74FAF7F3882FB0032C317C3EB7C
:104B3000620303EB4303A0EB8300733062E6DFF80C
:104B40000CA299F80000BAF800307E4A7E4CC31AD5
:104B500082FB031ED917C1EB6E0101EB4101A3EBF0
:104B6000810303EB430354F8233018447F2840F3B8
:104B700053837F3882FB0032C317C3EB620303EB1E
:104B80004303A0EB83007330DFF8C8B1C0B205F077
:104B9000BDFBBBF80030022B7EF6D4AF99F80010B5
:104BA000BAF80030674ACB1A82FB030ED817C0EB65
:104BB0006E0000EB4000A3EB800303EB430304EB28
:104BC0008303586808447F2840F377857F3882FB49
:104BD0000032C317C3EB620303EB4303A0EB830074
:104BE0007330C0B205F092FBBBF80030032B7EF6A9
:104BF000A9AF99F80010BAF80030524ACB1A82FBDC
:104C0000030ED817C0EB6E0000EB4000A3EB80034F
:104C100003EB430304EB8304A06808447F287FF779
:104C2000B2AE7F3882FB0032C317C3EB620303EBE3
:104C30004303A0EB8300733033E5DFF810A1414953
:104C4000BAF80020404C9A1A81FB020ED017C0EB34
:104C50006E0000EB4000A2EB800202EB420254F82F
:104C6000220018447F2840F3FE82A0F17F0381FBDD
:104C70000321DA17C2EB610000EB4000A3EB8000D8
:104C80007330DFF8D0B098F80010C0B205F01AFB0E
:104C9000BBF80030022B7FF63FAE3968BAF800301F
:104CA000284ACB1A82FB030ED817C0EB6E0000EB2C
:104CB0004000A3EB800303EB430304EB830358683A
:104CC00008447F2840F3DA847F3882FB0032C31720
:104CD000C3EB620303EB4303A0EB83007330C0B26A
:104CE00098F8001005F0EEFABBF80030032B7FF6C1
:104CF00013AE3868BAF80030124AC31A82FB031E9A
:104D0000D917C1EB6E0101EB4101A3EB810303EB6A
:104D1000430304EB8304A36818447F287FF741AE64
:104D20007F3882FB0032C317C3EB620303EB4303FC
:104D3000A0EB83007330EAE501283EF46CAA01235E
:104D4000FFF765BBABAAAA2A584B0100FCA3FF1FC3
:104D50003AA4FF1F74A4FF1FDFF804A33868BAF851
:104D60000030BD4ABD4CC31A82FB031ED917C1EBEC
:104D70006E0101EB4101A3EB810303EB430354F804
:104D8000233018447F2840F3EF817F3882FB0032C4
:104D9000C317C3EB620202EB4202A0EB8200733046
:104DA000DFF8C082DFF8C0B298F80010C0B205F09A
:104DB00089FABBF80030022B7FF607A83868BAF8EA
:104DC0000030A54AC31A82FB0321DA17C2EB610245
:104DD00002EB4202A3EB820303EB430304EB8303E6
:104DE0005B6818447F2840F322847F380C2290FBB4
:104DF000F2F302FB13007330C0B298F8001005F014
:104E000061FABBF80030032B7EF6DFAF3868BAF8E2
:104E10000030914AC31A82FB0321DA17C2EB610208
:104E200002EB4202A3EB820303EB430304EB830494
:104E3000A36818447F287FF7C5AD7F380C2290FB0C
:104E4000F2F302FB13007330DCE4DFF814A299F8EC
:104E50000000BAF80030804A804CC31A82FB031E5F
:104E6000D917C1EB6E0101EB4101A3EB810303EB09
:104E7000430354F8233018447F2840F372817F386D
:104E800082FB0032C317C3EB620202EB4202A0EBCB
:104E900082007330DFF8D0B1C0B205F037FABBF84A
:104EA0000030022B7EF64EAE99F80000BAF80030C2
:104EB000694AC31A82FB0321DA17C2EB610202EBD3
:104EC0004202A3EB820303EB430304EB83035B681F
:104ED00018447F2840F3AF837F380C2290FBF2F315
:104EE00002FB13007330C0B205F010FABBF80030BB
:104EF000032B7EF627AE99F80000BAF80030564A28
:104F0000C31A82FB0321DA17C2EB610202EB4202F1
:104F1000A3EB820303EB430304EB8304A36818446D
:104F20007F287FF730AD7F380C2290FBF2F302FB35
:104F300013007330FFF7B5BB4FF47A43013BFDD14B
:104F400099F8000005F0E2F9FEF74FBFFBF7BAFB56
:104F5000FFF74FBBDFF808A13F49BAF800203F4CEC
:104F60009A1A81FB020ED017C0EB6E0000EB4000D6
:104F7000A2EB800202EB420254F8220018447F2880
:104F800040F3F580A0F17F0381FB0321DA17C2EB28
:104F9000610101EB4101A3EB81007330DFF8C8B080
:104FA00098F80010C0B205F08DF9BBF80030022B64
:104FB0007FF6B2AC3868BAF80030274AC31A82FBD1
:104FC0000321DA17C2EB610202EB4202A3EB820378
:104FD00003EB430304EB83035B6818447F2840F32F
:104FE00036837F380C2290FBF2F302FB1300733000
:104FF000C0B298F8001005F065F9BBF80030032B3B
:105000007FF68AAC3868BAF80030134AC31A82FBBC
:105010000321DA17C2EB610202EB4202A3EB820327
:1050200003EB430304EB8304A36818447F287FF752
:10503000B8AC7F380C2290FBF2F302FB1300733004
:1050400065E4FBF73FFBFFF781BB0138FEF703BDCB
:10505000FBF738FB04E400BFABAAAA2AE84B010027
:10506000FCA3FF1F3AA4FF1F74A4FF1FDFF83CA39B
:1050700099F80000BAF80030C44AC54CC31A82FB44
:105080000317D917C1EB670101EB4101A3EB8103C2
:1050900003EB430354F8233018447F286DDD7F3839
:1050A00082FB0032C317C3EB620202EB4202A0EBA9
:1050B00082007330DFF8F8B2C0B205F027F9BBF810
:1050C0000030022B7FF62EA999F80000BAF80030C4
:1050D000AE4AC31A82FB0321DA17C2EB610202EB6C
:1050E0004202A3EB820303EB430304EB83035B68FD
:1050F00018447F2840F3AE827F380C2290FBF2F3F5
:1051000002FB13007330C0B205F000F9BBF80030A9
:10511000032B7FF607A999F80000BAF800309B4AE4
:10512000C31A82FB0321DA17C2EB610202EB4202CF
:10513000A3EB820303EB430304EB8304A36818444B
:105140007F2817DD7F380C2290FBF2F302FB13005F
:105150007330C0B205F0DAF8FFF7E4B80138FEF7B3
:1051600029BBFBF7AFFA95E6FBF7ACFA18E6FBF7BD
:10517000A9FA13E7FBF7A6FAEBE7FBF7A3FA99E71F
:10518000DFF828A23868BAF80030804A814CC31A88
:1051900082FB031ED917C1EB6E0101EB4101A3EBAA
:1051A000810303EB430354F8233018447F28DBDDED
:1051B0007F3882FB0032C317C3EB620303EB430368
:1051C000A0EB83007330EBE5DFF8E0A199F8000075
:1051D000BAF800306D4A6F4CC31A82FB031ED91710
:1051E000C1EB6E0101EB4101A3EB810303EB430330
:1051F00054F8233018447F28B3DD7F3882FB003217
:10520000C317C3EB620303EB4303A0EB83007330CC
:1052100040E6FBF757FA35E4FBF754FAB4E4DFF85D
:105220008CA15A49BAF800205A4C9A1A81FB020EF6
:10523000D017C0EB6E0000EB4000A2EB800202EB47
:10524000420254F8220018447F2890DDA0F17F0329
:1052500081FB0321DA17C2EB610000EB4000A3EBF6
:10526000800073309AE6FBF72DFA0AE5DFF83CA1DF
:1052700099F80000BAF80030444A474CC31A82FB40
:105280000317D917C1EB670101EB4101A3EB8103C0
:1052900003EB430354F8233018447F287FF76DAFA6
:1052A0007F3882FB0032C317C3EB620303EB430377
:1052B000A0EB83007330FDE6384800903848394948
:1052C0000390FEF71EB8DFF8E4A099F80000BAF8E2
:1052D00000302E4A344CC31A82FB0321DA17C2EB8A
:1052E000610202EB4202A3EB820303EB430354F897
:1052F000233018447F2840F3A4817F380C2290FB90
:10530000F2F302FB13007330DFF8A4B0C0B204F074
:10531000FDFFBBF80030022B19D999F80000BAF84C
:1053200000300C22C11A91FBF2F302FB131302FBB3
:1053300003435B6818447F2840F351847F3890FB17
:10534000F2F302FB13007330C0B204F0DFFFBBF8CE
:105350000030032B7EF6F6ABBAF8003099F8000067
:105360000C22C11A91FBF2F302FB131302FB03445C
:10537000A36818447F287FF706AB7F3890FBF2F3D1
:1053800002FB13007330FFF78CB900BFABAAAA2A47
:10539000BC47010094440100584B01005CA4FF1F6E
:1053A000ADA1FF1F00A4FF1FE8490100FCA3FF1FE0
:1053B00074A4FF1FDFF864A33868BAF80030CE4A3F
:1053C000CE4CC31A82FB0321DA17C2EB610202EB57
:1053D0004202A3EB820303EB430354F82330184447
:1053E0007F2840F331817F380C2290FBF2F302FBDF
:1053F00013007330DFF82883DFF828B398F8001023
:10540000C0B204F05FFFBBF80030022B1AD9386835
:10541000BAF800300C22C11A91FBF2F302FB13130D
:1054200002FB03435B6818447F2840F3D5837F3831
:1054300090FBF2F302FB13007330C0B298F8001037
:1054400004F040FFBBF80030032B7EF6BEACBAF888
:10545000003038680C22C11A91FBF2F302FB1313DF
:1054600002FB0344A36818447F287FF7ABAA7F3868
:1054700090FBF2F302FB13007330FFF7C3B9FBF7A5
:1054800021F9FFF7E3B8DFF894A29B49BAF80020AE
:105490009A4C9A1A81FB0210D117C1EB600101EB03
:1054A0004101A2EB810202EB420254F822001844AF
:1054B0007F2840F3C380A0F17F030C2093FBF0F220
:1054C00000FB12307330DFF85CB298F80010C0B205
:1054D00004F0F8FEBBF80030022B1AD93868BAF88D
:1054E00000300C22C11A91FBF2F302FB131302FBF2
:1054F00003435B6818447F2840F3A6837F3890FB02
:10550000F2F302FB13007330C0B298F8001004F0FD
:10551000D9FEBBF80030032B7FF6FEA9BAF80030A5
:1055200038680C22C11A91FBF2F302FB131302FB41
:105530000344A36818447F287FF733AA7F3890FB81
:10554000F2F302FB13007330FFF7E1B9FBF7BAF88F
:10555000FFF72CB9012B3DF486AE0124FFF7FAB911
:10556000FBF7B0F8FFF7A9B9DFF8B0A199F8000090
:10557000BAF80030604A624CC31A82FB0321DA1782
:10558000C2EB610202EB4202A3EB820303EB430393
:1055900054F8233018447F2846DD7F380C2290FBD6
:1055A000F2F302FB13007330DFF878B1C0B204F0FD
:1055B000ADFEBBF80030022B19D999F80000BAF8FB
:1055C00000300C22C11A91FBF2F302FB131302FB11
:1055D00003435B6818447F2840F38B807F3890FB3F
:1055E000F2F302FB13007330C0B204F08FFEBBF87D
:1055F0000030032B7EF696AEBAF8003099F8000022
:105600000C22C11A91FBF2F302FB131302FB0344B9
:10561000A36818447F287FF7ADAD7F3890FBF2F385
:1056200002FB1300733094E5FBF74CF8BCE7FBF783
:1056300049F8FFF7E1BBFBF745F854E4FBF742F804
:1056400041E7FBF73FF85FE6FBF73CF8D2E6FBF7F4
:1056500039F8CDE4FBF736F855E5DFF8C0A0386837
:10566000BAF80030244A274CABE6DFF8B0A099F82E
:105670000000BAF80030204A224C2CE6FBF722F852
:10568000FFF72DBBDFF894A099F80000BAF80030BE
:10569000194A1D4C70E7029B1B78002B7EF432AA3E
:1056A000FEF755BADFF874A01349BAF80020154C7C
:1056B000EFE6FBF707F8FFF715BAFBF703F8FFF77C
:1056C00090BA124B1B78002B00F0C182104B1B7854
:1056D000002B7DF4C8AD0F4B1B78002B3DF4C3AD00
:1056E000B8F800300C490A33A8F800300A70FDF70A
:1056F000BABDFAF7E7FF77E7ABAAAA2AE8490100A3
:10570000E84B0100DC4C010094440100B3A3FF1FEF
:10571000B8A4FF1FB9A4FF1FD8A1FF1FFCA3FF1F40
:105720003AA4FF1F74A4FF1FA44C2288002A00F093
:10573000C583A349DFF89CB20988BBF80000033198
:10574000884227DD9F48A0490088B1F800E0DFF8D3
:105750007CC2181A0C2190FBF1F901FB19004FF0E3
:10576000900909FB0EFE01FB00E06FF00B0E5CF8E8
:10577000000003440EFB02307F2840F342857F384F
:1057800090FBF1F301FB13007330C0B298F80010E6
:1057900004F098FDBBF8002023881344022B23DD7E
:1057A000884B894A38681B88B2F800C0DFF81CE2D1
:1057B000C31A0C2193FBF1F201FB1232902303FB7D
:1057C0000CF301FB023373445B6818447F2840F3F9
:1057D000A8857F3890FBF1F301FB13007330C0B252
:1057E00098F8001004F06EFDBBF8002023881344E5
:1057F000032B23DD734B744A38681B88B2F800C052
:10580000DFF8C8E1C31A0C2193FBF1F201FB12325D
:10581000902303FB0CF301FB023373449B68184491
:105820007F2840F382857F3890FBF1F301FB130062
:105830007330C0B298F8001004F044FDBBF80020AB
:1058400023881344042B7FF767A85D4B1B88012B2B
:105850007FF462A83A68A2F10C007F287FF7A1A824
:105860008B3A0C2092FBF0F300FB13207330FFF710
:105870004EB8524C2388002B40F01583DFF854B10A
:105880005049514A0988D7F80080B2F800E04F48E3
:10589000C1EB080C0C229CFBF2F102FB11C14FF092
:1058A000900C0CFB0EFE02FB01E16FF00B0E40585A
:1058B00080440EFB03807F2840F33184A0F17F03F6
:1058C00093FBF2F002FB10307330414BC0B21978F9
:1058D00004F0F8FCBBF8002023881344022B23DDDE
:1058E000384A394B11883868B3F800C0DFF8DCE07B
:1058F000411A0C2291FBF2F302FB1311902303FBDC
:105900000CF302FB013373445B6818447F2840F3B7
:10591000B8847F3890FBF2F302FB130073302C4BFA
:10592000C0B2197804F0CEFCBBF8002023881344E1
:10593000032B23DD234A244B11883868B3F800C0B9
:10594000DFF888E0411A0C2291FBF2F302FB1311FD
:10595000902303FB0CF302FB013373449B68184450
:105960007F2840F384847F3890FBF2F302FB13001E
:105970007330174BC0B2197804F0A4FCBBF80020B8
:1059800023881344042B7EF720AA0D4B1B88012B80
:105990007EF41BAA3A68A2F10C007F2840F3E18153
:1059A0008B3A0C2092FBF0F300FB13207330084B72
:1059B000C0B2197804F086FCFEF707BA74A2FF1F84
:1059C00006A2FF1FFCA3FF1FA6A3FF1F2445010083
:1059D0003AA4FF1F74A4FF1FCA4C2388002B40F079
:1059E000CB81DFF850B3C849C84A098899F800004C
:1059F000B2F800E0DFF84083C1EB000C0C229CFB06
:105A0000F2F102FB11C14FF0900C0CFB0EFE02FBF9
:105A100001E16FF00B0E58F8011008440EFB030073
:105A20007F2840F3B483A0F17F0393FBF2F002FBE5
:105A300010307330C0B204F069FCBBF8002023883A
:105A40001344022B22DDB04AB04B118899F80000B4
:105A5000B3F800C0DFF8E0E2411A0C2291FBF2F348
:105A600002FB1311902303FB0CF302FB013373447D
:105A70005B6818447F2840F3FE837F3890FBF2F385
:105A800002FB13007330C0B204F040FCBBF80020EE
:105A900023881344032B22DD9B4A9C4B118899F8E1
:105AA0000000B3F800C0DFF890E2411A0C2291FB2D
:105AB000F2F302FB1311902303FB0CF302FB0133FF
:105AC00073449B6818447F2840F333847F3890FBED
:105AD000F2F302FB13007330C0B204F017FCBBF802
