:1000000000800020BD01000011DD0000C9DC0000FF
:10001000C9DC0000C9DC0000C9DC0000C9DC00004C
:10002000C9DC0000C9DC0000C9DC000011DD0000F3
:1000300011DD0000C9DC0000810701008507010017
:1000400011DD000011DD000011DD000011DD0000F8
:1000500011DD000011DD000011DD000011DD0000E8
:1000600011DD000011DD000011DD000011DD0000D8
:1000700011DD000011DD000011DD000011DD0000C8
:1000800011DD000011DD000011DD000011DD0000B8
:1000900011DD000011DD000011DD000011DD0000A8
:1000A000DDB20000E9B2000011DD000011DD00004A
:1000B00011DD000011DD000011DD000011DD000088
:1000C00011DD000011DD000011DD000011DD000078
:1000D00011DD000011DD000011DD000011DD000068
:1000E00011DD000011DD000011DD000011DD000058
:1000F00011DD000011DD000011DD000079EC0000D1
:1001000011DD00008DF3000011DD000011DD0000A5
:1001100011DD000011DD000011DD000011DD000027
:1001200011DD000011DD000011DD000011DD000017
:1001300011DD000011DD000011DD000011DD000007
:1001400011DD000011DD000011DD000011DD0000F7
:10015000510B0100650B0100790B01008D0B0100B3
:1001600011DD00000DF7000011DD000011DD0000C1
:1001700011DD000011DD000011DD000011DD0000C7
:1001800011DD000011DD000011DD000011DD0000B7
:1001900011DD000011DD000011DD000011DD0000A7
:1001A00011DD000011DD000011DD000011DD000097
:1001B00011DD000011DD000011DD0000564B4CF296
:1001C000205210B51A804DF628121A8000BF00BFC9
:1001D0000DF0A2FD514B4FF010621A60504A9A6028
:1001E000504ADA60504A136813F4807304D14F49BF
:1001F0000B604FF4A85313604D4B1A78110703D5C9
:100200001A7842F008021A704A4B4B492A221A7097
:100210004A4A4B4B8B4204D252F8040F43F8040B6A
:10022000F8E7484B484900228B4202D243F8042B9E
:10023000FAE74649464A002352F8230041F82300D2
:1002400001336F2BF8D1434B434A802103F8011B44
:100250009342FBD1414B3D4A1A60414B8A221A70AE
:10026000A3F5805324225A70A0221A709A7992071B
:10027000FCD59A79D406FCD43A4A937903F00C035E
:10028000082B384BF9D103221A7140225A719A79FE
:100290009006FCD5334A9179324B4906FBD5324A58
:1002A000324911600221516020221A709A7902F0BD
:1002B0000C020C2AFAD12E4B2E4A1A602E4B2F4AD2
:1002C0001A6000225A60072243F8042C2C4AC3F813
:1002D0000C2D62B60EF0AAF8144B1B68DA0705D590
:1002E00028480DF077FE284B284A1A60284B1B78C7
:1002F0005B0609D5244C254B22689A4204D121483B
:100300000DF068FE0023236011F0C6FF0DF00AFD1A
:1003100010F0B8FCFEE700BF0E200540308004401E
:10032000823F04000100002B10D0034014D0034092
:1003300002D0074000E0074074A1FF1F00610100E8
:10034000308CFF1F74A1FF1FA4A9FF1F0082FF1F95
:100350000000000000E400E05FE400E008ED00E0E1
:100360000050064000400640448004400000030165
:1003700004800440C010050014E000E0FF76010096
:1003800000002020E5850B641CE00340A5C3945ABF
:1003900000F00740FFFFFFFFFFFFFFFFFFFFFFFF32
:1003A000FFFFFFFFFFFFFFFFFFFFFFFFFFFFFFFF5D
:1003B000FFFFFFFFFFFFFFFFFFFFFFFFFFFFFFFF4D
:1003C000FFFFFFFFFFFFFFFFFFFFFFFFFFFFFFFF3D
:1003D000FFFFFFFFFFFFFFFFFFFFFFFFFFFFFFFF2D
:1003E000FFFFFFFFFFFFFFFFFFFFFFFFFFFFFFFF1D
:1003F000FFFFFFFFFFFFFFFFFFFFFFFFFFFFFFFF0D
:10040000FFFFFFFFFFFFFFFFFFFFFFFFDEF9FFFF23
:1004100010B5054C237833B9044B13B10448AFF33E
:1004200000800123237010BD74A1FF1F0000000095
:10043000FC600100084B10B51BB108490848AFF338
:1004400000800848036803B910BD074B002BFBD0A0
:10045000BDE81040184700BF0000000078A1FF1F52
:10046000FC60010074A1FF1F0000000038B50446C5
:10047000104621700A491D4611F0F6FC01464FF066
:100480007E5011F0A5FD074911F0EEFCE5606060BB
:10049000256165610DF05AFFE061204638BD00BF5F
:1004A000DB0FC9400024744938B50446104621705A
:1004B00009491D4611F0D8FC01464FF07E5011F05D
:1004C00087FD064911F0D0FCE5606060256165613B
:1004D0000DF03CFFE06138BDDB0FC94000247449DA
:1004E00038B503780446032B20D8DFE803F01A1848
:1004F0001002C168406911F0ADFB0D490546606806
:1005000011F066FD0146284611F062FD38BD08492C
:10051000406811F05DFDE16811F0A6FC38BDC068CF
:1005200038BDC168406911F095FB38BD002038BD69
:100530000024744970B504460E460DF007FF0546C9
:10054000E069281A11F03CFCE3682361E56166610B
:10055000A0610146606811F03BFD0146A0601048B3
:1005600011F036FD11F00CF810F0A6FC11F01EFB96
:10057000054601464FF07E5011F06CFB616911F0A9
:1005800073FC21690646284611F06EFC0146304690
:1005900011F062FBE0602046BDE87040FFF7A0BFAD
:1005A000000080BF38B50E202C4C0DF069FA23886E
:1005B0002B4A98420546118838DA1A46C91A32D0B1
:1005C000D31AC3EB033301EBD17203EB620303FBDA
:1005D00001F2002A93FBF1F13BDB14200DF00CFD3E
:1005E000204B1B88A3BB2288954224DB40F6FF7377
:1005F000C2F57F619D4201F10F012846A8BF184650
:10060000F9B1831AC3EB033301EBD17203EB62033D
:1006100003FB01F2002A93FBF1F11CDB2820BDE86B
:1006200038400DF0E9BC40F2FF71D6E7884202463F
:10063000A8BF0A46C2E7C2F57F610F311046002904
:10064000DFD140F2FF712820BDE838400DF0D4BC66
:1006500038BD0139C1E70139E0E700BFD8A2FF1F6B
:10066000ACA1FF1F18A4FF1F70B50C46054634F857
:10067000023B182B0BD00344A3F118007F283EDC6B
:10068000002858DB334BC0B2197808F0C3FE324E55
:100690003278013202F00302D3B2337034F8120020
:1006A000182810D10422032B03F10101CBB20ABF99
:1006B000002359001946605A182803D1013AF2D193
:1006C000337070BD33702844A0F118037F2B08DC11
:1006D000002B22DB1F4AD8B21178BDE8704008F029
:1006E00099BE1E4B973883FB0032C317C3EB6203DE
:1006F00003EB4303A0EB830000F17303EAE7174A1F
:10070000973B82FB0321DA17C2EB610202EB420244
:10071000A3EB820303F17300B4E710485A4280FB55
:100720000230D317C3EB600000EB4000A2EB800067
:10073000C0F10C03CEE7094B424283FB0230D317D2
:10074000C3EB600303EB4303A2EB8303C3F10C0091
:1007500098E700BFA4A2FF1FC88DFF1FABAAAA2A5B
:10076000F8B5814B814D1B88C31A044685FB0306EF
:10077000D817C0EB660000EB4000A3EB800303EB4F
:1007800043039B00CE18C8582044002A3DD07F2840
:1007900040F38180A0F17F0385FB0320DA17C2EBD1
:1007A000600000EB4000A3EB80007330704F714D90
:1007B0003978C0B208F02EFE2B88022B7AD97068E7
:1007C00020447F2877DC0028C0F2BF80C0B239788F
:1007D00008F020FE2B88032B6CD9B06820447F28BA
:1007E00040F38580614CA0F17F0384FB0320DA177E
:1007F000C2EB600000EB4000A3EB8000733039785F
:10080000C0B2BDE8F84008F005BE7F2834DDA0F195
:100810007F0385FB0320DA17C2EB600000EB40008A
:10082000A3EB80007330534DC0B208F017FE2B8845
:10083000022B3FD9706820447F284ADC002876DBF1
:10084000C0B208F00BFE2B88032B33D9B0682044CC
:100850007F285CDD454CA0F17F0384FB0320DA1781
:10086000C2EB600000EB4000A3EB80007330C0B22D
:10087000BDE8F84008F0F2BD0028D4DA4342D817AA
:1008800085FB0325C0EB650505EB4505A3EB850559
:10089000C5F10C00C7E7002888DA434285FB032036
:1008A000DA17C2EB600000EB4000A3EB8000C0F160
:1008B0000C007BE7F8BD2D4AA0F17F0382FB0320EB
:1008C000DA17C2EB600000EB4000A3EB800073304E
:1008D0007CE7264AA0F17F0382FB0320DA17C2EBF4
:1008E000600000EB4000A3EB80007330A8E7002815
:1008F00085DA1E4A434282FB0320DA17C2EB60000E
:1009000000EB4000A3EB8000C0F10C0077E700286B
:10091000ADDA164A434282FB0320DA17C2EB6000CD
:1009200000EB4000A3EB8000C0F10C009FE70F4AF2
:10093000434282FB0320DA17C2EB600000EB400069
:10094000A3EB8000C0F10C007AE7084A434282FB27
:100950000320DA17C2EB600000EB4000A3EB80003D
:10096000C0F10C0032E700BF04A4FF1FABAAAA2A03
:10097000A4A2FF1FF8A1FF1F2DE9F8439F4B1B887E
:10098000013B092B00F2EF80DFE803F00A10161C90
:1009900022282EBCC1059A49BDE8F843FFF764BE82
:1009A00001229849BDE8F843FFF7DABE01229649D3
:1009B000BDE8F843FFF7D4BE01229449BDE8F843EF
:1009C000FFF7CEBE01229249BDE8F843FFF7C8BE4B
:1009D00001229049BDE8F843FFF7C2BE01228E49CB
:1009E000BDE8F843FFF7BCBE8C4B8D4A1B8804461C
:1009F00010881D18002800F08F808A4A1288033260
:100A0000934200F38980022D40F3AD80DFF82C92F1
:100A10008549B9F80020DFF82882844FA21A81FBAB
:100A20000230D317C3EB6000B8F8003000EB400091
:100A3000A2EB800203EBC30302EB42021B0103EBB8
:100A400082033B44586820447F2840F3AA80A0F1E9
:100A50007F0381FB0320DA17C2EB600000EB40004C
:100A6000A3EB80007330724EC0B2317808F0D2FC34
:100A7000032D78D0B9F800206B48B8F80030A21ADE
:100A800080FB021ED117C1EB6E0101EB410103EBAC
:100A9000C303A2EB81011A0101EB410302EB8303C3
:100AA0003B449B6823447F2B6CDDA3F17F0280FBDA
:100AB0000230D317C3EB600303EB4303A2EB8303C2
:100AC0007333D8B2317808F0A5FC042D4BD0554BC8
:100AD0001B88012B47D1A4F10C007F2871DD524BFC
:100AE000A4F18B0083FB0032C317C3EB620303EB5B
:100AF0004303A0EB830073303178C0B2BDE8F84304
:100B000008F088BC4B49BDE8F843FFF7ADBD4A4942
:100B1000BDE8F843FFF7A8BD484B43491B88484F41
:100B2000E31A81FB0326DA17C2EB66063A883F4FC9
:100B300006EB4606A3EB860302EBC20203EB43037C
:100B4000120102EB8303A0EB8000FB58234403EB6C
:100B500080007F2809DC002843DB354BC0B21978C0
:100B600008F058FC4FE7BDE8F883A0F17F0381FB54
:100B70000320DA17C2EB600000EB4000A3EB80001B
:100B80007330EAE7002B9CDA5A4280FB0230D3171D
:100B9000C3EB600000EB4000A2EB8000C0F10C034F
:100BA0008FE70028BFF65FAF4342D81781FB0321D0
:100BB000C0EB610101EB4101A3EB8101C1F10C002C
:100BC00051E7002898DA184A434282FB0320DA17DB
:100BD000C2EB600000EB4000A3EB8000C0F10C0012
:100BE0008AE74342D81781FB0321C0EB610101EB87
:100BF0004101A3EB8101C1F10C00AEE7E2A3FF1FAD
:100C0000DCA1FF1F44380100983C0100283D010091
:100C1000083C0100743A01001C3E0100F8A1FF1FCE
:100C2000ACA2FF1F20A2FF1FABAAAA2A40350100D9
:100C3000A4A2FF1FC4A1FF1FD0A1FF1F04A4FF1F78
:100C4000CEA3FF1F0A88182A38B50C46054609D0DE
:100C50000244A2F118007F2829DC002848DBC0B23A
:100C600008F0FCFB294B197804EB41046388182B2E
:100C70002BD02B44A3F118007F2806DC002825DBAD
:100C8000C0B2BDE8384008F0E9BB2148973B80FB83
:100C90000320DA17C2EB600000EB4000A3EB8003F7
:100CA00003F17300C0B2BDE8384008F0D7BB184864
:100CB000973A80FB0230D317C3EB600000EB400093
:100CC000A2EB800202F17300C9E738BD104B42422B
:100CD00083FB0230D317C3EB600303EB4303A2EBA8
:100CE0008303C3F10C00C0B2BDE8384008F0B6BBC6
:100CF000074A414282FB0132CB17C3EB620202EB8F
:100D00004202A1EB8202C2F10C00A8E7C88DFF1FCE
:100D1000ABAAAA2A2DE9F843A54B1B88013B092B56
:100D200000F20381DFE813F00F0015001B00210023
:100D300027002D003300F700FC000A009D49BDE8A4
:100D4000F843FFF77FBF00229B49BDE8F843FFF758
:100D500007BD00229949BDE8F843FFF701BD002215
:100D60009749BDE8F843FFF7FBBC00229549BDE871
:100D7000F843FFF7F5BC00229349BDE8F843FFF7BD
:100D8000EFBC00229149BDE8F843FFF7E9BC904E63
:100D900004463088002800F0CA808E4B8E4D1A8899
:100DA0002B880332934234DD8C4B8D491B88DFF84E
:100DB00040E2E31A81FB0327DA17C2EB6707BEF8AC
:100DC0000020DFF820E207EB4707A3EB870302EBE5
:100DD000C20203EB4303120102EB8303A0EB80008A
:100DE0005EF80330234403EB80007F2840F3A180AA
:100DF000A0F17F0381FB0320DA17C2EB600000EB58
:100E00004000A3EB80007330C0B208F027FB2B88B2
:100E100030881844022840F38880DFF8C091704978
:100E2000B9F80020DFF8C8816E4FA21A81FB0230AA
:100E3000D317C3EB6000B8F8003000EB4000A2EB22
:100E4000800203EBC30302EB42021B0103EB8203AC
:100E50003B44586820447F2840F38A80A0F17F03F8
:100E600081FB0320DA17C2EB600000EB4000A3EB2C
:100E700080007330C0B208F0F1FA2A883388134436
:100E8000032B52DDB9F800205548B8F80030A21AFB
:100E900080FB021ED117C1EB6E0101EB410103EB98
:100EA000C303A2EB810101EB41011A0102EB8103B3
:100EB0003B449B6823447F2B4BDDA3F17F0280FBE7
:100EC0000230D317C3EB600303EB4303A2EB8303AE
:100ED0007333D8B208F0C2FA2A8833881344042B3B
:100EE00023DD3C4B1B88012B1FD1A4F10C007F2874
:100EF0004EDD3B4BA4F18B0083FB0032C317C3EBE9
:100F0000620303EB4303A0EB83007330C0B2BDE880
:100F1000F84308F0A3BA3449BDE8F843FFF792BE9E
:100F20003249BDE8F843FFF78DBEBDE8F8832A4D8E
:100F30003AE70028BFF668AF4342D81781FB032188
:100F4000C0EB610101EB4101A3EB8101C1F10C0098
:100F50005AE7002BBDDA5A4280FB0230D317C3EBAD
:100F6000600000EB4000A2EB8000C0F10C03B0E792
:100F70000028BFF67FAF4342D81781FB0321C0EBA7
:100F8000610101EB4101A3EB8101C1F10C0071E7AB
:100F90000028BBDA124A434282FB0320DA17C2EB75
:100FA000600000EB4000A3EB8000C0F10C00ADE757
:100FB000E2A3FF1FDCA1FF1F44380100983C0100A1
:100FC000283D0100083C0100743A01001C3E01006C
:100FD000ACA2FF1F20A2FF1FF8A1FF1F04A4FF1F48
:100FE000ABAAAA2A40350100C4A1FF1FD0A1FF1F50
:100FF000CEA3FF1F10B504460FF088FD204610BD9C
:1010000070B44C88A04220D901230133DBB21CB25A
:10101000660031F8144084421D46F6D3A04211D038
:1010200005F10045013D965B31F8151032F8153099
:10103000401AF21A00FB02F0641A90FBF4F4E01874
:1010400070BC7047905B70BC704702260125E5E7D5
:1010500038B5274B1B78002B37D015200CF010FD2E
:10106000244B1860244B1B88984204DA234C2378C5
:10107000002B32D138BD224A1288D11A2BD082429D
:10108000D4BFC3EB0203C3EB000301EBD174C3EB8A
:10109000C31303EB640303FB01F2002A93FBF1F497
:1010A000B8BF04F1FF34002CE0D0144B1A780AB911
:1010B00001221A70134D2B689C4204D0124BE1B2EE
:1010C000187808F077F92C6038BD11200EF01EFA60
:1010D000084B1860C6E73F24E7E70B4B0021187860
:1010E00008F068F90023074A2370136038BD00BF79
:1010F000E4A3FF1FA4A1FF1F70A2FF1FACA4FF1F4A
:1011000044A4FF1FA4A4FF1F28A2FF1F08B51B4B68
:101110001B785BB315200CF0B3FC194B1860194A0F
:101120001278FAB118491A680B8893421ADC1749E9
:101130000988C81A20D08A42D4BFC3EB0203C3EB8C
:101140000103A3EB830300EBD072A3EB620303FB69
:1011500000F2002A93FBF0F3B4BF043305330C4ACA
:10116000136008BD0A4B00221A6008BD11200EF062
:10117000CDF9034B1860D2E70323F0E7E4A3FF1F88
:10118000A4A1FF1FF6A1FF1F70A2FF1F44A4FF1F11
:10119000B8A2FF1F38B50F200EF0B8F9204B214A36
:1011A0001B881060C0F53B600830984228DB1E4A5F
:1011B0001288D11A28D09042D4BFC3EB0003C3EBEE
:1011C000020301EBD174C3EBC31303EB640303FB12
:1011D00001F2002A93FBF1F4B8BF04F1FF347CB1B3
:1011E000124B1A780AB901221A70114D2B68A342CA
:1011F00004D0104BE1B2187808F0DCF82C6038BD50
:101200000A4C237813B938BD3F24E9E7094B002184
:10121000187808F0CFF80023054A2370136038BD12
:10122000DCA2FF1FBCA1FF1F2CA4FF1F54A4FF1FA3
:101230007CA2FF1F66A2FF1F521A0FD0411A002B7B
:1012400003FB01F102EBD2700CDB01EB600101FB4F
:1012500002F3002B91FBF2F00EDB704703EBD3732C
:1012600058107047A1EB600101FB02F3002B91FBCA
:10127000F2F003DB0130704701387047704700BF60
:10128000521A10D010B402EBD274411A641003FB4E
:10129000014303FB02F1002993FBF2F010BCB8BF3D
:1012A00000F1FF3070475810704700BF70B50E4610
:1012B00015460446184610F09DFFAA1B0FD0A41B2C
:1012C000002800FB04F402EBD2700CDB04EB60049A
:1012D00004FB02F3002B94FBF2F00EDB70BD00EB7D
:1012E000D070401070BDA4EB600404FB02F3002B2F
:1012F00094FBF2F003DB013070BD013870BD70BDAE
:10130000F0B40E8886420DD203F10043013B31F860
:101310001350854202D9F0BCFFF772BE32F81300B9
:10132000F0BC70471088F0BC704700BF094B1B88A9
:101330000C2B09D8084A80B252F8232028B143F672
:10134000FE73984203D9108C704710887047034988
:10135000FFF756BEF4A1FF1F803701008C39010052
:10136000494A4A4B2DE9F0471B681488484AA34272
:101370002546178866DBBB42A8BF3B46454A9C42D0
:1013800098461360C8BF23465FDD381B57D01B1B30
:1013900000EBD072C3EB833303EB620303FB00F279
:1013A000002A93FBF0F06DDBFFF7C0FF3A4A3B4B9E
:1013B00016881B88C0F3C61909FB06F67F2E8246E5
:1013C000A8BF7F26002B37D0444543DD3A4621464F
:1013D0002846FFF755FF324B1860324C2368994579
:1013E00009D0314B1B88002B46D1304B1B88002B7A
:1013F0003ED1C4F800902E4C23689A4506D02A4B63
:101400001B885A1F032A2AD9C4F800A0294C236834
:101410009E420FD0284B188848B1234B274A1B887F
:10142000D35C834203D0C0B2F1B207F0C3FF2660A1
:10143000BDE8F087BDE8F087194A1360CDE741F6B3
:10144000FF70B1E7134BA0461C6047453B46A8BF61
:1014500043469AE7B8454546A8BF3D46B6E7174A12
:10146000D05C2030C0B20AF07F0107F0A3FFCBE7C9
:10147000484608F03FF8BCE7104A4946D05C07F000
:1014800099FFB2E701388FE7D8A2FF1F14A4FF1F0E
:10149000ACA1FF1F98A1FF1F16A2FF1FB0A1FF1F45
:1014A00084A4FF1F60A2FF1FFCA3FF1FCAA2FF1F8F
:1014B00088A4FF1FCCA2FF1F0AA4FF1F188EFF1FC6
:1014C0002DE9F04F01208DB00EF020F8DFF880B349
:1014D000DFF880A3CBF8000000200EF017F8BC4B1B
:1014E000CAF800001B880C2B00F0E081B94A0021EB
:1014F0001F2B117039D0DFF86093B74BB9F800207B
:10150000B64F53F8226000233B70B54BB54A1B8899
:10151000B5491288013B012A31F91330089300F0D4
:10152000E181B24B0393B24B0293B24B0593B24CA1
:1015300000230193B14B1B88012B00F01D82B04B9F
:10154000DFF818830493AF4B0693D8F800500023BC
:101550000793AD4B1B88013B032B00F24A82DFE867
:1015600013F0F200D00013001401A84BDFF8E8924A
:101570001B78B9F80010984A984F52F82160003350
:1015800018BF01233B70C0E7284610F019FCA049A2
:1015900010F06AFC0546079810F012FC9D4910F007
:1015A00063FC0146284610F057FB10F023FE054669
:1015B000C8F80050206810F003FC954910F054FC66
:1015C0008046019810F0FCFB924910F04DFC01465A
:1015D000404610F041FB10F00DFE20608E4B8F4A0C
:1015E0001B8812888E49DBF800800C888D49C3EB7C
:1015F000050E1D44049BC3F800E0831A1044069AAC
:101600001560039A0D881360059BA0451860C0F211
:10161000498145452846A8BF404633462A462146CB
:10162000FFF70AFEDAF800A05445834600F33C8138
:1016300055452846A8BF50462A4633462146FFF75F
:10164000FBFDA04500F310815445C0F20D81DFF889
:101650001092D9F8000010F0B3FB734910F004FCAD
:10166000724910F0F9FA10F0C5FDA0F5FF531C3BCC
:10167000082B98BF4FF40050029BDFF8E8811C68EC
:1016800043F6FF750444AC42A8BF2C4624EAE47438
:10169000C9F80040204610F093FB8146387806FBDD
:1016A00000F010F08DFB4FF07A5110F0DDFB014699
:1016B000484610F0CFFA10F09DFD5D4BA842A8BF40
:1016C00028461B7820EAE070C8F80000002B00F0E4
:1016D000DD80B4F5005F00F0D98004F09FFD554B2C
:1016E000D8F8000001221A70534C2368834205D0B9
:1016F00080B207F02FFED8F8003023600DB0BDE8AF
:10170000F08F284610F05CFB4C4910F0ADFB05460D
:10171000079810F055FB4A4910F0A6FB01462846F1
:1017200010F09AFA10F066FD0546C8F800502068DF
:1017300010F046FB414910F097FB8046019810F0ED
:101740003FFB3F4941E7284610F03AFB3D4910F086
:101750008BFB0546079810F033FB3B4910F084FBE8
:101760000146284610F078FA10F044FD0546C8F806
:101770000050206810F024FB324910F075FB8046C1
:10178000019810F01DFB30491FE7284610F018FBA8
:10179000254910F069FB0546079810F011FB2B490D
:1017A00010F062FB0146284610F056FA10F022FDB8
:1017B0000546C8F80050206810F002FB1A4910F0E6
:1017C00053FB8046019810F0FBFA2049FDE600BF6C
:1017D00046A4FF1F9EA1FF1F948DFF1F24A4FF1F7F
:1017E000268DFF1F1AA4FF1FDC3D0100A8A4FF1FC8
:1017F00050A4FF1F8CA2FF1F90A1FF1FB6A1FF1FC7
:1018000038A4FF1FC0A3FF1F688DFF1FBAA1FF1FD1
:10181000CDCC4C3FCDCC4C3E248EFF1F608DFF1FA6
:1018200010A4FF1F18A2FF1F9A99193FCDCC4C4559
:101830006EA5FF1FC8A2FF1F288DFF1F6666663FAB
:10184000CDCCCC3D3333733FCDCC4C3DCDCCCC3E19
:1018500050A2FF1FECA1FF1F58A2FF1F34A4FF1FBF
:10186000CC8DFF1F648DFF1FB9F80030002B3FF4B3
:10187000EEAEC0EB0B03002BB8BF5B42092B00F3AD
:10188000BA804FF40050DFF8F892F5E6A84C2378C0
:10189000002B3FF429AF04F0BDFC0023D8F8000072
:1018A000237021E72046B8E62046C5E6A14B1B7809
:1018B000002B00F0C180DFF8CC929F4BB9F80010EC
:1018C0009E4A9F4F53F821000023012111703B7065
:1018D00010F076FA4FF07C5110F0C6FA10F08AFC46
:1018E000064612E6974B984A1B8898491278013BA6
:1018F00031F91380002A40F09A8011200DF006FE85
:101900000190934B03931D68019B9D4240F3978088
:10191000904B914C1B88226890490491012B904B6D
:101920001B8805938F4B0293C8EB0208304600F0EA
:101930002D8110F045FA059B049951F823108A4B2C
:10194000059310F091FA0146002010F083F9034648
:101950000198404542462946B8BF4046FFF7A6FCDD
:1019600002990B681844814B1B8800EBD070401023
:10197000012B08607FF4E3AD7D4B04931D460F20DF
:101980000DF0C4FD2B6807909842099380F2878080
:10199000704BDFF8F4811B88012B714B00F0B38092
:1019A0001A886E4B0A923046069310F009FA069B8D
:1019B0000A9AD8F8005053F822106E4B069310F094
:1019C00053FA089B0146EA1A0020089210F042F9E7
:1019D000089A0999034607989042B8BF1046FFF746
:1019E00065FC029A1368184400EBD0704010106038
:1019F000AFE52068F2E50BF5005B0BF1010BC0EBE6
:101A00000B0010F0DDF95C49DFF8749110F02CFA4E
:101A10000446D9F8000010F0D3F9584910F024FA20
:101A20000146204610F018F910F0E4FB24E61520DA
:101A30000CF026F8019064E7404A13705BE54A4BCE
:101A400005931D68019B9D421FDA424B424C1B8847
:101A5000226842490491012B414B1B880693414B5C
:101A600002939044304600F0A68010F0A9F9049942
:101A7000069B51F8231010F0F7F9034601984045F2
:101A800042462946A8BF404668E7364B02931946AE
:101A90001B68314C03EBD3735B100B604AE5354B8D
:101AA0000693079A1B6809939A4221DD294BDFF8B8
:101AB000D8801B88012B2A4B00F08A801988274B7D
:101AC0000B9130460A93D8F8005010F079F9089B32
:101AD0000B992B4408930A9B53F8211010F0C4F97A
:101AE000089A0999034607989042A8BF104676E7DE
:101AF000029ADFF894801368D8F8005003EBD37390
:101B00005B10136025E51988144B0A913046069343
:101B1000D8F8005010F054F9089B0A99EA1A069B6D
:101B2000089253F82110134B069310F09DF94FE7DC
:101B3000C8A2FF1FBAA1FF1F948DFF1F9EA1FF1F08
:101B400024A4FF1F708EFF1FE4A3FF1FD4380100E1
:101B5000A8A4FF1FA2A2FF1F90A1FF1FF43D010038
:101B6000F0A1FF1F50A4FF1F8CA2FF1FB6A1FF1FF3
:101B700038A4FF1FC0A3FF1FCDCCCC3E9A99193FBC
:101B8000CC8DFF1F58A2FF1F34A4FF1F10F018F9BF
:101B9000059B0499224A51F82310059210F064F92C
:101BA00003460198404529464246B8BF4046FFF7E4
:101BB0007DFB1C49D5E610F003F9069B049951F80A
:101BC000231010F051F90146002010F043F854E7BB
:101BD0001A88154B0B9230460A9310F0F1F80B9AC5
:101BE0000A9BD8F8005053F8221010F03DF9089BDA
:101BF00001462B440020089310F02CF8089A09990C
:101C0000034607989042A8BF1046FFF74FFB029A81
:101C10001368184400EBD0704310136099E400BFC0
:101C20008CA2FF1F50A4FF1FF43D010008B5244BF8
:101C30001B88FBB1234B1B78FBB1234B1B78E3B113
:101C4000224B1B78CBB1224B1B78B3B1214B2248DE
:101C50001A78C2B9214A22490088128809680244C8
:101C6000B1EB620F09DD01221A706420BDE8084063
:101C700004F0E8BA174A117801B908BD1370BDE83D
:101C8000084007F00BBC154A1649008812880968FD
:101C90000244B1EB620FF0DD00221A7007F0FEFB88
:101CA000642004F0CFFA642004F0CCFA642004F03D
:101CB000C9FA4FF41670BDE808400CF069BB00BFCC
:101CC000D6A3FF1F7BA4FF1F7CA4FF1FF8A3FF1F49
:101CD0007EA4FF1FF2A1FF1F18A2FF1F10A4FF1F69
:101CE00050A2FF1FECA1FF1F38B5114C232025780F
:101CF0000BF0C6FE0F4A42F82500131F02F1C40084
:101D0000002253F8041F83420A44FAD123780A4977
:101D100007480A4C0133DBB2322B81FB025108BF6A
:101D20000023D217C2EB21120370226038BD00BF1E
:101D3000B2A1FF1FE8A2FF1F1F85EB510CA4FF1FDC
:101D40002DE9F04FB64CB74D2068B74F83B010F077
:101D500037F8B64910F088F8064610200DF0D6FB8B
:101D600010F02EF8B24910F07FF831460FF074FFF2
:101D700010F040FA2A8820609042964639884ADA64
:101D80001346B1EB020C44D09B1AC3EBC3160CEB09
:101D9000DC7306EB630303FB0CF6002E93FBFCF3F2
:101DA000C0F27681A34EDFF8B482B6F800C0C8F85E
:101DB0000030BCF1190F00F0E080BCF11A0F00F008
:101DC0002281BCF11E0F00F04F810126B0469A4BD4
:101DD0001B88002B00F09E809446984A1288032AA4
:101DE00000F20881704580F255810A4670466146CE
:101DF000FFF746FA924B1860924B188880B9924AC6
:101E000012886AB9914B197801B11A7003B0BDE814
:101E1000F08F3F23C6E788420346A8BF0B46B0E7D2
:101E20002A882168DFF8FC91DFF8F4A18A4279DC86
:101E3000DFF818E29EF800C0BCF1000F34D14FF07B
:101E4000010C04288EF800C02ED1002E40F0C38172
:101E50007D4B18880028D9D0B8F1000FD6D0236860
:101E60002A883C88934280F297811346A41A00F096
:101E700091819A1A04EBD473C2EB82125B1003EBCC
:101E8000420303FB04F2002A93FBF4F400DB013469
:101E90006F4D2B68A34203D0C0B2E1B207F08AFABB
:101EA0002C6003B0BDE8F08F012800F01B810228F0
:101EB00000F00D810328CBD1664B1B88092BC7D0BE
:101EC000002EC5D023682A883E88934280F2A781DD
:101ED0001346B61A00F0A1819A1A06EBD673C2EB2C
:101EE00082125B1003EB420303FB06F2002A93FB12
:101EF000F6F600DB0136DFF860A1DAF80030B34215
:101F000003D0F1B24A2007F055FACAF800609FE703
:101F100098460126BCF11E0F7FF46EAF0023DFF858
:101F20004091ACE0494B1A78002A3FF46FAF00248F
:101F300001281C7000F0BE80022840F03181002E84
:101F400000F0BE80444D2B68002B00F0B9800420C7
:101F5000214607F02FFA3C4B2C60188800283FF4EC
:101F600055AFB8F1000F3FF451AFC0B2002107F0F8
:101F700021FA374B00221A6048E7DFF8E49099F81D
:101F80000030CBB1DFF8C080B8F800A0BAF1000F84
:101F900012D0DFF8D08098F800B09B4500F0938015
:101FA0005FFA8AF07F2107F005FA99F80030B6F859
:101FB00000C088F8003011E0DFF8A88098F800A091
:101FC0009A4500F08080204B0021187807F0F2F944
:101FD00099F80030B6F800C088F80030164B1B881E
:101FE000002B95D0BCF11E0F40F0288101264FF048
:101FF000000844E0704552DA62467046FFF740F947
:102000000F4B1860F8E6DFF8589099F80030002B75
:102010000BBF012600264FF000084FF00108D6E65E
:1020200024A2FF1FDCA3FF1FD8A3FF1F9A99193F0B
:10203000CDCCCC3E46A4FF1F5AA2FF1F3CA4FF1FDD
:10204000E0A2FF1F4EA2FF1F58A4FF1F4BA4FF1FBB
:102050000CA2FF1FFCA3FF1FE4A2FF1F28A4FF1F69
:10206000BAA1FF1FB8A1FF1FDFF8F891784B99F8CC
:1020700000601B88B6FA86F676094FF0000899F8DA
:10208000002062B3B5F800C020683988E646A4E6AF
:10209000013B87E68842A8BF08468646A5E68842F7
:1020A000A8BF0846864662467046FFF7E9F8694BC6
:1020B0001860A1E626B1684D2B68002B40F08480A3
:1020C000664B18884AE701264FF000087FE6002E8D
:1020D0003FF4BEAEDFF880A1DAF8002033E05D4BBC
:1020E0001A6089E6002E3FF4B3AEB7F80090494578
:1020F000A8BF49460846B9EB020900F0848009EB05
:10210000D971821A4910C2EB821201EB420202FB22
:1021100009F1002992FBF9F901DB09F10109DFF866
:1021200038A1DAF800204A4506D05FFA89F101208B
:10213000019307F03FF9019B1888CAF80090022824
:102140007FF4B8AE4A4621682888B7F800E081429B
:102150005FDA0146BEEB000E58D0091A0EEBDE70B6
:102160004010C1EB811100EB410101FB0EF0002892
:1021700091FBFEF901DB09F10109914506D05FFAF7
:1021800089F10420019307F015F9019B1888CAF81A
:1021900000908FE640247BE6A342A8BF234665E675
:1021A000032825D12E4B1B88092B89D0002E87D0E0
:1021B000294D2B68002B83D04A20214607F0FAF8DE
:1021C000264B2C601888C9E6214607F0F3F8234B0C
:1021D0002C601888C2E640207F21019307F0EAF8BE
:1021E000019B188801281ED002287FF463AE71E796
:1021F00004287FF465AF002E3FF462AF21464020F3
:1022000007F0D8F85CE74FF0400988E74FF0400945
:10221000B3E77145A8BF71469CE740266BE6B34221
:10222000A8BF334655E6B9F80000DAF80010B7F851
:10223000009081420246FFF65EAF58E7B5F800C055
:1022400020683988E64601264FF00008C5E500BF42
:102250005AA2FF1FE0A2FF1FE4A2FF1F58A4FF1F06
:10226000FCA3FF1FBAA1FF1F08B5114B1B88022B4F
:1022700009D0052B07D0032B15D0042B0BD00D4B09
:1022800001221A7008BD7F21412007F093F8094B05
:1022900001221A7008BD7F21092007F08BF8054B39
:1022A00001221A7008BD4021092007F083F8E6E7F3
:1022B000DEA2FF1F74A2FF1F38B5074B074D1B8816
:1022C000052B044606D02B68834203D0C1B20520FB
:1022D00007F070F82C6038BDDEA2FF1F60A4FF1F5E
:1022E00038B5124D124C2B88052B12D022684AB9F2
:1022F000022B0ED0033B012B13D90E4A002313707F
:10230000236038BD0021052007F054F82B88022BEC
:1023100004D10021412007F04DF8EEE7052BE9D16B
:10232000F7E70021092007F045F8E6E7DEA2FF1FE6
:1023300060A4FF1F74A2FF1F38B53A4B1B881D2BEA
:1023400037D0394D0024394B1B88022B15D0384B20
:102350001B88022B4AD02D88364B002C1B780ADBB9
:10236000AC42A8BF2C4634B1002B30D02046BDE88B
:102370003840FFF7A1BF33BB38BD2F4B1B78002B74
:102380002ED015200BF07CFB2C4B18602C4A1288A9
:10239000002ADCD02B4A186811888142D7DC2A4AEF
:1023A0002B8812889042A8BF1046FEF769FF0444AC
:1023B000CDE7234B1C888CB1244B1B4D1C78002C83
:1023C000C1D02C88BFE7BDE83840FFF789BFFFF7D1
:1023D0004BFF2046BDE83840FFF76EBF124DB2E715
:1023E00011200DF093F8154B1860CFE70F200DF07A
:1023F0008DF8134B164A1B881060002BABD0154B81
:10240000C0F53B60198808308842A4DB124B2D8848
:102410001A889042A8BF10462B46FEF731FF0444AD
:102420009AE700BF46A4FF1F4CA4FF1F1AA4FF1F7A
:10243000B6A1FF1F74A2FF1FE4A3FF1FA4A1FF1FEB
:10244000DEA2FF1F70A2FF1F44A4FF1FBAA1FF1F3F
:10245000BCA1FF1FDCA2FF1F2CA4FF1FF8B510209A
:102460000DF054F8C830B0F5FA7FC0F29680B0F5A0
:102470007A6F0146A8BF4FF47A6101F51673B3F580
:102480007A6FA8BF4FF47A639BB289B2914A924C9B
:1024900011802220238007F009F921888F4D904C6C
:1024A000242007F003F90E200BF0EAFA40F6FF7142
:1024B000C8308842A8BF084620EAE07000F2DC522B
:1024C00083B28A42A8BF0A460220194622802B8086
:1024D00007F0ECF82188042007F0E8F801200DF05F
:1024E00015F8044600200DF011F8A042B8BF2046B0
:1024F00000F1C801B1F5FA7FC0F2D680B1F57A6F6C
:10250000A8BF4FF47A6101F54873B3F57A6FA8BF9D
:102510004FF47A639BB289B2724A734C11800A20DD
:10252000238007F0C3F821880C2007F0BFF80F20A4
:102530000CF0ECFFC0F53F610431B1F5AF6FC0F2B4
:10254000B080B1F5FA6FA8BF4FF4FA6189B2674B5A
:10255000C0F54360B0F5AF6F1980C0F29B80B0F555
:10256000FA6FA8BF4FF4FA6083B2614CA4202380B5
:1025700007F09CF82188A62007F098F815200BF0AA
:102580007FFA00F59671B1F52F7F0BDB41F25C23EA
:10259000994240F38E80194608E040F24C434FF4D4
:1025A000FA7173E740F214534FF42F71514A1180BE
:1025B000514C524D2380062007F078F82188504E68
:1025C000082007F073F800274FF4AF74F9B24D48B4
:1025D00008F0BAFE55F8043BC3F5967300FB03F010
:1025E00086FB0023C017C0EB6310844207F101078C
:1025F000A8BF0446062FE9D1434F414E0025E9B25A
:10260000424808F0A1FE57F8043BC3F5967300FB5F
:1026100003F086FB0023C017C0EB6310844205F172
:102620000105A8BF04460C2DE9D1394F344E0025D1
:10263000E9B2384808F088FE57F8043B304AC3F541
:10264000967300FB03F086FB0013C017C0EB63100A
:10265000844205F10105A8BF04460C2DE8D1A4F180
:102660001401312919DD40F23A73A4F5B97403FB62
:1026700004F4963C82FB0432E417A4EB621289B2A4
:1026800032322548254B01801A602A20BDE8F840E7
:1026900007F00CB84FF4AF6367E740F26C72322179
:1026A000EFE74FF4AF6152E740F214534FF4FA7181
:1026B00032E7104A00F5617089B2B0F52F7F1180C2
:1026C000B8BF4FF42F73FFF673AF8342A8BF034622
:1026D0009BB26DE7DCA3FF1FD8A3FF1FD8A2FF1F8B
:1026E000ACA1FF1F10A4FF1F18A2FF1FDCA2FF1F39
:1026F0002CA4FF1F70A2FF1F44A4FF1F588EFF1FB2
:10270000B5814E1BB8A3FF1F288EFF1F54A2FF1FC9
:10271000308DFF1FD0A2FF1F78A4FF1F148EFF1F54
:102720002DE9F04F0C2083B00BF076F90C200BF064
:1027300061FDCA49DFF8ACA314200BF06BFDC8495A
:10274000C84808F0D1FA022103200BF0F9FD02215C
:1027500004200BF0F5FD022105200BF0F1FD022114
:1027600006200BF0EDFD01210A200BF0E9FD01210F
:1027700009200BF0E5FD01210D200BF0E1FD012109
:1027800028200BF0DDFD012114200BF0D9FD0121E3
:1027900016200BF0D5FD012117200BF0D1FD0121F2
:1027A00021200BF0CDFD02211C200BF0C9FD0121E1
:1027B0001B200BF0C5FD00211B200BF0ADFD1C20E4
:1027C0000BF0B0FDB0FA80F35B091A208AF80030F4
:1027D0000CF01CF81F2000210BF0DEFF04200BF092
:1027E000A1FD002800F0908105200BF09BFD002842
:1027F00000F0BB8100239C4C062023700BF092FD5F
:10280000B0FA80F35B094FF0000B984A137005F0A3
:102810008DFA2378002B40F07281584606F070FF45
:10282000934B94491B88944840F23A72A3F5AF73D6
:1028300002FB03F3963B81FB0321DA17A2EB611243
:102840008E49002BD4BF02F1320302F13103098813
:102850008B4A017001210D2013600BF05DFD642097
:102860000BF096FD06244FF416710A200BF0C4FB02
:1028700000940C237B4A83485D2108F0CDFD00289D
:1028800000F0B08164200BF083FD00210A200BF0E2
:10289000B3FB4FF4967109200BF0AEFB00940C23B0
:1028A000704A79485C2108F0B7FD002800F0878164
:1028B00064200BF06DFD002109200BF09DFB4FF40F
:1028C000967116200BF098FB00940C23654A6F4814
:1028D0005B2108F0A1FD002800F04E8164200BF080
:1028E00057FD002116200BF087FB4FF4967117203F
:1028F0000BF082FB64200BF04BFD002117200BF046
:102900007BFB64200BF044FD00210D200BF004FD47
:102910005F4A60481268DFF8D0915F4F5F4D604EAC
:10292000DFF8C88100230121FDF7BEFD002301224D
:1029300089F800203B602B60336004240F200CF0EA
:10294000E5FD336803440E2033600BF099F83B68D3
:1029500099F8002018443860002A00F0C98015203A
:102960000BF08EF82B681844286004F0010080F00A
:10297000010003F057FCB8F80030002B14BF4B20C7
:10298000DC200BF005FD013CD8D133683968424AA0
:102990002868444F002BB8BF03330029B8BF033168
:1029A000891011604049414A098814889B10002809
:1029B0003360B8BF03303E4E8210581A19442A6063
:1029C000316038603B4D3C483C49161B22442E6028
:1029D00002600B60BBF1000F40F0AF80B8F8003030
:1029E000002B00F09D80364B012404201C600BF06E
:1029F00099FC18B9334B204A1C701070324B1B885D
:102A00001C2B00F0A280314C04F1C80523200BF0F0
:102A100037F844F8040F01200BF0BAFCA542F5D1B9
:102A20009AF8003023B12A4B1B78002B40F0988095
:102A3000002121200BF070FC264A274B10781870DB
:102A400006F0FAFD03F0E6FB2449254845F6BF529F
:102A500003B0BDE8F04F0EF00FB800BF001B3746C3
:102A600040420F001896FF1FFAA1FF1FC4A3FF1FCB
:102A700078A4FF1FB5814E1B88A2FF1F8EA4FF1FE5
:102A8000148EFF1FB8A3FF1FD0A2FF1F54A2FF1F69
:102A90002C8DFF1F2CA2FF1FA8A1FF1F90A1FF1FBD
:102AA00034A4FF1F38A4FF1F248EFF1F608DFF1F5B
:102AB000C0A3FF1FA8A4FF1F8CA2FF1F90A4FF1F8D
:102AC00040A4FF1FC1A1FF1F46A4FF1FE4A2FF1FD8
:102AD000DEA3FF1FE0A3FF1FB5A3FF1FA505000096
:102AE00068A4FF1FBCA3FF1FE4A3FF1F06A4FF1FD2
:102AF00011200CF00BFD2B681844286035E703B05B
:102B0000BDE8F04F08F004B806200BF00BFC0028DD
:102B10007FF46AAE364C034620704FF0010B74E62A
:102B20004FF4FA7003F08EFB03F078FB05F058FCCD
:102B30004FF4AF600BF02CFC55E7FFF78FFCB8F8B3
:102B40000030002B7FF44FAFEAE72A4B18880028AB
:102B50003FF459AF284BC0B2197806F02BFC52E76E
:102B6000012121200BF0D8FB66E703200BF0DAFBF4
:102B7000B0FA80F35B093EE603200BF0D3FB00289C
:102B8000FAD104200BF0CEFB0028F5D105200BF084
:102B9000C9FB0028F0D106200BF0C4FB0028EBD1C4
:102BA0000CF0B2FD04200BF0BDFB40B905200BF08A
:102BB000B9FB20B906200BF0B5FB0028F0D00320AC
:102BC0000BF0B0FB0028FAD1ECE704200BF0AAFBD5
:102BD00040B905200BF0A6FB20B906200BF0A2FBA4
:102BE0000028DDD003200BF09DFB0028FAD1ECE794
:102BF000FAA1FF1F90A2FF1F22A2FF1F2DE9F04F95
:102C0000DFF810B39BF80030012B97B000F04C8335
:102C1000C0F0D482022B00F083818C498C4891F85B
:102C200000808C4900918C498C4D8D4C8D4E8E4F7F
:102C30008E4A04918E4902918E4990F800A001912C
:102C40002D788D492478367897F800901278DFF83F
:102C5000C8C2DFF8C8E289480391012B94BF013351
:102C600000238BF80030864B864983F800A0864B02
:102C70000D701C708549864B0E7083F80080854965
:102C8000854B81F800A01A70B9F1000F40F0C181A6
:102C9000824B1F880D2F00F02A82814900239B461A
:102CA0000B702CB17D490F88002F40F02D823C46DF
:102CB0007C49098804EB0309002940F0C5817A4B5F
:102CC0007A49019C1B78247809780133A3EB4403EB
:102CD000002940F02082039909785B1A002940F00E
:102CE0009F8300247249029F09783F781B1BA3EB46
:102CF000410333445D1B17B1B6FA86F77F099CF890
:102D000000303D44EC1A002B00F01A82003118BF4D
:102D10000121009B9EF8007006781D786548631AB3
:102D2000DB1BA3EB46034344CAEB030AAAEB420AAC
:102D30000C2212FB05A202605F48604D604B0488C4
:102D400060482E681B88604D604900882D6809889E
:102D5000033B03EB4303C4EBC404C0EBC0002844B3
:102D600002EB830334445A4D0B445A4955F824402E
:102D700051F820100C3B4B4423445C18BBF1000F6E
:102D800001D0554B1A60554B554A1B88042B8CBFFC
:102D900001210021117040F23681524A52481168D7
:102DA00003EB83039AB20329028000F065840020BC
:102DB0004E4D4F492B6808709C4200F094814D495C
:102DC0004D4F0B680693069E4C4B3E6001271F70CB
:102DD0000B6807934A4F079B3F88DFF818E19B1B5E
:102DE000BB4240F22181474B1C60002800F0A581C6
:102DF000424B1878002840F009832C60424D2B6824
:102E0000A34200F01B810868404F099009983E6872
:102E1000801B904214D3E41A002CC0F275830BD0AF
:102E20003B4A126882EAE270A0EBE2708442ACBFD7
:102E30001446012423442B600A680A920A9A3A60D5
:102E4000049A136017B0BDE8F08F00BFF9A3FF1F0D
:102E5000FAA3FF1FCCA3FF1F9CA4FF1F73A2FF1F99
:102E6000FFA3FF1F72A2FF1FB4A4FF1FFBA3FF1F3E
:102E70007DA4FF1F5BA4FF1F5CA4FF1F49A4FF1FCD
:102E8000AEA4FF1FAFA4FF1FB0A4FF1FB1A4FF1F7C
:102E9000B2A4FF1FB3A4FF1F4AA4FF1FB6A4FF1FC5
:102EA000BAA1FF1F9CA1FF1F268EFF1F98A4FF1F22
:102EB0005DA4FF1F00A4FF1F3CA4FF1FE0A2FF1F93
:102EC0001EA4FF1F76A2FF1F84A4FF1FB4A1FF1F33
:102ED000283B01001C3901001CA2FF1F22A4FF1F78
:102EE000F6A1FF1F40A4FF1FD08DFF1F68A2FF1F88
:102EF000B9A1FF1F8CA5FF1F94A2FF1FB4A2FF1F43
:102F000056A4FF1F30A4FF1FC8A3FF1FE8A3FF1F85
:102F1000B8A2FF1FB4A3FF1FADA4FF1F48A4FF1F4B
:102F2000884F894D0AAE0024E1B2884808F00CFAB7
:102F300057F8043BC3F5967300FB03F085FB0023B1
:102F40000134C017C0EB63100C2C46F8040BEBD116
:102F50007F4B0B981F887F4B01937F4B119993F800
:102F60000080129B7D4A0392BB42ACBF4FF0000928
:102F70004FF00109139B7A4A159E0D9D92F800A00F
:102F80000E9CDFF828C2DFF828E28742D4BF002079
:102F900001208F42D4BF002101219F42149B8CF855
:102FA0000000D4BF002201229F42D4BF002301238E
:102FB000B742D4BF00260126AF42D4BF0025012569
:102FC000A742684F684887F80090624FDFF8E4C175
:102FD000397062490A70654A65491370654B009102
:102FE0001E706549654B0491D4BF002401246449D7
:102FF0001D708EF8004002789BF800300291DFF8D7
:10300000B8E1604829E6604900231A460B8018465B
:10301000CEE65E4B5E491B884FF0010B182B81F802
:1030200000B074D900233CE62C605A4B00287CD0B9
:10303000594D1C682B68A3427FF4E5AE049A2346E1
:10304000136017B0BDE8F08F012900F0C782022994
:1030500000F02D830329514B00F0E781042900F093
:10306000D383052900F02F849CF800101C78037886
:1030700005930098039F019B00789EF800C01B7881
:1030800097F800E00090A4EB41040599029FA1EBA2
:10309000810036493F780978BEF1000FCCEB040C73
:1030A000C3EB837EC3EB8E036044184414BF00233C
:1030B00004230029034414BF00200320034403EB2E
:1030C000470303EB82031E44009A354C06EB0803CA
:1030D000C2F106015D1B01EB4101A5EB4A0A0AEBB7
:1030E0008102226028E62F4B2F491E6870E6002CD3
:1030F0003FF4D3AD254B26491B884FF0010B182B0D
:1031000081F800B003D94B46A7F10D04D0E50C3B84
:103110004FF0010BC5E50399002C00F070810C788D
:10312000002C40F03983013BDCE51B681A4A136030
:10313000049A136017B0BDE8F08F2C602346F5E7C2
:103140001946E6E5308DFF1FB5814E1BD0A2FF1F4B
:1031500078A4FF1F5BA4FF1FF9A3FF1F5CA4FF1F40
:10316000FAA3FF1FB4A4FF1FFBA3FF1F5DA4FF1F53
:10317000CCA3FF1F72A2FF1F9CA4FF1F73A2FF1FFF
:103180007DA4FF1F49A4FF1FD08DFF1F46A4FF1F72
:10319000BAA1FF1F30A4FF1FC8A3FF1F268EFF1F69
:1031A00000A4FF1F94A2FF1F8CA5FF1F98A4FF1F60
:1031B000FFA3FF1FADA4FF1F48A4FF1FAF4FB04DDB
:1031C0000AAE0024E1B2AF4808F0BEF857F8043B5D
:1031D000C3F5967300FB03F085FB00230134C01791
:1031E000C0EB6310062C46F8040BEBD1A64BDDF8C0
:1031F00028901A880F9B01930DF12C0898E8005134
:103200009145ACBF00270127A04BDFF8ECA219883D
:103210000E984245D4BF00260126624507EB0603FF
:10322000D4BF002501252C462B44994D8AF8006017
:103230002F70984DDFF8C4A22C707245019C964DFA
:10324000D4BF0027012782423B44D4BF0026012679
:10325000A2422E708AF800703344D4BF00270127A1
:103260008E4E8F4D37703B448E4E0096DBB2012957
:103270002B708D4D37468CBF002601262E70A24242
:103280004FF000053D7040F38D80824202DC012941
:1032900000F26181009C854D06230329237000F014
:1032A0006A83834A049245E1824F754D0AAE002439
:1032B000E1B2814808F048F857F8043BC3F596732B
:1032C00000FB03F085FB00230134C017C0EB631043
:1032D0000C2C46F8040BEBD16B4B0D9D1F880E9CFC
:1032E0000C990B9B0A9E75480290BD42ACBF00250D
:1032F0000125A742D4BF002401248F42D4BF00215E
:1033000001219F42D4BF002301236D48DFF8F0E183
:103310000370B742129E6B4B119A8EF80010D4BF07
:103320004FF000084FF00108B742D4BF4FF0000A39
:103330004FF0010A644983F800A0149B81F80080D3
:103340009742DFF8C0C15D4E60493570D4BF00229E
:1033500001229F428CF800400A701DDC00230F9967
:103360005B4C5C4D23708F424E4B0093D4BF0027C3
:1033700001274F4B2F7004935749584B584D594CC8
:103380000E7859490191594993F800902D78247885
:103390009BF80030039160E4139B9F42D4BF00234D
:1033A0000123DCE7824240F3D680724500F3BA8005
:1033B000012940F2B780624540F3D680424500F3D0
:1033C000DD82012940F2DA82914580F2D680012324
:1033D000009D2B70354D364B0493032940F0A88097
:1033E000019B9A4240F3A480824200F3A1802B7893
:1033F000062B40F09D80009A072313709AE009780D
:10340000013B5B1A00297FF46DAC6AE4DEF8000032
:1034100008900898364F1044002638601E70ECE47F
:10342000002C3FF45EAC01245CE41978019B9CF80D
:1034300000409EF800601B78029F007897F800E03B
:10344000039FA1EB4401A0EB8000891BC3EB8374B5
:103450000144C3EB84030B443F7803EB4E0303EBBF
:103460008203002F40F014820125009A214912782E
:103470002B440C2010FB02320A605DE4588EFF1FC3
:10348000B5814E1BB8A3FF1F78A4FF1FB0A3FF1F79
:103490007AA4FF1F7CA4FF1F7EA4FF1F7FA4FF1F31
:1034A00010A2FF1FCCA3FF1F1CA4FF1FDAA3FF1F46
:1034B0009CA4FF1F288EFF1F54A2FF1F7DA4FF1F87
:1034C00049A4FF1FFAA3FF1FF9A3FF1FFBA3FF1FC0
:1034D0001AA2FF1FBEA2FF1F72A2FF1FB4A4FF1FEC
:1034E00073A2FF1FFFA3FF1F5BA4FF1F5CA4FF1FAE
:1034F000E8A3FF1F00A4FF1F7BA4FF1FF8A3FF1F6B
:1035000048A4FF1FADA4FF1FA54A126882EAE2701B
:103510006442A0EBE2708442ACBF144601241B1B42
:103520002B6089E4009A9F4D052313709E4B0493F2
:10353000009B1B789D489E499E4A2B709E4B90F89D
:1035400000A091F8008012780293DFF8ACC2DFF897
:10355000ACE29A4810E772457FF72DAF624500F361
:10356000B081012940F2AD8142457FF72DAF9145F1
:10357000C0F20682012940F203828A4D2E78012E84
:103580007FF629AF09B1009F3E708D4E3688002E20
:1035900000F0FB81002B40F0F8818A4B1B88013B37
:1035A0009BB2062B00F2F181874B1B78002B00F0B9
:1035B000EC81864B1B68012B7B4B04937FF40DAF92
:1035C0001F68DFF83CE20C2397FBF3F603FB16734E
:1035D000AEF800307E4B03261E70FEE67D4B7E4F1C
:1035E000019C1B7824783F780133A3EB4403002F20
:1035F00040F0AF80039909780191DF1B019BF91A14
:103600000391002B40F0A1800199029B734F1B781E
:103610000293039B3F780597591AA1EB4701029B40
:1036200031444D1B002B00F0A080B6FA86F35B09F5
:103630009CF800702B44DB1B1FB105990F1C18BFB1
:1036400001279EF800100078DB1B5B1AA3EB4003F8
:103650004344CAEB0303A3EB4203002C40F08780F2
:103660000199002900F02281059900290CBF4FF033
:10367000000E4FF0090E7CE0494B1B68002B7FF7D2
:1036800096AB574B187800287FF491AB554B1B78BD
:10369000002B7FF48DAB54490978002940F07281EA
:1036A000524B1878B0FA80F04009FFF781BB039CB9
:1036B00000782478039048484D4B0199474F019476
:1036C0009CF800C09EF8004090F800E09DF80400CF
:1036D00009783F78987083F805C09DF80C00DFF8F2
:1036E00024C15A7283F801E019701E719C71D8715F
:1036F00083F80880DF704FF0000E012200233C4E5B
:1037000018465FFA8EF864460F4607E0022A09D091
:103710000A2B0BD016F8017F14F8012F974203F102
:103720000103F3D101300A2BC0B2F3D1092800F212
:103730000D810EF1010EBEF1100F00F094801CF807
:103740000A2FDBE701995B1A0393211C18BF0121A3
:103750005BE7002C00F0A58003990978019100290E
:10376000F0D1013B039301994FE7029B60E74FF0D3
:10377000000E734470B9002A0CBF00216FF00901DC
:10378000009A1C4812780B440C2111FB0232026093
:10379000FFF7D2BA0021F3E71B1B0124FFF7A2BAFF
:1037A000B8A2FF1FDAA3FF1F9CA4FF1FFAA3FF1FED
:1037B000F9A3FF1FFBA3FF1F7DA4FF1F49A4FF1F49
:1037C00020A4FF1FE2A3FF1FDAA2FF1F40A4FF1FD8
:1037D000C88DFF1F268EFF1F98A4FF1F5DA4FF1F2B
:1037E00008A4FF1F5AA4FF1F95A1FF1FC0A1FF1F20
:1037F00098A2FF1F00A4FF1FADA4FF1F48A4FF1F36
:1038000004A4FF1FD439010093F80080029B019F9C
:103810009CF800409EF8006093F800E0039B3F781E
:10382000007893F800C0A8EB44039E1BA0EB800037
:10383000C7EB87730644C7EB8307F31903EB4E0E00
:1038400011FB02E1BCF1000F33D10125009B1A7876
:10385000524BC2F1060202EB4202294401EB820202
:103860001A60FFF769BA4E4A4E4B1178DA6B029B29
:1038700001311B780A44551B2B440022009908781B
:1038800046499B1A0C2212FB00320A60FFF754BA19
:10389000454A1278002A3FF4E7AD003518BF0125EC
:1038A000E3E5039F3F7801970F46A6E6DDF804E0C5
:1038B0005FE73D4B1B78002BC7D0003518BF0125B3
:1038C000C4E7042384E51B780593039B9CF8004020
:1038D00093F800C0029B01781B7801980193009B2C
:1038E0009EF800701B780093059B0078DFF8B8E025
:1038F000A3EB4403A1EB8101BCF1000FA3EB070391
:103900009EF800E0254CC0EB807C0B44C0EB8C00A3
:1039100014BF002104210344BEF1000F0B4414BF67
:10392000002103210B44019903EB410303EB8203C4
:103930001E4406EB08035D1BBDF80030A5EB4A0AE8
:103940000C2212FB03A22260FFF7F6B9144A154BB2
:10395000117853F82E20029B01311B780A44521B28
:103960001344BAF1000F88D0B8F1000F85D1002DB3
:1039700083D0012282E70D4B049335E5032327E52D
:10398000022325E51846FFF713BA094B1B68012BE4
:10399000064B04937FF421AD1CE600BF00A4FF1F7B
:1039A000268EFF1FD48DFF1F5DA4FF1F9CA4FF1F49
:1039B00040A4FF1F2DE9F04F3A4B1B788BB0002B32
:1039C0006BD10E200AF05CF80EF0FAF90146364889
:1039D000364C374DFCF7AEFD3348FCF781FD0EF059
:1039E00009FC80F30C002060FFF708F92E68012E17
:1039F0007AD0022E00F0CB82032E00F078842D4C7A
:103A00002D4E23682D4A2E4C0993099B216812885C
:103A10003360591A013A9142274F00F2B382294C80
:103A200022689A1A092A00F29982274C22689A1A67
:103A30000D2A00F28E82254C22689A1A252A1AD95C
:103A4000234B1B88002B40F09781224B1B78002BC7
:103A500040F09281FEF748F91F4B1B881B3B9BB23D
:103A6000022B04D81D4B1B78002B40F0888102F0FC
:103A7000FBFB336823601A4C22689B1A502B00F220
:103A80000682184B1B88012B00F0218205F038FCC0
:103A900005F0F2FA0BB0BDE8F08F06F0C1FE0BB0F6
:103AA000BDE8F08FFAA1FF1F2CA2FF1F14A4FF1F77
:103AB00040A4FF1F8CA5FF1FF4A3FF1FD28DFF1F83
:103AC000D4A2FF1FB0A2FF1F80A2FF1F84A2FF1F6E
:103AD000D6A3FF1FF2A1FF1F46A4FF1FBAA1FF1F1D
:103AE000D0A3FF1F18A4FF1FDFF83893A94AB9F825
:103AF00000001378834204D0C3B21846137005F057
:103B0000F1FBDFF82483A44AB8F800301178994219
:103B100004D0A24F3978002940F09287A04A236848
:103B20001288A04C9A42C0F289819F4A1278002ADA
:103B300040F08481DFF8F4A2BAF8003023B99B4B3F
:103B40001B88002B00F0D485994A9A4B11881B885A
:103B5000994A0B4412685B109342984A126880F2AB
:103B60004E8500219342B4BF01230B46049102937A
:103B7000ACBF4FF0010B8B4605910E2009F080FF82
:103B80008F4B904A1B6803930133002B84461768C0
:103B900040F39987802BA8BF80238B4A8B491278EA
:103BA0000191002A00F054810978914200F050817F
:103BB000B8F80010DFF870E2994201F0A28177496D
:103BC000AEF80030824B4FF0010E81F800E019781A
:103BD000DFF85CE27F4B01981B7802708EF80010D2
:103BE000002B40F06783029B002B40F05E83A7F21E
:103BF00052339C4533DA6D4B1B88002B2FD0BBF121
:103C0000000F40F05783744B1B881BB1059B002BA2
:103C100040F05083049B13B3704B1A78FAB9DFF865
:103C2000149299F8006001221A70002E40F02D8540
:103C30006B4B1B78002B41F0F1826A4B1B78002BF9
:103C400001F00283684B1B784BB9684B1B7833B18A
:103C5000B8F8003051490A33A8F800300A700E2035
:103C600009F00EFF6FF454731F44874202DC5B4B74
:103C700000221A705E4B1B88002B00F0EA845D4B1B
:103C80005D4A1B781178994269D0002B67D057495B
:103C90000878002800F0F887584991F800C0BCF176
:103CA000000F40F0EF87564FDFF88CE1554EDFF8FC
:103CB00064A13F788EF800C04FF0010E02968AF89A
:103CC00000C086F800C081F800E03FB100260E7009
:103CD00002994FF0010E8AF800E00E704049097811
:103CE000002901F09180484E96F800E0BEF1000FE7
:103CF00041F0A181DFF80C814FF0010C88F800E061
:103D000086F800C0374E367896B1DFF82CE19EF881
:103D100000C0BCF1000F41F09481DFF8E0904FF05B
:103D2000010889F800C08EF80080002901F0718038
:103D30003649097899B133480178002941F08781E3
:103D4000DFF8B8E0324F334E8EF800104FF0030E1C
:103D500087F800E02C4F317001263970067013701F
:103D60002D4B1B88A3F11B02012A40F257861D2B05
:103D700000F0A286294E44E6FDF758FF6AE6284B7C
:103D80001B78002B3FF473AE2B68012B7FF46FAED2
:103D90006FE600BFB5A3FF1F88A2FF1FC1A1FF1FD1
:103DA000D8A2FF1F8CA5FF1FF2A1FF1FC0A2FF1FFB
:103DB00018A2FF1F10A4FF1F50A2FF1FECA1FF1F9E
:103DC0001CA2FF1FA8A1FF1F8CA4FF1F64A2FF1F3E
:103DD0008DA4FF1FBEA2FF1FECA3FF1F14A2FF1F95
:103DE000AEA4FF1FAFA4FF1FB0A4FF1FB1A4FF1F0D
:103DF000E2A3FF1F1AA2FF1F94A1FF1F08A4FF1F29
:103E0000B2A4FF1FDAA2FF1F95A1FF1FBAA1FF1FD7
:103E1000C88DFF1F5AA4FF1F46A4FF1FF4A3FF1F56
:103E20004AA4FF1FE0A3FF1F8EA4FF1F6CA2FF1F69
:103E300065A2FF1FCCA3FF1FC0A1FF1F21689A4AE4
:103E4000069106989949106002220B602A6071E67B
:103E50009749DFF8D4E2097800293FF4BBAE9EF819
:103E6000000081423FF4B6AE03984B2840F3F98737
:103E70001833802BB8F80000A8BF802398423FF485
:103E8000A9AE8C4803808C4801230370A2E603F09E
:103E900099FF8A4B1B788BB9894B1B7873B9894B77
:103EA0001B785BB9884B1B7843B9884B1B782BB9BF
:103EB000874B1B7813B902F0ADF901E002F0B6F9B7
:103EC00033682360834B1B88012B7FF4DFAD824A6C
:103ED000824B12681C688249824DA82303FB02F2C0
:103EE00002F5FF521F3281FB0231D0171144183CFA
:103EF0002A23C0EB613103FB04F07B4B002A7B4A91
:103F00001B781478ACBF5439553901446FF0140252
:103F100002FB03122A607648002C00F064810368DB
:103F20009A4200F32B8480F25E81724C2178002942
:103F300041F0608070490968D1F17F0148BF0331C9
:103F4000891001315B1A9A4200F34D8103601A46D1
:103F50004AE1FEF7F1F9336823606CE5674FFDF73E
:103F6000AFFAFDF7EDFE3B88032B00F0B785042B7D
:103F700000F0B085624B1B88032B00F0A7853368E7
:103F8000236052E5FDF7ECF93B68236047E55D4BA4
:103F900026681A88B24204DB4D4B1B78002B00F0D8
:103FA0002784594C404823680793584B0799006869
:103FB0001B88091A994200F2BD80002B00F0BA80DC
:103FC000534B198800293FF4D5AE384B51481B6834
:103FD0000088B342B8BF33469A4201F38E804E4AFE
:103FE0008342A8BF03461360DFF8408188F80010C1
:103FF0003A4FFDF7B5F938687F2840F32786474ADE
:10400000A0F17F0382FB0320DA17C2EB600000EB14
:104010004000A3EB80007330414B01931B88386054
:10402000002B40F05887DFF89CA09AF80030002B56
:1040300000F083843B4E3378002B00F07E84DFF861
:10404000F0904FF0000B0CE003F17300C0B298F851
:10405000001005F0DFF933780BF1010B5B4540F3FD
:104060006C843B6859F8040F18442C4BA0F17F0274
:1040700083FB0231D317C3EB610303EB43037F28B8
:10408000A2EB8303E0DC0028E0DA244A434282FB0F
:104090000320DA17C2EB600000EB4000A3EB8000C6
:1040A000C0F10C00D2E700BF78A2FF1FF0A3FF1FF2
:1040B0008DA4FF1F8EA4FF1FC1A1FF1FDAA2FF1F47
:1040C00008A4FF1F5AA4FF1F95A1FF1FC0A1FF1F37
:1040D000F2A1FF1F18A4FF1FCC8DFF1F9CA4FF1F80
:1040E00009000280A8A2FF1F24A4FF1F74A2FF1FC3
:1040F000C4A2FF1F64A4FF1F60A4FF1F1AA4FF1F18
:10410000B6A1FF1FD8A2FF1F8CA5FF1FBCA2FF1FD7
:1041100012A2FF1FACA1FF1F98A1FF1FABAAAA2AE2
:104120004CA2FF1F908DFF1F65A2FF1FA4A2FF1FBF
:10413000688DFF1FA04BA1491B680888A049B342A6
:10414000B8BF33469A4200F332839E4E09888342B9
:10415000A8BF0346336000297FF446AF9A42C8BF28
:10416000134640F32B83801A00F016879B1AC3EB8B
:10417000833300EBD07203EB620300FB03F2002AEF
:1041800093FBF0F0C1F24280FDF7D0F8C0F3C61007
:104190000DF016FE8C4B064618880DF011FE8B496B
:1041A000074630460DF060FE014638460DF05CFED5
:1041B00031460DF051FD4FF07E5106460DF0F2FFF5
:1041C000002840F08F87824930460EF009F8002819
:1041D00040F02E8730460EF033F8C0B2DFF8388258
:1041E00088F8000004E702607A4B1B88002B3BD064
:1041F000794951F82340002C00F0D7823368B3FB93
:10420000F4F104FB1133C3EBC30304EBD47103EBF0
:10421000031303EB610303FB04F1002993FBF4F3A5
:10422000C0F2BE866D4951F82310A1F2FF716C4BAC
:104230006C4C1B6803FB01F303F57D3101F56071E4
:10424000162303FB01F303F57D3303F5607384FB51
:104250000314D917C1EB6441002BACBFA1F10B03D0
:10426000A1F10C031A4402605F4B60481B8860494F
:1042700003F27C735B0002FB03F303F5FC6380FB3A
:1042800003020988D018DA17C2EBE022002BA1F153
:104290006401B8BF02F1FF324900114481F30C01FF
:1042A000282009F0A9FEFFF7F1BBBAF80030002B77
:1042B0003FF49DAC4F4B1B685A1C002A40F3AD8164
:1042C000802A00F3A9814C4E4C494D483688098814
:1042D00000683144B0EB610FC0F29586A3F148024B
:1042E0000F2A3FF6BCAC473BA9F80030B7E4454B7A
:1042F00020681988814240F39780434B1B78002B3C
:1043000040F09280DFF8149199F800007F280CDDCE
:104310003E4AA0F17F0382FB0320DA17C2EB600064
:1043200000EB4000A3EB80007330394B01931B88F6
:10433000C0B289F80000002B40F0BC86DFF8E0A096
:104340009AF80030002B00F0B084324E3378002B06
:1043500000F0AB84DFF8CCB02C4F4FF000080AE03F
:1043600003F17300C0B205F079F8337808F1010861
:10437000434540F39A845BF8043F99F800001844E1
:10438000A0F17F0287FB0231D317C3EB610303EB7C
:1043900043037F28A2EB8303E2DC0028E2DA4342F6
:1043A00087FB0320DA17C2EB600000EB4000A3EBB1
:1043B0008000C0F10C00D5E7F0A3FF1FACA1FF1FE8
:1043C00012A2FF1F98A1FF1FA0A1FF1FCDCCCC3DC3
:1043D0000000FE42AEA1FF1FB03901003C330100D6
:1043E00028A4FF1F491B8940A0A4FF1F8320088227
:1043F00070A4FF1F00A4FF1FDCA3FF1FD8A3FF1F93
:1044000024A2FF1FD8A2FF1FF2A1FF1FABAAAA2A56
:104410004CA2FF1F908DFF1FA4A2FF1FFEA3FF1F32
:104420005AA4FF1F688DFF1FB34F3B687F2B00F31B
:10443000C981002BC0F2EA85DFF8349399F8006057
:104440009E4200F00D82AD4B1B88002B46D1AC4B39
:10445000AC4A1B681088994240F399850B46401A74
:1044600000F06585591AC1EB813100EBD07301EB87
:10447000630303FB00F2002A93FBF0F0C0F2C38653
:10448000FCF754FFC0F3C6100DF09AFC9E4B80461B
:1044900018880DF095FC9D49824640460DF0E4FCDD
:1044A000014650460DF0E0FC41460DF0D5FB4FF0C3
:1044B0007E5180460DF076FE002840F0F885944944
:1044C00040460DF08DFE002840F0AF8540460DF0CF
:1044D000B7FEC0B2DFF89C8288F800007F2E0DDDA9
:1044E0008C4BA6F17F0083FB0036C317C3EB66033A
:1044F00003EB4303A0EB830303F17306DFF848A249
:104500009AF80030F0B289F80000002B40F0FC82ED
:10451000814B03931B78002B40F000857F4B029367
:104520001B78002B40F0E1857D4B0193029B1B78AB
:10453000002B40F0BF849AF80030002B00F08384F9
:10454000019B774E1A88002A00F0E18438687F28A2
:1045500040F3C9826F49A0F17F0381FB0310D91793
:10456000C1EB600000EB4000A3EB800073303860CB
:10457000002A40F087849AF80030002B00F07F81F9
:10458000684E3378002B00F07A81674ACDF810909E
:10459000DFF8E081B9464FF0000B17460CE003F15D
:1045A0007300C0B298F8001004F034FF33780BF1B8
:1045B000010B5B4540F36081D9F8003057F8040FD8
:1045C0001844544BA0F17F0183FB013ECB17C3EB92
:1045D0006E0303EB43037F28A1EB8303DFDC00289A
:1045E000DFDA4C4B414283FB0130CB17C3EB600356
:1045F00003EB4300A1EB8003C3F10C00D1E793422E
:104600004FF0000B80F2EC800123CDF808B0CDF81C
:1046100014B00493FFF7B1BA80264449444B454A8D
:1046200009881B8812680B44B2EB630FBFF617AB07
:10463000414B1B78002B40F0A883B8F800303F4A6C
:10464000B3423FF40CAB3E4B168001221A70FFF7C9
:1046500006BB324F3B4E3C482F493C4A3B703370BF
:1046600003700B70FFF77BBB394B1B78002B7FF47B
:10467000F6AA039B374A243B83F34703D9B25B2056
:10468000136004F097FE99F80060032E30D1DFF834
:10469000E88098F80030002B40F030862E4F3B78B1
:1046A000002B40F01E862A4E3378002B40F00C86FB
:1046B0002A4B1B78002B40F0FA85294A1380294B9E
:1046C0001B78002B40F0E6850C4B7F221A8098F86F
:1046D00000306BB93B785BB933784BB9224A7F2104
:1046E0000720138004F066FE7F210B2004F062FE99
:1046F0001E4B1F68FFF7B3BA9CA4FF1F12A2FF1F37
:1047000098A1FF1FACA1FF1FA0A1FF1FCDCCCC3DE6
:104710000000FE42ABAAAA2A95A1FF1FDAA2FF1F42
:104720004CA2FF1F908DFF1F688DFF1FDCA3FF1F92
:10473000D8A3FF1F24A2FF1FBAA1FF1F8EA4FF1F33
:10474000C1A1FF1F08A4FF1F5AA4FF1FC0A1FF1F84
:10475000B1A4FF1F74A4FF1FB0A4FF1FAFA4FF1FCD
:10476000CAA2FF1FB2A4FF1FFCA3FF1FA8A1FF1F27
:10477000FEA3FF1FA4A2FF1FAEA4FF1FB84C217809
:10478000002940F01183B7490968D1F17F0148BF82
:10479000033103EBA1030133B34903609A42B8BF6D
:1047A0000A60FFF621AD1A461EE56B213FE5AF4BCF
:1047B00009881A6000297FF417AC13468342A8BF0A
:1047C0000346D0E4AA4EA3F17F0286FB0236D3173C
:1047D000C3EB660303EB4303A2EB830373332BE6C4
:1047E0000123CDF810B0CDF808B00593FFF7C5B997
:1047F00001232B609F4CA04EFFF703B94F46DDF815
:104800001090029B1B78002B40F04B83019B1B8870
:10481000002B00F040839AF800303BB9039B1B78D3
:1048200023B9029B1B78002B00F0E384934B1B7889
:10483000002B00F0038192490B78082B00F2FE80D8
:1048400090483A680068904E0133DBB25F1E101A40
:1048500046F827000B708D4B2068198889F80020D6
:104860008842844C7FF786AA2268894B0892089A6E
:10487000814E1A60FFF7C5B84F46DDF81090039BD4
:104880001B78002BBDD03B68A3F10C007F2840F3C0
:104890005283774A8B3B82FB0321DA17C2EB61021A
:1048A00002EB4202A3EB820303F17300DFF8048200
:1048B000C0B298F8001004F0ADFD9AF80030002B5B
:1048C0009FD06F4E3378002B9BD0724ACDF810905A
:1048D0004FF0000BB94617460BE002F17300C0B26F
:1048E00098F8001004F096FD32780BF1010B5A4550
:1048F00084DDD9F8002057F8040F5D4B1044A0F177
:104900008B0183FB013ECA17C2EB6E020C3802EB2F
:1049100042027F28A1EB8202DFDC0028DFDA544B61
:10492000424283FB0230D117C1EB600000EB400034
:10493000A2EB8000C0F10C00D1E7504B1B78002B9C
:1049400040F0BE82544B1B78002B51D03B68A3F142
:104950000C007F2840F32C83454A8B3B82FB0321CC
:10496000DA17C2EB610202EB4202A3EB820303F10E
:104970007300C0B298F8001004F04CFD9AF80030B3
:10498000B3B33F4E33789BB3DFF808B1DFF8E09064
:104990004FF0000A0BE003F17300C0B298F800106A
:1049A00004F038FD33780AF1010A534520DD3B68F5
:1049B0005BF8040F1844A0F18B0189FB0123CA178F
:1049C000C2EB63030C3803EB43037F28A1EB8303A3
:1049D000E1DC0028E1DA434289FB0320DA17C2EB6D
:1049E000600000EB4000A3EB8000C0F10C00D4E7B6
:1049F0002A4B1B78002B40F08082019B1B88002BE8
:104A000000F07582264B1B78002B40F06B82254B03
:104A10003A681A7003232B60FFF7ACB9DFF8908077
:104A200098F80030002B40F023811F4F3B78002B7B
:104A300040F06783104E3B70FEF7E3BF3A680AE729
:104A4000DBB21846137004F073FD0C491748124A84
:104A500000230B703B7003701370FFF75FB800BF4B
:104A600064A4FF1F60A4FF1FC4A2FF1F98A1FF1F23
:104A7000ABAAAA2A8CA5FF1FF4A3FF1F08A4FF1F3F
:104A8000908DFF1FE8A1FF1F6C8DFF1FD8A2FF1F95
:104A900048A5FF1F688DFF1F95A1FF1FDAA2FF1F0A
:104AA000C0A1FF1FFEA3FF1FB8A1FF1F5AA4FF1F35
:104AB000BAA1FF1FA4A2FF1FC24AC34B12781A70EB
:104AC000C24EFEF79EBF0123FFF767B8FCF762FBFB
:104AD000FFF755BAFCF71AFBFFF74CBAFCF7B8FA28
:104AE0003B88FFF744BA0028BFF641ADB8494342BE
:104AF00081FB0310D917C1EB600000EB4000A3EB72
:104B00008000C0F10C0032E5B24B01931B88002BF2
:104B100040F00084B04B0393B04B0293B04E337817
:104B2000002B39D0DFF8D8824FF0000B09E003F1F9
:104B30007300C0B204F092FC33780BF1010B5B45BB
:104B40002ADD58F8043F99F800001844A04BA0F162
:104B50007F0283FB0231D317C3EB610303EB4303F3
:104B60007F28A2EB8303E2DC0028E2DA984A434282
:104B700082FB0320DA17C2EB600000EB4000A3EBDE
:104B80008000C0F10C00D4E7944B029304F066FC63
:104B90009AF80030002BC1D1039B1B78002B3FF407
:104BA000C5AC99F80030A3F10C007F2840F3DE81FA
:104BB000874A8B3B82FB0321DA17C2EB610202EBCF
:104BC0004202A3EB820303F17300C0B204F046FC7F
:104BD0009AF80030002B00F0BF81814E3378002B13
:104BE00000F06381DFF818824FF0000B0AE003F158
:104BF0007300C0B204F032FC33780BF1010B5B455B
:104C00007FF794AC58F8043F99F800001844704BB3
:104C1000A0F18B0183FB0123CA17C2EB63030C389D
:104C200003EB43037F28A1EB8303E0DC0028E0DAF9
:104C3000674A434282FB0320DA17C2EB600000EBB5
:104C40004000A3EB8000C0F10C00D2E70028BFF6C3
:104C5000E3A95F4A434282FB0320DA17C2EB6000FC
:104C600000EB4000A3EB8000C0F10C00FFF7D4B9CB
:104C70005C4A1278002A40F0EE81534F534E3B704D
:104C8000FEF7BFBE00260E7057490F78002F3FF485
:104C900025A8DFF870A19AF80010002900F0A4827E
:104CA00000218AF80010FFF719B84B4B1B78002B36
:104CB0004ED099F80030A3F10C007F2840F35A82BF
:104CC000434A8B3B82FB0321DA17C2EB610202EB02
:104CD0004202A3EB820303F17300C0B204F0BEFBF7
:104CE0009AF80030A3B33E4E33788BB3DFF810A1AF
:104CF000374F4FF0000809E003F17300C0B204F031
:104D0000ADFB337808F10108434521DD5AF8043F33
:104D100099F800001844A0F18B0187FB0123CA1702
:104D2000C2EB63030C3803EB43037F28A1EB83033F
:104D3000E2DC0028E2DA434287FB0320DA17C2EB09
:104D4000600000EB4000A3EB8000C0F10C00D5E751
:104D5000224B1B78002B40F0C081019B1B88002B4D
:104D600000F0B681214B1B78002B40F0AC81204B2A
:104D70001B78002B40F0A2811E4B1F4A1988206827
:104D80000123002414602B606AE54B2E40F321813F
:104D90001836802EB8F80030184AA8BF8026B342D3
:104DA0007FF451ACFEF75BBF0131C9B2022903D8D1
:104DB00021701A46FFF718BA002222701A46FFF730
:104DC00013BA00BFBAA1FF1FB8A1FF1FF4A3FF1FB2
:104DD000ABAAAA2A4CA2FF1F95A1FF1FDAA2FF1FB0
:104DE000908DFF1F4AA4FF1FB2A4FF1F08A4FF1F3E
:104DF000C0A1FF1FD8A2FF1F98A1FF1F8EA4FF1FF5
:104E0000688DFF1F5AA4FF1FC34E3678002E7EF414
:104E10007CAF00287EF48CAF002F7EF489AF002E8B
:104E20007EF486AFBD49097800297EF484AFBC4882
:104E3000BC4906700E70BC4FBC48BD493E70067040
:104E40000E70FEF78CBF039B1B78002B7FF478ABB2
:104E5000029B1B78002B7FF473AB019B1A88FFF732
:104E600075BB243B002BB8F8000040F3B881984292
:104E70003EF4B0AE9BB2AF48A8F8003001230370F7
:104E8000FEF7A8BEDFF8B082C0B298F8001004F0B8
:104E9000C1FAFFF770BBA84B3878197804F0BAFA5A
:104EA000B9E43878FBF768FDB0E4029B1B78002B6F
:104EB0003FF446AB99F80000FBF72CFFFFF73BBB34
:104EC0007F21402004F076FA9C4A9D4B396811609E
:104ED00000221A7036E5C0B298F8001004F09AFA71
:104EE000FFF7A1B87F21422004F064FA8FE598F81B
:104EF0000010387804F08EFA84E53878FBF73CFD32
:104F00007BE5904BDFF864E21978FEF763BE99F811
:104F1000000004F0A3FA3288FFF718BB8A4B019314
:104F20001B88002B7FF430AE804B029339E641F6AC
:104F3000FF70FFF7A5BA0028BFF6B8AC834B42421A
:104F400083FB0230D317C3EB600303EB4303A2EBF5
:104F50008303C3F10C00A9E4029B1B78002BA9D1A9
:104F6000039B1B78002B7FF4EBAA76E70028BFF6A3
:104F70002CAE764B424283FB0230D317C3EB600367
:104F800003EB4303A2EB8303C3F10C001DE6834252
:104F9000A8BF0346FFF763BA41F6FF70FFF7F4B806
:104FA0006B49013B51F82330A3F2FF71FFF73FB982
:104FB0000028BFF6DEAC654B424283FB0230D317BC
:104FC000C3EB600303EB4303A2EB8303C3F10C00C9
:104FD000CFE4243E002EB8F8003040F31A81B342EB
:104FE0003EF43DAEB6B2534BA8F8006001221A70F1
:104FF000FEF735BE4A1CD2B2022A3FF6DDAE227061
:105000001A46FFF7F1B81646FFF712BB4F4E5A4249
:1050100086FB0236D317C3EB660303EB4303A2EB15
:105020008303C3F10C03FFF707BA7F20FFF752BADF
:105030007F20FFF7D3B84FF0000E86F800E0FEF7B0
:1050400061BE4FF0000C8EF800C0FEF76EBE00216E
:105050000170FEF784BE3F4F387801F073F93E4B84
:105060001B78002B00F09E803B887E2B00F29A80FC
:105070003A4EDFF8FC903268D9F80010521A0F2A25
:1050800040F28A80364A0133108899B2398000286C
:1050900000F0A180C9B2C0B204F08CF9314F32687F
:1050A00098F80030C9F800203B70FEF7AABC012038
:1050B000FFF710BA04F0D2F9FFF740B900214220FF
:1050C00004F078F958E60021402004F073F94EE628
:1050D00099F8000004F0C2F944E699F80000FBF7E3
:1050E00019FE3AE60120FFF779B8174B01931B88A8
:1050F000002B7FF44BADFFF719BA1B4B1A60FEF77C
:1051000073BF144B154E19886A2004F0CFFA98F833
:1051100000303B70FEF775BCAFA4FF1FBAA1FF1FA4
:1051200008A4FF1F5AA4FF1F95A1FF1FDAA2FF1FAB
:10513000C0A1FF1FC1A1FF1FA4A2FF1FE8A1FF1F65
:10514000908DFF1F8DA4FF1F4CA2FF1FABAAAA2AA0
:105150003C33010022A2FF1FB3A4FF1FF4A3FF1FD3
:1051600090A2FF1FB8A1FF1F98A1FF1F65A2FF1FFC
:1051700094A4FF1F0028BFF6B0AD694B424283FBE9
:105180000230D317C3EB600303EB4303A2EB8303AB
:10519000C3F10C00A1E5634E634F98F800303B70FB
:1051A000FEF72FBC614B1B78002BF4D03B88604F7F
:1051B000002BF0D05B4EDFF8A8913268D9F80010D0
:1051C000521A0F2AE8D95B4A013B108899B23980FC
:1051D00000287FF45FAFC8B204F08CF95EE70128C5
:1051E0003EF4F8AC012346E6534E54490296FEF7CE
:1051F0006DBD4FF47A43013BFDD199F8000004F0F6
:105200002DF9FFF713BB0138FFF73AB90138FEF764
:10521000BBBF012B3EF423AD0126E4E6484B1B78CF
:105220002BB3484B1B78002B7EF419AD464B1B78F3
:10523000002B3EF414ADB8F8003044490A3BA8F8FE
:1052400000300A70FEF70BBD3E4B1B78002B7FF43D
:105250000BAA3D4B1B78002B3EF401ADB8F8003093
:105260003A490133A8F800300A70FEF7F8BC354B14
:105270001B78002B7EF4F3AC334B1B78002B3EF4F1
:10528000EEACB8F800303149013BA8F800300A70A4
:10529000FEF7E5BC2E4B00227F2107201A8004F088
:1052A00089F87F210B2004F085F8FFF710BA294B0D
:1052B00001227F2107201A8004F07CF87F210B2037
:1052C00004F078F8FFF7FBB9234B04227F21072075
:1052D0001A8004F06FF800210B2004F06BF8FFF740
:1052E000E7B91D4B02227F2107201A8004F062F8E3
:1052F0007F210B2004F05EF8FFF7D5B9164B002193
:1053000007201E8004F056F87F210B2004F052F88D
:10531000FFF7C4B9114B0393074B029336E400BF68
:10532000ABAAAA2AF4A3FF1FB8A1FF1FB2A4FF1FB4
:1053300022A2FF1F90A2FF1FDAA2FF1F08A4FF1FD7
:10534000AFA4FF1FB0A4FF1FB1A4FF1FC1A1FF1F87
:1053500012A2FF1FCAA2FF1FFCA3FF1F95A1FF1FE0
:1053600094A4FF1F38B508F027FC0E4805F0C2FFD3
:105370000D4805F0BFFF0D4805F0BCFF00234FF0BE
:105380007E5201210A48FBF771F80A4B0A4A0B4981
:10539000802400251C7118461D60BDE838400BF0C4
:1053A00085BF00BFB8A3FF1F54A2FF1FD0A2FF1FDD
:1053B0002CA2FF1F68A4FF1F0C8DFF1FF50F00001C
:1053C00010B50446A4206368198804F06FF9E368F7
:1053D000A6201988BDE8104004F068B943682A2067
:1053E000198804F063B900BF10B504462220636831
:1053F000198804F05BF9E36824201988BDE810409F
:1054000004F054B910B504460A206368198804F002
:105410004DF9E3680C201988BDE8104004F046B946
:1054200010B5044606206368198804F03FF9E36864
:1054300008201988BDE8104004F038B910B50446BA
:1054400002206368198804F031F9E36804201988A0
:10545000BDE8104004F02AB970B50E4C84B0122596
:105460000422012306460390029320468DE824007F
:105470001423102107F012FE06220923029303963B
:105480000195204600921423102107F007FE04B076
:1054900070BD00BFE0A4FF1FF8B5B04CB4F90030F8
:1054A000032B00F01381002B6AD0022B00F08A80BE
:1054B000052B00F0B580012B00F0DD80042B00D01F
:1054C000F8BDA74FA74E00254FF4AF74E9B2A64828
:1054D00005F03AFF57F8043BC3F5967300FB03F061
:1054E00086FB0023C017C0EB6310844205F1010561
:1054F000A8BF0446062DE9D19C4F9A4E0025E9B27B
:105500009B4805F021FF57F8043BC3F5967300FB59
:1055100003F086FB0023C017C0EB6310844205F143
:105520000105A8BF04460C2DE9D1924F8D4E0025F0
:10553000E9B2914805F008FF57F8043B894AC3F5E2
:10554000967300FB03F086FB0013C017C0EB6310DB
:10555000844205F10105A8BF04460C2DE8D1A4F151
:105560001401312900F3A38040F26C723221834888
:10557000834B01801A602A20BDE8F84004F096B8F9
:105580000E2008F07DFA40F6FF71C8308842A8BFAF
:10559000084620EAE07000F2DC5283B28A42794D7C
:1055A000794EA8BF0A460220194633802A8004F0AB
:1055B0007DF82988042004F079F8B4F90030022B32
:1055C0007FF476AF012009F0A1FF0546002009F025
:1055D0009DFFA842B8BF284600F1C801B1F5FA7F87
:1055E000C0F2B580B1F57A6FA8BF4FF47A6101F5CA
:1055F0004873B3F57A6FA8BF4FF47A639BB289B250
:10560000624A634D11800A202B8004F04FF82988EC
:105610000C2004F04BF8B4F90030052B7FF44BAFAD
:105620000F2009F073FFC0F53F630433B3F5AF6F8C
:10563000C0F28A80B3F5FA6FA8BF4FF4FA6399B24B
:10564000544BC0F54360B0F5AF6F198062DBB0F525
:10565000FA6FA8BF4FF4FA6083B24F4DA4202B809D
:1056600004F024F82988A62004F020F8B4F90030CA
:10567000012B7FF423AF152008F002FA00F5967194
:10568000B1F52F7F4EDB41F25C23994264DC434A43
:1056900000F5617089B2B0F52F7F1180B8BF4FF46B
:1056A0002F7345DB8342A8BF03469BB240E040F224
:1056B0003A73A4F5B97403FB04F4963C82FB0432FC
:1056C000E417A4EB621289B2323250E7102009F0DD
:1056D0001DFFC830B0F5FA7F1FDBB0F57A6F0146C9
:1056E000A8BF4FF47A6101F51673B3F57A6FA8BFBE
:1056F0004FF47A639BB289B2294A2A4D1180222045
:105700002B8003F0D3FF2988242003F0CFFFB4F9C6
:105710000030C8E64FF4AF639FE740F24C434FF4CC
:10572000FA71E9E740F214534FF42F711B4A1180CC
:105730001D4D06202B8003F0B9FF2988082003F0B7
:10574000B5FFB4F90030B9E64FF4AF6178E740F245
:1057500014534FF4FA7153E71946E7E7BEA4FF1F4D
:10576000588EFF1FB5814E1BB8A3FF1F288EFF1F49
:1057700054A2FF1F308DFF1FD0A2FF1F78A4FF1F70
:10578000148EFF1FACA1FF1FD8A2FF1F10A4FF1F84
:1057900018A2FF1FDCA2FF1F2CA4FF1F70A2FF1F77
:1057A000DCA3FF1FD8A3FF1F44A4FF1F2DE9F04176
:1057B000224D82B0012602B284B2009228460196A0
:1057C0007823192107F0B0FB04F10C0212B28DE826
:1057D00044002846A7197823192104F1020807F08C
:1057E000A3FB3FB20FFA88F819233A462846194618
:1057F0000196CDF8008007F097FB78233A462846BB
:105800001946CDF80080019604F10A070B3407F021
:105810008BFB3FB224B278233A46284619468DE8DE
:10582000500007F081FB192300943A460196284660
:10583000194607F079FB02B0BDE8F081E0A4FF1F34
:1058400030B583B000230C4605B2009326225B23BB
:105850001C210C4807F0B8F82946012326220948E4
:1058600006F0CEFB002C24B205DB214601232622C4
:10587000044806F0C5FB044A044B15801C8003B0A5
:1058800030BD00BFE0A4FF1F728EFF1F748EFF1F8C
:10589000F0B5C64C237883B01BB1C54B4FF6FF72F1
:1058A0001A80C44BB3F9003003BBC34BC3481B6819
:1058B000BF495A2283F30C0302FB03F303F2FF7385
:1058C00080FB03201844DB17C3EBE020B1F9003064
:1058D0001C30834256D04FF0FF31FFF7B1FFB8487C
:1058E00007F0D6F80023237003B0F0BD012B25D0BC
:1058F000022B68D0032B4BD0042B00F0AB80052B80
:10590000F0D10F2009F002FEC0F53B600830B0F581
:10591000AF6F56DBB0F5FA6FA8BF4FF4FA60A0F591
:10592000AF625A2303FB02F3A64803F5967380FB8C
:105930000320DB17C3EBA0101C301EE0A24B1B782A
:10594000002B7DD0152008F09BF8A04B1860B0F517
:105950002F7F36DB41F25C239842A8BF1846A0F5A2
:105960002F705A2303FB00F3994803F5FA6380FB79
:105970000320DB17C3EB20201C308D4BB3F9003024
:105980008342A8D1934BB3F900300133A3D1A9E7E7
:10599000914B1B68B3F5FA7F13DBB3F57A6FA8BFA1
:1059A0004FF47A63A3F5FA725A2303FB02F38B4890
:1059B00003F2D66380FB0320DB17C3EB60201C30AF
:1059C000DBE71C20D9E7864B1B68B3F5FA7F3FDB8A
:1059D000B3F57A6FA8BF4FF47A63A3F5FA725A232E
:1059E00003FB02F37D4803F2D66380FB0320DB1741
:1059F000C3EB60201C307B4B1B68B3F5FA7F25DBC3
:105A0000B3F57A6FA8BF4FF47A63A3F5FA725A23FD
:105A100003FB02F3714903F2D66381FB0321DB1719
:105A2000C3EB61211C31624BB3F9003083427FF438
:105A300054AF684BB3F900308B427FF44EAF51E75F
:105A4000112009F063FD614B186080E71C21EAE733
:105A50001C20D0E7252200258DE8240076231C2178
:105A60005748614E574F07F05FFA17E0B0F5AF7F28
:105A7000A8BF4FF4AF70323802FB00F0963087FBBE
:105A80000031C017C0EB61111C3109B201231D4464
:105A900025224B4806F0B4FA0C2D14D0E9B2534835
:105AA00005F052FC56F8043BC3F5967300FB03F077
:105AB00087FB0013C017C0EB631031284FF05A0268
:105AC000D4DC1C21E2E7262200258DE82400762381
:105AD0001C213B48464E3B4F07F026FA17E0B0F535
