:1000000000800020BD01000075E6000031E6000020
:1000100031E6000031E6000031E6000031E6000084
:1000200031E6000031E6000031E6000075E6000030
:1000300075E6000031E6000061DA000065DA0000D4
:1000400075E6000075E6000075E6000075E6000044
:1000500075E6000075E6000075E6000075E6000034
:1000600075E6000075E6000075E6000075E6000024
:1000700075E6000075E6000075E6000075E6000014
:1000800075E6000075E6000075E6000075E6000004
:1000900075E6000075E6000075E6000075E60000F4
:1000A00039B5000045B5000075E6000075E60000B2
:1000B00075E6000075E6000075E6000075E60000D4
:1000C00075E6000075E6000075E6000075E60000C4
:1000D00075E6000075E6000075E6000075E60000B4
:1000E00075E6000075E6000075E6000075E60000A4
:1000F00075E6000075E6000075E6000039F60000C0
:1001000075E6000081FD000075E6000075E6000060
:1001100075E6000075E6000075E6000075E6000073
:1001200075E6000075E6000075E6000075E6000063
:1001300075E6000075E6000075E6000075E6000053
:1001400075E6000075E6000075E6000075E6000043
:10015000FDDE000019DF000035DF000051DF000088
:1001600075E60000FD00010075E6000075E6000080
:1001700075E6000075E6000075E6000075E6000013
:1001800075E6000075E6000075E6000075E6000003
:1001900075E6000075E6000075E6000075E60000F3
:1001A00075E6000075E6000075E6000075E60000E3
:1001B00075E6000075E6000075E60000574B4CF24E
:1001C000205210B5DA814DF62812DA8100BF00BF47
:1001D0000EF054FA524B4FF010621A63514A9A6370
:1001E000514ADA63514A136913F4807303D153619E
:1001F0004FF4A85313614E4B9A78110703D59A78A0
:1002000042F008029A704B4B4B482A221A704B4B13
:10021000DA1C121AC11E22F00302994288BF002282
:1002200047490EF031F9474B4748DA1C121AC11EF4
:1002300022F00302994288BF0022002112F0A0F9A7
:10024000424943484FF4DE720EF01EF9414B424AD8
:10025000802103F8011B9342FBD14FF0E0233C4A7D
:10026000C3F8082D3D4B8A221A70A3F5805324222F
:100270005A70A0221A709A799207FCD59A79D406FE
:10028000FCD4374B9A7902F00C02082AFAD10322E7
:100290001A7140225A719A799006FCD5304A9379A6
:1002A0005906FCD51E4B2F4959640221996420211F
:1002B0001170917901F00C010C29FAD12A4A5A6087
:1002C0004FF0E023294A5A6100229A6107221A61FD
:1002D000274AC3F8202D62B60EF02CFB134B5B6946
:1002E000DA0705D523480EF019FB234B234ADA61C0
:1002F000234B1B785B0609D51F4C204BE2699A42C1
:1003000004D11C480EF00AFB0023E3610EF0BCF997
:1003100012F018FA0EF0B0F8FEE700BF002005401A
:1003200000800440823F04000100002B00D0034005
:1003300000D0074000E00740308CFF1FF098FF1FFF
:10034000346001004CA4FF1FF098FF1F0000000064
:100350000082FF1F00E400E05FE400E00050064080
:100360000040064000000301C0100500FF760100B8
:10037000000020204762FC6600E00340A5C3945AB9
:1003800000F00740FFFFFFFFFFFFFFFFFFFFFFFF42
:10039000FFFFFFFFFFFFFFFFFFFFFFFFFFFFFFFF6D
:1003A000FFFFFFFFFFFFFFFFFFFFFFFFFFFFFFFF5D
:1003B000FFFFFFFFFFFFFFFFFFFFFFFFFFFFFFFF4D
:1003C000FFFFFFFFFFFFFFFFFFFFFFFFFFFFFFFF3D
:1003D000FFFFFFFFFFFFFFFFFFFFFFFFFFFFFFFF2D
:1003E000FFFFFFFFFFFFFFFFFFFFFFFFFFFFFFFF1D
:1003F000FFFFFFFFFFFFFFFFFFFFFFFFFFFFFFFF0D
:10040000FFFFFFFFFFFFFFFFFFFFFFFFDEF9FFFF23
:100410000548064B1B1AD90F01EBA301491002D066
:10042000034B03B118477047F098FF1FF098FF1F68
:100430000000000008B5054B1BB105490548AFF3A6
:100440000080BDE80840FFF7E3BF00BF00000000E8
:10045000F098FF1F2C60010038B504460846207054
:100460000A4910461D4611F039F901464FF07E50F9
:1004700011F0E8F9064911F031F9E5606060256195
:1004800065610EF0A3FCE061204638BDDB0FC9407A
:100490000024744938B50446084620700A491046BD
:1004A0001D4611F01BF901464FF07E5011F0CAF9BC
:1004B000064911F013F9E5606060256165610EF091
:1004C00085FCE06138BD00BFDB0FC94000247449E2
:1004D000037810B50446032B21D8DFE803F0191E7A
:1004E0001102C168406910F0EFFF0E4903466068D1
:1004F0001C4611F0A7F90146204611F0A3F910BDE2
:100500000849406811F09EF9E16811F0E7F810BD64
:10051000C168406910F0D8FF10BDC06810BD002050
:1005200010BD00BF00247449F8B504460E460EF015
:100530004DFCE3690546C01A11F07CF8E768A0613C
:100540000146E56160686661276111F07BF901464B
:10055000A0600E4811F076F910F034FE0546014611
:100560004FF07E5010F0B0FF314611F0B7F8294639
:100570000646384611F0B2F80146304610F0A6FFA4
:10058000E0602046BDE8F840FFF7A2BF000080BF52
:10059000036818470B680360704700BF0B6803606F
:1005A000704700BF704700BF10B504460DF05AFCFD
:1005B000204610BDF8B5044606981D460F46561A4B
:1005C00011F052FA401BF6B1A4EB070C002800FB17
:1005D0000CFC06EBD6730ADB0CEB630C0CFB06F38E
:1005E000002B9CFBF6FC0CEB050011DBF8BDACEB23
:1005F000630C0CFB06F3002B9CFBF6FC0CEB0500DC
:10060000F4DB0130F8BD00EBD07005EB6000F8BD05
:100610000138F8BDBDF800C0521AACEB030C1CD079
:10062000401ABCF1000F0CFB00F002EBD27109DBA9
:1006300000EB610000FB02F1002990FBF2F018448E
:1006400010DB7047A0EB610000FB02F1002990FB7A
:10065000F2F01844F5DB013070470CEBDC7C03EB67
:100660006C00704701387047DDF800C0521AACEBDF
:10067000030C1CD0401ABCF1000F0CFB00F002EB85
:10068000D27109DB00EB610000FB02F1002990FB55
:10069000F2F0184410DB7047A0EB610000FB02F1A0
:1006A000002990FBF2F01844F5DB013070470CEBA9
:1006B000DC7C03EB6C0070470138704738B50B8861
:1006C000182B0D46044607D1294B1B7805EB430533
:1006D0006B88182B14D138BD0344A3F118007F2870
:1006E00023DD244A973BA2FB0312D20802EB42020D
:1006F000A3EB820303F17300C0B208F0F5FBE3E75C
:100700001C44A4F118007F281EDD1A4B973CA3FB64
:100710000423DB0803EB4303A4EB830404F173001D
:10072000BDE83840C0B208F0DFBB0028E4DA114A67
:10073000C3F11803A2FB0312D20802EB4202A3EB9F
:100740008203C3F10C00D7E70028E9DA094BC4F1B2
:100750001804A3FB0423DB0803EB4303A4EB83048B
:10076000C4F10C00C0B2BDE8384008F0BDBB00BF0A
:10077000BF8DFF1FABAAAAAA38B50C46054634F8B0
:10078000023B182B1DD134480378013303F00302D8
:100790000270134634F81220182A28D14FF0040CA6
:1007A000591C032BCAB215BF1346224604EB420262
:1007B000002303701288182A19D1BCF1010CEFD163
:1007C00038BD0344A3F118007F2827DD234A973B57
:1007D000A2FB0312D20802EB4202A3EB820303F155
:1007E00073001F4BC0B2197808F040FBCBE71544EB
:1007F000A5F118007F2820DD184B973DA3FB0523AA
:10080000DB0803EB4303A5EB830505F17300144BF1
:10081000C0B21978BDE8384008F028BB0028E0DAFB
:100820000E4AC3F11803A2FB0312D20802EB4202E4
:10083000A3EB8203C3F10C00D3E70028E7DA074BF0
:10084000C5F11805A3FB0523DB0803EB4303A5EB68
:100850008305C5F10C00DAE7BF8DFF1FABAAAAAA7A
:10086000F69BFF1F38B50E202B4D0DF0FFFC29889D
:100870002A4B81421B88044633DD5B1A0A4636D078
:10088000521AC2EB023203EBD37102EB610292FB0C
:10089000F3F102FB03F3002B3ADB14200EF09CF87B
:1008A0001F4B1B889BBB2A88A24223DC40F6FF73A8
:1008B0009C42A8BF1C46C2F57F630F3303B3A11A45
:1008C000C1EB013103EBD37201EB620101FB03F2D7
:1008D000002A91FBF3F11DDBBDE8384028200EF023
:1008E0007BB883421A46A8BF02465B1AC8D140F2C1
:1008F000FF71D2E7C2F57F630F331446002BDED1C0
:10090000BDE8384040F2FF7128200EF065B838BDD0
:100910000139C2E70139DFE74E9AFF1F4C9AFF1FEA
:10092000849AFF1F38B50F200FF0EEFA214B2249B1
:100930001B880860C0F53B6208329A4218DB1F49E9
:100940000988C81A22D08A42D4BFC3EB0203C3EB82
:100950000103C3EBC31300EBD07203EB620404FB8F
:1009600000F3002B94FBF0F4B8BF04F1FF3474B92A
:10097000134C237803B938BD124B0021187808F0C6
:1009800037FA0023104A2370136038BD3F240C4B04
:100990001A780AB901221A700B4D2B68A34201D1B3
:1009A0002C6038BD074BE1B2187808F021FA2C60B2
:1009B000F7E700BF289BFF1F209BFF1F1C9BFF1F0B
:1009C0001A9BFF1F169BFF1F549BFF1F38B5254B1B
:1009D0001B782BB315200DF049FC234B234A1B88B1
:1009E0001060834218DC224A1288D11A26D0824233
:1009F000D4BFC3EB0203C3EB0003C3EBC31301EB90
:100A0000D17203EB620404FB01F3002B94FBF1F4BD
:100A1000B8BF04F1FF3494B9164C237823B938BD1C
:100A200011200FF071FAD8E7134B0021187808F065
:100A3000DFF90023114A2370136038BD3F240D4BAA
:100A40001A780AB901221A700C4D2B68A34201D101
:100A50002C6038BD084BE1B2187808F0C9F92C6059
:100A6000F7E700BF0D9AFF1F889BFF1F109AFF1F1B
:100A7000869BFF1F0C9AFF1F089AFF1F3C9BFF1FBE
:100A8000F8B5724B724C1B88C31A054684FB0304ED
:100A9000D817C0EB640000EB4000A3EB800303EB2E
:100AA0004303980001EB830408582844AAB17F2827
:100AB0005CDD684B7F38A3FB0023DB0803EB4303BB
:100AC000A0EB83007330644F644E3978C0B208F0F5
:100AD000CDF93388022B57D8F8BD7F2838DD5D4B20
:100AE0007F38A3FB0023DB0803EB4303A0EB830069
:100AF00073305A4EC0B208F0F7F93388022BEBD9A5
:100B0000606828447F2840F39280524B7F38A3FBD3
:100B10000023DB0803EB4303A0EB83007330C0B278
:100B200008F0E2F93388032BD6D9A06828447F283F
:100B30006FDD484B7F38A3FB0023DB0803EB430347
:100B4000A0EB83007330BDE8F840C0B208F0CCB928
:100B50000028CEDA3F4B4042A3FB0023DB0803EB27
:100B60004303A0EB8300C0F10C00C2E70028AADA1F
:100B7000384B4042A3FB0023DB0803EB4303A0EB0D
:100B80008300C0F10C009EE7606828447F2832DDB6
:100B9000304B7F38A3FB0023DB0803EB4303A0EBC0
:100BA000830073303978C0B208F060F93388032BC2
:100BB00092D9A06828447F280FDD264B7F38A3FBFD
:100BC0000023DB0803EB4303A0EB83007330397889
:100BD000C0B2BDE8F84008F049B90028F7DA1D4B6B
:100BE0004042A3FB0023DB0803EB4303A0EB83009D
:100BF000C0F10C00EBE70028D4DA164B4042A3FB0F
:100C00000023DB0803EB4303A0EB8300C0F10C00DF
:100C1000C8E7002897DA0F4B4042A3FB0023DB080C
:100C200003EB4303A0EB8300C0F10C008BE700282B
:100C3000BFF675AF074B4042A3FB0023DB0803EB75
:100C40004303A0EB8300C0F10C0068E7EC9AFF1FA0
:100C5000ABAAAA2AABAAAAAAF69BFF1FEE9AFF1F6D
:100C600008B51A4B1B7833B315200DF0FFFA184B5B
:100C7000184A1B781060DBB1174B1B8883421EDCBF
:100C8000164A1288D11A1ED08242D4BFC3EB020387
:100C9000C3EB0003A3EB830301EBD172A3EB62036D
:100CA00003FB01F2002A93FBF1F3B4BF04330533D5
:100CB0000B4A136008BD11200FF026F9D7E7084A48
:100CC0000023136008BD0323F2E700BF0D9AFF1F46
:100CD000CC9AFF1F109AFF1F889BFF1F869BFF1F48
:100CE000D09AFF1F2DE9F843974B1B88013B044620
:100CF000092B3CD8DFE803F00A10161C22282E3DF1
:100D00004205BDE8F8439149FFF7D8BCBDE8F84378
:100D10008F490022FFF7B4BEBDE8F8438D49002299
:100D2000FFF7AEBEBDE8F8438B490022FFF7A8BE2F
:100D3000BDE8F84389490022FFF7A2BEBDE8F843A9
:100D400087490022FFF79CBEBDE8F8438549002291
:100D5000FFF796BE844D854E2B88A3B18449328817
:100D6000098803318A420EDC1344022B48DCBDE8BB
:100D7000F883BDE8F8437F49FFF7A0BCBDE8F8431E
:100D80007D49FFF79BBC7D4A7D4912887D4FA21AA1
:100D900081FB021C7C49D0170988C0EB6C0000EB7A
:100DA0004000A2EB800201EBC101090102EB42020B
:100DB00001EB8202A3EB8303B858204400EB8300CD
:100DC0007F2812DC00280ADA704B4042A3FB002384
:100DD000DB0803EB4303A0EB8300C0F10C00C0B2BF
:100DE00008F082F832882B88BEE7684B7F38A3FB77
:100DF0000023DB0803EB4303A0EB83007330EEE733
:100E0000DFF878915E49B9F80030DFF87C815D4FFA
:100E1000E31A81FB0321DA17C2EB610202EB420203
:100E2000A3EB820303EB4302B8F8003003EBC303E8
:100E30001B0103EB82033B44586820447F2858DDA4
:100E4000524B7F38A3FB0023DB0803EB4303A0EBEB
:100E500083007330C0B208F047F833882A881344FF
:100E6000032B84DDB9F800304548B8F80020E31AB8
:100E700080FB0310D917C1EB600101EB410102EBCC
:100E8000C202A3EB8103120103EB430302EB8303D2
:100E90001F44B86820447F2839DD3C4B7F38A3FBD2
:100EA0000023DB0803EB4303A0EB83007330C0B2E5
:100EB00008F01AF833882A881344042B7FF757AFB9
:100EC0002B4B1B88012B7FF452AFA4F10C037F2B1B
:100ED0002BDD2E4AA4F18B03A2FB0312D20802EBF6
:100EE0004202A3EB82037333D8B2BDE8F84307F0A4
:100EF000FBBF0028AEDA254B4042A3FB0023DB08F2
:100F000003EB4303A0EB8300C0F10C00A2E7002831
:100F1000CDDA1E4B4042A3FB0023DB0803EB430367
:100F2000A0EB8300C0F10C00C1E7002BDCDA174A0C
:100F3000C4F10C03A2FB0312D20802EB4202A3EBA2
:100F40008203C3F10C03CFE7809BFF1FB89BFF1FF9
:100F5000602D0100D02C0100282C0100B0360100CA
:100F60002036010040370100BA9AFF1FEE9AFF1F9A
:100F7000BC9AFF1FA09BFF1FAC9BFF1FEC9AFF1F9B
:100F8000ABAAAA2AB8330100BE9AFF1FABAAAAAA2D
:100F90002DE9F843964B1B88013B0446092B3CD8AE
:100FA000DFE803F00A10161C22282E3D4205BDE89A
:100FB000F8439049FFF7E0BBBDE8F8438E490122B2
:100FC000FFF75EBDBDE8F8438C490122FFF758BD2D
:100FD000BDE8F8438A490122FFF752BDBDE8F84356
:100FE00088490122FFF74CBDBDE8F843864901223C
:100FF000FFF746BDBDE8F84384490122FFF740BD35
:10100000834A844B12881988551891B1824B1B88EA
:1010100003339A420DDC022D48DCBDE8F883BDE8BD
:10102000F8437E49FFF7A8BBBDE8F8437C49FFF7CA
:10103000A3BB7C4B7C4F1B887C4EE31A87FB0327AA
:101040007B4AD8171288C0EB670000EB4000A3EB87
:10105000800302EBC202120103EB430302EB8303A2
:10106000A1EB8101F058204400EB81007F2812DCC5
:1010700000280ADA6F4B4042A3FB0023DB0803EB96
:101080004303A0EB8300C0F10C006B4BC0B2197896
:1010900007F0ECFEBFE7674B7F38A3FB0023DB08BC
:1010A00003EB4303A0EB83007330EEE7DFF87491AA
:1010B0005D49B9F80030DFF878815C4EE31A81FBB6
:1010C0000321DA17C2EB610202EB4202A3EB8203B7
:1010D00003EB4302B8F8003003EBC3031B0103EB3F
:1010E00082033344586820447F2856DD514B7F38B3
:1010F000A3FB0023DB0803EB4303A0EB8300733067
:101100004D4FC0B2397807F0B1FE032D85D0B9F844
:1011100000304548B8F80020E31A80FB0310D917C7
:10112000C1EB600101EB410102EBC202A3EB8103C1
:10113000120103EB430302EB83031E44B068204417
:101140007F2838DD3B4B7F38A3FB0023DB0803EB14
:101150004303A0EB830073303978C0B207F086FEFA
:10116000042D3FF45AAF2C4B1B88012B7FF455AF55
:10117000A4F10C037F2B2CDD2E4AA4F18B03A2FBE0
:101180000312D20802EB4202A3EB820373333978D5
:10119000D8B2BDE8F84307F069BE0028B0DA254BA5
:1011A0004042A3FB0023DB0803EB4303A0EB8300D7
:1011B000C0F10C00A4E70028CEDA1E4B4042A3FB8E
:1011C0000023DB0803EB4303A0EB8300C0F10C001A
:1011D000C2E7002BDBDA174AC4F10C03A2FB0312AF
:1011E000D20802EB4202A3EB8203C3F10C03CEE769
:1011F000809BFF1FB89BFF1F602D0100D02C0100BA
:10120000282C0100B03601002036010040370100D3
:10121000EE9AFF1FBA9AFF1FBC9AFF1FA09BFF1FE9
:10122000AC9BFF1FEC9AFF1FABAAAA2AB8330100A0
:10123000BE9AFF1FABAAAAAAF69BFF1F10B50C8887
:1012400084422DD203F10043013B31F81340844224
:1012500023D9B1F802C0844538BF012324D2013319
:10126000DBB29E4631F813C060454FEA4304F6D81E
:10127000604517D00EF1004E0EF1FF3E135B31F8C2
:101280001E1032F81E20401A9B1A03FB00F0ACEB34
:10129000010C90FBFCF0104410BD32F8130010BD9F
:1012A000108810BD105B10BD02244FF0010EDFE767
:1012B000204B1B880C2B30D81F4982B230B551F817
:1012C000235042B343F6FE739A4227D8B2F5806F9B
:1012D00029D31A4C01230133DBB2194634F813E049
:1012E00072454FEA430CF6D8724519D001F100411E
:1012F0000139124B35F8114033F8113035F80C2014
:1013000080B2C01A121B00FB02F2AEEB030392FB89
:10131000F3F3181930BD288830BD7047288C30BDD4
:1013200035F80C0030BD40F2FF3E4FF0020C0121B9
:10133000DAE700BF6C9AFF1FF4370100D0370100D5
:101340002DE9F0435C4B83B0186810F073F95B4BE8
:101350000446188810F06AF90146204610F0BEF9DC
:10136000574910F06FFA10F07FFB564B1A88002A8D
:1013700073D04042544B55491B680C88544A9C42D8
:10138000168825465CDCB342A8BF33461844A04209
:101390005ADA504B1C60B542A8BF3546331B6BD0A0
:1013A000281B03EBD372C0EB803000EB620000FB24
:1013B00003F2002A90FBF3F07BDBFFF779FF464B4B
:1013C0001F88464BC0F3C61909FB07F71B887F2F00
:1013D0008046A8BF7F273BB10093324600232146B9
:1013E0002846FFF717F903463D4A3E4C1360236831
:1013F0004B4509D03C4B1B88002B4DD13B4B1B88E8
:10140000002B45D1C4F80090394C2368434506D0E1
:10141000354B1B885A1F032A31D9C4F80080354C3C
:1014200023689F4209D0344B188828B12E4B334A89
:101430001B88D35C834237D1276003B0BDE8F083BB
:1014400023461844A042A4DBB042A8BF3046214B3B
:10145000A0421860A2DB05469DE7294B1B68032BC1
:1014600088D0194B19481B6804881949A3420E8873
:10147000254617DA2046E7E741F6FF709DE71F4A49
:10148000D05C203008F07F01C0B207F0B1FCC4E7A7
:10149000484607F061FDB5E7184A4946D05C07F0B9
:1014A000A7FCABE710466EE7F9B2C0B207F0A0FCAC
:1014B000C2E7013881E700BF009CFF1F748EFF1F49
:1014C00000002041F89BFF1F8C9BFF1F4E9AFF1FBF
:1014D0004C9AFF1F489AFF1F229AFF1F169AFF1F60
:1014E000189AFF1F409BFF1F1E9AFF1F1C9AFF1F89
:1014F000489BFF1F449BFF1F209AFF1FB48DFF1FB7
:10150000309BFF1F2DE9F04F01208BB00EF0FCFC4B
:10151000AD4A0346002013600EF0F6FCAB4BAC4A1C
:101520001B8810600C2B43D0AA4A00211F2B11707E
:1015300045D1A94BDFF8A4B21B78DFF8A482A94AF1
:10154000003B18BF012388F80030BBF8003052F888
:101550002350A54BA54A1B881288A549013B012AA7
:1015600031F913A000F0E081A24B0293A24B069345
:10157000A24FA34B03930026A24B1B88012B00F024
:101580001982A14BA14A1C680793D7F800A0A04B71
:10159000049205934FF000099E4B1B88013B032BDF
:1015A00000F23E83DFE813F05801EB00C70018009B
:1015B000894B1B78002B40F09E81864A1370DFF820
:1015C0001CB2DFF81C82BBF80020002388F8003032
:1015D000844B53F82250BCE7204610F02BF88E497C
:1015E00010F07CF80446484610F024F88B4910F0BF
:1015F00075F8014620460FF069FF10F035FA079B99
:10160000069F18600446386810F014F8824910F0FC
:1016100065F8034630461E4610F00CF87F4910F07E
:101620005DF8014630460FF051FF10F01DFA3860AA
:10163000654B7B4E19687B4B36881A887A4B7B4FFB
:101640001B88DDF810E03F88A4EB020C2244059CC7
:10165000CEF800C02260029CC21A2260039A0344A2
:101660008E42136000F345818F423846A8BF08467A
:10167000574B1B689E4200F33A819F423C46A8BFED
:101680001C468E42C0F217819E42C0F21481684E01
:1016900030680FF0CFFF604910F020F865490FF077
:1016A00015FF10F0E1F9A0F5FF531C3B082B30604B
:1016B00001D84FF4005043F6FF778244BA455046B4
:1016C000A8BF384620EAE07030600FF0B3FF034651
:1016D00098F8000005FB00F01D460FF0ABFF4FF03F
:1016E0007A510FF0FBFF014628460FF0EDFE10F097
:1016F000BBF9514B514D1B78B842A8BF384620EA80
:10170000E0702860002B00F0CB80BAF5005F00F09D
:10171000C78004F05BFC4A4B286801221A70494CD0
:101720002368834204D080B207F048FC2B68236012
:101730000BB0BDE8F08F20460FF07CFF42490FF060
:10174000CDFF044648460FF075FF40490FF0C6FF35
:10175000014620460FF0BAFE10F086F9079B069F5F
:101760001860044638680FF065FF37490FF0B6FF80
:10177000034630461E460FF05DFF34494FE72046D2
:101780000FF058FF32490FF0A9FF044648460FF00A
:1017900051FF30490FF0A2FF014620460FF096FEA0
:1017A00010F062F9079B069F1860044638680FF036
:1017B00041FF27490FF092FF034630461E460FF0C7
:1017C00039FF24492BE700BF6C9BFF1F749BFF1F51
:1017D000689BFF1FE09AFF1F729BFF1F1A99FF1F54
:1017E000939BFF1FCC8DFF1F788EFF1F0A9AFF1F50
:1017F000B82C0100089CFF1F189CFF1F009CFF1FB6
:101800000C9CFF1F189BFF1F149CFF1F049CFF1FB5
:10181000109CFF1F768EFF1F9A99193FCDCCCC3EAE
:10182000789BFF1F7C8EFF1F7E8EFF1F769BFF1F06
:10183000048EFF1FCDCC4C45DC9CFF1F008EFF1F8C
:10184000FE9BFF1FC88DFF1FCDCC4C3FCDCC4C3E27
:101850006666663FCDCCCC3D20460FF0EBFEB54929
:101860000FF03CFF044648460FF0E4FEB2490FF08B
:1018700035FF014620460FF029FE10F0F5F8079BD2
:10188000069F1860044638680FF0D4FEA9490FF08F
:1018900025FF034630461E460FF0CCFEA649BEE6A5
:1018A000A64C2378002B3FF43AAF04F08BFB0023C7
:1018B0002868237033E7BBF80030002B3FF4E7AE15
:1018C00000233A4631460095FEF7CEFE0095844649
:1018D0003A46204631466446FEF7C6FE231A002BE0
:1018E000B8BF5B42092B00F39F80954EE1E634467A
:1018F000C7E63046BCE6DFF84CB2934ABBF80010AE
:10190000924B52F82100DFF8488201221A7000231E
:1019100088F800300FF08EFE4FF07C510FF0DEFEA5
:1019200010F0A2F8054614E68A4B8B4A1B888B49B7
:101930001278013B31F91340002A40F08D801120CC
:101940000EF0E2FA864B02931F680646B74240F358
:101950008D80844B844A1B880692012B834BB3F8FD
:10196000009013682846A3EB040400F013810FF0E5
:1019700061FE7F4B53F829100FF0B0FE01460020A6
:101980000FF0A2FDA642009039463046794FB8BF0D
:10199000204600232246FEF70DFE3B681844764B96
:1019A0000393764B1B8800EBD0704010012B3860FE
:1019B0007FF4E7AD724C04940F200EF0A5FA226874
:1019C000824281467EDD674B08921B88012B00F026
:1019D0000981664B6B4A198814680591284607925D
:1019E0000FF028FE624B059953F821100FF076FE98
:1019F00001460020A4EB0A0A0FF066FD089A009049
:101A0000D145114648465246B8BF50460023FEF71E
:101A1000D1FD3B68184400EBD0705B4B05934FEA57
:101A2000600AC7F800A0B7E504F500540134201A95
:101A30000FF000FE5549424E0FF050FE044630684C
:101A40000FF0F8FD52490FF049FE014620460FF015
:101A50003DFD10F009F82EE615200CF007FC404B78
:101A600002931F680646B7423FF773AF424B03939A
:101A70001F68B74254DA3B4B3B4A1B880692012B46
:101A80003A4BB3F80090136828461C4400F0BC8021
:101A90000FF0D0FD364B53F829100FF01FFEA64271
:101AA000009039463046334F4FF00003A8BF204620
:101AB0002246FEF77FFD3B68184400EBD0704010D3
:101AC000386059E5304B05931A6882426ADA254B33
:101AD00009921B88012B70D0244B2A4A198814685C
:101AE0000891284607920FF0A5FD214B089953F85D
:101AF0002110A2440FF0F2FD099A0090D145114641
:101B000048465246A8BF50460023FEF753FD3B68A7
:101B1000184400EBD0704FEA600AC7F800A03BE51C
:101B2000144F114B06933B6803EBD3735B103B6080
:101B300022E500BF3333733FCDCC4C3DFE9BFF1FEE
:101B4000048EFF1F1A99FF1FCC8DFF1FE09AFF1F05
:101B5000939BFF1F7A8EFF1F0D9AFF1F702F0100AE
:101B6000089CFF1FFC9BFF1F189CFF1F1C9CFF1F56
:101B7000F8350100009CFF1F0C9CFF1F189BFF1FE6
:101B8000049CFF1F149CFF1F109CFF1FCDCCCC3E5C
:101B90009A99193F0FF04EFD234B53F829100FF07F
:101BA0009DFDEFE63B6803EBD3734FEA630A1F4BDF
:101BB000C7F800A01C680793EEE41D4B1B4A198868
:101BC00014680891284607920FF034FD164B0899C7
:101BD00053F821100FF082FD01460020A2440FF0BF
:101BE00073FC89E7124B114A19881468059128463D
:101BF00007920FF01FFD0C4B059953F82110A4EB31
:101C00000A0A0FF06BFDF9E60FF014FD064B53F8CE
:101C100029100FF063FD014600200FF055FC3EE750
:101C2000069B186804E500BFF8350100149CFF1FEF
:101C30001C9CFF1F08B5244B1B885BB3234B1B78F0
:101C40005BB3234B1B7843B3224B1B782BB3224B44
:101C50001B7813B3214B1A782AB3214A2148224911
:101C60001288008809680244B1EB520F15DD00228A
:101C70001A7007F04FFA642004F0BCF9642004F0F5
:101C8000B9F9642004F0B6F9BDE808404FF41670C5
:101C90000DF0BCB8114A117801B908BD1370BDE848
:101CA000084007F037BA0E4A0E48104912880088DB
:101CB00009680244B1EB520FEFDD01221A70BDE852
:101CC0000840642004F096B9C29AFF1F1D99FF1FB7
:101CD0001E99FF1F1F99FF1F2099FF1FC09AFF1F0A
:101CE000769BFF1F789BFF1F689BFF1F6C9BFF1F4E
:101CF00038B5114C232025780CF0B8FA0F49002292
:101D000041F825000B1F01F1C40053F8041F834262
:101D10000A44FAD123780A490A480133DBB281FB2D
:101D20000251322B4FEAE272C2EB211208BF0023AC
:101D30000260237038BD00BF3899FF1F3C99FF1F18
:101D40001F85EB513499FF1F2DE9F04F9F4CA04D9B
:101D50002068DFF8808285B00FF06CFC9E490FF0A0
:101D6000BDFC064610200EF0CFF80FF063FC9B4937
:101D70000FF0B4FC31460FF0A9FB0FF075FE2B8875
:101D8000206002469A42B8F80010184680F2D080CF
:101D9000CF1A1E4600F0D380F61A07EBD77CC6EBAD
:101DA000C61606EB6C0606FB07FCBCF1000F96FBA3
:101DB000F7F6C0F267818A4FDFF828C2CCF80060DE
:101DC0003E88192E00F0EA801A2E2ED01E2E00F02A
:101DD000A4810127844EB946DFF810C2BCF800C0C8
:101DE000BCF1000F13D0DFF808E2BEF800E0BEF14E
:101DF000030F00F23C819A4280F246810A46CDF8F8
:101E000000C019460023FEF705FC7A4B18607A4A99
:101E10003388108850EA030114D1784B1A78002ACD
:101E200040F01D8205B0BDE8F08F754E3678002E6B
:101E300008BF01276C4E16BF00274FF000094FF076
:101E40000109C9E72988D4F800C0614579DCDFF8C9
:101E5000ACE19EF800A0BAF1000F34D14FF0010AB6
:101E600004288EF800A02ED1002F40F0C6813388C0
:101E7000002BD7D0B9F1000FD4D022682888B8F849
:101E80000010904200F3AC818A42A8BF0A46091AAA
:101E900000F0C681121A01EBD174C2EB82126410F9
:101EA00004EB420404FB01F2002A94FBF1F400DB92
:101EB0000134544D2A68A24203D0E1B2D8B206F0F0
:101EC00097FF2C60AEE7012800F04181022800F066
:101ED000F4800328CBD14C4B1B88092BC7D0002F93
:101EE000C5D023682988B8F80020994240F3A8811A
:101EF0000B46521A00F0A8815B1A02EBD277C3EBB3
:101F000083137F1007EB430707FB02F3002B97FBBC
:101F1000F2F700DB0137DFF8F4B0DBF80030BB424A
:101F200003D0F9B24A2006F063FFCBF800709EE7B9
:101F30008A421646A8BF0E46CF1A7FF42DAF3F2621
:101F400039E72E4A117800293FF46CAF00240128AC
:101F5000147000F0EE80022800F0A080032840F00A
:101F60003381294A1288092A09D047B1274D2A68A6
:101F70002AB121464A2006F03BFF33882C60002B13
:101F80003FF450AFB9F1000F3FF44CAFD8B200218D
:101F900006F02EFF1B4B00221A6043E7DFF860902B
:101FA000114E99F800C0BCF1000F33D0B6F800E034
:101FB000BEF1000F2ED0DFF858A09AF800B0E3452C
:101FC00040F0108101274FF0000905E78C9AFF1FB0
:101FD0009C9AFF1F9A9AFF1F9A99193FCDCCCC3E2D
:101FE000749BFF1F909AFF1F969AFF1FE49AFF1F92
:101FF000E29AFF1FE89AFF1F949AFF1F989AFF1F0B
:10200000729BFF1F509BFF1F1E9AFF1F4C9BFF1FC1
:10201000099BFF1FDFF84CA29AF800E0E645D1D0FB
:102020003078002106F0E4FE99F800303A888AF80A
:1020300000308D4BB3F800C0BCF1000F00F0BE8043
:102040001E2A40F00381012799F80030002B60D050
:10205000DFF818E22B88BEF800E02268B8F800101C
:10206000BEF1030F18464FF000097FF6C4AE9A4246
:102070000FDA1A46CDF800C00023FEF7CBFA7C4BEE
:102080001860C4E6013E96E68A42A8BF0A4610469A
:10209000B4E68A42A8BF0A461046EAE7002F3FF49A
:1020A0006EAF744D2A68002A3FF469AF21460420C0
:1020B00006F09EFE33882C6061E7002F3FF4D8AE17
:1020C000DFF8B0B1B8F80000DBF800A08445634643
:1020D000A8BF0346401A00F0AE805B1A00EBD07137
:1020E0004910C3EB831301EB430303FB00F1002909
:1020F00093FBF0F300DB0133534506D0D9B2042043
:10210000039306F075FE5C4A039B1088CBF8003001
:10211000DFE6574A9946136079E6DFF86091524B43
:1021200099F80070B3F800C0554EB7FA87F77F09E9
:102130008AE7002F3FF423AF4E4D2A68002A3FF470
:102140001EAF214606F054FE33882C6017E7002F9F
:102150003FF48DAEB8F800309C456046A8BF1846E5
:102160005B1A6AD0401A03EBD37AC0EB80104FEAB7
:102170006A0A0AEB400A0AFB03F100299AFBF3FA08
:1021800001DB0AF1010ADFF8ECB0DBF8003053455F
:1021900005D05FFA8AF1012006F02AFE364A10883F
:1021A000CBF800A002287FF494AE2B88D4F800C0AE
:1021B000B8F80000634519468CDC87E71E2A3FF417
:1021C00042AFE146012722E604287FF4D8AE002F73
:1021D0003FF4D5AE2146402006F00AFE3388CEE615
:1021E000024654E65FFA8EF07F2106F001FE99F870
:1021F00000303A888AF800301BE740207F2106F043
:10220000F7FD1D4A108850450CD002287FF461AEBE
:10221000DFF860B02B88DBF800A0D4F800C0C7E777
:10222000402446E62888D4F800C0B8F8003060455D
:10223000014695DC90E740235EE74FF0400AA2E7B5
:102240009342A8BF134654E6402764E62B882268D1
:10225000B8F80010184601274FF00009C3E51970BF
:10226000E0E500BF099BFF1FE49AFF1FE29AFF1FF2
:10227000E89AFF1F4C9BFF1F949AFF1F729BFF1F42
:10228000969AFF1F08B5114B1B88022B09D0052B0E
:1022900007D0032B0DD0042B13D00D4B01221A7045
:1022A00008BD7F21412006F0A3FD094B01221A70D1
:1022B00008BD4021092006F09BFD054B01221A7044
:1022C00008BD7F21092006F093FDE6E78A9BFF1FEA
:1022D000829BFF1F38B5134D134C2B88052B18D04C
:1022E00022686AB9022B14D0033B012B15D80021B8
:1022F000092006F07DFD0D4A00231370236038BDD0
:102300000021052006F074FD2B88022B01D0052B3F
:10231000EAD10021412006F06BFD044A002313702E
:10232000236038BD8A9BFF1F589BFF1F829BFF1FA6
:10233000F0B55A4B1B881D2B83B048D0584B1B88D7
:10234000022B09D0574B1B88022B73D0564B1B789E
:10235000002B48D103B0F0BD544D554E0024554BD1
:102360001B78002B4AD111200DF0CEFD524B186086
:102370002B88002B4AD0514B1988814246DC504BA8
:1023800037881A8800979042A8BF10460023FEF7AE
:1023900041F9444B1B88022B044473D0002CD5DB3D
:1023A000BC42A8BF3C46002CD0D03F4B1B78002B32
:1023B0005FD02B88434D052B06D02B689C4203D061
:1023C000E1B2052006F014FD2C6003B0F0BD374DDE
:1023D0002C886CB13C4B1C78314B002C4CD11B88A9
:1023E000022BAFD108E003B0BDE8F040FFF772BFA9
:1023F0002B4B1B88022BA5D12D4EB0E715200BF0DF
:1024000035FF2D4B18602B88002BB4D1254B1B8832
:10241000022B41D10F200DF077FD2C4B18602B883B
:10242000002B39D02A4BC0F53B6019880830884210
:1024300013DA2FE01D4D0F200DF066FD234A2B8887
:102440001060002B82D0224BC0F53B601988083009
:1024500081423FF77BAF164E00241E4B3788009712
:102460001A889042A8BF10460023FEF7D3F8044410
:1024700094E7FFF707FF9CE71B880D4E022B34887B
:10248000C4D16CE70F200DF03FFD104B18602B8876
:10249000002BC7D1378881E7378881E7749BFF1FFE
:1024A0000A9AFF1F189BFF1F829BFF1F8A9BFF1F1B
:1024B000849BFF1F0D9AFF1F109AFF1F889BFF1F11
:1024C000869BFF1F589BFF1F729BFF1F209BFF1FB8
:1024D000289BFF1F1C9BFF1F2DE9F04110200DF0D2
:1024E00013FDC830B0F57A6FA8BF4FF47A60B0F52D
:1024F000FA7FB8BF4FF4FA7000F51673B3F57A6F30
:10250000844A854CDFF81482854E864DA8BF4FF46F
:102510007A6381B222201180238006F0DDFE2188BB
:10252000814C242006F0D8FE0E200BF09FFE40F6D2
:10253000FF72C8309042A8BF104620EAE07000F257
:10254000DC5381B279489342A8BF13460180022030
:10255000238006F0C1FE2188042006F0BDFE012084
:102560000DF0D2FC044600200DF0CEFC8442B8BF32
:10257000044604F1C800B0F57A6FA8BF4FF47A6042
:10258000B0F5FA7FB8BF4FF4FA7000F54873B3F5B1
:102590007A6F674A674CA8BF4FF47A6381B20A200A
:1025A0001180238006F098FE2188634C0C2006F0F1
:1025B00093FE0F200DF0A8FCC0F53F610431B1F58A
:1025C000FA6FA8BF4FF4FA61C0F54363B1F5AF6F7E
:1025D000B8BF4FF4AF61B3F5FA6FA8BF4FF4FA6319
:1025E000B3F5AF6F554AB8BF4FF4AF6389B2A420BB
:1025F0001180238006F070FE2188514CA62006F041
:102600006BFE15200BF032FE41F25C2200F5967055
:102610009042A8BF1046B0F52F7FB8BF4FF42F707F
:1026200000F5167381B247489342A8BF1346018054
:102630000620238006F050FE2188082006F04CFE7C
:1026400000274FF4AF74F9B2304608F085FF58F810
:10265000043BC3F5967303FB00F085FB0023C01712
:10266000C0EB6310844207F10107A8BF0446062FA0
:10267000E9D1DFF8D480354E2A4D0027F9B2304633
:1026800008F06AFF58F8043BC3F5967303FB00F0AB
:1026900085FB0023C017C0EB6310844207F10107DC
:1026A000A8BF04460C2FE9D1DFF8A480294E1D4DA8
:1026B0000027F9B2304608F04FFF58F8043BC3F545
:1026C000967303FB00F085FB0023C017C0EB63107B
:1026D000844207F10107A8BF04460C2FE9D1143C3E
:1026E000322CB8BF322440F23A72A4F5AF7302FB29
:1026F00003F3963B85FB03251748184ADB17A1B265
:10270000A3EB651332330180BDE8F0412A2013604A
:1027100006F0E2BD9C9AFF1F9A9AFF1F9C8DFF1F37
:10272000E89BFF1FB5814E1B4C9AFF1F4E9AFF1F5F
:10273000789BFF1F769BFF1F1C9BFF1F289BFF1F83
:10274000869BFF1F889BFF1F6C8DFF1FE49BFF1F55
:102750003C8DFF1FE09BFF1F669AFF1F708EFF1FBF
:102760002DE9F04F0C2095B00BF04CFD0C200CF037
:1027700045FACA49DFF828A314200CF04DFAC949DC
:10278000C94808F045FC022103200CF0E3FA0221BD
:1027900004200CF0DFFA022105200CF0DBFA022104
:1027A00006200CF0D7FA01210A200CF0D3FA0121FF
:1027B00009200CF0CFFA01210D200CF0CBFA0121F9
:1027C00028200CF0C7FA012114200CF0C3FA0121D3
:1027D00016200CF0BFFA012117200CF0BBFA0121E2
:1027E00021200CF0B7FA02211C200CF0B3FA0121D1
:1027F0001B200CF0AFFA00211B200CF077FA1C20F4
:102800000CF09AFAB0FA80F35B091A208AF80030CB
:102810000CF0D6FC1F2000210CF094FC04200CF0DE
:102820008BFA30B906200CF087FA0346002800F036
:10283000D48105200CF080FA002800F0FF810023ED
:102840009A4C062023700CF077FA994AB0FA80F37C
:102850005B09137005F0CAF923784FF0000B002BC9
:1028600040F0C781584606F051FD924B92491B88B3
:1028700040F23A72A3F5AF7302FB03F3963B81FB80
:102880000321DA17002BA2EB61128C49D4BF02F1AD
:10289000320302F131038A4A0B608A4B12881A70A4
:1028A00001210D200CF022FA64200CF0AFFA06246E
:1028B0004FF416710A200CF08FF87B4A824800947E
:1028C0000C235D2108F0ACFE002800F05581642047
:1028D0000CF09CFA00210A200CF07EF84FF496715F
:1028E00009200CF079F8704A784800940C235C2198
:1028F00008F096FE002800F05F8164200CF086FA54
:10290000002109200CF068F84FF4967116200CF0A5
:1029100063F8654A6E4800940C235B2108F080FE42
:10292000002800F0398164200CF070FA0021162094
:102930000CF052F84FF4967117200CF04DF864200B
:102940000CF064FA002117200CF046F864200CF01B
:102950005DFA00210D200CF0C9F95E4A5E4812684C
:10296000DFF878915E4E5F4D5F4FDFF88081002386
:102970000121FDF78FFD0124002333602B603B60B4
:1029800089F800400F200DF0BFFA3B6803440E2089
:102990003B600BF06BFC33680344336099F8003004
:1029A000002B00F0148115200BF060FC2B681844FC
:1029B000286004F0010003F00DFBB8F80030002B94
:1029C00014BF4B20DC2001340CF020FA052CD9D1A7
:1029D0003B6832684649474C08884749002BB8BFD6
:1029E0000333002AB8BF0332921032602A68098884
:1029F000424E002AB8BF03329B1092103B602A60FF
:102A00002360A3EB000C3E4F3E4D3F4CC7F800C087
:102A100003443360531A0A442B602260BBF1000F59
:102A200040F00481B8F80030002B00F0F280374B02
:102A3000012404201C600CF07FF918B9344B214AA2
:102A40001C701070334B1B881C2B00F0D780324C4D
:102A500004F1C80523200BF009FC44F8040F012001
:102A60000CF0D4F9A542F5D19AF8003023B12B4BE4
:102A70001B78002B40F0EA80002121200CF036F971
:102A8000274A284B1078284C187006F0EDFB03F00D
:102A900099FA264B049304A90AA849E0001B37467B
:102AA0001E9CFF1F40420F000490FF1F649AFF1FEF
:102AB000F09AFF1F669AFF1FB5814E1B708EFF1F95
:102AC000629BFF1F3299FF1FE89BFF1FE09BFF1FC8
:102AD000E49BFF1FC08DFF1F289AFF1F0D9AFF1F49
:102AE000249AFF1F189CFF1F149CFF1F9E9AFF1F14
:102AF0007C8EFF1F249BFF1F7E8EFF1F109CFF1FDD
:102B0000049CFF1F089CFF1F0C9CFF1F309BFF1F96
:102B10008A9AFF1F749BFF1F3899FF1F1F9CFF1F7E
:102B20001899FF1F3099FF1F182C0100650800003D
:102B300002940894FDF72EFD0AA910A80E94FDF743
:102B400029FD45F6BF520EA955480BF01DF90E9B05
:102B500010A8DB689847089B0AA8DB689847029B87
:102B600004A8DB68984715B0BDE8F08F04200CF08E
:102B7000E3F8002800F0868003200CF0DDF8002840
:102B8000F4D003200CF0D8F80028F5D1EEE70420AB
:102B90000CF0D2F800286AD003200CF0CDF8002801
:102BA000F5D003200CF0C8F80028F5D1EFE7042099
:102BB0000CF0C2F800284ED003200CF0BDF800281D
:102BC000F5D003200CF0B8F80028F5D1EFE711207C
:102BD0000DF09AF92B681844EAE6324C324A20701C
:102BE000137005F003F823784FF0010B002B3FF42E
:102BF00039AE15B0BDE8F04F08F0C4B82B4B1888BB
:102C000000283FF424AF2A4BC0B2197806F0F0F840
:102C10001DE74FF4FA7003F0EDF903F0D7F905F072
:102C20005BF94FF4AF600CF0F1F800E7FFF754FCEC
:102C3000B8F80030002B7FF4FAAEEAE703200CF07E
:102C40007BF800287FF4FBAD0123F9E50121212069
:102C50000CF04CF814E705200CF06EF80028ABD10E
:102C600006200CF069F80028A6D10DF045FA0520E1
:102C70000CF062F800288FD106200CF05DF80028D7
:102C80008AD1F2E705200CF057F800287FF474AFE2
:102C900006200CF051F800287FF46EAFE5E700BF86
:102CA000789AFF1F649AFF1FF09AFF1F129BFF1F65
:102CB000149BFF1F2DE9F04FA14D2C78012C97B0EC
:102CC00000F03582022C00F0B581002C00F0EA8281
:102CD0009C4C9D4926789D4C9D4F94F800809D4CBE
:102CE0009D48247801949D4C3F7891F800A094F879
:102CF00000B09B499B4C04979B4F9C4B9C4A90F87F
:102D000000C094F800E008789A4C9B493F780397FC
:102D10001B789A4F127809782478029700272F7031
:102D2000974D85F800C0974D85F800A0964D2B7003
:102D3000964D2A70964D2870964D85F800C0964D98
:102D40002970002E00F0D080944D2D8805952E46D8
:102D5000934D0127182E2F7000F2D080059D01277A
:102D6000A5F10C0623B18F4B1D88002D40F0318357
:102D70008D4B1B88002B40F0C3808C4B8C4D1B78F7
:102D80002D780133A3EB4E03002D00F0C480BEF17B
:102D9000000F00F03083002C40F0F184013B854CA3
:102DA000049D2478A3EB44031344A3EB0A0315B159
:102DB000002A00F04583A3EB0803B8F1000F02D00E
:102DC000002C40F03983019A9B1AA3EB4B03039A22
:102DD0000344A3EB0C03A3EB410302EB420203EB1E
:102DE0008201754B75481960754B764C1A880068DE
:102DF0002488033A02EB4203734A1288C2EBC202F0
:102E0000104401EB8303714A2344714C12882468F7
:102E1000C2EBC20222446F4C0C3B54F820003344F6
:102E200003446D4850F8222013440FB16B4A1160DF
:102E30006B496C4A098807298CBF0120002010705B
:102E400040F2EC80684A694812680180032A00F069
:102E50006C840025664A674C157022689A4200F01F
:102E6000E3806548654F02680692069E644A3E60AC
:102E70000127177002680792624A1788079A921B07
:102E8000BA4251D9604E614F326833609A1A3A6043
:102E9000002D00F0CD805A4A1578002D40F0A28216
:102EA00023605B4D2A689A4245D00468594F0994C3
:102EB000099C3E68A41B8C42C0F08E82991A00F1D6
:102EC0004384554C266886EAE674A4EBE6748C428B
:102ED00040F380844D4909680029B8BF49428C42BB
:102EE000B8BF531C00F041BC2E4D2D880D2D00F0B5
:102EF00060822B4D00272F703E4633E7002631E7D6
:102F0000013B042B00F2F884DFE813F005036A03A9
:102F1000E702C7029C021B1B002C3FF440AFBEF12E
:102F2000000F18BF013B3AE72360374B1B68002DA9
:102F3000B7D1374A1360029A136017B0BDE8F08F1B
:102F4000F89AFF1F1699FF1F1499FF1F2299FF1F60
:102F50002899FF1F2399FF1F2699FF1F2499FF1F00
:102F60002599FF1F0F99FF1F389BFF1F1599FF1F02
:102F70001399FF1F1099FF1F2799FF1FB09AFF1F7A
:102F80000899FF1F0999FF1F0A99FF1F0B99FF1F3F
:102F90000C99FF1F0D99FF1F0E99FF1F749BFF1FB8
:102FA000729BFF1F2A9BFF1FB89AFF1F6C8EFF1F8B
:102FB0001299FF1F1199FF1FB49AFF1FE89AFF1F74
:102FC000369BFF1FEC9BFF1FE29AFF1F149AFF1F07
:102FD000189AFF1FF02D0100983101007C9BFF1F04
:102FE000D49AFF1FCC9AFF1F309BFF1FC48DFF1F79
:102FF000C49AFF1F009BFF1F709DFF1FFC9AFF1FBD
:10300000349BFF1F869AFF1FDC9AFF1FD89AFF1F71
:10301000C89AFF1F049BFF1FD09AFF1F85480022FC
:1030200011460280154615E7834A8448166821E751
:1030300023607EE7DFF80892824F834E0DF1280867
:103040000024E1B2384608F087FA59F8043BC3F58A
:10305000967303FB00F086FB00230134C017C0EB1E
:1030600063100C2C48F8040BEBD1784B129E1B8894
:103070000B9F119A139C149875499E42ACBF002671
:103080000126BB42D4BF002701279342D8BF4FF08F
:10309000000E159A0E70C8BF4FF0010EA3420D9995
:1030A000D4BF002401248342D4BF002001209342D6
:1030B000D4BF002201228B420E99D4BF4FF0000AE8
:1030C0004FF0010A8B4263490F706349634F81F8E7
:1030D00000E0634997F800800C706249624F087005
:1030E00062493F780A7001976149624F81F800A0F8
:1030F00097F800B06049614FD4BF002301230B70E3
:103100003F785F4904975F4F91F800C05E493F7870
:10311000087803975D492F780978B9465C4F029784
:103120004F46012F9ABF0137FFB20027F7E5DFF8BE
:103130006491594F444E0DF128080024E1B23846FD
:1031400008F00AFA59F8043BC3F5967303FB00F044
:1031500086FB00230134C017C0EB63100C2C48F829
:10316000040BEBD1394B0D991C88444B0E9A0A98ED
:10317000A142ACBF0021012119700C9B0491944223
:10318000D4BF4FF000084FF001089C42D4BF002389
:10319000012301930B9B019A11999C42129BD4BF6E
:1031A0004FF0000B4FF0010B8442D4BF00200120F0
:1031B0009C422A4B83F800802B4B1A702D4B83F8CE
:1031C00000B0314B18702E4BD4BF4FF0000C4FF0B5
:1031D000010C83F800C08C422C4BD4BF002101218C
:1031E0001970149B9C4240F32981139B9C42D4BFCD
:1031F000002301230F9A9442284A1370284BD4BF0E
:10320000002401241C701F4B1B780393204B029356
:103210000F4C174B2678104C93F800A0134A164B0E
:1032200094F800E02F780E4C1B7812782478B94679
:1032300076E700BFC48DFF1FFC9AFF1F709DFF1F24
:103240003C8DFF1FE09BFF1FB5814E1B669AFF1F41
:103250001699FF1F1299FF1F0F99FF1F2299FF1F39
:103260001099FF1F1199FF1F2399FF1F1399FF1F2B
:103270001499FF1F2499FF1F1599FF1F2899FF1FFD
:103280002699FF1F389BFF1F2599FF1F2799FF1FB6
:10329000B09AFF1F6C8DFF1FE49BFF1FD69BFF1F83
:1032A000649BFF1FDFF8E092B84FB94E0DF128087C
:1032B000E1B2384608F050F959F8043BC3F596736B
:1032C00003FB00F086FB00230134C017C0EB631042
:1032D000062C48F8040BEBD1AE4B0A9A1B880492DB
:1032E0009A420B9A0C99DDF834B00392ACBF4FF0C0
:1032F000000A4FF0010A9342A74A0E9E0F980291CE
:10330000D4BF4FF000094FF001098B42D4BF4FF0FA
:1033100000084FF0010811885B450AEB0902D4BF91
:10332000002701274244B342D4BF4FF0000E4FF0B4
:10333000010E3A448342D4BF4FF0000C4FF0010C11
:10334000724462440192954A82F800A0DFF850A2CC
:10335000019A8AF80090DFF84C9289F80080DFF833
:10336000488288F80070914F87F800E0904F87F806
:1033700000C0904FDFF840C23A70904F4FF0000EFF
:10338000012987F800E08CBF4FF0000E4FF0010ECE
:1033900083428CF800E031DDB34200F3F381012970
:1033A00000F27881864A039423463C700292854C51
:1033B0005BE1002B3FF49DAD834F3F880597834F22
:1033C0004FF0010987F80090059F182F7FF6C6ACD3
:1033D00001270D3D2E44CBE41346029A136017B02B
:1033E000BDE8F08F05680895089D794E0D4435605D
:1033F0000025157054E5013B1B1BD0E4B34240F39C
:1034000049815B4500F32A81012940F22781029A14
:10341000934240F34981039A934200F312820129B7
:1034200040F20F82049A9A4280F2498101223A7056
:10343000634A644C02926BE1013BC4E40023D9E689
:103440000133B8E4634B019D1B78A3EB48035B1B7E
:10345000614DABEB8B0995F80080CEEB8E75B4FA1D
:1034600084F44B44CEEB850564092B4403EB8403C1
:10347000B8F1000F00F0AA81049C03EB440303EBB6
:10348000810313440344A3EB0A03A3EB4C03039A05
:1034900002EB420203EB8201A3E44E4B01981B783E
:1034A000A3EB4803ABEB8B021B1A1344CEEB8E72DB
:1034B000CEEB82021344049A03EB420303EB810335
:1034C000002C40F0798101221344039AC2F10602D4
:1034D00002EB420203EB820183E43E4B01981B782E
:1034E000A3EB4803ABEB8B021B1A1344CEEB8E729B
:1034F000CEEB82021344049A03EB420303EB8103F5
:10350000002C40F04F8101221344039A02EB420247
:1035100003EB820165E42F4B1B780133A3EB4E05CF
:103520002E4B1B78002B40F036812B1B002C40F0DB
:103530008381294D2D78A3EB45031344A3EB0A0A9D
:10354000049B13B10AB90AF1010AAAEB0803B8F106
:10355000000F02D0002D18BF013B019A9B1AA3EB6C
:103560004B030344A3EB0C03A3EB4103BEF1000F99
:1035700002D10CB105B10933BBF1000F87D100298D
:1035800085D00A3B83E700BF9C8DFF1FE89BFF1F90
:10359000B5814E1B669AFF1F9C9BFF1F1C99FF1F46
:1035A0001D99FF1F1E99FF1F1F99FF1F2099FF1FC5
:1035B0002199FF1F949BFF1F5C9BFF1F389BFF1FE0
:1035C000B09AFF1F089BFF1F749BFF1F729BFF1F7A
:1035D000049BFF1F6C8EFF1F1199FF1F1299FF1F85
:1035E000A74D019BAB71A74B2A711B786B70A64B43
:1035F00085F805801B78AC7085F807B0287285F8CF
:1036000000E0EB704FF0010805F8091FDFF87C922D
:10361000CDF804C042469A4B5FFA88FC08F1FF3BA4
:103620004C467046002107E0022A07D0AB4209D081
:1036300013F8010F14F8012F9042F5D10131AB427C
:10364000C9B2F5D1092900F2D68008F10108B8F114
:10365000110F00F0C58019F80A2FDCE78C4A8D4C59
:10366000029205233B703B78039323708A4B8B4A6D
:1036700018788B4B92F800C019788A4B1B7804930A
:10368000894B93F80080894B1B780193884B93F802
:1036900000B0BDE55B457FF7BAAE029A934200F3F6
:1036A000C480012940F2C180039A93427FF7BAAEE9
:1036B000049A9A42C0F2CE80012940F2CB80754C28
:1036C00094F800C0BCF1010F40F2D78009B187F82F
:1036D00000C0DFF8E0C1BCF800C0BCF1000F00F092
:1036E000BF80019A002A40F0BB80734A1288013AD9
:1036F00092B2062A00F2B480704A1278002A00F0D2
:10370000AF806F4A1268012A614A029200F0E88095
:103710000329A8D18342A6DDB342A4DC2378062B7B
:10372000A1D107233B7003939FE7664A1268002AE2
:103730007FF78FAB644A65481278007802430CBF6C
:1037400001250025FFF786BB5E490E6886EAE67410
:10375000D11AA4EBE674A1423ADA5D49096800295E
:10376000B8BF49428C4200DA531E02680A920A9A94
:103770003A60029A2B60136017B0BDE8F08F1B1BF4
:10378000FFF7CDBB03293C7026D0414A0394234662
:103790000292404C69E7BEF1000F58D0002C4AD18C
:1037A0006B1EC6E6384A1278002A3FF4ACAEBAF176
:1037B000000218BF0122A7E6334A1278002A3FF41C
:1037C00082AEBAF1000218BF01227DE6033353E650
:1037D000931BCAE79319C8E72D4B2E4C029342E77F
:1037E0003C4B3D4A1B78D26B01331344049AA3EB44
:1037F0000A0313444BE6374B374A1B7852F82B2009
:103800000499013360461344DDF804C0A3EB0A03B6
:103810000B44BCF1000F3FF43AAE01287FF437AE01
:10382000BAF1000F18BF013B31E604223A70184A82
:10383000184C02926CE72B1BBEF1000F18BF013B26
:1038400077E603223A70124A124C029260E76B1E2E
:103850001B1B6EE602223A700D4A0E4C029257E78D
:10386000174A1268012A0A4A02927FF451AF1B4A92
:103870004FF0030C82F800C04AE7054A029247E77E
:10388000C49BFF1F1299FF1F1199FF1FD02E01002B
:10389000B09AFF1F089BFF1F2599FF1F2699FF1F46
:1038A0002799FF1F2899FF1F2299FF1F2399FF1FA8
:1038B0002499FF1F5E9BFF1F809BFF1FC29BFF1F62
:1038C000309BFF1FD09AFF1FD59BFF1FD49BFF1F6C
:1038D000D89AFF1F6C8EFF1F088EFF1FBF8DFF1F22
:1038E0001268DFF86CE04FF00C0C92FBFCF80CFB5C
:1038F0001822AEF80020BAE7164B1B78ABEB8B050D
:10390000B4FA84FB019CA3EB48031B1B124C2B4411
:103910002578CEEB8E74CEEB84044FEA5B1B2344F8
:1039200003EB8B0305B90333049C03EB440303EB64
:1039300081031344039A0344A3EB0A03C2F1060272
:10394000A3EB4C0302EB420203EB8201FFF749BAFF
:10395000EC9AFF1F6C8EFF1F1199FF1F9F4B1B7866
:10396000002B40F02D812DE9F04F0E208BB00AF096
:103970007DFC0DF05FFE014699489A4C9A4DFCF78C
:10398000D3FD9748FCF7A4FD0EF06EF880F30C0011
:103990002060FFF78FF92B68012B54D0022B00F029
:1039A0007784032B00F07081904C914E2368914CEA
:1039B0000993099B22683360991A8F4A1288013A49
:1039C000914200F239838D4C22689A1A092A00F23A
:1039D00002838B4C22689A1A0D2A00F2F782894CD6
:1039E00022689A1A252A1CD9874B1B8813B9874B42
:1039F0001B780BB1FEF71EF9FEF77AF9844B1B8892
:103A00001B3B9BB2022B08D8824B1B782BB1824BFD
:103A10001B7813B12B68012B01D002F0FFFA336839
:103A200023607E4C22689B1A502B00F2EB827C4B69
:103A30001B88012B00F0928205F008FB0BB0BDE85B
:103A4000F04F04F0B7BFDFF8DC81774BB8F8000027
:103A50001A78824240F0BC80744F754B38881A78CF
:103A6000824204D0734E3278002A40F0CB85724AED
:103A7000236812885D4C9A4280F2A48021680691E6
:103A80006E496F4A0B60069B136002232B60DFF8C0
:103A9000B491DFF8B4A1B9F80030BAF800201343AC
:103AA0009BB2002B40F03483684B1E680E200AF056
:103AB000DDFB6FF454731E44864202DC644B00222B
:103AC0001A70644B1B88002B00F01A85624B634907
:103AD0001A780B78934262D0002A60D0604B1E782F
:103AE000002E00F026875F480778002F40F01F87E0
:103AF000DFF874C15D4B8CF80070DFF874A1DFF85B
:103B000074C11B788AF800708CF800700127CDF81A
:103B100008C0077033B100270770029807700120B2
:103B20008AF80000544890F800E0BEF1000F00F061
:103B3000F88752480778002F41F02881DFF834C118
:103B40008CF80070012707704D480078002800F0BD
:103B50003386454F97F800C0BCF1000F41F01A8141
:103B6000DFF8008188F800C04FF0010C87F800C032
:103B7000BEF1000F40F020863343184340F01C860E
:103B8000244B1B78002B40F01C86364803703848C5
:103B900003703A48037037480370334803700A7063
:103BA0001B4B1B88A3F11B02012A40F2B5841D2B7D
:103BB0007FF4FBAE174A334B12780D4E1A70F5E6C0
:103BC00006F05ABF114A1278002A7FF457AF5EE719
:103BD000C0B2187005F0CAF83EE700BF649AFF1F34
:103BE000289AFF1F8C9BFF1F309BFF1F709DFF1F9C
:103BF000689AFF1F549AFF1F3A8DFF1F589AFF1FA4
:103C00005C9AFF1F609AFF1FC29AFF1FC09AFF1F96
:103C1000749BFF1F729BFF1F0E99FF1F2C99FF1FA4
:103C2000849AFF1F1899FF1F3099FF1F629BFF1F87
:103C30003299FF1F8A9AFF1F4E9AFF1FF49AFF1FA7
:103C4000509AFF1F0E9BFF1F109BFF1F249AFF1F00
:103C5000929BFF1F809BFF1FD69BFF1F0A9BFF1F8E
:103C60000B99FF1FD59BFF1FD49BFF1F0C99FF1FB4
:103C7000609BFF1FC29BFF1F0899FF1FDA9BFF1F5E
:103C80000999FF1F099BFF1FA24B21681A888A42CE
:103C900058DDA14B1B78002B54D1DFF8809299F8A6
:103CA00000007F280BDD7F38A3F15533A3FB0023F1
:103CB000DB0803EB4303A0EB83007330C0B2984BE7
:103CC00001931B8889F80000002B41F0CC80DFF8BD
:103CD00054A29AF80030002B00F03C86924F3B78BB
:103CE000002B00F03786914EDFF844B24FF0000809
:103CF00011E0ABFB0213DB0803EB4303A2EB8302EF
:103D000002F17300C0B205F0EFF83B7808F101084A
:103D1000434540F31F8699F8000056F8043F1844C5
:103D20007F28A0F17F02E4DC0028C0F10002E9DA7C
:103D3000ABFB0213DB0803EB4303A2EB8302C2F1EC
:103D40000C00DFE77B4E33687F2B00F38484002B6D
:103D50000ADA77485B42A0FB0370C00800EB400022
:103D6000A3EB8003C3F10C03DFF8B09199F8007066
:103D70009F4200F0E284704B1B88002B46D16F4BB2
:103D80006F491B6809889A4240F3D2871346891A03
:103D900001F006809B1AC3EB833301EBD17203EB76
:103DA000620303FB01F2002A93FBF1F0C1F2C08031
:103DB000FDF77EFAC0F3C6100DF03CFC614B804667
:103DC00018880DF037FC6049824640460DF086FCAD
:103DD000014650460DF082FC41460DF077FB4FF056
:103DE0007E5180460DF018FE002840F0C8875749E4
:103DF00040460DF02FFE002841F0668040460DF051
:103E000059FEC3B2DFF8488188F800307F2F0ADD01
:103E1000474B7F3FA3FB0723DB0803EB4303A7EBE1
:103E200083077337FFB2DFF8FCA089F800709AF8B7
:103E30000030002B40F0C085464B474A0393029266
:103E40001B7812781A4340F07386354B0193029B1E
:103E50001B78002B40F093869AF80030002B00F07E
:103E60004A86019B1B88002B00F0528730687F2810
:103E700040F392852E4A7F38A2FB0012D20802EB53
:103E80004202A0EB820073303060002B40F07D8650
:103E90009AF80030002B00F01F84234F3B78002B52
:103EA00000F01A84214ACDF810900023B146DFF8C3
:103EB000A0809B46164614E01D4BA3FB0102D208CE
:103EC00002EB4202A1EB820101F1730098F80010AD
:103ED000C0B204F0CBFF3A780BF1010B5A4540F326
:103EE000F88356F8040FD9F8002010447F28A0F179
:103EF0007F01E1DC0028C0F10001E7DA0C4BA3FBF5
:103F00000102D20802EB4202A1EB8201C1F10C00D6
:103F1000DCE700BF4E9AFF1FC09AFF1F3199FF1FB9
:103F2000909BFF1F609BFF1F388DFF1F448EFF1F5C
:103F3000ABAAAAAAB09AFF1FF49BFF1F489AFF1FC3
:103F40004C9AFF1FF09BFF1FCDCCCC3D0000FE42E2
:103F5000F69BFF1FDA9BFF1FC29BFF1FA44AA54BC6
:103F600011681B68A82041F6FF7200FB0122A248DD
:103F7000183B80FB02102A21104401FB03F3D117E8
:103F8000C1EB6031002AACBFA1F15402A1F155028E
:103F90009A4913449A4A087812789A496FF014049F
:103FA00004FB00330B609849002A4CD00868834218
:103FB00047DD964C2278002A00F079830132D2B294
:103FC000022A00F29185227003463DE0FEF7B0F927
:103FD0003368236003E58E4FFDF794FAFDF7B4FED6
:103FE0003B88032B02D1FCF7F1FC3B88042B01D169
:103FF000FCF736FE874B1B88032B00F0D683336813
:104000002360E6E403F028FE834B8449844A097860
:104010001B7812780B4383491343834A097812783B
:104020000B431343814A1278134300F07D8701F05C
:10403000D5FF33682360FAE4FDF782F93368236023
:10404000C1E4C0F220830B60794A108800283AD07E
:10405000784C326854F82000002800F0A983B2FBA5
:10406000F0F400FB1422C2EBC20200EBD07402EBAE
:10407000021202EB640292FBF0F402FB00F0002853
:104080006D4AB8BF04F1FF3452F82420A2F2FF7247
:104090006A4C246804FB02F202F57D32162002F518
:1040A000607200FB02F2664C02F57D3202F560722E
:1040B00084FB0204D017C0EB6440002AACBF0B386D
:1040C0000C3803440B605F4A5F4912885F4802F274
:1040D0007C7202FB03F35B0003F5FC630A8880FB40
:1040E0000310643A1844D917002B4FEA4202C1EB7F
:1040F000E021C0F2F684114481F30C0128200AF07B
:104100006BFC04F0A3FF0BB0BDE8F04F04F052BC11
:104110004F4B504A1B88128813444F4A11685A105B
:10412000B1EB530F4D4B1B6840F306829A424FF0A0
:104130000003B4BF01221A460192ACBF01221A4605
:104140000493039205930E200AF090F8444B4549DE
:10415000D3F800E0444B02901A780E6843480EF101
:104160000103802BA8BF8023012BB8BF0123002AA5
:1041700000F063810178914200F05F8139889942B3
:1041800000F0A2823A493B803A4B09784FF0010C8B
:1041900083F800C0DFF8E0C0384B02701B788CF861
:1041A000001043B9019B002B00F06781B9F8003083
:1041B000002B00F06281324B1868324B1A88324B68
:1041C0001B881A44314B1968431C802BA8BF8023DD
:1041D000012BB8BF0123B1EB520FC0F20582A3F14E
:1041E00049020F2A3FF662AC483BA8F800305DE474
:1041F000048EFF1FB09AFF1F09000280939BFF1FD0
:10420000829BFF1FDC9BFF1F709AFF1F749AFF1F8A
:104210000A9AFF1F189BFF1FC29BFF1FD59BFF1F02
:10422000609BFF1FDA9BFF1FD49BFF1FC09AFF1FDD
:10423000829AFF1F74310100942F0100909AFF1F92
:10424000491B8940769AFF1F809AFF1F83200882AE
:10425000769BFF1F789BFF1F6C9BFF1F689BFF1FB8
:104260007C9BFF1F249AFF1F709BFF1F0B9BFF1F50
:10427000719BFF1F8A9AFF1F0C9BFF1F649BFF1FF0
:10428000B49AFF1F9C9AFF1F9A9AFF1F8C9AFF1FD8
:10429000B04A20681288824204DBAF4B1B78002BA7
:1042A00000F0D381AD4C21680791AD49079B0968A7
:1042B0005B1AAC4909888B4213D891B1AA4B198873
:1042C00000293FF472ABA94B1B688342B8BF034679
:1042D000A7489A42008840F3FE85A64B1A60C9B2EF
:1042E00052E0A24BA2491B688342B8BF03469A42E0
:1042F000088800F39E819C499E4E09888342A8BF8E
:10430000034633600029EAD19A42C8BF134640F3FE
:104310009881811A00F01B849B1AC3EB833301EB55
:10432000D17203EB620393FBF1F003FB01F100296F
:10433000C0F2D885FCF7BCFFC0F3C6100DF07AF9C7
:104340008D4B064618880DF075F98C4907463046A6
:104350000DF0C4F9014638460DF0C0F931460DF0B4
:10436000B5F84FF07E5106460DF056FB002840F0A0
:10437000C083834930460DF06DFB002840F0BC84BB
:1043800030460DF097FBC1B2DFF8F8817E4E88F819
:104390000010FCF7D5FF30687F2840F3F7817B4B96
:1043A0007F38A3FB0023DB0803EB4303A0EB830070
:1043B0007330774B01931B883060002B40F01382E1
:1043C000DFF8D0A19AF80030002B00F0C281724FC4
:1043D0003B78002B00F0BD81DFF8C0B14FF0000941
:1043E00014E06A4BA3FB0213DB0803EB4303A2EBCD
:1043F000830202F1730098F80010C0B204F036FD99
:104400003B7809F101094B4540F3A3815BF8040FA8
:10441000336818447F28A0F17F02E2DC0028C0F155
:104420000002E8DA594BA3FB0213DB0803EB43035A
:10443000A2EB8302C2F10C00DDE75949DFF864C149
:10444000097800293FF4A8AE9CF800B059453FF424
:10445000A3AEBEF14B0F40F359831833802BB7F84E
:1044600000B0A8BF80239B453FF496AE3B804E4BE7
:104470004FF0010B83F800B08EE6029AA6F2523399
:104480009A42BFF613ABBAF80030002B3FF40EABE4
:10449000039B002B7FF48FAE444B1B881BB1059B05
:1044A000002B7FF488AE049B002B3FF4FFAA404B07
:1044B0001A78002A7FF4FAAADFF8F88001221A702D
:1044C00098F80030002B40F064853B4B1B78002BA4
:1044D00040F09885394B1B78002B00F0F385384B62
:1044E0001B78002B7FF4E2AA364B1B78002B3FF49D
:1044F000DDAA3B880A333B802B4B1A70FFF7D6BAF4
:10450000314A32491370324A0B7013702149314AD3
:104510000B701370FFF744BBDFF8BC8098F80030D5
:10452000002B7DD02D4A1278002A40F0B8832C4F02
:104530002C4E3B70FFF73ABA9A424FF00003B4BFDB
:1045400001221A460492ACBF01221A460393059237
:104550000193F8E54E9AFF1FC09AFF1F709DFF1F41
:10456000509AFF1FF29BFF1FF49BFF1FF49AFF1F3F
:104570004C9AFF1F489AFF1FF09BFF1FCDCCCC3DEC
:104580000000FE42F69BFF1FB09AFF1FABAAAAAA2B
:10459000909BFF1F609BFF1F388DFF1F448EFF1FE6
:1045A000719BFF1F0C9BFF1F8A9AFF1F069AFF1F1C
:1045B000929BFF1F389BFF1F0899FF1F0999FF1F40
:1045C0000A99FF1F0B99FF1FD59BFF1FC29BFF1F5F
:1045D000DA9BFF1FD49BFF1F729BFF1F0E99FF1FCB
:1045E000099BFF1F689AFF1F9C4A1278002A3ED140
:1045F0003A889A423FF45AAA3B80994B01221A709A
:10460000FFF754BAC0B2187004F0BEFB9548964943
:10461000964A002303700B7013703370FFF727BAAC
:10462000934F3B78002B40F07883924E3B70FFF71E
:10463000BDB9914B1A60914B198800297FF44FAE98
:1046400013468342A8BF034663E601238C4C894E80
:104650002B60FFF7ABB98B487F3BA0FB0370C00812
:1046600000EB4000A3EB80037333FFF77DBB4A28C8
:1046700040F33D831833802B3A88A8BF80239A42A9
:10468000BAD1FFF713BA804C2278002A40F0378362
:104690007E4A1268D2F17F0248BF03329210013283
:1046A000821A93423FF7CFAC0A601346CCE4774AB4
:1046B0001268D2F17F0248BF033200EBA20201323E
:1046C0009342FFF6C0ACEFE7714BDFF8C8C1197831
:1046D00062E54E46DDF81090039B1B78002B40F0FE
:1046E0006782029B1B78002B40F05E82019B1B8837
:1046F000002B00F05382039A9AF80030127813438B
:10470000029A1278134300F00584564B1B78002B55
:1047100050D0614A1378082B4CD80133DBB21370A8
:104720005E4A306812685E49013B821A41F82320D4
:104730005C4B21681A8889F800008A42504CBFF609
:1047400034A92268584B0892089A4A4E1A60FFF71B
:104750002DB9444B1B78002B40F0DE80434B1B7877
:10476000002B55D1514B1B78002B4DD1019B1B8841
:10477000002B43D04E4B1B78002B3AD14D4A316869
:10478000117003233B4E2B60FFF710B90028BFF6D2
:1047900010AE3C4B4042A3FB0023DB0803EB43037A
:1047A000A0EB8300C0F10C0003E6FCF7BBF826E4A5
:1047B0006B226DE43068BBE7284B1B78002B3FF47D
:1047C000EEA93A480378002B40F0DC82254F3A4EA0
:1047D0003B70254F3B70254F3B7001230370032333
:1047E0003370FFF7DCB998F80010C0B204F03EFB5C
:1047F000E6E57F21422004F0FBFABFE798F80010BD
:10480000307804F033FBB5E73078FCF7C1FBADE757
:104810003368A3F10C007F2840F39D81194A8B3B3C
:10482000A2FB0312D20802EB4202A3EB820303F1C4
:10483000730098F80010C0B204F018FB9AF800302A
:10484000002B8FD0144F3B78002B8BD0DFF86C906F
:10485000DFF830B04FF0000A46E000BF729BFF1F48
:104860008A9AFF1FD59BFF1F609BFF1FDA9BFF1FCC
:10487000099BFF1F689AFF1F489AFF1FF49BFF1FA9
:10488000709DFF1FABAAAAAA749AFF1F589BFF1F17
:10489000719BFF1F0C9BFF1F388DFF1FD09BFF1FBD
:1048A000488EFF1F4E9AFF1F6C9CFF1FC29BFF1F6D
:1048B000D49BFF1F3199FF1FBF8DFF1F448EFF1F29
:1048C000ABFB0213DB0803EB4303A2EB830202F111
:1048D000730098F80010C0B204F0C8FA3B780AF1EF
:1048E000010A53457FF73EAF326859F8043F13443D
:1048F000A3F10C007F28A3F18B02E1DC0028C3F1B7
:104900000C03E6DAABFB0312D20802EB4202A3EB84
:104910008203C3F10C00DCE77F21402004F068FA39
:10492000B84AB94B3168116000221A7016E70023AB
:104930000370B64B1B78002B3FF4F4A8DFF8D0A22D
:104940009AF80000002800F0D08200208AF80000C9
:10495000FFF7E8B8AF4B1B78002B40F03482AE4B2A
:104960001B78002B40F02A82019B1B88002B00F053
:104970002082AA4B1B78002B40F01682A84B1B7894
:10498000002B40F07482A74BA74A216812880020B0
:10499000186001232B60D0E60028BFF675AAA34A51
:1049A0004042A2FB0012D20802EB4202A0EB8200BE
:1049B000C0F10C00FFF768BA9D4B01931B88002BD8
:1049C00040F06A82934B0393934B02938E4F3B7854
:1049D00083B3984A0496DFF854B24FF000081646A5
:1049E00010E0ABFB0103DB0803EB4303A1EB830106
:1049F00001F17300C0B204F077FA3B7808F10108C6
:104A0000434516DD99F8000056F8043F18447F2806
:104A1000A0F17F01E5DC0028C0F10001EADAABFB80
:104A20000103DB0803EB4303A1EB8301C1F10C009D
:104A3000E0E7049E039B1B78002B3FF408AA99F83B
:104A40000030A3F10C007F2840F32B82774A8B3B88
:104A5000A2FB0312D20802EB4202A3EB820303F192
:104A60007300C0B204F040FA9AF80030002B00F056
:104A70008280654F3B78002B00F0BE826D49049622
:104A8000DFF8A8B14FF000080E4611E0ABFB0203BF
:104A9000DB0803EB4303A2EB830202F17300C0B215
:104AA00004F022FA3B7808F10108434540F30982FB
:104AB00056F8042F99F800301344A3F10C007F2816
:104AC000A3F18B02E2DC0028C3F10C03E7DAABFBB5
:104AD0000302D20802EB4202A3EB8203C3F10C00F3
:104AE000DDE70139FFF707BB002323700346FFF71B
:104AF000ABBA012148E4029B1B78039A1278134356
:104B00007FF4AFA9019B1B88FFF7B0B9243B012BB1
:104B1000B7F800B0B8BF01239B457FF4A7ACFFF7FF
:104B20003BBB4548007800283FF426A8FFF711B8A2
:104B30003F4A01921288002A3FF47EAF384604F0C3
:104B4000D3F99AF80030002B7FF440AF72E741F6BA
:104B5000FF70FFF7EFBB0028BFF66BAE334AC3F11F
:104B60000C03A2FB0312D20802EB4202A3EB820366
:104B7000C3F10C005DE6029B1B78002BBDD099F8B9
:104B80000000FCF7AFF8FFF767B9DFF8B080C0B2FC
:104B900098F8001004F06AF9FFF77AB9274B3078DB
:104BA000197804F063F9A6E53078FCF7F1F99DE592
:104BB0003368A3F10C007F2840F35E811B4A8B3BD6
:104BC000A2FB0312D20802EB4202A3EB820303F121
:104BD0007300DFF86880C0B298F8001004F046F95E
:104BE0009AF80030002B3FF47CAD074F3B78002B48
:104BF0003FF477AD0F4ACDF810900023B1469B46A5
:104C0000164632E0D09BFF1F388DFF1F0C99FF1F07
:104C1000609BFF1FDA9BFF1FC29BFF1FD59BFF1FDF
:104C2000D49BFF1F489AFF1F4E9AFF1FABAAAAAA48
:104C3000909BFF1F448EFF1F0999FF1FF69BFF1FCC
:104C4000BD4BA3FB0C12D20802EB4202ACEB820C70
:104C50000CF1730098F80010C0B204F007F93A782C
:104C60000BF1010B5A4540F3328156F8041FD9F875
:104C700000201144A1F10C007F28A1F18B0CDFDC96
:104C80000028C1F10C01E5DAAB4BA3FB0102D2080D
:104C900002EB4202A1EB8201C1F10C00DAE7A74F5F
:104CA000387801F02DFAA64B1B78002B4CD03B88AE
:104CB0007E2B49D8A34EDFF890923268D9F80010C5
:104CC000521A0F2A3AD9013399B2A04B3980188869
:104CD000002850D0C9B2C0B204F08AF89C4F98F8AE
:104CE00000303268C9F800203B70FEF75FBE243BFD
:104CF000012BB8BF01237BE47F21FFF745BB531C89
:104D0000DBB2022B3FF6F0AE23700346FFF79CB9EF
:104D100099F8000004F0E8F8F4E6884B894E198809
:104D20006A2004F0D9FA98F800303B70FEF73EBED6
:104D30008B42A8BF0B46FFF72AB8824E844F98F8E3
:104D400000303B70FEF732BE824B1B78002BF4D054
:104D500039880029F1D07B4EDFF8EC913368D9F81F
:104D600000209B1A0F2BE9D9784B0139188889B29A
:104D700039800028AED1C8B204F0EEF8AEE70123C6
:104D8000FFF740B800230370FEF709BF0027077044
:104D9000FEF7DABE4FF0000C87F800C0FEF7E8BE61
:104DA00041F6FF70FFF704B80021402004F020F81E
:104DB000E4E599F8000004F097F8DAE599F80000C6
:104DC000FBF790FFD0E599F80030A3F10C007F28A5
:104DD00040F39080584A8B3BA2FB0312D20802EBAF
:104DE0004202A3EB820303F17300C0B204F07CF82B
:104DF0009AF80030002B3FF4B2AD574F3B78002BB0
:104E00003FF4ADADDFF854A14B4E4FF0000811E078
:104E1000A6FB0213DB0803EB4303A2EB830202F1C0
:104E20007300C0B204F060F83B7808F10108434514
:104E30007FF795AD5AF8042F99F800301344A3F189
:104E40000C007F28A3F18B02E2DC0028C3F10C03E5
:104E5000E7DAA6FB0312D20802EB4202A3EB8203BD
:104E6000C3F10C00DDE704F03FF8FEF730BF00218E
:104E7000422003F0BDFF86E50028BFF6AAAE2E4A09
:104E8000C3F10C03A2FB0312D20802EB4202A3EB14
:104E90008203C3F10C009CE6314B0393314B029328
:104EA0004CE60028BFF6DDAD234AC3F10C03A2FB9C
:104EB0000312D20802EB4202A3EB8203C3F10C00FF
:104EC000CFE5049EFEF7C3BF7F23FEF79BBF4E4690
:104ED000DDF8109005E49842A8BF1846224B1860F0
:104EE000FFF7FDB90138FFF725BA1E4F1F4802979B
:104EF000FEF711BE0028BFF678AF0F4AC3F10C03CE
:104F0000A2FB0312D20802EB4202A3EB8203C3F11D
:104F10000C006AE74FF47A43013BFDD199F8000099
:104F200003F0E2FFFFF7F1BB01F04CF8FFF781B8A7
:104F30000138FEF73DBF00BFABAAAAAA149BFF1F12
:104F40000D99FF1F689AFF1F2C9BFF1F129BFF1FCD
:104F5000099BFF1F0C99FF1F388DFF1F448EFF1FF9
:104F6000DA9BFF1FC29BFF1F489AFF1FD59BFF1FA5
:104F70005D4B1B78002B7EF499AD5C4BAEF12401A8
:104F800081F3470119605B20C9B203F031FF98F843
:104F90000030032B7EF488ADDFF8548198F80020B0
:104FA000002A40F08480534F3B78002B73D14E4E43
:104FB0003378002B63D1504B1B78002B53D14F4AD1
:104FC00013804F4B1B78002B30D14E4B7F221A8021
:104FD0003A7898F800301343327813437EF464AD86
:104FE000494A7F210720138003F002FF7F210B2015
:104FF00003F0FEFEFEF758BD029B1B78002B3EF42B
:1050000030AFBCE53C4B1B78E3B13A4B1B78002B2F
:105010007EF44CAD344B1B78002B3EF447AD3B88FF
:105020000A3B3B80394B1A70FEF740BD354B0022DE
:105030007F2107201A8003F0DBFE7F210B2003F085
:10504000D7FEC5E72B4B1B78002B7EF42FAD264BEC
:105050001B78002B3EF42AAD3B88013B3B802B4B59
:105060001A70FEF723BD254B01227F2107201A80ED
:1050700003F0BEFE7F210B2003F0BAFEA1E7224B16
:1050800004227F2107201A8003F0B2FE00210B20AA
:1050900003F0AEFE8FE71C4B02227F2107201A800F
:1050A00003F0A6FE7F210B2003F0A2FE7FE7164A45
:1050B00000210720138003F09BFE7F210B2003F0CB
:1050C00097FE70E70B4B1B78002B7FF451AF064B1C
:1050D0001B78002B3EF4EAAC3B8801333B800B4B42
:1050E0001A70FEF7E3BC00BF0B99FF1F989BFF1FD0
:1050F0000899FF1F0A99FF1F0999FF1F1C9AFF1F9C
:105100000C99FF1FF49BFF1F1E9AFF1F8A9AFF1F17
:1051100010B509F03BF90D4806F01AFA0C4806F0F4
:1051200017FA0C4806F014FA4FF07E5201210023C2
:105130000948FBF791F90948094A0A4980230024E4
:1051400003710460BDE810400CF0B4B9E89BFF1F88
:10515000E49BFF1FE09BFF1F289AFF1F789AFF1F09
:10516000348DFF1FA905000010B50446A420636814
:10517000198804F0B1F8E368A620BDE8104019884A
:1051800004F0AAB803462A205B68198804F0A4B882
:1051900010B5044622206368198804F09DF8E3687E
:1051A0002420BDE81040198804F096B810B50446D4
:1051B0000A206368198804F08FF8E3680C20BDE8C2
:1051C0001040198804F088B810B5044606206368BA
:1051D000198804F081F8E3680820BDE810401988B8
:1051E00004F07AB810B5044602206368198804F008
:1051F00073F8E3680420BDE81040198804F06CB827
:1052000070B50E4D84B0122604220123CDE900268C
:1052100004460390029328461423102108F0DAF87C
:10522000062209230293CDE90026039414231021BA
:10523000284608F0CFF804B070BD00BF749CFF1F73
:105240002DE9F041A14DB5F90030032B0CD083B30B
:10525000022B4ED0052B79D0012B00F0A480042B1B
:1052600000F0C680BDE8F08110200AF04DFEC83085
:10527000B0F57A6FA8BF4FF47A60B0F5FA7FB8BF87
:105280004FF4FA7000F51673B3F57A6F904A914CAB
:1052900081B2A8BF4FF47A6322201180238004F0EA
:1052A0001BF82188242004F017F8B5F90030002BF2
:1052B000CED10E2008F0DAFF40F6FF73C8309842D6
:1052C000A8BF184620EAE07081B200F2DC50984294
:1052D000814CA8BF1846814B20800220198003F022
:1052E000FBFF2188042003F0F7FFB5F90030022B03
:1052F000B0D101200AF008FE044600200AF004FEA6
:105300008442B8BF044604F1C800B0F57A6FA8BF64
:105310004FF47A60B0F5FA7FB8BF4FF4FA7000F539
:105320004873B3F57A6F6E4A6E4CA8BF4FF47A6338
:1053300081B20A201180238003F0CEFF21880C2047
:1053400003F0CAFFB5F90030052B85D10F200AF014
:10535000DBFDC0F53F610431B1F5FA6FA8BF4FF432
:10536000FA61C0F54363B1F5AF6FB8BF4FF4AF61F9
:10537000B3F5FA6FA8BF4FF4FA63B3F5AF6F5A4AAB
:105380005A4CB8BF4FF4AF6389B2A4201180238078
:1053900003F0A2FF2188A62003F09EFFB5F900309C
:1053A000012B7FF45CAF152008F060FF41F25C2315
:1053B00000F596709842A8BF1846B0F52F7FB8BF89
:1053C0004FF42F7081B200F516709842484CA8BF78
:1053D0001846484B20800620198003F07DFF218865
:1053E000082003F079FFB5F90030042B7FF43AAFC1
:1053F000DFF80481414E424D00274FF4AF74F9B2FB
:10540000304606F0A9F858F8043BC3F5967303FB41
:1054100000F085FB0023C017C0EB6310844207F146
:105420000107A8BF0446062FE9D1DFF8D880364E21
:10543000334D0027F9B2304606F08EF858F8043B99
:10544000C3F5967303FB00F085FB0023C017C0EB88
:105450006310844207F10107A8BF04460C2FE9D16D
:10546000DFF8A8802A4E264D0027F9B2304606F014
:1054700073F858F8043BC3F5967303FB00F085FB03
:105480000023C017C0EB6310844207F10107A8BFD7
:1054900004460C2FE9D1143C322CB8BF322440F220
:1054A0003A72A4F5AF7302FB03F3963B85FB032529
:1054B0001848194ADB17A1B2A3EB651332330180F8
:1054C000BDE8F0412A20136003F006BF209CFF1FB7
:1054D0009C9AFF1F9A9AFF1F4C9AFF1F4E9AFF1F1C
:1054E000789BFF1F769BFF1F289BFF1F1C9BFF1FA6
:1054F000869BFF1F889BFF1F9C8DFF1FE89BFF1F44
:10550000B5814E1B6C8DFF1FE49BFF1F3C8DFF1F61
:10551000E09BFF1F669AFF1F708EFF1F2DE9F04171
:10552000214D82B0012602B284B2CDE90026284680
:105530007823192107F0B6FD04F10C0212B2CDE96F
:105540000026284604EB060878231921A71C07F03B
:10555000A9FD0FFA88F83FB2192300971946424671
:105560002846019607F09EFD78234246009719468B
:105570002846019604F10A070B3407F093FD3FB269
:1055800024B2782319463A462846CDE9004607F06A
:1055900089FD1923CDE900463A461946284607F009
:1055A00081FD02B0BDE8F081749CFF1FF0B5164E7E
:1055B000164FB6F90030834283B00D4603D1B7F9D8
:1055C00000308B421DD00023009304B25B231048AF
:1055D00026221C2106F064FF01230D4826222146C5
:1055E00006F0F8FD6B1C04D1012034803D8003B02F
:1055F000F0BD2DB2064801232622294606F0EAFD19
:10560000F2E7002003B0F0BD808EFF1F828EFF1FE7
:10561000749CFF1F2DE9F043C64D2B7883B01BB15E
:10562000C54B4FF6FF721A80C44BB3F900303BB143
:10563000013B042B1AD8DFE803F04972A6C6260006
:10564000BF4BC0481B685A2283F30C0302FB03F3D1
:1056500003F2FF73A0FB03201B1A00EB5300C00AE8
:105660004FF0FF311C30FFF7A1FF20B900232B7052
:1056700003B0BDE8F083B44807F06AFB00232B7049
:1056800003B0BDE8F0830F200AF03EFCC0F53B609C
:105690000830B0F5FA6FA8BF4FF4FA60B0F5AF6FFD
:1056A000B8BF4FF4AF605A23A0F5AF6003FB00F022
:1056B000A64B00F59670A3FB003080094FF0FF3138
:1056C0001C30FFF773FF0028D0D0D4E7A04B1B7825
:1056D000002B00F02A81152008F0C8FD024641F297
:1056E0005C239342A8BF1346B3F52F7FB8BF4FF496
:1056F0002F735A21A3F52F7301FB03F39549964CA1
:1057000003F5FA63A1FB03131B0A4FF0FF3103F10A
:105710001C002260FFF74AFF0028A7D0ABE78F4BA1
:105720008F4A1B681268B3F57A6FA8BF4FF47A638B
:10573000B2F57A6FA8BF4FF47A62B3F5FA7FB8BFBB
:105740004FF4FA73B2F5FA7FB8BF4FF4FA72A3F5CB
:10575000FA70A2F5FA715A2303FB00F003FB01F182
:10576000804B01F2D66100F2D660A3FB0121A3FBBE
:105770000030C90AC00A1C311C30FFF717FF00288F
:105780003FF474AF77E7784B764A1B68B3F57A6FCE
:10579000A8BF4FF47A63B3F5FA7FB8BF4FF4FA733A
:1057A0005A21A3F5FA7001FB00F000F2D660A2FBCB
:1057B0000020C00A4FF0FF311C30FFF7F7FE002831
:1057C0003FF454AF57E725220024CDE900245E487A
:1057D000664E674FDFF89C91DFF8708176231C21BD
:1057E00007F060FC18E0484526DC88FB0023C11761
:1057F000C1EB631132395A2303FB01F19631A8FB47
:10580000013149091C3109B201231C444E482522AB
:1058100006F0E0FC0C2C11D0E1B2384605F09CFEFD
:1058200056F8043BC3F5967343F6972203FB00F04A
:105830009042D8DC1C21E7E77621E5E72622002408
:10584000CDE9002440484C4E4C4FDFF82891DFF85A
:10585000FC8076231C2107F025FC18E0484526DC57
:1058600088FB0023C117C1EB631132395A2303FBB4
:1058700001F19631A8FB013149091C3109B201231C
:105880001C443148262206F0A5FC0C2C11D0E1B2B4
:10589000384605F061FE56F8043BC3F5967343F6AF
:1058A000972203FB00F09042D8DC1C21E7E7762129
:1058B000E5E727220024CDE900242348304E314F6C
:1058C000DFF8B090DFF8848076231C2107F0EAFB34
:1058D00017E088FB0023C117C1EB631132395A234B
:1058E00003FB01F19631A8FB013149091C3109B2D2
:1058F000154801340123272206F06CFC062C3FF4E6
:10590000BAAEE1B2384605F027FE56F8043BC3F5BF
:10591000967303FB00F043F6972398424FF01C0167
:10592000E6DD4845D5DD7621E2E711200AF0ECFA04
:105930000246D4E62A9CFF1F808EFF1F209CFF1F7B
:105940008C9BFF1F01011000749CFF1FB5814E1B33
:105950000D9AFF1FD34D6210109AFF1F6C9BFF1F03
:10596000689BFF1F1BECCB958C9AFF1F6C8DFF1F54
:10597000E49BFF1F539B01003C8DFF1FE09BFF1F1B
:105980009C8DFF1FE89BFF1F2DE9F043834D0446CC
:1059900083B02846E668D4F8008007F0C9F91120E2
:1059A000FFF7BCFD012719234FF0280919462422CF
:1059B00028460197CDF8009007F074FB782319462C
:1059C00024222846CDF80090019707F06BFB39465A
:1059D000284608F01DF8724B2B61B8F1000F07D074
:1059E00040460CF0EDFE41460246284608F0DAFA41
:1059F0006A4808F039FB4FF4A0136A4967482B61E5
:105A0000032208F0CFFA654808F02EFB4FF40C1380
:105A1000654962482B61032208F0C4FA5F4808F028
:105A200023FB002E40F09080604B012738461F700A
:105A3000FFF7E6FB6368628919882389D21A61D06F
:105A4000C91A02EBD2735C205B1000FB013303FB2D
:105A500002F1002993FBF2F3554AACBF1B331A3312
:105A600099B211801A2001221BB2CDE90002194619
:105A70004A48142207F016FB002E4ED0238A628A71
:105A8000E168D21A098800F08680CB1A02EBD27145
:105A90005C20491000FB031191FBF2F301FB02F2C1
:105AA000002AACBF1B331A3399B21BB2414A3B48A0
:105AB000118001263822CDE900261946322207F04E
:105AC000F1FA09230022009340230192194633483A
:105AD00007F03AFB3146314807F09AFF6368364ACF
